{
  "address": "0x945622DbD62F5710E6e86F8D0D6a06Fd304dF381",
  "abi": [
    {
      "inputs": [
        {
          "internalType": "contract IERC721",
          "name": "erc721Address",
          "type": "address"
        }
      ],
      "stateMutability": "nonpayable",
      "type": "constructor"
    },
    {
      "anonymous": false,
      "inputs": [
        {
          "indexed": false,
          "internalType": "uint256",
          "name": "listingId",
          "type": "uint256"
        },
        {
          "indexed": false,
          "internalType": "uint256",
          "name": "tokenId",
          "type": "uint256"
        },
        {
          "indexed": false,
          "internalType": "address",
          "name": "seller",
          "type": "address"
        }
      ],
      "name": "BlastboxDelisted",
      "type": "event"
    },
    {
      "anonymous": false,
      "inputs": [
        {
          "indexed": false,
          "internalType": "uint256",
          "name": "listingId",
          "type": "uint256"
        },
        {
          "indexed": false,
          "internalType": "uint256",
          "name": "tokenId",
          "type": "uint256"
        },
        {
          "indexed": false,
          "internalType": "address",
          "name": "seller",
          "type": "address"
        },
        {
          "indexed": false,
          "internalType": "uint256",
          "name": "price",
          "type": "uint256"
        },
        {
          "indexed": false,
          "internalType": "address",
          "name": "payTokenAddress",
          "type": "address"
        }
      ],
      "name": "BlastboxListed",
      "type": "event"
    },
    {
      "anonymous": false,
      "inputs": [
        {
          "indexed": false,
          "internalType": "uint256",
          "name": "listingId",
          "type": "uint256"
        },
        {
          "indexed": false,
          "internalType": "uint256",
          "name": "tokenId",
          "type": "uint256"
        },
        {
          "indexed": false,
          "internalType": "address",
          "name": "seller",
          "type": "address"
        },
        {
          "indexed": false,
          "internalType": "address",
          "name": "buyer",
          "type": "address"
        },
        {
          "indexed": false,
          "internalType": "uint256",
          "name": "price",
          "type": "uint256"
        },
        {
          "indexed": false,
          "internalType": "uint256",
          "name": "fee1",
          "type": "uint256"
        },
        {
          "indexed": false,
          "internalType": "uint256",
          "name": "fee2",
          "type": "uint256"
        }
      ],
      "name": "BlastboxSold",
      "type": "event"
    },
    {
      "anonymous": false,
      "inputs": [
        {
          "indexed": false,
          "internalType": "uint256",
          "name": "fee1",
          "type": "uint256"
        },
        {
          "indexed": false,
          "internalType": "address",
          "name": "treasury1",
          "type": "address"
        },
        {
          "indexed": false,
          "internalType": "uint256",
          "name": "fee2",
          "type": "uint256"
        },
        {
          "indexed": false,
          "internalType": "address",
          "name": "treasury2",
          "type": "address"
        },
        {
          "indexed": false,
          "internalType": "address",
          "name": "changedBy",
          "type": "address"
        }
      ],
      "name": "FeesChanged",
      "type": "event"
    },
    {
      "anonymous": false,
      "inputs": [
        {
          "indexed": true,
          "internalType": "address",
          "name": "previousOwner",
          "type": "address"
        },
        {
          "indexed": true,
          "internalType": "address",
          "name": "newOwner",
          "type": "address"
        }
      ],
      "name": "OwnershipTransferred",
      "type": "event"
    },
    {
      "anonymous": false,
      "inputs": [
        {
          "indexed": false,
          "internalType": "address",
          "name": "account",
          "type": "address"
        }
      ],
      "name": "Paused",
      "type": "event"
    },
    {
      "anonymous": false,
      "inputs": [
        {
          "indexed": false,
          "internalType": "address",
          "name": "account",
          "type": "address"
        }
      ],
      "name": "Unpaused",
      "type": "event"
    },
    {
      "anonymous": false,
      "inputs": [
        {
          "indexed": false,
          "internalType": "address[]",
          "name": "whitelists",
          "type": "address[]"
        }
      ],
      "name": "WhitelistAdded",
      "type": "event"
    },
    {
      "anonymous": false,
      "inputs": [
        {
          "indexed": false,
          "internalType": "address[]",
          "name": "whitelists",
          "type": "address[]"
        }
      ],
      "name": "WhitelistRemoved",
      "type": "event"
    },
    {
      "inputs": [],
      "name": "DECIMAL_FACTOR",
      "outputs": [
        {
          "internalType": "uint256",
          "name": "",
          "type": "uint256"
        }
      ],
      "stateMutability": "view",
      "type": "function"
    },
    {
      "inputs": [],
      "name": "activeListingCount",
      "outputs": [
        {
          "internalType": "uint256",
          "name": "",
          "type": "uint256"
        }
      ],
      "stateMutability": "view",
      "type": "function"
    },
    {
      "inputs": [
        {
          "internalType": "uint256",
          "name": "tokenId",
          "type": "uint256"
        },
        {
          "internalType": "uint256",
          "name": "price",
          "type": "uint256"
        },
        {
          "internalType": "contract IERC20",
          "name": "payTokenAddress",
          "type": "address"
        }
      ],
      "name": "addListing",
      "outputs": [],
      "stateMutability": "nonpayable",
      "type": "function"
    },
    {
      "inputs": [
        {
          "internalType": "uint256",
          "name": "listingId",
          "type": "uint256"
        }
      ],
      "name": "buy",
      "outputs": [],
      "stateMutability": "payable",
      "type": "function"
    },
    {
      "inputs": [],
      "name": "erc721Contract",
      "outputs": [
        {
          "internalType": "contract IERC721",
          "name": "",
          "type": "address"
        }
      ],
      "stateMutability": "view",
      "type": "function"
    },
    {
      "inputs": [],
      "name": "fee1",
      "outputs": [
        {
          "internalType": "uint256",
          "name": "",
          "type": "uint256"
        }
      ],
      "stateMutability": "view",
      "type": "function"
    },
    {
      "inputs": [],
      "name": "fee2",
      "outputs": [
        {
          "internalType": "uint256",
          "name": "",
          "type": "uint256"
        }
      ],
      "stateMutability": "view",
      "type": "function"
    },
    {
      "inputs": [],
      "name": "flipIsUsingMatic",
      "outputs": [],
      "stateMutability": "nonpayable",
      "type": "function"
    },
    {
      "inputs": [],
      "name": "isUsingMatic",
      "outputs": [
        {
          "internalType": "bool",
          "name": "",
          "type": "bool"
        }
      ],
      "stateMutability": "view",
      "type": "function"
    },
    {
      "inputs": [],
      "name": "listingCount",
      "outputs": [
        {
          "internalType": "uint256",
          "name": "",
          "type": "uint256"
        }
      ],
      "stateMutability": "view",
      "type": "function"
    },
    {
      "inputs": [
        {
          "internalType": "uint256",
          "name": "",
          "type": "uint256"
        }
      ],
      "name": "listings",
      "outputs": [
        {
          "internalType": "address",
          "name": "owner",
          "type": "address"
        },
        {
          "internalType": "bool",
          "name": "isActive",
          "type": "bool"
        },
        {
          "internalType": "uint256",
          "name": "tokenId",
          "type": "uint256"
        },
        {
          "internalType": "uint256",
          "name": "price",
          "type": "uint256"
        },
        {
          "internalType": "contract IERC20",
          "name": "tokenAddress",
          "type": "address"
        }
      ],
      "stateMutability": "view",
      "type": "function"
    },
    {
      "inputs": [],
      "name": "owner",
      "outputs": [
        {
          "internalType": "address",
          "name": "",
          "type": "address"
        }
      ],
      "stateMutability": "view",
      "type": "function"
    },
    {
      "inputs": [
        {
          "internalType": "bool",
          "name": "stop",
          "type": "bool"
        }
      ],
      "name": "pause",
      "outputs": [],
      "stateMutability": "nonpayable",
      "type": "function"
    },
    {
      "inputs": [],
      "name": "paused",
      "outputs": [
        {
          "internalType": "bool",
          "name": "",
          "type": "bool"
        }
      ],
      "stateMutability": "view",
      "type": "function"
    },
    {
      "inputs": [
        {
          "internalType": "uint256",
          "name": "listingId",
          "type": "uint256"
        }
      ],
      "name": "removeListing",
      "outputs": [],
      "stateMutability": "nonpayable",
      "type": "function"
    },
    {
      "inputs": [
        {
          "internalType": "address[]",
          "name": "_whitelist",
          "type": "address[]"
        }
      ],
      "name": "removeWhitelistTokens",
      "outputs": [],
      "stateMutability": "nonpayable",
      "type": "function"
    },
    {
      "inputs": [],
      "name": "renounceOwnership",
      "outputs": [],
      "stateMutability": "nonpayable",
      "type": "function"
    },
    {
      "inputs": [
        {
          "internalType": "uint256",
          "name": "_fee1",
          "type": "uint256"
        },
        {
          "internalType": "address",
          "name": "_treasury1",
          "type": "address"
        },
        {
          "internalType": "uint256",
          "name": "_fee2",
          "type": "uint256"
        },
        {
          "internalType": "address",
          "name": "_treasury2",
          "type": "address"
        }
      ],
      "name": "setFee",
      "outputs": [],
      "stateMutability": "nonpayable",
      "type": "function"
    },
    {
      "inputs": [
        {
          "internalType": "address[]",
          "name": "_whitelist",
          "type": "address[]"
        }
      ],
      "name": "setWhitelistTokens",
      "outputs": [],
      "stateMutability": "nonpayable",
      "type": "function"
    },
    {
      "inputs": [
        {
          "internalType": "address",
          "name": "newOwner",
          "type": "address"
        }
      ],
      "name": "transferOwnership",
      "outputs": [],
      "stateMutability": "nonpayable",
      "type": "function"
    },
    {
      "inputs": [],
      "name": "treasury1",
      "outputs": [
        {
          "internalType": "address",
          "name": "",
          "type": "address"
        }
      ],
      "stateMutability": "view",
      "type": "function"
    },
    {
      "inputs": [],
      "name": "treasury2",
      "outputs": [
        {
          "internalType": "address",
          "name": "",
          "type": "address"
        }
      ],
      "stateMutability": "view",
      "type": "function"
    },
    {
      "inputs": [
        {
          "internalType": "address",
          "name": "",
          "type": "address"
        }
      ],
      "name": "whitelistedTokens",
      "outputs": [
        {
          "internalType": "bool",
          "name": "",
          "type": "bool"
        }
      ],
      "stateMutability": "view",
      "type": "function"
    }
  ],
  "transactionHash": "0xf7690c4f87623d8c2504ddcdd2f415abd4f2216a5aa6ca4fab53cb75f13cc175",
  "args": [
    "0x9f6fBb9736F1cEc0376215F1d2a99fA8670dEC0F"
  ],
  "numDeployments": 2,
  "solcInputHash": "9e5f73645830c8ab51d95c9d49e8c66d",
  "bytecode": "0x60806040523480156200001157600080fd5b5060405162001cf538038062001cf5833981016040819052620000349162000114565b60016000556200004433620000c2565b6001805460ff60a01b1916815560408051808201909152908152603160f81b60208201526001600160a01b0382166200009b5760405162461bcd60e51b815260040162000092919062000146565b60405180910390fd5b50600a80546001600160a01b0319166001600160a01b03929092169190911790556200019e565b600180546001600160a01b038381166001600160a01b0319831681179093556040519116919082907f8be0079c531659141344cd1fd0a4f28419497f9722a3daafe3b4186f6b6457e090600090a35050565b6000602082840312156200012757600080fd5b81516001600160a01b03811681146200013f57600080fd5b9392505050565b600060208083528351808285015260005b81811015620001755785810183015185820160400152820162000157565b8181111562000188576000604083870101525b50601f01601f1916929092016040019392505050565b611b4780620001ae6000396000f3fe6080604052600436106101405760003560e01c80638da5cb5b116100b6578063d96a094a1161006f578063d96a094a14610353578063daf9c21014610366578063de74e57b14610396578063df8de16314610422578063e5d1d26014610443578063f2fde38b1461046357600080fd5b80638da5cb5b146102a9578063a9b07c26146102c7578063b25706f3146102dd578063c6098256146102fd578063cf49e50a14610313578063d7c97fb41461033357600080fd5b806333fdbbe51161010857806333fdbbe5146101f957806339f73a481461021d5780634681a7c614610233578063479ad4c3146102495780635c975abb14610269578063715018a61461029457600080fd5b8063021946fd1461014557806302329a291461015c578063129f55021461017c57806326c0eb17146101b9578063278b4077146101d9575b600080fd5b34801561015157600080fd5b5061015a610483565b005b34801561016857600080fd5b5061015a61017736600461175a565b6104d7565b34801561018857600080fd5b5060055461019c906001600160a01b031681565b6040516001600160a01b0390911681526020015b60405180910390f35b3480156101c557600080fd5b5061015a6101d436600461178c565b61051a565b3480156101e557600080fd5b5061015a6101f43660046117c5565b610791565b34801561020557600080fd5b5061020f61271081565b6040519081526020016101b0565b34801561022957600080fd5b5061020f60065481565b34801561023f57600080fd5b5061020f60035481565b34801561025557600080fd5b5061015a61026436600461180f565b610924565b34801561027557600080fd5b50600154600160a01b900460ff165b60405190151581526020016101b0565b3480156102a057600080fd5b5061015a610add565b3480156102b557600080fd5b506001546001600160a01b031661019c565b3480156102d357600080fd5b5061020f60025481565b3480156102e957600080fd5b5061015a6102f8366004611828565b610b13565b34801561030957600080fd5b5061020f60045481565b34801561031f57600080fd5b5061015a61032e366004611828565b610c5a565b34801561033f57600080fd5b50600a5461019c906001600160a01b031681565b61015a61036136600461180f565b610d95565b34801561037257600080fd5b5061028461038136600461189d565b60086020526000908152604090205460ff1681565b3480156103a257600080fd5b506103ee6103b136600461180f565b60096020526000908152604090208054600182015460028301546003909301546001600160a01b0380841694600160a01b90940460ff1693911685565b604080516001600160a01b03968716815294151560208601528401929092526060830152909116608082015260a0016101b0565b34801561042e57600080fd5b5060075461028490600160a01b900460ff1681565b34801561044f57600080fd5b5060075461019c906001600160a01b031681565b34801561046f57600080fd5b5061015a61047e36600461189d565b6112a4565b6001546001600160a01b031633146104b65760405162461bcd60e51b81526004016104ad906118ba565b60405180910390fd5b6007805460ff60a01b198116600160a01b9182900460ff1615909102179055565b6001546001600160a01b031633146105015760405162461bcd60e51b81526004016104ad906118ba565b80156105125761050f61133c565b50565b61050f6113be565b6002600054141561053d5760405162461bcd60e51b81526004016104ad906118ef565b6002600055600154600160a01b900460ff161561056c5760405162461bcd60e51b81526004016104ad90611926565b6040805180820190915260018152601960f91b6020820152826105a25760405162461bcd60e51b81526004016104ad919061197c565b506001600160a01b0381161561060a576001600160a01b0381166000908152600860209081526040918290205482518084019093526002835261313360f01b9183019190915260ff166106085760405162461bcd60e51b81526004016104ad919061197c565b505b600280546040805160a081018252338152600160208083018281528385018a8152606085018a81526001600160a01b038a81166080880190815260008a81526009909652979094209551865493511515600160a01b026001600160a81b03199094169085161792909217855551848401555183870155925160039092018054929093166001600160a01b031990921691909117909155915490916106ae91906119c5565b6002556003546106bf9060016119c5565b600355600a546001600160a01b03166323b872dd3330876040518463ffffffff1660e01b81526004016106f4939291906119dd565b600060405180830381600087803b15801561070e57600080fd5b505af1158015610722573d6000803e3d6000fd5b505050507fe709d4eb5f439ecabffc7f84983e01e0f0b22b8b1d3895acbee4ad2ef787a4d881856107503390565b6040805193845260208401929092526001600160a01b03908116838301526060830187905285166080830152519081900360a00190a1505060016000555050565b6001546001600160a01b031633146107bb5760405162461bcd60e51b81526004016104ad906118ba565b6127106107c883866119c5565b10604051806040016040528060018152602001603560f81b815250906108015760405162461bcd60e51b81526004016104ad919061197c565b506040805180820190915260018152603160f81b60208201526001600160a01b0384166108415760405162461bcd60e51b81526004016104ad919061197c565b506040805180820190915260018152603160f81b60208201526001600160a01b0382166108815760405162461bcd60e51b81526004016104ad919061197c565b506004849055600580546001600160a01b038086166001600160a01b031992831681179093556006859055600780549185169190921681179091557f411e041470d4dfedf5a73fbf6f67504194747ee8253ff0c2761da0c9e4e53b5791869185906108e93390565b604080519586526001600160a01b0394851660208701528501929092528216606084015216608082015260a00160405180910390a150505050565b600260005414156109475760405162461bcd60e51b81526004016104ad906118ef565b6002600090815581815260096020526040902080546001600160a01b031633148061097c57506001546001600160a01b031633145b604051806040016040528060018152602001603360f81b815250906109b45760405162461bcd60e51b81526004016104ad919061197c565b5080546040805180820190915260028152610c4d60f21b602082015290600160a01b900460ff166109f85760405162461bcd60e51b81526004016104ad919061197c565b50805460ff60a01b1981168255600a5460018301546040516323b872dd60e01b81526001600160a01b03928316936323b872dd93610a409330939190921691906004016119dd565b600060405180830381600087803b158015610a5a57600080fd5b505af1158015610a6e573d6000803e3d6000fd5b505050506001600354610a819190611a01565b600355600181015481546040805185815260208101939093526001600160a01b0390911682820152517fafd90b70b374efefd945a26fdc3ef073fc9275071e0e6d996cc3e3f487a8db659181900360600190a150506001600055565b6001546001600160a01b03163314610b075760405162461bcd60e51b81526004016104ad906118ba565b610b116000611442565b565b6001546001600160a01b03163314610b3d5760405162461bcd60e51b81526004016104ad906118ba565b60005b81811015610c1c576000838383818110610b5c57610b5c611a18565b9050602002016020810190610b71919061189d565b6001600160a01b03161415604051806040016040528060018152602001603160f81b81525090610bb45760405162461bcd60e51b81526004016104ad919061197c565b50600060086000858585818110610bcd57610bcd611a18565b9050602002016020810190610be2919061189d565b6001600160a01b031681526020810191909152604001600020805460ff191691151591909117905580610c1481611a2e565b915050610b40565b507f1d474f57a5c483b47a8bf6006e39086f96dd040a00cb348e22f80a4ca2c6f2228282604051610c4e929190611a49565b60405180910390a15050565b6001546001600160a01b03163314610c845760405162461bcd60e51b81526004016104ad906118ba565b60005b81811015610d63576000838383818110610ca357610ca3611a18565b9050602002016020810190610cb8919061189d565b6001600160a01b03161415604051806040016040528060018152602001603160f81b81525090610cfb5760405162461bcd60e51b81526004016104ad919061197c565b50600160086000858585818110610d1457610d14611a18565b9050602002016020810190610d29919061189d565b6001600160a01b031681526020810191909152604001600020805460ff191691151591909117905580610d5b81611a2e565b915050610c87565b507ff74f148a4f930a0f67a2c33ba932a14e3e91b4e6468f21e545932fd8251115388282604051610c4e929190611a49565b60026000541415610db85760405162461bcd60e51b81526004016104ad906118ef565b6002600055600154600160a01b900460ff1615610de75760405162461bcd60e51b81526004016104ad90611926565b60008181526009602090815260409182902054825180840190935260028352610c4d60f21b91830191909152600160a01b900460ff16610e3a5760405162461bcd60e51b81526004016104ad919061197c565b506000818152600960205260408120805460ff60a01b1916815560038101546002909101546004546001600160a01b0390921692909161271090610e7f908490611a97565b610e899190611ab6565b9050600061271083600654610e9e9190611a97565b610ea89190611ab6565b600754909150600160a01b900460ff16156110d9576040805180820190915260018152601b60f91b6020820152348414610ef55760405162461bcd60e51b81526004016104ad919061197c565b508115610f8e576005546040516000916001600160a01b03169084908381818185875af1925050503d8060008114610f49576040519150601f19603f3d011682016040523d82523d6000602084013e610f4e565b606091505b5050905080604051806040016040528060018152602001603760f81b81525090610f8b5760405162461bcd60e51b81526004016104ad919061197c565b50505b8015611026576007546040516000916001600160a01b03169083908381818185875af1925050503d8060008114610fe1576040519150601f19603f3d011682016040523d82523d6000602084013e610fe6565b606091505b5050905080604051806040016040528060018152602001600760fb1b815250906110235760405162461bcd60e51b81526004016104ad919061197c565b50505b6000858152600960205260408120546001600160a01b0316826110498587611a01565b6110539190611a01565b604051600081818185875af1925050503d806000811461108f576040519150601f19603f3d011682016040523d82523d6000602084013e611094565b606091505b505090508060405180604001604052806002815260200161313560f01b815250906110d25760405162461bcd60e51b81526004016104ad919061197c565b5050611196565b6040805180820190915260018152601b60f91b602082015234156111105760405162461bcd60e51b81526004016104ad919061197c565b50811561113257611132336005546001600160a01b0387811692911685611494565b801561115357611153336007546001600160a01b0387811692911684611494565b611196336000878152600960205260409020546001600160a01b03168361117a8688611a01565b6111849190611a01565b6001600160a01b038816929190611494565b600a54600086815260096020526040908190206001015490516323b872dd60e01b81526001600160a01b03909216916323b872dd916111db91309133916004016119dd565b600060405180830381600087803b1580156111f557600080fd5b505af1158015611209573d6000803e3d6000fd5b50505050600160035461121c9190611a01565b600355600085815260096020908152604091829020600181015490548351898152928301919091526001600160a01b0316818301523360608201526080810185905260a0810184905260c0810183905290517f9e6678fc0a6fb31767e7229b7826f1f48bb38337ae496d7f9e0836d433b07e7c9181900360e00190a150506001600055505050565b6001546001600160a01b031633146112ce5760405162461bcd60e51b81526004016104ad906118ba565b6001600160a01b0381166113335760405162461bcd60e51b815260206004820152602660248201527f4f776e61626c653a206e6577206f776e657220697320746865207a65726f206160448201526564647265737360d01b60648201526084016104ad565b61050f81611442565b600154600160a01b900460ff16156113665760405162461bcd60e51b81526004016104ad90611926565b6001805460ff60a01b1916600160a01b1790557f62e78cea01bee320cd4e420270b5ea74000d11b0c9f74754ebdbfc544b05a2586113a13390565b6040516001600160a01b03909116815260200160405180910390a1565b600154600160a01b900460ff1661140e5760405162461bcd60e51b815260206004820152601460248201527314185d5cd8589b194e881b9bdd081c185d5cd95960621b60448201526064016104ad565b6001805460ff60a01b191690557f5db9ee0a495bf2e6ff9c91a7834c1ba4fdd244a5e8aa4e537bd38aeae4b073aa336113a1565b600180546001600160a01b038381166001600160a01b0319831681179093556040519116919082907f8be0079c531659141344cd1fd0a4f28419497f9722a3daafe3b4186f6b6457e090600090a35050565b6114ec846323b872dd60e01b8585856040516024016114b5939291906119dd565b60408051601f198184030181529190526020810180516001600160e01b03166001600160e01b0319909316929092179091526114f2565b50505050565b6000611547826040518060400160405280602081526020017f5361666545524332303a206c6f772d6c6576656c2063616c6c206661696c6564815250856001600160a01b03166115c99092919063ffffffff16565b8051909150156115c457808060200190518101906115659190611ad8565b6115c45760405162461bcd60e51b815260206004820152602a60248201527f5361666545524332303a204552433230206f7065726174696f6e20646964206e6044820152691bdd081cdd58d8d9595960b21b60648201526084016104ad565b505050565b60606115d884846000856115e2565b90505b9392505050565b6060824710156116435760405162461bcd60e51b815260206004820152602660248201527f416464726573733a20696e73756666696369656e742062616c616e636520666f6044820152651c8818d85b1b60d21b60648201526084016104ad565b6001600160a01b0385163b61169a5760405162461bcd60e51b815260206004820152601d60248201527f416464726573733a2063616c6c20746f206e6f6e2d636f6e747261637400000060448201526064016104ad565b600080866001600160a01b031685876040516116b69190611af5565b60006040518083038185875af1925050503d80600081146116f3576040519150601f19603f3d011682016040523d82523d6000602084013e6116f8565b606091505b5091509150611708828286611713565b979650505050505050565b606083156117225750816115db565b8251156117325782518084602001fd5b8160405162461bcd60e51b81526004016104ad919061197c565b801515811461050f57600080fd5b60006020828403121561176c57600080fd5b81356115db8161174c565b6001600160a01b038116811461050f57600080fd5b6000806000606084860312156117a157600080fd5b833592506020840135915060408401356117ba81611777565b809150509250925092565b600080600080608085870312156117db57600080fd5b8435935060208501356117ed81611777565b925060408501359150606085013561180481611777565b939692955090935050565b60006020828403121561182157600080fd5b5035919050565b6000806020838503121561183b57600080fd5b823567ffffffffffffffff8082111561185357600080fd5b818501915085601f83011261186757600080fd5b81358181111561187657600080fd5b8660208260051b850101111561188b57600080fd5b60209290920196919550909350505050565b6000602082840312156118af57600080fd5b81356115db81611777565b6020808252818101527f4f776e61626c653a2063616c6c6572206973206e6f7420746865206f776e6572604082015260600190565b6020808252601f908201527f5265656e7472616e637947756172643a207265656e7472616e742063616c6c00604082015260600190565b60208082526010908201526f14185d5cd8589b194e881c185d5cd95960821b604082015260600190565b60005b8381101561196b578181015183820152602001611953565b838111156114ec5750506000910152565b602081526000825180602084015261199b816040850160208701611950565b601f01601f19169190910160400192915050565b634e487b7160e01b600052601160045260246000fd5b600082198211156119d8576119d86119af565b500190565b6001600160a01b039384168152919092166020820152604081019190915260600190565b600082821015611a1357611a136119af565b500390565b634e487b7160e01b600052603260045260246000fd5b6000600019821415611a4257611a426119af565b5060010190565b60208082528181018390526000908460408401835b86811015611a8c578235611a7181611777565b6001600160a01b031682529183019190830190600101611a5e565b509695505050505050565b6000816000190483118215151615611ab157611ab16119af565b500290565b600082611ad357634e487b7160e01b600052601260045260246000fd5b500490565b600060208284031215611aea57600080fd5b81516115db8161174c565b60008251611b07818460208701611950565b919091019291505056fea264697066735822122030def5dacb30798f0c197ef56fb3c3690b5623d65ccc866598bb7471401b340a64736f6c63430008090033",
  "devdoc": {
    "details": "Based on OpenZeppelin Contracts.",
    "kind": "dev",
    "methods": {
      "addListing(uint256,uint256,address)": {
        "details": "Creates a new entry for a Listing object and transfers the Token to the contract",
        "params": {
          "price": "Price in NFTs.",
          "tokenId": "NFT TokenId."
        }
      },
      "buy(uint256)": {
        "details": "Trabsfers both the ERC20 token (price) and the NFT.",
        "params": {
          "listingId": "NFT Listing Id."
        }
      },
      "constructor": {
        "details": "Setup the two contracts it will interact with : ERC721 and ERC20",
        "params": {
          "erc721Address": "Address of the NFT Contract."
        }
      },
      "owner()": {
        "details": "Returns the address of the current owner."
      },
      "paused()": {
        "details": "Returns true if the contract is paused, and false otherwise."
      },
      "removeListing(uint256)": {
        "details": "Marks Listing as not active object and transfers the Token back",
        "params": {
          "listingId": "NFT Listing Id."
        }
      },
      "renounceOwnership()": {
        "details": "Leaves the contract without owner. It will not be possible to call `onlyOwner` functions anymore. Can only be called by the current owner. NOTE: Renouncing ownership will leave the contract without an owner, thereby removing any functionality that is only available to the owner."
      },
      "setFee(uint256,address,uint256,address)": {
        "params": {
          "_fee1": "new Fee1.",
          "_fee2": "new Fee2.",
          "_treasury1": "New treasury1 address.",
          "_treasury2": "New treasury2 address."
        }
      },
      "transferOwnership(address)": {
        "details": "Transfers ownership of the contract to a new account (`newOwner`). Can only be called by the current owner."
      }
    },
    "title": "Blast Royale Token - $BLT",
    "version": 1
  },
  "userdoc": {
    "events": {
      "BlastboxDelisted(uint256,uint256,address)": {
        "notice": "Event Delisted"
      },
      "BlastboxListed(uint256,uint256,address,uint256,address)": {
        "notice": "Event Listed"
      },
      "BlastboxSold(uint256,uint256,address,address,uint256,uint256,uint256)": {
        "notice": "EventBlastbox Sold"
      },
      "FeesChanged(uint256,address,uint256,address,address)": {
        "notice": "Event Fee changed"
      }
    },
    "kind": "user",
    "methods": {
      "addListing(uint256,uint256,address)": {
        "notice": "add a Listing to the Marketplace"
      },
      "buy(uint256)": {
        "notice": "Buys a listed NFT"
      },
      "constructor": {
        "notice": "Token constructor"
      },
      "removeListing(uint256)": {
        "notice": "Remove a Listing from the Marketplace"
      },
      "setFee(uint256,address,uint256,address)": {
        "notice": "Sets a new Fee"
      }
    },
    "version": 1
  },
  "storageLayout": {
    "storage": [
      {
        "astId": 649,
        "contract": "contracts/BlastBoxMarketplace.sol:BlastBoxMarketplace",
        "label": "_status",
        "offset": 0,
        "slot": "0",
        "type": "t_uint256"
      },
      {
        "astId": 435,
        "contract": "contracts/BlastBoxMarketplace.sol:BlastBoxMarketplace",
        "label": "_owner",
        "offset": 0,
        "slot": "1",
        "type": "t_address"
      },
      {
        "astId": 564,
        "contract": "contracts/BlastBoxMarketplace.sol:BlastBoxMarketplace",
        "label": "_paused",
        "offset": 20,
        "slot": "1",
        "type": "t_bool"
      },
      {
        "astId": 6793,
        "contract": "contracts/BlastBoxMarketplace.sol:BlastBoxMarketplace",
        "label": "listingCount",
        "offset": 0,
        "slot": "2",
        "type": "t_uint256"
      },
      {
        "astId": 6795,
        "contract": "contracts/BlastBoxMarketplace.sol:BlastBoxMarketplace",
        "label": "activeListingCount",
        "offset": 0,
        "slot": "3",
        "type": "t_uint256"
      },
      {
        "astId": 6797,
        "contract": "contracts/BlastBoxMarketplace.sol:BlastBoxMarketplace",
        "label": "fee1",
        "offset": 0,
        "slot": "4",
        "type": "t_uint256"
      },
      {
        "astId": 6799,
        "contract": "contracts/BlastBoxMarketplace.sol:BlastBoxMarketplace",
        "label": "treasury1",
        "offset": 0,
        "slot": "5",
        "type": "t_address"
      },
      {
        "astId": 6801,
        "contract": "contracts/BlastBoxMarketplace.sol:BlastBoxMarketplace",
        "label": "fee2",
        "offset": 0,
        "slot": "6",
        "type": "t_uint256"
      },
      {
        "astId": 6803,
        "contract": "contracts/BlastBoxMarketplace.sol:BlastBoxMarketplace",
        "label": "treasury2",
        "offset": 0,
        "slot": "7",
        "type": "t_address"
      },
      {
        "astId": 6805,
        "contract": "contracts/BlastBoxMarketplace.sol:BlastBoxMarketplace",
        "label": "isUsingMatic",
        "offset": 20,
        "slot": "7",
        "type": "t_bool"
      },
      {
        "astId": 6809,
        "contract": "contracts/BlastBoxMarketplace.sol:BlastBoxMarketplace",
        "label": "whitelistedTokens",
        "offset": 0,
        "slot": "8",
        "type": "t_mapping(t_address,t_bool)"
      },
      {
        "astId": 6814,
        "contract": "contracts/BlastBoxMarketplace.sol:BlastBoxMarketplace",
        "label": "listings",
        "offset": 0,
        "slot": "9",
        "type": "t_mapping(t_uint256,t_struct(Listing)6777_storage)"
      },
      {
        "astId": 6817,
        "contract": "contracts/BlastBoxMarketplace.sol:BlastBoxMarketplace",
        "label": "erc721Contract",
        "offset": 0,
        "slot": "10",
        "type": "t_contract(IERC721)2657"
      }
    ],
    "types": {
      "t_address": {
        "encoding": "inplace",
        "label": "address",
        "numberOfBytes": "20"
      },
      "t_bool": {
        "encoding": "inplace",
        "label": "bool",
        "numberOfBytes": "1"
      },
      "t_contract(IERC20)1344": {
        "encoding": "inplace",
        "label": "contract IERC20",
        "numberOfBytes": "20"
      },
      "t_contract(IERC721)2657": {
        "encoding": "inplace",
        "label": "contract IERC721",
        "numberOfBytes": "20"
      },
      "t_mapping(t_address,t_bool)": {
        "encoding": "mapping",
        "key": "t_address",
        "label": "mapping(address => bool)",
        "numberOfBytes": "32",
        "value": "t_bool"
      },
      "t_mapping(t_uint256,t_struct(Listing)6777_storage)": {
        "encoding": "mapping",
        "key": "t_uint256",
        "label": "mapping(uint256 => struct Listing)",
        "numberOfBytes": "32",
        "value": "t_struct(Listing)6777_storage"
      },
      "t_struct(Listing)6777_storage": {
        "encoding": "inplace",
        "label": "struct Listing",
        "members": [
          {
            "astId": 6767,
            "contract": "contracts/BlastBoxMarketplace.sol:BlastBoxMarketplace",
            "label": "owner",
            "offset": 0,
            "slot": "0",
            "type": "t_address"
          },
          {
            "astId": 6769,
            "contract": "contracts/BlastBoxMarketplace.sol:BlastBoxMarketplace",
            "label": "isActive",
            "offset": 20,
            "slot": "0",
            "type": "t_bool"
          },
          {
            "astId": 6771,
            "contract": "contracts/BlastBoxMarketplace.sol:BlastBoxMarketplace",
            "label": "tokenId",
            "offset": 0,
            "slot": "1",
            "type": "t_uint256"
          },
          {
            "astId": 6773,
            "contract": "contracts/BlastBoxMarketplace.sol:BlastBoxMarketplace",
            "label": "price",
            "offset": 0,
            "slot": "2",
            "type": "t_uint256"
          },
          {
            "astId": 6776,
            "contract": "contracts/BlastBoxMarketplace.sol:BlastBoxMarketplace",
            "label": "tokenAddress",
            "offset": 0,
            "slot": "3",
            "type": "t_contract(IERC20)1344"
          }
        ],
        "numberOfBytes": "128"
      },
      "t_uint256": {
        "encoding": "inplace",
        "label": "uint256",
        "numberOfBytes": "32"
      }
    }
  }
}