{
  "address": "0x647d5c2b300b702FBfA31A032ADC6325e588bDdA",
  "abi": [
    {
      "inputs": [
        {
          "internalType": "string",
          "name": "name",
          "type": "string"
        },
        {
          "internalType": "string",
          "name": "symbol",
          "type": "string"
        },
        {
          "internalType": "contract IBlastEquipmentNFT",
          "name": "_blastEquipmentNFT",
          "type": "address"
        }
      ],
      "stateMutability": "nonpayable",
      "type": "constructor"
    },
    {
      "inputs": [],
      "name": "InvalidParams",
      "type": "error"
    },
    {
      "inputs": [],
      "name": "NoZeroAddress",
      "type": "error"
    },
    {
      "inputs": [],
      "name": "NonExistToken",
      "type": "error"
    },
    {
      "inputs": [],
      "name": "NotAvailableToOpen",
      "type": "error"
    },
    {
      "inputs": [],
      "name": "NotOwner",
      "type": "error"
    },
    {
      "anonymous": false,
      "inputs": [
        {
          "indexed": true,
          "internalType": "address",
          "name": "owner",
          "type": "address"
        },
        {
          "indexed": true,
          "internalType": "address",
          "name": "approved",
          "type": "address"
        },
        {
          "indexed": true,
          "internalType": "uint256",
          "name": "tokenId",
          "type": "uint256"
        }
      ],
      "name": "Approval",
      "type": "event"
    },
    {
      "anonymous": false,
      "inputs": [
        {
          "indexed": true,
          "internalType": "address",
          "name": "owner",
          "type": "address"
        },
        {
          "indexed": true,
          "internalType": "address",
          "name": "operator",
          "type": "address"
        },
        {
          "indexed": false,
          "internalType": "bool",
          "name": "approved",
          "type": "bool"
        }
      ],
      "name": "ApprovalForAll",
      "type": "event"
    },
    {
      "anonymous": false,
      "inputs": [
        {
          "indexed": false,
          "internalType": "uint256",
          "name": "lootboxId",
          "type": "uint256"
        },
        {
          "indexed": false,
          "internalType": "uint256",
          "name": "token0",
          "type": "uint256"
        },
        {
          "indexed": false,
          "internalType": "uint256",
          "name": "token1",
          "type": "uint256"
        },
        {
          "indexed": false,
          "internalType": "uint256",
          "name": "token2",
          "type": "uint256"
        }
      ],
      "name": "Open",
      "type": "event"
    },
    {
      "anonymous": false,
      "inputs": [
        {
          "indexed": false,
          "internalType": "address",
          "name": "account",
          "type": "address"
        }
      ],
      "name": "Paused",
      "type": "event"
    },
    {
      "anonymous": false,
      "inputs": [
        {
          "indexed": true,
          "internalType": "bytes32",
          "name": "role",
          "type": "bytes32"
        },
        {
          "indexed": true,
          "internalType": "bytes32",
          "name": "previousAdminRole",
          "type": "bytes32"
        },
        {
          "indexed": true,
          "internalType": "bytes32",
          "name": "newAdminRole",
          "type": "bytes32"
        }
      ],
      "name": "RoleAdminChanged",
      "type": "event"
    },
    {
      "anonymous": false,
      "inputs": [
        {
          "indexed": true,
          "internalType": "bytes32",
          "name": "role",
          "type": "bytes32"
        },
        {
          "indexed": true,
          "internalType": "address",
          "name": "account",
          "type": "address"
        },
        {
          "indexed": true,
          "internalType": "address",
          "name": "sender",
          "type": "address"
        }
      ],
      "name": "RoleGranted",
      "type": "event"
    },
    {
      "anonymous": false,
      "inputs": [
        {
          "indexed": true,
          "internalType": "bytes32",
          "name": "role",
          "type": "bytes32"
        },
        {
          "indexed": true,
          "internalType": "address",
          "name": "account",
          "type": "address"
        },
        {
          "indexed": true,
          "internalType": "address",
          "name": "sender",
          "type": "address"
        }
      ],
      "name": "RoleRevoked",
      "type": "event"
    },
    {
      "anonymous": false,
      "inputs": [
        {
          "indexed": true,
          "internalType": "address",
          "name": "from",
          "type": "address"
        },
        {
          "indexed": true,
          "internalType": "address",
          "name": "to",
          "type": "address"
        },
        {
          "indexed": true,
          "internalType": "uint256",
          "name": "tokenId",
          "type": "uint256"
        }
      ],
      "name": "Transfer",
      "type": "event"
    },
    {
      "anonymous": false,
      "inputs": [
        {
          "indexed": false,
          "internalType": "address",
          "name": "account",
          "type": "address"
        }
      ],
      "name": "Unpaused",
      "type": "event"
    },
    {
      "inputs": [],
      "name": "DEFAULT_ADMIN_ROLE",
      "outputs": [
        {
          "internalType": "bytes32",
          "name": "",
          "type": "bytes32"
        }
      ],
      "stateMutability": "view",
      "type": "function"
    },
    {
      "inputs": [],
      "name": "GAME_ROLE",
      "outputs": [
        {
          "internalType": "bytes32",
          "name": "",
          "type": "bytes32"
        }
      ],
      "stateMutability": "view",
      "type": "function"
    },
    {
      "inputs": [],
      "name": "_tokenIdCounter",
      "outputs": [
        {
          "internalType": "uint256",
          "name": "_value",
          "type": "uint256"
        }
      ],
      "stateMutability": "view",
      "type": "function"
    },
    {
      "inputs": [
        {
          "internalType": "address",
          "name": "to",
          "type": "address"
        },
        {
          "internalType": "uint256",
          "name": "tokenId",
          "type": "uint256"
        }
      ],
      "name": "approve",
      "outputs": [],
      "stateMutability": "nonpayable",
      "type": "function"
    },
    {
      "inputs": [
        {
          "internalType": "address",
          "name": "owner",
          "type": "address"
        }
      ],
      "name": "balanceOf",
      "outputs": [
        {
          "internalType": "uint256",
          "name": "",
          "type": "uint256"
        }
      ],
      "stateMutability": "view",
      "type": "function"
    },
    {
      "inputs": [],
      "name": "blastEquipmentNFT",
      "outputs": [
        {
          "internalType": "contract IBlastEquipmentNFT",
          "name": "",
          "type": "address"
        }
      ],
      "stateMutability": "view",
      "type": "function"
    },
    {
      "inputs": [
        {
          "internalType": "uint256",
          "name": "tokenId",
          "type": "uint256"
        }
      ],
      "name": "getApproved",
      "outputs": [
        {
          "internalType": "address",
          "name": "",
          "type": "address"
        }
      ],
      "stateMutability": "view",
      "type": "function"
    },
    {
      "inputs": [
        {
          "internalType": "bytes32",
          "name": "role",
          "type": "bytes32"
        }
      ],
      "name": "getRoleAdmin",
      "outputs": [
        {
          "internalType": "bytes32",
          "name": "",
          "type": "bytes32"
        }
      ],
      "stateMutability": "view",
      "type": "function"
    },
    {
      "inputs": [
        {
          "internalType": "uint256",
          "name": "_tokenId",
          "type": "uint256"
        }
      ],
      "name": "getTokenType",
      "outputs": [
        {
          "internalType": "uint8",
          "name": "",
          "type": "uint8"
        }
      ],
      "stateMutability": "view",
      "type": "function"
    },
    {
      "inputs": [
        {
          "internalType": "bytes32",
          "name": "role",
          "type": "bytes32"
        },
        {
          "internalType": "address",
          "name": "account",
          "type": "address"
        }
      ],
      "name": "grantRole",
      "outputs": [],
      "stateMutability": "nonpayable",
      "type": "function"
    },
    {
      "inputs": [
        {
          "internalType": "bytes32",
          "name": "role",
          "type": "bytes32"
        },
        {
          "internalType": "address",
          "name": "account",
          "type": "address"
        }
      ],
      "name": "hasRole",
      "outputs": [
        {
          "internalType": "bool",
          "name": "",
          "type": "bool"
        }
      ],
      "stateMutability": "view",
      "type": "function"
    },
    {
      "inputs": [
        {
          "internalType": "address",
          "name": "owner",
          "type": "address"
        },
        {
          "internalType": "address",
          "name": "operator",
          "type": "address"
        }
      ],
      "name": "isApprovedForAll",
      "outputs": [
        {
          "internalType": "bool",
          "name": "",
          "type": "bool"
        }
      ],
      "stateMutability": "view",
      "type": "function"
    },
    {
      "inputs": [],
      "name": "name",
      "outputs": [
        {
          "internalType": "string",
          "name": "",
          "type": "string"
        }
      ],
      "stateMutability": "view",
      "type": "function"
    },
    {
      "inputs": [
        {
          "internalType": "address",
          "name": "",
          "type": "address"
        },
        {
          "internalType": "address",
          "name": "",
          "type": "address"
        },
        {
          "internalType": "uint256",
          "name": "",
          "type": "uint256"
        },
        {
          "internalType": "bytes",
          "name": "",
          "type": "bytes"
        }
      ],
      "name": "onERC721Received",
      "outputs": [
        {
          "internalType": "bytes4",
          "name": "",
          "type": "bytes4"
        }
      ],
      "stateMutability": "nonpayable",
      "type": "function"
    },
    {
      "inputs": [
        {
          "internalType": "uint256",
          "name": "_tokenId",
          "type": "uint256"
        }
      ],
      "name": "open",
      "outputs": [],
      "stateMutability": "nonpayable",
      "type": "function"
    },
    {
      "inputs": [],
      "name": "openAvailable",
      "outputs": [
        {
          "internalType": "bool",
          "name": "",
          "type": "bool"
        }
      ],
      "stateMutability": "view",
      "type": "function"
    },
    {
      "inputs": [
        {
          "internalType": "uint256",
          "name": "_tokenId",
          "type": "uint256"
        },
        {
          "internalType": "address",
          "name": "_to",
          "type": "address"
        }
      ],
      "name": "openTo",
      "outputs": [],
      "stateMutability": "nonpayable",
      "type": "function"
    },
    {
      "inputs": [
        {
          "internalType": "uint256",
          "name": "tokenId",
          "type": "uint256"
        }
      ],
      "name": "ownerOf",
      "outputs": [
        {
          "internalType": "address",
          "name": "",
          "type": "address"
        }
      ],
      "stateMutability": "view",
      "type": "function"
    },
    {
      "inputs": [
        {
          "internalType": "bool",
          "name": "stop",
          "type": "bool"
        }
      ],
      "name": "pause",
      "outputs": [],
      "stateMutability": "nonpayable",
      "type": "function"
    },
    {
      "inputs": [],
      "name": "paused",
      "outputs": [
        {
          "internalType": "bool",
          "name": "",
          "type": "bool"
        }
      ],
      "stateMutability": "view",
      "type": "function"
    },
    {
      "inputs": [
        {
          "internalType": "bytes32",
          "name": "role",
          "type": "bytes32"
        },
        {
          "internalType": "address",
          "name": "account",
          "type": "address"
        }
      ],
      "name": "renounceRole",
      "outputs": [],
      "stateMutability": "nonpayable",
      "type": "function"
    },
    {
      "inputs": [
        {
          "internalType": "bytes32",
          "name": "role",
          "type": "bytes32"
        },
        {
          "internalType": "address",
          "name": "account",
          "type": "address"
        }
      ],
      "name": "revokeRole",
      "outputs": [],
      "stateMutability": "nonpayable",
      "type": "function"
    },
    {
      "inputs": [
        {
          "internalType": "address[]",
          "name": "_to",
          "type": "address[]"
        },
        {
          "internalType": "string[]",
          "name": "_uri",
          "type": "string[]"
        },
        {
          "components": [
            {
              "internalType": "uint256",
              "name": "token0",
              "type": "uint256"
            },
            {
              "internalType": "uint256",
              "name": "token1",
              "type": "uint256"
            },
            {
              "internalType": "uint256",
              "name": "token2",
              "type": "uint256"
            }
          ],
          "internalType": "struct BlastLootBox.LootBox[]",
          "name": "_eqtIds",
          "type": "tuple[]"
        },
        {
          "internalType": "uint8",
          "name": "_tokenType",
          "type": "uint8"
        }
      ],
      "name": "safeMint",
      "outputs": [],
      "stateMutability": "nonpayable",
      "type": "function"
    },
    {
      "inputs": [
        {
          "internalType": "address",
          "name": "from",
          "type": "address"
        },
        {
          "internalType": "address",
          "name": "to",
          "type": "address"
        },
        {
          "internalType": "uint256",
          "name": "tokenId",
          "type": "uint256"
        }
      ],
      "name": "safeTransferFrom",
      "outputs": [],
      "stateMutability": "nonpayable",
      "type": "function"
    },
    {
      "inputs": [
        {
          "internalType": "address",
          "name": "from",
          "type": "address"
        },
        {
          "internalType": "address",
          "name": "to",
          "type": "address"
        },
        {
          "internalType": "uint256",
          "name": "tokenId",
          "type": "uint256"
        },
        {
          "internalType": "bytes",
          "name": "data",
          "type": "bytes"
        }
      ],
      "name": "safeTransferFrom",
      "outputs": [],
      "stateMutability": "nonpayable",
      "type": "function"
    },
    {
      "inputs": [
        {
          "internalType": "address",
          "name": "operator",
          "type": "address"
        },
        {
          "internalType": "bool",
          "name": "approved",
          "type": "bool"
        }
      ],
      "name": "setApprovalForAll",
      "outputs": [],
      "stateMutability": "nonpayable",
      "type": "function"
    },
    {
      "inputs": [
        {
          "internalType": "bool",
          "name": "_status",
          "type": "bool"
        }
      ],
      "name": "setOpenAvailableStatus",
      "outputs": [],
      "stateMutability": "nonpayable",
      "type": "function"
    },
    {
      "inputs": [
        {
          "internalType": "bytes4",
          "name": "interfaceId",
          "type": "bytes4"
        }
      ],
      "name": "supportsInterface",
      "outputs": [
        {
          "internalType": "bool",
          "name": "",
          "type": "bool"
        }
      ],
      "stateMutability": "view",
      "type": "function"
    },
    {
      "inputs": [],
      "name": "symbol",
      "outputs": [
        {
          "internalType": "string",
          "name": "",
          "type": "string"
        }
      ],
      "stateMutability": "view",
      "type": "function"
    },
    {
      "inputs": [
        {
          "internalType": "uint256",
          "name": "tokenId",
          "type": "uint256"
        }
      ],
      "name": "tokenURI",
      "outputs": [
        {
          "internalType": "string",
          "name": "",
          "type": "string"
        }
      ],
      "stateMutability": "view",
      "type": "function"
    },
    {
      "inputs": [
        {
          "internalType": "address",
          "name": "from",
          "type": "address"
        },
        {
          "internalType": "address",
          "name": "to",
          "type": "address"
        },
        {
          "internalType": "uint256",
          "name": "tokenId",
          "type": "uint256"
        }
      ],
      "name": "transferFrom",
      "outputs": [],
      "stateMutability": "nonpayable",
      "type": "function"
    }
  ],
  "transactionHash": "0xec1e3270ea92304c8ef2f5823859ad3eb0937d60b1c26983cfa66e659a28e13b",
  "args": [
    "Test Blast Lootbox",
    "TestBLX",
    "0x03eA885Ec4cb6100707EB4bE74DD83a7DDf856B1"
  ],
  "numDeployments": 1,
  "solcInputHash": "954ee2647c1b704508c86c1dc057c60f",
  "bytecode": "0x60806040523480156200001157600080fd5b5060405162002ae938038062002ae9833981016040819052620000349162000321565b8251839083906200004d906000906020850190620001ae565b50805162000063906001906020840190620001ae565b50506007805460ff19169055506001600160a01b038116620000985760405163ddbadd5f60e01b815260040160405180910390fd5b620000a5600033620000fa565b620000d17f6a64baf327d646d1bca72653e2a075d15fd6ac6d8cbd7f6ee03fc55875e0fa8833620000fa565b600c80546001600160a01b0319166001600160a01b039290921691909117905550620003eb9050565b6200010682826200010a565b5050565b60008281526008602090815260408083206001600160a01b038516845290915290205460ff16620001065760008281526008602090815260408083206001600160a01b03851684529091529020805460ff191660011790556200016a3390565b6001600160a01b0316816001600160a01b0316837f2f8788117e7eff1d82e926ec794901d17c78024a50270940304540a733656f0d60405160405180910390a45050565b828054620001bc90620003ae565b90600052602060002090601f016020900481019282620001e057600085556200022b565b82601f10620001fb57805160ff19168380011785556200022b565b828001600101855582156200022b579182015b828111156200022b5782518255916020019190600101906200020e565b50620002399291506200023d565b5090565b5b808211156200023957600081556001016200023e565b634e487b7160e01b600052604160045260246000fd5b600082601f8301126200027c57600080fd5b81516001600160401b038082111562000299576200029962000254565b604051601f8301601f19908116603f01168101908282118183101715620002c457620002c462000254565b81604052838152602092508683858801011115620002e157600080fd5b600091505b83821015620003055785820183015181830184015290820190620002e6565b83821115620003175760008385830101525b9695505050505050565b6000806000606084860312156200033757600080fd5b83516001600160401b03808211156200034f57600080fd5b6200035d878388016200026a565b945060208601519150808211156200037457600080fd5b5062000383868287016200026a565b604086015190935090506001600160a01b0381168114620003a357600080fd5b809150509250925092565b600181811c90821680620003c357607f821691505b60208210811415620003e557634e487b7160e01b600052602260045260246000fd5b50919050565b6126ee80620003fb6000396000f3fe608060405234801561001057600080fd5b50600436106101e55760003560e01c806370a082311161010f578063a217fddf116100a2578063c15b712c11610071578063c15b712c14610463578063c87b56dd14610476578063d547741f14610489578063e985e9c51461049c57600080fd5b8063a217fddf1461040e578063a22cb46514610416578063ab40070614610429578063b88d4fde1461045057600080fd5b806384c4bd4b116100de57806384c4bd4b146103d65780638d2a703e146103e057806391d14854146103f357806395d89b411461040657600080fd5b806370a082311461036857806372c6239a1461037b57806376aed2e11461038e5780637edee2b3146103c357600080fd5b8063248a9ca31161018757806342842e0e1161015657806342842e0e146103245780635c975abb146103375780636352211e14610342578063690e7c091461035557600080fd5b8063248a9ca3146102b95780632f2ff15d146102ea57806336568abe146102fd5780633bfca2f91461031057600080fd5b8063081812fc116101c3578063081812fc1461023c578063095ea7b314610267578063150b7a021461027a57806323b872dd146102a657600080fd5b806301ffc9a7146101ea57806302329a291461021257806306fdde0314610227575b600080fd5b6101fd6101f8366004611f9b565b6104d8565b60405190151581526020015b60405180910390f35b610225610220366004611fcd565b6104e9565b005b61022f61050e565b6040516102099190612040565b61024f61024a366004612053565b6105a0565b6040516001600160a01b039091168152602001610209565b610225610275366004612083565b6105c7565b61028d6102883660046120c3565b6106e2565b6040516001600160e01b03199091168152602001610209565b6102256102b436600461219f565b6106f3565b6102dc6102c7366004612053565b60009081526008602052604090206001015490565b604051908152602001610209565b6102256102f83660046121db565b610724565b61022561030b3660046121db565b610749565b600c546101fd90600160a01b900460ff1681565b61022561033236600461219f565b6107c3565b60075460ff166101fd565b61024f610350366004612053565b6107de565b610225610363366004612053565b61083e565b6102dc610376366004612207565b6108e4565b600c5461024f906001600160a01b031681565b6103b161039c366004612053565b6000908152600b602052604090205460ff1690565b60405160ff9091168152602001610209565b6102256103d136600461227f565b61096a565b6009546102dc9081565b6102256103ee3660046121db565b610b0f565b6101fd6104013660046121db565b610bdc565b61022f610c07565b6102dc600081565b61022561042436600461235a565b610c16565b6102dc7f6a64baf327d646d1bca72653e2a075d15fd6ac6d8cbd7f6ee03fc55875e0fa8881565b61022561045e3660046120c3565b610c21565b610225610471366004611fcd565b610c59565b61022f610484366004612053565b610c83565b6102256104973660046121db565b610c8e565b6101fd6104aa366004612384565b6001600160a01b03918216600090815260056020908152604080832093909416825291909152205460ff1690565b60006104e382610cb3565b92915050565b60006104f481610cd8565b811561050657610502610ce2565b5050565b610502610d3c565b60606000805461051d906123ae565b80601f0160208091040260200160405190810160405280929190818152602001828054610549906123ae565b80156105965780601f1061056b57610100808354040283529160200191610596565b820191906000526020600020905b81548152906001019060200180831161057957829003601f168201915b5050505050905090565b60006105ab82610d75565b506000908152600460205260409020546001600160a01b031690565b60006105d2826107de565b9050806001600160a01b0316836001600160a01b031614156106455760405162461bcd60e51b815260206004820152602160248201527f4552433732313a20617070726f76616c20746f2063757272656e74206f776e656044820152603960f91b60648201526084015b60405180910390fd5b336001600160a01b0382161480610661575061066181336104aa565b6106d35760405162461bcd60e51b815260206004820152603e60248201527f4552433732313a20617070726f76652063616c6c6572206973206e6f7420746f60448201527f6b656e206f776e6572206e6f7220617070726f76656420666f7220616c6c0000606482015260840161063c565b6106dd8383610dd4565b505050565b630a85bd0160e11b5b949350505050565b6106fd3382610e42565b6107195760405162461bcd60e51b815260040161063c906123e9565b6106dd838383610ec0565b60008281526008602052604090206001015461073f81610cd8565b6106dd8383611067565b6001600160a01b03811633146107b95760405162461bcd60e51b815260206004820152602f60248201527f416363657373436f6e74726f6c3a2063616e206f6e6c792072656e6f756e636560448201526e103937b632b9903337b91039b2b63360891b606482015260840161063c565b61050282826110ed565b6106dd83838360405180602001604052806000815250610c21565b6000818152600260205260408120546001600160a01b0316806104e35760405162461bcd60e51b8152602060048201526018602482015277115490cdcc8c4e881a5b9d985b1a59081d1bdad95b88125160421b604482015260640161063c565b6000818152600260205260409020546001600160a01b031661087357604051634af5033360e01b815260040160405180910390fd5b61087c816107de565b6001600160a01b0316336001600160a01b0316146108ad576040516330cd747160e01b815260040160405180910390fd5b600c54600160a01b900460ff166108d757604051633abe791960e01b815260040160405180910390fd5b6108e18133611154565b50565b60006001600160a01b03821661094e5760405162461bcd60e51b815260206004820152602960248201527f4552433732313a2061646472657373207a65726f206973206e6f7420612076616044820152683634b21037bbb732b960b91b606482015260840161063c565b506001600160a01b031660009081526003602052604090205490565b600061097581610cd8565b86851415806109845750868314155b156109a257604051635435b28960e11b815260040160405180910390fd5b8160ff166001141580156109ba57508160ff16600214155b156109d857604051635435b28960e11b815260040160405180910390fd5b60005b87811015610b045760006109ee60095490565b90506109fe600980546001019055565b858583818110610a1057610a10612437565b6000848152600a6020908152604091829020606090930294909401803583559384013560018301558301356002820155905050506000818152600b60205260409020805460ff191660ff8616179055610a8f8a8a84818110610a7457610a74612437565b9050602002016020810190610a899190612207565b8261146e565b610af181898985818110610aa557610aa5612437565b9050602002810190610ab7919061244d565b8080601f0160208091040260200160405190810160405280939291908181526020018383808284376000920191909152506115bc92505050565b5080610afc816124aa565b9150506109db565b505050505050505050565b7f6a64baf327d646d1bca72653e2a075d15fd6ac6d8cbd7f6ee03fc55875e0fa88610b3981610cd8565b6000838152600260205260409020546001600160a01b0316610b6e57604051634af5033360e01b815260040160405180910390fd5b610b77836107de565b6001600160a01b0316826001600160a01b031614610ba8576040516330cd747160e01b815260040160405180910390fd5b600c54600160a01b900460ff16610bd257604051633abe791960e01b815260040160405180910390fd5b6106dd8383611154565b60009182526008602090815260408084206001600160a01b0393909316845291905290205460ff1690565b60606001805461051d906123ae565b610502338383611656565b610c2b3383610e42565b610c475760405162461bcd60e51b815260040161063c906123e9565b610c5384848484611725565b50505050565b6000610c6481610cd8565b50600c8054911515600160a01b0260ff60a01b19909216919091179055565b60606104e382611758565b600082815260086020526040902060010154610ca981610cd8565b6106dd83836110ed565b60006001600160e01b03198216637965db0b60e01b14806104e357506104e382611861565b6108e181336118b1565b610cea611915565b6007805460ff191660011790557f62e78cea01bee320cd4e420270b5ea74000d11b0c9f74754ebdbfc544b05a258610d1f3390565b6040516001600160a01b03909116815260200160405180910390a1565b610d4461195d565b6007805460ff191690557f5db9ee0a495bf2e6ff9c91a7834c1ba4fdd244a5e8aa4e537bd38aeae4b073aa33610d1f565b6000818152600260205260409020546001600160a01b03166108e15760405162461bcd60e51b8152602060048201526018602482015277115490cdcc8c4e881a5b9d985b1a59081d1bdad95b88125160421b604482015260640161063c565b600081815260046020526040902080546001600160a01b0319166001600160a01b0384169081179091558190610e09826107de565b6001600160a01b03167f8c5be1e5ebec7d5bd14f71427d1e84f3dd0314c0f7b2291e5b200ac8c7c3b92560405160405180910390a45050565b600080610e4e836107de565b9050806001600160a01b0316846001600160a01b03161480610e9557506001600160a01b0380821660009081526005602090815260408083209388168352929052205460ff165b806106eb5750836001600160a01b0316610eae846105a0565b6001600160a01b031614949350505050565b826001600160a01b0316610ed3826107de565b6001600160a01b031614610f375760405162461bcd60e51b815260206004820152602560248201527f4552433732313a207472616e736665722066726f6d20696e636f72726563742060448201526437bbb732b960d91b606482015260840161063c565b6001600160a01b038216610f995760405162461bcd60e51b8152602060048201526024808201527f4552433732313a207472616e7366657220746f20746865207a65726f206164646044820152637265737360e01b606482015260840161063c565b610fa48383836119a6565b610faf600082610dd4565b6001600160a01b0383166000908152600360205260408120805460019290610fd89084906124c5565b90915550506001600160a01b03821660009081526003602052604081208054600192906110069084906124dc565b909155505060008181526002602052604080822080546001600160a01b0319166001600160a01b0386811691821790925591518493918716917fddf252ad1be2c89b69c2b068fc378daa952ba7f163c4a11628f55a4df523b3ef91a4505050565b6110718282610bdc565b6105025760008281526008602090815260408083206001600160a01b03851684529091529020805460ff191660011790556110a93390565b6001600160a01b0316816001600160a01b0316837f2f8788117e7eff1d82e926ec794901d17c78024a50270940304540a733656f0d60405160405180910390a45050565b6110f78282610bdc565b156105025760008281526008602090815260408083206001600160a01b0385168085529252808320805460ff1916905551339285917ff6391f5c32d9c69d2a47ea670b442974b53935d1edc7fd64eb21e047a839171b9190a45050565b6000828152600a60209081526040918290208251606081018452815480825260018301549382019390935260029091015481840152600c5492516323b872dd60e01b81523060048201526001600160a01b0385811660248301526044820193909352909291909116906323b872dd90606401600060405180830381600087803b1580156111e057600080fd5b505af11580156111f4573d6000803e3d6000fd5b5050600c5460208401516040516323b872dd60e01b81523060048201526001600160a01b0387811660248301526044820192909252911692506323b872dd9150606401600060405180830381600087803b15801561125157600080fd5b505af1158015611265573d6000803e3d6000fd5b5050600c5460408481015190516323b872dd60e01b81523060048201526001600160a01b0387811660248301526044820192909252911692506323b872dd9150606401600060405180830381600087803b1580156112c257600080fd5b505af11580156112d6573d6000803e3d6000fd5b5050600c54835160405163058169e360e51b81526001600160a01b03909216935063b02d3c60925061130e9160040190815260200190565b600060405180830381600087803b15801561132857600080fd5b505af115801561133c573d6000803e3d6000fd5b5050600c54602084015160405163058169e360e51b81526001600160a01b03909216935063b02d3c6092506113779160040190815260200190565b600060405180830381600087803b15801561139157600080fd5b505af11580156113a5573d6000803e3d6000fd5b5050600c54604080850151905163058169e360e51b81526001600160a01b03909216935063b02d3c6092506113e09160040190815260200190565b600060405180830381600087803b1580156113fa57600080fd5b505af115801561140e573d6000803e3d6000fd5b5050825160208085015160408087015181518a81529384019490945282015260608101919091527f02fb9daf56c977530f60990eb8cd0510bc01218fd6376151dd4e91b660e579219250608001905060405180910390a16106dd836119ae565b6001600160a01b0382166114c45760405162461bcd60e51b815260206004820181905260248201527f4552433732313a206d696e7420746f20746865207a65726f2061646472657373604482015260640161063c565b6000818152600260205260409020546001600160a01b0316156115295760405162461bcd60e51b815260206004820152601c60248201527f4552433732313a20746f6b656e20616c7265616479206d696e74656400000000604482015260640161063c565b611535600083836119a6565b6001600160a01b038216600090815260036020526040812080546001929061155e9084906124dc565b909155505060008181526002602052604080822080546001600160a01b0319166001600160a01b03861690811790915590518392907fddf252ad1be2c89b69c2b068fc378daa952ba7f163c4a11628f55a4df523b3ef908290a45050565b6000828152600260205260409020546001600160a01b03166116375760405162461bcd60e51b815260206004820152602e60248201527f45524337323155524953746f726167653a2055524920736574206f66206e6f6e60448201526d32bc34b9ba32b73a103a37b5b2b760911b606482015260840161063c565b600082815260066020908152604090912082516106dd92840190611eb6565b816001600160a01b0316836001600160a01b031614156116b85760405162461bcd60e51b815260206004820152601960248201527f4552433732313a20617070726f766520746f2063616c6c657200000000000000604482015260640161063c565b6001600160a01b03838116600081815260056020908152604080832094871680845294825291829020805460ff191686151590811790915591519182527f17307eab39ab6107e8899845ad3d59bd9653f200f220920489ca2b5937696c31910160405180910390a3505050565b611730848484610ec0565b61173c848484846119b7565b610c535760405162461bcd60e51b815260040161063c906124f4565b606061176382610d75565b6000828152600660205260408120805461177c906123ae565b80601f01602080910402602001604051908101604052809291908181526020018280546117a8906123ae565b80156117f55780601f106117ca576101008083540402835291602001916117f5565b820191906000526020600020905b8154815290600101906020018083116117d857829003601f168201915b50505050509050600061181360408051602081019091526000815290565b9050805160001415611826575092915050565b815115611858578082604051602001611840929190612546565b60405160208183030381529060405292505050919050565b6106eb84611ac1565b60006001600160e01b031982166380ac58cd60e01b148061189257506001600160e01b03198216635b5e139f60e01b145b806104e357506301ffc9a760e01b6001600160e01b03198316146104e3565b6118bb8282610bdc565b610502576118d3816001600160a01b03166014611b35565b6118de836020611b35565b6040516020016118ef929190612575565b60408051601f198184030181529082905262461bcd60e51b825261063c91600401612040565b60075460ff161561195b5760405162461bcd60e51b815260206004820152601060248201526f14185d5cd8589b194e881c185d5cd95960821b604482015260640161063c565b565b60075460ff1661195b5760405162461bcd60e51b815260206004820152601460248201527314185d5cd8589b194e881b9bdd081c185d5cd95960621b604482015260640161063c565b6106dd611915565b6108e181611cd1565b60006001600160a01b0384163b15611ab957604051630a85bd0160e11b81526001600160a01b0385169063150b7a02906119fb9033908990889088906004016125ea565b602060405180830381600087803b158015611a1557600080fd5b505af1925050508015611a45575060408051601f3d908101601f19168201909252611a4291810190612627565b60015b611a9f573d808015611a73576040519150601f19603f3d011682016040523d82523d6000602084013e611a78565b606091505b508051611a975760405162461bcd60e51b815260040161063c906124f4565b805181602001fd5b6001600160e01b031916630a85bd0160e11b1490506106eb565b5060016106eb565b6060611acc82610d75565b6000611ae360408051602081019091526000815290565b90506000815111611b035760405180602001604052806000815250611b2e565b80611b0d84611d11565b604051602001611b1e929190612546565b6040516020818303038152906040525b9392505050565b60606000611b44836002612644565b611b4f9060026124dc565b67ffffffffffffffff811115611b6757611b676120ad565b6040519080825280601f01601f191660200182016040528015611b91576020820181803683370190505b509050600360fc1b81600081518110611bac57611bac612437565b60200101906001600160f81b031916908160001a905350600f60fb1b81600181518110611bdb57611bdb612437565b60200101906001600160f81b031916908160001a9053506000611bff846002612644565b611c0a9060016124dc565b90505b6001811115611c82576f181899199a1a9b1b9c1cb0b131b232b360811b85600f1660108110611c3e57611c3e612437565b1a60f81b828281518110611c5457611c54612437565b60200101906001600160f81b031916908160001a90535060049490941c93611c7b81612663565b9050611c0d565b508315611b2e5760405162461bcd60e51b815260206004820181905260248201527f537472696e67733a20686578206c656e67746820696e73756666696369656e74604482015260640161063c565b611cda81611e0f565b60008181526006602052604090208054611cf3906123ae565b1590506108e15760008181526006602052604081206108e191611f3a565b606081611d355750506040805180820190915260018152600360fc1b602082015290565b8160005b8115611d5f5780611d49816124aa565b9150611d589050600a83612690565b9150611d39565b60008167ffffffffffffffff811115611d7a57611d7a6120ad565b6040519080825280601f01601f191660200182016040528015611da4576020820181803683370190505b5090505b84156106eb57611db96001836124c5565b9150611dc6600a866126a4565b611dd19060306124dc565b60f81b818381518110611de657611de6612437565b60200101906001600160f81b031916908160001a905350611e08600a86612690565b9450611da8565b6000611e1a826107de565b9050611e28816000846119a6565b611e33600083610dd4565b6001600160a01b0381166000908152600360205260408120805460019290611e5c9084906124c5565b909155505060008281526002602052604080822080546001600160a01b0319169055518391906001600160a01b038416907fddf252ad1be2c89b69c2b068fc378daa952ba7f163c4a11628f55a4df523b3ef908390a45050565b828054611ec2906123ae565b90600052602060002090601f016020900481019282611ee45760008555611f2a565b82601f10611efd57805160ff1916838001178555611f2a565b82800160010185558215611f2a579182015b82811115611f2a578251825591602001919060010190611f0f565b50611f36929150611f70565b5090565b508054611f46906123ae565b6000825580601f10611f56575050565b601f0160209004906000526020600020908101906108e191905b5b80821115611f365760008155600101611f71565b6001600160e01b0319811681146108e157600080fd5b600060208284031215611fad57600080fd5b8135611b2e81611f85565b80358015158114611fc857600080fd5b919050565b600060208284031215611fdf57600080fd5b611b2e82611fb8565b60005b83811015612003578181015183820152602001611feb565b83811115610c535750506000910152565b6000815180845261202c816020860160208601611fe8565b601f01601f19169290920160200192915050565b602081526000611b2e6020830184612014565b60006020828403121561206557600080fd5b5035919050565b80356001600160a01b0381168114611fc857600080fd5b6000806040838503121561209657600080fd5b61209f8361206c565b946020939093013593505050565b634e487b7160e01b600052604160045260246000fd5b600080600080608085870312156120d957600080fd5b6120e28561206c565b93506120f06020860161206c565b925060408501359150606085013567ffffffffffffffff8082111561211457600080fd5b818701915087601f83011261212857600080fd5b81358181111561213a5761213a6120ad565b604051601f8201601f19908116603f01168101908382118183101715612162576121626120ad565b816040528281528a602084870101111561217b57600080fd5b82602086016020830137600060208483010152809550505050505092959194509250565b6000806000606084860312156121b457600080fd5b6121bd8461206c565b92506121cb6020850161206c565b9150604084013590509250925092565b600080604083850312156121ee57600080fd5b823591506121fe6020840161206c565b90509250929050565b60006020828403121561221957600080fd5b611b2e8261206c565b60008083601f84011261223457600080fd5b50813567ffffffffffffffff81111561224c57600080fd5b6020830191508360208260051b850101111561226757600080fd5b9250929050565b803560ff81168114611fc857600080fd5b60008060008060008060006080888a03121561229a57600080fd5b873567ffffffffffffffff808211156122b257600080fd5b6122be8b838c01612222565b909950975060208a01359150808211156122d757600080fd5b6122e38b838c01612222565b909750955060408a01359150808211156122fc57600080fd5b818a0191508a601f83011261231057600080fd5b81358181111561231f57600080fd5b8b602060608302850101111561233457600080fd5b60208301955080945050505061234c6060890161226e565b905092959891949750929550565b6000806040838503121561236d57600080fd5b6123768361206c565b91506121fe60208401611fb8565b6000806040838503121561239757600080fd5b6123a08361206c565b91506121fe6020840161206c565b600181811c908216806123c257607f821691505b602082108114156123e357634e487b7160e01b600052602260045260246000fd5b50919050565b6020808252602e908201527f4552433732313a2063616c6c6572206973206e6f7420746f6b656e206f776e6560408201526d1c881b9bdc88185c1c1c9bdd995960921b606082015260800190565b634e487b7160e01b600052603260045260246000fd5b6000808335601e1984360301811261246457600080fd5b83018035915067ffffffffffffffff82111561247f57600080fd5b60200191503681900382131561226757600080fd5b634e487b7160e01b600052601160045260246000fd5b60006000198214156124be576124be612494565b5060010190565b6000828210156124d7576124d7612494565b500390565b600082198211156124ef576124ef612494565b500190565b60208082526032908201527f4552433732313a207472616e7366657220746f206e6f6e20455243373231526560408201527131b2b4bb32b91034b6b83632b6b2b73a32b960711b606082015260800190565b60008351612558818460208801611fe8565b83519083019061256c818360208801611fe8565b01949350505050565b7f416363657373436f6e74726f6c3a206163636f756e74200000000000000000008152600083516125ad816017850160208801611fe8565b7001034b99036b4b9b9b4b733903937b6329607d1b60179184019182015283516125de816028840160208801611fe8565b01602801949350505050565b6001600160a01b038581168252841660208201526040810183905260806060820181905260009061261d90830184612014565b9695505050505050565b60006020828403121561263957600080fd5b8151611b2e81611f85565b600081600019048311821515161561265e5761265e612494565b500290565b60008161267257612672612494565b506000190190565b634e487b7160e01b600052601260045260246000fd5b60008261269f5761269f61267a565b500490565b6000826126b3576126b361267a565b50069056fea26469706673582212200e5638c3e827c66240a523aca4f67c84a8a7f641d3f803d4da3cbf6074519b3064736f6c63430008090033",
  "devdoc": {
    "details": "BlastLootBox ERC721 token",
    "kind": "dev",
    "methods": {
      "approve(address,uint256)": {
        "details": "See {IERC721-approve}."
      },
      "balanceOf(address)": {
        "details": "See {IERC721-balanceOf}."
      },
      "constructor": {
        "params": {
          "name": "Name of the contract",
          "symbol": "Symbol of the contract"
        }
      },
      "getApproved(uint256)": {
        "details": "See {IERC721-getApproved}."
      },
      "getRoleAdmin(bytes32)": {
        "details": "Returns the admin role that controls `role`. See {grantRole} and {revokeRole}. To change a role's admin, use {_setRoleAdmin}."
      },
      "getTokenType(uint256)": {
        "details": "Returned value should be 1 or 2",
        "params": {
          "_tokenId": "Token ID."
        }
      },
      "grantRole(bytes32,address)": {
        "details": "Grants `role` to `account`. If `account` had not been already granted `role`, emits a {RoleGranted} event. Requirements: - the caller must have ``role``'s admin role. May emit a {RoleGranted} event."
      },
      "hasRole(bytes32,address)": {
        "details": "Returns `true` if `account` has been granted `role`."
      },
      "isApprovedForAll(address,address)": {
        "details": "See {IERC721-isApprovedForAll}."
      },
      "name()": {
        "details": "See {IERC721Metadata-name}."
      },
      "onERC721Received(address,address,uint256,bytes)": {
        "details": "See {IERC721Receiver-onERC721Received}. Always returns `IERC721Receiver.onERC721Received.selector`."
      },
      "ownerOf(uint256)": {
        "details": "See {IERC721-ownerOf}."
      },
      "paused()": {
        "details": "Returns true if the contract is paused, and false otherwise."
      },
      "renounceRole(bytes32,address)": {
        "details": "Revokes `role` from the calling account. Roles are often managed via {grantRole} and {revokeRole}: this function's purpose is to provide a mechanism for accounts to lose their privileges if they are compromised (such as when a trusted device is misplaced). If the calling account had been revoked `role`, emits a {RoleRevoked} event. Requirements: - the caller must be `account`. May emit a {RoleRevoked} event."
      },
      "revokeRole(bytes32,address)": {
        "details": "Revokes `role` from `account`. If `account` had been granted `role`, emits a {RoleRevoked} event. Requirements: - the caller must have ``role``'s admin role. May emit a {RoleRevoked} event."
      },
      "safeMint(address[],string[],(uint256,uint256,uint256)[],uint8)": {
        "details": "The caller must have the `DEFAULT_ADMIN_ROLE`. _tokenType should be 1 or 2 (In case of 1, it's normal box. In case of 2, it's gw box)"
      },
      "safeTransferFrom(address,address,uint256)": {
        "details": "See {IERC721-safeTransferFrom}."
      },
      "safeTransferFrom(address,address,uint256,bytes)": {
        "details": "See {IERC721-safeTransferFrom}."
      },
      "setApprovalForAll(address,bool)": {
        "details": "See {IERC721-setApprovalForAll}."
      },
      "supportsInterface(bytes4)": {
        "details": "See {IERC165-supportsInterface}.",
        "params": {
          "interfaceId": "Interface ID."
        }
      },
      "symbol()": {
        "details": "See {IERC721Metadata-symbol}."
      },
      "tokenURI(uint256)": {
        "params": {
          "tokenId": "Token ID."
        }
      },
      "transferFrom(address,address,uint256)": {
        "details": "See {IERC721-transferFrom}."
      }
    },
    "title": "Blast LootBox NFT",
    "version": 1
  },
  "userdoc": {
    "kind": "user",
    "methods": {
      "getTokenType(uint256)": {
        "notice": "Get Token Type. (GWB or NB)"
      },
      "safeMint(address[],string[],(uint256,uint256,uint256)[],uint8)": {
        "notice": "Creates a new token for `_to`. Its token ID will be automatically"
      },
      "tokenURI(uint256)": {
        "notice": "Returns the TokenURI."
      }
    },
    "version": 1
  },
  "storageLayout": {
    "storage": [
      {
        "astId": 1766,
        "contract": "contracts/BlastLootBox.sol:BlastLootBox",
        "label": "_name",
        "offset": 0,
        "slot": "0",
        "type": "t_string_storage"
      },
      {
        "astId": 1768,
        "contract": "contracts/BlastLootBox.sol:BlastLootBox",
        "label": "_symbol",
        "offset": 0,
        "slot": "1",
        "type": "t_string_storage"
      },
      {
        "astId": 1772,
        "contract": "contracts/BlastLootBox.sol:BlastLootBox",
        "label": "_owners",
        "offset": 0,
        "slot": "2",
        "type": "t_mapping(t_uint256,t_address)"
      },
      {
        "astId": 1776,
        "contract": "contracts/BlastLootBox.sol:BlastLootBox",
        "label": "_balances",
        "offset": 0,
        "slot": "3",
        "type": "t_mapping(t_address,t_uint256)"
      },
      {
        "astId": 1780,
        "contract": "contracts/BlastLootBox.sol:BlastLootBox",
        "label": "_tokenApprovals",
        "offset": 0,
        "slot": "4",
        "type": "t_mapping(t_uint256,t_address)"
      },
      {
        "astId": 1786,
        "contract": "contracts/BlastLootBox.sol:BlastLootBox",
        "label": "_operatorApprovals",
        "offset": 0,
        "slot": "5",
        "type": "t_mapping(t_address,t_mapping(t_address,t_bool))"
      },
      {
        "astId": 2784,
        "contract": "contracts/BlastLootBox.sol:BlastLootBox",
        "label": "_tokenURIs",
        "offset": 0,
        "slot": "6",
        "type": "t_mapping(t_uint256,t_string_storage)"
      },
      {
        "astId": 523,
        "contract": "contracts/BlastLootBox.sol:BlastLootBox",
        "label": "_paused",
        "offset": 0,
        "slot": "7",
        "type": "t_bool"
      },
      {
        "astId": 24,
        "contract": "contracts/BlastLootBox.sol:BlastLootBox",
        "label": "_roles",
        "offset": 0,
        "slot": "8",
        "type": "t_mapping(t_bytes32,t_struct(RoleData)19_storage)"
      },
      {
        "astId": 7587,
        "contract": "contracts/BlastLootBox.sol:BlastLootBox",
        "label": "_tokenIdCounter",
        "offset": 0,
        "slot": "9",
        "type": "t_struct(Counter)3273_storage"
      },
      {
        "astId": 7592,
        "contract": "contracts/BlastLootBox.sol:BlastLootBox",
        "label": "lootboxDetails",
        "offset": 0,
        "slot": "10",
        "type": "t_mapping(t_uint256,t_struct(LootBox)7579_storage)"
      },
      {
        "astId": 7596,
        "contract": "contracts/BlastLootBox.sol:BlastLootBox",
        "label": "tokenTypes",
        "offset": 0,
        "slot": "11",
        "type": "t_mapping(t_uint256,t_uint8)"
      },
      {
        "astId": 7599,
        "contract": "contracts/BlastLootBox.sol:BlastLootBox",
        "label": "blastEquipmentNFT",
        "offset": 0,
        "slot": "12",
        "type": "t_contract(IBlastEquipmentNFT)9198"
      },
      {
        "astId": 7601,
        "contract": "contracts/BlastLootBox.sol:BlastLootBox",
        "label": "openAvailable",
        "offset": 20,
        "slot": "12",
        "type": "t_bool"
      }
    ],
    "types": {
      "t_address": {
        "encoding": "inplace",
        "label": "address",
        "numberOfBytes": "20"
      },
      "t_bool": {
        "encoding": "inplace",
        "label": "bool",
        "numberOfBytes": "1"
      },
      "t_bytes32": {
        "encoding": "inplace",
        "label": "bytes32",
        "numberOfBytes": "32"
      },
      "t_contract(IBlastEquipmentNFT)9198": {
        "encoding": "inplace",
        "label": "contract IBlastEquipmentNFT",
        "numberOfBytes": "20"
      },
      "t_mapping(t_address,t_bool)": {
        "encoding": "mapping",
        "key": "t_address",
        "label": "mapping(address => bool)",
        "numberOfBytes": "32",
        "value": "t_bool"
      },
      "t_mapping(t_address,t_mapping(t_address,t_bool))": {
        "encoding": "mapping",
        "key": "t_address",
        "label": "mapping(address => mapping(address => bool))",
        "numberOfBytes": "32",
        "value": "t_mapping(t_address,t_bool)"
      },
      "t_mapping(t_address,t_uint256)": {
        "encoding": "mapping",
        "key": "t_address",
        "label": "mapping(address => uint256)",
        "numberOfBytes": "32",
        "value": "t_uint256"
      },
      "t_mapping(t_bytes32,t_struct(RoleData)19_storage)": {
        "encoding": "mapping",
        "key": "t_bytes32",
        "label": "mapping(bytes32 => struct AccessControl.RoleData)",
        "numberOfBytes": "32",
        "value": "t_struct(RoleData)19_storage"
      },
      "t_mapping(t_uint256,t_address)": {
        "encoding": "mapping",
        "key": "t_uint256",
        "label": "mapping(uint256 => address)",
        "numberOfBytes": "32",
        "value": "t_address"
      },
      "t_mapping(t_uint256,t_string_storage)": {
        "encoding": "mapping",
        "key": "t_uint256",
        "label": "mapping(uint256 => string)",
        "numberOfBytes": "32",
        "value": "t_string_storage"
      },
      "t_mapping(t_uint256,t_struct(LootBox)7579_storage)": {
        "encoding": "mapping",
        "key": "t_uint256",
        "label": "mapping(uint256 => struct BlastLootBox.LootBox)",
        "numberOfBytes": "32",
        "value": "t_struct(LootBox)7579_storage"
      },
      "t_mapping(t_uint256,t_uint8)": {
        "encoding": "mapping",
        "key": "t_uint256",
        "label": "mapping(uint256 => uint8)",
        "numberOfBytes": "32",
        "value": "t_uint8"
      },
      "t_string_storage": {
        "encoding": "bytes",
        "label": "string",
        "numberOfBytes": "32"
      },
      "t_struct(Counter)3273_storage": {
        "encoding": "inplace",
        "label": "struct Counters.Counter",
        "members": [
          {
            "astId": 3272,
            "contract": "contracts/BlastLootBox.sol:BlastLootBox",
            "label": "_value",
            "offset": 0,
            "slot": "0",
            "type": "t_uint256"
          }
        ],
        "numberOfBytes": "32"
      },
      "t_struct(LootBox)7579_storage": {
        "encoding": "inplace",
        "label": "struct BlastLootBox.LootBox",
        "members": [
          {
            "astId": 7574,
            "contract": "contracts/BlastLootBox.sol:BlastLootBox",
            "label": "token0",
            "offset": 0,
            "slot": "0",
            "type": "t_uint256"
          },
          {
            "astId": 7576,
            "contract": "contracts/BlastLootBox.sol:BlastLootBox",
            "label": "token1",
            "offset": 0,
            "slot": "1",
            "type": "t_uint256"
          },
          {
            "astId": 7578,
            "contract": "contracts/BlastLootBox.sol:BlastLootBox",
            "label": "token2",
            "offset": 0,
            "slot": "2",
            "type": "t_uint256"
          }
        ],
        "numberOfBytes": "96"
      },
      "t_struct(RoleData)19_storage": {
        "encoding": "inplace",
        "label": "struct AccessControl.RoleData",
        "members": [
          {
            "astId": 16,
            "contract": "contracts/BlastLootBox.sol:BlastLootBox",
            "label": "members",
            "offset": 0,
            "slot": "0",
            "type": "t_mapping(t_address,t_bool)"
          },
          {
            "astId": 18,
            "contract": "contracts/BlastLootBox.sol:BlastLootBox",
            "label": "adminRole",
            "offset": 0,
            "slot": "1",
            "type": "t_bytes32"
          }
        ],
        "numberOfBytes": "64"
      },
      "t_uint256": {
        "encoding": "inplace",
        "label": "uint256",
        "numberOfBytes": "32"
      },
      "t_uint8": {
        "encoding": "inplace",
        "label": "uint8",
        "numberOfBytes": "1"
      }
    }
  }
}