{
  "address": "0xb1e2ba7D374e3A9B4EefbF8Df49516B277459b78",
  "abi": [
    {
      "inputs": [
        {
          "internalType": "string",
          "name": "name",
          "type": "string"
        },
        {
          "internalType": "string",
          "name": "symbol",
          "type": "string"
        }
      ],
      "stateMutability": "nonpayable",
      "type": "constructor"
    },
    {
      "anonymous": false,
      "inputs": [
        {
          "indexed": true,
          "internalType": "address",
          "name": "owner",
          "type": "address"
        },
        {
          "indexed": true,
          "internalType": "address",
          "name": "approved",
          "type": "address"
        },
        {
          "indexed": true,
          "internalType": "uint256",
          "name": "tokenId",
          "type": "uint256"
        }
      ],
      "name": "Approval",
      "type": "event"
    },
    {
      "anonymous": false,
      "inputs": [
        {
          "indexed": true,
          "internalType": "address",
          "name": "owner",
          "type": "address"
        },
        {
          "indexed": true,
          "internalType": "address",
          "name": "operator",
          "type": "address"
        },
        {
          "indexed": false,
          "internalType": "bool",
          "name": "approved",
          "type": "bool"
        }
      ],
      "name": "ApprovalForAll",
      "type": "event"
    },
    {
      "anonymous": false,
      "inputs": [
        {
          "indexed": false,
          "internalType": "uint256",
          "name": "tokenId",
          "type": "uint256"
        },
        {
          "indexed": false,
          "internalType": "uint256",
          "name": "level",
          "type": "uint256"
        },
        {
          "indexed": false,
          "internalType": "uint256",
          "name": "durabilityRestored",
          "type": "uint256"
        },
        {
          "indexed": false,
          "internalType": "uint256",
          "name": "durability",
          "type": "uint256"
        },
        {
          "indexed": false,
          "internalType": "uint256",
          "name": "lastRepairTime",
          "type": "uint256"
        },
        {
          "indexed": false,
          "internalType": "uint256",
          "name": "repairCount",
          "type": "uint256"
        },
        {
          "indexed": false,
          "internalType": "uint256",
          "name": "replicationCount",
          "type": "uint256"
        }
      ],
      "name": "AttributeUpdated",
      "type": "event"
    },
    {
      "anonymous": false,
      "inputs": [
        {
          "indexed": false,
          "internalType": "address",
          "name": "account",
          "type": "address"
        }
      ],
      "name": "Paused",
      "type": "event"
    },
    {
      "anonymous": false,
      "inputs": [
        {
          "indexed": false,
          "internalType": "string",
          "name": "_value",
          "type": "string"
        },
        {
          "indexed": true,
          "internalType": "uint256",
          "name": "_id",
          "type": "uint256"
        }
      ],
      "name": "PermanentURI",
      "type": "event"
    },
    {
      "anonymous": false,
      "inputs": [
        {
          "indexed": true,
          "internalType": "bytes32",
          "name": "role",
          "type": "bytes32"
        },
        {
          "indexed": true,
          "internalType": "bytes32",
          "name": "previousAdminRole",
          "type": "bytes32"
        },
        {
          "indexed": true,
          "internalType": "bytes32",
          "name": "newAdminRole",
          "type": "bytes32"
        }
      ],
      "name": "RoleAdminChanged",
      "type": "event"
    },
    {
      "anonymous": false,
      "inputs": [
        {
          "indexed": true,
          "internalType": "bytes32",
          "name": "role",
          "type": "bytes32"
        },
        {
          "indexed": true,
          "internalType": "address",
          "name": "account",
          "type": "address"
        },
        {
          "indexed": true,
          "internalType": "address",
          "name": "sender",
          "type": "address"
        }
      ],
      "name": "RoleGranted",
      "type": "event"
    },
    {
      "anonymous": false,
      "inputs": [
        {
          "indexed": true,
          "internalType": "bytes32",
          "name": "role",
          "type": "bytes32"
        },
        {
          "indexed": true,
          "internalType": "address",
          "name": "account",
          "type": "address"
        },
        {
          "indexed": true,
          "internalType": "address",
          "name": "sender",
          "type": "address"
        }
      ],
      "name": "RoleRevoked",
      "type": "event"
    },
    {
      "anonymous": false,
      "inputs": [
        {
          "indexed": true,
          "internalType": "address",
          "name": "from",
          "type": "address"
        },
        {
          "indexed": true,
          "internalType": "address",
          "name": "to",
          "type": "address"
        },
        {
          "indexed": true,
          "internalType": "uint256",
          "name": "tokenId",
          "type": "uint256"
        }
      ],
      "name": "Transfer",
      "type": "event"
    },
    {
      "anonymous": false,
      "inputs": [
        {
          "indexed": false,
          "internalType": "address",
          "name": "account",
          "type": "address"
        }
      ],
      "name": "Unpaused",
      "type": "event"
    },
    {
      "inputs": [],
      "name": "DEFAULT_ADMIN_ROLE",
      "outputs": [
        {
          "internalType": "bytes32",
          "name": "",
          "type": "bytes32"
        }
      ],
      "stateMutability": "view",
      "type": "function"
    },
    {
      "inputs": [],
      "name": "GAME_ROLE",
      "outputs": [
        {
          "internalType": "bytes32",
          "name": "",
          "type": "bytes32"
        }
      ],
      "stateMutability": "view",
      "type": "function"
    },
    {
      "inputs": [],
      "name": "MINTER_ROLE",
      "outputs": [
        {
          "internalType": "bytes32",
          "name": "",
          "type": "bytes32"
        }
      ],
      "stateMutability": "view",
      "type": "function"
    },
    {
      "inputs": [],
      "name": "REPLICATOR_ROLE",
      "outputs": [
        {
          "internalType": "bytes32",
          "name": "",
          "type": "bytes32"
        }
      ],
      "stateMutability": "view",
      "type": "function"
    },
    {
      "inputs": [],
      "name": "REVEAL_ROLE",
      "outputs": [
        {
          "internalType": "bytes32",
          "name": "",
          "type": "bytes32"
        }
      ],
      "stateMutability": "view",
      "type": "function"
    },
    {
      "inputs": [],
      "name": "_tokenIdCounter",
      "outputs": [
        {
          "internalType": "uint256",
          "name": "_value",
          "type": "uint256"
        }
      ],
      "stateMutability": "view",
      "type": "function"
    },
    {
      "inputs": [
        {
          "internalType": "address",
          "name": "to",
          "type": "address"
        },
        {
          "internalType": "uint256",
          "name": "tokenId",
          "type": "uint256"
        }
      ],
      "name": "approve",
      "outputs": [],
      "stateMutability": "nonpayable",
      "type": "function"
    },
    {
      "inputs": [
        {
          "internalType": "uint256",
          "name": "",
          "type": "uint256"
        }
      ],
      "name": "attributes",
      "outputs": [
        {
          "internalType": "uint256",
          "name": "level",
          "type": "uint256"
        },
        {
          "internalType": "uint256",
          "name": "durabilityRestored",
          "type": "uint256"
        },
        {
          "internalType": "uint256",
          "name": "durability",
          "type": "uint256"
        },
        {
          "internalType": "uint256",
          "name": "lastRepairTime",
          "type": "uint256"
        },
        {
          "internalType": "uint256",
          "name": "repairCount",
          "type": "uint256"
        },
        {
          "internalType": "uint256",
          "name": "replicationCount",
          "type": "uint256"
        }
      ],
      "stateMutability": "view",
      "type": "function"
    },
    {
      "inputs": [
        {
          "internalType": "address",
          "name": "owner",
          "type": "address"
        }
      ],
      "name": "balanceOf",
      "outputs": [
        {
          "internalType": "uint256",
          "name": "",
          "type": "uint256"
        }
      ],
      "stateMutability": "view",
      "type": "function"
    },
    {
      "inputs": [
        {
          "internalType": "uint256",
          "name": "tokenId",
          "type": "uint256"
        }
      ],
      "name": "burn",
      "outputs": [],
      "stateMutability": "nonpayable",
      "type": "function"
    },
    {
      "inputs": [],
      "name": "durabilityPointTimer",
      "outputs": [
        {
          "internalType": "uint256",
          "name": "",
          "type": "uint256"
        }
      ],
      "stateMutability": "view",
      "type": "function"
    },
    {
      "inputs": [
        {
          "internalType": "uint256",
          "name": "tokenId",
          "type": "uint256"
        }
      ],
      "name": "getApproved",
      "outputs": [
        {
          "internalType": "address",
          "name": "",
          "type": "address"
        }
      ],
      "stateMutability": "view",
      "type": "function"
    },
    {
      "inputs": [
        {
          "internalType": "uint256",
          "name": "_tokenId",
          "type": "uint256"
        }
      ],
      "name": "getAttributes",
      "outputs": [
        {
          "internalType": "uint256",
          "name": "",
          "type": "uint256"
        },
        {
          "internalType": "uint256",
          "name": "",
          "type": "uint256"
        },
        {
          "internalType": "uint256",
          "name": "",
          "type": "uint256"
        },
        {
          "internalType": "uint256",
          "name": "",
          "type": "uint256"
        },
        {
          "internalType": "uint256",
          "name": "",
          "type": "uint256"
        },
        {
          "internalType": "uint256",
          "name": "",
          "type": "uint256"
        }
      ],
      "stateMutability": "view",
      "type": "function"
    },
    {
      "inputs": [
        {
          "internalType": "bytes32",
          "name": "role",
          "type": "bytes32"
        }
      ],
      "name": "getRoleAdmin",
      "outputs": [
        {
          "internalType": "bytes32",
          "name": "",
          "type": "bytes32"
        }
      ],
      "stateMutability": "view",
      "type": "function"
    },
    {
      "inputs": [
        {
          "internalType": "uint256",
          "name": "_tokenId",
          "type": "uint256"
        }
      ],
      "name": "getStaticAttributes",
      "outputs": [
        {
          "internalType": "uint8",
          "name": "",
          "type": "uint8"
        },
        {
          "internalType": "uint8",
          "name": "",
          "type": "uint8"
        },
        {
          "internalType": "uint8",
          "name": "",
          "type": "uint8"
        },
        {
          "internalType": "uint8",
          "name": "",
          "type": "uint8"
        },
        {
          "internalType": "uint8",
          "name": "",
          "type": "uint8"
        }
      ],
      "stateMutability": "view",
      "type": "function"
    },
    {
      "inputs": [
        {
          "internalType": "bytes32",
          "name": "role",
          "type": "bytes32"
        },
        {
          "internalType": "address",
          "name": "account",
          "type": "address"
        }
      ],
      "name": "grantRole",
      "outputs": [],
      "stateMutability": "nonpayable",
      "type": "function"
    },
    {
      "inputs": [
        {
          "internalType": "bytes32",
          "name": "role",
          "type": "bytes32"
        },
        {
          "internalType": "address",
          "name": "account",
          "type": "address"
        }
      ],
      "name": "hasRole",
      "outputs": [
        {
          "internalType": "bool",
          "name": "",
          "type": "bool"
        }
      ],
      "stateMutability": "view",
      "type": "function"
    },
    {
      "inputs": [
        {
          "internalType": "uint256",
          "name": "",
          "type": "uint256"
        }
      ],
      "name": "hashValue",
      "outputs": [
        {
          "internalType": "bytes32",
          "name": "",
          "type": "bytes32"
        }
      ],
      "stateMutability": "view",
      "type": "function"
    },
    {
      "inputs": [
        {
          "internalType": "address",
          "name": "owner",
          "type": "address"
        },
        {
          "internalType": "address",
          "name": "operator",
          "type": "address"
        }
      ],
      "name": "isApprovedForAll",
      "outputs": [
        {
          "internalType": "bool",
          "name": "",
          "type": "bool"
        }
      ],
      "stateMutability": "view",
      "type": "function"
    },
    {
      "inputs": [],
      "name": "name",
      "outputs": [
        {
          "internalType": "string",
          "name": "",
          "type": "string"
        }
      ],
      "stateMutability": "view",
      "type": "function"
    },
    {
      "inputs": [
        {
          "internalType": "uint256",
          "name": "tokenId",
          "type": "uint256"
        }
      ],
      "name": "ownerOf",
      "outputs": [
        {
          "internalType": "address",
          "name": "",
          "type": "address"
        }
      ],
      "stateMutability": "view",
      "type": "function"
    },
    {
      "inputs": [
        {
          "internalType": "bool",
          "name": "stop",
          "type": "bool"
        }
      ],
      "name": "pause",
      "outputs": [],
      "stateMutability": "nonpayable",
      "type": "function"
    },
    {
      "inputs": [],
      "name": "paused",
      "outputs": [
        {
          "internalType": "bool",
          "name": "",
          "type": "bool"
        }
      ],
      "stateMutability": "view",
      "type": "function"
    },
    {
      "inputs": [
        {
          "internalType": "bytes32",
          "name": "role",
          "type": "bytes32"
        },
        {
          "internalType": "address",
          "name": "account",
          "type": "address"
        }
      ],
      "name": "renounceRole",
      "outputs": [],
      "stateMutability": "nonpayable",
      "type": "function"
    },
    {
      "inputs": [
        {
          "internalType": "uint256",
          "name": "_tokenId",
          "type": "uint256"
        }
      ],
      "name": "revealRealTokenURI",
      "outputs": [],
      "stateMutability": "nonpayable",
      "type": "function"
    },
    {
      "inputs": [
        {
          "internalType": "bytes32",
          "name": "role",
          "type": "bytes32"
        },
        {
          "internalType": "address",
          "name": "account",
          "type": "address"
        }
      ],
      "name": "revokeRole",
      "outputs": [],
      "stateMutability": "nonpayable",
      "type": "function"
    },
    {
      "inputs": [
        {
          "internalType": "address",
          "name": "_to",
          "type": "address"
        },
        {
          "internalType": "string[]",
          "name": "_uri",
          "type": "string[]"
        },
        {
          "internalType": "bytes32[]",
          "name": "_hash",
          "type": "bytes32[]"
        },
        {
          "internalType": "string[]",
          "name": "_realUri",
          "type": "string[]"
        },
        {
          "components": [
            {
              "internalType": "uint8",
              "name": "maxLevel",
              "type": "uint8"
            },
            {
              "internalType": "uint8",
              "name": "maxDurability",
              "type": "uint8"
            },
            {
              "internalType": "uint8",
              "name": "adjective",
              "type": "uint8"
            },
            {
              "internalType": "uint8",
              "name": "rarity",
              "type": "uint8"
            },
            {
              "internalType": "uint8",
              "name": "grade",
              "type": "uint8"
            }
          ],
          "internalType": "struct StaticAttributes[]",
          "name": "_staticAttributes",
          "type": "tuple[]"
        }
      ],
      "name": "safeMint",
      "outputs": [],
      "stateMutability": "nonpayable",
      "type": "function"
    },
    {
      "inputs": [
        {
          "internalType": "address",
          "name": "_to",
          "type": "address"
        },
        {
          "internalType": "string",
          "name": "_uri",
          "type": "string"
        },
        {
          "internalType": "bytes32",
          "name": "_hash",
          "type": "bytes32"
        },
        {
          "internalType": "string",
          "name": "_realUri",
          "type": "string"
        },
        {
          "components": [
            {
              "internalType": "uint8",
              "name": "maxLevel",
              "type": "uint8"
            },
            {
              "internalType": "uint8",
              "name": "maxDurability",
              "type": "uint8"
            },
            {
              "internalType": "uint8",
              "name": "adjective",
              "type": "uint8"
            },
            {
              "internalType": "uint8",
              "name": "rarity",
              "type": "uint8"
            },
            {
              "internalType": "uint8",
              "name": "grade",
              "type": "uint8"
            }
          ],
          "internalType": "struct StaticAttributes",
          "name": "_staticAttributes",
          "type": "tuple"
        }
      ],
      "name": "safeMintReplicator",
      "outputs": [
        {
          "internalType": "uint256",
          "name": "",
          "type": "uint256"
        }
      ],
      "stateMutability": "nonpayable",
      "type": "function"
    },
    {
      "inputs": [
        {
          "internalType": "address",
          "name": "from",
          "type": "address"
        },
        {
          "internalType": "address",
          "name": "to",
          "type": "address"
        },
        {
          "internalType": "uint256",
          "name": "tokenId",
          "type": "uint256"
        }
      ],
      "name": "safeTransferFrom",
      "outputs": [],
      "stateMutability": "nonpayable",
      "type": "function"
    },
    {
      "inputs": [
        {
          "internalType": "address",
          "name": "from",
          "type": "address"
        },
        {
          "internalType": "address",
          "name": "to",
          "type": "address"
        },
        {
          "internalType": "uint256",
          "name": "tokenId",
          "type": "uint256"
        },
        {
          "internalType": "bytes",
          "name": "data",
          "type": "bytes"
        }
      ],
      "name": "safeTransferFrom",
      "outputs": [],
      "stateMutability": "nonpayable",
      "type": "function"
    },
    {
      "inputs": [
        {
          "internalType": "uint256",
          "name": "_tokenId",
          "type": "uint256"
        }
      ],
      "name": "scrap",
      "outputs": [],
      "stateMutability": "nonpayable",
      "type": "function"
    },
    {
      "inputs": [
        {
          "internalType": "address",
          "name": "operator",
          "type": "address"
        },
        {
          "internalType": "bool",
          "name": "approved",
          "type": "bool"
        }
      ],
      "name": "setApprovalForAll",
      "outputs": [],
      "stateMutability": "nonpayable",
      "type": "function"
    },
    {
      "inputs": [
        {
          "internalType": "uint256",
          "name": "_newTimer",
          "type": "uint256"
        }
      ],
      "name": "setDurabilityPointTimer",
      "outputs": [],
      "stateMutability": "nonpayable",
      "type": "function"
    },
    {
      "inputs": [
        {
          "internalType": "uint256",
          "name": "_tokenId",
          "type": "uint256"
        },
        {
          "internalType": "uint256",
          "name": "_newLevel",
          "type": "uint256"
        }
      ],
      "name": "setLevel",
      "outputs": [],
      "stateMutability": "nonpayable",
      "type": "function"
    },
    {
      "inputs": [
        {
          "internalType": "uint256",
          "name": "_tokenId",
          "type": "uint256"
        },
        {
          "internalType": "string",
          "name": "_realUri",
          "type": "string"
        }
      ],
      "name": "setRealTokenURI",
      "outputs": [],
      "stateMutability": "nonpayable",
      "type": "function"
    },
    {
      "inputs": [
        {
          "internalType": "uint256",
          "name": "_tokenId",
          "type": "uint256"
        },
        {
          "internalType": "uint256",
          "name": "_newRepairCount",
          "type": "uint256"
        }
      ],
      "name": "setRepairCount",
      "outputs": [],
      "stateMutability": "nonpayable",
      "type": "function"
    },
    {
      "inputs": [
        {
          "internalType": "uint256",
          "name": "_tokenId",
          "type": "uint256"
        },
        {
          "internalType": "uint256",
          "name": "_newReplicationCount",
          "type": "uint256"
        }
      ],
      "name": "setReplicationCount",
      "outputs": [],
      "stateMutability": "nonpayable",
      "type": "function"
    },
    {
      "inputs": [
        {
          "internalType": "uint256",
          "name": "_tokenId",
          "type": "uint256"
        },
        {
          "components": [
            {
              "internalType": "uint8",
              "name": "maxLevel",
              "type": "uint8"
            },
            {
              "internalType": "uint8",
              "name": "maxDurability",
              "type": "uint8"
            },
            {
              "internalType": "uint8",
              "name": "adjective",
              "type": "uint8"
            },
            {
              "internalType": "uint8",
              "name": "rarity",
              "type": "uint8"
            },
            {
              "internalType": "uint8",
              "name": "grade",
              "type": "uint8"
            }
          ],
          "internalType": "struct StaticAttributes",
          "name": "_staticAttributes",
          "type": "tuple"
        }
      ],
      "name": "setStaticAttributes",
      "outputs": [],
      "stateMutability": "nonpayable",
      "type": "function"
    },
    {
      "inputs": [
        {
          "internalType": "uint256",
          "name": "",
          "type": "uint256"
        }
      ],
      "name": "staticAttributes",
      "outputs": [
        {
          "internalType": "uint8",
          "name": "maxLevel",
          "type": "uint8"
        },
        {
          "internalType": "uint8",
          "name": "maxDurability",
          "type": "uint8"
        },
        {
          "internalType": "uint8",
          "name": "adjective",
          "type": "uint8"
        },
        {
          "internalType": "uint8",
          "name": "rarity",
          "type": "uint8"
        },
        {
          "internalType": "uint8",
          "name": "grade",
          "type": "uint8"
        }
      ],
      "stateMutability": "view",
      "type": "function"
    },
    {
      "inputs": [
        {
          "internalType": "bytes4",
          "name": "interfaceId",
          "type": "bytes4"
        }
      ],
      "name": "supportsInterface",
      "outputs": [
        {
          "internalType": "bool",
          "name": "",
          "type": "bool"
        }
      ],
      "stateMutability": "view",
      "type": "function"
    },
    {
      "inputs": [],
      "name": "symbol",
      "outputs": [
        {
          "internalType": "string",
          "name": "",
          "type": "string"
        }
      ],
      "stateMutability": "view",
      "type": "function"
    },
    {
      "inputs": [
        {
          "internalType": "uint256",
          "name": "tokenId",
          "type": "uint256"
        }
      ],
      "name": "tokenURI",
      "outputs": [
        {
          "internalType": "string",
          "name": "",
          "type": "string"
        }
      ],
      "stateMutability": "view",
      "type": "function"
    },
    {
      "inputs": [
        {
          "internalType": "address",
          "name": "from",
          "type": "address"
        },
        {
          "internalType": "address",
          "name": "to",
          "type": "address"
        },
        {
          "internalType": "uint256",
          "name": "tokenId",
          "type": "uint256"
        }
      ],
      "name": "transferFrom",
      "outputs": [],
      "stateMutability": "nonpayable",
      "type": "function"
    }
  ],
  "transactionHash": "0x47e1b6f99931bc12ab88bccb1c6ba45b6239bfc9d258d4456c2a9dcf95cce207",
  "args": [
    "Blast Equipment",
    "TestBEN"
  ],
  "numDeployments": 1,
  "solcInputHash": "9679bf2be07d0d5ae98ab346fabce69b",
  "bytecode": "0x608060405262093a80600a553480156200001857600080fd5b506040516200398d3803806200398d8339810160408190526200003b9162000362565b81518290829062000054906000906020850190620001ef565b5080516200006a906001906020840190620001ef565b50506007805460ff1916905550620000846000336200013b565b620000b07f9f2df0fed2c77648de5860a4cc508cd0818c85b8b8a1ab4ceeef8d981c8956a6336200013b565b620000dc7f6a64baf327d646d1bca72653e2a075d15fd6ac6d8cbd7f6ee03fc55875e0fa88336200013b565b620001077e6b97d3b00e0cfa27932db8d8710f84e2b8d72f339a1e910bf97a09597e99d6336200013b565b620001337f9319dd0ae057f037c1d1afa0c064923eaddc18e926a579ec34536017796831dc336200013b565b505062000409565b6200014782826200014b565b5050565b60008281526008602090815260408083206001600160a01b038516845290915290205460ff16620001475760008281526008602090815260408083206001600160a01b03851684529091529020805460ff19166001179055620001ab3390565b6001600160a01b0316816001600160a01b0316837f2f8788117e7eff1d82e926ec794901d17c78024a50270940304540a733656f0d60405160405180910390a45050565b828054620001fd90620003cc565b90600052602060002090601f0160209004810192826200022157600085556200026c565b82601f106200023c57805160ff19168380011785556200026c565b828001600101855582156200026c579182015b828111156200026c5782518255916020019190600101906200024f565b506200027a9291506200027e565b5090565b5b808211156200027a57600081556001016200027f565b634e487b7160e01b600052604160045260246000fd5b600082601f830112620002bd57600080fd5b81516001600160401b0380821115620002da57620002da62000295565b604051601f8301601f19908116603f0116810190828211818310171562000305576200030562000295565b816040528381526020925086838588010111156200032257600080fd5b600091505b8382101562000346578582018301518183018401529082019062000327565b83821115620003585760008385830101525b9695505050505050565b600080604083850312156200037657600080fd5b82516001600160401b03808211156200038e57600080fd5b6200039c86838701620002ab565b93506020850151915080821115620003b357600080fd5b50620003c285828601620002ab565b9150509250929050565b600181811c90821680620003e157607f821691505b602082108114156200040357634e487b7160e01b600052602260045260246000fd5b50919050565b61357480620004196000396000f3fe608060405234801561001057600080fd5b50600436106102695760003560e01c806384c4bd4b11610151578063b88d4fde116100c3578063d05dcc6a11610087578063d05dcc6a14610612578063d539139314610655578063d547741f1461067c578063dc9b1d4a1461068f578063e985e9c514610698578063f692c829146106d457600080fd5b8063b88d4fde146105b3578063c48de06d146105c6578063c87b56dd146105d9578063c933ef3d146105ec578063ce3163d3146105ff57600080fd5b8063a22cb46511610115578063a22cb4651461053d578063a75d2b2b14610550578063ab40070614610565578063acf88bbc1461057a578063b02d3c601461058d578063b772d99f146105a057600080fd5b806384c4bd4b146104fd5780638b1514ed1461050757806391d148541461051a57806395d89b411461052d578063a217fddf1461053557600080fd5b806331a06772116101ea5780635c975abb116101ae5780635c975abb146104735780635f1770a21461047e5780636352211e146104a457806370a08231146104b757806370a93b36146104ca5780637ad54b0a146104dd57600080fd5b806331a06772146103e757806336568abe146103fa57806342842e0e1461040d57806342966c68146104205780634378a6e31461043357600080fd5b80631b368271116102315780631b368271146102fe57806323b872dd14610311578063248a9ca31461032457806325ba8345146103555780632f2ff15d146103d457600080fd5b806301ffc9a71461026e57806302329a291461029657806306fdde03146102ab578063081812fc146102c0578063095ea7b3146102eb575b600080fd5b61028161027c366004612971565b61074c565b60405190151581526020015b60405180910390f35b6102a96102a43660046129a3565b61075d565b005b6102b3610782565b60405161028d9190612a16565b6102d36102ce366004612a29565b610814565b6040516001600160a01b03909116815260200161028d565b6102a96102f9366004612a59565b61083b565b6102a961030c366004612a83565b610956565b6102a961031f366004612aa5565b610aef565b610347610332366004612a29565b60009081526008602052604090206001015490565b60405190815260200161028d565b6103a0610363366004612a29565b600d6020526000908152604090205460ff808216916101008104821691620100008204811691630100000081048216916401000000009091041685565b6040805160ff968716815294861660208601529285169284019290925283166060830152909116608082015260a00161028d565b6102a96103e2366004612ae1565b610b21565b6102a96103f5366004612a29565b610b46565b6102a9610408366004612ae1565b610c36565b6102a961041b366004612aa5565b610cb0565b6102a961042e366004612a29565b610ccb565b610446610441366004612a29565b610cf9565b604080519687526020870195909552938501929092526060840152608083015260a082015260c00161028d565b60075460ff16610281565b6103477e6b97d3b00e0cfa27932db8d8710f84e2b8d72f339a1e910bf97a09597e99d681565b6102d36104b2366004612a29565b610d8f565b6103476104c5366004612b0d565b610def565b6102a96104d8366004612a83565b610e75565b6103476104eb366004612a29565b600b6020526000908152604090205481565b6009546103479081565b610347610515366004612c63565b611035565b610281610528366004612ae1565b611114565b6102b361113f565b610347600081565b6102a961054b366004612d00565b61114e565b61034760008051602061351f83398151915281565b6103476000805160206134ff83398151915281565b6102a9610588366004612a29565b611159565b6102a961059b366004612a29565b6111a1565b6102a96105ae366004612d2a565b6112ca565b6102a96105c1366004612d76565b611373565b6102a96105d4366004612a83565b6113ab565b6102b36105e7366004612a29565b6114ca565b6102a96105fa366004612e7b565b6114d5565b6102a961060d366004612f7f565b6116dc565b610446610620366004612a29565b600c60205260009081526040902080546001820154600283015460038401546004850154600590950154939492939192909186565b6103477f9f2df0fed2c77648de5860a4cc508cd0818c85b8b8a1ab4ceeef8d981c8956a681565b6102a961068a366004612ae1565b611708565b610347600a5481565b6102816106a6366004612fb7565b6001600160a01b03918216600090815260056020908152604080832093909416825291909152205460ff1690565b6103a06106e2366004612a29565b6000818152600d6020908152604091829020825160a081018452905460ff8082168084526101008304821694840185905262010000830482169584018690526301000000830482166060850181905264010000000090930490911660809093018390529590929450565b60006107578261172d565b92915050565b600061076881611752565b811561077a5761077661175c565b5050565b6107766117b6565b60606000805461079190612fe1565b80601f01602080910402602001604051908101604052809291908181526020018280546107bd90612fe1565b801561080a5780601f106107df5761010080835404028352916020019161080a565b820191906000526020600020905b8154815290600101906020018083116107ed57829003601f168201915b5050505050905090565b600061081f826117ef565b506000908152600460205260409020546001600160a01b031690565b600061084682610d8f565b9050806001600160a01b0316836001600160a01b031614156108b95760405162461bcd60e51b815260206004820152602160248201527f4552433732313a20617070726f76616c20746f2063757272656e74206f776e656044820152603960f91b60648201526084015b60405180910390fd5b336001600160a01b03821614806108d557506108d581336106a6565b6109475760405162461bcd60e51b815260206004820152603e60248201527f4552433732313a20617070726f76652063616c6c6572206973206e6f7420746f60448201527f6b656e206f776e6572206e6f7220617070726f76656420666f7220616c6c000060648201526084016108b0565b610951838361184e565b505050565b61096e6000805160206134ff83398151915233611114565b8061097f575061097f600033611114565b8061099d575061099d60008051602061351f83398151915233611114565b60405180604001604052806002815260200161313160f01b815250906109d65760405162461bcd60e51b81526004016108b09190612a16565b506000828152600c602090815260409182902060048101849055825160c081018452815481526001820154928101929092526002810154928201929092526003820154606082015260808101839052600582015460a0820152610a3990846118bc565b816001016000828254610a4c9190613032565b909155505042600382018190556040805160c0810182528354815260018401546020820152600284015491810191909152606081019190915260048201546080820152600582015460a0820152600090610aa690856118bc565b90506000805160206134df8339815191528483600001548460010154848660030154888860050154604051610ae1979695949392919061304a565b60405180910390a150505050565b610afa335b82611965565b610b165760405162461bcd60e51b81526004016108b09061307a565b6109518383836119e4565b600082815260086020526040902060010154610b3c81611752565b6109518383611b8b565b610b5e6000805160206134ff83398151915233611114565b80610b6f5750610b6f600033611114565b80610b8d5750610b8d60008051602061351f83398151915233611114565b60405180604001604052806002815260200161313160f01b81525090610bc65760405162461bcd60e51b81526004016108b09190612a16565b50610bd081611c11565b6000818152600c6020908152604080832083815560018101849055600281018490556003810184905560048101849055600501839055600d8252808320805464ffffffffff19169055600b8252808320839055600e9091528120610c3391612888565b50565b6001600160a01b0381163314610ca65760405162461bcd60e51b815260206004820152602f60248201527f416363657373436f6e74726f6c3a2063616e206f6e6c792072656e6f756e636560448201526e103937b632b9903337b91039b2b63360891b60648201526084016108b0565b6107768282611c5c565b61095183838360405180602001604052806000815250611373565b610cd433610af4565b610cf05760405162461bcd60e51b81526004016108b09061307a565b610c3381611c11565b6000818152600c60209081526040808320815160c0810183528154815260018201549381019390935260028101549183019190915260038101546060830152600481015460808301526005015460a08201528190819081908190819081610d60828a6118bc565b825160208401516060850151608086015160a090960151929d919c50929a509198509296509194509092505050565b6000818152600260205260408120546001600160a01b0316806107575760405162461bcd60e51b8152602060048201526018602482015277115490cdcc8c4e881a5b9d985b1a59081d1bdad95b88125160421b60448201526064016108b0565b60006001600160a01b038216610e595760405162461bcd60e51b815260206004820152602960248201527f4552433732313a2061646472657373207a65726f206973206e6f7420612076616044820152683634b21037bbb732b960b91b60648201526084016108b0565b506001600160a01b031660009081526003602052604090205490565b610e8d6000805160206134ff83398151915233611114565b80610e9e5750610e9e600033611114565b80610ebc5750610ebc60008051602061351f83398151915233611114565b60405180604001604052806002815260200161313160f01b81525090610ef55760405162461bcd60e51b81526004016108b09190612a16565b506000828152600d6020908152604091829020825160a081018452905460ff8082168084526101008304821684860152620100008304821684870152630100000083048216606085015264010000000090920416608083015283518085019094526002845261189960f11b928401929092529190831115610f895760405162461bcd60e51b81526004016108b09190612a16565b506000838152600c60209081526040808320858155815160c0810183528681526001820154938101939093526002810154918301919091526003810154606083015260048101546080830152600581015460a08301529190610feb90866118bc565b90506000805160206134df8339815191528585846001015484866003015487600401548860050154604051611026979695949392919061304a565b60405180910390a15050505050565b600060008051602061351f83398151915261104f81611752565b6040805180820190915260018152603160f81b60208201526001600160a01b038a1661108e5760405162461bcd60e51b81526004016108b09190612a16565b506111078989898080601f01602080910402602001604051908101604052809392919081815260200183838082843760009201919091525050604080516020601f8c018190048102820181019092528a81528c935091508a908a90819084018382808284376000920191909152508a9250611cc3915050565b9998505050505050505050565b60009182526008602090815260408084206001600160a01b0393909316845291905290205460ff1690565b60606001805461079190612fe1565b610776338383611e46565b600061116481611752565b6040805180820190915260018152603560f81b60208201528261119a5760405162461bcd60e51b81526004016108b09190612a16565b5050600a55565b7e6b97d3b00e0cfa27932db8d8710f84e2b8d72f339a1e910bf97a09597e99d66111ca81611752565b6000828152600e60205260409020805461126c9184916111e990612fe1565b80601f016020809104026020016040519081016040528092919081815260200182805461121590612fe1565b80156112625780601f1061123757610100808354040283529160200191611262565b820191906000526020600020905b81548152906001019060200180831161124557829003601f168201915b5050505050611f15565b6000828152600c60209081526040808320426003820155600e909252918290209151909184917fa109ba539900bf1b633f956d63c96fc89b814c7287f7aa50a9216d0b55657207916112bd916130c8565b60405180910390a2505050565b7e6b97d3b00e0cfa27932db8d8710f84e2b8d72f339a1e910bf97a09597e99d66112f381611752565b6113338484848080601f016020809104026020016040519081016040528093929190818152602001838380828437600092019190915250611f1592505050565b837fa109ba539900bf1b633f956d63c96fc89b814c7287f7aa50a9216d0b556572078484604051611365929190613170565b60405180910390a250505050565b61137d3383611965565b6113995760405162461bcd60e51b81526004016108b09061307a565b6113a584848484611faf565b50505050565b6113c36000805160206134ff83398151915233611114565b806113d457506113d4600033611114565b806113f257506113f260008051602061351f83398151915233611114565b60405180604001604052806002815260200161313160f01b8152509061142b5760405162461bcd60e51b81526004016108b09190612a16565b506000828152600c6020908152604080832060058101859055815160c08101835281548152600182015493810193909352600281015491830191909152600381015460608301526004810154608083015260a08201849052919061148f90856118bc565b90506000805160206134df8339815191528483600001548460010154848660030154876004015489604051610ae1979695949392919061304a565b606061075782611fe2565b7f9f2df0fed2c77648de5860a4cc508cd0818c85b8b8a1ab4ceeef8d981c8956a66114ff81611752565b6040805180820190915260018152603160f81b60208201526001600160a01b038b1661153e5760405162461bcd60e51b81526004016108b09190612a16565b506040805180820190915260018152603560f81b60208201528887146115775760405162461bcd60e51b81526004016108b09190612a16565b506040805180820190915260018152603560f81b60208201528885146115b05760405162461bcd60e51b81526004016108b09190612a16565b5060005b888110156116cf576116bc8b8b8b848181106115d2576115d261319f565b90506020028101906115e491906131b5565b8080601f0160208091040260200160405190810160405280939291908181526020018383808284376000920191909152508d92508c915086905081811061162d5761162d61319f565b905060200201358989868181106116465761164661319f565b905060200281019061165891906131b5565b8080601f0160208091040260200160405190810160405280939291908181526020018383808284376000920191909152508b92508a91508890508181106116a1576116a161319f565b905060a002018036038101906116b791906131fc565b611cc3565b506116c8816001613032565b90506115b4565b5050505050505050505050565b60006116e781611752565b6000838152600d6020526040902082906117018282613225565b5050505050565b60008281526008602052604090206001015461172381611752565b6109518383611c5c565b60006001600160e01b03198216637965db0b60e01b14806107575750610757826120eb565b610c33813361213b565b61176461219f565b6007805460ff191660011790557f62e78cea01bee320cd4e420270b5ea74000d11b0c9f74754ebdbfc544b05a2586117993390565b6040516001600160a01b03909116815260200160405180910390a1565b6117be6121e7565b6007805460ff191690557f5db9ee0a495bf2e6ff9c91a7834c1ba4fdd244a5e8aa4e537bd38aeae4b073aa33611799565b6000818152600260205260409020546001600160a01b0316610c335760405162461bcd60e51b8152602060048201526018602482015277115490cdcc8c4e881a5b9d985b1a59081d1bdad95b88125160421b60448201526064016108b0565b600081815260046020526040902080546001600160a01b0319166001600160a01b038416908117909155819061188382610d8f565b6001600160a01b03167f8c5be1e5ebec7d5bd14f71427d1e84f3dd0314c0f7b2291e5b200ac8c7c3b92560405160405180910390a45050565b6000818152600d60209081526040808320815160a081018352905460ff808216835261010082048116948301949094526201000081048416928201929092526301000000820483166060808301919091526401000000009092049092166080830152600a549085015183919061193290426132e8565b61193c9190613315565b9050816020015160ff16811015611953578061195c565b816020015160ff165b95945050505050565b60008061197183610d8f565b9050806001600160a01b0316846001600160a01b031614806119b857506001600160a01b0380821660009081526005602090815260408083209388168352929052205460ff165b806119dc5750836001600160a01b03166119d184610814565b6001600160a01b0316145b949350505050565b826001600160a01b03166119f782610d8f565b6001600160a01b031614611a5b5760405162461bcd60e51b815260206004820152602560248201527f4552433732313a207472616e736665722066726f6d20696e636f72726563742060448201526437bbb732b960d91b60648201526084016108b0565b6001600160a01b038216611abd5760405162461bcd60e51b8152602060048201526024808201527f4552433732313a207472616e7366657220746f20746865207a65726f206164646044820152637265737360e01b60648201526084016108b0565b611ac8838383612230565b611ad360008261184e565b6001600160a01b0383166000908152600360205260408120805460019290611afc9084906132e8565b90915550506001600160a01b0382166000908152600360205260408120805460019290611b2a908490613032565b909155505060008181526002602052604080822080546001600160a01b0319166001600160a01b0386811691821790925591518493918716917fddf252ad1be2c89b69c2b068fc378daa952ba7f163c4a11628f55a4df523b3ef91a4505050565b611b958282611114565b6107765760008281526008602090815260408083206001600160a01b03851684529091529020805460ff19166001179055611bcd3390565b6001600160a01b0316816001600160a01b0316837f2f8788117e7eff1d82e926ec794901d17c78024a50270940304540a733656f0d60405160405180910390a45050565b611c1a33610af4565b604051806040016040528060018152602001603360f81b81525090611c525760405162461bcd60e51b81526004016108b09190612a16565b50610c3381612238565b611c668282611114565b156107765760008281526008602090815260408083206001600160a01b0385168085529252808320805460ff1916905551339285917ff6391f5c32d9c69d2a47ea670b442974b53935d1edc7fd64eb21e047a839171b9190a45050565b600080611ccf60095490565b9050611cdf600980546001019055565b6000818152600b60209081526040808320889055600e82529091208551611d08928701906128c2565b506040805160c081018252600180825260006020808401828152848601838152426060808801918252608080890187815260a08a018881528c8952600c88528b89209a518b559551988a01989098559251600289015590516003880155945160048701559051600590950194909455600d815290849020875181549289015195890151938901519489015160ff9081166401000000000264ff000000001996821663010000000263ff0000001996831662010000029690961663ffff0000199883166101000261ffff1990961692909316919091179390931795909516949094179190911791909116179055611dfe8782612278565b611e088187611f15565b6000805160206134df83398151915281600160008042600080604051611e34979695949392919061304a565b60405180910390a19695505050505050565b816001600160a01b0316836001600160a01b03161415611ea85760405162461bcd60e51b815260206004820152601960248201527f4552433732313a20617070726f766520746f2063616c6c65720000000000000060448201526064016108b0565b6001600160a01b03838116600081815260056020908152604080832094871680845294825291829020805460ff191686151590811790915591519182527f17307eab39ab6107e8899845ad3d59bd9653f200f220920489ca2b5937696c31910160405180910390a3505050565b6000828152600260205260409020546001600160a01b0316611f905760405162461bcd60e51b815260206004820152602e60248201527f45524337323155524953746f726167653a2055524920736574206f66206e6f6e60448201526d32bc34b9ba32b73a103a37b5b2b760911b60648201526084016108b0565b60008281526006602090815260409091208251610951928401906128c2565b611fba8484846119e4565b611fc6848484846123c6565b6113a55760405162461bcd60e51b81526004016108b090613329565b6060611fed826117ef565b6000828152600660205260408120805461200690612fe1565b80601f016020809104026020016040519081016040528092919081815260200182805461203290612fe1565b801561207f5780601f106120545761010080835404028352916020019161207f565b820191906000526020600020905b81548152906001019060200180831161206257829003601f168201915b50505050509050600061209d60408051602081019091526000815290565b90508051600014156120b0575092915050565b8151156120e25780826040516020016120ca92919061337b565b60405160208183030381529060405292505050919050565b6119dc846124d3565b60006001600160e01b031982166380ac58cd60e01b148061211c57506001600160e01b03198216635b5e139f60e01b145b8061075757506301ffc9a760e01b6001600160e01b0319831614610757565b6121458282611114565b6107765761215d816001600160a01b03166014612547565b612168836020612547565b6040516020016121799291906133aa565b60408051601f198184030181529082905262461bcd60e51b82526108b091600401612a16565b60075460ff16156121e55760405162461bcd60e51b815260206004820152601060248201526f14185d5cd8589b194e881c185d5cd95960821b60448201526064016108b0565b565b60075460ff166121e55760405162461bcd60e51b815260206004820152601460248201527314185d5cd8589b194e881b9bdd081c185d5cd95960621b60448201526064016108b0565b61095161219f565b612241816126e3565b6000818152600660205260409020805461225a90612fe1565b159050610c33576000818152600660205260408120610c3391612888565b6001600160a01b0382166122ce5760405162461bcd60e51b815260206004820181905260248201527f4552433732313a206d696e7420746f20746865207a65726f206164647265737360448201526064016108b0565b6000818152600260205260409020546001600160a01b0316156123335760405162461bcd60e51b815260206004820152601c60248201527f4552433732313a20746f6b656e20616c7265616479206d696e7465640000000060448201526064016108b0565b61233f60008383612230565b6001600160a01b0382166000908152600360205260408120805460019290612368908490613032565b909155505060008181526002602052604080822080546001600160a01b0319166001600160a01b03861690811790915590518392907fddf252ad1be2c89b69c2b068fc378daa952ba7f163c4a11628f55a4df523b3ef908290a45050565b60006001600160a01b0384163b156124c857604051630a85bd0160e11b81526001600160a01b0385169063150b7a029061240a90339089908890889060040161341f565b602060405180830381600087803b15801561242457600080fd5b505af1925050508015612454575060408051601f3d908101601f191682019092526124519181019061345c565b60015b6124ae573d808015612482576040519150601f19603f3d011682016040523d82523d6000602084013e612487565b606091505b5080516124a65760405162461bcd60e51b81526004016108b090613329565b805181602001fd5b6001600160e01b031916630a85bd0160e11b1490506119dc565b506001949350505050565b60606124de826117ef565b60006124f560408051602081019091526000815290565b905060008151116125155760405180602001604052806000815250612540565b8061251f8461278a565b60405160200161253092919061337b565b6040516020818303038152906040525b9392505050565b60606000612556836002613479565b612561906002613032565b67ffffffffffffffff81111561257957612579612b71565b6040519080825280601f01601f1916602001820160405280156125a3576020820181803683370190505b509050600360fc1b816000815181106125be576125be61319f565b60200101906001600160f81b031916908160001a905350600f60fb1b816001815181106125ed576125ed61319f565b60200101906001600160f81b031916908160001a9053506000612611846002613479565b61261c906001613032565b90505b6001811115612694576f181899199a1a9b1b9c1cb0b131b232b360811b85600f16601081106126505761265061319f565b1a60f81b8282815181106126665761266661319f565b60200101906001600160f81b031916908160001a90535060049490941c9361268d81613498565b905061261f565b5083156125405760405162461bcd60e51b815260206004820181905260248201527f537472696e67733a20686578206c656e67746820696e73756666696369656e7460448201526064016108b0565b60006126ee82610d8f565b90506126fc81600084612230565b61270760008361184e565b6001600160a01b03811660009081526003602052604081208054600192906127309084906132e8565b909155505060008281526002602052604080822080546001600160a01b0319169055518391906001600160a01b038416907fddf252ad1be2c89b69c2b068fc378daa952ba7f163c4a11628f55a4df523b3ef908390a45050565b6060816127ae5750506040805180820190915260018152600360fc1b602082015290565b8160005b81156127d857806127c2816134af565b91506127d19050600a83613315565b91506127b2565b60008167ffffffffffffffff8111156127f3576127f3612b71565b6040519080825280601f01601f19166020018201604052801561281d576020820181803683370190505b5090505b84156119dc576128326001836132e8565b915061283f600a866134ca565b61284a906030613032565b60f81b81838151811061285f5761285f61319f565b60200101906001600160f81b031916908160001a905350612881600a86613315565b9450612821565b50805461289490612fe1565b6000825580601f106128a4575050565b601f016020900490600052602060002090810190610c339190612946565b8280546128ce90612fe1565b90600052602060002090601f0160209004810192826128f05760008555612936565b82601f1061290957805160ff1916838001178555612936565b82800160010185558215612936579182015b8281111561293657825182559160200191906001019061291b565b50612942929150612946565b5090565b5b808211156129425760008155600101612947565b6001600160e01b031981168114610c3357600080fd5b60006020828403121561298357600080fd5b81356125408161295b565b8035801515811461299e57600080fd5b919050565b6000602082840312156129b557600080fd5b6125408261298e565b60005b838110156129d95781810151838201526020016129c1565b838111156113a55750506000910152565b60008151808452612a028160208601602086016129be565b601f01601f19169290920160200192915050565b60208152600061254060208301846129ea565b600060208284031215612a3b57600080fd5b5035919050565b80356001600160a01b038116811461299e57600080fd5b60008060408385031215612a6c57600080fd5b612a7583612a42565b946020939093013593505050565b60008060408385031215612a9657600080fd5b50508035926020909101359150565b600080600060608486031215612aba57600080fd5b612ac384612a42565b9250612ad160208501612a42565b9150604084013590509250925092565b60008060408385031215612af457600080fd5b82359150612b0460208401612a42565b90509250929050565b600060208284031215612b1f57600080fd5b61254082612a42565b60008083601f840112612b3a57600080fd5b50813567ffffffffffffffff811115612b5257600080fd5b602083019150836020828501011115612b6a57600080fd5b9250929050565b634e487b7160e01b600052604160045260246000fd5b604051601f8201601f1916810167ffffffffffffffff81118282101715612bb057612bb0612b71565b604052919050565b60ff81168114610c3357600080fd5b600060a08284031215612bd957600080fd5b60405160a0810181811067ffffffffffffffff82111715612bfc57612bfc612b71565b6040529050808235612c0d81612bb8565b81526020830135612c1d81612bb8565b60208201526040830135612c3081612bb8565b60408201526060830135612c4381612bb8565b60608201526080830135612c5681612bb8565b6080919091015292915050565b6000806000806000806000610120888a031215612c7f57600080fd5b612c8888612a42565b9650602088013567ffffffffffffffff80821115612ca557600080fd5b612cb18b838c01612b28565b909850965060408a0135955060608a0135915080821115612cd157600080fd5b50612cde8a828b01612b28565b9094509250612cf290508960808a01612bc7565b905092959891949750929550565b60008060408385031215612d1357600080fd5b612d1c83612a42565b9150612b046020840161298e565b600080600060408486031215612d3f57600080fd5b83359250602084013567ffffffffffffffff811115612d5d57600080fd5b612d6986828701612b28565b9497909650939450505050565b60008060008060808587031215612d8c57600080fd5b612d9585612a42565b93506020612da4818701612a42565b935060408601359250606086013567ffffffffffffffff80821115612dc857600080fd5b818801915088601f830112612ddc57600080fd5b813581811115612dee57612dee612b71565b612e00601f8201601f19168501612b87565b91508082528984828501011115612e1657600080fd5b808484018584013760008482840101525080935050505092959194509250565b60008083601f840112612e4857600080fd5b50813567ffffffffffffffff811115612e6057600080fd5b6020830191508360208260051b8501011115612b6a57600080fd5b600080600080600080600080600060a08a8c031215612e9957600080fd5b612ea28a612a42565b985060208a013567ffffffffffffffff80821115612ebf57600080fd5b612ecb8d838e01612e36565b909a50985060408c0135915080821115612ee457600080fd5b612ef08d838e01612e36565b909850965060608c0135915080821115612f0957600080fd5b612f158d838e01612e36565b909650945060808c0135915080821115612f2e57600080fd5b818c0191508c601f830112612f4257600080fd5b813581811115612f5157600080fd5b8d602060a083028501011115612f6657600080fd5b6020830194508093505050509295985092959850929598565b60008082840360c0811215612f9357600080fd5b8335925060a0601f1982011215612fa957600080fd5b506020830190509250929050565b60008060408385031215612fca57600080fd5b612fd383612a42565b9150612b0460208401612a42565b600181811c90821680612ff557607f821691505b6020821081141561301657634e487b7160e01b600052602260045260246000fd5b50919050565b634e487b7160e01b600052601160045260246000fd5b600082198211156130455761304561301c565b500190565b968752602087019590955260408601939093526060850191909152608084015260a083015260c082015260e00190565b6020808252602e908201527f4552433732313a2063616c6c6572206973206e6f7420746f6b656e206f776e6560408201526d1c881b9bdc88185c1c1c9bdd995960921b606082015260800190565b600060208083526000845481600182811c9150808316806130ea57607f831692505b85831081141561310857634e487b7160e01b85526022600452602485fd5b878601838152602001818015613125576001811461313657613161565b60ff19861682528782019650613161565b60008b81526020902060005b8681101561315b57815484820152908501908901613142565b83019750505b50949998505050505050505050565b60208152816020820152818360408301376000818301604090810191909152601f909201601f19160101919050565b634e487b7160e01b600052603260045260246000fd5b6000808335601e198436030181126131cc57600080fd5b83018035915067ffffffffffffffff8211156131e757600080fd5b602001915036819003821315612b6a57600080fd5b600060a0828403121561320e57600080fd5b6125408383612bc7565b6000813561075781612bb8565b813561323081612bb8565b60ff8116905081548160ff198216178355602084013561324f81612bb8565b61ff008160081b169050808361ffff19841617178455604085013561327381612bb8565b62ff00008160101b1690508362ffffff19841617935080848317178555606086013592506132a083612bb8565b63ff0000008360181b1663ff00000019851683178217178555505050506107766132cc60808401613218565b825464ff00000000191660209190911b64ff0000000016178255565b6000828210156132fa576132fa61301c565b500390565b634e487b7160e01b600052601260045260246000fd5b600082613324576133246132ff565b500490565b60208082526032908201527f4552433732313a207472616e7366657220746f206e6f6e20455243373231526560408201527131b2b4bb32b91034b6b83632b6b2b73a32b960711b606082015260800190565b6000835161338d8184602088016129be565b8351908301906133a18183602088016129be565b01949350505050565b7f416363657373436f6e74726f6c3a206163636f756e74200000000000000000008152600083516133e28160178501602088016129be565b7001034b99036b4b9b9b4b733903937b6329607d1b60179184019182015283516134138160288401602088016129be565b01602801949350505050565b6001600160a01b0385811682528416602082015260408101839052608060608201819052600090613452908301846129ea565b9695505050505050565b60006020828403121561346e57600080fd5b81516125408161295b565b60008160001904831182151516156134935761349361301c565b500290565b6000816134a7576134a761301c565b506000190190565b60006000198214156134c3576134c361301c565b5060010190565b6000826134d9576134d96132ff565b50069056fef432c35e4f4373879a37109eba80cea1de1c74f7df773eb88dd57851cd3681866a64baf327d646d1bca72653e2a075d15fd6ac6d8cbd7f6ee03fc55875e0fa889319dd0ae057f037c1d1afa0c064923eaddc18e926a579ec34536017796831dca2646970667358221220d71609f15d3edda7fae0dd3d50fa2e40928d817d34c01e5bad397e7063405bcc64736f6c63430008090033",
  "devdoc": {
    "details": "BlastNFT ERC721 token",
    "kind": "dev",
    "methods": {
      "approve(address,uint256)": {
        "details": "See {IERC721-approve}."
      },
      "balanceOf(address)": {
        "details": "See {IERC721-balanceOf}."
      },
      "burn(uint256)": {
        "details": "Burns `tokenId`. See {ERC721-_burn}. Requirements: - The caller must own `tokenId` or be an approved operator."
      },
      "constructor": {
        "details": "Grants `DEFAULT_ADMIN_ROLE`, `MINTER_ROLE` and `PAUSER_ROLE` to the",
        "params": {
          "name": "Name of the contract",
          "symbol": "Symbol of the contract"
        }
      },
      "getApproved(uint256)": {
        "details": "See {IERC721-getApproved}."
      },
      "getRoleAdmin(bytes32)": {
        "details": "Returns the admin role that controls `role`. See {grantRole} and {revokeRole}. To change a role's admin, use {_setRoleAdmin}."
      },
      "grantRole(bytes32,address)": {
        "details": "Grants `role` to `account`. If `account` had not been already granted `role`, emits a {RoleGranted} event. Requirements: - the caller must have ``role``'s admin role. May emit a {RoleGranted} event."
      },
      "hasRole(bytes32,address)": {
        "details": "Returns `true` if `account` has been granted `role`."
      },
      "isApprovedForAll(address,address)": {
        "details": "See {IERC721-isApprovedForAll}."
      },
      "name()": {
        "details": "See {IERC721Metadata-name}."
      },
      "ownerOf(uint256)": {
        "details": "See {IERC721-ownerOf}."
      },
      "paused()": {
        "details": "Returns true if the contract is paused, and false otherwise."
      },
      "renounceRole(bytes32,address)": {
        "details": "Revokes `role` from the calling account. Roles are often managed via {grantRole} and {revokeRole}: this function's purpose is to provide a mechanism for accounts to lose their privileges if they are compromised (such as when a trusted device is misplaced). If the calling account had been revoked `role`, emits a {RoleRevoked} event. Requirements: - the caller must be `account`. May emit a {RoleRevoked} event."
      },
      "revokeRole(bytes32,address)": {
        "details": "Revokes `role` from `account`. If `account` had been granted `role`, emits a {RoleRevoked} event. Requirements: - the caller must have ``role``'s admin role. May emit a {RoleRevoked} event."
      },
      "safeMint(address,string[],bytes32[],string[],(uint8,uint8,uint8,uint8,uint8)[])": {
        "details": "The caller must have the `MINTER_ROLE`."
      },
      "safeTransferFrom(address,address,uint256)": {
        "details": "See {IERC721-safeTransferFrom}."
      },
      "safeTransferFrom(address,address,uint256,bytes)": {
        "details": "See {IERC721-safeTransferFrom}."
      },
      "setApprovalForAll(address,bool)": {
        "details": "See {IERC721-setApprovalForAll}."
      },
      "setDurabilityPointTimer(uint256)": {
        "details": "The caller must have the `DEFAULT_ADMIN_ROLE`."
      },
      "supportsInterface(bytes4)": {
        "details": "See {IERC165-supportsInterface}.",
        "params": {
          "interfaceId": "Interface ID."
        }
      },
      "symbol()": {
        "details": "See {IERC721Metadata-symbol}."
      },
      "tokenURI(uint256)": {
        "params": {
          "tokenId": "Token ID."
        }
      },
      "transferFrom(address,address,uint256)": {
        "details": "See {IERC721-transferFrom}."
      }
    },
    "title": "Blast Equipment NFT",
    "version": 1
  },
  "userdoc": {
    "events": {
      "AttributeUpdated(uint256,uint256,uint256,uint256,uint256,uint256,uint256)": {
        "notice": "Event Attribute Updated"
      },
      "PermanentURI(string,uint256)": {
        "notice": "Event Revealed TokenURI"
      }
    },
    "kind": "user",
    "methods": {
      "safeMint(address,string[],bytes32[],string[],(uint8,uint8,uint8,uint8,uint8)[])": {
        "notice": "Creates a new token for `to`. Its token ID will be automatically"
      },
      "setDurabilityPointTimer(uint256)": {
        "notice": "Set the DurabilityPoint Timer"
      },
      "tokenURI(uint256)": {
        "notice": "Returns the TokenURI."
      }
    },
    "version": 1
  },
  "storageLayout": {
    "storage": [
      {
        "astId": 1812,
        "contract": "contracts/BlastEquipmentNFT.sol:BlastEquipmentNFT",
        "label": "_name",
        "offset": 0,
        "slot": "0",
        "type": "t_string_storage"
      },
      {
        "astId": 1814,
        "contract": "contracts/BlastEquipmentNFT.sol:BlastEquipmentNFT",
        "label": "_symbol",
        "offset": 0,
        "slot": "1",
        "type": "t_string_storage"
      },
      {
        "astId": 1818,
        "contract": "contracts/BlastEquipmentNFT.sol:BlastEquipmentNFT",
        "label": "_owners",
        "offset": 0,
        "slot": "2",
        "type": "t_mapping(t_uint256,t_address)"
      },
      {
        "astId": 1822,
        "contract": "contracts/BlastEquipmentNFT.sol:BlastEquipmentNFT",
        "label": "_balances",
        "offset": 0,
        "slot": "3",
        "type": "t_mapping(t_address,t_uint256)"
      },
      {
        "astId": 1826,
        "contract": "contracts/BlastEquipmentNFT.sol:BlastEquipmentNFT",
        "label": "_tokenApprovals",
        "offset": 0,
        "slot": "4",
        "type": "t_mapping(t_uint256,t_address)"
      },
      {
        "astId": 1832,
        "contract": "contracts/BlastEquipmentNFT.sol:BlastEquipmentNFT",
        "label": "_operatorApprovals",
        "offset": 0,
        "slot": "5",
        "type": "t_mapping(t_address,t_mapping(t_address,t_bool))"
      },
      {
        "astId": 2830,
        "contract": "contracts/BlastEquipmentNFT.sol:BlastEquipmentNFT",
        "label": "_tokenURIs",
        "offset": 0,
        "slot": "6",
        "type": "t_mapping(t_uint256,t_string_storage)"
      },
      {
        "astId": 569,
        "contract": "contracts/BlastEquipmentNFT.sol:BlastEquipmentNFT",
        "label": "_paused",
        "offset": 0,
        "slot": "7",
        "type": "t_bool"
      },
      {
        "astId": 70,
        "contract": "contracts/BlastEquipmentNFT.sol:BlastEquipmentNFT",
        "label": "_roles",
        "offset": 0,
        "slot": "8",
        "type": "t_mapping(t_bytes32,t_struct(RoleData)65_storage)"
      },
      {
        "astId": 7271,
        "contract": "contracts/BlastEquipmentNFT.sol:BlastEquipmentNFT",
        "label": "_tokenIdCounter",
        "offset": 0,
        "slot": "9",
        "type": "t_struct(Counter)3319_storage"
      },
      {
        "astId": 7274,
        "contract": "contracts/BlastEquipmentNFT.sol:BlastEquipmentNFT",
        "label": "durabilityPointTimer",
        "offset": 0,
        "slot": "10",
        "type": "t_uint256"
      },
      {
        "astId": 7278,
        "contract": "contracts/BlastEquipmentNFT.sol:BlastEquipmentNFT",
        "label": "hashValue",
        "offset": 0,
        "slot": "11",
        "type": "t_mapping(t_uint256,t_bytes32)"
      },
      {
        "astId": 7283,
        "contract": "contracts/BlastEquipmentNFT.sol:BlastEquipmentNFT",
        "label": "attributes",
        "offset": 0,
        "slot": "12",
        "type": "t_mapping(t_uint256,t_struct(VariableAttributes)7248_storage)"
      },
      {
        "astId": 7288,
        "contract": "contracts/BlastEquipmentNFT.sol:BlastEquipmentNFT",
        "label": "staticAttributes",
        "offset": 0,
        "slot": "13",
        "type": "t_mapping(t_uint256,t_struct(StaticAttributes)12963_storage)"
      },
      {
        "astId": 7292,
        "contract": "contracts/BlastEquipmentNFT.sol:BlastEquipmentNFT",
        "label": "realTokenURI",
        "offset": 0,
        "slot": "14",
        "type": "t_mapping(t_uint256,t_string_storage)"
      }
    ],
    "types": {
      "t_address": {
        "encoding": "inplace",
        "label": "address",
        "numberOfBytes": "20"
      },
      "t_bool": {
        "encoding": "inplace",
        "label": "bool",
        "numberOfBytes": "1"
      },
      "t_bytes32": {
        "encoding": "inplace",
        "label": "bytes32",
        "numberOfBytes": "32"
      },
      "t_mapping(t_address,t_bool)": {
        "encoding": "mapping",
        "key": "t_address",
        "label": "mapping(address => bool)",
        "numberOfBytes": "32",
        "value": "t_bool"
      },
      "t_mapping(t_address,t_mapping(t_address,t_bool))": {
        "encoding": "mapping",
        "key": "t_address",
        "label": "mapping(address => mapping(address => bool))",
        "numberOfBytes": "32",
        "value": "t_mapping(t_address,t_bool)"
      },
      "t_mapping(t_address,t_uint256)": {
        "encoding": "mapping",
        "key": "t_address",
        "label": "mapping(address => uint256)",
        "numberOfBytes": "32",
        "value": "t_uint256"
      },
      "t_mapping(t_bytes32,t_struct(RoleData)65_storage)": {
        "encoding": "mapping",
        "key": "t_bytes32",
        "label": "mapping(bytes32 => struct AccessControl.RoleData)",
        "numberOfBytes": "32",
        "value": "t_struct(RoleData)65_storage"
      },
      "t_mapping(t_uint256,t_address)": {
        "encoding": "mapping",
        "key": "t_uint256",
        "label": "mapping(uint256 => address)",
        "numberOfBytes": "32",
        "value": "t_address"
      },
      "t_mapping(t_uint256,t_bytes32)": {
        "encoding": "mapping",
        "key": "t_uint256",
        "label": "mapping(uint256 => bytes32)",
        "numberOfBytes": "32",
        "value": "t_bytes32"
      },
      "t_mapping(t_uint256,t_string_storage)": {
        "encoding": "mapping",
        "key": "t_uint256",
        "label": "mapping(uint256 => string)",
        "numberOfBytes": "32",
        "value": "t_string_storage"
      },
      "t_mapping(t_uint256,t_struct(StaticAttributes)12963_storage)": {
        "encoding": "mapping",
        "key": "t_uint256",
        "label": "mapping(uint256 => struct StaticAttributes)",
        "numberOfBytes": "32",
        "value": "t_struct(StaticAttributes)12963_storage"
      },
      "t_mapping(t_uint256,t_struct(VariableAttributes)7248_storage)": {
        "encoding": "mapping",
        "key": "t_uint256",
        "label": "mapping(uint256 => struct BlastEquipmentNFT.VariableAttributes)",
        "numberOfBytes": "32",
        "value": "t_struct(VariableAttributes)7248_storage"
      },
      "t_string_storage": {
        "encoding": "bytes",
        "label": "string",
        "numberOfBytes": "32"
      },
      "t_struct(Counter)3319_storage": {
        "encoding": "inplace",
        "label": "struct Counters.Counter",
        "members": [
          {
            "astId": 3318,
            "contract": "contracts/BlastEquipmentNFT.sol:BlastEquipmentNFT",
            "label": "_value",
            "offset": 0,
            "slot": "0",
            "type": "t_uint256"
          }
        ],
        "numberOfBytes": "32"
      },
      "t_struct(RoleData)65_storage": {
        "encoding": "inplace",
        "label": "struct AccessControl.RoleData",
        "members": [
          {
            "astId": 62,
            "contract": "contracts/BlastEquipmentNFT.sol:BlastEquipmentNFT",
            "label": "members",
            "offset": 0,
            "slot": "0",
            "type": "t_mapping(t_address,t_bool)"
          },
          {
            "astId": 64,
            "contract": "contracts/BlastEquipmentNFT.sol:BlastEquipmentNFT",
            "label": "adminRole",
            "offset": 0,
            "slot": "1",
            "type": "t_bytes32"
          }
        ],
        "numberOfBytes": "64"
      },
      "t_struct(StaticAttributes)12963_storage": {
        "encoding": "inplace",
        "label": "struct StaticAttributes",
        "members": [
          {
            "astId": 12954,
            "contract": "contracts/BlastEquipmentNFT.sol:BlastEquipmentNFT",
            "label": "maxLevel",
            "offset": 0,
            "slot": "0",
            "type": "t_uint8"
          },
          {
            "astId": 12956,
            "contract": "contracts/BlastEquipmentNFT.sol:BlastEquipmentNFT",
            "label": "maxDurability",
            "offset": 1,
            "slot": "0",
            "type": "t_uint8"
          },
          {
            "astId": 12958,
            "contract": "contracts/BlastEquipmentNFT.sol:BlastEquipmentNFT",
            "label": "adjective",
            "offset": 2,
            "slot": "0",
            "type": "t_uint8"
          },
          {
            "astId": 12960,
            "contract": "contracts/BlastEquipmentNFT.sol:BlastEquipmentNFT",
            "label": "rarity",
            "offset": 3,
            "slot": "0",
            "type": "t_uint8"
          },
          {
            "astId": 12962,
            "contract": "contracts/BlastEquipmentNFT.sol:BlastEquipmentNFT",
            "label": "grade",
            "offset": 4,
            "slot": "0",
            "type": "t_uint8"
          }
        ],
        "numberOfBytes": "32"
      },
      "t_struct(VariableAttributes)7248_storage": {
        "encoding": "inplace",
        "label": "struct BlastEquipmentNFT.VariableAttributes",
        "members": [
          {
            "astId": 7237,
            "contract": "contracts/BlastEquipmentNFT.sol:BlastEquipmentNFT",
            "label": "level",
            "offset": 0,
            "slot": "0",
            "type": "t_uint256"
          },
          {
            "astId": 7239,
            "contract": "contracts/BlastEquipmentNFT.sol:BlastEquipmentNFT",
            "label": "durabilityRestored",
            "offset": 0,
            "slot": "1",
            "type": "t_uint256"
          },
          {
            "astId": 7241,
            "contract": "contracts/BlastEquipmentNFT.sol:BlastEquipmentNFT",
            "label": "durability",
            "offset": 0,
            "slot": "2",
            "type": "t_uint256"
          },
          {
            "astId": 7243,
            "contract": "contracts/BlastEquipmentNFT.sol:BlastEquipmentNFT",
            "label": "lastRepairTime",
            "offset": 0,
            "slot": "3",
            "type": "t_uint256"
          },
          {
            "astId": 7245,
            "contract": "contracts/BlastEquipmentNFT.sol:BlastEquipmentNFT",
            "label": "repairCount",
            "offset": 0,
            "slot": "4",
            "type": "t_uint256"
          },
          {
            "astId": 7247,
            "contract": "contracts/BlastEquipmentNFT.sol:BlastEquipmentNFT",
            "label": "replicationCount",
            "offset": 0,
            "slot": "5",
            "type": "t_uint256"
          }
        ],
        "numberOfBytes": "192"
      },
      "t_uint256": {
        "encoding": "inplace",
        "label": "uint256",
        "numberOfBytes": "32"
      },
      "t_uint8": {
        "encoding": "inplace",
        "label": "uint8",
        "numberOfBytes": "1"
      }
    }
  }
}