{
  "address": "0x8b6Cf8800759ED7F3673a0526a62c9e36f99B70c",
  "abi": [
    {
      "inputs": [
        {
          "internalType": "string",
          "name": "name",
          "type": "string"
        },
        {
          "internalType": "string",
          "name": "symbol",
          "type": "string"
        },
        {
          "internalType": "contract IBlastEquipmentNFT",
          "name": "_blastEquipmentNFT",
          "type": "address"
        }
      ],
      "stateMutability": "nonpayable",
      "type": "constructor"
    },
    {
      "inputs": [],
      "name": "InvalidParams",
      "type": "error"
    },
    {
      "inputs": [],
      "name": "NoZeroAddress",
      "type": "error"
    },
    {
      "inputs": [],
      "name": "NonExistToken",
      "type": "error"
    },
    {
      "inputs": [],
      "name": "NotAvailableToOpen",
      "type": "error"
    },
    {
      "inputs": [],
      "name": "NotOwner",
      "type": "error"
    },
    {
      "anonymous": false,
      "inputs": [
        {
          "indexed": true,
          "internalType": "address",
          "name": "owner",
          "type": "address"
        },
        {
          "indexed": true,
          "internalType": "address",
          "name": "approved",
          "type": "address"
        },
        {
          "indexed": true,
          "internalType": "uint256",
          "name": "tokenId",
          "type": "uint256"
        }
      ],
      "name": "Approval",
      "type": "event"
    },
    {
      "anonymous": false,
      "inputs": [
        {
          "indexed": true,
          "internalType": "address",
          "name": "owner",
          "type": "address"
        },
        {
          "indexed": true,
          "internalType": "address",
          "name": "operator",
          "type": "address"
        },
        {
          "indexed": false,
          "internalType": "bool",
          "name": "approved",
          "type": "bool"
        }
      ],
      "name": "ApprovalForAll",
      "type": "event"
    },
    {
      "anonymous": false,
      "inputs": [
        {
          "indexed": false,
          "internalType": "uint256",
          "name": "lootboxId",
          "type": "uint256"
        },
        {
          "indexed": false,
          "internalType": "uint256",
          "name": "token0",
          "type": "uint256"
        },
        {
          "indexed": false,
          "internalType": "uint256",
          "name": "token1",
          "type": "uint256"
        },
        {
          "indexed": false,
          "internalType": "uint256",
          "name": "token2",
          "type": "uint256"
        }
      ],
      "name": "Open",
      "type": "event"
    },
    {
      "anonymous": false,
      "inputs": [
        {
          "indexed": true,
          "internalType": "bytes32",
          "name": "role",
          "type": "bytes32"
        },
        {
          "indexed": true,
          "internalType": "bytes32",
          "name": "previousAdminRole",
          "type": "bytes32"
        },
        {
          "indexed": true,
          "internalType": "bytes32",
          "name": "newAdminRole",
          "type": "bytes32"
        }
      ],
      "name": "RoleAdminChanged",
      "type": "event"
    },
    {
      "anonymous": false,
      "inputs": [
        {
          "indexed": true,
          "internalType": "bytes32",
          "name": "role",
          "type": "bytes32"
        },
        {
          "indexed": true,
          "internalType": "address",
          "name": "account",
          "type": "address"
        },
        {
          "indexed": true,
          "internalType": "address",
          "name": "sender",
          "type": "address"
        }
      ],
      "name": "RoleGranted",
      "type": "event"
    },
    {
      "anonymous": false,
      "inputs": [
        {
          "indexed": true,
          "internalType": "bytes32",
          "name": "role",
          "type": "bytes32"
        },
        {
          "indexed": true,
          "internalType": "address",
          "name": "account",
          "type": "address"
        },
        {
          "indexed": true,
          "internalType": "address",
          "name": "sender",
          "type": "address"
        }
      ],
      "name": "RoleRevoked",
      "type": "event"
    },
    {
      "anonymous": false,
      "inputs": [
        {
          "indexed": true,
          "internalType": "address",
          "name": "from",
          "type": "address"
        },
        {
          "indexed": true,
          "internalType": "address",
          "name": "to",
          "type": "address"
        },
        {
          "indexed": true,
          "internalType": "uint256",
          "name": "tokenId",
          "type": "uint256"
        }
      ],
      "name": "Transfer",
      "type": "event"
    },
    {
      "inputs": [],
      "name": "DEFAULT_ADMIN_ROLE",
      "outputs": [
        {
          "internalType": "bytes32",
          "name": "",
          "type": "bytes32"
        }
      ],
      "stateMutability": "view",
      "type": "function"
    },
    {
      "inputs": [],
      "name": "GAME_ROLE",
      "outputs": [
        {
          "internalType": "bytes32",
          "name": "",
          "type": "bytes32"
        }
      ],
      "stateMutability": "view",
      "type": "function"
    },
    {
      "inputs": [],
      "name": "_tokenIdCounter",
      "outputs": [
        {
          "internalType": "uint256",
          "name": "_value",
          "type": "uint256"
        }
      ],
      "stateMutability": "view",
      "type": "function"
    },
    {
      "inputs": [
        {
          "internalType": "address",
          "name": "to",
          "type": "address"
        },
        {
          "internalType": "uint256",
          "name": "tokenId",
          "type": "uint256"
        }
      ],
      "name": "approve",
      "outputs": [],
      "stateMutability": "nonpayable",
      "type": "function"
    },
    {
      "inputs": [
        {
          "internalType": "address",
          "name": "owner",
          "type": "address"
        }
      ],
      "name": "balanceOf",
      "outputs": [
        {
          "internalType": "uint256",
          "name": "",
          "type": "uint256"
        }
      ],
      "stateMutability": "view",
      "type": "function"
    },
    {
      "inputs": [],
      "name": "blastEquipmentNFT",
      "outputs": [
        {
          "internalType": "contract IBlastEquipmentNFT",
          "name": "",
          "type": "address"
        }
      ],
      "stateMutability": "view",
      "type": "function"
    },
    {
      "inputs": [
        {
          "internalType": "uint256",
          "name": "tokenId",
          "type": "uint256"
        }
      ],
      "name": "getApproved",
      "outputs": [
        {
          "internalType": "address",
          "name": "",
          "type": "address"
        }
      ],
      "stateMutability": "view",
      "type": "function"
    },
    {
      "inputs": [
        {
          "internalType": "bytes32",
          "name": "role",
          "type": "bytes32"
        }
      ],
      "name": "getRoleAdmin",
      "outputs": [
        {
          "internalType": "bytes32",
          "name": "",
          "type": "bytes32"
        }
      ],
      "stateMutability": "view",
      "type": "function"
    },
    {
      "inputs": [
        {
          "internalType": "uint256",
          "name": "_tokenId",
          "type": "uint256"
        }
      ],
      "name": "getTokenType",
      "outputs": [
        {
          "internalType": "uint8",
          "name": "",
          "type": "uint8"
        }
      ],
      "stateMutability": "view",
      "type": "function"
    },
    {
      "inputs": [
        {
          "internalType": "bytes32",
          "name": "role",
          "type": "bytes32"
        },
        {
          "internalType": "address",
          "name": "account",
          "type": "address"
        }
      ],
      "name": "grantRole",
      "outputs": [],
      "stateMutability": "nonpayable",
      "type": "function"
    },
    {
      "inputs": [
        {
          "internalType": "bytes32",
          "name": "role",
          "type": "bytes32"
        },
        {
          "internalType": "address",
          "name": "account",
          "type": "address"
        }
      ],
      "name": "hasRole",
      "outputs": [
        {
          "internalType": "bool",
          "name": "",
          "type": "bool"
        }
      ],
      "stateMutability": "view",
      "type": "function"
    },
    {
      "inputs": [
        {
          "internalType": "address",
          "name": "owner",
          "type": "address"
        },
        {
          "internalType": "address",
          "name": "operator",
          "type": "address"
        }
      ],
      "name": "isApprovedForAll",
      "outputs": [
        {
          "internalType": "bool",
          "name": "",
          "type": "bool"
        }
      ],
      "stateMutability": "view",
      "type": "function"
    },
    {
      "inputs": [],
      "name": "name",
      "outputs": [
        {
          "internalType": "string",
          "name": "",
          "type": "string"
        }
      ],
      "stateMutability": "view",
      "type": "function"
    },
    {
      "inputs": [
        {
          "internalType": "address",
          "name": "",
          "type": "address"
        },
        {
          "internalType": "address",
          "name": "",
          "type": "address"
        },
        {
          "internalType": "uint256",
          "name": "",
          "type": "uint256"
        },
        {
          "internalType": "bytes",
          "name": "",
          "type": "bytes"
        }
      ],
      "name": "onERC721Received",
      "outputs": [
        {
          "internalType": "bytes4",
          "name": "",
          "type": "bytes4"
        }
      ],
      "stateMutability": "nonpayable",
      "type": "function"
    },
    {
      "inputs": [
        {
          "internalType": "uint256",
          "name": "_tokenId",
          "type": "uint256"
        }
      ],
      "name": "open",
      "outputs": [],
      "stateMutability": "nonpayable",
      "type": "function"
    },
    {
      "inputs": [],
      "name": "openAvailable",
      "outputs": [
        {
          "internalType": "bool",
          "name": "",
          "type": "bool"
        }
      ],
      "stateMutability": "view",
      "type": "function"
    },
    {
      "inputs": [
        {
          "internalType": "uint256",
          "name": "_tokenId",
          "type": "uint256"
        },
        {
          "internalType": "address",
          "name": "_to",
          "type": "address"
        }
      ],
      "name": "openTo",
      "outputs": [],
      "stateMutability": "nonpayable",
      "type": "function"
    },
    {
      "inputs": [
        {
          "internalType": "uint256",
          "name": "tokenId",
          "type": "uint256"
        }
      ],
      "name": "ownerOf",
      "outputs": [
        {
          "internalType": "address",
          "name": "",
          "type": "address"
        }
      ],
      "stateMutability": "view",
      "type": "function"
    },
    {
      "inputs": [
        {
          "internalType": "bytes32",
          "name": "role",
          "type": "bytes32"
        },
        {
          "internalType": "address",
          "name": "account",
          "type": "address"
        }
      ],
      "name": "renounceRole",
      "outputs": [],
      "stateMutability": "nonpayable",
      "type": "function"
    },
    {
      "inputs": [
        {
          "internalType": "bytes32",
          "name": "role",
          "type": "bytes32"
        },
        {
          "internalType": "address",
          "name": "account",
          "type": "address"
        }
      ],
      "name": "revokeRole",
      "outputs": [],
      "stateMutability": "nonpayable",
      "type": "function"
    },
    {
      "inputs": [
        {
          "internalType": "address[]",
          "name": "_to",
          "type": "address[]"
        },
        {
          "internalType": "string[]",
          "name": "_uri",
          "type": "string[]"
        },
        {
          "components": [
            {
              "internalType": "uint256",
              "name": "token0",
              "type": "uint256"
            },
            {
              "internalType": "uint256",
              "name": "token1",
              "type": "uint256"
            },
            {
              "internalType": "uint256",
              "name": "token2",
              "type": "uint256"
            }
          ],
          "internalType": "struct BlastLootBox.LootBox[]",
          "name": "_eqtIds",
          "type": "tuple[]"
        },
        {
          "internalType": "uint8",
          "name": "_tokenType",
          "type": "uint8"
        }
      ],
      "name": "safeMint",
      "outputs": [],
      "stateMutability": "nonpayable",
      "type": "function"
    },
    {
      "inputs": [
        {
          "internalType": "address",
          "name": "from",
          "type": "address"
        },
        {
          "internalType": "address",
          "name": "to",
          "type": "address"
        },
        {
          "internalType": "uint256",
          "name": "tokenId",
          "type": "uint256"
        }
      ],
      "name": "safeTransferFrom",
      "outputs": [],
      "stateMutability": "nonpayable",
      "type": "function"
    },
    {
      "inputs": [
        {
          "internalType": "address",
          "name": "from",
          "type": "address"
        },
        {
          "internalType": "address",
          "name": "to",
          "type": "address"
        },
        {
          "internalType": "uint256",
          "name": "tokenId",
          "type": "uint256"
        },
        {
          "internalType": "bytes",
          "name": "data",
          "type": "bytes"
        }
      ],
      "name": "safeTransferFrom",
      "outputs": [],
      "stateMutability": "nonpayable",
      "type": "function"
    },
    {
      "inputs": [
        {
          "internalType": "address",
          "name": "operator",
          "type": "address"
        },
        {
          "internalType": "bool",
          "name": "approved",
          "type": "bool"
        }
      ],
      "name": "setApprovalForAll",
      "outputs": [],
      "stateMutability": "nonpayable",
      "type": "function"
    },
    {
      "inputs": [
        {
          "internalType": "bool",
          "name": "_status",
          "type": "bool"
        }
      ],
      "name": "setOpenAvailableStatus",
      "outputs": [],
      "stateMutability": "nonpayable",
      "type": "function"
    },
    {
      "inputs": [
        {
          "internalType": "bytes4",
          "name": "interfaceId",
          "type": "bytes4"
        }
      ],
      "name": "supportsInterface",
      "outputs": [
        {
          "internalType": "bool",
          "name": "",
          "type": "bool"
        }
      ],
      "stateMutability": "view",
      "type": "function"
    },
    {
      "inputs": [],
      "name": "symbol",
      "outputs": [
        {
          "internalType": "string",
          "name": "",
          "type": "string"
        }
      ],
      "stateMutability": "view",
      "type": "function"
    },
    {
      "inputs": [
        {
          "internalType": "uint256",
          "name": "tokenId",
          "type": "uint256"
        }
      ],
      "name": "tokenURI",
      "outputs": [
        {
          "internalType": "string",
          "name": "",
          "type": "string"
        }
      ],
      "stateMutability": "view",
      "type": "function"
    },
    {
      "inputs": [
        {
          "internalType": "address",
          "name": "from",
          "type": "address"
        },
        {
          "internalType": "address",
          "name": "to",
          "type": "address"
        },
        {
          "internalType": "uint256",
          "name": "tokenId",
          "type": "uint256"
        }
      ],
      "name": "transferFrom",
      "outputs": [],
      "stateMutability": "nonpayable",
      "type": "function"
    }
  ],
  "transactionHash": "0xc313bd34fc09aaa7998e1d2ef7af6e5c267bb955ff9ab113bff84050d3723132",
  "args": [
    "Test Blast Lootbox",
    "TestBLX",
    "0xB29eeD62630b9031699fd7d80479ADf1FDf89E2a"
  ],
  "numDeployments": 1,
  "solcInputHash": "b7caf7116d2ec06d392c187715787bdb",
  "bytecode": "0x60806040523480156200001157600080fd5b506040516200293b3803806200293b833981016040819052620000349162000317565b8251839083906200004d906000906020850190620001a4565b50805162000063906001906020840190620001a4565b5050506001600160a01b0381166200008e5760405163ddbadd5f60e01b815260040160405180910390fd5b6200009b600033620000f0565b620000c77f6a64baf327d646d1bca72653e2a075d15fd6ac6d8cbd7f6ee03fc55875e0fa8833620000f0565b600b80546001600160a01b0319166001600160a01b039290921691909117905550620003e19050565b620000fc828262000100565b5050565b60008281526007602090815260408083206001600160a01b038516845290915290205460ff16620000fc5760008281526007602090815260408083206001600160a01b03851684529091529020805460ff19166001179055620001603390565b6001600160a01b0316816001600160a01b0316837f2f8788117e7eff1d82e926ec794901d17c78024a50270940304540a733656f0d60405160405180910390a45050565b828054620001b290620003a4565b90600052602060002090601f016020900481019282620001d6576000855562000221565b82601f10620001f157805160ff191683800117855562000221565b8280016001018555821562000221579182015b828111156200022157825182559160200191906001019062000204565b506200022f92915062000233565b5090565b5b808211156200022f576000815560010162000234565b634e487b7160e01b600052604160045260246000fd5b600082601f8301126200027257600080fd5b81516001600160401b03808211156200028f576200028f6200024a565b604051601f8301601f19908116603f01168101908282118183101715620002ba57620002ba6200024a565b81604052838152602092508683858801011115620002d757600080fd5b600091505b83821015620002fb5785820183015181830184015290820190620002dc565b838211156200030d5760008385830101525b9695505050505050565b6000806000606084860312156200032d57600080fd5b83516001600160401b03808211156200034557600080fd5b620003538783880162000260565b945060208601519150808211156200036a57600080fd5b50620003798682870162000260565b604086015190935090506001600160a01b03811681146200039957600080fd5b809150509250925092565b600181811c90821680620003b957607f821691505b60208210811415620003db57634e487b7160e01b600052602260045260246000fd5b50919050565b61254a80620003f16000396000f3fe608060405234801561001057600080fd5b50600436106101cf5760003560e01c806372c6239a11610104578063a217fddf116100a2578063c15b712c11610071578063c15b712c1461042f578063c87b56dd14610442578063d547741f14610455578063e985e9c51461046857600080fd5b8063a217fddf146103da578063a22cb465146103e2578063ab400706146103f5578063b88d4fde1461041c57600080fd5b806384c4bd4b116100de57806384c4bd4b146103a25780638d2a703e146103ac57806391d14854146103bf57806395d89b41146103d257600080fd5b806372c6239a1461034757806376aed2e11461035a5780637edee2b31461038f57600080fd5b80632f2ff15d1161017157806342842e0e1161014b57806342842e0e146102fb5780636352211e1461030e578063690e7c091461032157806370a082311461033457600080fd5b80632f2ff15d146102c157806336568abe146102d45780633bfca2f9146102e757600080fd5b8063095ea7b3116101ad578063095ea7b31461023c578063150b7a021461025157806323b872dd1461027d578063248a9ca31461029057600080fd5b806301ffc9a7146101d457806306fdde03146101fc578063081812fc14610211575b600080fd5b6101e76101e2366004611df7565b6104a4565b60405190151581526020015b60405180910390f35b6102046104b5565b6040516101f39190611e6c565b61022461021f366004611e7f565b610547565b6040516001600160a01b0390911681526020016101f3565b61024f61024a366004611eb4565b61056e565b005b61026461025f366004611ef4565b610689565b6040516001600160e01b031990911681526020016101f3565b61024f61028b366004611fd0565b61069a565b6102b361029e366004611e7f565b60009081526007602052604090206001015490565b6040519081526020016101f3565b61024f6102cf36600461200c565b6106cb565b61024f6102e236600461200c565b6106f0565b600b546101e790600160a01b900460ff1681565b61024f610309366004611fd0565b61076e565b61022461031c366004611e7f565b610789565b61024f61032f366004611e7f565b6107e9565b6102b3610342366004612038565b61088f565b600b54610224906001600160a01b031681565b61037d610368366004611e7f565b6000908152600a602052604090205460ff1690565b60405160ff90911681526020016101f3565b61024f61039d3660046120b0565b610915565b6008546102b39081565b61024f6103ba36600461200c565b610aba565b6101e76103cd36600461200c565b610b87565b610204610bb2565b6102b3600081565b61024f6103f036600461219b565b610bc1565b6102b37f6a64baf327d646d1bca72653e2a075d15fd6ac6d8cbd7f6ee03fc55875e0fa8881565b61024f61042a366004611ef4565b610bcc565b61024f61043d3660046121c5565b610c04565b610204610450366004611e7f565b610c2e565b61024f61046336600461200c565b610c39565b6101e76104763660046121e0565b6001600160a01b03918216600090815260056020908152604080832093909416825291909152205460ff1690565b60006104af82610c5e565b92915050565b6060600080546104c49061220a565b80601f01602080910402602001604051908101604052809291908181526020018280546104f09061220a565b801561053d5780601f106105125761010080835404028352916020019161053d565b820191906000526020600020905b81548152906001019060200180831161052057829003601f168201915b5050505050905090565b600061055282610c83565b506000908152600460205260409020546001600160a01b031690565b600061057982610789565b9050806001600160a01b0316836001600160a01b031614156105ec5760405162461bcd60e51b815260206004820152602160248201527f4552433732313a20617070726f76616c20746f2063757272656e74206f776e656044820152603960f91b60648201526084015b60405180910390fd5b336001600160a01b038216148061060857506106088133610476565b61067a5760405162461bcd60e51b815260206004820152603e60248201527f4552433732313a20617070726f76652063616c6c6572206973206e6f7420746f60448201527f6b656e206f776e6572206e6f7220617070726f76656420666f7220616c6c000060648201526084016105e3565b6106848383610ce2565b505050565b630a85bd0160e11b5b949350505050565b6106a43382610d50565b6106c05760405162461bcd60e51b81526004016105e390612245565b610684838383610dce565b6000828152600760205260409020600101546106e681610f6a565b6106848383610f74565b6001600160a01b03811633146107605760405162461bcd60e51b815260206004820152602f60248201527f416363657373436f6e74726f6c3a2063616e206f6e6c792072656e6f756e636560448201526e103937b632b9903337b91039b2b63360891b60648201526084016105e3565b61076a8282610ffa565b5050565b61068483838360405180602001604052806000815250610bcc565b6000818152600260205260408120546001600160a01b0316806104af5760405162461bcd60e51b8152602060048201526018602482015277115490cdcc8c4e881a5b9d985b1a59081d1bdad95b88125160421b60448201526064016105e3565b6000818152600260205260409020546001600160a01b031661081e57604051634af5033360e01b815260040160405180910390fd5b61082781610789565b6001600160a01b0316336001600160a01b031614610858576040516330cd747160e01b815260040160405180910390fd5b600b54600160a01b900460ff1661088257604051633abe791960e01b815260040160405180910390fd5b61088c8133611061565b50565b60006001600160a01b0382166108f95760405162461bcd60e51b815260206004820152602960248201527f4552433732313a2061646472657373207a65726f206973206e6f7420612076616044820152683634b21037bbb732b960b91b60648201526084016105e3565b506001600160a01b031660009081526003602052604090205490565b600061092081610f6a565b868514158061092f5750868314155b1561094d57604051635435b28960e11b815260040160405180910390fd5b8160ff1660011415801561096557508160ff16600214155b1561098357604051635435b28960e11b815260040160405180910390fd5b60005b87811015610aaf57600061099960085490565b90506109a9600880546001019055565b8585838181106109bb576109bb612293565b600084815260096020908152604091829020606090930294909401803583559384013560018301558301356002820155905050506000818152600a60205260409020805460ff191660ff8616179055610a3a8a8a84818110610a1f57610a1f612293565b9050602002016020810190610a349190612038565b8261137b565b610a9c81898985818110610a5057610a50612293565b9050602002810190610a6291906122a9565b8080601f0160208091040260200160405190810160405280939291908181526020018383808284376000920191909152506114bd92505050565b5080610aa781612306565b915050610986565b505050505050505050565b7f6a64baf327d646d1bca72653e2a075d15fd6ac6d8cbd7f6ee03fc55875e0fa88610ae481610f6a565b6000838152600260205260409020546001600160a01b0316610b1957604051634af5033360e01b815260040160405180910390fd5b610b2283610789565b6001600160a01b0316826001600160a01b031614610b53576040516330cd747160e01b815260040160405180910390fd5b600b54600160a01b900460ff16610b7d57604051633abe791960e01b815260040160405180910390fd5b6106848383611061565b60009182526007602090815260408084206001600160a01b0393909316845291905290205460ff1690565b6060600180546104c49061220a565b61076a338383611557565b610bd63383610d50565b610bf25760405162461bcd60e51b81526004016105e390612245565b610bfe84848484611626565b50505050565b6000610c0f81610f6a565b50600b8054911515600160a01b0260ff60a01b19909216919091179055565b60606104af82611659565b600082815260076020526040902060010154610c5481610f6a565b6106848383610ffa565b60006001600160e01b03198216637965db0b60e01b14806104af57506104af82611762565b6000818152600260205260409020546001600160a01b031661088c5760405162461bcd60e51b8152602060048201526018602482015277115490cdcc8c4e881a5b9d985b1a59081d1bdad95b88125160421b60448201526064016105e3565b600081815260046020526040902080546001600160a01b0319166001600160a01b0384169081179091558190610d1782610789565b6001600160a01b03167f8c5be1e5ebec7d5bd14f71427d1e84f3dd0314c0f7b2291e5b200ac8c7c3b92560405160405180910390a45050565b600080610d5c83610789565b9050806001600160a01b0316846001600160a01b03161480610da357506001600160a01b0380821660009081526005602090815260408083209388168352929052205460ff165b806106925750836001600160a01b0316610dbc84610547565b6001600160a01b031614949350505050565b826001600160a01b0316610de182610789565b6001600160a01b031614610e455760405162461bcd60e51b815260206004820152602560248201527f4552433732313a207472616e736665722066726f6d20696e636f72726563742060448201526437bbb732b960d91b60648201526084016105e3565b6001600160a01b038216610ea75760405162461bcd60e51b8152602060048201526024808201527f4552433732313a207472616e7366657220746f20746865207a65726f206164646044820152637265737360e01b60648201526084016105e3565b610eb2600082610ce2565b6001600160a01b0383166000908152600360205260408120805460019290610edb908490612321565b90915550506001600160a01b0382166000908152600360205260408120805460019290610f09908490612338565b909155505060008181526002602052604080822080546001600160a01b0319166001600160a01b0386811691821790925591518493918716917fddf252ad1be2c89b69c2b068fc378daa952ba7f163c4a11628f55a4df523b3ef91a4505050565b61088c81336117b2565b610f7e8282610b87565b61076a5760008281526007602090815260408083206001600160a01b03851684529091529020805460ff19166001179055610fb63390565b6001600160a01b0316816001600160a01b0316837f2f8788117e7eff1d82e926ec794901d17c78024a50270940304540a733656f0d60405160405180910390a45050565b6110048282610b87565b1561076a5760008281526007602090815260408083206001600160a01b0385168085529252808320805460ff1916905551339285917ff6391f5c32d9c69d2a47ea670b442974b53935d1edc7fd64eb21e047a839171b9190a45050565b6000828152600960209081526040918290208251606081018452815480825260018301549382019390935260029091015481840152600b5492516323b872dd60e01b81523060048201526001600160a01b0385811660248301526044820193909352909291909116906323b872dd90606401600060405180830381600087803b1580156110ed57600080fd5b505af1158015611101573d6000803e3d6000fd5b5050600b5460208401516040516323b872dd60e01b81523060048201526001600160a01b0387811660248301526044820192909252911692506323b872dd9150606401600060405180830381600087803b15801561115e57600080fd5b505af1158015611172573d6000803e3d6000fd5b5050600b5460408481015190516323b872dd60e01b81523060048201526001600160a01b0387811660248301526044820192909252911692506323b872dd9150606401600060405180830381600087803b1580156111cf57600080fd5b505af11580156111e3573d6000803e3d6000fd5b5050600b54835160405163058169e360e51b81526001600160a01b03909216935063b02d3c60925061121b9160040190815260200190565b600060405180830381600087803b15801561123557600080fd5b505af1158015611249573d6000803e3d6000fd5b5050600b54602084015160405163058169e360e51b81526001600160a01b03909216935063b02d3c6092506112849160040190815260200190565b600060405180830381600087803b15801561129e57600080fd5b505af11580156112b2573d6000803e3d6000fd5b5050600b54604080850151905163058169e360e51b81526001600160a01b03909216935063b02d3c6092506112ed9160040190815260200190565b600060405180830381600087803b15801561130757600080fd5b505af115801561131b573d6000803e3d6000fd5b5050825160208085015160408087015181518a81529384019490945282015260608101919091527f02fb9daf56c977530f60990eb8cd0510bc01218fd6376151dd4e91b660e579219250608001905060405180910390a161068483611816565b6001600160a01b0382166113d15760405162461bcd60e51b815260206004820181905260248201527f4552433732313a206d696e7420746f20746865207a65726f206164647265737360448201526064016105e3565b6000818152600260205260409020546001600160a01b0316156114365760405162461bcd60e51b815260206004820152601c60248201527f4552433732313a20746f6b656e20616c7265616479206d696e7465640000000060448201526064016105e3565b6001600160a01b038216600090815260036020526040812080546001929061145f908490612338565b909155505060008181526002602052604080822080546001600160a01b0319166001600160a01b03861690811790915590518392907fddf252ad1be2c89b69c2b068fc378daa952ba7f163c4a11628f55a4df523b3ef908290a45050565b6000828152600260205260409020546001600160a01b03166115385760405162461bcd60e51b815260206004820152602e60248201527f45524337323155524953746f726167653a2055524920736574206f66206e6f6e60448201526d32bc34b9ba32b73a103a37b5b2b760911b60648201526084016105e3565b6000828152600660209081526040909120825161068492840190611d12565b816001600160a01b0316836001600160a01b031614156115b95760405162461bcd60e51b815260206004820152601960248201527f4552433732313a20617070726f766520746f2063616c6c65720000000000000060448201526064016105e3565b6001600160a01b03838116600081815260056020908152604080832094871680845294825291829020805460ff191686151590811790915591519182527f17307eab39ab6107e8899845ad3d59bd9653f200f220920489ca2b5937696c31910160405180910390a3505050565b611631848484610dce565b61163d8484848461181f565b610bfe5760405162461bcd60e51b81526004016105e390612350565b606061166482610c83565b6000828152600660205260408120805461167d9061220a565b80601f01602080910402602001604051908101604052809291908181526020018280546116a99061220a565b80156116f65780601f106116cb576101008083540402835291602001916116f6565b820191906000526020600020905b8154815290600101906020018083116116d957829003601f168201915b50505050509050600061171460408051602081019091526000815290565b9050805160001415611727575092915050565b8151156117595780826040516020016117419291906123a2565b60405160208183030381529060405292505050919050565b61069284611929565b60006001600160e01b031982166380ac58cd60e01b148061179357506001600160e01b03198216635b5e139f60e01b145b806104af57506301ffc9a760e01b6001600160e01b03198316146104af565b6117bc8282610b87565b61076a576117d4816001600160a01b0316601461199d565b6117df83602061199d565b6040516020016117f09291906123d1565b60408051601f198184030181529082905262461bcd60e51b82526105e391600401611e6c565b61088c81611b39565b60006001600160a01b0384163b1561192157604051630a85bd0160e11b81526001600160a01b0385169063150b7a0290611863903390899088908890600401612446565b602060405180830381600087803b15801561187d57600080fd5b505af19250505080156118ad575060408051601f3d908101601f191682019092526118aa91810190612483565b60015b611907573d8080156118db576040519150601f19603f3d011682016040523d82523d6000602084013e6118e0565b606091505b5080516118ff5760405162461bcd60e51b81526004016105e390612350565b805181602001fd5b6001600160e01b031916630a85bd0160e11b149050610692565b506001610692565b606061193482610c83565b600061194b60408051602081019091526000815290565b9050600081511161196b5760405180602001604052806000815250611996565b8061197584611b79565b6040516020016119869291906123a2565b6040516020818303038152906040525b9392505050565b606060006119ac8360026124a0565b6119b7906002612338565b67ffffffffffffffff8111156119cf576119cf611ede565b6040519080825280601f01601f1916602001820160405280156119f9576020820181803683370190505b509050600360fc1b81600081518110611a1457611a14612293565b60200101906001600160f81b031916908160001a905350600f60fb1b81600181518110611a4357611a43612293565b60200101906001600160f81b031916908160001a9053506000611a678460026124a0565b611a72906001612338565b90505b6001811115611aea576f181899199a1a9b1b9c1cb0b131b232b360811b85600f1660108110611aa657611aa6612293565b1a60f81b828281518110611abc57611abc612293565b60200101906001600160f81b031916908160001a90535060049490941c93611ae3816124bf565b9050611a75565b5083156119965760405162461bcd60e51b815260206004820181905260248201527f537472696e67733a20686578206c656e67746820696e73756666696369656e7460448201526064016105e3565b611b4281611c77565b60008181526006602052604090208054611b5b9061220a565b15905061088c57600081815260066020526040812061088c91611d96565b606081611b9d5750506040805180820190915260018152600360fc1b602082015290565b8160005b8115611bc75780611bb181612306565b9150611bc09050600a836124ec565b9150611ba1565b60008167ffffffffffffffff811115611be257611be2611ede565b6040519080825280601f01601f191660200182016040528015611c0c576020820181803683370190505b5090505b841561069257611c21600183612321565b9150611c2e600a86612500565b611c39906030612338565b60f81b818381518110611c4e57611c4e612293565b60200101906001600160f81b031916908160001a905350611c70600a866124ec565b9450611c10565b6000611c8282610789565b9050611c8f600083610ce2565b6001600160a01b0381166000908152600360205260408120805460019290611cb8908490612321565b909155505060008281526002602052604080822080546001600160a01b0319169055518391906001600160a01b038416907fddf252ad1be2c89b69c2b068fc378daa952ba7f163c4a11628f55a4df523b3ef908390a45050565b828054611d1e9061220a565b90600052602060002090601f016020900481019282611d405760008555611d86565b82601f10611d5957805160ff1916838001178555611d86565b82800160010185558215611d86579182015b82811115611d86578251825591602001919060010190611d6b565b50611d92929150611dcc565b5090565b508054611da29061220a565b6000825580601f10611db2575050565b601f01602090049060005260206000209081019061088c91905b5b80821115611d925760008155600101611dcd565b6001600160e01b03198116811461088c57600080fd5b600060208284031215611e0957600080fd5b813561199681611de1565b60005b83811015611e2f578181015183820152602001611e17565b83811115610bfe5750506000910152565b60008151808452611e58816020860160208601611e14565b601f01601f19169290920160200192915050565b6020815260006119966020830184611e40565b600060208284031215611e9157600080fd5b5035919050565b80356001600160a01b0381168114611eaf57600080fd5b919050565b60008060408385031215611ec757600080fd5b611ed083611e98565b946020939093013593505050565b634e487b7160e01b600052604160045260246000fd5b60008060008060808587031215611f0a57600080fd5b611f1385611e98565b9350611f2160208601611e98565b925060408501359150606085013567ffffffffffffffff80821115611f4557600080fd5b818701915087601f830112611f5957600080fd5b813581811115611f6b57611f6b611ede565b604051601f8201601f19908116603f01168101908382118183101715611f9357611f93611ede565b816040528281528a6020848701011115611fac57600080fd5b82602086016020830137600060208483010152809550505050505092959194509250565b600080600060608486031215611fe557600080fd5b611fee84611e98565b9250611ffc60208501611e98565b9150604084013590509250925092565b6000806040838503121561201f57600080fd5b8235915061202f60208401611e98565b90509250929050565b60006020828403121561204a57600080fd5b61199682611e98565b60008083601f84011261206557600080fd5b50813567ffffffffffffffff81111561207d57600080fd5b6020830191508360208260051b850101111561209857600080fd5b9250929050565b803560ff81168114611eaf57600080fd5b60008060008060008060006080888a0312156120cb57600080fd5b873567ffffffffffffffff808211156120e357600080fd5b6120ef8b838c01612053565b909950975060208a013591508082111561210857600080fd5b6121148b838c01612053565b909750955060408a013591508082111561212d57600080fd5b818a0191508a601f83011261214157600080fd5b81358181111561215057600080fd5b8b602060608302850101111561216557600080fd5b60208301955080945050505061217d6060890161209f565b905092959891949750929550565b80358015158114611eaf57600080fd5b600080604083850312156121ae57600080fd5b6121b783611e98565b915061202f6020840161218b565b6000602082840312156121d757600080fd5b6119968261218b565b600080604083850312156121f357600080fd5b6121fc83611e98565b915061202f60208401611e98565b600181811c9082168061221e57607f821691505b6020821081141561223f57634e487b7160e01b600052602260045260246000fd5b50919050565b6020808252602e908201527f4552433732313a2063616c6c6572206973206e6f7420746f6b656e206f776e6560408201526d1c881b9bdc88185c1c1c9bdd995960921b606082015260800190565b634e487b7160e01b600052603260045260246000fd5b6000808335601e198436030181126122c057600080fd5b83018035915067ffffffffffffffff8211156122db57600080fd5b60200191503681900382131561209857600080fd5b634e487b7160e01b600052601160045260246000fd5b600060001982141561231a5761231a6122f0565b5060010190565b600082821015612333576123336122f0565b500390565b6000821982111561234b5761234b6122f0565b500190565b60208082526032908201527f4552433732313a207472616e7366657220746f206e6f6e20455243373231526560408201527131b2b4bb32b91034b6b83632b6b2b73a32b960711b606082015260800190565b600083516123b4818460208801611e14565b8351908301906123c8818360208801611e14565b01949350505050565b7f416363657373436f6e74726f6c3a206163636f756e7420000000000000000000815260008351612409816017850160208801611e14565b7001034b99036b4b9b9b4b733903937b6329607d1b601791840191820152835161243a816028840160208801611e14565b01602801949350505050565b6001600160a01b038581168252841660208201526040810183905260806060820181905260009061247990830184611e40565b9695505050505050565b60006020828403121561249557600080fd5b815161199681611de1565b60008160001904831182151516156124ba576124ba6122f0565b500290565b6000816124ce576124ce6122f0565b506000190190565b634e487b7160e01b600052601260045260246000fd5b6000826124fb576124fb6124d6565b500490565b60008261250f5761250f6124d6565b50069056fea2646970667358221220e45a98f25b79204c33d11a6e527313faaaaef8a152b0fade9a75329eb82fc9f064736f6c63430008090033",
  "devdoc": {
    "details": "BlastLootBox ERC721 token",
    "kind": "dev",
    "methods": {
      "approve(address,uint256)": {
        "details": "See {IERC721-approve}."
      },
      "balanceOf(address)": {
        "details": "See {IERC721-balanceOf}."
      },
      "constructor": {
        "params": {
          "name": "Name of the contract",
          "symbol": "Symbol of the contract"
        }
      },
      "getApproved(uint256)": {
        "details": "See {IERC721-getApproved}."
      },
      "getRoleAdmin(bytes32)": {
        "details": "Returns the admin role that controls `role`. See {grantRole} and {revokeRole}. To change a role's admin, use {_setRoleAdmin}."
      },
      "getTokenType(uint256)": {
        "details": "Returned value should be 1 or 2",
        "params": {
          "_tokenId": "Token ID."
        }
      },
      "grantRole(bytes32,address)": {
        "details": "Grants `role` to `account`. If `account` had not been already granted `role`, emits a {RoleGranted} event. Requirements: - the caller must have ``role``'s admin role. May emit a {RoleGranted} event."
      },
      "hasRole(bytes32,address)": {
        "details": "Returns `true` if `account` has been granted `role`."
      },
      "isApprovedForAll(address,address)": {
        "details": "See {IERC721-isApprovedForAll}."
      },
      "name()": {
        "details": "See {IERC721Metadata-name}."
      },
      "onERC721Received(address,address,uint256,bytes)": {
        "details": "See {IERC721Receiver-onERC721Received}. Always returns `IERC721Receiver.onERC721Received.selector`."
      },
      "ownerOf(uint256)": {
        "details": "See {IERC721-ownerOf}."
      },
      "renounceRole(bytes32,address)": {
        "details": "Revokes `role` from the calling account. Roles are often managed via {grantRole} and {revokeRole}: this function's purpose is to provide a mechanism for accounts to lose their privileges if they are compromised (such as when a trusted device is misplaced). If the calling account had been revoked `role`, emits a {RoleRevoked} event. Requirements: - the caller must be `account`. May emit a {RoleRevoked} event."
      },
      "revokeRole(bytes32,address)": {
        "details": "Revokes `role` from `account`. If `account` had been granted `role`, emits a {RoleRevoked} event. Requirements: - the caller must have ``role``'s admin role. May emit a {RoleRevoked} event."
      },
      "safeMint(address[],string[],(uint256,uint256,uint256)[],uint8)": {
        "details": "The caller must have the `DEFAULT_ADMIN_ROLE`. _tokenType should be 1 or 2 (In case of 1, it's normal box. In case of 2, it's gw box)"
      },
      "safeTransferFrom(address,address,uint256)": {
        "details": "See {IERC721-safeTransferFrom}."
      },
      "safeTransferFrom(address,address,uint256,bytes)": {
        "details": "See {IERC721-safeTransferFrom}."
      },
      "setApprovalForAll(address,bool)": {
        "details": "See {IERC721-setApprovalForAll}."
      },
      "supportsInterface(bytes4)": {
        "details": "See {IERC165-supportsInterface}.",
        "params": {
          "interfaceId": "Interface ID."
        }
      },
      "symbol()": {
        "details": "See {IERC721Metadata-symbol}."
      },
      "tokenURI(uint256)": {
        "params": {
          "tokenId": "Token ID."
        }
      },
      "transferFrom(address,address,uint256)": {
        "details": "See {IERC721-transferFrom}."
      }
    },
    "title": "Blast LootBox NFT",
    "version": 1
  },
  "userdoc": {
    "kind": "user",
    "methods": {
      "getTokenType(uint256)": {
        "notice": "Get Token Type. (GWB or NB)"
      },
      "safeMint(address[],string[],(uint256,uint256,uint256)[],uint8)": {
        "notice": "Creates a new token for `_to`. Its token ID will be automatically"
      },
      "tokenURI(uint256)": {
        "notice": "Returns the TokenURI."
      }
    },
    "version": 1
  },
  "storageLayout": {
    "storage": [
      {
        "astId": 1812,
        "contract": "contracts/BlastLootBox.sol:BlastLootBox",
        "label": "_name",
        "offset": 0,
        "slot": "0",
        "type": "t_string_storage"
      },
      {
        "astId": 1814,
        "contract": "contracts/BlastLootBox.sol:BlastLootBox",
        "label": "_symbol",
        "offset": 0,
        "slot": "1",
        "type": "t_string_storage"
      },
      {
        "astId": 1818,
        "contract": "contracts/BlastLootBox.sol:BlastLootBox",
        "label": "_owners",
        "offset": 0,
        "slot": "2",
        "type": "t_mapping(t_uint256,t_address)"
      },
      {
        "astId": 1822,
        "contract": "contracts/BlastLootBox.sol:BlastLootBox",
        "label": "_balances",
        "offset": 0,
        "slot": "3",
        "type": "t_mapping(t_address,t_uint256)"
      },
      {
        "astId": 1826,
        "contract": "contracts/BlastLootBox.sol:BlastLootBox",
        "label": "_tokenApprovals",
        "offset": 0,
        "slot": "4",
        "type": "t_mapping(t_uint256,t_address)"
      },
      {
        "astId": 1832,
        "contract": "contracts/BlastLootBox.sol:BlastLootBox",
        "label": "_operatorApprovals",
        "offset": 0,
        "slot": "5",
        "type": "t_mapping(t_address,t_mapping(t_address,t_bool))"
      },
      {
        "astId": 2830,
        "contract": "contracts/BlastLootBox.sol:BlastLootBox",
        "label": "_tokenURIs",
        "offset": 0,
        "slot": "6",
        "type": "t_mapping(t_uint256,t_string_storage)"
      },
      {
        "astId": 70,
        "contract": "contracts/BlastLootBox.sol:BlastLootBox",
        "label": "_roles",
        "offset": 0,
        "slot": "7",
        "type": "t_mapping(t_bytes32,t_struct(RoleData)65_storage)"
      },
      {
        "astId": 8135,
        "contract": "contracts/BlastLootBox.sol:BlastLootBox",
        "label": "_tokenIdCounter",
        "offset": 0,
        "slot": "8",
        "type": "t_struct(Counter)3319_storage"
      },
      {
        "astId": 8140,
        "contract": "contracts/BlastLootBox.sol:BlastLootBox",
        "label": "lootboxDetails",
        "offset": 0,
        "slot": "9",
        "type": "t_mapping(t_uint256,t_struct(LootBox)8127_storage)"
      },
      {
        "astId": 8144,
        "contract": "contracts/BlastLootBox.sol:BlastLootBox",
        "label": "tokenTypes",
        "offset": 0,
        "slot": "10",
        "type": "t_mapping(t_uint256,t_uint8)"
      },
      {
        "astId": 8147,
        "contract": "contracts/BlastLootBox.sol:BlastLootBox",
        "label": "blastEquipmentNFT",
        "offset": 0,
        "slot": "11",
        "type": "t_contract(IBlastEquipmentNFT)15249"
      },
      {
        "astId": 8149,
        "contract": "contracts/BlastLootBox.sol:BlastLootBox",
        "label": "openAvailable",
        "offset": 20,
        "slot": "11",
        "type": "t_bool"
      }
    ],
    "types": {
      "t_address": {
        "encoding": "inplace",
        "label": "address",
        "numberOfBytes": "20"
      },
      "t_bool": {
        "encoding": "inplace",
        "label": "bool",
        "numberOfBytes": "1"
      },
      "t_bytes32": {
        "encoding": "inplace",
        "label": "bytes32",
        "numberOfBytes": "32"
      },
      "t_contract(IBlastEquipmentNFT)15249": {
        "encoding": "inplace",
        "label": "contract IBlastEquipmentNFT",
        "numberOfBytes": "20"
      },
      "t_mapping(t_address,t_bool)": {
        "encoding": "mapping",
        "key": "t_address",
        "label": "mapping(address => bool)",
        "numberOfBytes": "32",
        "value": "t_bool"
      },
      "t_mapping(t_address,t_mapping(t_address,t_bool))": {
        "encoding": "mapping",
        "key": "t_address",
        "label": "mapping(address => mapping(address => bool))",
        "numberOfBytes": "32",
        "value": "t_mapping(t_address,t_bool)"
      },
      "t_mapping(t_address,t_uint256)": {
        "encoding": "mapping",
        "key": "t_address",
        "label": "mapping(address => uint256)",
        "numberOfBytes": "32",
        "value": "t_uint256"
      },
      "t_mapping(t_bytes32,t_struct(RoleData)65_storage)": {
        "encoding": "mapping",
        "key": "t_bytes32",
        "label": "mapping(bytes32 => struct AccessControl.RoleData)",
        "numberOfBytes": "32",
        "value": "t_struct(RoleData)65_storage"
      },
      "t_mapping(t_uint256,t_address)": {
        "encoding": "mapping",
        "key": "t_uint256",
        "label": "mapping(uint256 => address)",
        "numberOfBytes": "32",
        "value": "t_address"
      },
      "t_mapping(t_uint256,t_string_storage)": {
        "encoding": "mapping",
        "key": "t_uint256",
        "label": "mapping(uint256 => string)",
        "numberOfBytes": "32",
        "value": "t_string_storage"
      },
      "t_mapping(t_uint256,t_struct(LootBox)8127_storage)": {
        "encoding": "mapping",
        "key": "t_uint256",
        "label": "mapping(uint256 => struct BlastLootBox.LootBox)",
        "numberOfBytes": "32",
        "value": "t_struct(LootBox)8127_storage"
      },
      "t_mapping(t_uint256,t_uint8)": {
        "encoding": "mapping",
        "key": "t_uint256",
        "label": "mapping(uint256 => uint8)",
        "numberOfBytes": "32",
        "value": "t_uint8"
      },
      "t_string_storage": {
        "encoding": "bytes",
        "label": "string",
        "numberOfBytes": "32"
      },
      "t_struct(Counter)3319_storage": {
        "encoding": "inplace",
        "label": "struct Counters.Counter",
        "members": [
          {
            "astId": 3318,
            "contract": "contracts/BlastLootBox.sol:BlastLootBox",
            "label": "_value",
            "offset": 0,
            "slot": "0",
            "type": "t_uint256"
          }
        ],
        "numberOfBytes": "32"
      },
      "t_struct(LootBox)8127_storage": {
        "encoding": "inplace",
        "label": "struct BlastLootBox.LootBox",
        "members": [
          {
            "astId": 8122,
            "contract": "contracts/BlastLootBox.sol:BlastLootBox",
            "label": "token0",
            "offset": 0,
            "slot": "0",
            "type": "t_uint256"
          },
          {
            "astId": 8124,
            "contract": "contracts/BlastLootBox.sol:BlastLootBox",
            "label": "token1",
            "offset": 0,
            "slot": "1",
            "type": "t_uint256"
          },
          {
            "astId": 8126,
            "contract": "contracts/BlastLootBox.sol:BlastLootBox",
            "label": "token2",
            "offset": 0,
            "slot": "2",
            "type": "t_uint256"
          }
        ],
        "numberOfBytes": "96"
      },
      "t_struct(RoleData)65_storage": {
        "encoding": "inplace",
        "label": "struct AccessControl.RoleData",
        "members": [
          {
            "astId": 62,
            "contract": "contracts/BlastLootBox.sol:BlastLootBox",
            "label": "members",
            "offset": 0,
            "slot": "0",
            "type": "t_mapping(t_address,t_bool)"
          },
          {
            "astId": 64,
            "contract": "contracts/BlastLootBox.sol:BlastLootBox",
            "label": "adminRole",
            "offset": 0,
            "slot": "1",
            "type": "t_bytes32"
          }
        ],
        "numberOfBytes": "64"
      },
      "t_uint256": {
        "encoding": "inplace",
        "label": "uint256",
        "numberOfBytes": "32"
      },
      "t_uint8": {
        "encoding": "inplace",
        "label": "uint8",
        "numberOfBytes": "1"
      }
    }
  }
}