{
  "address": "0x95AE3f2aBa76316985c7D882C0fFF41E12698690",
  "abi": [
    {
      "inputs": [
        {
          "internalType": "string",
          "name": "name",
          "type": "string"
        },
        {
          "internalType": "string",
          "name": "symbol",
          "type": "string"
        },
        {
          "internalType": "string",
          "name": "_previewURI",
          "type": "string"
        },
        {
          "internalType": "string",
          "name": "_baseURI",
          "type": "string"
        }
      ],
      "stateMutability": "nonpayable",
      "type": "constructor"
    },
    {
      "anonymous": false,
      "inputs": [
        {
          "indexed": true,
          "internalType": "address",
          "name": "owner",
          "type": "address"
        },
        {
          "indexed": true,
          "internalType": "address",
          "name": "approved",
          "type": "address"
        },
        {
          "indexed": true,
          "internalType": "uint256",
          "name": "tokenId",
          "type": "uint256"
        }
      ],
      "name": "Approval",
      "type": "event"
    },
    {
      "anonymous": false,
      "inputs": [
        {
          "indexed": true,
          "internalType": "address",
          "name": "owner",
          "type": "address"
        },
        {
          "indexed": true,
          "internalType": "address",
          "name": "operator",
          "type": "address"
        },
        {
          "indexed": false,
          "internalType": "bool",
          "name": "approved",
          "type": "bool"
        }
      ],
      "name": "ApprovalForAll",
      "type": "event"
    },
    {
      "anonymous": false,
      "inputs": [
        {
          "indexed": false,
          "internalType": "uint256",
          "name": "tokenId",
          "type": "uint256"
        },
        {
          "indexed": false,
          "internalType": "uint256",
          "name": "level",
          "type": "uint256"
        },
        {
          "indexed": false,
          "internalType": "uint256",
          "name": "durabilityRestored",
          "type": "uint256"
        },
        {
          "indexed": false,
          "internalType": "uint256",
          "name": "durability",
          "type": "uint256"
        },
        {
          "indexed": false,
          "internalType": "uint256",
          "name": "lastRepairTime",
          "type": "uint256"
        },
        {
          "indexed": false,
          "internalType": "uint256",
          "name": "repairCount",
          "type": "uint256"
        },
        {
          "indexed": false,
          "internalType": "uint256",
          "name": "replicationCount",
          "type": "uint256"
        }
      ],
      "name": "AttributeUpdated",
      "type": "event"
    },
    {
      "anonymous": false,
      "inputs": [
        {
          "indexed": false,
          "internalType": "address",
          "name": "account",
          "type": "address"
        }
      ],
      "name": "Paused",
      "type": "event"
    },
    {
      "anonymous": false,
      "inputs": [
        {
          "indexed": false,
          "internalType": "string",
          "name": "_value",
          "type": "string"
        },
        {
          "indexed": true,
          "internalType": "uint256",
          "name": "_id",
          "type": "uint256"
        }
      ],
      "name": "PermanentURI",
      "type": "event"
    },
    {
      "anonymous": false,
      "inputs": [
        {
          "indexed": true,
          "internalType": "bytes32",
          "name": "role",
          "type": "bytes32"
        },
        {
          "indexed": true,
          "internalType": "bytes32",
          "name": "previousAdminRole",
          "type": "bytes32"
        },
        {
          "indexed": true,
          "internalType": "bytes32",
          "name": "newAdminRole",
          "type": "bytes32"
        }
      ],
      "name": "RoleAdminChanged",
      "type": "event"
    },
    {
      "anonymous": false,
      "inputs": [
        {
          "indexed": true,
          "internalType": "bytes32",
          "name": "role",
          "type": "bytes32"
        },
        {
          "indexed": true,
          "internalType": "address",
          "name": "account",
          "type": "address"
        },
        {
          "indexed": true,
          "internalType": "address",
          "name": "sender",
          "type": "address"
        }
      ],
      "name": "RoleGranted",
      "type": "event"
    },
    {
      "anonymous": false,
      "inputs": [
        {
          "indexed": true,
          "internalType": "bytes32",
          "name": "role",
          "type": "bytes32"
        },
        {
          "indexed": true,
          "internalType": "address",
          "name": "account",
          "type": "address"
        },
        {
          "indexed": true,
          "internalType": "address",
          "name": "sender",
          "type": "address"
        }
      ],
      "name": "RoleRevoked",
      "type": "event"
    },
    {
      "anonymous": false,
      "inputs": [
        {
          "indexed": true,
          "internalType": "address",
          "name": "from",
          "type": "address"
        },
        {
          "indexed": true,
          "internalType": "address",
          "name": "to",
          "type": "address"
        },
        {
          "indexed": true,
          "internalType": "uint256",
          "name": "tokenId",
          "type": "uint256"
        }
      ],
      "name": "Transfer",
      "type": "event"
    },
    {
      "anonymous": false,
      "inputs": [
        {
          "indexed": false,
          "internalType": "address",
          "name": "account",
          "type": "address"
        }
      ],
      "name": "Unpaused",
      "type": "event"
    },
    {
      "inputs": [],
      "name": "DEFAULT_ADMIN_ROLE",
      "outputs": [
        {
          "internalType": "bytes32",
          "name": "",
          "type": "bytes32"
        }
      ],
      "stateMutability": "view",
      "type": "function"
    },
    {
      "inputs": [],
      "name": "GAME_ROLE",
      "outputs": [
        {
          "internalType": "bytes32",
          "name": "",
          "type": "bytes32"
        }
      ],
      "stateMutability": "view",
      "type": "function"
    },
    {
      "inputs": [],
      "name": "MINTER_ROLE",
      "outputs": [
        {
          "internalType": "bytes32",
          "name": "",
          "type": "bytes32"
        }
      ],
      "stateMutability": "view",
      "type": "function"
    },
    {
      "inputs": [],
      "name": "REPLICATOR_ROLE",
      "outputs": [
        {
          "internalType": "bytes32",
          "name": "",
          "type": "bytes32"
        }
      ],
      "stateMutability": "view",
      "type": "function"
    },
    {
      "inputs": [],
      "name": "REVEAL_ROLE",
      "outputs": [
        {
          "internalType": "bytes32",
          "name": "",
          "type": "bytes32"
        }
      ],
      "stateMutability": "view",
      "type": "function"
    },
    {
      "inputs": [],
      "name": "_tokenIdCounter",
      "outputs": [
        {
          "internalType": "uint256",
          "name": "_value",
          "type": "uint256"
        }
      ],
      "stateMutability": "view",
      "type": "function"
    },
    {
      "inputs": [
        {
          "internalType": "address",
          "name": "to",
          "type": "address"
        },
        {
          "internalType": "uint256",
          "name": "tokenId",
          "type": "uint256"
        }
      ],
      "name": "approve",
      "outputs": [],
      "stateMutability": "nonpayable",
      "type": "function"
    },
    {
      "inputs": [
        {
          "internalType": "uint256",
          "name": "",
          "type": "uint256"
        }
      ],
      "name": "attributes",
      "outputs": [
        {
          "internalType": "uint256",
          "name": "level",
          "type": "uint256"
        },
        {
          "internalType": "uint256",
          "name": "durabilityRestored",
          "type": "uint256"
        },
        {
          "internalType": "uint256",
          "name": "durability",
          "type": "uint256"
        },
        {
          "internalType": "uint256",
          "name": "lastRepairTime",
          "type": "uint256"
        },
        {
          "internalType": "uint256",
          "name": "repairCount",
          "type": "uint256"
        },
        {
          "internalType": "uint256",
          "name": "replicationCount",
          "type": "uint256"
        }
      ],
      "stateMutability": "view",
      "type": "function"
    },
    {
      "inputs": [
        {
          "internalType": "address",
          "name": "owner",
          "type": "address"
        }
      ],
      "name": "balanceOf",
      "outputs": [
        {
          "internalType": "uint256",
          "name": "",
          "type": "uint256"
        }
      ],
      "stateMutability": "view",
      "type": "function"
    },
    {
      "inputs": [
        {
          "internalType": "uint256",
          "name": "tokenId",
          "type": "uint256"
        }
      ],
      "name": "burn",
      "outputs": [],
      "stateMutability": "nonpayable",
      "type": "function"
    },
    {
      "inputs": [],
      "name": "durabilityPointTimer",
      "outputs": [
        {
          "internalType": "uint256",
          "name": "",
          "type": "uint256"
        }
      ],
      "stateMutability": "view",
      "type": "function"
    },
    {
      "inputs": [
        {
          "internalType": "uint256",
          "name": "tokenId",
          "type": "uint256"
        }
      ],
      "name": "getApproved",
      "outputs": [
        {
          "internalType": "address",
          "name": "",
          "type": "address"
        }
      ],
      "stateMutability": "view",
      "type": "function"
    },
    {
      "inputs": [
        {
          "internalType": "uint256",
          "name": "_tokenId",
          "type": "uint256"
        }
      ],
      "name": "getAttributes",
      "outputs": [
        {
          "internalType": "uint256",
          "name": "",
          "type": "uint256"
        },
        {
          "internalType": "uint256",
          "name": "",
          "type": "uint256"
        },
        {
          "internalType": "uint256",
          "name": "",
          "type": "uint256"
        },
        {
          "internalType": "uint256",
          "name": "",
          "type": "uint256"
        },
        {
          "internalType": "uint256",
          "name": "",
          "type": "uint256"
        },
        {
          "internalType": "uint256",
          "name": "",
          "type": "uint256"
        }
      ],
      "stateMutability": "view",
      "type": "function"
    },
    {
      "inputs": [
        {
          "internalType": "bytes32",
          "name": "role",
          "type": "bytes32"
        }
      ],
      "name": "getRoleAdmin",
      "outputs": [
        {
          "internalType": "bytes32",
          "name": "",
          "type": "bytes32"
        }
      ],
      "stateMutability": "view",
      "type": "function"
    },
    {
      "inputs": [
        {
          "internalType": "uint256",
          "name": "_tokenId",
          "type": "uint256"
        }
      ],
      "name": "getStaticAttributes",
      "outputs": [
        {
          "internalType": "uint8",
          "name": "",
          "type": "uint8"
        },
        {
          "internalType": "uint8",
          "name": "",
          "type": "uint8"
        },
        {
          "internalType": "uint8",
          "name": "",
          "type": "uint8"
        },
        {
          "internalType": "uint8",
          "name": "",
          "type": "uint8"
        },
        {
          "internalType": "uint8",
          "name": "",
          "type": "uint8"
        },
        {
          "internalType": "uint8",
          "name": "",
          "type": "uint8"
        }
      ],
      "stateMutability": "view",
      "type": "function"
    },
    {
      "inputs": [
        {
          "internalType": "bytes32",
          "name": "role",
          "type": "bytes32"
        },
        {
          "internalType": "address",
          "name": "account",
          "type": "address"
        }
      ],
      "name": "grantRole",
      "outputs": [],
      "stateMutability": "nonpayable",
      "type": "function"
    },
    {
      "inputs": [
        {
          "internalType": "bytes32",
          "name": "role",
          "type": "bytes32"
        },
        {
          "internalType": "address",
          "name": "account",
          "type": "address"
        }
      ],
      "name": "hasRole",
      "outputs": [
        {
          "internalType": "bool",
          "name": "",
          "type": "bool"
        }
      ],
      "stateMutability": "view",
      "type": "function"
    },
    {
      "inputs": [
        {
          "internalType": "uint256",
          "name": "",
          "type": "uint256"
        }
      ],
      "name": "hashValue",
      "outputs": [
        {
          "internalType": "bytes32",
          "name": "",
          "type": "bytes32"
        }
      ],
      "stateMutability": "view",
      "type": "function"
    },
    {
      "inputs": [
        {
          "internalType": "address",
          "name": "owner",
          "type": "address"
        },
        {
          "internalType": "address",
          "name": "operator",
          "type": "address"
        }
      ],
      "name": "isApprovedForAll",
      "outputs": [
        {
          "internalType": "bool",
          "name": "",
          "type": "bool"
        }
      ],
      "stateMutability": "view",
      "type": "function"
    },
    {
      "inputs": [],
      "name": "name",
      "outputs": [
        {
          "internalType": "string",
          "name": "",
          "type": "string"
        }
      ],
      "stateMutability": "view",
      "type": "function"
    },
    {
      "inputs": [
        {
          "internalType": "uint256",
          "name": "tokenId",
          "type": "uint256"
        }
      ],
      "name": "ownerOf",
      "outputs": [
        {
          "internalType": "address",
          "name": "",
          "type": "address"
        }
      ],
      "stateMutability": "view",
      "type": "function"
    },
    {
      "inputs": [
        {
          "internalType": "bool",
          "name": "stop",
          "type": "bool"
        }
      ],
      "name": "pause",
      "outputs": [],
      "stateMutability": "nonpayable",
      "type": "function"
    },
    {
      "inputs": [],
      "name": "paused",
      "outputs": [
        {
          "internalType": "bool",
          "name": "",
          "type": "bool"
        }
      ],
      "stateMutability": "view",
      "type": "function"
    },
    {
      "inputs": [
        {
          "internalType": "bytes32",
          "name": "role",
          "type": "bytes32"
        },
        {
          "internalType": "address",
          "name": "account",
          "type": "address"
        }
      ],
      "name": "renounceRole",
      "outputs": [],
      "stateMutability": "nonpayable",
      "type": "function"
    },
    {
      "inputs": [
        {
          "internalType": "uint256",
          "name": "_tokenId",
          "type": "uint256"
        }
      ],
      "name": "revealRealTokenURI",
      "outputs": [],
      "stateMutability": "nonpayable",
      "type": "function"
    },
    {
      "inputs": [
        {
          "internalType": "bytes32",
          "name": "role",
          "type": "bytes32"
        },
        {
          "internalType": "address",
          "name": "account",
          "type": "address"
        }
      ],
      "name": "revokeRole",
      "outputs": [],
      "stateMutability": "nonpayable",
      "type": "function"
    },
    {
      "inputs": [
        {
          "internalType": "address",
          "name": "_to",
          "type": "address"
        },
        {
          "internalType": "bytes32[]",
          "name": "_hash",
          "type": "bytes32[]"
        },
        {
          "internalType": "string[]",
          "name": "_realUri",
          "type": "string[]"
        },
        {
          "components": [
            {
              "internalType": "uint8",
              "name": "maxLevel",
              "type": "uint8"
            },
            {
              "internalType": "uint8",
              "name": "maxDurability",
              "type": "uint8"
            },
            {
              "internalType": "uint8",
              "name": "maxReplication",
              "type": "uint8"
            },
            {
              "internalType": "uint8",
              "name": "adjective",
              "type": "uint8"
            },
            {
              "internalType": "uint8",
              "name": "rarity",
              "type": "uint8"
            },
            {
              "internalType": "uint8",
              "name": "grade",
              "type": "uint8"
            }
          ],
          "internalType": "struct StaticAttributes[]",
          "name": "_staticAttributes",
          "type": "tuple[]"
        }
      ],
      "name": "safeMint",
      "outputs": [],
      "stateMutability": "nonpayable",
      "type": "function"
    },
    {
      "inputs": [
        {
          "internalType": "address",
          "name": "_to",
          "type": "address"
        },
        {
          "internalType": "bytes32",
          "name": "_hash",
          "type": "bytes32"
        },
        {
          "internalType": "string",
          "name": "_realUri",
          "type": "string"
        },
        {
          "components": [
            {
              "internalType": "uint8",
              "name": "maxLevel",
              "type": "uint8"
            },
            {
              "internalType": "uint8",
              "name": "maxDurability",
              "type": "uint8"
            },
            {
              "internalType": "uint8",
              "name": "maxReplication",
              "type": "uint8"
            },
            {
              "internalType": "uint8",
              "name": "adjective",
              "type": "uint8"
            },
            {
              "internalType": "uint8",
              "name": "rarity",
              "type": "uint8"
            },
            {
              "internalType": "uint8",
              "name": "grade",
              "type": "uint8"
            }
          ],
          "internalType": "struct StaticAttributes",
          "name": "_staticAttributes",
          "type": "tuple"
        }
      ],
      "name": "safeMintReplicator",
      "outputs": [
        {
          "internalType": "uint256",
          "name": "",
          "type": "uint256"
        }
      ],
      "stateMutability": "nonpayable",
      "type": "function"
    },
    {
      "inputs": [
        {
          "internalType": "address",
          "name": "from",
          "type": "address"
        },
        {
          "internalType": "address",
          "name": "to",
          "type": "address"
        },
        {
          "internalType": "uint256",
          "name": "tokenId",
          "type": "uint256"
        }
      ],
      "name": "safeTransferFrom",
      "outputs": [],
      "stateMutability": "nonpayable",
      "type": "function"
    },
    {
      "inputs": [
        {
          "internalType": "address",
          "name": "from",
          "type": "address"
        },
        {
          "internalType": "address",
          "name": "to",
          "type": "address"
        },
        {
          "internalType": "uint256",
          "name": "tokenId",
          "type": "uint256"
        },
        {
          "internalType": "bytes",
          "name": "data",
          "type": "bytes"
        }
      ],
      "name": "safeTransferFrom",
      "outputs": [],
      "stateMutability": "nonpayable",
      "type": "function"
    },
    {
      "inputs": [
        {
          "internalType": "uint256",
          "name": "_tokenId",
          "type": "uint256"
        }
      ],
      "name": "scrap",
      "outputs": [],
      "stateMutability": "nonpayable",
      "type": "function"
    },
    {
      "inputs": [
        {
          "internalType": "address",
          "name": "operator",
          "type": "address"
        },
        {
          "internalType": "bool",
          "name": "approved",
          "type": "bool"
        }
      ],
      "name": "setApprovalForAll",
      "outputs": [],
      "stateMutability": "nonpayable",
      "type": "function"
    },
    {
      "inputs": [
        {
          "internalType": "string",
          "name": "_baseURI",
          "type": "string"
        }
      ],
      "name": "setBaseURI",
      "outputs": [],
      "stateMutability": "nonpayable",
      "type": "function"
    },
    {
      "inputs": [
        {
          "internalType": "uint256",
          "name": "_newTimer",
          "type": "uint256"
        }
      ],
      "name": "setDurabilityPointTimer",
      "outputs": [],
      "stateMutability": "nonpayable",
      "type": "function"
    },
    {
      "inputs": [
        {
          "internalType": "uint256",
          "name": "_tokenId",
          "type": "uint256"
        },
        {
          "internalType": "uint256",
          "name": "_newLevel",
          "type": "uint256"
        }
      ],
      "name": "setLevel",
      "outputs": [],
      "stateMutability": "nonpayable",
      "type": "function"
    },
    {
      "inputs": [
        {
          "internalType": "string",
          "name": "_previewURI",
          "type": "string"
        }
      ],
      "name": "setPreviewTokenURI",
      "outputs": [],
      "stateMutability": "nonpayable",
      "type": "function"
    },
    {
      "inputs": [
        {
          "internalType": "uint256",
          "name": "_tokenId",
          "type": "uint256"
        },
        {
          "internalType": "string",
          "name": "_realUri",
          "type": "string"
        }
      ],
      "name": "setRealTokenURI",
      "outputs": [],
      "stateMutability": "nonpayable",
      "type": "function"
    },
    {
      "inputs": [
        {
          "internalType": "uint256",
          "name": "_tokenId",
          "type": "uint256"
        },
        {
          "internalType": "uint256",
          "name": "_newRepairCount",
          "type": "uint256"
        }
      ],
      "name": "setRepairCount",
      "outputs": [],
      "stateMutability": "nonpayable",
      "type": "function"
    },
    {
      "inputs": [
        {
          "internalType": "uint256",
          "name": "_tokenId",
          "type": "uint256"
        },
        {
          "internalType": "uint256",
          "name": "_newReplicationCount",
          "type": "uint256"
        }
      ],
      "name": "setReplicationCount",
      "outputs": [],
      "stateMutability": "nonpayable",
      "type": "function"
    },
    {
      "inputs": [
        {
          "internalType": "uint256",
          "name": "_tokenId",
          "type": "uint256"
        },
        {
          "components": [
            {
              "internalType": "uint8",
              "name": "maxLevel",
              "type": "uint8"
            },
            {
              "internalType": "uint8",
              "name": "maxDurability",
              "type": "uint8"
            },
            {
              "internalType": "uint8",
              "name": "maxReplication",
              "type": "uint8"
            },
            {
              "internalType": "uint8",
              "name": "adjective",
              "type": "uint8"
            },
            {
              "internalType": "uint8",
              "name": "rarity",
              "type": "uint8"
            },
            {
              "internalType": "uint8",
              "name": "grade",
              "type": "uint8"
            }
          ],
          "internalType": "struct StaticAttributes",
          "name": "_staticAttributes",
          "type": "tuple"
        }
      ],
      "name": "setStaticAttributes",
      "outputs": [],
      "stateMutability": "nonpayable",
      "type": "function"
    },
    {
      "inputs": [
        {
          "internalType": "uint256",
          "name": "",
          "type": "uint256"
        }
      ],
      "name": "staticAttributes",
      "outputs": [
        {
          "internalType": "uint8",
          "name": "maxLevel",
          "type": "uint8"
        },
        {
          "internalType": "uint8",
          "name": "maxDurability",
          "type": "uint8"
        },
        {
          "internalType": "uint8",
          "name": "maxReplication",
          "type": "uint8"
        },
        {
          "internalType": "uint8",
          "name": "adjective",
          "type": "uint8"
        },
        {
          "internalType": "uint8",
          "name": "rarity",
          "type": "uint8"
        },
        {
          "internalType": "uint8",
          "name": "grade",
          "type": "uint8"
        }
      ],
      "stateMutability": "view",
      "type": "function"
    },
    {
      "inputs": [
        {
          "internalType": "bytes4",
          "name": "interfaceId",
          "type": "bytes4"
        }
      ],
      "name": "supportsInterface",
      "outputs": [
        {
          "internalType": "bool",
          "name": "",
          "type": "bool"
        }
      ],
      "stateMutability": "view",
      "type": "function"
    },
    {
      "inputs": [],
      "name": "symbol",
      "outputs": [
        {
          "internalType": "string",
          "name": "",
          "type": "string"
        }
      ],
      "stateMutability": "view",
      "type": "function"
    },
    {
      "inputs": [
        {
          "internalType": "uint256",
          "name": "tokenId",
          "type": "uint256"
        }
      ],
      "name": "tokenURI",
      "outputs": [
        {
          "internalType": "string",
          "name": "",
          "type": "string"
        }
      ],
      "stateMutability": "view",
      "type": "function"
    },
    {
      "inputs": [
        {
          "internalType": "address",
          "name": "from",
          "type": "address"
        },
        {
          "internalType": "address",
          "name": "to",
          "type": "address"
        },
        {
          "internalType": "uint256",
          "name": "tokenId",
          "type": "uint256"
        }
      ],
      "name": "transferFrom",
      "outputs": [],
      "stateMutability": "nonpayable",
      "type": "function"
    }
  ],
  "transactionHash": "0xe2b4615bba8779e5de041dbc97d074e8526226c0a075beb37fbb06e204beeadc",
  "args": [
    "Blast Equipment",
    "TestBEN",
    "https://static.blastroyale.com/nftstaticmetadata/preview_metadata.json",
    "https://testnet-prod-metadata.blastroyale.com/"
  ],
  "numDeployments": 1,
  "solcInputHash": "e1022c2b25c0085f1557400f326d633d",
  "bytecode": "0x608060405262093a80600a553480156200001857600080fd5b506040516200389a3803806200389a8339810160408190526200003b9162000390565b835184908490620000549060009060208501906200021d565b5080516200006a9060019060208401906200021d565b50506007805460ff19169055506200008460003362000169565b620000b07f9f2df0fed2c77648de5860a4cc508cd0818c85b8b8a1ab4ceeef8d981c8956a63362000169565b620000dc7f6a64baf327d646d1bca72653e2a075d15fd6ac6d8cbd7f6ee03fc55875e0fa883362000169565b620001077e6b97d3b00e0cfa27932db8d8710f84e2b8d72f339a1e910bf97a09597e99d63362000169565b620001337f9319dd0ae057f037c1d1afa0c064923eaddc18e926a579ec34536017796831dc3362000169565b8151620001489060109060208501906200021d565b5080516200015e9060119060208401906200021d565b505050505062000486565b62000175828262000179565b5050565b60008281526008602090815260408083206001600160a01b038516845290915290205460ff16620001755760008281526008602090815260408083206001600160a01b03851684529091529020805460ff19166001179055620001d93390565b6001600160a01b0316816001600160a01b0316837f2f8788117e7eff1d82e926ec794901d17c78024a50270940304540a733656f0d60405160405180910390a45050565b8280546200022b9062000449565b90600052602060002090601f0160209004810192826200024f57600085556200029a565b82601f106200026a57805160ff19168380011785556200029a565b828001600101855582156200029a579182015b828111156200029a5782518255916020019190600101906200027d565b50620002a8929150620002ac565b5090565b5b80821115620002a85760008155600101620002ad565b634e487b7160e01b600052604160045260246000fd5b600082601f830112620002eb57600080fd5b81516001600160401b0380821115620003085762000308620002c3565b604051601f8301601f19908116603f01168101908282118183101715620003335762000333620002c3565b816040528381526020925086838588010111156200035057600080fd5b600091505b8382101562000374578582018301518183018401529082019062000355565b83821115620003865760008385830101525b9695505050505050565b60008060008060808587031215620003a757600080fd5b84516001600160401b0380821115620003bf57600080fd5b620003cd88838901620002d9565b95506020870151915080821115620003e457600080fd5b620003f288838901620002d9565b945060408701519150808211156200040957600080fd5b6200041788838901620002d9565b935060608701519150808211156200042e57600080fd5b506200043d87828801620002d9565b91505092959194509250565b600181811c908216806200045e57607f821691505b602082108114156200048057634e487b7160e01b600052602260045260246000fd5b50919050565b61340480620004966000396000f3fe608060405234801561001057600080fd5b506004361061027f5760003560e01c806370a082311161015c578063b02d3c60116100ce578063d05dcc6a11610087578063d05dcc6a1461065f578063d5391393146106a2578063d547741f146106c9578063dc9b1d4a146106dc578063e985e9c5146106e5578063f692c8291461072157600080fd5b8063b02d3c60146105ed578063b403906614610600578063b772d99f14610613578063b88d4fde14610626578063c48de06d14610639578063c87b56dd1461064c57600080fd5b806395d89b411161012057806395d89b411461058d578063a217fddf14610595578063a22cb4651461059d578063a75d2b2b146105b0578063ab400706146105c5578063acf88bbc146105da57600080fd5b806370a082311461052a57806370a93b361461053d5780637ad54b0a1461055057806384c4bd4b1461057057806391d148541461057a57600080fd5b80632f2ff15d116101f55780634378a6e3116101b95780634378a6e3146104805780634415d923146104c057806355f804b3146104d35780635c975abb146104e65780635f1770a2146104f15780636352211e1461051757600080fd5b80632f2ff15d1461042157806331a067721461043457806336568abe1461044757806342842e0e1461045a57806342966c681461046d57600080fd5b8063095ea7b311610247578063095ea7b3146103225780631b3682711461033557806323b872dd14610348578063248a9ca31461035b57806325ba83451461037e5780632e240df81461040e57600080fd5b806301ffc9a71461028457806302329a29146102ac578063026884e3146102c157806306fdde03146102e2578063081812fc146102f7575b600080fd5b610297610292366004612795565b6107ab565b60405190151581526020015b60405180910390f35b6102bf6102ba3660046127c7565b6107bc565b005b6102d46102cf366004612916565b6107e1565b6040519081526020016102a3565b6102ea610892565b6040516102a391906129df565b61030a6103053660046129f2565b610924565b6040516001600160a01b0390911681526020016102a3565b6102bf610330366004612a0b565b61094b565b6102bf610343366004612a35565b610a61565b6102bf610356366004612a57565b610bfa565b6102d46103693660046129f2565b60009081526008602052604090206001015490565b6103d261038c3660046129f2565b600d6020526000908152604090205460ff808216916101008104821691620100008204811691630100000081048216916401000000008204811691600160281b90041686565b6040805160ff978816815295871660208701529386169385019390935290841660608401528316608083015290911660a082015260c0016102a3565b6102bf61041c366004612ad8565b610c2c565b6102bf61042f366004612bb3565b610d9d565b6102bf6104423660046129f2565b610dc2565b6102bf610455366004612bb3565b610eb3565b6102bf610468366004612a57565b610f2d565b6102bf61047b3660046129f2565b610f48565b61049361048e3660046129f2565b610f76565b604080519687526020870195909552938501929092526060840152608083015260a082015260c0016102a3565b6102bf6104ce366004612bdf565b61100c565b6102bf6104e1366004612c8d565b611038565b60075460ff16610297565b6102d47e6b97d3b00e0cfa27932db8d8710f84e2b8d72f339a1e910bf97a09597e99d681565b61030a6105253660046129f2565b611056565b6102d4610538366004612cd6565b6110b6565b6102bf61054b366004612a35565b61113c565b6102d461055e3660046129f2565b600b6020526000908152604090205481565b6009546102d49081565b610297610588366004612bb3565b61130a565b6102ea611335565b6102d4600081565b6102bf6105ab366004612cf1565b611344565b6102d46000805160206133af83398151915281565b6102d460008051602061338f83398151915281565b6102bf6105e83660046129f2565b61134f565b6102bf6105fb3660046129f2565b611397565b6102bf61060e366004612d1b565b611429565b6102bf610621366004612d5d565b611446565b6102bf610634366004612da9565b6114c9565b6102bf610647366004612a35565b6114fb565b6102ea61065a3660046129f2565b6116bd565b61049361066d3660046129f2565b600c60205260009081526040902080546001820154600283015460038401546004850154600590950154939492939192909186565b6102d47f9f2df0fed2c77648de5860a4cc508cd0818c85b8b8a1ab4ceeef8d981c8956a681565b6102bf6106d7366004612bb3565b6117a9565b6102d4600a5481565b6102976106f3366004612e25565b6001600160a01b03918216600090815260056020908152604080832093909416825291909152205460ff1690565b6103d261072f3660046129f2565b6000908152600d6020908152604091829020825160c081018452905460ff808216808452610100830482169484018590526201000083048216958401869052630100000083048216606085018190526401000000008404831660808601819052600160281b90940490921660a090940184905295939493909290565b60006107b6826117ce565b92915050565b60006107c7816117f3565b81156107d9576107d56117fd565b5050565b6107d5611857565b60006000805160206133af8339815191526107fb816117f3565b6040805180820190915260018152603160f81b60208201526001600160a01b0388166108435760405162461bcd60e51b815260040161083a91906129df565b60405180910390fd5b50610887878787878080601f016020809104026020016040519081016040528093929190818152602001838380828437600092019190915250899250611890915050565b979650505050505050565b6060600080546108a190612e4f565b80601f01602080910402602001604051908101604052809291908181526020018280546108cd90612e4f565b801561091a5780601f106108ef5761010080835404028352916020019161091a565b820191906000526020600020905b8154815290600101906020018083116108fd57829003601f168201915b5050505050905090565b600061092f82611a26565b506000908152600460205260409020546001600160a01b031690565b600061095682611056565b9050806001600160a01b0316836001600160a01b031614156109c45760405162461bcd60e51b815260206004820152602160248201527f4552433732313a20617070726f76616c20746f2063757272656e74206f776e656044820152603960f91b606482015260840161083a565b336001600160a01b03821614806109e057506109e081336106f3565b610a525760405162461bcd60e51b815260206004820152603e60248201527f4552433732313a20617070726f76652063616c6c6572206973206e6f7420746f60448201527f6b656e206f776e6572206e6f7220617070726f76656420666f7220616c6c0000606482015260840161083a565b610a5c8383611a85565b505050565b610a7960008051602061338f8339815191523361130a565b80610a8a5750610a8a60003361130a565b80610aa85750610aa86000805160206133af8339815191523361130a565b60405180604001604052806002815260200161313160f01b81525090610ae15760405162461bcd60e51b815260040161083a91906129df565b506000828152600c602090815260409182902060048101849055825160c081018452815481526001820154928101929092526002810154928201929092526003820154606082015260808101839052600582015460a0820152610b449084611af3565b816001016000828254610b579190612ea0565b909155505042600382018190556040805160c0810182528354815260018401546020820152600284015491810191909152606081019190915260048201546080820152600582015460a0820152600090610bb19085611af3565b905060008051602061336f8339815191528483600001548460010154848660030154888860050154604051610bec9796959493929190612eb8565b60405180910390a150505050565b610c05335b82611baa565b610c215760405162461bcd60e51b815260040161083a90612ee8565b610a5c838383611c28565b7f9f2df0fed2c77648de5860a4cc508cd0818c85b8b8a1ab4ceeef8d981c8956a6610c56816117f3565b6040805180820190915260018152603160f81b60208201526001600160a01b038916610c955760405162461bcd60e51b815260040161083a91906129df565b506040805180820190915260018152603560f81b6020820152868514610cce5760405162461bcd60e51b815260040161083a91906129df565b5060005b86811015610d9257610d7f89898984818110610cf057610cf0612f36565b90506020020135888885818110610d0957610d09612f36565b9050602002810190610d1b9190612f4c565b8080601f0160208091040260200160405190810160405280939291908181526020018383808284376000920191909152508a9250899150879050818110610d6457610d64612f36565b905060c00201803603810190610d7a9190612f93565b611890565b50610d8b816001612ea0565b9050610cd2565b505050505050505050565b600082815260086020526040902060010154610db8816117f3565b610a5c8383611dcf565b610dda60008051602061338f8339815191523361130a565b80610deb5750610deb60003361130a565b80610e095750610e096000805160206133af8339815191523361130a565b60405180604001604052806002815260200161313160f01b81525090610e425760405162461bcd60e51b815260040161083a91906129df565b50610e4c81611e55565b6000818152600c6020908152604080832083815560018101849055600281018490556003810184905560048101849055600501839055600d8252808320805465ffffffffffff19169055600b8252808320839055600f9091528120610eb091612638565b50565b6001600160a01b0381163314610f235760405162461bcd60e51b815260206004820152602f60248201527f416363657373436f6e74726f6c3a2063616e206f6e6c792072656e6f756e636560448201526e103937b632b9903337b91039b2b63360891b606482015260840161083a565b6107d58282611ea0565b610a5c838383604051806020016040528060008152506114c9565b610f5133610bff565b610f6d5760405162461bcd60e51b815260040161083a90612ee8565b610eb081611e55565b6000818152600c60209081526040808320815160c0810183528154815260018201549381019390935260028101549183019190915260038101546060830152600481015460808301526005015460a08201528190819081908190819081610fdd828a611af3565b825160208401516060850151608086015160a090960151929d919c50929a509198509296509194509092505050565b6000611017816117f3565b6000838152600d6020526040902082906110318282612fbc565b5050505050565b6000611043816117f3565b8151610a5c906011906020850190612672565b6000818152600260205260408120546001600160a01b0316806107b65760405162461bcd60e51b8152602060048201526018602482015277115490cdcc8c4e881a5b9d985b1a59081d1bdad95b88125160421b604482015260640161083a565b60006001600160a01b0382166111205760405162461bcd60e51b815260206004820152602960248201527f4552433732313a2061646472657373207a65726f206973206e6f7420612076616044820152683634b21037bbb732b960b91b606482015260840161083a565b506001600160a01b031660009081526003602052604090205490565b61115460008051602061338f8339815191523361130a565b80611165575061116560003361130a565b8061118357506111836000805160206133af8339815191523361130a565b60405180604001604052806002815260200161313160f01b815250906111bc5760405162461bcd60e51b815260040161083a91906129df565b506000828152600d6020908152604091829020825160c081018452905460ff80821680845261010083048216848601526201000083048216848701526301000000830482166060850152640100000000830482166080850152600160281b9092041660a083015283518085019094526002845261189960f11b92840192909252919083111561125e5760405162461bcd60e51b815260040161083a91906129df565b506000838152600c60209081526040808320858155815160c0810183528681526001820154938101939093526002810154918301919091526003810154606083015260048101546080830152600581015460a083015291906112c09086611af3565b905060008051602061336f83398151915285858460010154848660030154876004015488600501546040516112fb9796959493929190612eb8565b60405180910390a15050505050565b60009182526008602090815260408084206001600160a01b0393909316845291905290205460ff1690565b6060600180546108a190612e4f565b6107d5338383611f07565b600061135a816117f3565b6040805180820190915260018152603560f81b6020820152826113905760405162461bcd60e51b815260040161083a91906129df565b5050600a55565b7e6b97d3b00e0cfa27932db8d8710f84e2b8d72f339a1e910bf97a09597e99d66113c0816117f3565b6000828152600e6020908152604080832060019055600c8252808320426003820155600f909252918290209151909184917fa109ba539900bf1b633f956d63c96fc89b814c7287f7aa50a9216d0b556572079161141c916130a6565b60405180910390a2505050565b6000611434816117f3565b611440601084846126f6565b50505050565b7e6b97d3b00e0cfa27932db8d8710f84e2b8d72f339a1e910bf97a09597e99d661146f816117f3565b6000848152600f602052604090206114889084846126f6565b50837fa109ba539900bf1b633f956d63c96fc89b814c7287f7aa50a9216d0b5565720784846040516114bb92919061312b565b60405180910390a250505050565b6114d33383611baa565b6114ef5760405162461bcd60e51b815260040161083a90612ee8565b61144084848484611fd6565b61151360008051602061338f8339815191523361130a565b80611524575061152460003361130a565b8061154257506115426000805160206133af8339815191523361130a565b60405180604001604052806002815260200161313160f01b8152509061157b5760405162461bcd60e51b815260040161083a91906129df565b506000828152600d6020908152604091829020825160c081018452905460ff8082168352610100820481168385015262010000820481168386018190526301000000830482166060850152640100000000830482166080850152600160281b9092041660a0830152835180850190945260028452610c8d60f21b92840192909252919083111561161e5760405162461bcd60e51b815260040161083a91906129df565b506000838152600c6020908152604080832060058101869055815160c08101835281548152600182015493810193909352600281015491830191909152600381015460608301526004810154608083015260a0820185905291906116829086611af3565b905060008051602061336f833981519152858360000154846001015484866003015487600401548a6040516112fb9796959493929190612eb8565b60606116c882611a26565b6000828152600e602052604090205461176d57601080546116e890612e4f565b80601f016020809104026020016040519081016040528092919081815260200182805461171490612e4f565b80156117615780601f1061173657610100808354040283529160200191611761565b820191906000526020600020905b81548152906001019060200180831161174457829003601f168201915b50505050509050919050565b6011600f60008481526020019081526020016000206040516020016117939291906131c9565b6040516020818303038152906040529050919050565b6000828152600860205260409020600101546117c4816117f3565b610a5c8383611ea0565b60006001600160e01b03198216637965db0b60e01b14806107b657506107b682612009565b610eb08133612059565b6118056120bd565b6007805460ff191660011790557f62e78cea01bee320cd4e420270b5ea74000d11b0c9f74754ebdbfc544b05a25861183a3390565b6040516001600160a01b03909116815260200160405180910390a1565b61185f612105565b6007805460ff191690557f5db9ee0a495bf2e6ff9c91a7834c1ba4fdd244a5e8aa4e537bd38aeae4b073aa3361183a565b60008061189c60095490565b90506118ac600980546001019055565b6000818152600b60209081526040808320889055600f825290912085516118d592870190612672565b506040805160c081018252600180825260006020808401828152848601838152426060808801918252608080890187815260a0808b018981528d8a52600c89528c8a209b518c559651998b0199909955935160028a015591516003890155915160048801559151600590960195909555600d82529185902088518154928a0151968a0151958a0151938a0151948a015160ff908116600160281b0265ff000000000019968216640100000000029690961665ffff000000001995821663010000000263ff0000001998831662010000029890981663ffff0000199983166101000261ffff1990961692909316919091179390931796909616959095179390931716919091171790556119e7868261214e565b60008051602061336f83398151915281600160008042600080604051611a139796959493929190612eb8565b60405180910390a190505b949350505050565b6000818152600260205260409020546001600160a01b0316610eb05760405162461bcd60e51b8152602060048201526018602482015277115490cdcc8c4e881a5b9d985b1a59081d1bdad95b88125160421b604482015260640161083a565b600081815260046020526040902080546001600160a01b0319166001600160a01b0384169081179091558190611aba82611056565b6001600160a01b03167f8c5be1e5ebec7d5bd14f71427d1e84f3dd0314c0f7b2291e5b200ac8c7c3b92560405160405180910390a45050565b6000818152600d60209081526040808320815160c081018352905460ff80821683526101008204811694830194909452620100008104841692820192909252630100000082048316606080830191909152640100000000830484166080830152600160281b90920490921660a0830152600a5490850151839190611b7790426131de565b611b8191906131f5565b9050816020015160ff16811015611b985780611ba1565b816020015160ff165b95945050505050565b600080611bb683611056565b9050806001600160a01b0316846001600160a01b03161480611bfd57506001600160a01b0380821660009081526005602090815260408083209388168352929052205460ff165b80611a1e5750836001600160a01b0316611c1684610924565b6001600160a01b031614949350505050565b826001600160a01b0316611c3b82611056565b6001600160a01b031614611c9f5760405162461bcd60e51b815260206004820152602560248201527f4552433732313a207472616e736665722066726f6d20696e636f72726563742060448201526437bbb732b960d91b606482015260840161083a565b6001600160a01b038216611d015760405162461bcd60e51b8152602060048201526024808201527f4552433732313a207472616e7366657220746f20746865207a65726f206164646044820152637265737360e01b606482015260840161083a565b611d0c83838361229c565b611d17600082611a85565b6001600160a01b0383166000908152600360205260408120805460019290611d409084906131de565b90915550506001600160a01b0382166000908152600360205260408120805460019290611d6e908490612ea0565b909155505060008181526002602052604080822080546001600160a01b0319166001600160a01b0386811691821790925591518493918716917fddf252ad1be2c89b69c2b068fc378daa952ba7f163c4a11628f55a4df523b3ef91a4505050565b611dd9828261130a565b6107d55760008281526008602090815260408083206001600160a01b03851684529091529020805460ff19166001179055611e113390565b6001600160a01b0316816001600160a01b0316837f2f8788117e7eff1d82e926ec794901d17c78024a50270940304540a733656f0d60405160405180910390a45050565b611e5e33610bff565b604051806040016040528060018152602001603360f81b81525090611e965760405162461bcd60e51b815260040161083a91906129df565b50610eb0816122a4565b611eaa828261130a565b156107d55760008281526008602090815260408083206001600160a01b0385168085529252808320805460ff1916905551339285917ff6391f5c32d9c69d2a47ea670b442974b53935d1edc7fd64eb21e047a839171b9190a45050565b816001600160a01b0316836001600160a01b03161415611f695760405162461bcd60e51b815260206004820152601960248201527f4552433732313a20617070726f766520746f2063616c6c657200000000000000604482015260640161083a565b6001600160a01b03838116600081815260056020908152604080832094871680845294825291829020805460ff191686151590811790915591519182527f17307eab39ab6107e8899845ad3d59bd9653f200f220920489ca2b5937696c31910160405180910390a3505050565b611fe1848484611c28565b611fed848484846122e4565b6114405760405162461bcd60e51b815260040161083a90613217565b60006001600160e01b031982166380ac58cd60e01b148061203a57506001600160e01b03198216635b5e139f60e01b145b806107b657506301ffc9a760e01b6001600160e01b03198316146107b6565b612063828261130a565b6107d55761207b816001600160a01b031660146123ee565b6120868360206123ee565b604051602001612097929190613269565b60408051601f198184030181529082905262461bcd60e51b825261083a916004016129df565b60075460ff16156121035760405162461bcd60e51b815260206004820152601060248201526f14185d5cd8589b194e881c185d5cd95960821b604482015260640161083a565b565b60075460ff166121035760405162461bcd60e51b815260206004820152601460248201527314185d5cd8589b194e881b9bdd081c185d5cd95960621b604482015260640161083a565b6001600160a01b0382166121a45760405162461bcd60e51b815260206004820181905260248201527f4552433732313a206d696e7420746f20746865207a65726f2061646472657373604482015260640161083a565b6000818152600260205260409020546001600160a01b0316156122095760405162461bcd60e51b815260206004820152601c60248201527f4552433732313a20746f6b656e20616c7265616479206d696e74656400000000604482015260640161083a565b6122156000838361229c565b6001600160a01b038216600090815260036020526040812080546001929061223e908490612ea0565b909155505060008181526002602052604080822080546001600160a01b0319166001600160a01b03861690811790915590518392907fddf252ad1be2c89b69c2b068fc378daa952ba7f163c4a11628f55a4df523b3ef908290a45050565b610a5c6120bd565b6122ad81612591565b600081815260066020526040902080546122c690612e4f565b159050610eb0576000818152600660205260408120610eb091612638565b60006001600160a01b0384163b156123e657604051630a85bd0160e11b81526001600160a01b0385169063150b7a02906123289033908990889088906004016132de565b602060405180830381600087803b15801561234257600080fd5b505af1925050508015612372575060408051601f3d908101601f1916820190925261236f9181019061331b565b60015b6123cc573d8080156123a0576040519150601f19603f3d011682016040523d82523d6000602084013e6123a5565b606091505b5080516123c45760405162461bcd60e51b815260040161083a90613217565b805181602001fd5b6001600160e01b031916630a85bd0160e11b149050611a1e565b506001611a1e565b606060006123fd836002613338565b612408906002612ea0565b67ffffffffffffffff81111561242057612420612842565b6040519080825280601f01601f19166020018201604052801561244a576020820181803683370190505b509050600360fc1b8160008151811061246557612465612f36565b60200101906001600160f81b031916908160001a905350600f60fb1b8160018151811061249457612494612f36565b60200101906001600160f81b031916908160001a90535060006124b8846002613338565b6124c3906001612ea0565b90505b600181111561253b576f181899199a1a9b1b9c1cb0b131b232b360811b85600f16601081106124f7576124f7612f36565b1a60f81b82828151811061250d5761250d612f36565b60200101906001600160f81b031916908160001a90535060049490941c9361253481613357565b90506124c6565b50831561258a5760405162461bcd60e51b815260206004820181905260248201527f537472696e67733a20686578206c656e67746820696e73756666696369656e74604482015260640161083a565b9392505050565b600061259c82611056565b90506125aa8160008461229c565b6125b5600083611a85565b6001600160a01b03811660009081526003602052604081208054600192906125de9084906131de565b909155505060008281526002602052604080822080546001600160a01b0319169055518391906001600160a01b038416907fddf252ad1be2c89b69c2b068fc378daa952ba7f163c4a11628f55a4df523b3ef908390a45050565b50805461264490612e4f565b6000825580601f10612654575050565b601f016020900490600052602060002090810190610eb0919061276a565b82805461267e90612e4f565b90600052602060002090601f0160209004810192826126a057600085556126e6565b82601f106126b957805160ff19168380011785556126e6565b828001600101855582156126e6579182015b828111156126e65782518255916020019190600101906126cb565b506126f292915061276a565b5090565b82805461270290612e4f565b90600052602060002090601f01602090048101928261272457600085556126e6565b82601f1061273d5782800160ff198235161785556126e6565b828001600101855582156126e6579182015b828111156126e657823582559160200191906001019061274f565b5b808211156126f2576000815560010161276b565b6001600160e01b031981168114610eb057600080fd5b6000602082840312156127a757600080fd5b813561258a8161277f565b803580151581146127c257600080fd5b919050565b6000602082840312156127d957600080fd5b61258a826127b2565b80356001600160a01b03811681146127c257600080fd5b60008083601f84011261280b57600080fd5b50813567ffffffffffffffff81111561282357600080fd5b60208301915083602082850101111561283b57600080fd5b9250929050565b634e487b7160e01b600052604160045260246000fd5b60ff81168114610eb057600080fd5b600060c0828403121561287957600080fd5b60405160c0810181811067ffffffffffffffff8211171561289c5761289c612842565b60405290508082356128ad81612858565b815260208301356128bd81612858565b602082015260408301356128d081612858565b604082015260608301356128e381612858565b606082015260808301356128f681612858565b608082015260a083013561290981612858565b60a0919091015292915050565b6000806000806000610120868803121561292f57600080fd5b612938866127e2565b945060208601359350604086013567ffffffffffffffff81111561295b57600080fd5b612967888289016127f9565b909450925061297b90508760608801612867565b90509295509295909350565b60005b838110156129a257818101518382015260200161298a565b838111156114405750506000910152565b600081518084526129cb816020860160208601612987565b601f01601f19169290920160200192915050565b60208152600061258a60208301846129b3565b600060208284031215612a0457600080fd5b5035919050565b60008060408385031215612a1e57600080fd5b612a27836127e2565b946020939093013593505050565b60008060408385031215612a4857600080fd5b50508035926020909101359150565b600080600060608486031215612a6c57600080fd5b612a75846127e2565b9250612a83602085016127e2565b9150604084013590509250925092565b60008083601f840112612aa557600080fd5b50813567ffffffffffffffff811115612abd57600080fd5b6020830191508360208260051b850101111561283b57600080fd5b60008060008060008060006080888a031215612af357600080fd5b612afc886127e2565b9650602088013567ffffffffffffffff80821115612b1957600080fd5b612b258b838c01612a93565b909850965060408a0135915080821115612b3e57600080fd5b612b4a8b838c01612a93565b909650945060608a0135915080821115612b6357600080fd5b818a0191508a601f830112612b7757600080fd5b813581811115612b8657600080fd5b8b602060c083028501011115612b9b57600080fd5b60208301945080935050505092959891949750929550565b60008060408385031215612bc657600080fd5b82359150612bd6602084016127e2565b90509250929050565b60008082840360e0811215612bf357600080fd5b8335925060c0601f1982011215612c0957600080fd5b506020830190509250929050565b600067ffffffffffffffff80841115612c3257612c32612842565b604051601f8501601f19908116603f01168101908282118183101715612c5a57612c5a612842565b81604052809350858152868686011115612c7357600080fd5b858560208301376000602087830101525050509392505050565b600060208284031215612c9f57600080fd5b813567ffffffffffffffff811115612cb657600080fd5b8201601f81018413612cc757600080fd5b611a1e84823560208401612c17565b600060208284031215612ce857600080fd5b61258a826127e2565b60008060408385031215612d0457600080fd5b612d0d836127e2565b9150612bd6602084016127b2565b60008060208385031215612d2e57600080fd5b823567ffffffffffffffff811115612d4557600080fd5b612d51858286016127f9565b90969095509350505050565b600080600060408486031215612d7257600080fd5b83359250602084013567ffffffffffffffff811115612d9057600080fd5b612d9c868287016127f9565b9497909650939450505050565b60008060008060808587031215612dbf57600080fd5b612dc8856127e2565b9350612dd6602086016127e2565b925060408501359150606085013567ffffffffffffffff811115612df957600080fd5b8501601f81018713612e0a57600080fd5b612e1987823560208401612c17565b91505092959194509250565b60008060408385031215612e3857600080fd5b612e41836127e2565b9150612bd6602084016127e2565b600181811c90821680612e6357607f821691505b60208210811415612e8457634e487b7160e01b600052602260045260246000fd5b50919050565b634e487b7160e01b600052601160045260246000fd5b60008219821115612eb357612eb3612e8a565b500190565b968752602087019590955260408601939093526060850191909152608084015260a083015260c082015260e00190565b6020808252602e908201527f4552433732313a2063616c6c6572206973206e6f7420746f6b656e206f776e6560408201526d1c881b9bdc88185c1c1c9bdd995960921b606082015260800190565b634e487b7160e01b600052603260045260246000fd5b6000808335601e19843603018112612f6357600080fd5b83018035915067ffffffffffffffff821115612f7e57600080fd5b60200191503681900382131561283b57600080fd5b600060c08284031215612fa557600080fd5b61258a8383612867565b600081356107b681612858565b8135612fc781612858565b60ff8116905081548160ff1982161783556020840135612fe681612858565b61ff008160081b169050808361ffff19841617178455604085013561300a81612858565b62ff00008160101b168462ffffff1985161783171785555050505061304e61303460608401612faf565b825463ff000000191660189190911b63ff00000016178255565b61307961305d60808401612faf565b825464ff00000000191660209190911b64ff0000000016178255565b6107d561308860a08401612faf565b825465ff0000000000191660289190911b65ff000000000016178255565b60006020808352600084546130ba81612e4f565b808487015260406001808416600081146130db57600181146130ef5761311d565b60ff1985168984015260608901955061311d565b896000528660002060005b858110156131155781548b82018601529083019088016130fa565b8a0184019650505b509398975050505050505050565b60208152816020820152818360408301376000818301604090810191909152601f909201601f19160101919050565b6000815461316781612e4f565b6001828116801561317f5760018114613190576131bf565b60ff198416875282870194506131bf565b8560005260208060002060005b858110156131b65781548a82015290840190820161319d565b50505082870194505b5050505092915050565b6000611a1e6131d8838661315a565b8461315a565b6000828210156131f0576131f0612e8a565b500390565b60008261321257634e487b7160e01b600052601260045260246000fd5b500490565b60208082526032908201527f4552433732313a207472616e7366657220746f206e6f6e20455243373231526560408201527131b2b4bb32b91034b6b83632b6b2b73a32b960711b606082015260800190565b7f416363657373436f6e74726f6c3a206163636f756e74200000000000000000008152600083516132a1816017850160208801612987565b7001034b99036b4b9b9b4b733903937b6329607d1b60179184019182015283516132d2816028840160208801612987565b01602801949350505050565b6001600160a01b0385811682528416602082015260408101839052608060608201819052600090613311908301846129b3565b9695505050505050565b60006020828403121561332d57600080fd5b815161258a8161277f565b600081600019048311821515161561335257613352612e8a565b500290565b60008161336657613366612e8a565b50600019019056fef432c35e4f4373879a37109eba80cea1de1c74f7df773eb88dd57851cd3681866a64baf327d646d1bca72653e2a075d15fd6ac6d8cbd7f6ee03fc55875e0fa889319dd0ae057f037c1d1afa0c064923eaddc18e926a579ec34536017796831dca2646970667358221220a0e6ace752619b58738246ba6635824c456cef3cb3faad487a7e577280518a1264736f6c63430008090033",
  "devdoc": {
    "details": "BlastNFT ERC721 token",
    "kind": "dev",
    "methods": {
      "approve(address,uint256)": {
        "details": "See {IERC721-approve}."
      },
      "balanceOf(address)": {
        "details": "See {IERC721-balanceOf}."
      },
      "burn(uint256)": {
        "details": "Burns `tokenId`. See {ERC721-_burn}. Requirements: - The caller must own `tokenId` or be an approved operator."
      },
      "constructor": {
        "details": "Grants `DEFAULT_ADMIN_ROLE`, `MINTER_ROLE` and `PAUSER_ROLE` to the",
        "params": {
          "name": "Name of the contract",
          "symbol": "Symbol of the contract"
        }
      },
      "getApproved(uint256)": {
        "details": "See {IERC721-getApproved}."
      },
      "getRoleAdmin(bytes32)": {
        "details": "Returns the admin role that controls `role`. See {grantRole} and {revokeRole}. To change a role's admin, use {_setRoleAdmin}."
      },
      "grantRole(bytes32,address)": {
        "details": "Grants `role` to `account`. If `account` had not been already granted `role`, emits a {RoleGranted} event. Requirements: - the caller must have ``role``'s admin role. May emit a {RoleGranted} event."
      },
      "hasRole(bytes32,address)": {
        "details": "Returns `true` if `account` has been granted `role`."
      },
      "isApprovedForAll(address,address)": {
        "details": "See {IERC721-isApprovedForAll}."
      },
      "name()": {
        "details": "See {IERC721Metadata-name}."
      },
      "ownerOf(uint256)": {
        "details": "See {IERC721-ownerOf}."
      },
      "paused()": {
        "details": "Returns true if the contract is paused, and false otherwise."
      },
      "renounceRole(bytes32,address)": {
        "details": "Revokes `role` from the calling account. Roles are often managed via {grantRole} and {revokeRole}: this function's purpose is to provide a mechanism for accounts to lose their privileges if they are compromised (such as when a trusted device is misplaced). If the calling account had been revoked `role`, emits a {RoleRevoked} event. Requirements: - the caller must be `account`. May emit a {RoleRevoked} event."
      },
      "revokeRole(bytes32,address)": {
        "details": "Revokes `role` from `account`. If `account` had been granted `role`, emits a {RoleRevoked} event. Requirements: - the caller must have ``role``'s admin role. May emit a {RoleRevoked} event."
      },
      "safeMint(address,bytes32[],string[],(uint8,uint8,uint8,uint8,uint8,uint8)[])": {
        "details": "The caller must have the `MINTER_ROLE`."
      },
      "safeTransferFrom(address,address,uint256)": {
        "details": "See {IERC721-safeTransferFrom}."
      },
      "safeTransferFrom(address,address,uint256,bytes)": {
        "details": "See {IERC721-safeTransferFrom}."
      },
      "setApprovalForAll(address,bool)": {
        "details": "See {IERC721-setApprovalForAll}."
      },
      "setBaseURI(string)": {
        "details": "The caller must have the `DEFAULT_ADMIN_ROLE`."
      },
      "setDurabilityPointTimer(uint256)": {
        "details": "The caller must have the `DEFAULT_ADMIN_ROLE`."
      },
      "supportsInterface(bytes4)": {
        "details": "See {IERC165-supportsInterface}.",
        "params": {
          "interfaceId": "Interface ID."
        }
      },
      "symbol()": {
        "details": "See {IERC721Metadata-symbol}."
      },
      "tokenURI(uint256)": {
        "params": {
          "tokenId": "Token ID."
        }
      },
      "transferFrom(address,address,uint256)": {
        "details": "See {IERC721-transferFrom}."
      }
    },
    "title": "Blast Equipment NFT",
    "version": 1
  },
  "userdoc": {
    "events": {
      "AttributeUpdated(uint256,uint256,uint256,uint256,uint256,uint256,uint256)": {
        "notice": "Event Attribute Updated"
      },
      "PermanentURI(string,uint256)": {
        "notice": "Event Revealed TokenURI"
      }
    },
    "kind": "user",
    "methods": {
      "safeMint(address,bytes32[],string[],(uint8,uint8,uint8,uint8,uint8,uint8)[])": {
        "notice": "Creates a new token for `to`. Its token ID will be automatically"
      },
      "setBaseURI(string)": {
        "notice": "Set BaseURI for token metadata URI"
      },
      "setDurabilityPointTimer(uint256)": {
        "notice": "Set the DurabilityPoint Timer"
      },
      "tokenURI(uint256)": {
        "notice": "Returns the TokenURI."
      }
    },
    "version": 1
  },
  "storageLayout": {
    "storage": [
      {
        "astId": 1812,
        "contract": "contracts/BlastEquipmentNFT.sol:BlastEquipmentNFT",
        "label": "_name",
        "offset": 0,
        "slot": "0",
        "type": "t_string_storage"
      },
      {
        "astId": 1814,
        "contract": "contracts/BlastEquipmentNFT.sol:BlastEquipmentNFT",
        "label": "_symbol",
        "offset": 0,
        "slot": "1",
        "type": "t_string_storage"
      },
      {
        "astId": 1818,
        "contract": "contracts/BlastEquipmentNFT.sol:BlastEquipmentNFT",
        "label": "_owners",
        "offset": 0,
        "slot": "2",
        "type": "t_mapping(t_uint256,t_address)"
      },
      {
        "astId": 1822,
        "contract": "contracts/BlastEquipmentNFT.sol:BlastEquipmentNFT",
        "label": "_balances",
        "offset": 0,
        "slot": "3",
        "type": "t_mapping(t_address,t_uint256)"
      },
      {
        "astId": 1826,
        "contract": "contracts/BlastEquipmentNFT.sol:BlastEquipmentNFT",
        "label": "_tokenApprovals",
        "offset": 0,
        "slot": "4",
        "type": "t_mapping(t_uint256,t_address)"
      },
      {
        "astId": 1832,
        "contract": "contracts/BlastEquipmentNFT.sol:BlastEquipmentNFT",
        "label": "_operatorApprovals",
        "offset": 0,
        "slot": "5",
        "type": "t_mapping(t_address,t_mapping(t_address,t_bool))"
      },
      {
        "astId": 2830,
        "contract": "contracts/BlastEquipmentNFT.sol:BlastEquipmentNFT",
        "label": "_tokenURIs",
        "offset": 0,
        "slot": "6",
        "type": "t_mapping(t_uint256,t_string_storage)"
      },
      {
        "astId": 569,
        "contract": "contracts/BlastEquipmentNFT.sol:BlastEquipmentNFT",
        "label": "_paused",
        "offset": 0,
        "slot": "7",
        "type": "t_bool"
      },
      {
        "astId": 70,
        "contract": "contracts/BlastEquipmentNFT.sol:BlastEquipmentNFT",
        "label": "_roles",
        "offset": 0,
        "slot": "8",
        "type": "t_mapping(t_bytes32,t_struct(RoleData)65_storage)"
      },
      {
        "astId": 6729,
        "contract": "contracts/BlastEquipmentNFT.sol:BlastEquipmentNFT",
        "label": "_tokenIdCounter",
        "offset": 0,
        "slot": "9",
        "type": "t_struct(Counter)3319_storage"
      },
      {
        "astId": 6732,
        "contract": "contracts/BlastEquipmentNFT.sol:BlastEquipmentNFT",
        "label": "durabilityPointTimer",
        "offset": 0,
        "slot": "10",
        "type": "t_uint256"
      },
      {
        "astId": 6736,
        "contract": "contracts/BlastEquipmentNFT.sol:BlastEquipmentNFT",
        "label": "hashValue",
        "offset": 0,
        "slot": "11",
        "type": "t_mapping(t_uint256,t_bytes32)"
      },
      {
        "astId": 6741,
        "contract": "contracts/BlastEquipmentNFT.sol:BlastEquipmentNFT",
        "label": "attributes",
        "offset": 0,
        "slot": "12",
        "type": "t_mapping(t_uint256,t_struct(VariableAttributes)6706_storage)"
      },
      {
        "astId": 6746,
        "contract": "contracts/BlastEquipmentNFT.sol:BlastEquipmentNFT",
        "label": "staticAttributes",
        "offset": 0,
        "slot": "13",
        "type": "t_mapping(t_uint256,t_struct(StaticAttributes)13452_storage)"
      },
      {
        "astId": 6750,
        "contract": "contracts/BlastEquipmentNFT.sol:BlastEquipmentNFT",
        "label": "revealed",
        "offset": 0,
        "slot": "14",
        "type": "t_mapping(t_uint256,t_uint256)"
      },
      {
        "astId": 6754,
        "contract": "contracts/BlastEquipmentNFT.sol:BlastEquipmentNFT",
        "label": "realTokenURI",
        "offset": 0,
        "slot": "15",
        "type": "t_mapping(t_uint256,t_string_storage)"
      },
      {
        "astId": 6756,
        "contract": "contracts/BlastEquipmentNFT.sol:BlastEquipmentNFT",
        "label": "previewURI",
        "offset": 0,
        "slot": "16",
        "type": "t_string_storage"
      },
      {
        "astId": 6758,
        "contract": "contracts/BlastEquipmentNFT.sol:BlastEquipmentNFT",
        "label": "baseURI",
        "offset": 0,
        "slot": "17",
        "type": "t_string_storage"
      }
    ],
    "types": {
      "t_address": {
        "encoding": "inplace",
        "label": "address",
        "numberOfBytes": "20"
      },
      "t_bool": {
        "encoding": "inplace",
        "label": "bool",
        "numberOfBytes": "1"
      },
      "t_bytes32": {
        "encoding": "inplace",
        "label": "bytes32",
        "numberOfBytes": "32"
      },
      "t_mapping(t_address,t_bool)": {
        "encoding": "mapping",
        "key": "t_address",
        "label": "mapping(address => bool)",
        "numberOfBytes": "32",
        "value": "t_bool"
      },
      "t_mapping(t_address,t_mapping(t_address,t_bool))": {
        "encoding": "mapping",
        "key": "t_address",
        "label": "mapping(address => mapping(address => bool))",
        "numberOfBytes": "32",
        "value": "t_mapping(t_address,t_bool)"
      },
      "t_mapping(t_address,t_uint256)": {
        "encoding": "mapping",
        "key": "t_address",
        "label": "mapping(address => uint256)",
        "numberOfBytes": "32",
        "value": "t_uint256"
      },
      "t_mapping(t_bytes32,t_struct(RoleData)65_storage)": {
        "encoding": "mapping",
        "key": "t_bytes32",
        "label": "mapping(bytes32 => struct AccessControl.RoleData)",
        "numberOfBytes": "32",
        "value": "t_struct(RoleData)65_storage"
      },
      "t_mapping(t_uint256,t_address)": {
        "encoding": "mapping",
        "key": "t_uint256",
        "label": "mapping(uint256 => address)",
        "numberOfBytes": "32",
        "value": "t_address"
      },
      "t_mapping(t_uint256,t_bytes32)": {
        "encoding": "mapping",
        "key": "t_uint256",
        "label": "mapping(uint256 => bytes32)",
        "numberOfBytes": "32",
        "value": "t_bytes32"
      },
      "t_mapping(t_uint256,t_string_storage)": {
        "encoding": "mapping",
        "key": "t_uint256",
        "label": "mapping(uint256 => string)",
        "numberOfBytes": "32",
        "value": "t_string_storage"
      },
      "t_mapping(t_uint256,t_struct(StaticAttributes)13452_storage)": {
        "encoding": "mapping",
        "key": "t_uint256",
        "label": "mapping(uint256 => struct StaticAttributes)",
        "numberOfBytes": "32",
        "value": "t_struct(StaticAttributes)13452_storage"
      },
      "t_mapping(t_uint256,t_struct(VariableAttributes)6706_storage)": {
        "encoding": "mapping",
        "key": "t_uint256",
        "label": "mapping(uint256 => struct BlastEquipmentNFT.VariableAttributes)",
        "numberOfBytes": "32",
        "value": "t_struct(VariableAttributes)6706_storage"
      },
      "t_mapping(t_uint256,t_uint256)": {
        "encoding": "mapping",
        "key": "t_uint256",
        "label": "mapping(uint256 => uint256)",
        "numberOfBytes": "32",
        "value": "t_uint256"
      },
      "t_string_storage": {
        "encoding": "bytes",
        "label": "string",
        "numberOfBytes": "32"
      },
      "t_struct(Counter)3319_storage": {
        "encoding": "inplace",
        "label": "struct Counters.Counter",
        "members": [
          {
            "astId": 3318,
            "contract": "contracts/BlastEquipmentNFT.sol:BlastEquipmentNFT",
            "label": "_value",
            "offset": 0,
            "slot": "0",
            "type": "t_uint256"
          }
        ],
        "numberOfBytes": "32"
      },
      "t_struct(RoleData)65_storage": {
        "encoding": "inplace",
        "label": "struct AccessControl.RoleData",
        "members": [
          {
            "astId": 62,
            "contract": "contracts/BlastEquipmentNFT.sol:BlastEquipmentNFT",
            "label": "members",
            "offset": 0,
            "slot": "0",
            "type": "t_mapping(t_address,t_bool)"
          },
          {
            "astId": 64,
            "contract": "contracts/BlastEquipmentNFT.sol:BlastEquipmentNFT",
            "label": "adminRole",
            "offset": 0,
            "slot": "1",
            "type": "t_bytes32"
          }
        ],
        "numberOfBytes": "64"
      },
      "t_struct(StaticAttributes)13452_storage": {
        "encoding": "inplace",
        "label": "struct StaticAttributes",
        "members": [
          {
            "astId": 13441,
            "contract": "contracts/BlastEquipmentNFT.sol:BlastEquipmentNFT",
            "label": "maxLevel",
            "offset": 0,
            "slot": "0",
            "type": "t_uint8"
          },
          {
            "astId": 13443,
            "contract": "contracts/BlastEquipmentNFT.sol:BlastEquipmentNFT",
            "label": "maxDurability",
            "offset": 1,
            "slot": "0",
            "type": "t_uint8"
          },
          {
            "astId": 13445,
            "contract": "contracts/BlastEquipmentNFT.sol:BlastEquipmentNFT",
            "label": "maxReplication",
            "offset": 2,
            "slot": "0",
            "type": "t_uint8"
          },
          {
            "astId": 13447,
            "contract": "contracts/BlastEquipmentNFT.sol:BlastEquipmentNFT",
            "label": "adjective",
            "offset": 3,
            "slot": "0",
            "type": "t_uint8"
          },
          {
            "astId": 13449,
            "contract": "contracts/BlastEquipmentNFT.sol:BlastEquipmentNFT",
            "label": "rarity",
            "offset": 4,
            "slot": "0",
            "type": "t_uint8"
          },
          {
            "astId": 13451,
            "contract": "contracts/BlastEquipmentNFT.sol:BlastEquipmentNFT",
            "label": "grade",
            "offset": 5,
            "slot": "0",
            "type": "t_uint8"
          }
        ],
        "numberOfBytes": "32"
      },
      "t_struct(VariableAttributes)6706_storage": {
        "encoding": "inplace",
        "label": "struct BlastEquipmentNFT.VariableAttributes",
        "members": [
          {
            "astId": 6695,
            "contract": "contracts/BlastEquipmentNFT.sol:BlastEquipmentNFT",
            "label": "level",
            "offset": 0,
            "slot": "0",
            "type": "t_uint256"
          },
          {
            "astId": 6697,
            "contract": "contracts/BlastEquipmentNFT.sol:BlastEquipmentNFT",
            "label": "durabilityRestored",
            "offset": 0,
            "slot": "1",
            "type": "t_uint256"
          },
          {
            "astId": 6699,
            "contract": "contracts/BlastEquipmentNFT.sol:BlastEquipmentNFT",
            "label": "durability",
            "offset": 0,
            "slot": "2",
            "type": "t_uint256"
          },
          {
            "astId": 6701,
            "contract": "contracts/BlastEquipmentNFT.sol:BlastEquipmentNFT",
            "label": "lastRepairTime",
            "offset": 0,
            "slot": "3",
            "type": "t_uint256"
          },
          {
            "astId": 6703,
            "contract": "contracts/BlastEquipmentNFT.sol:BlastEquipmentNFT",
            "label": "repairCount",
            "offset": 0,
            "slot": "4",
            "type": "t_uint256"
          },
          {
            "astId": 6705,
            "contract": "contracts/BlastEquipmentNFT.sol:BlastEquipmentNFT",
            "label": "replicationCount",
            "offset": 0,
            "slot": "5",
            "type": "t_uint256"
          }
        ],
        "numberOfBytes": "192"
      },
      "t_uint256": {
        "encoding": "inplace",
        "label": "uint256",
        "numberOfBytes": "32"
      },
      "t_uint8": {
        "encoding": "inplace",
        "label": "uint8",
        "numberOfBytes": "1"
      }
    }
  }
}