{
  "address": "0x1Bb68c22F79c25F2C4F337eC6D8B54D4a0b80741",
  "abi": [
    {
      "inputs": [
        {
          "internalType": "string",
          "name": "name",
          "type": "string"
        },
        {
          "internalType": "string",
          "name": "symbol",
          "type": "string"
        },
        {
          "internalType": "contract IBlastEquipmentNFT",
          "name": "_blastEquipmentNFT",
          "type": "address"
        }
      ],
      "stateMutability": "nonpayable",
      "type": "constructor"
    },
    {
      "anonymous": false,
      "inputs": [
        {
          "indexed": true,
          "internalType": "address",
          "name": "owner",
          "type": "address"
        },
        {
          "indexed": true,
          "internalType": "address",
          "name": "approved",
          "type": "address"
        },
        {
          "indexed": true,
          "internalType": "uint256",
          "name": "tokenId",
          "type": "uint256"
        }
      ],
      "name": "Approval",
      "type": "event"
    },
    {
      "anonymous": false,
      "inputs": [
        {
          "indexed": true,
          "internalType": "address",
          "name": "owner",
          "type": "address"
        },
        {
          "indexed": true,
          "internalType": "address",
          "name": "operator",
          "type": "address"
        },
        {
          "indexed": false,
          "internalType": "bool",
          "name": "approved",
          "type": "bool"
        }
      ],
      "name": "ApprovalForAll",
      "type": "event"
    },
    {
      "anonymous": false,
      "inputs": [
        {
          "indexed": false,
          "internalType": "uint256",
          "name": "lootboxId",
          "type": "uint256"
        },
        {
          "indexed": false,
          "internalType": "uint256",
          "name": "token0",
          "type": "uint256"
        },
        {
          "indexed": false,
          "internalType": "uint256",
          "name": "token1",
          "type": "uint256"
        },
        {
          "indexed": false,
          "internalType": "uint256",
          "name": "token2",
          "type": "uint256"
        }
      ],
      "name": "Open",
      "type": "event"
    },
    {
      "anonymous": false,
      "inputs": [
        {
          "indexed": false,
          "internalType": "address",
          "name": "account",
          "type": "address"
        }
      ],
      "name": "Paused",
      "type": "event"
    },
    {
      "anonymous": false,
      "inputs": [
        {
          "indexed": true,
          "internalType": "bytes32",
          "name": "role",
          "type": "bytes32"
        },
        {
          "indexed": true,
          "internalType": "bytes32",
          "name": "previousAdminRole",
          "type": "bytes32"
        },
        {
          "indexed": true,
          "internalType": "bytes32",
          "name": "newAdminRole",
          "type": "bytes32"
        }
      ],
      "name": "RoleAdminChanged",
      "type": "event"
    },
    {
      "anonymous": false,
      "inputs": [
        {
          "indexed": true,
          "internalType": "bytes32",
          "name": "role",
          "type": "bytes32"
        },
        {
          "indexed": true,
          "internalType": "address",
          "name": "account",
          "type": "address"
        },
        {
          "indexed": true,
          "internalType": "address",
          "name": "sender",
          "type": "address"
        }
      ],
      "name": "RoleGranted",
      "type": "event"
    },
    {
      "anonymous": false,
      "inputs": [
        {
          "indexed": true,
          "internalType": "bytes32",
          "name": "role",
          "type": "bytes32"
        },
        {
          "indexed": true,
          "internalType": "address",
          "name": "account",
          "type": "address"
        },
        {
          "indexed": true,
          "internalType": "address",
          "name": "sender",
          "type": "address"
        }
      ],
      "name": "RoleRevoked",
      "type": "event"
    },
    {
      "anonymous": false,
      "inputs": [
        {
          "indexed": true,
          "internalType": "address",
          "name": "from",
          "type": "address"
        },
        {
          "indexed": true,
          "internalType": "address",
          "name": "to",
          "type": "address"
        },
        {
          "indexed": true,
          "internalType": "uint256",
          "name": "tokenId",
          "type": "uint256"
        }
      ],
      "name": "Transfer",
      "type": "event"
    },
    {
      "anonymous": false,
      "inputs": [
        {
          "indexed": false,
          "internalType": "address",
          "name": "account",
          "type": "address"
        }
      ],
      "name": "Unpaused",
      "type": "event"
    },
    {
      "inputs": [],
      "name": "DEFAULT_ADMIN_ROLE",
      "outputs": [
        {
          "internalType": "bytes32",
          "name": "",
          "type": "bytes32"
        }
      ],
      "stateMutability": "view",
      "type": "function"
    },
    {
      "inputs": [],
      "name": "GAME_ROLE",
      "outputs": [
        {
          "internalType": "bytes32",
          "name": "",
          "type": "bytes32"
        }
      ],
      "stateMutability": "view",
      "type": "function"
    },
    {
      "inputs": [],
      "name": "_tokenIdCounter",
      "outputs": [
        {
          "internalType": "uint256",
          "name": "_value",
          "type": "uint256"
        }
      ],
      "stateMutability": "view",
      "type": "function"
    },
    {
      "inputs": [
        {
          "internalType": "address",
          "name": "to",
          "type": "address"
        },
        {
          "internalType": "uint256",
          "name": "tokenId",
          "type": "uint256"
        }
      ],
      "name": "approve",
      "outputs": [],
      "stateMutability": "nonpayable",
      "type": "function"
    },
    {
      "inputs": [
        {
          "internalType": "address",
          "name": "owner",
          "type": "address"
        }
      ],
      "name": "balanceOf",
      "outputs": [
        {
          "internalType": "uint256",
          "name": "",
          "type": "uint256"
        }
      ],
      "stateMutability": "view",
      "type": "function"
    },
    {
      "inputs": [],
      "name": "blastEquipmentNFT",
      "outputs": [
        {
          "internalType": "contract IBlastEquipmentNFT",
          "name": "",
          "type": "address"
        }
      ],
      "stateMutability": "view",
      "type": "function"
    },
    {
      "inputs": [
        {
          "internalType": "uint256",
          "name": "tokenId",
          "type": "uint256"
        }
      ],
      "name": "getApproved",
      "outputs": [
        {
          "internalType": "address",
          "name": "",
          "type": "address"
        }
      ],
      "stateMutability": "view",
      "type": "function"
    },
    {
      "inputs": [
        {
          "internalType": "bytes32",
          "name": "role",
          "type": "bytes32"
        }
      ],
      "name": "getRoleAdmin",
      "outputs": [
        {
          "internalType": "bytes32",
          "name": "",
          "type": "bytes32"
        }
      ],
      "stateMutability": "view",
      "type": "function"
    },
    {
      "inputs": [
        {
          "internalType": "uint256",
          "name": "_tokenId",
          "type": "uint256"
        }
      ],
      "name": "getTokenType",
      "outputs": [
        {
          "internalType": "uint8",
          "name": "",
          "type": "uint8"
        }
      ],
      "stateMutability": "view",
      "type": "function"
    },
    {
      "inputs": [
        {
          "internalType": "bytes32",
          "name": "role",
          "type": "bytes32"
        },
        {
          "internalType": "address",
          "name": "account",
          "type": "address"
        }
      ],
      "name": "grantRole",
      "outputs": [],
      "stateMutability": "nonpayable",
      "type": "function"
    },
    {
      "inputs": [
        {
          "internalType": "bytes32",
          "name": "role",
          "type": "bytes32"
        },
        {
          "internalType": "address",
          "name": "account",
          "type": "address"
        }
      ],
      "name": "hasRole",
      "outputs": [
        {
          "internalType": "bool",
          "name": "",
          "type": "bool"
        }
      ],
      "stateMutability": "view",
      "type": "function"
    },
    {
      "inputs": [
        {
          "internalType": "address",
          "name": "owner",
          "type": "address"
        },
        {
          "internalType": "address",
          "name": "operator",
          "type": "address"
        }
      ],
      "name": "isApprovedForAll",
      "outputs": [
        {
          "internalType": "bool",
          "name": "",
          "type": "bool"
        }
      ],
      "stateMutability": "view",
      "type": "function"
    },
    {
      "inputs": [],
      "name": "name",
      "outputs": [
        {
          "internalType": "string",
          "name": "",
          "type": "string"
        }
      ],
      "stateMutability": "view",
      "type": "function"
    },
    {
      "inputs": [
        {
          "internalType": "address",
          "name": "",
          "type": "address"
        },
        {
          "internalType": "address",
          "name": "",
          "type": "address"
        },
        {
          "internalType": "uint256",
          "name": "",
          "type": "uint256"
        },
        {
          "internalType": "bytes",
          "name": "",
          "type": "bytes"
        }
      ],
      "name": "onERC721Received",
      "outputs": [
        {
          "internalType": "bytes4",
          "name": "",
          "type": "bytes4"
        }
      ],
      "stateMutability": "nonpayable",
      "type": "function"
    },
    {
      "inputs": [
        {
          "internalType": "uint256",
          "name": "_tokenId",
          "type": "uint256"
        }
      ],
      "name": "open",
      "outputs": [],
      "stateMutability": "nonpayable",
      "type": "function"
    },
    {
      "inputs": [],
      "name": "openAvailable",
      "outputs": [
        {
          "internalType": "bool",
          "name": "",
          "type": "bool"
        }
      ],
      "stateMutability": "view",
      "type": "function"
    },
    {
      "inputs": [
        {
          "internalType": "uint256",
          "name": "_tokenId",
          "type": "uint256"
        },
        {
          "internalType": "address",
          "name": "_to",
          "type": "address"
        }
      ],
      "name": "openTo",
      "outputs": [],
      "stateMutability": "nonpayable",
      "type": "function"
    },
    {
      "inputs": [
        {
          "internalType": "uint256",
          "name": "tokenId",
          "type": "uint256"
        }
      ],
      "name": "ownerOf",
      "outputs": [
        {
          "internalType": "address",
          "name": "",
          "type": "address"
        }
      ],
      "stateMutability": "view",
      "type": "function"
    },
    {
      "inputs": [
        {
          "internalType": "bool",
          "name": "stop",
          "type": "bool"
        }
      ],
      "name": "pause",
      "outputs": [],
      "stateMutability": "nonpayable",
      "type": "function"
    },
    {
      "inputs": [],
      "name": "paused",
      "outputs": [
        {
          "internalType": "bool",
          "name": "",
          "type": "bool"
        }
      ],
      "stateMutability": "view",
      "type": "function"
    },
    {
      "inputs": [
        {
          "internalType": "bytes32",
          "name": "role",
          "type": "bytes32"
        },
        {
          "internalType": "address",
          "name": "account",
          "type": "address"
        }
      ],
      "name": "renounceRole",
      "outputs": [],
      "stateMutability": "nonpayable",
      "type": "function"
    },
    {
      "inputs": [
        {
          "internalType": "bytes32",
          "name": "role",
          "type": "bytes32"
        },
        {
          "internalType": "address",
          "name": "account",
          "type": "address"
        }
      ],
      "name": "revokeRole",
      "outputs": [],
      "stateMutability": "nonpayable",
      "type": "function"
    },
    {
      "inputs": [
        {
          "internalType": "address[]",
          "name": "_to",
          "type": "address[]"
        },
        {
          "internalType": "string[]",
          "name": "_uri",
          "type": "string[]"
        },
        {
          "components": [
            {
              "internalType": "uint256",
              "name": "token0",
              "type": "uint256"
            },
            {
              "internalType": "uint256",
              "name": "token1",
              "type": "uint256"
            },
            {
              "internalType": "uint256",
              "name": "token2",
              "type": "uint256"
            }
          ],
          "internalType": "struct BlastLootBox.LootBox[]",
          "name": "_eqtIds",
          "type": "tuple[]"
        },
        {
          "internalType": "uint8",
          "name": "_tokenType",
          "type": "uint8"
        }
      ],
      "name": "safeMint",
      "outputs": [],
      "stateMutability": "nonpayable",
      "type": "function"
    },
    {
      "inputs": [
        {
          "internalType": "address",
          "name": "from",
          "type": "address"
        },
        {
          "internalType": "address",
          "name": "to",
          "type": "address"
        },
        {
          "internalType": "uint256",
          "name": "tokenId",
          "type": "uint256"
        }
      ],
      "name": "safeTransferFrom",
      "outputs": [],
      "stateMutability": "nonpayable",
      "type": "function"
    },
    {
      "inputs": [
        {
          "internalType": "address",
          "name": "from",
          "type": "address"
        },
        {
          "internalType": "address",
          "name": "to",
          "type": "address"
        },
        {
          "internalType": "uint256",
          "name": "tokenId",
          "type": "uint256"
        },
        {
          "internalType": "bytes",
          "name": "data",
          "type": "bytes"
        }
      ],
      "name": "safeTransferFrom",
      "outputs": [],
      "stateMutability": "nonpayable",
      "type": "function"
    },
    {
      "inputs": [
        {
          "internalType": "address",
          "name": "operator",
          "type": "address"
        },
        {
          "internalType": "bool",
          "name": "approved",
          "type": "bool"
        }
      ],
      "name": "setApprovalForAll",
      "outputs": [],
      "stateMutability": "nonpayable",
      "type": "function"
    },
    {
      "inputs": [
        {
          "internalType": "bool",
          "name": "_status",
          "type": "bool"
        }
      ],
      "name": "setOpenAvailableStatus",
      "outputs": [],
      "stateMutability": "nonpayable",
      "type": "function"
    },
    {
      "inputs": [
        {
          "internalType": "bytes4",
          "name": "interfaceId",
          "type": "bytes4"
        }
      ],
      "name": "supportsInterface",
      "outputs": [
        {
          "internalType": "bool",
          "name": "",
          "type": "bool"
        }
      ],
      "stateMutability": "view",
      "type": "function"
    },
    {
      "inputs": [],
      "name": "symbol",
      "outputs": [
        {
          "internalType": "string",
          "name": "",
          "type": "string"
        }
      ],
      "stateMutability": "view",
      "type": "function"
    },
    {
      "inputs": [
        {
          "internalType": "uint256",
          "name": "tokenId",
          "type": "uint256"
        }
      ],
      "name": "tokenURI",
      "outputs": [
        {
          "internalType": "string",
          "name": "",
          "type": "string"
        }
      ],
      "stateMutability": "view",
      "type": "function"
    },
    {
      "inputs": [
        {
          "internalType": "address",
          "name": "from",
          "type": "address"
        },
        {
          "internalType": "address",
          "name": "to",
          "type": "address"
        },
        {
          "internalType": "uint256",
          "name": "tokenId",
          "type": "uint256"
        }
      ],
      "name": "transferFrom",
      "outputs": [],
      "stateMutability": "nonpayable",
      "type": "function"
    }
  ],
  "transactionHash": "0x8345dd94ff92b7c22bbbb7e013c4d6f525348bd8e1604cdc48a898fbda5de30d",
  "args": [
    "Test Blast Lootbox",
    "TestBLX",
    "0xb1e2ba7D374e3A9B4EefbF8Df49516B277459b78"
  ],
  "numDeployments": 1,
  "solcInputHash": "9679bf2be07d0d5ae98ab346fabce69b",
  "bytecode": "0x60806040523480156200001157600080fd5b5060405162002c2b38038062002c2b833981016040819052620000349162000352565b8251839083906200004d906000906020850190620001d2565b50805162000063906001906020840190620001d2565b50506007805460ff19169055506040805180820190915260018152603160f81b60208201526001600160a01b038216620000bb5760405162461bcd60e51b8152600401620000b29190620003df565b60405180910390fd5b50620000c96000336200011e565b620000f57f6a64baf327d646d1bca72653e2a075d15fd6ac6d8cbd7f6ee03fc55875e0fa88336200011e565b600c80546001600160a01b0319166001600160a01b039290921691909117905550620004519050565b6200012a82826200012e565b5050565b60008281526008602090815260408083206001600160a01b038516845290915290205460ff166200012a5760008281526008602090815260408083206001600160a01b03851684529091529020805460ff191660011790556200018e3390565b6001600160a01b0316816001600160a01b0316837f2f8788117e7eff1d82e926ec794901d17c78024a50270940304540a733656f0d60405160405180910390a45050565b828054620001e09062000414565b90600052602060002090601f0160209004810192826200020457600085556200024f565b82601f106200021f57805160ff19168380011785556200024f565b828001600101855582156200024f579182015b828111156200024f57825182559160200191906001019062000232565b506200025d92915062000261565b5090565b5b808211156200025d576000815560010162000262565b634e487b7160e01b600052604160045260246000fd5b60005b83811015620002ab57818101518382015260200162000291565b83811115620002bb576000848401525b50505050565b600082601f830112620002d357600080fd5b81516001600160401b0380821115620002f057620002f062000278565b604051601f8301601f19908116603f011681019082821181831017156200031b576200031b62000278565b816040528381528660208588010111156200033557600080fd5b620003488460208301602089016200028e565b9695505050505050565b6000806000606084860312156200036857600080fd5b83516001600160401b03808211156200038057600080fd5b6200038e87838801620002c1565b94506020860151915080821115620003a557600080fd5b50620003b486828701620002c1565b604086015190935090506001600160a01b0381168114620003d457600080fd5b809150509250925092565b6020815260008251806020840152620004008160408501602087016200028e565b601f01601f19169190910160400192915050565b600181811c908216806200042957607f821691505b602082108114156200044b57634e487b7160e01b600052602260045260246000fd5b50919050565b6127ca80620004616000396000f3fe608060405234801561001057600080fd5b50600436106101e55760003560e01c806370a082311161010f578063a217fddf116100a2578063c15b712c11610071578063c15b712c14610463578063c87b56dd14610476578063d547741f14610489578063e985e9c51461049c57600080fd5b8063a217fddf1461040e578063a22cb46514610416578063ab40070614610429578063b88d4fde1461045057600080fd5b806384c4bd4b116100de57806384c4bd4b146103d65780638d2a703e146103e057806391d14854146103f357806395d89b411461040657600080fd5b806370a082311461036857806372c6239a1461037b57806376aed2e11461038e5780637edee2b3146103c357600080fd5b8063248a9ca31161018757806342842e0e1161015657806342842e0e146103245780635c975abb146103375780636352211e14610342578063690e7c091461035557600080fd5b8063248a9ca3146102b95780632f2ff15d146102ea57806336568abe146102fd5780633bfca2f91461031057600080fd5b8063081812fc116101c3578063081812fc1461023c578063095ea7b314610267578063150b7a021461027a57806323b872dd146102a657600080fd5b806301ffc9a7146101ea57806302329a291461021257806306fdde0314610227575b600080fd5b6101fd6101f8366004612077565b6104d8565b60405190151581526020015b60405180910390f35b6102256102203660046120a9565b6104e9565b005b61022f61050e565b604051610209919061211c565b61024f61024a36600461212f565b6105a0565b6040516001600160a01b039091168152602001610209565b61022561027536600461215f565b6105c7565b61028d61028836600461219f565b6106e2565b6040516001600160e01b03199091168152602001610209565b6102256102b436600461227b565b6106f3565b6102dc6102c736600461212f565b60009081526008602052604090206001015490565b604051908152602001610209565b6102256102f83660046122b7565b610724565b61022561030b3660046122b7565b610749565b600c546101fd90600160a01b900460ff1681565b61022561033236600461227b565b6107c3565b60075460ff166101fd565b61024f61035036600461212f565b6107de565b61022561036336600461212f565b61083e565b6102dc6103763660046122e3565b610939565b600c5461024f906001600160a01b031681565b6103b161039c36600461212f565b6000908152600b602052604090205460ff1690565b60405160ff9091168152602001610209565b6102256103d136600461235b565b6109bf565b6009546102dc9081565b6102256103ee3660046122b7565b610b96565b6101fd6104013660046122b7565b610cb8565b61022f610ce3565b6102dc600081565b610225610424366004612436565b610cf2565b6102dc7f6a64baf327d646d1bca72653e2a075d15fd6ac6d8cbd7f6ee03fc55875e0fa8881565b61022561045e36600461219f565b610cfd565b6102256104713660046120a9565b610d35565b61022f61048436600461212f565b610d5f565b6102256104973660046122b7565b610d6a565b6101fd6104aa366004612460565b6001600160a01b03918216600090815260056020908152604080832093909416825291909152205460ff1690565b60006104e382610d8f565b92915050565b60006104f481610db4565b811561050657610502610dbe565b5050565b610502610e18565b60606000805461051d9061248a565b80601f01602080910402602001604051908101604052809291908181526020018280546105499061248a565b80156105965780601f1061056b57610100808354040283529160200191610596565b820191906000526020600020905b81548152906001019060200180831161057957829003601f168201915b5050505050905090565b60006105ab82610e51565b506000908152600460205260409020546001600160a01b031690565b60006105d2826107de565b9050806001600160a01b0316836001600160a01b031614156106455760405162461bcd60e51b815260206004820152602160248201527f4552433732313a20617070726f76616c20746f2063757272656e74206f776e656044820152603960f91b60648201526084015b60405180910390fd5b336001600160a01b0382161480610661575061066181336104aa565b6106d35760405162461bcd60e51b815260206004820152603e60248201527f4552433732313a20617070726f76652063616c6c6572206973206e6f7420746f60448201527f6b656e206f776e6572206e6f7220617070726f76656420666f7220616c6c0000606482015260840161063c565b6106dd8383610eb0565b505050565b630a85bd0160e11b5b949350505050565b6106fd3382610f1e565b6107195760405162461bcd60e51b815260040161063c906124c5565b6106dd838383610f9c565b60008281526008602052604090206001015461073f81610db4565b6106dd8383611143565b6001600160a01b03811633146107b95760405162461bcd60e51b815260206004820152602f60248201527f416363657373436f6e74726f6c3a2063616e206f6e6c792072656e6f756e636560448201526e103937b632b9903337b91039b2b63360891b606482015260840161063c565b61050282826111c9565b6106dd83838360405180602001604052806000815250610cfd565b6000818152600260205260408120546001600160a01b0316806104e35760405162461bcd60e51b8152602060048201526018602482015277115490cdcc8c4e881a5b9d985b1a59081d1bdad95b88125160421b604482015260640161063c565b6000818152600260205260409020546001600160a01b03161515604051806040016040528060018152602001600d60fa1b815250906108905760405162461bcd60e51b815260040161063c919061211c565b5061089a816107de565b6001600160a01b0316336001600160a01b031614604051806040016040528060018152602001603360f81b815250906108e65760405162461bcd60e51b815260040161063c919061211c565b50600c54604080518082019091526002815261062760f31b602082015290600160a01b900460ff1661092b5760405162461bcd60e51b815260040161063c919061211c565b506109368133611230565b50565b60006001600160a01b0382166109a35760405162461bcd60e51b815260206004820152602960248201527f4552433732313a2061646472657373207a65726f206973206e6f7420612076616044820152683634b21037bbb732b960b91b606482015260840161063c565b506001600160a01b031660009081526003602052604090205490565b60006109ca81610db4565b86851480156109d857508683145b604051806040016040528060018152602001603560f81b81525090610a105760405162461bcd60e51b815260040161063c919061211c565b508160ff1660011480610a2657508160ff166002145b604051806040016040528060018152602001603560f81b81525090610a5e5760405162461bcd60e51b815260040161063c919061211c565b5060005b87811015610b8b576000610a7560095490565b9050610a85600980546001019055565b858583818110610a9757610a97612513565b6000848152600a6020908152604091829020606090930294909401803583559384013560018301558301356002820155905050506000818152600b60205260409020805460ff191660ff8616179055610b168a8a84818110610afb57610afb612513565b9050602002016020810190610b1091906122e3565b8261154a565b610b7881898985818110610b2c57610b2c612513565b9050602002810190610b3e9190612529565b8080601f01602080910402602001604051908101604052809392919081815260200183838082843760009201919091525061169892505050565b5080610b8381612586565b915050610a62565b505050505050505050565b7f6a64baf327d646d1bca72653e2a075d15fd6ac6d8cbd7f6ee03fc55875e0fa88610bc081610db4565b6000838152600260205260409020546001600160a01b03161515604051806040016040528060018152602001600d60fa1b81525090610c125760405162461bcd60e51b815260040161063c919061211c565b50610c1c836107de565b6001600160a01b0316826001600160a01b031614604051806040016040528060018152602001603360f81b81525090610c685760405162461bcd60e51b815260040161063c919061211c565b50600c54604080518082019091526002815261062760f31b602082015290600160a01b900460ff16610cad5760405162461bcd60e51b815260040161063c919061211c565b506106dd8383611230565b60009182526008602090815260408084206001600160a01b0393909316845291905290205460ff1690565b60606001805461051d9061248a565b610502338383611732565b610d073383610f1e565b610d235760405162461bcd60e51b815260040161063c906124c5565b610d2f84848484611801565b50505050565b6000610d4081610db4565b50600c8054911515600160a01b0260ff60a01b19909216919091179055565b60606104e382611834565b600082815260086020526040902060010154610d8581610db4565b6106dd83836111c9565b60006001600160e01b03198216637965db0b60e01b14806104e357506104e38261193d565b610936813361198d565b610dc66119f1565b6007805460ff191660011790557f62e78cea01bee320cd4e420270b5ea74000d11b0c9f74754ebdbfc544b05a258610dfb3390565b6040516001600160a01b03909116815260200160405180910390a1565b610e20611a39565b6007805460ff191690557f5db9ee0a495bf2e6ff9c91a7834c1ba4fdd244a5e8aa4e537bd38aeae4b073aa33610dfb565b6000818152600260205260409020546001600160a01b03166109365760405162461bcd60e51b8152602060048201526018602482015277115490cdcc8c4e881a5b9d985b1a59081d1bdad95b88125160421b604482015260640161063c565b600081815260046020526040902080546001600160a01b0319166001600160a01b0384169081179091558190610ee5826107de565b6001600160a01b03167f8c5be1e5ebec7d5bd14f71427d1e84f3dd0314c0f7b2291e5b200ac8c7c3b92560405160405180910390a45050565b600080610f2a836107de565b9050806001600160a01b0316846001600160a01b03161480610f7157506001600160a01b0380821660009081526005602090815260408083209388168352929052205460ff165b806106eb5750836001600160a01b0316610f8a846105a0565b6001600160a01b031614949350505050565b826001600160a01b0316610faf826107de565b6001600160a01b0316146110135760405162461bcd60e51b815260206004820152602560248201527f4552433732313a207472616e736665722066726f6d20696e636f72726563742060448201526437bbb732b960d91b606482015260840161063c565b6001600160a01b0382166110755760405162461bcd60e51b8152602060048201526024808201527f4552433732313a207472616e7366657220746f20746865207a65726f206164646044820152637265737360e01b606482015260840161063c565b611080838383611a82565b61108b600082610eb0565b6001600160a01b03831660009081526003602052604081208054600192906110b49084906125a1565b90915550506001600160a01b03821660009081526003602052604081208054600192906110e29084906125b8565b909155505060008181526002602052604080822080546001600160a01b0319166001600160a01b0386811691821790925591518493918716917fddf252ad1be2c89b69c2b068fc378daa952ba7f163c4a11628f55a4df523b3ef91a4505050565b61114d8282610cb8565b6105025760008281526008602090815260408083206001600160a01b03851684529091529020805460ff191660011790556111853390565b6001600160a01b0316816001600160a01b0316837f2f8788117e7eff1d82e926ec794901d17c78024a50270940304540a733656f0d60405160405180910390a45050565b6111d38282610cb8565b156105025760008281526008602090815260408083206001600160a01b0385168085529252808320805460ff1916905551339285917ff6391f5c32d9c69d2a47ea670b442974b53935d1edc7fd64eb21e047a839171b9190a45050565b6000828152600a60209081526040918290208251606081018452815480825260018301549382019390935260029091015481840152600c5492516323b872dd60e01b81523060048201526001600160a01b0385811660248301526044820193909352909291909116906323b872dd90606401600060405180830381600087803b1580156112bc57600080fd5b505af11580156112d0573d6000803e3d6000fd5b5050600c5460208401516040516323b872dd60e01b81523060048201526001600160a01b0387811660248301526044820192909252911692506323b872dd9150606401600060405180830381600087803b15801561132d57600080fd5b505af1158015611341573d6000803e3d6000fd5b5050600c5460408481015190516323b872dd60e01b81523060048201526001600160a01b0387811660248301526044820192909252911692506323b872dd9150606401600060405180830381600087803b15801561139e57600080fd5b505af11580156113b2573d6000803e3d6000fd5b5050600c54835160405163058169e360e51b81526001600160a01b03909216935063b02d3c6092506113ea9160040190815260200190565b600060405180830381600087803b15801561140457600080fd5b505af1158015611418573d6000803e3d6000fd5b5050600c54602084015160405163058169e360e51b81526001600160a01b03909216935063b02d3c6092506114539160040190815260200190565b600060405180830381600087803b15801561146d57600080fd5b505af1158015611481573d6000803e3d6000fd5b5050600c54604080850151905163058169e360e51b81526001600160a01b03909216935063b02d3c6092506114bc9160040190815260200190565b600060405180830381600087803b1580156114d657600080fd5b505af11580156114ea573d6000803e3d6000fd5b5050825160208085015160408087015181518a81529384019490945282015260608101919091527f02fb9daf56c977530f60990eb8cd0510bc01218fd6376151dd4e91b660e579219250608001905060405180910390a16106dd83611a8a565b6001600160a01b0382166115a05760405162461bcd60e51b815260206004820181905260248201527f4552433732313a206d696e7420746f20746865207a65726f2061646472657373604482015260640161063c565b6000818152600260205260409020546001600160a01b0316156116055760405162461bcd60e51b815260206004820152601c60248201527f4552433732313a20746f6b656e20616c7265616479206d696e74656400000000604482015260640161063c565b61161160008383611a82565b6001600160a01b038216600090815260036020526040812080546001929061163a9084906125b8565b909155505060008181526002602052604080822080546001600160a01b0319166001600160a01b03861690811790915590518392907fddf252ad1be2c89b69c2b068fc378daa952ba7f163c4a11628f55a4df523b3ef908290a45050565b6000828152600260205260409020546001600160a01b03166117135760405162461bcd60e51b815260206004820152602e60248201527f45524337323155524953746f726167653a2055524920736574206f66206e6f6e60448201526d32bc34b9ba32b73a103a37b5b2b760911b606482015260840161063c565b600082815260066020908152604090912082516106dd92840190611f92565b816001600160a01b0316836001600160a01b031614156117945760405162461bcd60e51b815260206004820152601960248201527f4552433732313a20617070726f766520746f2063616c6c657200000000000000604482015260640161063c565b6001600160a01b03838116600081815260056020908152604080832094871680845294825291829020805460ff191686151590811790915591519182527f17307eab39ab6107e8899845ad3d59bd9653f200f220920489ca2b5937696c31910160405180910390a3505050565b61180c848484610f9c565b61181884848484611a93565b610d2f5760405162461bcd60e51b815260040161063c906125d0565b606061183f82610e51565b600082815260066020526040812080546118589061248a565b80601f01602080910402602001604051908101604052809291908181526020018280546118849061248a565b80156118d15780601f106118a6576101008083540402835291602001916118d1565b820191906000526020600020905b8154815290600101906020018083116118b457829003601f168201915b5050505050905060006118ef60408051602081019091526000815290565b9050805160001415611902575092915050565b81511561193457808260405160200161191c929190612622565b60405160208183030381529060405292505050919050565b6106eb84611b9d565b60006001600160e01b031982166380ac58cd60e01b148061196e57506001600160e01b03198216635b5e139f60e01b145b806104e357506301ffc9a760e01b6001600160e01b03198316146104e3565b6119978282610cb8565b610502576119af816001600160a01b03166014611c11565b6119ba836020611c11565b6040516020016119cb929190612651565b60408051601f198184030181529082905262461bcd60e51b825261063c9160040161211c565b60075460ff1615611a375760405162461bcd60e51b815260206004820152601060248201526f14185d5cd8589b194e881c185d5cd95960821b604482015260640161063c565b565b60075460ff16611a375760405162461bcd60e51b815260206004820152601460248201527314185d5cd8589b194e881b9bdd081c185d5cd95960621b604482015260640161063c565b6106dd6119f1565b61093681611dad565b60006001600160a01b0384163b15611b9557604051630a85bd0160e11b81526001600160a01b0385169063150b7a0290611ad79033908990889088906004016126c6565b602060405180830381600087803b158015611af157600080fd5b505af1925050508015611b21575060408051601f3d908101601f19168201909252611b1e91810190612703565b60015b611b7b573d808015611b4f576040519150601f19603f3d011682016040523d82523d6000602084013e611b54565b606091505b508051611b735760405162461bcd60e51b815260040161063c906125d0565b805181602001fd5b6001600160e01b031916630a85bd0160e11b1490506106eb565b5060016106eb565b6060611ba882610e51565b6000611bbf60408051602081019091526000815290565b90506000815111611bdf5760405180602001604052806000815250611c0a565b80611be984611ded565b604051602001611bfa929190612622565b6040516020818303038152906040525b9392505050565b60606000611c20836002612720565b611c2b9060026125b8565b67ffffffffffffffff811115611c4357611c43612189565b6040519080825280601f01601f191660200182016040528015611c6d576020820181803683370190505b509050600360fc1b81600081518110611c8857611c88612513565b60200101906001600160f81b031916908160001a905350600f60fb1b81600181518110611cb757611cb7612513565b60200101906001600160f81b031916908160001a9053506000611cdb846002612720565b611ce69060016125b8565b90505b6001811115611d5e576f181899199a1a9b1b9c1cb0b131b232b360811b85600f1660108110611d1a57611d1a612513565b1a60f81b828281518110611d3057611d30612513565b60200101906001600160f81b031916908160001a90535060049490941c93611d578161273f565b9050611ce9565b508315611c0a5760405162461bcd60e51b815260206004820181905260248201527f537472696e67733a20686578206c656e67746820696e73756666696369656e74604482015260640161063c565b611db681611eeb565b60008181526006602052604090208054611dcf9061248a565b15905061093657600081815260066020526040812061093691612016565b606081611e115750506040805180820190915260018152600360fc1b602082015290565b8160005b8115611e3b5780611e2581612586565b9150611e349050600a8361276c565b9150611e15565b60008167ffffffffffffffff811115611e5657611e56612189565b6040519080825280601f01601f191660200182016040528015611e80576020820181803683370190505b5090505b84156106eb57611e956001836125a1565b9150611ea2600a86612780565b611ead9060306125b8565b60f81b818381518110611ec257611ec2612513565b60200101906001600160f81b031916908160001a905350611ee4600a8661276c565b9450611e84565b6000611ef6826107de565b9050611f0481600084611a82565b611f0f600083610eb0565b6001600160a01b0381166000908152600360205260408120805460019290611f389084906125a1565b909155505060008281526002602052604080822080546001600160a01b0319169055518391906001600160a01b038416907fddf252ad1be2c89b69c2b068fc378daa952ba7f163c4a11628f55a4df523b3ef908390a45050565b828054611f9e9061248a565b90600052602060002090601f016020900481019282611fc05760008555612006565b82601f10611fd957805160ff1916838001178555612006565b82800160010185558215612006579182015b82811115612006578251825591602001919060010190611feb565b5061201292915061204c565b5090565b5080546120229061248a565b6000825580601f10612032575050565b601f01602090049060005260206000209081019061093691905b5b80821115612012576000815560010161204d565b6001600160e01b03198116811461093657600080fd5b60006020828403121561208957600080fd5b8135611c0a81612061565b803580151581146120a457600080fd5b919050565b6000602082840312156120bb57600080fd5b611c0a82612094565b60005b838110156120df5781810151838201526020016120c7565b83811115610d2f5750506000910152565b600081518084526121088160208601602086016120c4565b601f01601f19169290920160200192915050565b602081526000611c0a60208301846120f0565b60006020828403121561214157600080fd5b5035919050565b80356001600160a01b03811681146120a457600080fd5b6000806040838503121561217257600080fd5b61217b83612148565b946020939093013593505050565b634e487b7160e01b600052604160045260246000fd5b600080600080608085870312156121b557600080fd5b6121be85612148565b93506121cc60208601612148565b925060408501359150606085013567ffffffffffffffff808211156121f057600080fd5b818701915087601f83011261220457600080fd5b81358181111561221657612216612189565b604051601f8201601f19908116603f0116810190838211818310171561223e5761223e612189565b816040528281528a602084870101111561225757600080fd5b82602086016020830137600060208483010152809550505050505092959194509250565b60008060006060848603121561229057600080fd5b61229984612148565b92506122a760208501612148565b9150604084013590509250925092565b600080604083850312156122ca57600080fd5b823591506122da60208401612148565b90509250929050565b6000602082840312156122f557600080fd5b611c0a82612148565b60008083601f84011261231057600080fd5b50813567ffffffffffffffff81111561232857600080fd5b6020830191508360208260051b850101111561234357600080fd5b9250929050565b803560ff811681146120a457600080fd5b60008060008060008060006080888a03121561237657600080fd5b873567ffffffffffffffff8082111561238e57600080fd5b61239a8b838c016122fe565b909950975060208a01359150808211156123b357600080fd5b6123bf8b838c016122fe565b909750955060408a01359150808211156123d857600080fd5b818a0191508a601f8301126123ec57600080fd5b8135818111156123fb57600080fd5b8b602060608302850101111561241057600080fd5b6020830195508094505050506124286060890161234a565b905092959891949750929550565b6000806040838503121561244957600080fd5b61245283612148565b91506122da60208401612094565b6000806040838503121561247357600080fd5b61247c83612148565b91506122da60208401612148565b600181811c9082168061249e57607f821691505b602082108114156124bf57634e487b7160e01b600052602260045260246000fd5b50919050565b6020808252602e908201527f4552433732313a2063616c6c6572206973206e6f7420746f6b656e206f776e6560408201526d1c881b9bdc88185c1c1c9bdd995960921b606082015260800190565b634e487b7160e01b600052603260045260246000fd5b6000808335601e1984360301811261254057600080fd5b83018035915067ffffffffffffffff82111561255b57600080fd5b60200191503681900382131561234357600080fd5b634e487b7160e01b600052601160045260246000fd5b600060001982141561259a5761259a612570565b5060010190565b6000828210156125b3576125b3612570565b500390565b600082198211156125cb576125cb612570565b500190565b60208082526032908201527f4552433732313a207472616e7366657220746f206e6f6e20455243373231526560408201527131b2b4bb32b91034b6b83632b6b2b73a32b960711b606082015260800190565b600083516126348184602088016120c4565b8351908301906126488183602088016120c4565b01949350505050565b7f416363657373436f6e74726f6c3a206163636f756e74200000000000000000008152600083516126898160178501602088016120c4565b7001034b99036b4b9b9b4b733903937b6329607d1b60179184019182015283516126ba8160288401602088016120c4565b01602801949350505050565b6001600160a01b03858116825284166020820152604081018390526080606082018190526000906126f9908301846120f0565b9695505050505050565b60006020828403121561271557600080fd5b8151611c0a81612061565b600081600019048311821515161561273a5761273a612570565b500290565b60008161274e5761274e612570565b506000190190565b634e487b7160e01b600052601260045260246000fd5b60008261277b5761277b612756565b500490565b60008261278f5761278f612756565b50069056fea26469706673582212208a28f6bb695705086a42ddaca4943750c04ee29dc9ae7784ce049b7a2f1b528264736f6c63430008090033",
  "devdoc": {
    "details": "BlastLootBox ERC721 token",
    "kind": "dev",
    "methods": {
      "approve(address,uint256)": {
        "details": "See {IERC721-approve}."
      },
      "balanceOf(address)": {
        "details": "See {IERC721-balanceOf}."
      },
      "constructor": {
        "params": {
          "name": "Name of the contract",
          "symbol": "Symbol of the contract"
        }
      },
      "getApproved(uint256)": {
        "details": "See {IERC721-getApproved}."
      },
      "getRoleAdmin(bytes32)": {
        "details": "Returns the admin role that controls `role`. See {grantRole} and {revokeRole}. To change a role's admin, use {_setRoleAdmin}."
      },
      "getTokenType(uint256)": {
        "details": "Returned value should be 1 or 2",
        "params": {
          "_tokenId": "Token ID."
        }
      },
      "grantRole(bytes32,address)": {
        "details": "Grants `role` to `account`. If `account` had not been already granted `role`, emits a {RoleGranted} event. Requirements: - the caller must have ``role``'s admin role. May emit a {RoleGranted} event."
      },
      "hasRole(bytes32,address)": {
        "details": "Returns `true` if `account` has been granted `role`."
      },
      "isApprovedForAll(address,address)": {
        "details": "See {IERC721-isApprovedForAll}."
      },
      "name()": {
        "details": "See {IERC721Metadata-name}."
      },
      "onERC721Received(address,address,uint256,bytes)": {
        "details": "See {IERC721Receiver-onERC721Received}. Always returns `IERC721Receiver.onERC721Received.selector`."
      },
      "ownerOf(uint256)": {
        "details": "See {IERC721-ownerOf}."
      },
      "paused()": {
        "details": "Returns true if the contract is paused, and false otherwise."
      },
      "renounceRole(bytes32,address)": {
        "details": "Revokes `role` from the calling account. Roles are often managed via {grantRole} and {revokeRole}: this function's purpose is to provide a mechanism for accounts to lose their privileges if they are compromised (such as when a trusted device is misplaced). If the calling account had been revoked `role`, emits a {RoleRevoked} event. Requirements: - the caller must be `account`. May emit a {RoleRevoked} event."
      },
      "revokeRole(bytes32,address)": {
        "details": "Revokes `role` from `account`. If `account` had been granted `role`, emits a {RoleRevoked} event. Requirements: - the caller must have ``role``'s admin role. May emit a {RoleRevoked} event."
      },
      "safeMint(address[],string[],(uint256,uint256,uint256)[],uint8)": {
        "details": "The caller must have the `DEFAULT_ADMIN_ROLE`. _tokenType should be 1 or 2 (In case of 1, it's normal box. In case of 2, it's gw box)"
      },
      "safeTransferFrom(address,address,uint256)": {
        "details": "See {IERC721-safeTransferFrom}."
      },
      "safeTransferFrom(address,address,uint256,bytes)": {
        "details": "See {IERC721-safeTransferFrom}."
      },
      "setApprovalForAll(address,bool)": {
        "details": "See {IERC721-setApprovalForAll}."
      },
      "supportsInterface(bytes4)": {
        "details": "See {IERC165-supportsInterface}.",
        "params": {
          "interfaceId": "Interface ID."
        }
      },
      "symbol()": {
        "details": "See {IERC721Metadata-symbol}."
      },
      "tokenURI(uint256)": {
        "params": {
          "tokenId": "Token ID."
        }
      },
      "transferFrom(address,address,uint256)": {
        "details": "See {IERC721-transferFrom}."
      }
    },
    "title": "Blast LootBox NFT",
    "version": 1
  },
  "userdoc": {
    "kind": "user",
    "methods": {
      "getTokenType(uint256)": {
        "notice": "Get Token Type. (GWB or NB)"
      },
      "safeMint(address[],string[],(uint256,uint256,uint256)[],uint8)": {
        "notice": "Creates a new token for `_to`. Its token ID will be automatically"
      },
      "tokenURI(uint256)": {
        "notice": "Returns the TokenURI."
      }
    },
    "version": 1
  },
  "storageLayout": {
    "storage": [
      {
        "astId": 1812,
        "contract": "contracts/BlastLootBox.sol:BlastLootBox",
        "label": "_name",
        "offset": 0,
        "slot": "0",
        "type": "t_string_storage"
      },
      {
        "astId": 1814,
        "contract": "contracts/BlastLootBox.sol:BlastLootBox",
        "label": "_symbol",
        "offset": 0,
        "slot": "1",
        "type": "t_string_storage"
      },
      {
        "astId": 1818,
        "contract": "contracts/BlastLootBox.sol:BlastLootBox",
        "label": "_owners",
        "offset": 0,
        "slot": "2",
        "type": "t_mapping(t_uint256,t_address)"
      },
      {
        "astId": 1822,
        "contract": "contracts/BlastLootBox.sol:BlastLootBox",
        "label": "_balances",
        "offset": 0,
        "slot": "3",
        "type": "t_mapping(t_address,t_uint256)"
      },
      {
        "astId": 1826,
        "contract": "contracts/BlastLootBox.sol:BlastLootBox",
        "label": "_tokenApprovals",
        "offset": 0,
        "slot": "4",
        "type": "t_mapping(t_uint256,t_address)"
      },
      {
        "astId": 1832,
        "contract": "contracts/BlastLootBox.sol:BlastLootBox",
        "label": "_operatorApprovals",
        "offset": 0,
        "slot": "5",
        "type": "t_mapping(t_address,t_mapping(t_address,t_bool))"
      },
      {
        "astId": 2830,
        "contract": "contracts/BlastLootBox.sol:BlastLootBox",
        "label": "_tokenURIs",
        "offset": 0,
        "slot": "6",
        "type": "t_mapping(t_uint256,t_string_storage)"
      },
      {
        "astId": 569,
        "contract": "contracts/BlastLootBox.sol:BlastLootBox",
        "label": "_paused",
        "offset": 0,
        "slot": "7",
        "type": "t_bool"
      },
      {
        "astId": 70,
        "contract": "contracts/BlastLootBox.sol:BlastLootBox",
        "label": "_roles",
        "offset": 0,
        "slot": "8",
        "type": "t_mapping(t_bytes32,t_struct(RoleData)65_storage)"
      },
      {
        "astId": 8137,
        "contract": "contracts/BlastLootBox.sol:BlastLootBox",
        "label": "_tokenIdCounter",
        "offset": 0,
        "slot": "9",
        "type": "t_struct(Counter)3319_storage"
      },
      {
        "astId": 8142,
        "contract": "contracts/BlastLootBox.sol:BlastLootBox",
        "label": "lootboxDetails",
        "offset": 0,
        "slot": "10",
        "type": "t_mapping(t_uint256,t_struct(LootBox)8129_storage)"
      },
      {
        "astId": 8146,
        "contract": "contracts/BlastLootBox.sol:BlastLootBox",
        "label": "tokenTypes",
        "offset": 0,
        "slot": "11",
        "type": "t_mapping(t_uint256,t_uint8)"
      },
      {
        "astId": 8149,
        "contract": "contracts/BlastLootBox.sol:BlastLootBox",
        "label": "blastEquipmentNFT",
        "offset": 0,
        "slot": "12",
        "type": "t_contract(IBlastEquipmentNFT)13077"
      },
      {
        "astId": 8151,
        "contract": "contracts/BlastLootBox.sol:BlastLootBox",
        "label": "openAvailable",
        "offset": 20,
        "slot": "12",
        "type": "t_bool"
      }
    ],
    "types": {
      "t_address": {
        "encoding": "inplace",
        "label": "address",
        "numberOfBytes": "20"
      },
      "t_bool": {
        "encoding": "inplace",
        "label": "bool",
        "numberOfBytes": "1"
      },
      "t_bytes32": {
        "encoding": "inplace",
        "label": "bytes32",
        "numberOfBytes": "32"
      },
      "t_contract(IBlastEquipmentNFT)13077": {
        "encoding": "inplace",
        "label": "contract IBlastEquipmentNFT",
        "numberOfBytes": "20"
      },
      "t_mapping(t_address,t_bool)": {
        "encoding": "mapping",
        "key": "t_address",
        "label": "mapping(address => bool)",
        "numberOfBytes": "32",
        "value": "t_bool"
      },
      "t_mapping(t_address,t_mapping(t_address,t_bool))": {
        "encoding": "mapping",
        "key": "t_address",
        "label": "mapping(address => mapping(address => bool))",
        "numberOfBytes": "32",
        "value": "t_mapping(t_address,t_bool)"
      },
      "t_mapping(t_address,t_uint256)": {
        "encoding": "mapping",
        "key": "t_address",
        "label": "mapping(address => uint256)",
        "numberOfBytes": "32",
        "value": "t_uint256"
      },
      "t_mapping(t_bytes32,t_struct(RoleData)65_storage)": {
        "encoding": "mapping",
        "key": "t_bytes32",
        "label": "mapping(bytes32 => struct AccessControl.RoleData)",
        "numberOfBytes": "32",
        "value": "t_struct(RoleData)65_storage"
      },
      "t_mapping(t_uint256,t_address)": {
        "encoding": "mapping",
        "key": "t_uint256",
        "label": "mapping(uint256 => address)",
        "numberOfBytes": "32",
        "value": "t_address"
      },
      "t_mapping(t_uint256,t_string_storage)": {
        "encoding": "mapping",
        "key": "t_uint256",
        "label": "mapping(uint256 => string)",
        "numberOfBytes": "32",
        "value": "t_string_storage"
      },
      "t_mapping(t_uint256,t_struct(LootBox)8129_storage)": {
        "encoding": "mapping",
        "key": "t_uint256",
        "label": "mapping(uint256 => struct BlastLootBox.LootBox)",
        "numberOfBytes": "32",
        "value": "t_struct(LootBox)8129_storage"
      },
      "t_mapping(t_uint256,t_uint8)": {
        "encoding": "mapping",
        "key": "t_uint256",
        "label": "mapping(uint256 => uint8)",
        "numberOfBytes": "32",
        "value": "t_uint8"
      },
      "t_string_storage": {
        "encoding": "bytes",
        "label": "string",
        "numberOfBytes": "32"
      },
      "t_struct(Counter)3319_storage": {
        "encoding": "inplace",
        "label": "struct Counters.Counter",
        "members": [
          {
            "astId": 3318,
            "contract": "contracts/BlastLootBox.sol:BlastLootBox",
            "label": "_value",
            "offset": 0,
            "slot": "0",
            "type": "t_uint256"
          }
        ],
        "numberOfBytes": "32"
      },
      "t_struct(LootBox)8129_storage": {
        "encoding": "inplace",
        "label": "struct BlastLootBox.LootBox",
        "members": [
          {
            "astId": 8124,
            "contract": "contracts/BlastLootBox.sol:BlastLootBox",
            "label": "token0",
            "offset": 0,
            "slot": "0",
            "type": "t_uint256"
          },
          {
            "astId": 8126,
            "contract": "contracts/BlastLootBox.sol:BlastLootBox",
            "label": "token1",
            "offset": 0,
            "slot": "1",
            "type": "t_uint256"
          },
          {
            "astId": 8128,
            "contract": "contracts/BlastLootBox.sol:BlastLootBox",
            "label": "token2",
            "offset": 0,
            "slot": "2",
            "type": "t_uint256"
          }
        ],
        "numberOfBytes": "96"
      },
      "t_struct(RoleData)65_storage": {
        "encoding": "inplace",
        "label": "struct AccessControl.RoleData",
        "members": [
          {
            "astId": 62,
            "contract": "contracts/BlastLootBox.sol:BlastLootBox",
            "label": "members",
            "offset": 0,
            "slot": "0",
            "type": "t_mapping(t_address,t_bool)"
          },
          {
            "astId": 64,
            "contract": "contracts/BlastLootBox.sol:BlastLootBox",
            "label": "adminRole",
            "offset": 0,
            "slot": "1",
            "type": "t_bytes32"
          }
        ],
        "numberOfBytes": "64"
      },
      "t_uint256": {
        "encoding": "inplace",
        "label": "uint256",
        "numberOfBytes": "32"
      },
      "t_uint8": {
        "encoding": "inplace",
        "label": "uint8",
        "numberOfBytes": "1"
      }
    }
  }
}