{
  "address": "0xdb541227fce633929009D2e90466F5D85de7C816",
  "abi": [
    {
      "inputs": [
        {
          "internalType": "string",
          "name": "collectionName",
          "type": "string"
        },
        {
          "internalType": "string",
          "name": "collectionSymbol",
          "type": "string"
        },
        {
          "internalType": "string",
          "name": "tokenURISuffix",
          "type": "string"
        },
        {
          "internalType": "uint256",
          "name": "maxMintableSupply",
          "type": "uint256"
        },
        {
          "internalType": "uint256",
          "name": "globalWalletLimit",
          "type": "uint256"
        },
        {
          "internalType": "address",
          "name": "cosigner",
          "type": "address"
        },
        {
          "internalType": "uint64",
          "name": "timestampExpirySeconds",
          "type": "uint64"
        }
      ],
      "stateMutability": "nonpayable",
      "type": "constructor"
    },
    {
      "inputs": [],
      "name": "ApprovalCallerNotOwnerNorApproved",
      "type": "error"
    },
    {
      "inputs": [],
      "name": "ApprovalQueryForNonexistentToken",
      "type": "error"
    },
    {
      "inputs": [],
      "name": "BalanceQueryForZeroAddress",
      "type": "error"
    },
    {
      "inputs": [],
      "name": "CannotIncreaseMaxMintableSupply",
      "type": "error"
    },
    {
      "inputs": [],
      "name": "CannotUpdatePermanentBaseURI",
      "type": "error"
    },
    {
      "inputs": [],
      "name": "CosignerNotSet",
      "type": "error"
    },
    {
      "inputs": [],
      "name": "CrossmintAddressNotSet",
      "type": "error"
    },
    {
      "inputs": [],
      "name": "CrossmintOnly",
      "type": "error"
    },
    {
      "inputs": [],
      "name": "GlobalWalletLimitOverflow",
      "type": "error"
    },
    {
      "inputs": [],
      "name": "InsufficientStageTimeGap",
      "type": "error"
    },
    {
      "inputs": [],
      "name": "InvalidCosignSignature",
      "type": "error"
    },
    {
      "inputs": [],
      "name": "InvalidProof",
      "type": "error"
    },
    {
      "inputs": [],
      "name": "InvalidQueryRange",
      "type": "error"
    },
    {
      "inputs": [],
      "name": "InvalidStage",
      "type": "error"
    },
    {
      "inputs": [],
      "name": "InvalidStageArgsLength",
      "type": "error"
    },
    {
      "inputs": [],
      "name": "InvalidStartAndEndTimestamp",
      "type": "error"
    },
    {
      "inputs": [],
      "name": "MintERC2309QuantityExceedsLimit",
      "type": "error"
    },
    {
      "inputs": [],
      "name": "MintToZeroAddress",
      "type": "error"
    },
    {
      "inputs": [],
      "name": "MintZeroQuantity",
      "type": "error"
    },
    {
      "inputs": [],
      "name": "Mintable",
      "type": "error"
    },
    {
      "inputs": [],
      "name": "NoSupplyLeft",
      "type": "error"
    },
    {
      "inputs": [],
      "name": "NotEnoughValue",
      "type": "error"
    },
    {
      "inputs": [],
      "name": "NotMintable",
      "type": "error"
    },
    {
      "inputs": [],
      "name": "OwnerQueryForNonexistentToken",
      "type": "error"
    },
    {
      "inputs": [],
      "name": "OwnershipNotInitializedForExtraData",
      "type": "error"
    },
    {
      "inputs": [],
      "name": "StageSupplyExceeded",
      "type": "error"
    },
    {
      "inputs": [],
      "name": "TimestampExpired",
      "type": "error"
    },
    {
      "inputs": [],
      "name": "TransferCallerNotOwnerNorApproved",
      "type": "error"
    },
    {
      "inputs": [],
      "name": "TransferFromIncorrectOwner",
      "type": "error"
    },
    {
      "inputs": [],
      "name": "TransferToNonERC721ReceiverImplementer",
      "type": "error"
    },
    {
      "inputs": [],
      "name": "TransferToZeroAddress",
      "type": "error"
    },
    {
      "inputs": [],
      "name": "URIQueryForNonexistentToken",
      "type": "error"
    },
    {
      "inputs": [],
      "name": "WalletGlobalLimitExceeded",
      "type": "error"
    },
    {
      "inputs": [],
      "name": "WalletStageLimitExceeded",
      "type": "error"
    },
    {
      "inputs": [],
      "name": "WithdrawFailed",
      "type": "error"
    },
    {
      "anonymous": false,
      "inputs": [
        {
          "indexed": true,
          "internalType": "address",
          "name": "owner",
          "type": "address"
        },
        {
          "indexed": true,
          "internalType": "address",
          "name": "approved",
          "type": "address"
        },
        {
          "indexed": true,
          "internalType": "uint256",
          "name": "tokenId",
          "type": "uint256"
        }
      ],
      "name": "Approval",
      "type": "event"
    },
    {
      "anonymous": false,
      "inputs": [
        {
          "indexed": true,
          "internalType": "address",
          "name": "owner",
          "type": "address"
        },
        {
          "indexed": true,
          "internalType": "address",
          "name": "operator",
          "type": "address"
        },
        {
          "indexed": false,
          "internalType": "bool",
          "name": "approved",
          "type": "bool"
        }
      ],
      "name": "ApprovalForAll",
      "type": "event"
    },
    {
      "anonymous": false,
      "inputs": [
        {
          "indexed": true,
          "internalType": "uint256",
          "name": "fromTokenId",
          "type": "uint256"
        },
        {
          "indexed": false,
          "internalType": "uint256",
          "name": "toTokenId",
          "type": "uint256"
        },
        {
          "indexed": true,
          "internalType": "address",
          "name": "from",
          "type": "address"
        },
        {
          "indexed": true,
          "internalType": "address",
          "name": "to",
          "type": "address"
        }
      ],
      "name": "ConsecutiveTransfer",
      "type": "event"
    },
    {
      "anonymous": false,
      "inputs": [
        {
          "indexed": true,
          "internalType": "address",
          "name": "previousOwner",
          "type": "address"
        },
        {
          "indexed": true,
          "internalType": "address",
          "name": "newOwner",
          "type": "address"
        }
      ],
      "name": "OwnershipTransferred",
      "type": "event"
    },
    {
      "anonymous": false,
      "inputs": [
        {
          "indexed": false,
          "internalType": "string",
          "name": "baseURI",
          "type": "string"
        }
      ],
      "name": "PermanentBaseURI",
      "type": "event"
    },
    {
      "anonymous": false,
      "inputs": [
        {
          "indexed": false,
          "internalType": "uint256",
          "name": "activeStage",
          "type": "uint256"
        }
      ],
      "name": "SetActiveStage",
      "type": "event"
    },
    {
      "anonymous": false,
      "inputs": [
        {
          "indexed": false,
          "internalType": "string",
          "name": "baseURI",
          "type": "string"
        }
      ],
      "name": "SetBaseURI",
      "type": "event"
    },
    {
      "anonymous": false,
      "inputs": [
        {
          "indexed": false,
          "internalType": "address",
          "name": "cosigner",
          "type": "address"
        }
      ],
      "name": "SetCosigner",
      "type": "event"
    },
    {
      "anonymous": false,
      "inputs": [
        {
          "indexed": false,
          "internalType": "address",
          "name": "crossmintAddress",
          "type": "address"
        }
      ],
      "name": "SetCrossmintAddress",
      "type": "event"
    },
    {
      "anonymous": false,
      "inputs": [
        {
          "indexed": false,
          "internalType": "uint256",
          "name": "globalWalletLimit",
          "type": "uint256"
        }
      ],
      "name": "SetGlobalWalletLimit",
      "type": "event"
    },
    {
      "anonymous": false,
      "inputs": [
        {
          "indexed": false,
          "internalType": "uint256",
          "name": "maxMintableSupply",
          "type": "uint256"
        }
      ],
      "name": "SetMaxMintableSupply",
      "type": "event"
    },
    {
      "anonymous": false,
      "inputs": [
        {
          "indexed": false,
          "internalType": "bool",
          "name": "mintable",
          "type": "bool"
        }
      ],
      "name": "SetMintable",
      "type": "event"
    },
    {
      "anonymous": false,
      "inputs": [
        {
          "indexed": false,
          "internalType": "uint64",
          "name": "expiry",
          "type": "uint64"
        }
      ],
      "name": "SetTimestampExpirySeconds",
      "type": "event"
    },
    {
      "anonymous": false,
      "inputs": [
        {
          "indexed": true,
          "internalType": "address",
          "name": "from",
          "type": "address"
        },
        {
          "indexed": true,
          "internalType": "address",
          "name": "to",
          "type": "address"
        },
        {
          "indexed": true,
          "internalType": "uint256",
          "name": "tokenId",
          "type": "uint256"
        }
      ],
      "name": "Transfer",
      "type": "event"
    },
    {
      "anonymous": false,
      "inputs": [
        {
          "indexed": false,
          "internalType": "uint256",
          "name": "stage",
          "type": "uint256"
        },
        {
          "indexed": false,
          "internalType": "uint80",
          "name": "price",
          "type": "uint80"
        },
        {
          "indexed": false,
          "internalType": "uint32",
          "name": "walletLimit",
          "type": "uint32"
        },
        {
          "indexed": false,
          "internalType": "bytes32",
          "name": "merkleRoot",
          "type": "bytes32"
        },
        {
          "indexed": false,
          "internalType": "uint24",
          "name": "maxStageSupply",
          "type": "uint24"
        },
        {
          "indexed": false,
          "internalType": "uint64",
          "name": "startTimeUnixSeconds",
          "type": "uint64"
        },
        {
          "indexed": false,
          "internalType": "uint64",
          "name": "endTimeUnixSeconds",
          "type": "uint64"
        }
      ],
      "name": "UpdateStage",
      "type": "event"
    },
    {
      "anonymous": false,
      "inputs": [
        {
          "indexed": false,
          "internalType": "uint256",
          "name": "value",
          "type": "uint256"
        }
      ],
      "name": "Withdraw",
      "type": "event"
    },
    {
      "inputs": [
        {
          "internalType": "address",
          "name": "to",
          "type": "address"
        },
        {
          "internalType": "uint256",
          "name": "tokenId",
          "type": "uint256"
        }
      ],
      "name": "approve",
      "outputs": [],
      "stateMutability": "payable",
      "type": "function"
    },
    {
      "inputs": [
        {
          "internalType": "address",
          "name": "minter",
          "type": "address"
        },
        {
          "internalType": "uint32",
          "name": "qty",
          "type": "uint32"
        },
        {
          "internalType": "uint64",
          "name": "timestamp",
          "type": "uint64"
        },
        {
          "internalType": "bytes",
          "name": "signature",
          "type": "bytes"
        }
      ],
      "name": "assertValidCosign",
      "outputs": [],
      "stateMutability": "view",
      "type": "function"
    },
    {
      "inputs": [
        {
          "internalType": "address",
          "name": "owner",
          "type": "address"
        }
      ],
      "name": "balanceOf",
      "outputs": [
        {
          "internalType": "uint256",
          "name": "",
          "type": "uint256"
        }
      ],
      "stateMutability": "view",
      "type": "function"
    },
    {
      "inputs": [
        {
          "internalType": "uint32",
          "name": "qty",
          "type": "uint32"
        },
        {
          "internalType": "address",
          "name": "to",
          "type": "address"
        },
        {
          "internalType": "bytes32[]",
          "name": "proof",
          "type": "bytes32[]"
        },
        {
          "internalType": "uint64",
          "name": "timestamp",
          "type": "uint64"
        },
        {
          "internalType": "bytes",
          "name": "signature",
          "type": "bytes"
        }
      ],
      "name": "crossmint",
      "outputs": [],
      "stateMutability": "payable",
      "type": "function"
    },
    {
      "inputs": [
        {
          "internalType": "uint256",
          "name": "tokenId",
          "type": "uint256"
        }
      ],
      "name": "explicitOwnershipOf",
      "outputs": [
        {
          "components": [
            {
              "internalType": "address",
              "name": "addr",
              "type": "address"
            },
            {
              "internalType": "uint64",
              "name": "startTimestamp",
              "type": "uint64"
            },
            {
              "internalType": "bool",
              "name": "burned",
              "type": "bool"
            },
            {
              "internalType": "uint24",
              "name": "extraData",
              "type": "uint24"
            }
          ],
          "internalType": "struct IERC721A.TokenOwnership",
          "name": "",
          "type": "tuple"
        }
      ],
      "stateMutability": "view",
      "type": "function"
    },
    {
      "inputs": [
        {
          "internalType": "uint256[]",
          "name": "tokenIds",
          "type": "uint256[]"
        }
      ],
      "name": "explicitOwnershipsOf",
      "outputs": [
        {
          "components": [
            {
              "internalType": "address",
              "name": "addr",
              "type": "address"
            },
            {
              "internalType": "uint64",
              "name": "startTimestamp",
              "type": "uint64"
            },
            {
              "internalType": "bool",
              "name": "burned",
              "type": "bool"
            },
            {
              "internalType": "uint24",
              "name": "extraData",
              "type": "uint24"
            }
          ],
          "internalType": "struct IERC721A.TokenOwnership[]",
          "name": "",
          "type": "tuple[]"
        }
      ],
      "stateMutability": "view",
      "type": "function"
    },
    {
      "inputs": [
        {
          "internalType": "uint64",
          "name": "timestamp",
          "type": "uint64"
        }
      ],
      "name": "getActiveStageFromTimestamp",
      "outputs": [
        {
          "internalType": "uint256",
          "name": "",
          "type": "uint256"
        }
      ],
      "stateMutability": "view",
      "type": "function"
    },
    {
      "inputs": [
        {
          "internalType": "uint256",
          "name": "tokenId",
          "type": "uint256"
        }
      ],
      "name": "getApproved",
      "outputs": [
        {
          "internalType": "address",
          "name": "",
          "type": "address"
        }
      ],
      "stateMutability": "view",
      "type": "function"
    },
    {
      "inputs": [
        {
          "internalType": "address",
          "name": "minter",
          "type": "address"
        },
        {
          "internalType": "uint32",
          "name": "qty",
          "type": "uint32"
        },
        {
          "internalType": "uint64",
          "name": "timestamp",
          "type": "uint64"
        }
      ],
      "name": "getCosignDigest",
      "outputs": [
        {
          "internalType": "bytes32",
          "name": "",
          "type": "bytes32"
        }
      ],
      "stateMutability": "view",
      "type": "function"
    },
    {
      "inputs": [
        {
          "internalType": "address",
          "name": "minter",
          "type": "address"
        }
      ],
      "name": "getCosignNonce",
      "outputs": [
        {
          "internalType": "uint256",
          "name": "",
          "type": "uint256"
        }
      ],
      "stateMutability": "view",
      "type": "function"
    },
    {
      "inputs": [],
      "name": "getCosigner",
      "outputs": [
        {
          "internalType": "address",
          "name": "",
          "type": "address"
        }
      ],
      "stateMutability": "view",
      "type": "function"
    },
    {
      "inputs": [],
      "name": "getCrossmintAddress",
      "outputs": [
        {
          "internalType": "address",
          "name": "",
          "type": "address"
        }
      ],
      "stateMutability": "view",
      "type": "function"
    },
    {
      "inputs": [],
      "name": "getGlobalWalletLimit",
      "outputs": [
        {
          "internalType": "uint256",
          "name": "",
          "type": "uint256"
        }
      ],
      "stateMutability": "view",
      "type": "function"
    },
    {
      "inputs": [],
      "name": "getMaxMintableSupply",
      "outputs": [
        {
          "internalType": "uint256",
          "name": "",
          "type": "uint256"
        }
      ],
      "stateMutability": "view",
      "type": "function"
    },
    {
      "inputs": [],
      "name": "getMintable",
      "outputs": [
        {
          "internalType": "bool",
          "name": "",
          "type": "bool"
        }
      ],
      "stateMutability": "view",
      "type": "function"
    },
    {
      "inputs": [],
      "name": "getNumberStages",
      "outputs": [
        {
          "internalType": "uint256",
          "name": "",
          "type": "uint256"
        }
      ],
      "stateMutability": "view",
      "type": "function"
    },
    {
      "inputs": [
        {
          "internalType": "uint256",
          "name": "index",
          "type": "uint256"
        }
      ],
      "name": "getStageInfo",
      "outputs": [
        {
          "components": [
            {
              "internalType": "uint80",
              "name": "price",
              "type": "uint80"
            },
            {
              "internalType": "uint32",
              "name": "walletLimit",
              "type": "uint32"
            },
            {
              "internalType": "bytes32",
              "name": "merkleRoot",
              "type": "bytes32"
            },
            {
              "internalType": "uint24",
              "name": "maxStageSupply",
              "type": "uint24"
            },
            {
              "internalType": "uint64",
              "name": "startTimeUnixSeconds",
              "type": "uint64"
            },
            {
              "internalType": "uint64",
              "name": "endTimeUnixSeconds",
              "type": "uint64"
            }
          ],
          "internalType": "struct IERC721M.MintStageInfo",
          "name": "",
          "type": "tuple"
        },
        {
          "internalType": "uint32",
          "name": "",
          "type": "uint32"
        },
        {
          "internalType": "uint256",
          "name": "",
          "type": "uint256"
        }
      ],
      "stateMutability": "view",
      "type": "function"
    },
    {
      "inputs": [],
      "name": "getTimestampExpirySeconds",
      "outputs": [
        {
          "internalType": "uint64",
          "name": "",
          "type": "uint64"
        }
      ],
      "stateMutability": "view",
      "type": "function"
    },
    {
      "inputs": [],
      "name": "getTokenURISuffix",
      "outputs": [
        {
          "internalType": "string",
          "name": "",
          "type": "string"
        }
      ],
      "stateMutability": "view",
      "type": "function"
    },
    {
      "inputs": [
        {
          "internalType": "address",
          "name": "owner",
          "type": "address"
        },
        {
          "internalType": "address",
          "name": "operator",
          "type": "address"
        }
      ],
      "name": "isApprovedForAll",
      "outputs": [
        {
          "internalType": "bool",
          "name": "",
          "type": "bool"
        }
      ],
      "stateMutability": "view",
      "type": "function"
    },
    {
      "inputs": [
        {
          "internalType": "uint32",
          "name": "qty",
          "type": "uint32"
        },
        {
          "internalType": "bytes32[]",
          "name": "proof",
          "type": "bytes32[]"
        },
        {
          "internalType": "uint64",
          "name": "timestamp",
          "type": "uint64"
        },
        {
          "internalType": "bytes",
          "name": "signature",
          "type": "bytes"
        }
      ],
      "name": "mint",
      "outputs": [],
      "stateMutability": "payable",
      "type": "function"
    },
    {
      "inputs": [],
      "name": "name",
      "outputs": [
        {
          "internalType": "string",
          "name": "",
          "type": "string"
        }
      ],
      "stateMutability": "view",
      "type": "function"
    },
    {
      "inputs": [],
      "name": "owner",
      "outputs": [
        {
          "internalType": "address",
          "name": "",
          "type": "address"
        }
      ],
      "stateMutability": "view",
      "type": "function"
    },
    {
      "inputs": [
        {
          "internalType": "uint32",
          "name": "qty",
          "type": "uint32"
        },
        {
          "internalType": "address",
          "name": "to",
          "type": "address"
        }
      ],
      "name": "ownerMint",
      "outputs": [],
      "stateMutability": "nonpayable",
      "type": "function"
    },
    {
      "inputs": [
        {
          "internalType": "uint256",
          "name": "tokenId",
          "type": "uint256"
        }
      ],
      "name": "ownerOf",
      "outputs": [
        {
          "internalType": "address",
          "name": "",
          "type": "address"
        }
      ],
      "stateMutability": "view",
      "type": "function"
    },
    {
      "inputs": [],
      "name": "renounceOwnership",
      "outputs": [],
      "stateMutability": "nonpayable",
      "type": "function"
    },
    {
      "inputs": [
        {
          "internalType": "address",
          "name": "from",
          "type": "address"
        },
        {
          "internalType": "address",
          "name": "to",
          "type": "address"
        },
        {
          "internalType": "uint256",
          "name": "tokenId",
          "type": "uint256"
        }
      ],
      "name": "safeTransferFrom",
      "outputs": [],
      "stateMutability": "payable",
      "type": "function"
    },
    {
      "inputs": [
        {
          "internalType": "address",
          "name": "from",
          "type": "address"
        },
        {
          "internalType": "address",
          "name": "to",
          "type": "address"
        },
        {
          "internalType": "uint256",
          "name": "tokenId",
          "type": "uint256"
        },
        {
          "internalType": "bytes",
          "name": "_data",
          "type": "bytes"
        }
      ],
      "name": "safeTransferFrom",
      "outputs": [],
      "stateMutability": "payable",
      "type": "function"
    },
    {
      "inputs": [
        {
          "internalType": "address",
          "name": "operator",
          "type": "address"
        },
        {
          "internalType": "bool",
          "name": "approved",
          "type": "bool"
        }
      ],
      "name": "setApprovalForAll",
      "outputs": [],
      "stateMutability": "nonpayable",
      "type": "function"
    },
    {
      "inputs": [
        {
          "internalType": "string",
          "name": "baseURI",
          "type": "string"
        }
      ],
      "name": "setBaseURI",
      "outputs": [],
      "stateMutability": "nonpayable",
      "type": "function"
    },
    {
      "inputs": [],
      "name": "setBaseURIPermanent",
      "outputs": [],
      "stateMutability": "nonpayable",
      "type": "function"
    },
    {
      "inputs": [
        {
          "internalType": "address",
          "name": "cosigner",
          "type": "address"
        }
      ],
      "name": "setCosigner",
      "outputs": [],
      "stateMutability": "nonpayable",
      "type": "function"
    },
    {
      "inputs": [
        {
          "internalType": "address",
          "name": "crossmintAddress",
          "type": "address"
        }
      ],
      "name": "setCrossmintAddress",
      "outputs": [],
      "stateMutability": "nonpayable",
      "type": "function"
    },
    {
      "inputs": [
        {
          "internalType": "uint256",
          "name": "globalWalletLimit",
          "type": "uint256"
        }
      ],
      "name": "setGlobalWalletLimit",
      "outputs": [],
      "stateMutability": "nonpayable",
      "type": "function"
    },
    {
      "inputs": [
        {
          "internalType": "uint256",
          "name": "maxMintableSupply",
          "type": "uint256"
        }
      ],
      "name": "setMaxMintableSupply",
      "outputs": [],
      "stateMutability": "nonpayable",
      "type": "function"
    },
    {
      "inputs": [
        {
          "internalType": "bool",
          "name": "mintable",
          "type": "bool"
        }
      ],
      "name": "setMintable",
      "outputs": [],
      "stateMutability": "nonpayable",
      "type": "function"
    },
    {
      "inputs": [
        {
          "components": [
            {
              "internalType": "uint80",
              "name": "price",
              "type": "uint80"
            },
            {
              "internalType": "uint32",
              "name": "walletLimit",
              "type": "uint32"
            },
            {
              "internalType": "bytes32",
              "name": "merkleRoot",
              "type": "bytes32"
            },
            {
              "internalType": "uint24",
              "name": "maxStageSupply",
              "type": "uint24"
            },
            {
              "internalType": "uint64",
              "name": "startTimeUnixSeconds",
              "type": "uint64"
            },
            {
              "internalType": "uint64",
              "name": "endTimeUnixSeconds",
              "type": "uint64"
            }
          ],
          "internalType": "struct IERC721M.MintStageInfo[]",
          "name": "newStages",
          "type": "tuple[]"
        }
      ],
      "name": "setStages",
      "outputs": [],
      "stateMutability": "nonpayable",
      "type": "function"
    },
    {
      "inputs": [
        {
          "internalType": "uint64",
          "name": "expiry",
          "type": "uint64"
        }
      ],
      "name": "setTimestampExpirySeconds",
      "outputs": [],
      "stateMutability": "nonpayable",
      "type": "function"
    },
    {
      "inputs": [
        {
          "internalType": "string",
          "name": "suffix",
          "type": "string"
        }
      ],
      "name": "setTokenURISuffix",
      "outputs": [],
      "stateMutability": "nonpayable",
      "type": "function"
    },
    {
      "inputs": [
        {
          "internalType": "bytes4",
          "name": "interfaceId",
          "type": "bytes4"
        }
      ],
      "name": "supportsInterface",
      "outputs": [
        {
          "internalType": "bool",
          "name": "",
          "type": "bool"
        }
      ],
      "stateMutability": "view",
      "type": "function"
    },
    {
      "inputs": [],
      "name": "symbol",
      "outputs": [
        {
          "internalType": "string",
          "name": "",
          "type": "string"
        }
      ],
      "stateMutability": "view",
      "type": "function"
    },
    {
      "inputs": [
        {
          "internalType": "uint256",
          "name": "tokenId",
          "type": "uint256"
        }
      ],
      "name": "tokenURI",
      "outputs": [
        {
          "internalType": "string",
          "name": "",
          "type": "string"
        }
      ],
      "stateMutability": "view",
      "type": "function"
    },
    {
      "inputs": [
        {
          "internalType": "address",
          "name": "owner",
          "type": "address"
        }
      ],
      "name": "tokensOfOwner",
      "outputs": [
        {
          "internalType": "uint256[]",
          "name": "",
          "type": "uint256[]"
        }
      ],
      "stateMutability": "view",
      "type": "function"
    },
    {
      "inputs": [
        {
          "internalType": "address",
          "name": "owner",
          "type": "address"
        },
        {
          "internalType": "uint256",
          "name": "start",
          "type": "uint256"
        },
        {
          "internalType": "uint256",
          "name": "stop",
          "type": "uint256"
        }
      ],
      "name": "tokensOfOwnerIn",
      "outputs": [
        {
          "internalType": "uint256[]",
          "name": "",
          "type": "uint256[]"
        }
      ],
      "stateMutability": "view",
      "type": "function"
    },
    {
      "inputs": [
        {
          "internalType": "address",
          "name": "a",
          "type": "address"
        }
      ],
      "name": "totalMintedByAddress",
      "outputs": [
        {
          "internalType": "uint256",
          "name": "",
          "type": "uint256"
        }
      ],
      "stateMutability": "view",
      "type": "function"
    },
    {
      "inputs": [],
      "name": "totalSupply",
      "outputs": [
        {
          "internalType": "uint256",
          "name": "",
          "type": "uint256"
        }
      ],
      "stateMutability": "view",
      "type": "function"
    },
    {
      "inputs": [
        {
          "internalType": "address",
          "name": "from",
          "type": "address"
        },
        {
          "internalType": "address",
          "name": "to",
          "type": "address"
        },
        {
          "internalType": "uint256",
          "name": "tokenId",
          "type": "uint256"
        }
      ],
      "name": "transferFrom",
      "outputs": [],
      "stateMutability": "payable",
      "type": "function"
    },
    {
      "inputs": [
        {
          "internalType": "address",
          "name": "newOwner",
          "type": "address"
        }
      ],
      "name": "transferOwnership",
      "outputs": [],
      "stateMutability": "nonpayable",
      "type": "function"
    },
    {
      "inputs": [
        {
          "internalType": "uint256",
          "name": "index",
          "type": "uint256"
        },
        {
          "internalType": "uint80",
          "name": "price",
          "type": "uint80"
        },
        {
          "internalType": "uint32",
          "name": "walletLimit",
          "type": "uint32"
        },
        {
          "internalType": "bytes32",
          "name": "merkleRoot",
          "type": "bytes32"
        },
        {
          "internalType": "uint24",
          "name": "maxStageSupply",
          "type": "uint24"
        },
        {
          "internalType": "uint64",
          "name": "startTimeUnixSeconds",
          "type": "uint64"
        },
        {
          "internalType": "uint64",
          "name": "endTimeUnixSeconds",
          "type": "uint64"
        }
      ],
      "name": "updateStage",
      "outputs": [],
      "stateMutability": "nonpayable",
      "type": "function"
    },
    {
      "inputs": [],
      "name": "withdraw",
      "outputs": [],
      "stateMutability": "nonpayable",
      "type": "function"
    }
  ],
  "transactionHash": "0x7138b406a8e3f701f177d4f800762067bd1d266bb41f3b459be7bc8dffc02bfa",
  "args": [
    "Corpos",
    "CORPO",
    "https://dev-metadata.blastroyale.com/nftmetadata/",
    888,
    888,
    "0x7Ac410F4E36873022b57821D7a8EB3D7513C045a",
    3600000000000000
  ],
  "numDeployments": 1,
  "solcInputHash": "77f1971cb27bfcd5160b27ff6b64523c",
  "bytecode": "0x60806040523480156200001157600080fd5b50604051620040f4380380620040f4833981016040819052620000349162000307565b8651879087906200004d90600290602085019062000177565b5080516200006390600390602084019062000177565b50506000805550620000753362000125565b6001600955838311156200009c57604051630590c51360e01b815260040160405180910390fd5b600a805460ff19169055600c849055600d8390558451620000c590600f90602088019062000177565b50600a80546001600160401b03909216620100000262010000600160501b03196001600160a01b039094166a0100000000000000000000029390931662010000600160f01b031990921691909117919091179055506200041e9350505050565b600880546001600160a01b038381166001600160a01b0319831681179093556040519116919082907f8be0079c531659141344cd1fd0a4f28419497f9722a3daafe3b4186f6b6457e090600090a35050565b8280546200018590620003e1565b90600052602060002090601f016020900481019282620001a95760008555620001f4565b82601f10620001c457805160ff1916838001178555620001f4565b82800160010185558215620001f4579182015b82811115620001f4578251825591602001919060010190620001d7565b506200020292915062000206565b5090565b5b8082111562000202576000815560010162000207565b634e487b7160e01b600052604160045260246000fd5b600082601f8301126200024557600080fd5b81516001600160401b03808211156200026257620002626200021d565b604051601f8301601f19908116603f011681019082821181831017156200028d576200028d6200021d565b81604052838152602092508683858801011115620002aa57600080fd5b600091505b83821015620002ce5785820183015181830184015290820190620002af565b83821115620002e05760008385830101525b9695505050505050565b80516001600160401b03811681146200030257600080fd5b919050565b600080600080600080600060e0888a0312156200032357600080fd5b87516001600160401b03808211156200033b57600080fd5b620003498b838c0162000233565b985060208a01519150808211156200036057600080fd5b6200036e8b838c0162000233565b975060408a01519150808211156200038557600080fd5b50620003948a828b0162000233565b60608a015160808b015160a08c0151929850909650945090506001600160a01b0381168114620003c357600080fd5b9150620003d360c08901620002ea565b905092959891949750929550565b600181811c90821680620003f657607f821691505b602082108114156200041857634e487b7160e01b600052602260045260246000fd5b50919050565b613cc6806200042e6000396000f3fe6080604052600436106102c95760003560e01c80638462151c11610175578063aac5ab1f116100dc578063ce2b0ec011610095578063efdaa2ec1161006f578063efdaa2ec146108eb578063f2fde38b14610900578063f698bceb14610920578063f8d096961461093857600080fd5b8063ce2b0ec01461086f578063e985e9c51461088f578063efb6b11f146108d857600080fd5b8063aac5ab1f146107ba578063b50248e7146107da578063b7a9fa60146107fa578063b88d4fde1461080f578063c23dc68f14610822578063c87b56dd1461084f57600080fd5b8063997556241161012e578063997556241461069e57806399a2557a146106be578063a06c492f1461067e578063a22cb465146106de578063a3759f60146106fe578063a9852bfb1461079a57600080fd5b80638462151c146105e05780638da5cb5b1461060d5780638dcdb09d1461062b5780638f9315111461064b57806395d89b411461066957806397cf84fc1461067e57600080fd5b80633ccfd60b1161023457806362acbd9a116101ed57806370a08231116101c757806370a082311461057657806370da24ee14610596578063715018a6146105ab57806373e1607e146105c057600080fd5b806362acbd9a146105235780636352211e1461053657806367808a341461055657600080fd5b80633ccfd60b1461046257806342842e0e146104775780634ae0402f1461048a5780634b1c53b4146104c157806355f804b3146104d65780635bbb2177146104f657600080fd5b806318160ddd1161028657806318160ddd146103a75780631ce03eed146103ca57806323b872dd146103ea578063285d70d4146103fd57806333bbbf061461041d578063372992e41461044257600080fd5b806301ffc9a7146102ce578063020451381461030357806306fdde0314610325578063081812fc14610347578063095ea7b31461037f5780631053a81514610392575b600080fd5b3480156102da57600080fd5b506102ee6102e9366004613098565b610958565b60405190151581526020015b60405180910390f35b34801561030f57600080fd5b5061032361031e3660046130d1565b6109aa565b005b34801561033157600080fd5b5061033a610a28565b6040516102fa9190613144565b34801561035357600080fd5b50610367610362366004613157565b610aba565b6040516001600160a01b0390911681526020016102fa565b61032361038d366004613170565b610afe565b34801561039e57600080fd5b50610323610b9e565b3480156103b357600080fd5b50600154600054035b6040519081526020016102fa565b3480156103d657600080fd5b506103bc6103e53660046131c5565b610bf0565b6103236103f8366004613208565b610d30565b34801561040957600080fd5b50610323610418366004613254565b610ec2565b34801561042957600080fd5b50600a54600160501b90046001600160a01b0316610367565b34801561044e57600080fd5b5061032361045d366004613157565b610f0b565b34801561046e57600080fd5b50610323610f6b565b610323610485366004613208565b611016565b34801561049657600080fd5b50600a546201000090046001600160401b03166040516001600160401b0390911681526020016102fa565b3480156104cd57600080fd5b50600c546103bc565b3480156104e257600080fd5b506103236104f13660046132b0565b611036565b34801561050257600080fd5b50610516610511366004613335565b6110a5565b6040516102fa91906133a6565b6103236105313660046133e8565b611170565b34801561054257600080fd5b50610367610551366004613157565b6111ee565b34801561056257600080fd5b506103bc61057136600461348c565b6111f9565b34801561058257600080fd5b506103bc6105913660046130d1565b6112c1565b3480156105a257600080fd5b506010546103bc565b3480156105b757600080fd5b5061032361130f565b3480156105cc57600080fd5b506103236105db3660046134d1565b611323565b3480156105ec57600080fd5b506106006105fb3660046130d1565b6115c3565b6040516102fa9190613549565b34801561061957600080fd5b506008546001600160a01b0316610367565b34801561063757600080fd5b50610323610646366004613581565b6116d2565b34801561065757600080fd5b50600b546001600160a01b0316610367565b34801561067557600080fd5b5061033a611ba7565b34801561068a57600080fd5b506103bc6106993660046130d1565b611bb6565b3480156106aa57600080fd5b506103236106b93660046130d1565b611be0565b3480156106ca57600080fd5b506106006106d93660046135f5565b611c36565b3480156106ea57600080fd5b506103236106f9366004613628565b611db1565b34801561070a57600080fd5b5061071e610719366004613157565b611e1d565b6040805184516001600160501b0316815260208086015163ffffffff90811691830191909152858301519282019290925260608086015162ffffff16908201526080808601516001600160401b039081169183019190915260a095860151169481019490945290911660c083015260e0820152610100016102fa565b3480156107a657600080fd5b506103236107b53660046132b0565b611f66565b3480156107c657600080fd5b506103236107d536600461365b565b611f7a565b3480156107e657600080fd5b506103236107f5366004613727565b611fd3565b34801561080657600080fd5b5061033a61201d565b61032361081d366004613795565b61202c565b34801561082e57600080fd5b5061084261083d366004613157565b612070565b6040516102fa91906137e4565b34801561085b57600080fd5b5061033a61086a366004613157565b6120e8565b34801561087b57600080fd5b5061032361088a36600461348c565b6121f2565b34801561089b57600080fd5b506102ee6108aa3660046137f2565b6001600160a01b03918216600090815260076020908152604080832093909416825291909152205460ff1690565b6103236108e636600461380e565b612253565b3480156108f757600080fd5b50600d546103bc565b34801561090c57600080fd5b5061032361091b3660046130d1565b612274565b34801561092c57600080fd5b50600a5460ff166102ee565b34801561094457600080fd5b50610323610953366004613157565b6122ed565b60006301ffc9a760e01b6001600160e01b03198316148061098957506380ac58cd60e01b6001600160e01b03198316145b806109a45750635b5e139f60e01b6001600160e01b03198316145b92915050565b6109b261234d565b600a80547fffff0000000000000000000000000000000000000000ffffffffffffffffffff16600160501b6001600160a01b038416908102919091179091556040519081527faea1573caf7b4fdd079b947d86c1be6c725642c47582f8f9bd2c7d2a30bf0bd9906020015b60405180910390a150565b606060028054610a37906138a1565b80601f0160208091040260200160405190810160405280929190818152602001828054610a63906138a1565b8015610ab05780601f10610a8557610100808354040283529160200191610ab0565b820191906000526020600020905b815481529060010190602001808311610a9357829003601f168201915b5050505050905090565b6000610ac5826123a7565b610ae2576040516333d1c03960e21b815260040160405180910390fd5b506000908152600660205260409020546001600160a01b031690565b6000610b09826111ee565b9050336001600160a01b03821614610b4257610b2581336108aa565b610b42576040516367d9dca160e11b815260040160405180910390fd5b60008281526006602052604080822080546001600160a01b0319166001600160a01b0387811691821790925591518593918516917f8c5be1e5ebec7d5bd14f71427d1e84f3dd0314c0f7b2291e5b200ac8c7c3b92591a4505050565b610ba661234d565b600a805461ff0019166101001790556040517fc6a6c2b165e62c9d37fc51a18ed76e5be22304bc1d337877c98f31c23e40b0f590610be690600e906138dc565b60405180910390a1565b600a54600090600160501b90046001600160a01b0316610c23576040516353bd4fb360e11b815260040160405180910390fd5b610d26308585600a8054906101000a90046001600160a01b031686610c454690565b610c4e8b611bb6565b604051606097881b6bffffffffffffffffffffffff19908116602083015296881b8716603482015260e09590951b6001600160e01b031916604886015292861b909416604c84015260c01b6001600160c01b031916938201939093526068810191909152608881019190915260a801604051602081830303815290604052805190602001206040517f19457468657265756d205369676e6564204d6573736167653a0a3332000000006020820152603c8101829052600090605c01604051602081830303815290604052805190602001209050919050565b90505b9392505050565b6000610d3b826123ce565b9050836001600160a01b0316816001600160a01b031614610d6e5760405162a1148160e81b815260040160405180910390fd5b60008281526006602052604090208054338082146001600160a01b03881690911417610dbb57610d9e86336108aa565b610dbb57604051632ce44b5f60e11b815260040160405180910390fd5b6001600160a01b038516610de257604051633a954ecd60e21b815260040160405180910390fd5b8015610ded57600082555b6001600160a01b038681166000908152600560205260408082208054600019019055918716808252919020805460010190554260a01b17600160e11b17600085815260046020526040902055600160e11b8316610e785760018401600081815260046020526040902054610e76576000548114610e765760008181526004602052604090208490555b505b83856001600160a01b0316876001600160a01b03167fddf252ad1be2c89b69c2b068fc378daa952ba7f163c4a11628f55a4df523b3ef60405160405180910390a45b505050505050565b610eca61234d565b600a805460ff19168215159081179091556040519081527fe717a2bfc51e250b028aaac5eb448e76f4df26b9609956782bff49097bb792cf90602001610a1d565b610f1361234d565b600c54811115610f3657604051630590c51360e01b815260040160405180910390fd5b600d8190556040518181527f5307de8ad7d34d5ddfd5171435c143bdc645493980f453eb5d7cdb3e494a1b3590602001610a1d565b610f7361234d565b6040514790600090339083908381818185875af1925050503d8060008114610fb7576040519150601f19603f3d011682016040523d82523d6000602084013e610fbc565b606091505b5050905080610fde57604051631d42c86760e21b815260040160405180910390fd5b6040518281527f5b6b431d4476a211bb7d41c20d1aab9ae2321deee0d20be3d9fc9b1093fa6e3d906020015b60405180910390a15050565b6110318383836040518060200160405280600081525061202c565b505050565b61103e61234d565b600a54610100900460ff1615611067576040516306ccad4160e41b815260040160405180910390fd5b611073600e8383612fe9565b507f23c8c9488efebfd474e85a7956de6f39b17c7ab88502d42a623db2d8e382bbaa828260405161100a929190613961565b6060816000816001600160401b038111156110c2576110c2613685565b60405190808252806020026020018201604052801561111457816020015b6040805160808101825260008082526020808301829052928201819052606082015282526000199092019101816110e05790505b50905060005b8281146111675761114286868381811061113657611136613990565b90506020020135612070565b82828151811061115457611154613990565b602090810291909101015260010161111a565b50949350505050565b61117861242f565b600b546001600160a01b03166111a157604051637e9f68eb60e11b815260040160405180910390fd5b600b546001600160a01b031633146111cc5760405163f46fd68360e01b815260040160405180910390fd5b6111db87878787878787612489565b6111e56001600955565b50505050505050565b60006109a4826123ce565b6000805b6010548110156112a7576010818154811061121a5761121a613990565b60009182526020909120600260039092020101546001600160401b03630100000090910481169084161080159061128a57506010818154811061125f5761125f613990565b60009182526020909120600260039092020101546001600160401b03600160581b9091048116908416105b156112955792915050565b8061129f816139bc565b9150506111fd565b5060405163e82a532960e01b815260040160405180910390fd5b60006001600160a01b0382166112ea576040516323d3ad8160e21b815260040160405180910390fd5b506001600160a01b03166000908152600560205260409020546001600160401b031690565b61131761234d565b61132160006128e3565b565b61132b61234d565b601054871061134d5760405163e82a532960e01b815260040160405180910390fd5b600187106113e557600a546201000090046001600160401b0316601061137460018a6139d7565b8154811061138457611384613990565b9060005260206000209060030201600201600b9054906101000a90046001600160401b03166113b391906139ee565b6001600160401b0316826001600160401b031610156113e557604051636bc1af9360e01b815260040160405180910390fd5b6113ef8282612935565b856010888154811061140357611403613990565b906000526020600020906003020160000160006101000a8154816001600160501b0302191690836001600160501b03160217905550846010888154811061144c5761144c613990565b9060005260206000209060030201600001600a6101000a81548163ffffffff021916908363ffffffff160217905550836010888154811061148f5761148f613990565b90600052602060002090600302016001018190555082601088815481106114b8576114b8613990565b906000526020600020906003020160020160006101000a81548162ffffff021916908362ffffff16021790555081601088815481106114f9576114f9613990565b906000526020600020906003020160020160036101000a8154816001600160401b0302191690836001600160401b03160217905550806010888154811061154257611542613990565b9060005260206000209060030201600201600b6101000a8154816001600160401b0302191690836001600160401b031602179055507fb3268648542a1bb1b2dd12e3b14aeb5a3ab22c592de96bdd3e842154a5b394fa878787878787876040516115b29796959493929190613a19565b60405180910390a150505050505050565b606060008060006115d3856112c1565b90506000816001600160401b038111156115ef576115ef613685565b604051908082528060200260200182016040528015611618578160200160208202803683370190505b50905061164560408051608081018252600080825260208201819052918101829052606081019190915290565b60005b8386146116c6576116588161296b565b9150816040015115611669576116be565b81516001600160a01b03161561167e57815194505b876001600160a01b0316856001600160a01b031614156116be57808387806001019850815181106116b1576116b1613990565b6020026020010181815250505b600101611648565b50909695505050505050565b6116da61234d565b60105460005b818110156117555760108054806116f9576116f9613a69565b60008281526020812060036000199093019283020180546001600160701b03191681556001810191909155600201805472ffffffffffffffffffffffffffffffffffffff1916905590558061174d816139bc565b9150506116e0565b50600a546201000090046001600160401b031660005b83811015611ba05760018110611815578185856117896001856139d7565b81811061179857611798613990565b905060c0020160a00160208101906117b0919061348c565b6117ba91906139ee565b6001600160401b03168585838181106117d5576117d5613990565b905060c0020160800160208101906117ed919061348c565b6001600160401b0316101561181557604051636bc1af9360e01b815260040160405180910390fd5b61187185858381811061182a5761182a613990565b905060c002016080016020810190611842919061348c565b86868481811061185457611854613990565b905060c0020160a001602081019061186c919061348c565b612935565b60106040518060c0016040528087878581811061189057611890613990565b6118a692602060c0909202019081019150613a7f565b6001600160501b031681526020018787858181106118c6576118c6613990565b905060c0020160200160208101906118de9190613a9a565b63ffffffff1681526020018787858181106118fb576118fb613990565b905060c0020160400135815260200187878581811061191c5761191c613990565b905060c0020160600160208101906119349190613ab5565b62ffffff16815260200187878581811061195057611950613990565b905060c002016080016020810190611968919061348c565b6001600160401b0316815260200187878581811061198857611988613990565b905060c0020160a00160208101906119a0919061348c565b6001600160401b039081169091528254600181810185556000948552602094859020845160039093020180549585015163ffffffff16600160501b026001600160701b03199096166001600160501b0390931692909217949094178155604083015193810193909355606082015160029093018054608084015160a0909401518316600160581b0267ffffffffffffffff60581b19949093166301000000026affffffffffffffffffffff1990911662ffffff9095169490941793909317919091161790557fb3268648542a1bb1b2dd12e3b14aeb5a3ab22c592de96bdd3e842154a5b394fa81868682818110611a9957611a99613990565b611aaf92602060c0909202019081019150613a7f565b878785818110611ac157611ac1613990565b905060c002016020016020810190611ad99190613a9a565b888886818110611aeb57611aeb613990565b905060c0020160400135898987818110611b0757611b07613990565b905060c002016060016020810190611b1f9190613ab5565b8a8a88818110611b3157611b31613990565b905060c002016080016020810190611b49919061348c565b8b8b89818110611b5b57611b5b613990565b905060c0020160a0016020810190611b73919061348c565b604051611b869796959493929190613a19565b60405180910390a180611b98816139bc565b91505061176b565b5050505050565b606060038054610a37906138a1565b6001600160a01b038116600090815260056020526040808220546001600160401b03911c166109a4565b611be861234d565b600b80546001600160a01b0319166001600160a01b0383169081179091556040519081527ff477d93c015f2a73c2ccc5ed37078d12123b80fc5d12e0014c60b913bc1a1ec490602001610a1d565b6060818310611c5857604051631960ccad60e11b815260040160405180910390fd5b600080611c6460005490565b905080841115611c72578093505b6000611c7d876112c1565b905084861015611c9c5785850381811015611c96578091505b50611ca0565b5060005b6000816001600160401b03811115611cba57611cba613685565b604051908082528060200260200182016040528015611ce3578160200160208202803683370190505b50905081611cf6579350610d2992505050565b6000611d0188612070565b905060008160400151611d12575080515b885b888114158015611d245750848714155b15611da057611d328161296b565b9250826040015115611d4357611d98565b82516001600160a01b031615611d5857825191505b8a6001600160a01b0316826001600160a01b03161415611d985780848880600101995081518110611d8b57611d8b613990565b6020026020010181815250505b600101611d14565b505050928352509095945050505050565b3360008181526007602090815260408083206001600160a01b03871680855290835292819020805460ff191686151590811790915590519081529192917f17307eab39ab6107e8899845ad3d59bd9653f200f220920489ca2b5937696c31910160405180910390a35050565b6040805160c081018252600080825260208201819052918101829052606081018290526080810182905260a081019190915260105460009081908410611e995760405162461bcd60e51b815260206004820152600c60248201526b496e76616c6964537461676560a01b60448201526064015b60405180910390fd5b60008481526011602090815260408083203384528252808320548784526012909252909120546010805463ffffffff9093169287908110611edc57611edc613990565b60009182526020918290206040805160c08101825260039390930290910180546001600160501b0381168452600160501b900463ffffffff169383019390935260018301549082015260029091015462ffffff81166060830152630100000081046001600160401b039081166080840152600160581b9091041660a0820152969195509350915050565b611f6e61234d565b611031600f8383612fe9565b611f8261234d565b8163ffffffff16600c5481611f9a6001546000540390565b611fa49190613ad0565b1115611fc35760405163800113cb60e01b815260040160405180910390fd5b611031828463ffffffff166129a7565b600a54611ffb90600160501b90046001600160a01b0316611ff5868686610bf0565b836129c1565b6120175760405162b7fad960e11b815260040160405180910390fd5b50505050565b6060600f8054610a37906138a1565b612037848484610d30565b6001600160a01b0383163b156120175761205384848484612b03565b612017576040516368d2bf6b60e11b815260040160405180910390fd5b60408051608080820183526000808352602080840182905283850182905260608085018390528551938401865282845290830182905293820181905292810183905290915060005483106120c45792915050565b6120cd8361296b565b90508060400151156120df5792915050565b610d2983612bfa565b60606120f3826123a7565b61211057604051630a14c4b560e41b815260040160405180910390fd5b6000600e805461211f906138a1565b80601f016020809104026020016040519081016040528092919081815260200182805461214b906138a1565b80156121985780601f1061216d57610100808354040283529160200191612198565b820191906000526020600020905b81548152906001019060200180831161217b57829003601f168201915b505050505090508051600014156121be5760405180602001604052806000815250610d29565b806121c884612c2f565b600f6040516020016121dc93929190613ae8565b6040516020818303038152906040529392505050565b6121fa61234d565b600a805469ffffffffffffffff00001916620100006001600160401b038416908102919091179091556040519081527f41b9126ccd8cb4505310c40a376055b5ef246bd4c9214de02af31ef4f26b1b5f90602001610a1d565b61225b61242f565b61226a86338787878787612489565b610eba6001600955565b61227c61234d565b6001600160a01b0381166122e15760405162461bcd60e51b815260206004820152602660248201527f4f776e61626c653a206e6577206f776e657220697320746865207a65726f206160448201526564647265737360d01b6064820152608401611e90565b6122ea816128e3565b50565b6122f561234d565b600c548111156123185760405163430b83b160e11b815260040160405180910390fd5b600c8190556040518181527fc7bbc2b288fc13314546ea4aa51f6bcf71b7ba4740beeb3d32e9acef57b6668a90602001610a1d565b6008546001600160a01b031633146113215760405162461bcd60e51b815260206004820181905260248201527f4f776e61626c653a2063616c6c6572206973206e6f7420746865206f776e65726044820152606401611e90565b60008054821080156109a4575050600090815260046020526040902054600160e01b161590565b60008160005481101561241657600081815260046020526040902054600160e01b8116612414575b80610d295750600019016000818152600460205260409020546123f6565b505b604051636f96cda160e11b815260040160405180910390fd5b600260095414156124825760405162461bcd60e51b815260206004820152601f60248201527f5265656e7472616e637947756172643a207265656e7472616e742063616c6c006044820152606401611e90565b6002600955565b600a5460ff166124ac57604051630952c8a960e11b815260040160405180910390fd5b8663ffffffff16600c54816124c46001546000540390565b6124ce9190613ad0565b11156124ed5760405163800113cb60e01b815260040160405180910390fd5b426125266040805160c081018252600080825260208201819052918101829052606081018290526080810182905260a081019190915290565b600a54600160501b90046001600160a01b03161561258d57612580338b8888888080601f016020809104026020016040519081016040528093929190818152602001838380828437600092019190915250611fd392505050565b61258986612c7d565b8591505b6000612598836111f9565b9050601081815481106125ad576125ad613990565b60009182526020918290206040805160c081018252600390930290910180546001600160501b03811680855263ffffffff600160501b9092048216958501959095526001820154928401929092526002015462ffffff811660608401526001600160401b036301000000820481166080850152600160581b9091041660a083015290935061263e91908d1690613b84565b6001600160501b031634101561266757604051630717c22560e51b815260040160405180910390fd5b606082015162ffffff16156126c157606082015160008281526012602052604090205462ffffff909116906126a39063ffffffff8e1690613ad0565b11156126c15760405162d0844960e21b815260040160405180910390fd5b600d541561272857600d548b63ffffffff166126ff8c6001600160a01b03166000908152600560205260409081902054901c6001600160401b031690565b6127099190613ad0565b11156127285760405163751304ed60e11b815260040160405180910390fd5b602082015163ffffffff161561279a5760208083015160008381526011835260408082206001600160a01b038f168352909352919091205463ffffffff91821691612775918e9116613bb3565b63ffffffff16111561279a5760405163b4f3729b60e01b815260040160405180910390fd5b6040820151156128415781604001516128238a8a808060200260200160405190810160405280939291908181526020018383602002808284376000920191909152505060405161280892508f915060200160609190911b6bffffffffffffffffffffffff1916815260140190565b60405160208183030381529060405280519060200120612cc2565b14612841576040516309bde33960e01b815260040160405180910390fd5b60008181526011602090815260408083206001600160a01b038e168452909152812080548d929061287990849063ffffffff16613bb3565b92506101000a81548163ffffffff021916908363ffffffff1602179055508a63ffffffff166012600083815260200190815260200160002060008282546128c09190613ad0565b909155506128d690508a63ffffffff8d166129a7565b5050505050505050505050565b600880546001600160a01b038381166001600160a01b0319831681179093556040519116919082907f8be0079c531659141344cd1fd0a4f28419497f9722a3daafe3b4186f6b6457e090600090a35050565b806001600160401b0316826001600160401b03161061296757604051631750215560e11b815260040160405180910390fd5b5050565b6040805160808101825260008082526020820181905291810182905260608101919091526000828152600460205260409020546109a490612d0f565b612967828260405180602001604052806000815250612d56565b60008060006129d08585612dbc565b909250905060008160048111156129e9576129e9613bd2565b148015612a075750856001600160a01b0316826001600160a01b0316145b15612a1757600192505050610d29565b600080876001600160a01b0316631626ba7e60e01b8888604051602401612a3f929190613be8565b60408051601f198184030181529181526020820180516001600160e01b03166001600160e01b0319909416939093179092529051612a7d9190613c01565b600060405180830381855afa9150503d8060008114612ab8576040519150601f19603f3d011682016040523d82523d6000602084013e612abd565b606091505b5091509150818015612ad0575080516020145b8015612af757508051630b135d3f60e11b90612af59083016020908101908401613c1d565b145b98975050505050505050565b604051630a85bd0160e11b81526000906001600160a01b0385169063150b7a0290612b38903390899088908890600401613c36565b602060405180830381600087803b158015612b5257600080fd5b505af1925050508015612b82575060408051601f3d908101601f19168201909252612b7f91810190613c73565b60015b612bdd573d808015612bb0576040519150601f19603f3d011682016040523d82523d6000602084013e612bb5565b606091505b508051612bd5576040516368d2bf6b60e11b815260040160405180910390fd5b805181602001fd5b6001600160e01b031916630a85bd0160e11b149050949350505050565b6040805160808101825260008082526020820181905291810182905260608101919091526109a4612c2a836123ce565b612d0f565b606060a06040510180604052602081039150506000815280825b600183039250600a81066030018353600a900480612c6657612c6b565b612c49565b50819003601f19909101908152919050565b600a54612c99906201000090046001600160401b0316426139d7565b816001600160401b031610156122ea576040516313634e8d60e11b815260040160405180910390fd5b600081815b8451811015612d0757612cf382868381518110612ce657612ce6613990565b6020026020010151612e02565b915080612cff816139bc565b915050612cc7565b509392505050565b604080516080810182526001600160a01b038316815260a083901c6001600160401b03166020820152600160e01b831615159181019190915260e89190911c606082015290565b612d608383612e2e565b6001600160a01b0383163b15611031576000548281035b612d8a6000868380600101945086612b03565b612da7576040516368d2bf6b60e11b815260040160405180910390fd5b818110612d77578160005414611ba057600080fd5b600080825160411415612df35760208301516040840151606085015160001a612de787828585612f25565b94509450505050612dfb565b506000905060025b9250929050565b6000818310612e1e576000828152602084905260409020610d29565b5060009182526020526040902090565b60005481612e4f5760405163b562e8dd60e01b815260040160405180910390fd5b6001600160a01b03831660008181526005602090815260408083208054680100000000000000018802019055848352600490915281206001851460e11b4260a01b178317905582840190839083907fddf252ad1be2c89b69c2b068fc378daa952ba7f163c4a11628f55a4df523b3ef8180a4600183015b818114612efe57808360007fddf252ad1be2c89b69c2b068fc378daa952ba7f163c4a11628f55a4df523b3ef600080a4600101612ec6565b5081612f1c57604051622e076360e81b815260040160405180910390fd5b60005550505050565b6000807f7fffffffffffffffffffffffffffffff5d576e7357a4501ddfe92f46681b20a0831115612f5c5750600090506003612fe0565b6040805160008082526020820180845289905260ff881692820192909252606081018690526080810185905260019060a0016020604051602081039080840390855afa158015612fb0573d6000803e3d6000fd5b5050604051601f1901519150506001600160a01b038116612fd957600060019250925050612fe0565b9150600090505b94509492505050565b828054612ff5906138a1565b90600052602060002090601f016020900481019282613017576000855561305d565b82601f106130305782800160ff1982351617855561305d565b8280016001018555821561305d579182015b8281111561305d578235825591602001919060010190613042565b5061306992915061306d565b5090565b5b80821115613069576000815560010161306e565b6001600160e01b0319811681146122ea57600080fd5b6000602082840312156130aa57600080fd5b8135610d2981613082565b80356001600160a01b03811681146130cc57600080fd5b919050565b6000602082840312156130e357600080fd5b610d29826130b5565b60005b838110156131075781810151838201526020016130ef565b838111156120175750506000910152565b600081518084526131308160208601602086016130ec565b601f01601f19169290920160200192915050565b602081526000610d296020830184613118565b60006020828403121561316957600080fd5b5035919050565b6000806040838503121561318357600080fd5b61318c836130b5565b946020939093013593505050565b803563ffffffff811681146130cc57600080fd5b80356001600160401b03811681146130cc57600080fd5b6000806000606084860312156131da57600080fd5b6131e3846130b5565b92506131f16020850161319a565b91506131ff604085016131ae565b90509250925092565b60008060006060848603121561321d57600080fd5b613226846130b5565b9250613234602085016130b5565b9150604084013590509250925092565b803580151581146130cc57600080fd5b60006020828403121561326657600080fd5b610d2982613244565b60008083601f84011261328157600080fd5b5081356001600160401b0381111561329857600080fd5b602083019150836020828501011115612dfb57600080fd5b600080602083850312156132c357600080fd5b82356001600160401b038111156132d957600080fd5b6132e58582860161326f565b90969095509350505050565b60008083601f84011261330357600080fd5b5081356001600160401b0381111561331a57600080fd5b6020830191508360208260051b8501011115612dfb57600080fd5b6000806020838503121561334857600080fd5b82356001600160401b0381111561335e57600080fd5b6132e5858286016132f1565b80516001600160a01b031682526020808201516001600160401b03169083015260408082015115159083015260609081015162ffffff16910152565b6020808252825182820181905260009190848201906040850190845b818110156116c6576133d583855161336a565b92840192608092909201916001016133c2565b600080600080600080600060a0888a03121561340357600080fd5b61340c8861319a565b965061341a602089016130b5565b955060408801356001600160401b038082111561343657600080fd5b6134428b838c016132f1565b909750955085915061345660608b016131ae565b945060808a013591508082111561346c57600080fd5b506134798a828b0161326f565b989b979a50959850939692959293505050565b60006020828403121561349e57600080fd5b610d29826131ae565b80356001600160501b03811681146130cc57600080fd5b803562ffffff811681146130cc57600080fd5b600080600080600080600060e0888a0312156134ec57600080fd5b873596506134fc602089016134a7565b955061350a6040890161319a565b94506060880135935061351f608089016134be565b925061352d60a089016131ae565b915061353b60c089016131ae565b905092959891949750929550565b6020808252825182820181905260009190848201906040850190845b818110156116c657835183529284019291840191600101613565565b6000806020838503121561359457600080fd5b82356001600160401b03808211156135ab57600080fd5b818501915085601f8301126135bf57600080fd5b8135818111156135ce57600080fd5b86602060c0830285010111156135e357600080fd5b60209290920196919550909350505050565b60008060006060848603121561360a57600080fd5b613613846130b5565b95602085013595506040909401359392505050565b6000806040838503121561363b57600080fd5b613644836130b5565b915061365260208401613244565b90509250929050565b6000806040838503121561366e57600080fd5b6136778361319a565b9150613652602084016130b5565b634e487b7160e01b600052604160045260246000fd5b600082601f8301126136ac57600080fd5b81356001600160401b03808211156136c6576136c6613685565b604051601f8301601f19908116603f011681019082821181831017156136ee576136ee613685565b8160405283815286602085880101111561370757600080fd5b836020870160208301376000602085830101528094505050505092915050565b6000806000806080858703121561373d57600080fd5b613746856130b5565b93506137546020860161319a565b9250613762604086016131ae565b915060608501356001600160401b0381111561377d57600080fd5b6137898782880161369b565b91505092959194509250565b600080600080608085870312156137ab57600080fd5b6137b4856130b5565b93506137c2602086016130b5565b92506040850135915060608501356001600160401b0381111561377d57600080fd5b608081016109a4828461336a565b6000806040838503121561380557600080fd5b613677836130b5565b6000806000806000806080878903121561382757600080fd5b6138308761319a565b955060208701356001600160401b038082111561384c57600080fd5b6138588a838b016132f1565b909750955085915061386c60408a016131ae565b9450606089013591508082111561388257600080fd5b5061388f89828a0161326f565b979a9699509497509295939492505050565b600181811c908216806138b557607f821691505b602082108114156138d657634e487b7160e01b600052602260045260246000fd5b50919050565b60006020808352600084546138f0816138a1565b80848701526040600180841660008114613911576001811461392557613953565b60ff19851689840152606089019550613953565b896000528660002060005b8581101561394b5781548b8201860152908301908801613930565b8a0184019650505b509398975050505050505050565b60208152816020820152818360408301376000818301604090810191909152601f909201601f19160101919050565b634e487b7160e01b600052603260045260246000fd5b634e487b7160e01b600052601160045260246000fd5b60006000198214156139d0576139d06139a6565b5060010190565b6000828210156139e9576139e96139a6565b500390565b60006001600160401b03808316818516808303821115613a1057613a106139a6565b01949350505050565b9687526001600160501b0395909516602087015263ffffffff939093166040860152606085019190915262ffffff1660808401526001600160401b0390811660a08401521660c082015260e00190565b634e487b7160e01b600052603160045260246000fd5b600060208284031215613a9157600080fd5b610d29826134a7565b600060208284031215613aac57600080fd5b610d298261319a565b600060208284031215613ac757600080fd5b610d29826134be565b60008219821115613ae357613ae36139a6565b500190565b600084516020613afb8285838a016130ec565b855191840191613b0e8184848a016130ec565b8554920191600090613b1f816138a1565b60018281168015613b375760018114613b4857613b74565b60ff19841687528287019450613b74565b896000528560002060005b84811015613b6c57815489820152908301908701613b53565b505082870194505b50929a9950505050505050505050565b60006001600160501b0380831681851681830481118215151615613baa57613baa6139a6565b02949350505050565b600063ffffffff808316818516808303821115613a1057613a106139a6565b634e487b7160e01b600052602160045260246000fd5b828152604060208201526000610d266040830184613118565b60008251613c138184602087016130ec565b9190910192915050565b600060208284031215613c2f57600080fd5b5051919050565b6001600160a01b0385811682528416602082015260408101839052608060608201819052600090613c6990830184613118565b9695505050505050565b600060208284031215613c8557600080fd5b8151610d298161308256fea2646970667358221220043e87876511be4b27809096e16ebb29ac0f0779a4daf1d4165c02b7d9bdc23364736f6c63430008090033",
  "devdoc": {
    "details": "ERC721A subclass with MagicEden launchpad features including  - multiple minting stages with time-based auto stage switch  - global and stage wallet-level minting limit  - whitelist using merkle tree  - crossmint support  - anti-botting",
    "kind": "dev",
    "methods": {
      "approve(address,uint256)": {
        "details": "Gives permission to `to` to transfer `tokenId` token to another account. The approval is cleared when the token is transferred. Only a single account can be approved at a time, so approving the zero address clears previous approvals. Requirements: - The caller must own the token or be an approved operator. - `tokenId` must exist. Emits an {Approval} event."
      },
      "assertValidCosign(address,uint32,uint64,bytes)": {
        "details": "Validates the the given signature."
      },
      "balanceOf(address)": {
        "details": "Returns the number of tokens in `owner`'s account."
      },
      "crossmint(uint32,address,bytes32[],uint64,bytes)": {
        "details": "Mints token(s) through crossmint. This function is supposed to be called by crossmint. qty - number of tokens to mint to - the address to mint tokens to proof - the merkle proof generated on client side. This applies if using whitelist. timestamp - the current timestamp signature - the signature from cosigner if using cosigner."
      },
      "explicitOwnershipOf(uint256)": {
        "details": "Returns the `TokenOwnership` struct at `tokenId` without reverting. If the `tokenId` is out of bounds: - `addr = address(0)` - `startTimestamp = 0` - `burned = false` - `extraData = 0` If the `tokenId` is burned: - `addr = <Address of owner before token was burned>` - `startTimestamp = <Timestamp when token was burned>` - `burned = true` - `extraData = <Extra data when token was burned>` Otherwise: - `addr = <Address of owner>` - `startTimestamp = <Timestamp of start of ownership>` - `burned = false` - `extraData = <Extra data at start of ownership>`"
      },
      "explicitOwnershipsOf(uint256[])": {
        "details": "Returns an array of `TokenOwnership` structs at `tokenIds` in order. See {ERC721AQueryable-explicitOwnershipOf}"
      },
      "getActiveStageFromTimestamp(uint64)": {
        "details": "Returns the current active stage based on timestamp."
      },
      "getApproved(uint256)": {
        "details": "Returns the account approved for `tokenId` token. Requirements: - `tokenId` must exist."
      },
      "getCosignDigest(address,uint32,uint64)": {
        "details": "Returns data hash for the given minter, qty and timestamp."
      },
      "getCosignNonce(address)": {
        "details": "Returns cosign nonce."
      },
      "getCosigner()": {
        "details": "Returns cosigner address."
      },
      "getCrossmintAddress()": {
        "details": "Returns crossmint address."
      },
      "getGlobalWalletLimit()": {
        "details": "Returns global wallet limit. This is the max number of tokens can be minted by one wallet."
      },
      "getMaxMintableSupply()": {
        "details": "Returns maximum mintable supply."
      },
      "getMintable()": {
        "details": "Gets whether mintable."
      },
      "getNumberStages()": {
        "details": "Returns number of stages."
      },
      "getStageInfo(uint256)": {
        "details": "Returns info for one stage specified by index (starting from 0)."
      },
      "getTimestampExpirySeconds()": {
        "details": "Returns expiry in seconds."
      },
      "getTokenURISuffix()": {
        "details": "Returns token URI suffix."
      },
      "isApprovedForAll(address,address)": {
        "details": "Returns if the `operator` is allowed to manage all of the assets of `owner`. See {setApprovalForAll}."
      },
      "mint(uint32,bytes32[],uint64,bytes)": {
        "details": "Mints token(s). qty - number of tokens to mint proof - the merkle proof generated on client side. This applies if using whitelist. timestamp - the current timestamp signature - the signature from cosigner if using cosigner."
      },
      "name()": {
        "details": "Returns the token collection name."
      },
      "owner()": {
        "details": "Returns the address of the current owner."
      },
      "ownerMint(uint32,address)": {
        "details": "Mints token(s) by owner. NOTE: This function bypasses validations thus only available for owner. This is typically used for owner to  pre-mint or mint the remaining of the supply."
      },
      "ownerOf(uint256)": {
        "details": "Returns the owner of the `tokenId` token. Requirements: - `tokenId` must exist."
      },
      "renounceOwnership()": {
        "details": "Leaves the contract without owner. It will not be possible to call `onlyOwner` functions anymore. Can only be called by the current owner. NOTE: Renouncing ownership will leave the contract without an owner, thereby removing any functionality that is only available to the owner."
      },
      "safeTransferFrom(address,address,uint256)": {
        "details": "Equivalent to `safeTransferFrom(from, to, tokenId, '')`."
      },
      "safeTransferFrom(address,address,uint256,bytes)": {
        "details": "Safely transfers `tokenId` token from `from` to `to`. Requirements: - `from` cannot be the zero address. - `to` cannot be the zero address. - `tokenId` token must exist and be owned by `from`. - If the caller is not `from`, it must be approved to move this token by either {approve} or {setApprovalForAll}. - If `to` refers to a smart contract, it must implement {IERC721Receiver-onERC721Received}, which is called upon a safe transfer. Emits a {Transfer} event."
      },
      "setApprovalForAll(address,bool)": {
        "details": "Approve or remove `operator` as an operator for the caller. Operators can call {transferFrom} or {safeTransferFrom} for any token owned by the caller. Requirements: - The `operator` cannot be the caller. Emits an {ApprovalForAll} event."
      },
      "setBaseURI(string)": {
        "details": "Sets token base URI."
      },
      "setBaseURIPermanent()": {
        "details": "Sets token base URI permanent. Cannot revert."
      },
      "setCosigner(address)": {
        "details": "Sets cosigner."
      },
      "setCrossmintAddress(address)": {
        "details": "Sets crossmint address if using crossmint. This allows the specified address to call `crossmint`."
      },
      "setGlobalWalletLimit(uint256)": {
        "details": "Sets global wallet limit."
      },
      "setMaxMintableSupply(uint256)": {
        "details": "Sets maximum mintable supply. New supply cannot be larger than the old."
      },
      "setMintable(bool)": {
        "details": "Sets mintable."
      },
      "setStages((uint80,uint32,bytes32,uint24,uint64,uint64)[])": {
        "details": "Sets stages in the format of an array of `MintStageInfo`. Following is an example of launch with two stages. The first stage is exclusive for whitelisted wallets specified by merkle root.    [{      price: 10000000000000000000,      maxStageSupply: 2000,      walletLimit: 1,      merkleRoot: 0x559fadeb887449800b7b320bf1e92d309f329b9641ac238bebdb74e15c0a5218,      startTimeUnixSeconds: 1667768000,      endTimeUnixSeconds: 1667771600,     },     {      price: 20000000000000000000,      maxStageSupply: 3000,      walletLimit: 2,      merkleRoot: 0,      startTimeUnixSeconds: 1667771600,      endTimeUnixSeconds: 1667775200,     } ]"
      },
      "setTimestampExpirySeconds(uint64)": {
        "details": "Sets expiry in seconds. This timestamp specifies how long a signature from cosigner is valid for."
      },
      "setTokenURISuffix(string)": {
        "details": "Sets token URI suffix. e.g. \".json\"."
      },
      "supportsInterface(bytes4)": {
        "details": "Returns true if this contract implements the interface defined by `interfaceId`. See the corresponding [EIP section](https://eips.ethereum.org/EIPS/eip-165#how-interfaces-are-identified) to learn more about how these ids are created. This function call must use less than 30000 gas."
      },
      "symbol()": {
        "details": "Returns the token collection symbol."
      },
      "tokenURI(uint256)": {
        "details": "Returns token URI for a given token id."
      },
      "tokensOfOwner(address)": {
        "details": "Returns an array of token IDs owned by `owner`. This function scans the ownership mapping and is O(`totalSupply`) in complexity. It is meant to be called off-chain. See {ERC721AQueryable-tokensOfOwnerIn} for splitting the scan into multiple smaller scans if the collection is large enough to cause an out-of-gas error (10K collections should be fine)."
      },
      "tokensOfOwnerIn(address,uint256,uint256)": {
        "details": "Returns an array of token IDs owned by `owner`, in the range [`start`, `stop`) (i.e. `start <= tokenId < stop`). This function allows for tokens to be queried if the collection grows too big for a single call of {ERC721AQueryable-tokensOfOwner}. Requirements: - `start < stop`"
      },
      "totalMintedByAddress(address)": {
        "details": "Returns number of minted token for a given address."
      },
      "totalSupply()": {
        "details": "Returns the total number of tokens in existence. Burned tokens will reduce the count. To get the total number of tokens minted, please see {_totalMinted}."
      },
      "transferFrom(address,address,uint256)": {
        "details": "Transfers `tokenId` from `from` to `to`. Requirements: - `from` cannot be the zero address. - `to` cannot be the zero address. - `tokenId` token must be owned by `from`. - If the caller is not `from`, it must be approved to move this token by either {approve} or {setApprovalForAll}. Emits a {Transfer} event."
      },
      "transferOwnership(address)": {
        "details": "Transfers ownership of the contract to a new account (`newOwner`). Can only be called by the current owner."
      },
      "updateStage(uint256,uint80,uint32,bytes32,uint24,uint64,uint64)": {
        "details": "Updates info for one stage specified by index (starting from 0)."
      },
      "withdraw()": {
        "details": "Withdraws funds by owner."
      }
    },
    "title": "ERC721M",
    "version": 1
  },
  "userdoc": {
    "errors": {
      "ApprovalCallerNotOwnerNorApproved()": [
        {
          "notice": "The caller must own the token or be an approved operator."
        }
      ],
      "ApprovalQueryForNonexistentToken()": [
        {
          "notice": "The token does not exist."
        }
      ],
      "BalanceQueryForZeroAddress()": [
        {
          "notice": "Cannot query the balance for the zero address."
        }
      ],
      "InvalidQueryRange()": [
        {
          "notice": "Invalid query range (`start` >= `stop`)."
        }
      ],
      "MintERC2309QuantityExceedsLimit()": [
        {
          "notice": "The `quantity` minted with ERC2309 exceeds the safety limit."
        }
      ],
      "MintToZeroAddress()": [
        {
          "notice": "Cannot mint to the zero address."
        }
      ],
      "MintZeroQuantity()": [
        {
          "notice": "The quantity of tokens minted must be more than zero."
        }
      ],
      "OwnerQueryForNonexistentToken()": [
        {
          "notice": "The token does not exist."
        }
      ],
      "OwnershipNotInitializedForExtraData()": [
        {
          "notice": "The `extraData` cannot be set on an unintialized ownership slot."
        }
      ],
      "TransferCallerNotOwnerNorApproved()": [
        {
          "notice": "The caller must own the token or be an approved operator."
        }
      ],
      "TransferFromIncorrectOwner()": [
        {
          "notice": "The token must be owned by `from`."
        }
      ],
      "TransferToNonERC721ReceiverImplementer()": [
        {
          "notice": "Cannot safely transfer to a contract that does not implement the ERC721Receiver interface."
        }
      ],
      "TransferToZeroAddress()": [
        {
          "notice": "Cannot transfer to the zero address."
        }
      ],
      "URIQueryForNonexistentToken()": [
        {
          "notice": "The token does not exist."
        }
      ]
    },
    "kind": "user",
    "methods": {},
    "version": 1
  },
  "storageLayout": {
    "storage": [
      {
        "astId": 6033,
        "contract": "contracts/Corpos.sol:Corpos",
        "label": "_currentIndex",
        "offset": 0,
        "slot": "0",
        "type": "t_uint256"
      },
      {
        "astId": 6035,
        "contract": "contracts/Corpos.sol:Corpos",
        "label": "_burnCounter",
        "offset": 0,
        "slot": "1",
        "type": "t_uint256"
      },
      {
        "astId": 6037,
        "contract": "contracts/Corpos.sol:Corpos",
        "label": "_name",
        "offset": 0,
        "slot": "2",
        "type": "t_string_storage"
      },
      {
        "astId": 6039,
        "contract": "contracts/Corpos.sol:Corpos",
        "label": "_symbol",
        "offset": 0,
        "slot": "3",
        "type": "t_string_storage"
      },
      {
        "astId": 6043,
        "contract": "contracts/Corpos.sol:Corpos",
        "label": "_packedOwnerships",
        "offset": 0,
        "slot": "4",
        "type": "t_mapping(t_uint256,t_uint256)"
      },
      {
        "astId": 6047,
        "contract": "contracts/Corpos.sol:Corpos",
        "label": "_packedAddressData",
        "offset": 0,
        "slot": "5",
        "type": "t_mapping(t_address,t_uint256)"
      },
      {
        "astId": 6052,
        "contract": "contracts/Corpos.sol:Corpos",
        "label": "_tokenApprovals",
        "offset": 0,
        "slot": "6",
        "type": "t_mapping(t_uint256,t_struct(TokenApprovalRef)5965_storage)"
      },
      {
        "astId": 6058,
        "contract": "contracts/Corpos.sol:Corpos",
        "label": "_operatorApprovals",
        "offset": 0,
        "slot": "7",
        "type": "t_mapping(t_address,t_mapping(t_address,t_bool))"
      },
      {
        "astId": 396,
        "contract": "contracts/Corpos.sol:Corpos",
        "label": "_owner",
        "offset": 0,
        "slot": "8",
        "type": "t_address"
      },
      {
        "astId": 526,
        "contract": "contracts/Corpos.sol:Corpos",
        "label": "_status",
        "offset": 0,
        "slot": "9",
        "type": "t_uint256"
      },
      {
        "astId": 4354,
        "contract": "contracts/Corpos.sol:Corpos",
        "label": "_mintable",
        "offset": 0,
        "slot": "10",
        "type": "t_bool"
      },
      {
        "astId": 4356,
        "contract": "contracts/Corpos.sol:Corpos",
        "label": "_baseURIPermanent",
        "offset": 1,
        "slot": "10",
        "type": "t_bool"
      },
      {
        "astId": 4358,
        "contract": "contracts/Corpos.sol:Corpos",
        "label": "_timestampExpirySeconds",
        "offset": 2,
        "slot": "10",
        "type": "t_uint64"
      },
      {
        "astId": 4360,
        "contract": "contracts/Corpos.sol:Corpos",
        "label": "_cosigner",
        "offset": 10,
        "slot": "10",
        "type": "t_address"
      },
      {
        "astId": 4362,
        "contract": "contracts/Corpos.sol:Corpos",
        "label": "_crossmintAddress",
        "offset": 0,
        "slot": "11",
        "type": "t_address"
      },
      {
        "astId": 4364,
        "contract": "contracts/Corpos.sol:Corpos",
        "label": "_maxMintableSupply",
        "offset": 0,
        "slot": "12",
        "type": "t_uint256"
      },
      {
        "astId": 4366,
        "contract": "contracts/Corpos.sol:Corpos",
        "label": "_globalWalletLimit",
        "offset": 0,
        "slot": "13",
        "type": "t_uint256"
      },
      {
        "astId": 4368,
        "contract": "contracts/Corpos.sol:Corpos",
        "label": "_currentBaseURI",
        "offset": 0,
        "slot": "14",
        "type": "t_string_storage"
      },
      {
        "astId": 4370,
        "contract": "contracts/Corpos.sol:Corpos",
        "label": "_tokenURISuffix",
        "offset": 0,
        "slot": "15",
        "type": "t_string_storage"
      },
      {
        "astId": 4374,
        "contract": "contracts/Corpos.sol:Corpos",
        "label": "_mintStages",
        "offset": 0,
        "slot": "16",
        "type": "t_array(t_struct(MintStageInfo)5630_storage)dyn_storage"
      },
      {
        "astId": 4380,
        "contract": "contracts/Corpos.sol:Corpos",
        "label": "_stageMintedCountsPerWallet",
        "offset": 0,
        "slot": "17",
        "type": "t_mapping(t_uint256,t_mapping(t_address,t_uint32))"
      },
      {
        "astId": 4384,
        "contract": "contracts/Corpos.sol:Corpos",
        "label": "_stageMintedCounts",
        "offset": 0,
        "slot": "18",
        "type": "t_mapping(t_uint256,t_uint256)"
      }
    ],
    "types": {
      "t_address": {
        "encoding": "inplace",
        "label": "address",
        "numberOfBytes": "20"
      },
      "t_array(t_struct(MintStageInfo)5630_storage)dyn_storage": {
        "base": "t_struct(MintStageInfo)5630_storage",
        "encoding": "dynamic_array",
        "label": "struct IERC721M.MintStageInfo[]",
        "numberOfBytes": "32"
      },
      "t_bool": {
        "encoding": "inplace",
        "label": "bool",
        "numberOfBytes": "1"
      },
      "t_bytes32": {
        "encoding": "inplace",
        "label": "bytes32",
        "numberOfBytes": "32"
      },
      "t_mapping(t_address,t_bool)": {
        "encoding": "mapping",
        "key": "t_address",
        "label": "mapping(address => bool)",
        "numberOfBytes": "32",
        "value": "t_bool"
      },
      "t_mapping(t_address,t_mapping(t_address,t_bool))": {
        "encoding": "mapping",
        "key": "t_address",
        "label": "mapping(address => mapping(address => bool))",
        "numberOfBytes": "32",
        "value": "t_mapping(t_address,t_bool)"
      },
      "t_mapping(t_address,t_uint256)": {
        "encoding": "mapping",
        "key": "t_address",
        "label": "mapping(address => uint256)",
        "numberOfBytes": "32",
        "value": "t_uint256"
      },
      "t_mapping(t_address,t_uint32)": {
        "encoding": "mapping",
        "key": "t_address",
        "label": "mapping(address => uint32)",
        "numberOfBytes": "32",
        "value": "t_uint32"
      },
      "t_mapping(t_uint256,t_mapping(t_address,t_uint32))": {
        "encoding": "mapping",
        "key": "t_uint256",
        "label": "mapping(uint256 => mapping(address => uint32))",
        "numberOfBytes": "32",
        "value": "t_mapping(t_address,t_uint32)"
      },
      "t_mapping(t_uint256,t_struct(TokenApprovalRef)5965_storage)": {
        "encoding": "mapping",
        "key": "t_uint256",
        "label": "mapping(uint256 => struct ERC721A.TokenApprovalRef)",
        "numberOfBytes": "32",
        "value": "t_struct(TokenApprovalRef)5965_storage"
      },
      "t_mapping(t_uint256,t_uint256)": {
        "encoding": "mapping",
        "key": "t_uint256",
        "label": "mapping(uint256 => uint256)",
        "numberOfBytes": "32",
        "value": "t_uint256"
      },
      "t_string_storage": {
        "encoding": "bytes",
        "label": "string",
        "numberOfBytes": "32"
      },
      "t_struct(MintStageInfo)5630_storage": {
        "encoding": "inplace",
        "label": "struct IERC721M.MintStageInfo",
        "members": [
          {
            "astId": 5619,
            "contract": "contracts/Corpos.sol:Corpos",
            "label": "price",
            "offset": 0,
            "slot": "0",
            "type": "t_uint80"
          },
          {
            "astId": 5621,
            "contract": "contracts/Corpos.sol:Corpos",
            "label": "walletLimit",
            "offset": 10,
            "slot": "0",
            "type": "t_uint32"
          },
          {
            "astId": 5623,
            "contract": "contracts/Corpos.sol:Corpos",
            "label": "merkleRoot",
            "offset": 0,
            "slot": "1",
            "type": "t_bytes32"
          },
          {
            "astId": 5625,
            "contract": "contracts/Corpos.sol:Corpos",
            "label": "maxStageSupply",
            "offset": 0,
            "slot": "2",
            "type": "t_uint24"
          },
          {
            "astId": 5627,
            "contract": "contracts/Corpos.sol:Corpos",
            "label": "startTimeUnixSeconds",
            "offset": 3,
            "slot": "2",
            "type": "t_uint64"
          },
          {
            "astId": 5629,
            "contract": "contracts/Corpos.sol:Corpos",
            "label": "endTimeUnixSeconds",
            "offset": 11,
            "slot": "2",
            "type": "t_uint64"
          }
        ],
        "numberOfBytes": "96"
      },
      "t_struct(TokenApprovalRef)5965_storage": {
        "encoding": "inplace",
        "label": "struct ERC721A.TokenApprovalRef",
        "members": [
          {
            "astId": 5964,
            "contract": "contracts/Corpos.sol:Corpos",
            "label": "value",
            "offset": 0,
            "slot": "0",
            "type": "t_address"
          }
        ],
        "numberOfBytes": "32"
      },
      "t_uint24": {
        "encoding": "inplace",
        "label": "uint24",
        "numberOfBytes": "3"
      },
      "t_uint256": {
        "encoding": "inplace",
        "label": "uint256",
        "numberOfBytes": "32"
      },
      "t_uint32": {
        "encoding": "inplace",
        "label": "uint32",
        "numberOfBytes": "4"
      },
      "t_uint64": {
        "encoding": "inplace",
        "label": "uint64",
        "numberOfBytes": "8"
      },
      "t_uint80": {
        "encoding": "inplace",
        "label": "uint80",
        "numberOfBytes": "10"
      }
    }
  }
}