{
  "address": "0xA5a3dFb7Fa755BA4C95E788C493210E2F2410a4e",
  "abi": [
    {
      "inputs": [
        {
          "internalType": "contract ILockContract",
          "name": "_lockContract",
          "type": "address"
        },
        {
          "internalType": "address",
          "name": "_adminAddress",
          "type": "address"
        }
      ],
      "stateMutability": "nonpayable",
      "type": "constructor"
    },
    {
      "anonymous": false,
      "inputs": [
        {
          "indexed": true,
          "internalType": "address",
          "name": "previousOwner",
          "type": "address"
        },
        {
          "indexed": true,
          "internalType": "address",
          "name": "newOwner",
          "type": "address"
        }
      ],
      "name": "OwnershipTransferred",
      "type": "event"
    },
    {
      "inputs": [],
      "name": "adminAddress",
      "outputs": [
        {
          "internalType": "address",
          "name": "",
          "type": "address"
        }
      ],
      "stateMutability": "view",
      "type": "function"
    },
    {
      "inputs": [],
      "name": "getDomainHash",
      "outputs": [
        {
          "internalType": "bytes32",
          "name": "",
          "type": "bytes32"
        }
      ],
      "stateMutability": "view",
      "type": "function"
    },
    {
      "inputs": [
        {
          "components": [
            {
              "internalType": "string",
              "name": "name",
              "type": "string"
            },
            {
              "internalType": "string",
              "name": "version",
              "type": "string"
            },
            {
              "internalType": "uint256",
              "name": "chainId",
              "type": "uint256"
            },
            {
              "internalType": "address",
              "name": "verifyingContract",
              "type": "address"
            }
          ],
          "internalType": "struct EIP712Domain",
          "name": "_input",
          "type": "tuple"
        }
      ],
      "name": "getEip712DomainPacketHash",
      "outputs": [
        {
          "internalType": "bytes32",
          "name": "",
          "type": "bytes32"
        }
      ],
      "stateMutability": "pure",
      "type": "function"
    },
    {
      "inputs": [
        {
          "components": [
            {
              "components": [
                {
                  "internalType": "uint256",
                  "name": "voucherId",
                  "type": "uint256"
                },
                {
                  "internalType": "address",
                  "name": "tokenContract",
                  "type": "address"
                },
                {
                  "internalType": "address",
                  "name": "withdrawer",
                  "type": "address"
                },
                {
                  "internalType": "uint256[]",
                  "name": "tokenIds",
                  "type": "uint256[]"
                },
                {
                  "internalType": "uint256[]",
                  "name": "amounts",
                  "type": "uint256[]"
                }
              ],
              "internalType": "struct UnlockVoucher",
              "name": "message",
              "type": "tuple"
            },
            {
              "internalType": "bytes",
              "name": "signature",
              "type": "bytes"
            },
            {
              "internalType": "address",
              "name": "signer",
              "type": "address"
            }
          ],
          "internalType": "struct SignedUnlockVoucher",
          "name": "_input",
          "type": "tuple"
        }
      ],
      "name": "getSignedunlockvoucherPacketHash",
      "outputs": [
        {
          "internalType": "bytes32",
          "name": "",
          "type": "bytes32"
        }
      ],
      "stateMutability": "pure",
      "type": "function"
    },
    {
      "inputs": [
        {
          "internalType": "uint256[]",
          "name": "_input",
          "type": "uint256[]"
        }
      ],
      "name": "getUint256ArrayPacketHash",
      "outputs": [
        {
          "internalType": "bytes32",
          "name": "",
          "type": "bytes32"
        }
      ],
      "stateMutability": "pure",
      "type": "function"
    },
    {
      "inputs": [
        {
          "components": [
            {
              "internalType": "uint256",
              "name": "voucherId",
              "type": "uint256"
            },
            {
              "internalType": "address",
              "name": "tokenContract",
              "type": "address"
            },
            {
              "internalType": "address",
              "name": "withdrawer",
              "type": "address"
            },
            {
              "internalType": "uint256[]",
              "name": "tokenIds",
              "type": "uint256[]"
            },
            {
              "internalType": "uint256[]",
              "name": "amounts",
              "type": "uint256[]"
            }
          ],
          "internalType": "struct UnlockVoucher",
          "name": "_input",
          "type": "tuple"
        }
      ],
      "name": "getUnlockvoucherPacketHash",
      "outputs": [
        {
          "internalType": "bytes32",
          "name": "",
          "type": "bytes32"
        }
      ],
      "stateMutability": "pure",
      "type": "function"
    },
    {
      "inputs": [
        {
          "internalType": "uint256",
          "name": "",
          "type": "uint256"
        }
      ],
      "name": "idUsed",
      "outputs": [
        {
          "internalType": "bool",
          "name": "",
          "type": "bool"
        }
      ],
      "stateMutability": "view",
      "type": "function"
    },
    {
      "inputs": [
        {
          "components": [
            {
              "components": [
                {
                  "internalType": "uint256",
                  "name": "voucherId",
                  "type": "uint256"
                },
                {
                  "internalType": "address",
                  "name": "tokenContract",
                  "type": "address"
                },
                {
                  "internalType": "address",
                  "name": "withdrawer",
                  "type": "address"
                },
                {
                  "internalType": "uint256[]",
                  "name": "tokenIds",
                  "type": "uint256[]"
                },
                {
                  "internalType": "uint256[]",
                  "name": "amounts",
                  "type": "uint256[]"
                }
              ],
              "internalType": "struct UnlockVoucher",
              "name": "message",
              "type": "tuple"
            },
            {
              "internalType": "bytes",
              "name": "signature",
              "type": "bytes"
            },
            {
              "internalType": "address",
              "name": "signer",
              "type": "address"
            }
          ],
          "internalType": "struct SignedUnlockVoucher",
          "name": "signedUnlockVoucher",
          "type": "tuple"
        }
      ],
      "name": "lazyMint",
      "outputs": [],
      "stateMutability": "nonpayable",
      "type": "function"
    },
    {
      "inputs": [],
      "name": "lockContract",
      "outputs": [
        {
          "internalType": "contract ILockContract",
          "name": "",
          "type": "address"
        }
      ],
      "stateMutability": "view",
      "type": "function"
    },
    {
      "inputs": [],
      "name": "owner",
      "outputs": [
        {
          "internalType": "address",
          "name": "",
          "type": "address"
        }
      ],
      "stateMutability": "view",
      "type": "function"
    },
    {
      "inputs": [],
      "name": "renounceOwnership",
      "outputs": [],
      "stateMutability": "nonpayable",
      "type": "function"
    },
    {
      "inputs": [
        {
          "internalType": "address",
          "name": "_adminAddress",
          "type": "address"
        }
      ],
      "name": "setAdminAddress",
      "outputs": [],
      "stateMutability": "nonpayable",
      "type": "function"
    },
    {
      "inputs": [
        {
          "internalType": "address",
          "name": "newOwner",
          "type": "address"
        }
      ],
      "name": "transferOwnership",
      "outputs": [],
      "stateMutability": "nonpayable",
      "type": "function"
    },
    {
      "inputs": [
        {
          "components": [
            {
              "components": [
                {
                  "internalType": "uint256",
                  "name": "voucherId",
                  "type": "uint256"
                },
                {
                  "internalType": "address",
                  "name": "tokenContract",
                  "type": "address"
                },
                {
                  "internalType": "address",
                  "name": "withdrawer",
                  "type": "address"
                },
                {
                  "internalType": "uint256[]",
                  "name": "tokenIds",
                  "type": "uint256[]"
                },
                {
                  "internalType": "uint256[]",
                  "name": "amounts",
                  "type": "uint256[]"
                }
              ],
              "internalType": "struct UnlockVoucher",
              "name": "message",
              "type": "tuple"
            },
            {
              "internalType": "bytes",
              "name": "signature",
              "type": "bytes"
            },
            {
              "internalType": "address",
              "name": "signer",
              "type": "address"
            }
          ],
          "internalType": "struct SignedUnlockVoucher",
          "name": "_input",
          "type": "tuple"
        }
      ],
      "name": "verifySignedUnlockVoucher",
      "outputs": [
        {
          "internalType": "address",
          "name": "",
          "type": "address"
        }
      ],
      "stateMutability": "view",
      "type": "function"
    }
  ],
  "transactionHash": "0xd11f5c7640277888fe2fa30e2d428ec0611e4251162721c24c538d75464e1873",
  "args": [
    "0x6a062edB6008D02699BfB354C6BB4eb4B52B77a4",
    "0x7Ac410F4E36873022b57821D7a8EB3D7513C045a"
  ],
  "numDeployments": 1,
  "solcInputHash": "b8e85eea3917f0984c716a669a8b5ac9",
  "bytecode": "0x60806040523480156200001157600080fd5b50604051620013a3380380620013a3833981016040819052620000349162000142565b6200003f33620000d9565b600180556001600160a01b038216158015906200006457506001600160a01b03811615155b620000a75760405162461bcd60e51b815260206004820152600f60248201526e4e6f205a65726f204164647265737360881b604482015260640160405180910390fd5b600480546001600160a01b039384166001600160a01b0319918216179091556002805492909316911617905562000181565b600080546001600160a01b038381166001600160a01b0319831681178455604051919092169283917f8be0079c531659141344cd1fd0a4f28419497f9722a3daafe3b4186f6b6457e09190a35050565b6001600160a01b03811681146200013f57600080fd5b50565b600080604083850312156200015657600080fd5b8251620001638162000129565b6020840151909250620001768162000129565b809150509250929050565b61121280620001916000396000f3fe608060405234801561001057600080fd5b50600436106100ea5760003560e01c80638da5cb5b1161008c5780639bcb968c116100665780639bcb968c146101e2578063f2fde38b146101f5578063fc6f946814610208578063fd5c91981461021b57600080fd5b80638da5cb5b146101ab57806392a62e19146101bc57806395b65a06146101cf57600080fd5b8063715018a6116100c8578063715018a61461015d578063753868e31461016557806380d6dd571461019057806383ebb771146101a357600080fd5b80632c1e816d146100ef5780633c9f21a014610104578063693b02891461012a575b600080fd5b6101026100fd366004610ab0565b61022e565b005b610117610112366004610bba565b610283565b6040519081526020015b60405180910390f35b61014d610138366004610c66565b60036020526000908152604090205460ff1681565b6040519015158152602001610121565b610102610323565b600454610178906001600160a01b031681565b6040516001600160a01b039091168152602001610121565b61011761019e366004610e64565b610359565b6101176103c9565b6000546001600160a01b0316610178565b6101026101ca366004610ea1565b610476565b6101176101dd366004610edc565b6106a3565b6101176101f0366004610f11565b61072b565b610102610203366004610ab0565b61075b565b600254610178906001600160a01b031681565b610178610229366004610e64565b6107f6565b6000546001600160a01b031633146102615760405162461bcd60e51b815260040161025890610f46565b60405180910390fd5b600280546001600160a01b0319166001600160a01b0392909216919091179055565b6000807f8b73c3c69bb8fe3d512ecc4cf759cc79239f7b179b0ffacaa9a75d522b39400f836000015180519060200120846020015180519060200120856040015186606001516040516020016103049594939291909485526020850193909352604084019190915260608301526001600160a01b0316608082015260a00190565b60408051601f1981840301815291905280516020909101209392505050565b6000546001600160a01b0316331461034d5760405162461bcd60e51b815260040161025890610f46565b610357600061096b565b565b6000807f2f7059e5dd99801a4ac8f2b78b207fd472abbeb5469579bd953432fe7cea92b061038a84600001516106a3565b602080860151805190820120604080880151905161030495949301938452602084019290925260408301526001600160a01b0316606082015260800190565b600080469050600060405180608001604052806052815260200161118b605291396040516020016103fa9190610fab565b60408051601f198184030181528282528051602091820120908301527f91ae044f2d40b190e19970969bdbc83fe1026d7bf738b363e87be1f4f474fa63908201527fc89efdaa54c0f20c7adf612882df0950f5a951637e0307cdcb4c672f298b8bc66060820152608081018390523060a082015260c001610304565b600260015414156104c95760405162461bcd60e51b815260206004820152601f60248201527f5265656e7472616e637947756172643a207265656e7472616e742063616c6c006044820152606401610258565b6002600155600360006104dc8380610fc7565b35815260208101919091526040016000205460ff16156105365760405162461bcd60e51b81526020600482015260156024820152741d9bdd58da195c881a1859081899595b881d5cd959605a1b6044820152606401610258565b6002546000906001600160a01b031661055161022984610fdd565b6001600160a01b03161490508061059e5760405162461bcd60e51b8152602060048201526011602482015270496e76616c6964207369676e617475726560781b6044820152606401610258565b6004546001600160a01b031663d8cb0d666105b98480610fc7565b6105ca906040810190602001610ab0565b6105d48580610fc7565b6105e5906060810190604001610ab0565b6105ef8680610fc7565b6105fd906060810190610fe9565b6106078880610fc7565b610615906080810190610fe9565b6040518763ffffffff1660e01b815260040161063696959493929190611070565b600060405180830381600087803b15801561065057600080fd5b505af1158015610664573d6000803e3d6000fd5b5060019250600391506000905061067b8580610fc7565b3581526020810191909152604001600020805460ff1916911515919091179055505060018055565b6000807fc9d29c4c47be064c1ad00af25b3ad8bb303b83c14b75237b00c26a3f812a119f8360000151846020015185604001516106e3876060015161072b565b6106f0886080015161072b565b6040805160208101979097528601949094526001600160a01b0392831660608601529116608084015260a083015260c082015260e001610304565b60008160405160200161073e91906110bd565b604051602081830303815290604052805190602001209050919050565b6000546001600160a01b031633146107855760405162461bcd60e51b815260040161025890610f46565b6001600160a01b0381166107ea5760405162461bcd60e51b815260206004820152602660248201527f4f776e61626c653a206e6577206f776e657220697320746865207a65726f206160448201526564647265737360d01b6064820152608401610258565b6107f38161096b565b50565b60008061080683600001516106a3565b905060006108126103c9565b60405161190160f01b602082015260228101919091526042810183905260620160405160208183030381529060405280519060200120905083604001516001600160a01b031660006001600160a01b031614156108825760006108798286602001516109bb565b95945050505050565b600084604001516001600160a01b0316631626ba7e8387602001516040518363ffffffff1660e01b81526004016108ba9291906110f3565b60206040518083038186803b1580156108d257600080fd5b505afa1580156108e6573d6000803e3d6000fd5b505050506040513d601f19601f8201168201806040525081019061090a919061112d565b9050630b135d3f60e11b6001600160e01b03198216146109605760405162461bcd60e51b8152602060048201526011602482015270494e56414c49445f5349474e415455524560781b6044820152606401610258565b505050506040015190565b600080546001600160a01b038381166001600160a01b0319831681178455604051919092169283917f8be0079c531659141344cd1fd0a4f28419497f9722a3daafe3b4186f6b6457e09190a35050565b60008060008084516041146109d65760009350505050610a8e565b50505060208201516040830151606084015160001a601b811015610a02576109ff601b82611157565b90505b8060ff16601b14158015610a1a57508060ff16601c14155b15610a2b5760009350505050610a8e565b60408051600081526020810180835288905260ff831691810191909152606081018490526080810183905260019060a0016020604051602081039080840390855afa158015610a7e573d6000803e3d6000fd5b5050506020604051035193505050505b92915050565b80356001600160a01b0381168114610aab57600080fd5b919050565b600060208284031215610ac257600080fd5b610acb82610a94565b9392505050565b634e487b7160e01b600052604160045260246000fd5b6040516080810167ffffffffffffffff81118282101715610b0b57610b0b610ad2565b60405290565b604051601f8201601f1916810167ffffffffffffffff81118282101715610b3a57610b3a610ad2565b604052919050565b600067ffffffffffffffff831115610b5c57610b5c610ad2565b610b6f601f8401601f1916602001610b11565b9050828152838383011115610b8357600080fd5b828260208301376000602084830101529392505050565b600082601f830112610bab57600080fd5b610acb83833560208501610b42565b600060208284031215610bcc57600080fd5b813567ffffffffffffffff80821115610be457600080fd5b9083019060808286031215610bf857600080fd5b610c00610ae8565b823582811115610c0f57600080fd5b610c1b87828601610b9a565b825250602083013582811115610c3057600080fd5b610c3c87828601610b9a565b60208301525060408301356040820152610c5860608401610a94565b606082015295945050505050565b600060208284031215610c7857600080fd5b5035919050565b600082601f830112610c9057600080fd5b8135602067ffffffffffffffff821115610cac57610cac610ad2565b8160051b610cbb828201610b11565b9283528481018201928281019087851115610cd557600080fd5b83870192505b84831015610cf457823582529183019190830190610cdb565b979650505050505050565b600060a08284031215610d1157600080fd5b60405160a0810167ffffffffffffffff8282108183111715610d3557610d35610ad2565b8160405282935084358352610d4c60208601610a94565b6020840152610d5d60408601610a94565b60408401526060850135915080821115610d7657600080fd5b610d8286838701610c7f565b60608401526080850135915080821115610d9b57600080fd5b50610da885828601610c7f565b6080830152505092915050565b600060608284031215610dc757600080fd5b6040516060810167ffffffffffffffff8282108183111715610deb57610deb610ad2565b816040528293508435915080821115610e0357600080fd5b610e0f86838701610cff565b83526020850135915080821115610e2557600080fd5b508301601f81018513610e3757600080fd5b610e4685823560208401610b42565b602083015250610e5860408401610a94565b60408201525092915050565b600060208284031215610e7657600080fd5b813567ffffffffffffffff811115610e8d57600080fd5b610e9984828501610db5565b949350505050565b600060208284031215610eb357600080fd5b813567ffffffffffffffff811115610eca57600080fd5b820160608185031215610acb57600080fd5b600060208284031215610eee57600080fd5b813567ffffffffffffffff811115610f0557600080fd5b610e9984828501610cff565b600060208284031215610f2357600080fd5b813567ffffffffffffffff811115610f3a57600080fd5b610e9984828501610c7f565b6020808252818101527f4f776e61626c653a2063616c6c6572206973206e6f7420746865206f776e6572604082015260600190565b60005b83811015610f96578181015183820152602001610f7e565b83811115610fa5576000848401525b50505050565b60008251610fbd818460208701610f7b565b9190910192915050565b60008235609e19833603018112610fbd57600080fd5b6000610a8e3683610db5565b6000808335601e1984360301811261100057600080fd5b83018035915067ffffffffffffffff82111561101b57600080fd5b6020019150600581901b360382131561103357600080fd5b9250929050565b81835260006001600160fb1b0383111561105357600080fd5b8260051b8083602087013760009401602001938452509192915050565b6001600160a01b0387811682528616602082015260806040820181905260009061109d908301868861103a565b82810360608401526110b081858761103a565b9998505050505050505050565b815160009082906020808601845b838110156110e7578151855293820193908201906001016110cb565b50929695505050505050565b8281526040602082015260008251806040840152611118816060850160208701610f7b565b601f01601f1916919091016060019392505050565b60006020828403121561113f57600080fd5b81516001600160e01b031981168114610acb57600080fd5b600060ff821660ff84168060ff0382111561118257634e487b7160e01b600052601160045260246000fd5b01939250505056fe454950373132446f6d61696e28737472696e67206e616d652c737472696e672076657273696f6e2c75696e7432353620636861696e49642c6164647265737320766572696679696e67436f6e747261637429a264697066735822122029b1114487742b5c115151b669efcb517308633fe35f31cee83132ba12b4da1c64736f6c63430008090033",
  "devdoc": {
    "kind": "dev",
    "methods": {
      "owner()": {
        "details": "Returns the address of the current owner."
      },
      "renounceOwnership()": {
        "details": "Leaves the contract without owner. It will not be possible to call `onlyOwner` functions anymore. Can only be called by the current owner. NOTE: Renouncing ownership will leave the contract without an owner, thereby removing any functionality that is only available to the owner."
      },
      "transferOwnership(address)": {
        "details": "Transfers ownership of the contract to a new account (`newOwner`). Can only be called by the current owner."
      }
    },
    "version": 1
  },
  "userdoc": {
    "kind": "user",
    "methods": {},
    "version": 1
  },
  "storageLayout": {
    "storage": [
      {
        "astId": 435,
        "contract": "contracts/LazyUnlock.sol:LazyUnlock",
        "label": "_owner",
        "offset": 0,
        "slot": "0",
        "type": "t_address"
      },
      {
        "astId": 635,
        "contract": "contracts/LazyUnlock.sol:LazyUnlock",
        "label": "_status",
        "offset": 0,
        "slot": "1",
        "type": "t_uint256"
      },
      {
        "astId": 11353,
        "contract": "contracts/LazyUnlock.sol:LazyUnlock",
        "label": "adminAddress",
        "offset": 0,
        "slot": "2",
        "type": "t_address"
      },
      {
        "astId": 11357,
        "contract": "contracts/LazyUnlock.sol:LazyUnlock",
        "label": "idUsed",
        "offset": 0,
        "slot": "3",
        "type": "t_mapping(t_uint256,t_bool)"
      },
      {
        "astId": 11360,
        "contract": "contracts/LazyUnlock.sol:LazyUnlock",
        "label": "lockContract",
        "offset": 0,
        "slot": "4",
        "type": "t_contract(ILockContract)21130"
      }
    ],
    "types": {
      "t_address": {
        "encoding": "inplace",
        "label": "address",
        "numberOfBytes": "20"
      },
      "t_bool": {
        "encoding": "inplace",
        "label": "bool",
        "numberOfBytes": "1"
      },
      "t_contract(ILockContract)21130": {
        "encoding": "inplace",
        "label": "contract ILockContract",
        "numberOfBytes": "20"
      },
      "t_mapping(t_uint256,t_bool)": {
        "encoding": "mapping",
        "key": "t_uint256",
        "label": "mapping(uint256 => bool)",
        "numberOfBytes": "32",
        "value": "t_bool"
      },
      "t_uint256": {
        "encoding": "inplace",
        "label": "uint256",
        "numberOfBytes": "32"
      }
    }
  }
}