{
  "address": "0xFEa56411fC63d06c1B33cDe34fC1746FD6D7a0bf",
  "abi": [
    {
      "inputs": [
        {
          "internalType": "contract IReloadedNFT",
          "name": "_reloadedNFT",
          "type": "address"
        },
        {
          "internalType": "address",
          "name": "_adminAddress",
          "type": "address"
        }
      ],
      "stateMutability": "nonpayable",
      "type": "constructor"
    },
    {
      "anonymous": false,
      "inputs": [
        {
          "indexed": true,
          "internalType": "address",
          "name": "previousOwner",
          "type": "address"
        },
        {
          "indexed": true,
          "internalType": "address",
          "name": "newOwner",
          "type": "address"
        }
      ],
      "name": "OwnershipTransferred",
      "type": "event"
    },
    {
      "inputs": [],
      "name": "adminAddress",
      "outputs": [
        {
          "internalType": "address",
          "name": "",
          "type": "address"
        }
      ],
      "stateMutability": "view",
      "type": "function"
    },
    {
      "inputs": [],
      "name": "getDomainHash",
      "outputs": [
        {
          "internalType": "bytes32",
          "name": "",
          "type": "bytes32"
        }
      ],
      "stateMutability": "view",
      "type": "function"
    },
    {
      "inputs": [
        {
          "components": [
            {
              "internalType": "string",
              "name": "name",
              "type": "string"
            },
            {
              "internalType": "string",
              "name": "version",
              "type": "string"
            },
            {
              "internalType": "uint256",
              "name": "chainId",
              "type": "uint256"
            },
            {
              "internalType": "address",
              "name": "verifyingContract",
              "type": "address"
            }
          ],
          "internalType": "struct EIP712Domain",
          "name": "_input",
          "type": "tuple"
        }
      ],
      "name": "getEip712DomainPacketHash",
      "outputs": [
        {
          "internalType": "bytes32",
          "name": "",
          "type": "bytes32"
        }
      ],
      "stateMutability": "pure",
      "type": "function"
    },
    {
      "inputs": [
        {
          "components": [
            {
              "internalType": "bytes16",
              "name": "voucherId",
              "type": "bytes16"
            },
            {
              "internalType": "address",
              "name": "to",
              "type": "address"
            },
            {
              "internalType": "uint256[]",
              "name": "tokenIds",
              "type": "uint256[]"
            },
            {
              "internalType": "uint256[]",
              "name": "amounts",
              "type": "uint256[]"
            },
            {
              "internalType": "bytes",
              "name": "data",
              "type": "bytes"
            }
          ],
          "internalType": "struct MintBatchVoucher",
          "name": "_input",
          "type": "tuple"
        }
      ],
      "name": "getMintbatchvoucherPacketHash",
      "outputs": [
        {
          "internalType": "bytes32",
          "name": "",
          "type": "bytes32"
        }
      ],
      "stateMutability": "pure",
      "type": "function"
    },
    {
      "inputs": [
        {
          "components": [
            {
              "components": [
                {
                  "internalType": "bytes16",
                  "name": "voucherId",
                  "type": "bytes16"
                },
                {
                  "internalType": "address",
                  "name": "to",
                  "type": "address"
                },
                {
                  "internalType": "uint256[]",
                  "name": "tokenIds",
                  "type": "uint256[]"
                },
                {
                  "internalType": "uint256[]",
                  "name": "amounts",
                  "type": "uint256[]"
                },
                {
                  "internalType": "bytes",
                  "name": "data",
                  "type": "bytes"
                }
              ],
              "internalType": "struct MintBatchVoucher",
              "name": "message",
              "type": "tuple"
            },
            {
              "internalType": "bytes",
              "name": "signature",
              "type": "bytes"
            },
            {
              "internalType": "address",
              "name": "signer",
              "type": "address"
            }
          ],
          "internalType": "struct SignedMintBatchVoucher",
          "name": "_input",
          "type": "tuple"
        }
      ],
      "name": "getSignedmintbatchvoucherPacketHash",
      "outputs": [
        {
          "internalType": "bytes32",
          "name": "",
          "type": "bytes32"
        }
      ],
      "stateMutability": "pure",
      "type": "function"
    },
    {
      "inputs": [
        {
          "internalType": "uint256[]",
          "name": "_input",
          "type": "uint256[]"
        }
      ],
      "name": "getUint256ArrayPacketHash",
      "outputs": [
        {
          "internalType": "bytes32",
          "name": "",
          "type": "bytes32"
        }
      ],
      "stateMutability": "pure",
      "type": "function"
    },
    {
      "inputs": [
        {
          "internalType": "bytes16",
          "name": "",
          "type": "bytes16"
        }
      ],
      "name": "idUsed",
      "outputs": [
        {
          "internalType": "bool",
          "name": "",
          "type": "bool"
        }
      ],
      "stateMutability": "view",
      "type": "function"
    },
    {
      "inputs": [
        {
          "components": [
            {
              "components": [
                {
                  "internalType": "bytes16",
                  "name": "voucherId",
                  "type": "bytes16"
                },
                {
                  "internalType": "address",
                  "name": "to",
                  "type": "address"
                },
                {
                  "internalType": "uint256[]",
                  "name": "tokenIds",
                  "type": "uint256[]"
                },
                {
                  "internalType": "uint256[]",
                  "name": "amounts",
                  "type": "uint256[]"
                },
                {
                  "internalType": "bytes",
                  "name": "data",
                  "type": "bytes"
                }
              ],
              "internalType": "struct MintBatchVoucher",
              "name": "message",
              "type": "tuple"
            },
            {
              "internalType": "bytes",
              "name": "signature",
              "type": "bytes"
            },
            {
              "internalType": "address",
              "name": "signer",
              "type": "address"
            }
          ],
          "internalType": "struct SignedMintBatchVoucher",
          "name": "signedMintBatchVoucher",
          "type": "tuple"
        }
      ],
      "name": "lazyMint",
      "outputs": [],
      "stateMutability": "nonpayable",
      "type": "function"
    },
    {
      "inputs": [],
      "name": "owner",
      "outputs": [
        {
          "internalType": "address",
          "name": "",
          "type": "address"
        }
      ],
      "stateMutability": "view",
      "type": "function"
    },
    {
      "inputs": [],
      "name": "reloadedNFT",
      "outputs": [
        {
          "internalType": "contract IReloadedNFT",
          "name": "",
          "type": "address"
        }
      ],
      "stateMutability": "view",
      "type": "function"
    },
    {
      "inputs": [],
      "name": "renounceOwnership",
      "outputs": [],
      "stateMutability": "nonpayable",
      "type": "function"
    },
    {
      "inputs": [
        {
          "internalType": "address",
          "name": "_adminAddress",
          "type": "address"
        }
      ],
      "name": "setAdminAddress",
      "outputs": [],
      "stateMutability": "nonpayable",
      "type": "function"
    },
    {
      "inputs": [
        {
          "internalType": "address",
          "name": "newOwner",
          "type": "address"
        }
      ],
      "name": "transferOwnership",
      "outputs": [],
      "stateMutability": "nonpayable",
      "type": "function"
    },
    {
      "inputs": [
        {
          "components": [
            {
              "components": [
                {
                  "internalType": "bytes16",
                  "name": "voucherId",
                  "type": "bytes16"
                },
                {
                  "internalType": "address",
                  "name": "to",
                  "type": "address"
                },
                {
                  "internalType": "uint256[]",
                  "name": "tokenIds",
                  "type": "uint256[]"
                },
                {
                  "internalType": "uint256[]",
                  "name": "amounts",
                  "type": "uint256[]"
                },
                {
                  "internalType": "bytes",
                  "name": "data",
                  "type": "bytes"
                }
              ],
              "internalType": "struct MintBatchVoucher",
              "name": "message",
              "type": "tuple"
            },
            {
              "internalType": "bytes",
              "name": "signature",
              "type": "bytes"
            },
            {
              "internalType": "address",
              "name": "signer",
              "type": "address"
            }
          ],
          "internalType": "struct SignedMintBatchVoucher",
          "name": "_input",
          "type": "tuple"
        }
      ],
      "name": "verifySignedMintBatchVoucher",
      "outputs": [
        {
          "internalType": "address",
          "name": "",
          "type": "address"
        }
      ],
      "stateMutability": "view",
      "type": "function"
    }
  ],
  "transactionHash": "0x9dddd1d166d234150c542f8a649effbb959860b53698fa912974ef09f8f21791",
  "args": [
    "0x377F70FF5Aaa97537256476C974dce06dB3b00D1",
    "0x7Ac410F4E36873022b57821D7a8EB3D7513C045a"
  ],
  "numDeployments": 3,
  "solcInputHash": "3c072bfab4536fb690d9bb08a920e2df",
  "bytecode": "0x60806040523480156200001157600080fd5b506040516200145738038062001457833981016040819052620000349162000142565b6200003f33620000d9565b600180556001600160a01b038216158015906200006457506001600160a01b03811615155b620000a75760405162461bcd60e51b815260206004820152600f60248201526e4e6f205a65726f204164647265737360881b604482015260640160405180910390fd5b600480546001600160a01b039384166001600160a01b0319918216179091556002805492909316911617905562000181565b600080546001600160a01b038381166001600160a01b0319831681178455604051919092169283917f8be0079c531659141344cd1fd0a4f28419497f9722a3daafe3b4186f6b6457e09190a35050565b6001600160a01b03811681146200013f57600080fd5b50565b600080604083850312156200015657600080fd5b8251620001638162000129565b6020840151909250620001768162000129565b809150509250929050565b6112c680620001916000396000f3fe608060405234801561001057600080fd5b50600436106100ea5760003560e01c80638da5cb5b1161008c578063d56475c611610066578063d56475c6146101be578063f11a32ad146101d1578063f2fde38b14610204578063fc6f94681461021757600080fd5b80638da5cb5b146101735780639bcb968c14610198578063c8d2d504146101ab57600080fd5b80632e3eb26d116100c85780632e3eb26d1461013d5780633c9f21a014610150578063715018a61461016357806383ebb7711461016b57600080fd5b80630170bf3d146100ef57806312884bcb146101155780632c1e816d1461012a575b600080fd5b6101026100fd366004610dcb565b61022a565b6040519081526020015b60405180910390f35b610128610123366004610e07565b6102b9565b005b610128610138366004610e48565b610517565b61010261014b366004610e63565b610563565b61010261015e366004610e97565b6105fd565b61012861067e565b6101026106b4565b6000546001600160a01b03165b6040516001600160a01b03909116815260200161010c565b6101026101a6366004610f42565b610761565b600454610180906001600160a01b031681565b6101806101cc366004610dcb565b610791565b6101f46101df366004610f76565b60036020526000908152604090205460ff1681565b604051901515815260200161010c565b610128610212366004610e48565b610906565b600254610180906001600160a01b031681565b6000807f5da691f5c9d2d1cffe5bd7389df0073b2a030260e1ce8d947d985636ade454e461025b8460000151610563565b602080860151805190820120604080880151905161029a95949301938452602084019290925260408301526001600160a01b0316606082015260800190565b60408051601f1981840301815291905280516020909101209392505050565b600260015414156103115760405162461bcd60e51b815260206004820152601f60248201527f5265656e7472616e637947756172643a207265656e7472616e742063616c6c0060448201526064015b60405180910390fd5b6002600155600360006103248380610f91565b610332906020810190610f76565b6001600160801b031916815260208101919091526040016000205460ff16156103955760405162461bcd60e51b81526020600482015260156024820152741d9bdd58da195c881a1859081899595b881d5cd959605a1b6044820152606401610308565b6002546000906001600160a01b03166103b06101cc84610fb1565b6001600160a01b0316149050806103fd5760405162461bcd60e51b8152602060048201526011602482015270496e76616c6964207369676e617475726560781b6044820152606401610308565b6004546001600160a01b0316631f7fdffa6104188480610f91565b610429906040810190602001610e48565b6104338580610f91565b610441906040810190610fbd565b61044b8780610f91565b610459906060810190610fbd565b6104638980610f91565b61047190608081019061100d565b6040518863ffffffff1660e01b81526004016104939796959493929190611089565b600060405180830381600087803b1580156104ad57600080fd5b505af11580156104c1573d6000803e3d6000fd5b506001925060039150600090506104d88580610f91565b6104e6906020810190610f76565b6001600160801b03191681526020810191909152604001600020805460ff1916911515919091179055505060018055565b6000546001600160a01b031633146105415760405162461bcd60e51b8152600401610308906110fa565b600280546001600160a01b0319166001600160a01b0392909216919091179055565b6000807f998649536a3d4c7ab8097997ef5b1a21d4ab0cbed06642e91a832d5ed02cbee68360000151846020015161059e8660400151610761565b6105ab8760600151610761565b608088810151805160209182012060408051928301989098526001600160801b0319909616968101969096526001600160a01b0390931660608601529184015260a083015260c082015260e00161029a565b6000807f8b73c3c69bb8fe3d512ecc4cf759cc79239f7b179b0ffacaa9a75d522b39400f8360000151805190602001208460200151805190602001208560400151866060015160405160200161029a9594939291909485526020850193909352604084019190915260608301526001600160a01b0316608082015260a00190565b6000546001600160a01b031633146106a85760405162461bcd60e51b8152600401610308906110fa565b6106b260006109a1565b565b600080469050600060405180608001604052806052815260200161123f605291396040516020016106e5919061115f565b60408051601f198184030181528282528051602091820120908301527fd64699bbe2cd6fd999800a19a444ce2a16c2ab117f0bcf5190cc291783a4f4d3908201527fc89efdaa54c0f20c7adf612882df0950f5a951637e0307cdcb4c672f298b8bc66060820152608081018390523060a082015260c00161029a565b6000816040516020016107749190611171565b604051602081830303815290604052805190602001209050919050565b6000806107a18360000151610563565b905060006107ad6106b4565b60405161190160f01b602082015260228101919091526042810183905260620160405160208183030381529060405280519060200120905083604001516001600160a01b031660006001600160a01b0316141561081d5760006108148286602001516109f1565b95945050505050565b600084604001516001600160a01b0316631626ba7e8387602001516040518363ffffffff1660e01b81526004016108559291906111a7565b60206040518083038186803b15801561086d57600080fd5b505afa158015610881573d6000803e3d6000fd5b505050506040513d601f19601f820116820180604052508101906108a591906111e1565b9050630b135d3f60e11b6001600160e01b03198216146108fb5760405162461bcd60e51b8152602060048201526011602482015270494e56414c49445f5349474e415455524560781b6044820152606401610308565b505050506040015190565b6000546001600160a01b031633146109305760405162461bcd60e51b8152600401610308906110fa565b6001600160a01b0381166109955760405162461bcd60e51b815260206004820152602660248201527f4f776e61626c653a206e6577206f776e657220697320746865207a65726f206160448201526564647265737360d01b6064820152608401610308565b61099e816109a1565b50565b600080546001600160a01b038381166001600160a01b0319831681178455604051919092169283917f8be0079c531659141344cd1fd0a4f28419497f9722a3daafe3b4186f6b6457e09190a35050565b6000806000808451604114610a0c5760009350505050610ac4565b50505060208201516040830151606084015160001a601b811015610a3857610a35601b8261120b565b90505b8060ff16601b14158015610a5057508060ff16601c14155b15610a615760009350505050610ac4565b60408051600081526020810180835288905260ff831691810191909152606081018490526080810183905260019060a0016020604051602081039080840390855afa158015610ab4573d6000803e3d6000fd5b5050506020604051035193505050505b92915050565b634e487b7160e01b600052604160045260246000fd5b60405160a081016001600160401b0381118282101715610b0257610b02610aca565b60405290565b604051608081016001600160401b0381118282101715610b0257610b02610aca565b604051601f8201601f191681016001600160401b0381118282101715610b5257610b52610aca565b604052919050565b80356001600160801b031981168114610b7257600080fd5b919050565b80356001600160a01b0381168114610b7257600080fd5b600082601f830112610b9f57600080fd5b813560206001600160401b03821115610bba57610bba610aca565b8160051b610bc9828201610b2a565b9283528481018201928281019087851115610be357600080fd5b83870192505b84831015610c0257823582529183019190830190610be9565b979650505050505050565b600082601f830112610c1e57600080fd5b81356001600160401b03811115610c3757610c37610aca565b610c4a601f8201601f1916602001610b2a565b818152846020838601011115610c5f57600080fd5b816020850160208301376000918101602001919091529392505050565b600060a08284031215610c8e57600080fd5b610c96610ae0565b9050610ca182610b5a565b8152610caf60208301610b77565b602082015260408201356001600160401b0380821115610cce57600080fd5b610cda85838601610b8e565b60408401526060840135915080821115610cf357600080fd5b610cff85838601610b8e565b60608401526080840135915080821115610d1857600080fd5b50610d2584828501610c0d565b60808301525092915050565b600060608284031215610d4357600080fd5b604051606081016001600160401b038282108183111715610d6657610d66610aca565b816040528293508435915080821115610d7e57600080fd5b610d8a86838701610c7c565b83526020850135915080821115610da057600080fd5b50610dad85828601610c0d565b602083015250610dbf60408401610b77565b60408201525092915050565b600060208284031215610ddd57600080fd5b81356001600160401b03811115610df357600080fd5b610dff84828501610d31565b949350505050565b600060208284031215610e1957600080fd5b81356001600160401b03811115610e2f57600080fd5b820160608185031215610e4157600080fd5b9392505050565b600060208284031215610e5a57600080fd5b610e4182610b77565b600060208284031215610e7557600080fd5b81356001600160401b03811115610e8b57600080fd5b610dff84828501610c7c565b600060208284031215610ea957600080fd5b81356001600160401b0380821115610ec057600080fd5b9083019060808286031215610ed457600080fd5b610edc610b08565b823582811115610eeb57600080fd5b610ef787828601610c0d565b825250602083013582811115610f0c57600080fd5b610f1887828601610c0d565b60208301525060408301356040820152610f3460608401610b77565b606082015295945050505050565b600060208284031215610f5457600080fd5b81356001600160401b03811115610f6a57600080fd5b610dff84828501610b8e565b600060208284031215610f8857600080fd5b610e4182610b5a565b60008235609e19833603018112610fa757600080fd5b9190910192915050565b6000610ac43683610d31565b6000808335601e19843603018112610fd457600080fd5b8301803591506001600160401b03821115610fee57600080fd5b6020019150600581901b360382131561100657600080fd5b9250929050565b6000808335601e1984360301811261102457600080fd5b8301803591506001600160401b0382111561103e57600080fd5b60200191503681900382131561100657600080fd5b81835260006001600160fb1b0383111561106c57600080fd5b8260051b8083602087013760009401602001938452509192915050565b6001600160a01b03881681526080602082018190526000906110ae908301888a611053565b82810360408401526110c1818789611053565b90508281036060840152838152838560208301376000602085830101526020601f19601f86011682010191505098975050505050505050565b6020808252818101527f4f776e61626c653a2063616c6c6572206973206e6f7420746865206f776e6572604082015260600190565b60005b8381101561114a578181015183820152602001611132565b83811115611159576000848401525b50505050565b60008251610fa781846020870161112f565b815160009082906020808601845b8381101561119b5781518552938201939082019060010161117f565b50929695505050505050565b82815260406020820152600082518060408401526111cc81606085016020870161112f565b601f01601f1916919091016060019392505050565b6000602082840312156111f357600080fd5b81516001600160e01b031981168114610e4157600080fd5b600060ff821660ff84168060ff0382111561123657634e487b7160e01b600052601160045260246000fd5b01939250505056fe454950373132446f6d61696e28737472696e67206e616d652c737472696e672076657273696f6e2c75696e7432353620636861696e49642c6164647265737320766572696679696e67436f6e747261637429a2646970667358221220015031b0a224f6ef2c1d252946c566f96076bb19efa0fd336b81cb012388a87064736f6c63430008090033",
  "devdoc": {
    "kind": "dev",
    "methods": {
      "owner()": {
        "details": "Returns the address of the current owner."
      },
      "renounceOwnership()": {
        "details": "Leaves the contract without owner. It will not be possible to call `onlyOwner` functions anymore. Can only be called by the current owner. NOTE: Renouncing ownership will leave the contract without an owner, thereby removing any functionality that is only available to the owner."
      },
      "transferOwnership(address)": {
        "details": "Transfers ownership of the contract to a new account (`newOwner`). Can only be called by the current owner."
      }
    },
    "version": 1
  },
  "userdoc": {
    "kind": "user",
    "methods": {},
    "version": 1
  },
  "storageLayout": {
    "storage": [
      {
        "astId": 435,
        "contract": "contracts/LazyReloadedNFTMinter.sol:LazyReloadedNFTMinter",
        "label": "_owner",
        "offset": 0,
        "slot": "0",
        "type": "t_address"
      },
      {
        "astId": 635,
        "contract": "contracts/LazyReloadedNFTMinter.sol:LazyReloadedNFTMinter",
        "label": "_status",
        "offset": 0,
        "slot": "1",
        "type": "t_uint256"
      },
      {
        "astId": 10356,
        "contract": "contracts/LazyReloadedNFTMinter.sol:LazyReloadedNFTMinter",
        "label": "adminAddress",
        "offset": 0,
        "slot": "2",
        "type": "t_address"
      },
      {
        "astId": 10360,
        "contract": "contracts/LazyReloadedNFTMinter.sol:LazyReloadedNFTMinter",
        "label": "idUsed",
        "offset": 0,
        "slot": "3",
        "type": "t_mapping(t_bytes16,t_bool)"
      },
      {
        "astId": 10363,
        "contract": "contracts/LazyReloadedNFTMinter.sol:LazyReloadedNFTMinter",
        "label": "reloadedNFT",
        "offset": 0,
        "slot": "4",
        "type": "t_contract(IReloadedNFT)20635"
      }
    ],
    "types": {
      "t_address": {
        "encoding": "inplace",
        "label": "address",
        "numberOfBytes": "20"
      },
      "t_bool": {
        "encoding": "inplace",
        "label": "bool",
        "numberOfBytes": "1"
      },
      "t_bytes16": {
        "encoding": "inplace",
        "label": "bytes16",
        "numberOfBytes": "16"
      },
      "t_contract(IReloadedNFT)20635": {
        "encoding": "inplace",
        "label": "contract IReloadedNFT",
        "numberOfBytes": "20"
      },
      "t_mapping(t_bytes16,t_bool)": {
        "encoding": "mapping",
        "key": "t_bytes16",
        "label": "mapping(bytes16 => bool)",
        "numberOfBytes": "32",
        "value": "t_bool"
      },
      "t_uint256": {
        "encoding": "inplace",
        "label": "uint256",
        "numberOfBytes": "32"
      }
    }
  }
}