{
  "address": "0x1068685967d3E9F6FB69C76103e6d03a735164E6",
  "abi": [
    {
      "inputs": [
        {
          "internalType": "contract ILockContract",
          "name": "_lockContract",
          "type": "address"
        },
        {
          "internalType": "address",
          "name": "_adminAddress",
          "type": "address"
        }
      ],
      "stateMutability": "nonpayable",
      "type": "constructor"
    },
    {
      "anonymous": false,
      "inputs": [
        {
          "indexed": true,
          "internalType": "address",
          "name": "previousOwner",
          "type": "address"
        },
        {
          "indexed": true,
          "internalType": "address",
          "name": "newOwner",
          "type": "address"
        }
      ],
      "name": "OwnershipTransferred",
      "type": "event"
    },
    {
      "inputs": [],
      "name": "adminAddress",
      "outputs": [
        {
          "internalType": "address",
          "name": "",
          "type": "address"
        }
      ],
      "stateMutability": "view",
      "type": "function"
    },
    {
      "inputs": [],
      "name": "getDomainHash",
      "outputs": [
        {
          "internalType": "bytes32",
          "name": "",
          "type": "bytes32"
        }
      ],
      "stateMutability": "view",
      "type": "function"
    },
    {
      "inputs": [
        {
          "components": [
            {
              "internalType": "string",
              "name": "name",
              "type": "string"
            },
            {
              "internalType": "string",
              "name": "version",
              "type": "string"
            },
            {
              "internalType": "uint256",
              "name": "chainId",
              "type": "uint256"
            },
            {
              "internalType": "address",
              "name": "verifyingContract",
              "type": "address"
            }
          ],
          "internalType": "struct EIP712Domain",
          "name": "_input",
          "type": "tuple"
        }
      ],
      "name": "getEip712DomainPacketHash",
      "outputs": [
        {
          "internalType": "bytes32",
          "name": "",
          "type": "bytes32"
        }
      ],
      "stateMutability": "pure",
      "type": "function"
    },
    {
      "inputs": [
        {
          "components": [
            {
              "components": [
                {
                  "internalType": "bytes16",
                  "name": "voucherId",
                  "type": "bytes16"
                },
                {
                  "internalType": "address",
                  "name": "tokenContract",
                  "type": "address"
                },
                {
                  "internalType": "address",
                  "name": "withdrawer",
                  "type": "address"
                },
                {
                  "internalType": "uint256[]",
                  "name": "tokenIds",
                  "type": "uint256[]"
                },
                {
                  "internalType": "uint256[]",
                  "name": "amounts",
                  "type": "uint256[]"
                }
              ],
              "internalType": "struct UnlockVoucher",
              "name": "message",
              "type": "tuple"
            },
            {
              "internalType": "bytes",
              "name": "signature",
              "type": "bytes"
            },
            {
              "internalType": "address",
              "name": "signer",
              "type": "address"
            }
          ],
          "internalType": "struct SignedUnlockVoucher",
          "name": "_input",
          "type": "tuple"
        }
      ],
      "name": "getSignedunlockvoucherPacketHash",
      "outputs": [
        {
          "internalType": "bytes32",
          "name": "",
          "type": "bytes32"
        }
      ],
      "stateMutability": "pure",
      "type": "function"
    },
    {
      "inputs": [
        {
          "internalType": "uint256[]",
          "name": "_input",
          "type": "uint256[]"
        }
      ],
      "name": "getUint256ArrayPacketHash",
      "outputs": [
        {
          "internalType": "bytes32",
          "name": "",
          "type": "bytes32"
        }
      ],
      "stateMutability": "pure",
      "type": "function"
    },
    {
      "inputs": [
        {
          "components": [
            {
              "internalType": "bytes16",
              "name": "voucherId",
              "type": "bytes16"
            },
            {
              "internalType": "address",
              "name": "tokenContract",
              "type": "address"
            },
            {
              "internalType": "address",
              "name": "withdrawer",
              "type": "address"
            },
            {
              "internalType": "uint256[]",
              "name": "tokenIds",
              "type": "uint256[]"
            },
            {
              "internalType": "uint256[]",
              "name": "amounts",
              "type": "uint256[]"
            }
          ],
          "internalType": "struct UnlockVoucher",
          "name": "_input",
          "type": "tuple"
        }
      ],
      "name": "getUnlockvoucherPacketHash",
      "outputs": [
        {
          "internalType": "bytes32",
          "name": "",
          "type": "bytes32"
        }
      ],
      "stateMutability": "pure",
      "type": "function"
    },
    {
      "inputs": [
        {
          "internalType": "bytes16",
          "name": "",
          "type": "bytes16"
        }
      ],
      "name": "idUsed",
      "outputs": [
        {
          "internalType": "bool",
          "name": "",
          "type": "bool"
        }
      ],
      "stateMutability": "view",
      "type": "function"
    },
    {
      "inputs": [
        {
          "components": [
            {
              "components": [
                {
                  "internalType": "bytes16",
                  "name": "voucherId",
                  "type": "bytes16"
                },
                {
                  "internalType": "address",
                  "name": "tokenContract",
                  "type": "address"
                },
                {
                  "internalType": "address",
                  "name": "withdrawer",
                  "type": "address"
                },
                {
                  "internalType": "uint256[]",
                  "name": "tokenIds",
                  "type": "uint256[]"
                },
                {
                  "internalType": "uint256[]",
                  "name": "amounts",
                  "type": "uint256[]"
                }
              ],
              "internalType": "struct UnlockVoucher",
              "name": "message",
              "type": "tuple"
            },
            {
              "internalType": "bytes",
              "name": "signature",
              "type": "bytes"
            },
            {
              "internalType": "address",
              "name": "signer",
              "type": "address"
            }
          ],
          "internalType": "struct SignedUnlockVoucher",
          "name": "signedUnlockVoucher",
          "type": "tuple"
        }
      ],
      "name": "lazyMint",
      "outputs": [],
      "stateMutability": "nonpayable",
      "type": "function"
    },
    {
      "inputs": [],
      "name": "lockContract",
      "outputs": [
        {
          "internalType": "contract ILockContract",
          "name": "",
          "type": "address"
        }
      ],
      "stateMutability": "view",
      "type": "function"
    },
    {
      "inputs": [],
      "name": "owner",
      "outputs": [
        {
          "internalType": "address",
          "name": "",
          "type": "address"
        }
      ],
      "stateMutability": "view",
      "type": "function"
    },
    {
      "inputs": [],
      "name": "renounceOwnership",
      "outputs": [],
      "stateMutability": "nonpayable",
      "type": "function"
    },
    {
      "inputs": [
        {
          "internalType": "address",
          "name": "_adminAddress",
          "type": "address"
        }
      ],
      "name": "setAdminAddress",
      "outputs": [],
      "stateMutability": "nonpayable",
      "type": "function"
    },
    {
      "inputs": [
        {
          "internalType": "address",
          "name": "newOwner",
          "type": "address"
        }
      ],
      "name": "transferOwnership",
      "outputs": [],
      "stateMutability": "nonpayable",
      "type": "function"
    },
    {
      "inputs": [
        {
          "components": [
            {
              "components": [
                {
                  "internalType": "bytes16",
                  "name": "voucherId",
                  "type": "bytes16"
                },
                {
                  "internalType": "address",
                  "name": "tokenContract",
                  "type": "address"
                },
                {
                  "internalType": "address",
                  "name": "withdrawer",
                  "type": "address"
                },
                {
                  "internalType": "uint256[]",
                  "name": "tokenIds",
                  "type": "uint256[]"
                },
                {
                  "internalType": "uint256[]",
                  "name": "amounts",
                  "type": "uint256[]"
                }
              ],
              "internalType": "struct UnlockVoucher",
              "name": "message",
              "type": "tuple"
            },
            {
              "internalType": "bytes",
              "name": "signature",
              "type": "bytes"
            },
            {
              "internalType": "address",
              "name": "signer",
              "type": "address"
            }
          ],
          "internalType": "struct SignedUnlockVoucher",
          "name": "_input",
          "type": "tuple"
        }
      ],
      "name": "verifySignedUnlockVoucher",
      "outputs": [
        {
          "internalType": "address",
          "name": "",
          "type": "address"
        }
      ],
      "stateMutability": "view",
      "type": "function"
    }
  ],
  "transactionHash": "0x57f67d86727eaa9015b1cd1e2e11e52ec89812522c0d7ccacd85a0f26767b73b",
  "args": [
    "0x6a062edB6008D02699BfB354C6BB4eb4B52B77a4",
    "0x7Ac410F4E36873022b57821D7a8EB3D7513C045a"
  ],
  "numDeployments": 2,
  "solcInputHash": "0ad07ba837438790391dfde88af77288",
  "bytecode": "0x60806040523480156200001157600080fd5b50604051620013fb380380620013fb833981016040819052620000349162000142565b6200003f33620000d9565b600180556001600160a01b038216158015906200006457506001600160a01b03811615155b620000a75760405162461bcd60e51b815260206004820152600f60248201526e4e6f205a65726f204164647265737360881b604482015260640160405180910390fd5b600480546001600160a01b039384166001600160a01b0319918216179091556002805492909316911617905562000181565b600080546001600160a01b038381166001600160a01b0319831681178455604051919092169283917f8be0079c531659141344cd1fd0a4f28419497f9722a3daafe3b4186f6b6457e09190a35050565b6001600160a01b03811681146200013f57600080fd5b50565b600080604083850312156200015657600080fd5b8251620001638162000129565b6020840151909250620001768162000129565b809150509250929050565b61126a80620001916000396000f3fe608060405234801561001057600080fd5b50600436106100ea5760003560e01c8063753868e31161008c5780639bcb968c116100665780639bcb968c146101c2578063f11a32ad146101d5578063f2fde38b14610208578063fc6f94681461021b57600080fd5b8063753868e31461019657806383ebb771146101a95780638da5cb5b146101b157600080fd5b80632c1e816d116100c85780632c1e816d146101555780632f2e5597146101685780633c9f21a01461017b578063715018a61461018e57600080fd5b80630d645a08146100ef5780632056865f1461011f57806324d2f75f14610134575b600080fd5b6101026100fd366004610db3565b61022e565b6040516001600160a01b0390911681526020015b60405180910390f35b61013261012d366004610df0565b6103a8565b005b610147610142366004610db3565b610603565b604051908152602001610116565b610132610163366004610e32565b610692565b610147610176366004610e4d565b6106de565b610147610189366004610ea2565b610773565b6101326107f4565b600454610102906001600160a01b031681565b61014761082a565b6000546001600160a01b0316610102565b6101476101d0366004610f4e565b6108d7565b6101f86101e3366004610f83565b60036020526000908152604090205460ff1681565b6040519015158152602001610116565b610132610216366004610e32565b610907565b600254610102906001600160a01b031681565b60008061023e83600001516106de565b9050600061024a61082a565b60405161190160f01b602082015260228101919091526042810183905260620160405160208183030381529060405280519060200120905083604001516001600160a01b031660006001600160a01b031614156102ba5760006102b18286602001516109a2565b95945050505050565b600084604001516001600160a01b0316631626ba7e8387602001516040518363ffffffff1660e01b81526004016102f2929190610fce565b60206040518083038186803b15801561030a57600080fd5b505afa15801561031e573d6000803e3d6000fd5b505050506040513d601f19601f820116820180604052508101906103429190611008565b9050630b135d3f60e11b6001600160e01b031982161461039d5760405162461bcd60e51b8152602060048201526011602482015270494e56414c49445f5349474e415455524560781b60448201526064015b60405180910390fd5b505050506040015190565b600260015414156103fb5760405162461bcd60e51b815260206004820152601f60248201527f5265656e7472616e637947756172643a207265656e7472616e742063616c6c006044820152606401610394565b60026001556003600061040e8380611032565b61041c906020810190610f83565b6001600160801b031916815260208101919091526040016000205460ff161561047f5760405162461bcd60e51b81526020600482015260156024820152741d9bdd58da195c881a1859081899595b881d5cd959605a1b6044820152606401610394565b6002546000906001600160a01b031661049a6100fd84611052565b6001600160a01b0316149050806104e75760405162461bcd60e51b8152602060048201526011602482015270496e76616c6964207369676e617475726560781b6044820152606401610394565b6004546001600160a01b031663d8cb0d666105028480611032565b610513906040810190602001610e32565b61051d8580611032565b61052e906060810190604001610e32565b6105388680611032565b61054690606081019061105e565b6105508880611032565b61055e90608081019061105e565b6040518763ffffffff1660e01b815260040161057f969594939291906110e5565b600060405180830381600087803b15801561059957600080fd5b505af11580156105ad573d6000803e3d6000fd5b506001925060039150600090506105c48580611032565b6105d2906020810190610f83565b6001600160801b03191681526020810191909152604001600020805460ff1916911515919091179055505060018055565b6000807f0cd979d8f867fa0f07041d0df3216d5f5b3bc8520c0bc9afa87eec3b5d1f830f61063484600001516106de565b602080860151805190820120604080880151905161067395949301938452602084019290925260408301526001600160a01b0316606082015260800190565b60408051601f1981840301815291905280516020909101209392505050565b6000546001600160a01b031633146106bc5760405162461bcd60e51b815260040161039490611132565b600280546001600160a01b0319166001600160a01b0392909216919091179055565b6000807f759371d2d11d783ef6bf7d9e298dd30f4d081e1f2754c2436ac36a2c44b2f21883600001518460200151856040015161071e87606001516108d7565b61072b88608001516108d7565b6040805160208101979097526001600160801b0319909516948601949094526001600160a01b0392831660608601529116608084015260a083015260c082015260e001610673565b6000807f8b73c3c69bb8fe3d512ecc4cf759cc79239f7b179b0ffacaa9a75d522b39400f836000015180519060200120846020015180519060200120856040015186606001516040516020016106739594939291909485526020850193909352604084019190915260608301526001600160a01b0316608082015260a00190565b6000546001600160a01b0316331461081e5760405162461bcd60e51b815260040161039490611132565b6108286000610a7b565b565b60008046905060006040518060800160405280605281526020016111e36052913960405160200161085b9190611167565b60408051601f198184030181528282528051602091820120908301527f91ae044f2d40b190e19970969bdbc83fe1026d7bf738b363e87be1f4f474fa63908201527fc89efdaa54c0f20c7adf612882df0950f5a951637e0307cdcb4c672f298b8bc66060820152608081018390523060a082015260c001610673565b6000816040516020016108ea9190611179565b604051602081830303815290604052805190602001209050919050565b6000546001600160a01b031633146109315760405162461bcd60e51b815260040161039490611132565b6001600160a01b0381166109965760405162461bcd60e51b815260206004820152602660248201527f4f776e61626c653a206e6577206f776e657220697320746865207a65726f206160448201526564647265737360d01b6064820152608401610394565b61099f81610a7b565b50565b60008060008084516041146109bd5760009350505050610a75565b50505060208201516040830151606084015160001a601b8110156109e9576109e6601b826111af565b90505b8060ff16601b14158015610a0157508060ff16601c14155b15610a125760009350505050610a75565b60408051600081526020810180835288905260ff831691810191909152606081018490526080810183905260019060a0016020604051602081039080840390855afa158015610a65573d6000803e3d6000fd5b5050506020604051035193505050505b92915050565b600080546001600160a01b038381166001600160a01b0319831681178455604051919092169283917f8be0079c531659141344cd1fd0a4f28419497f9722a3daafe3b4186f6b6457e09190a35050565b634e487b7160e01b600052604160045260246000fd5b6040516080810167ffffffffffffffff81118282101715610b0457610b04610acb565b60405290565b604051601f8201601f1916810167ffffffffffffffff81118282101715610b3357610b33610acb565b604052919050565b80356001600160801b031981168114610b5357600080fd5b919050565b80356001600160a01b0381168114610b5357600080fd5b600082601f830112610b8057600080fd5b8135602067ffffffffffffffff821115610b9c57610b9c610acb565b8160051b610bab828201610b0a565b9283528481018201928281019087851115610bc557600080fd5b83870192505b84831015610be457823582529183019190830190610bcb565b979650505050505050565b600060a08284031215610c0157600080fd5b60405160a0810167ffffffffffffffff8282108183111715610c2557610c25610acb565b81604052829350610c3585610b3b565b8352610c4360208601610b58565b6020840152610c5460408601610b58565b60408401526060850135915080821115610c6d57600080fd5b610c7986838701610b6f565b60608401526080850135915080821115610c9257600080fd5b50610c9f85828601610b6f565b6080830152505092915050565b600067ffffffffffffffff831115610cc657610cc6610acb565b610cd9601f8401601f1916602001610b0a565b9050828152838383011115610ced57600080fd5b828260208301376000602084830101529392505050565b600060608284031215610d1657600080fd5b6040516060810167ffffffffffffffff8282108183111715610d3a57610d3a610acb565b816040528293508435915080821115610d5257600080fd5b610d5e86838701610bef565b83526020850135915080821115610d7457600080fd5b508301601f81018513610d8657600080fd5b610d9585823560208401610cac565b602083015250610da760408401610b58565b60408201525092915050565b600060208284031215610dc557600080fd5b813567ffffffffffffffff811115610ddc57600080fd5b610de884828501610d04565b949350505050565b600060208284031215610e0257600080fd5b813567ffffffffffffffff811115610e1957600080fd5b820160608185031215610e2b57600080fd5b9392505050565b600060208284031215610e4457600080fd5b610e2b82610b58565b600060208284031215610e5f57600080fd5b813567ffffffffffffffff811115610e7657600080fd5b610de884828501610bef565b600082601f830112610e9357600080fd5b610e2b83833560208501610cac565b600060208284031215610eb457600080fd5b813567ffffffffffffffff80821115610ecc57600080fd5b9083019060808286031215610ee057600080fd5b610ee8610ae1565b823582811115610ef757600080fd5b610f0387828601610e82565b825250602083013582811115610f1857600080fd5b610f2487828601610e82565b60208301525060408301356040820152610f4060608401610b58565b606082015295945050505050565b600060208284031215610f6057600080fd5b813567ffffffffffffffff811115610f7757600080fd5b610de884828501610b6f565b600060208284031215610f9557600080fd5b610e2b82610b3b565b60005b83811015610fb9578181015183820152602001610fa1565b83811115610fc8576000848401525b50505050565b8281526040602082015260008251806040840152610ff3816060850160208701610f9e565b601f01601f1916919091016060019392505050565b60006020828403121561101a57600080fd5b81516001600160e01b031981168114610e2b57600080fd5b60008235609e1983360301811261104857600080fd5b9190910192915050565b6000610a753683610d04565b6000808335601e1984360301811261107557600080fd5b83018035915067ffffffffffffffff82111561109057600080fd5b6020019150600581901b36038213156110a857600080fd5b9250929050565b81835260006001600160fb1b038311156110c857600080fd5b8260051b8083602087013760009401602001938452509192915050565b6001600160a01b0387811682528616602082015260806040820181905260009061111290830186886110af565b82810360608401526111258185876110af565b9998505050505050505050565b6020808252818101527f4f776e61626c653a2063616c6c6572206973206e6f7420746865206f776e6572604082015260600190565b60008251611048818460208701610f9e565b815160009082906020808601845b838110156111a357815185529382019390820190600101611187565b50929695505050505050565b600060ff821660ff84168060ff038211156111da57634e487b7160e01b600052601160045260246000fd5b01939250505056fe454950373132446f6d61696e28737472696e67206e616d652c737472696e672076657273696f6e2c75696e7432353620636861696e49642c6164647265737320766572696679696e67436f6e747261637429a2646970667358221220322a59f77f94f07f2b8433a9cd2756ebf7985b7c754c23a2f3749d7df94c1fc864736f6c63430008090033",
  "devdoc": {
    "kind": "dev",
    "methods": {
      "owner()": {
        "details": "Returns the address of the current owner."
      },
      "renounceOwnership()": {
        "details": "Leaves the contract without owner. It will not be possible to call `onlyOwner` functions anymore. Can only be called by the current owner. NOTE: Renouncing ownership will leave the contract without an owner, thereby removing any functionality that is only available to the owner."
      },
      "transferOwnership(address)": {
        "details": "Transfers ownership of the contract to a new account (`newOwner`). Can only be called by the current owner."
      }
    },
    "version": 1
  },
  "userdoc": {
    "kind": "user",
    "methods": {},
    "version": 1
  },
  "storageLayout": {
    "storage": [
      {
        "astId": 435,
        "contract": "contracts/LazyUnlock.sol:LazyUnlock",
        "label": "_owner",
        "offset": 0,
        "slot": "0",
        "type": "t_address"
      },
      {
        "astId": 635,
        "contract": "contracts/LazyUnlock.sol:LazyUnlock",
        "label": "_status",
        "offset": 0,
        "slot": "1",
        "type": "t_uint256"
      },
      {
        "astId": 10372,
        "contract": "contracts/LazyUnlock.sol:LazyUnlock",
        "label": "adminAddress",
        "offset": 0,
        "slot": "2",
        "type": "t_address"
      },
      {
        "astId": 10376,
        "contract": "contracts/LazyUnlock.sol:LazyUnlock",
        "label": "idUsed",
        "offset": 0,
        "slot": "3",
        "type": "t_mapping(t_bytes16,t_bool)"
      },
      {
        "astId": 10379,
        "contract": "contracts/LazyUnlock.sol:LazyUnlock",
        "label": "lockContract",
        "offset": 0,
        "slot": "4",
        "type": "t_contract(ILockContract)20149"
      }
    ],
    "types": {
      "t_address": {
        "encoding": "inplace",
        "label": "address",
        "numberOfBytes": "20"
      },
      "t_bool": {
        "encoding": "inplace",
        "label": "bool",
        "numberOfBytes": "1"
      },
      "t_bytes16": {
        "encoding": "inplace",
        "label": "bytes16",
        "numberOfBytes": "16"
      },
      "t_contract(ILockContract)20149": {
        "encoding": "inplace",
        "label": "contract ILockContract",
        "numberOfBytes": "20"
      },
      "t_mapping(t_bytes16,t_bool)": {
        "encoding": "mapping",
        "key": "t_bytes16",
        "label": "mapping(bytes16 => bool)",
        "numberOfBytes": "32",
        "value": "t_bool"
      },
      "t_uint256": {
        "encoding": "inplace",
        "label": "uint256",
        "numberOfBytes": "32"
      }
    }
  }
}