{
  "address": "0x9d1c461e65F162167f92223074e3b2D09b5C3dB8",
  "abi": [
    {
      "inputs": [
        {
          "internalType": "contract IReloadedNFT",
          "name": "_reloadedNFT",
          "type": "address"
        },
        {
          "internalType": "address",
          "name": "_adminAddress",
          "type": "address"
        }
      ],
      "stateMutability": "nonpayable",
      "type": "constructor"
    },
    {
      "anonymous": false,
      "inputs": [
        {
          "indexed": true,
          "internalType": "address",
          "name": "previousOwner",
          "type": "address"
        },
        {
          "indexed": true,
          "internalType": "address",
          "name": "newOwner",
          "type": "address"
        }
      ],
      "name": "OwnershipTransferred",
      "type": "event"
    },
    {
      "inputs": [],
      "name": "adminAddress",
      "outputs": [
        {
          "internalType": "address",
          "name": "",
          "type": "address"
        }
      ],
      "stateMutability": "view",
      "type": "function"
    },
    {
      "inputs": [],
      "name": "getDomainHash",
      "outputs": [
        {
          "internalType": "bytes32",
          "name": "",
          "type": "bytes32"
        }
      ],
      "stateMutability": "view",
      "type": "function"
    },
    {
      "inputs": [
        {
          "components": [
            {
              "internalType": "string",
              "name": "name",
              "type": "string"
            },
            {
              "internalType": "string",
              "name": "version",
              "type": "string"
            },
            {
              "internalType": "uint256",
              "name": "chainId",
              "type": "uint256"
            },
            {
              "internalType": "address",
              "name": "verifyingContract",
              "type": "address"
            }
          ],
          "internalType": "struct EIP712Domain",
          "name": "_input",
          "type": "tuple"
        }
      ],
      "name": "getEip712DomainPacketHash",
      "outputs": [
        {
          "internalType": "bytes32",
          "name": "",
          "type": "bytes32"
        }
      ],
      "stateMutability": "pure",
      "type": "function"
    },
    {
      "inputs": [
        {
          "components": [
            {
              "internalType": "uint256",
              "name": "voucherId",
              "type": "uint256"
            },
            {
              "internalType": "address",
              "name": "to",
              "type": "address"
            },
            {
              "internalType": "uint256[]",
              "name": "tokenIds",
              "type": "uint256[]"
            },
            {
              "internalType": "uint256[]",
              "name": "amounts",
              "type": "uint256[]"
            },
            {
              "internalType": "bytes",
              "name": "data",
              "type": "bytes"
            }
          ],
          "internalType": "struct MintBatchVoucher",
          "name": "_input",
          "type": "tuple"
        }
      ],
      "name": "getMintbatchvoucherPacketHash",
      "outputs": [
        {
          "internalType": "bytes32",
          "name": "",
          "type": "bytes32"
        }
      ],
      "stateMutability": "pure",
      "type": "function"
    },
    {
      "inputs": [
        {
          "components": [
            {
              "components": [
                {
                  "internalType": "uint256",
                  "name": "voucherId",
                  "type": "uint256"
                },
                {
                  "internalType": "address",
                  "name": "to",
                  "type": "address"
                },
                {
                  "internalType": "uint256[]",
                  "name": "tokenIds",
                  "type": "uint256[]"
                },
                {
                  "internalType": "uint256[]",
                  "name": "amounts",
                  "type": "uint256[]"
                },
                {
                  "internalType": "bytes",
                  "name": "data",
                  "type": "bytes"
                }
              ],
              "internalType": "struct MintBatchVoucher",
              "name": "message",
              "type": "tuple"
            },
            {
              "internalType": "bytes",
              "name": "signature",
              "type": "bytes"
            },
            {
              "internalType": "address",
              "name": "signer",
              "type": "address"
            }
          ],
          "internalType": "struct SignedMintBatchVoucher",
          "name": "_input",
          "type": "tuple"
        }
      ],
      "name": "getSignedmintbatchvoucherPacketHash",
      "outputs": [
        {
          "internalType": "bytes32",
          "name": "",
          "type": "bytes32"
        }
      ],
      "stateMutability": "pure",
      "type": "function"
    },
    {
      "inputs": [
        {
          "internalType": "uint256[]",
          "name": "_input",
          "type": "uint256[]"
        }
      ],
      "name": "getUint256ArrayPacketHash",
      "outputs": [
        {
          "internalType": "bytes32",
          "name": "",
          "type": "bytes32"
        }
      ],
      "stateMutability": "pure",
      "type": "function"
    },
    {
      "inputs": [
        {
          "internalType": "uint256",
          "name": "",
          "type": "uint256"
        }
      ],
      "name": "idUsed",
      "outputs": [
        {
          "internalType": "bool",
          "name": "",
          "type": "bool"
        }
      ],
      "stateMutability": "view",
      "type": "function"
    },
    {
      "inputs": [
        {
          "components": [
            {
              "components": [
                {
                  "internalType": "uint256",
                  "name": "voucherId",
                  "type": "uint256"
                },
                {
                  "internalType": "address",
                  "name": "to",
                  "type": "address"
                },
                {
                  "internalType": "uint256[]",
                  "name": "tokenIds",
                  "type": "uint256[]"
                },
                {
                  "internalType": "uint256[]",
                  "name": "amounts",
                  "type": "uint256[]"
                },
                {
                  "internalType": "bytes",
                  "name": "data",
                  "type": "bytes"
                }
              ],
              "internalType": "struct MintBatchVoucher",
              "name": "message",
              "type": "tuple"
            },
            {
              "internalType": "bytes",
              "name": "signature",
              "type": "bytes"
            },
            {
              "internalType": "address",
              "name": "signer",
              "type": "address"
            }
          ],
          "internalType": "struct SignedMintBatchVoucher",
          "name": "signedMintBatchVoucher",
          "type": "tuple"
        }
      ],
      "name": "lazyMint",
      "outputs": [],
      "stateMutability": "nonpayable",
      "type": "function"
    },
    {
      "inputs": [],
      "name": "owner",
      "outputs": [
        {
          "internalType": "address",
          "name": "",
          "type": "address"
        }
      ],
      "stateMutability": "view",
      "type": "function"
    },
    {
      "inputs": [],
      "name": "reloadedNFT",
      "outputs": [
        {
          "internalType": "contract IReloadedNFT",
          "name": "",
          "type": "address"
        }
      ],
      "stateMutability": "view",
      "type": "function"
    },
    {
      "inputs": [],
      "name": "renounceOwnership",
      "outputs": [],
      "stateMutability": "nonpayable",
      "type": "function"
    },
    {
      "inputs": [
        {
          "internalType": "address",
          "name": "_adminAddress",
          "type": "address"
        }
      ],
      "name": "setAdminAddress",
      "outputs": [],
      "stateMutability": "nonpayable",
      "type": "function"
    },
    {
      "inputs": [
        {
          "internalType": "address",
          "name": "newOwner",
          "type": "address"
        }
      ],
      "name": "transferOwnership",
      "outputs": [],
      "stateMutability": "nonpayable",
      "type": "function"
    },
    {
      "inputs": [
        {
          "components": [
            {
              "components": [
                {
                  "internalType": "uint256",
                  "name": "voucherId",
                  "type": "uint256"
                },
                {
                  "internalType": "address",
                  "name": "to",
                  "type": "address"
                },
                {
                  "internalType": "uint256[]",
                  "name": "tokenIds",
                  "type": "uint256[]"
                },
                {
                  "internalType": "uint256[]",
                  "name": "amounts",
                  "type": "uint256[]"
                },
                {
                  "internalType": "bytes",
                  "name": "data",
                  "type": "bytes"
                }
              ],
              "internalType": "struct MintBatchVoucher",
              "name": "message",
              "type": "tuple"
            },
            {
              "internalType": "bytes",
              "name": "signature",
              "type": "bytes"
            },
            {
              "internalType": "address",
              "name": "signer",
              "type": "address"
            }
          ],
          "internalType": "struct SignedMintBatchVoucher",
          "name": "_input",
          "type": "tuple"
        }
      ],
      "name": "verifySignedMintBatchVoucher",
      "outputs": [
        {
          "internalType": "address",
          "name": "",
          "type": "address"
        }
      ],
      "stateMutability": "view",
      "type": "function"
    }
  ],
  "transactionHash": "0x1139884d4547462c4055a62561c6c15e5c3a923ddc257a72ee8208b61c523589",
  "args": [
    "0x3700A37F2785E0724939b4AE7EF54286158F0b29",
    "0x7Ac410F4E36873022b57821D7a8EB3D7513C045a"
  ],
  "numDeployments": 1,
  "solcInputHash": "b8e85eea3917f0984c716a669a8b5ac9",
  "bytecode": "0x60806040523480156200001157600080fd5b506040516200140538038062001405833981016040819052620000349162000142565b6200003f33620000d9565b600180556001600160a01b038216158015906200006457506001600160a01b03811615155b620000a75760405162461bcd60e51b815260206004820152600f60248201526e4e6f205a65726f204164647265737360881b604482015260640160405180910390fd5b600480546001600160a01b039384166001600160a01b0319918216179091556002805492909316911617905562000181565b600080546001600160a01b038381166001600160a01b0319831681178455604051919092169283917f8be0079c531659141344cd1fd0a4f28419497f9722a3daafe3b4186f6b6457e09190a35050565b6001600160a01b03811681146200013f57600080fd5b50565b600080604083850312156200015657600080fd5b8251620001638162000129565b6020840151909250620001768162000129565b809150509250929050565b61127480620001916000396000f3fe608060405234801561001057600080fd5b50600436106100ea5760003560e01c806388f170d01161008c578063b1297a9011610066578063b1297a90146101e2578063c8d2d504146101f5578063f2fde38b14610208578063fc6f94681461021b57600080fd5b806388f170d0146101ab5780638da5cb5b146101be5780639bcb968c146101cf57600080fd5b806355fac1cd116100c857806355fac1cd14610155578063693b028914610168578063715018a61461019b57806383ebb771146101a357600080fd5b806316354ab0146100ef5780632c1e816d1461011f5780633c9f21a014610134575b600080fd5b6101026100fd366004610d7b565b61022e565b6040516001600160a01b0390911681526020015b60405180910390f35b61013261012d366004610db7565b6103a8565b005b610147610142366004610dd9565b6103f4565b604051908152602001610116565b610132610163366004610e84565b610494565b61018b610176366004610ebe565b60036020526000908152604090205460ff1681565b6040519015158152602001610116565b6101326106bf565b6101476106f5565b6101476101b9366004610ed7565b6107a2565b6000546001600160a01b0316610102565b6101476101dd366004610f0b565b610835565b6101476101f0366004610d7b565b610865565b600454610102906001600160a01b031681565b610132610216366004610db7565b6108d5565b600254610102906001600160a01b031681565b60008061023e83600001516107a2565b9050600061024a6106f5565b60405161190160f01b602082015260228101919091526042810183905260620160405160208183030381529060405280519060200120905083604001516001600160a01b031660006001600160a01b031614156102ba5760006102b1828660200151610970565b95945050505050565b600084604001516001600160a01b0316631626ba7e8387602001516040518363ffffffff1660e01b81526004016102f2929190610f6f565b60206040518083038186803b15801561030a57600080fd5b505afa15801561031e573d6000803e3d6000fd5b505050506040513d601f19601f820116820180604052508101906103429190610fa9565b9050630b135d3f60e11b6001600160e01b031982161461039d5760405162461bcd60e51b8152602060048201526011602482015270494e56414c49445f5349474e415455524560781b60448201526064015b60405180910390fd5b505050506040015190565b6000546001600160a01b031633146103d25760405162461bcd60e51b815260040161039490610fd3565b600280546001600160a01b0319166001600160a01b0392909216919091179055565b6000807f8b73c3c69bb8fe3d512ecc4cf759cc79239f7b179b0ffacaa9a75d522b39400f836000015180519060200120846020015180519060200120856040015186606001516040516020016104759594939291909485526020850193909352604084019190915260608301526001600160a01b0316608082015260a00190565b60408051601f1981840301815291905280516020909101209392505050565b600260015414156104e75760405162461bcd60e51b815260206004820152601f60248201527f5265656e7472616e637947756172643a207265656e7472616e742063616c6c006044820152606401610394565b6002600155600360006104fa8380611008565b35815260208101919091526040016000205460ff16156105545760405162461bcd60e51b81526020600482015260156024820152741d9bdd58da195c881a1859081899595b881d5cd959605a1b6044820152606401610394565b6002546000906001600160a01b031661056f6100fd84611028565b6001600160a01b0316149050806105bc5760405162461bcd60e51b8152602060048201526011602482015270496e76616c6964207369676e617475726560781b6044820152606401610394565b6004546001600160a01b0316631f7fdffa6105d78480611008565b6105e8906040810190602001610db7565b6105f28580611008565b610600906040810190611034565b61060a8780611008565b610618906060810190611034565b6106228980611008565b610630906080810190611084565b6040518863ffffffff1660e01b81526004016106529796959493929190611100565b600060405180830381600087803b15801561066c57600080fd5b505af1158015610680573d6000803e3d6000fd5b506001925060039150600090506106978580611008565b3581526020810191909152604001600020805460ff1916911515919091179055505060018055565b6000546001600160a01b031633146106e95760405162461bcd60e51b815260040161039490610fd3565b6106f36000610a49565b565b60008046905060006040518060800160405280605281526020016111ed605291396040516020016107269190611171565b60408051601f198184030181528282528051602091820120908301527fd64699bbe2cd6fd999800a19a444ce2a16c2ab117f0bcf5190cc291783a4f4d3908201527fc89efdaa54c0f20c7adf612882df0950f5a951637e0307cdcb4c672f298b8bc66060820152608081018390523060a082015260c001610475565b6000807f91e7feed788be63e5b7f11e0604c2dfed5d7320aa17b360f2df7d3802d86eb0d836000015184602001516107dd8660400151610835565b6107ea8760600151610835565b608088015180516020918201206040516104759796959493920195865260208601949094526001600160a01b039290921660408501526060840152608083015260a082015260c00190565b6000816040516020016108489190611183565b604051602081830303815290604052805190602001209050919050565b6000807fa3ac6e13313fb6df774db19f56d5bc4bb29f8e316a97615eed57dd46c8fc80f161089684600001516107a2565b602080860151805190820120604080880151905161047595949301938452602084019290925260408301526001600160a01b0316606082015260800190565b6000546001600160a01b031633146108ff5760405162461bcd60e51b815260040161039490610fd3565b6001600160a01b0381166109645760405162461bcd60e51b815260206004820152602660248201527f4f776e61626c653a206e6577206f776e657220697320746865207a65726f206160448201526564647265737360d01b6064820152608401610394565b61096d81610a49565b50565b600080600080845160411461098b5760009350505050610a43565b50505060208201516040830151606084015160001a601b8110156109b7576109b4601b826111b9565b90505b8060ff16601b141580156109cf57508060ff16601c14155b156109e05760009350505050610a43565b60408051600081526020810180835288905260ff831691810191909152606081018490526080810183905260019060a0016020604051602081039080840390855afa158015610a33573d6000803e3d6000fd5b5050506020604051035193505050505b92915050565b600080546001600160a01b038381166001600160a01b0319831681178455604051919092169283917f8be0079c531659141344cd1fd0a4f28419497f9722a3daafe3b4186f6b6457e09190a35050565b634e487b7160e01b600052604160045260246000fd5b60405160a081016001600160401b0381118282101715610ad157610ad1610a99565b60405290565b604051608081016001600160401b0381118282101715610ad157610ad1610a99565b604051601f8201601f191681016001600160401b0381118282101715610b2157610b21610a99565b604052919050565b80356001600160a01b0381168114610b4057600080fd5b919050565b600082601f830112610b5657600080fd5b813560206001600160401b03821115610b7157610b71610a99565b8160051b610b80828201610af9565b9283528481018201928281019087851115610b9a57600080fd5b83870192505b84831015610bb957823582529183019190830190610ba0565b979650505050505050565b600082601f830112610bd557600080fd5b81356001600160401b03811115610bee57610bee610a99565b610c01601f8201601f1916602001610af9565b818152846020838601011115610c1657600080fd5b816020850160208301376000918101602001919091529392505050565b600060a08284031215610c4557600080fd5b610c4d610aaf565b905081358152610c5f60208301610b29565b602082015260408201356001600160401b0380821115610c7e57600080fd5b610c8a85838601610b45565b60408401526060840135915080821115610ca357600080fd5b610caf85838601610b45565b60608401526080840135915080821115610cc857600080fd5b50610cd584828501610bc4565b60808301525092915050565b600060608284031215610cf357600080fd5b604051606081016001600160401b038282108183111715610d1657610d16610a99565b816040528293508435915080821115610d2e57600080fd5b610d3a86838701610c33565b83526020850135915080821115610d5057600080fd5b50610d5d85828601610bc4565b602083015250610d6f60408401610b29565b60408201525092915050565b600060208284031215610d8d57600080fd5b81356001600160401b03811115610da357600080fd5b610daf84828501610ce1565b949350505050565b600060208284031215610dc957600080fd5b610dd282610b29565b9392505050565b600060208284031215610deb57600080fd5b81356001600160401b0380821115610e0257600080fd5b9083019060808286031215610e1657600080fd5b610e1e610ad7565b823582811115610e2d57600080fd5b610e3987828601610bc4565b825250602083013582811115610e4e57600080fd5b610e5a87828601610bc4565b60208301525060408301356040820152610e7660608401610b29565b606082015295945050505050565b600060208284031215610e9657600080fd5b81356001600160401b03811115610eac57600080fd5b820160608185031215610dd257600080fd5b600060208284031215610ed057600080fd5b5035919050565b600060208284031215610ee957600080fd5b81356001600160401b03811115610eff57600080fd5b610daf84828501610c33565b600060208284031215610f1d57600080fd5b81356001600160401b03811115610f3357600080fd5b610daf84828501610b45565b60005b83811015610f5a578181015183820152602001610f42565b83811115610f69576000848401525b50505050565b8281526040602082015260008251806040840152610f94816060850160208701610f3f565b601f01601f1916919091016060019392505050565b600060208284031215610fbb57600080fd5b81516001600160e01b031981168114610dd257600080fd5b6020808252818101527f4f776e61626c653a2063616c6c6572206973206e6f7420746865206f776e6572604082015260600190565b60008235609e1983360301811261101e57600080fd5b9190910192915050565b6000610a433683610ce1565b6000808335601e1984360301811261104b57600080fd5b8301803591506001600160401b0382111561106557600080fd5b6020019150600581901b360382131561107d57600080fd5b9250929050565b6000808335601e1984360301811261109b57600080fd5b8301803591506001600160401b038211156110b557600080fd5b60200191503681900382131561107d57600080fd5b81835260006001600160fb1b038311156110e357600080fd5b8260051b8083602087013760009401602001938452509192915050565b6001600160a01b0388168152608060208201819052600090611125908301888a6110ca565b82810360408401526111388187896110ca565b90508281036060840152838152838560208301376000602085830101526020601f19601f86011682010191505098975050505050505050565b6000825161101e818460208701610f3f565b815160009082906020808601845b838110156111ad57815185529382019390820190600101611191565b50929695505050505050565b600060ff821660ff84168060ff038211156111e457634e487b7160e01b600052601160045260246000fd5b01939250505056fe454950373132446f6d61696e28737472696e67206e616d652c737472696e672076657273696f6e2c75696e7432353620636861696e49642c6164647265737320766572696679696e67436f6e747261637429a2646970667358221220fa7c2e535cf8199b01dd6f74e756d1efde936700c380a9502949d5df6ba9ef8b64736f6c63430008090033",
  "devdoc": {
    "kind": "dev",
    "methods": {
      "owner()": {
        "details": "Returns the address of the current owner."
      },
      "renounceOwnership()": {
        "details": "Leaves the contract without owner. It will not be possible to call `onlyOwner` functions anymore. Can only be called by the current owner. NOTE: Renouncing ownership will leave the contract without an owner, thereby removing any functionality that is only available to the owner."
      },
      "transferOwnership(address)": {
        "details": "Transfers ownership of the contract to a new account (`newOwner`). Can only be called by the current owner."
      }
    },
    "version": 1
  },
  "userdoc": {
    "kind": "user",
    "methods": {},
    "version": 1
  },
  "storageLayout": {
    "storage": [
      {
        "astId": 435,
        "contract": "contracts/LazyReloadedNFTMinter.sol:LazyReloadedNFTMinter",
        "label": "_owner",
        "offset": 0,
        "slot": "0",
        "type": "t_address"
      },
      {
        "astId": 635,
        "contract": "contracts/LazyReloadedNFTMinter.sol:LazyReloadedNFTMinter",
        "label": "_status",
        "offset": 0,
        "slot": "1",
        "type": "t_uint256"
      },
      {
        "astId": 11175,
        "contract": "contracts/LazyReloadedNFTMinter.sol:LazyReloadedNFTMinter",
        "label": "adminAddress",
        "offset": 0,
        "slot": "2",
        "type": "t_address"
      },
      {
        "astId": 11179,
        "contract": "contracts/LazyReloadedNFTMinter.sol:LazyReloadedNFTMinter",
        "label": "idUsed",
        "offset": 0,
        "slot": "3",
        "type": "t_mapping(t_uint256,t_bool)"
      },
      {
        "astId": 11182,
        "contract": "contracts/LazyReloadedNFTMinter.sol:LazyReloadedNFTMinter",
        "label": "reloadedNFT",
        "offset": 0,
        "slot": "4",
        "type": "t_contract(IReloadedNFT)21161"
      }
    ],
    "types": {
      "t_address": {
        "encoding": "inplace",
        "label": "address",
        "numberOfBytes": "20"
      },
      "t_bool": {
        "encoding": "inplace",
        "label": "bool",
        "numberOfBytes": "1"
      },
      "t_contract(IReloadedNFT)21161": {
        "encoding": "inplace",
        "label": "contract IReloadedNFT",
        "numberOfBytes": "20"
      },
      "t_mapping(t_uint256,t_bool)": {
        "encoding": "mapping",
        "key": "t_uint256",
        "label": "mapping(uint256 => bool)",
        "numberOfBytes": "32",
        "value": "t_bool"
      },
      "t_uint256": {
        "encoding": "inplace",
        "label": "uint256",
        "numberOfBytes": "32"
      }
    }
  }
}