{
  "address": "0x6a062edB6008D02699BfB354C6BB4eb4B52B77a4",
  "abi": [
    {
      "inputs": [],
      "stateMutability": "nonpayable",
      "type": "constructor"
    },
    {
      "anonymous": false,
      "inputs": [
        {
          "indexed": false,
          "internalType": "address",
          "name": "locker",
          "type": "address"
        },
        {
          "indexed": false,
          "internalType": "address",
          "name": "tokenContract",
          "type": "address"
        },
        {
          "indexed": false,
          "internalType": "uint256[]",
          "name": "tokenIds",
          "type": "uint256[]"
        },
        {
          "indexed": false,
          "internalType": "uint256[]",
          "name": "amounts",
          "type": "uint256[]"
        }
      ],
      "name": "ERC1155Locked",
      "type": "event"
    },
    {
      "anonymous": false,
      "inputs": [
        {
          "indexed": false,
          "internalType": "address",
          "name": "burner",
          "type": "address"
        },
        {
          "indexed": false,
          "internalType": "address",
          "name": "tokenContract",
          "type": "address"
        },
        {
          "indexed": false,
          "internalType": "uint256[]",
          "name": "tokenIds",
          "type": "uint256[]"
        }
      ],
      "name": "ERC721Burnt",
      "type": "event"
    },
    {
      "anonymous": false,
      "inputs": [
        {
          "indexed": false,
          "internalType": "address",
          "name": "withdrawer",
          "type": "address"
        },
        {
          "indexed": false,
          "internalType": "address",
          "name": "tokenContract",
          "type": "address"
        },
        {
          "indexed": false,
          "internalType": "uint256[]",
          "name": "tokenIds",
          "type": "uint256[]"
        },
        {
          "indexed": false,
          "internalType": "uint256[]",
          "name": "amounts",
          "type": "uint256[]"
        }
      ],
      "name": "NFTWithdraw",
      "type": "event"
    },
    {
      "anonymous": false,
      "inputs": [
        {
          "indexed": false,
          "internalType": "address",
          "name": "account",
          "type": "address"
        }
      ],
      "name": "Paused",
      "type": "event"
    },
    {
      "anonymous": false,
      "inputs": [
        {
          "indexed": true,
          "internalType": "bytes32",
          "name": "role",
          "type": "bytes32"
        },
        {
          "indexed": true,
          "internalType": "bytes32",
          "name": "previousAdminRole",
          "type": "bytes32"
        },
        {
          "indexed": true,
          "internalType": "bytes32",
          "name": "newAdminRole",
          "type": "bytes32"
        }
      ],
      "name": "RoleAdminChanged",
      "type": "event"
    },
    {
      "anonymous": false,
      "inputs": [
        {
          "indexed": true,
          "internalType": "bytes32",
          "name": "role",
          "type": "bytes32"
        },
        {
          "indexed": true,
          "internalType": "address",
          "name": "account",
          "type": "address"
        },
        {
          "indexed": true,
          "internalType": "address",
          "name": "sender",
          "type": "address"
        }
      ],
      "name": "RoleGranted",
      "type": "event"
    },
    {
      "anonymous": false,
      "inputs": [
        {
          "indexed": true,
          "internalType": "bytes32",
          "name": "role",
          "type": "bytes32"
        },
        {
          "indexed": true,
          "internalType": "address",
          "name": "account",
          "type": "address"
        },
        {
          "indexed": true,
          "internalType": "address",
          "name": "sender",
          "type": "address"
        }
      ],
      "name": "RoleRevoked",
      "type": "event"
    },
    {
      "anonymous": false,
      "inputs": [
        {
          "indexed": false,
          "internalType": "address",
          "name": "account",
          "type": "address"
        }
      ],
      "name": "Unpaused",
      "type": "event"
    },
    {
      "anonymous": false,
      "inputs": [
        {
          "indexed": false,
          "internalType": "address",
          "name": "tokenContract",
          "type": "address"
        }
      ],
      "name": "WhitelistedBurnableContractAdded",
      "type": "event"
    },
    {
      "anonymous": false,
      "inputs": [
        {
          "indexed": false,
          "internalType": "address",
          "name": "tokenContract",
          "type": "address"
        }
      ],
      "name": "WhitelistedBurnableContractRemoved",
      "type": "event"
    },
    {
      "anonymous": false,
      "inputs": [
        {
          "indexed": false,
          "internalType": "address",
          "name": "tokenContract",
          "type": "address"
        }
      ],
      "name": "WhitelistedContractAdded",
      "type": "event"
    },
    {
      "anonymous": false,
      "inputs": [
        {
          "indexed": false,
          "internalType": "address",
          "name": "tokenContract",
          "type": "address"
        }
      ],
      "name": "WhitelistedContractRemoved",
      "type": "event"
    },
    {
      "inputs": [],
      "name": "DEFAULT_ADMIN_ROLE",
      "outputs": [
        {
          "internalType": "bytes32",
          "name": "",
          "type": "bytes32"
        }
      ],
      "stateMutability": "view",
      "type": "function"
    },
    {
      "inputs": [],
      "name": "WITHDRAW_ROLE",
      "outputs": [
        {
          "internalType": "bytes32",
          "name": "",
          "type": "bytes32"
        }
      ],
      "stateMutability": "view",
      "type": "function"
    },
    {
      "inputs": [
        {
          "internalType": "address",
          "name": "tokenContract",
          "type": "address"
        }
      ],
      "name": "addWhitelistedBurnableContract",
      "outputs": [],
      "stateMutability": "nonpayable",
      "type": "function"
    },
    {
      "inputs": [
        {
          "internalType": "address",
          "name": "tokenContract",
          "type": "address"
        }
      ],
      "name": "addWhitelistedContract",
      "outputs": [],
      "stateMutability": "nonpayable",
      "type": "function"
    },
    {
      "inputs": [
        {
          "internalType": "address",
          "name": "tokenContract",
          "type": "address"
        },
        {
          "internalType": "uint256[]",
          "name": "tokenIds",
          "type": "uint256[]"
        }
      ],
      "name": "burnERC721",
      "outputs": [],
      "stateMutability": "nonpayable",
      "type": "function"
    },
    {
      "inputs": [
        {
          "internalType": "bytes32",
          "name": "role",
          "type": "bytes32"
        }
      ],
      "name": "getRoleAdmin",
      "outputs": [
        {
          "internalType": "bytes32",
          "name": "",
          "type": "bytes32"
        }
      ],
      "stateMutability": "view",
      "type": "function"
    },
    {
      "inputs": [
        {
          "internalType": "bytes32",
          "name": "role",
          "type": "bytes32"
        },
        {
          "internalType": "address",
          "name": "account",
          "type": "address"
        }
      ],
      "name": "grantRole",
      "outputs": [],
      "stateMutability": "nonpayable",
      "type": "function"
    },
    {
      "inputs": [
        {
          "internalType": "bytes32",
          "name": "role",
          "type": "bytes32"
        },
        {
          "internalType": "address",
          "name": "account",
          "type": "address"
        }
      ],
      "name": "hasRole",
      "outputs": [
        {
          "internalType": "bool",
          "name": "",
          "type": "bool"
        }
      ],
      "stateMutability": "view",
      "type": "function"
    },
    {
      "inputs": [
        {
          "internalType": "address",
          "name": "tokenContract",
          "type": "address"
        },
        {
          "internalType": "uint256[]",
          "name": "tokenIds",
          "type": "uint256[]"
        },
        {
          "internalType": "uint256[]",
          "name": "amounts",
          "type": "uint256[]"
        }
      ],
      "name": "lockERC1155",
      "outputs": [],
      "stateMutability": "nonpayable",
      "type": "function"
    },
    {
      "inputs": [
        {
          "internalType": "address",
          "name": "",
          "type": "address"
        },
        {
          "internalType": "uint256",
          "name": "",
          "type": "uint256"
        }
      ],
      "name": "lockedERC1155Tokens",
      "outputs": [
        {
          "internalType": "uint256",
          "name": "",
          "type": "uint256"
        }
      ],
      "stateMutability": "view",
      "type": "function"
    },
    {
      "inputs": [
        {
          "internalType": "address",
          "name": "",
          "type": "address"
        },
        {
          "internalType": "uint256",
          "name": "",
          "type": "uint256"
        }
      ],
      "name": "lockedERC721Tokens",
      "outputs": [
        {
          "internalType": "bool",
          "name": "",
          "type": "bool"
        }
      ],
      "stateMutability": "view",
      "type": "function"
    },
    {
      "inputs": [
        {
          "internalType": "address",
          "name": "",
          "type": "address"
        },
        {
          "internalType": "address",
          "name": "",
          "type": "address"
        },
        {
          "internalType": "uint256[]",
          "name": "",
          "type": "uint256[]"
        },
        {
          "internalType": "uint256[]",
          "name": "",
          "type": "uint256[]"
        },
        {
          "internalType": "bytes",
          "name": "",
          "type": "bytes"
        }
      ],
      "name": "onERC1155BatchReceived",
      "outputs": [
        {
          "internalType": "bytes4",
          "name": "",
          "type": "bytes4"
        }
      ],
      "stateMutability": "nonpayable",
      "type": "function"
    },
    {
      "inputs": [
        {
          "internalType": "address",
          "name": "",
          "type": "address"
        },
        {
          "internalType": "address",
          "name": "",
          "type": "address"
        },
        {
          "internalType": "uint256",
          "name": "",
          "type": "uint256"
        },
        {
          "internalType": "uint256",
          "name": "",
          "type": "uint256"
        },
        {
          "internalType": "bytes",
          "name": "",
          "type": "bytes"
        }
      ],
      "name": "onERC1155Received",
      "outputs": [
        {
          "internalType": "bytes4",
          "name": "",
          "type": "bytes4"
        }
      ],
      "stateMutability": "nonpayable",
      "type": "function"
    },
    {
      "inputs": [
        {
          "internalType": "address",
          "name": "",
          "type": "address"
        },
        {
          "internalType": "address",
          "name": "",
          "type": "address"
        },
        {
          "internalType": "uint256",
          "name": "",
          "type": "uint256"
        },
        {
          "internalType": "bytes",
          "name": "",
          "type": "bytes"
        }
      ],
      "name": "onERC721Received",
      "outputs": [
        {
          "internalType": "bytes4",
          "name": "",
          "type": "bytes4"
        }
      ],
      "stateMutability": "nonpayable",
      "type": "function"
    },
    {
      "inputs": [],
      "name": "pause",
      "outputs": [],
      "stateMutability": "nonpayable",
      "type": "function"
    },
    {
      "inputs": [],
      "name": "paused",
      "outputs": [
        {
          "internalType": "bool",
          "name": "",
          "type": "bool"
        }
      ],
      "stateMutability": "view",
      "type": "function"
    },
    {
      "inputs": [
        {
          "internalType": "address",
          "name": "tokenContract",
          "type": "address"
        }
      ],
      "name": "removeWhitelistedBurnableContract",
      "outputs": [],
      "stateMutability": "nonpayable",
      "type": "function"
    },
    {
      "inputs": [
        {
          "internalType": "address",
          "name": "tokenContract",
          "type": "address"
        }
      ],
      "name": "removeWhitelistedContract",
      "outputs": [],
      "stateMutability": "nonpayable",
      "type": "function"
    },
    {
      "inputs": [
        {
          "internalType": "bytes32",
          "name": "role",
          "type": "bytes32"
        },
        {
          "internalType": "address",
          "name": "account",
          "type": "address"
        }
      ],
      "name": "renounceRole",
      "outputs": [],
      "stateMutability": "nonpayable",
      "type": "function"
    },
    {
      "inputs": [
        {
          "internalType": "bytes32",
          "name": "role",
          "type": "bytes32"
        },
        {
          "internalType": "address",
          "name": "account",
          "type": "address"
        }
      ],
      "name": "revokeRole",
      "outputs": [],
      "stateMutability": "nonpayable",
      "type": "function"
    },
    {
      "inputs": [
        {
          "internalType": "bytes4",
          "name": "interfaceId",
          "type": "bytes4"
        }
      ],
      "name": "supportsInterface",
      "outputs": [
        {
          "internalType": "bool",
          "name": "",
          "type": "bool"
        }
      ],
      "stateMutability": "view",
      "type": "function"
    },
    {
      "inputs": [],
      "name": "unpause",
      "outputs": [],
      "stateMutability": "nonpayable",
      "type": "function"
    },
    {
      "inputs": [
        {
          "internalType": "address",
          "name": "",
          "type": "address"
        }
      ],
      "name": "whitelistedBurnableContracts",
      "outputs": [
        {
          "internalType": "bool",
          "name": "",
          "type": "bool"
        }
      ],
      "stateMutability": "view",
      "type": "function"
    },
    {
      "inputs": [
        {
          "internalType": "address",
          "name": "",
          "type": "address"
        }
      ],
      "name": "whitelistedContracts",
      "outputs": [
        {
          "internalType": "bool",
          "name": "",
          "type": "bool"
        }
      ],
      "stateMutability": "view",
      "type": "function"
    },
    {
      "inputs": [
        {
          "internalType": "address",
          "name": "tokenContract",
          "type": "address"
        },
        {
          "internalType": "address",
          "name": "withdrawer",
          "type": "address"
        },
        {
          "internalType": "uint256[]",
          "name": "tokenIds",
          "type": "uint256[]"
        },
        {
          "internalType": "uint256[]",
          "name": "amounts",
          "type": "uint256[]"
        }
      ],
      "name": "withdrawERC1155",
      "outputs": [],
      "stateMutability": "nonpayable",
      "type": "function"
    }
  ],
  "transactionHash": "0x0b4e9759f056fae6cb78d50608259bbfefa3a25eddc851fc59a9ef30c05ba617",
  "args": [],
  "numDeployments": 1,
  "solcInputHash": "4da6953ee668730e59e27e2dd0e307a6",
  "bytecode": "0x608060405234801561001057600080fd5b506001805460ff19168155600255610029600033610058565b6100537f5d8e12c39142ff96d79d04d15d1ba1269e4fe57bb9d26f43523628b34ba108ec33610058565b6100f7565b6000828152602081815260408083206001600160a01b038516845290915290205460ff166100f3576000828152602081815260408083206001600160a01b03851684529091529020805460ff191660011790556100b23390565b6001600160a01b0316816001600160a01b0316837f2f8788117e7eff1d82e926ec794901d17c78024a50270940304540a733656f0d60405160405180910390a45b5050565b611a0080620001076000396000f3fe608060405234801561001057600080fd5b50600436106101735760003560e01c80634020c27e116100de578063a217fddf11610097578063d547741f11610071578063d547741f14610396578063d8cb0d66146103a9578063e02023a1146103bc578063f23a6e61146103e357600080fd5b8063a217fddf14610344578063ad6400831461034c578063bc197c811461037757600080fd5b80634020c27e146102d5578063450bf77b146102e857806346704adb1461030b5780635c975abb1461031e5780638456cb591461032957806391d148541461033157600080fd5b8063248a9ca311610130578063248a9ca3146102405780632f2ff15d1461027157806336568abe14610284578063391feebb146102975780633f4ba83a146102ba5780633ff65e8f146102c257600080fd5b806301ffc9a71461017857806303a72905146101a05780630ff24ee2146101b5578063140069d7146101c8578063150b7a02146101f65780631903cebe1461022d575b600080fd5b61018b61018636600461114f565b610402565b60405190151581526020015b60405180910390f35b6101b36101ae366004611195565b610413565b005b6101b36101c3366004611195565b61047b565b61018b6101d63660046111b0565b600660209081526000928352604080842090915290825290205460ff1681565b610214610204366004611291565b630a85bd0160e11b949350505050565b6040516001600160e01b03199091168152602001610197565b6101b361023b366004611345565b6104d8565b61026361024e3660046113c6565b60009081526020819052604090206001015490565b604051908152602001610197565b6101b361027f3660046113df565b610754565b6101b36102923660046113df565b61077f565b61018b6102a5366004611195565b60036020526000908152604090205460ff1681565b6101b36107fd565b6101b36102d036600461140b565b610814565b6101b36102e3366004611195565b610976565b61018b6102f6366004611195565b60046020526000908152604090205460ff1681565b6101b3610319366004611195565b6109d3565b60015460ff1661018b565b6101b3610a33565b61018b61033f3660046113df565b610a47565b610263600081565b61026361035a3660046111b0565b600560209081526000928352604080842090915290825290205481565b6102146103853660046114de565b63bc197c8160e01b95945050505050565b6101b36103a43660046113df565b610a70565b6101b36103b7366004611588565b610a96565b6102637f5d8e12c39142ff96d79d04d15d1ba1269e4fe57bb9d26f43523628b34ba108ec81565b6102146103f1366004611619565b63f23a6e6160e01b95945050505050565b600061040d82610d1c565b92915050565b600061041f8133610d41565b6001600160a01b038216600081815260046020908152604091829020805460ff1916600117905590519182527f1458213685e4372cd5aadbda4e8eb6a98be58be71fd476d8895e2da92566e14991015b60405180910390a15050565b60006104878133610d41565b6001600160a01b038216600081815260036020908152604091829020805460ff1916905590519182527fbf4ebb78df053fc7d1820e52893293ea77b46e98bdb1707c4fec4e9ed6661cc1910161046f565b6001600160a01b038516600090815260036020526040902054859060ff1661051b5760405162461bcd60e51b81526004016105129061167e565b60405180910390fd5b60028054141561053d5760405162461bcd60e51b8152600401610512906116bf565b6002805560015460ff16156105645760405162461bcd60e51b8152600401610512906116f6565b8382146105c95760405162461bcd60e51b815260206004820152602d60248201527f746f6b656e496473206c656e67746820646f6573206e6f74206d61746368206160448201526c0dadeeadce8e640d8cadccee8d609b1b6064820152608401610512565b604051631759616b60e11b81526001600160a01b03871690632eb2c2d6906105ff90339030908a908a908a908a90600401611756565b600060405180830381600087803b15801561061957600080fd5b505af115801561062d573d6000803e3d6000fd5b5050505060005b848110156107055783838281811061064e5761064e6117c2565b9050602002013560056000896001600160a01b03166001600160a01b03168152602001908152602001600020600088888581811061068e5761068e6117c2565b905060200201358152602001908152602001600020546106ae91906117ee565b6001600160a01b0388166000908152600560205260408120908888858181106106d9576106d96117c2565b9050602002013581526020019081526020016000208190555080806106fd90611806565b915050610634565b507ffabdcd61126603f10488ba795e93324bf59e0774af55c980ba65e2ced898d7e833878787878760405161073f96959493929190611821565b60405180910390a15050600160025550505050565b6000828152602081905260409020600101546107708133610d41565b61077a8383610da5565b505050565b6001600160a01b03811633146107ef5760405162461bcd60e51b815260206004820152602f60248201527f416363657373436f6e74726f6c3a2063616e206f6e6c792072656e6f756e636560448201526e103937b632b9903337b91039b2b63360891b6064820152608401610512565b6107f98282610e29565b5050565b60006108098133610d41565b610811610e8e565b50565b6001600160a01b038316600090815260046020526040902054839060ff1661084e5760405162461bcd60e51b81526004016105129061167e565b6002805414156108705760405162461bcd60e51b8152600401610512906116bf565b6002805560015460ff16156108975760405162461bcd60e51b8152600401610512906116f6565b60005b8281101561092d57846001600160a01b03166342966c688585848181106108c3576108c36117c2565b905060200201356040518263ffffffff1660e01b81526004016108e891815260200190565b600060405180830381600087803b15801561090257600080fd5b505af1158015610916573d6000803e3d6000fd5b50505050808061092590611806565b91505061089a565b507f6a0d8d37d244d4de822392609592091835f073b5f7e425c3102a20f048e64d7a33858585604051610963949392919061186e565b60405180910390a1505060016002555050565b60006109828133610d41565b6001600160a01b038216600081815260046020908152604091829020805460ff1916905590519182527f8d872e011acd709bd27f4ce404a9f04f39544fa053c37d6ce358ac1ac8358ea3910161046f565b60006109df8133610d41565b6001600160a01b038216600081815260036020908152604091829020805460ff1916600117905590519182527f56135cb92f507d24c4d85542876eb1dabb1db58e6f7ef6cbd0193d57f2428188910161046f565b6000610a3f8133610d41565b610811610f21565b6000918252602082815260408084206001600160a01b0393909316845291905290205460ff1690565b600082815260208190526040902060010154610a8c8133610d41565b61077a8383610e29565b600280541415610ab85760405162461bcd60e51b8152600401610512906116bf565b6002805560015460ff1615610adf5760405162461bcd60e51b8152600401610512906116f6565b7f5d8e12c39142ff96d79d04d15d1ba1269e4fe57bb9d26f43523628b34ba108ec610b0a8133610d41565b60005b84811015610bd357838382818110610b2757610b276117c2565b90506020020135600560008a6001600160a01b03166001600160a01b031681526020019081526020016000206000888885818110610b6757610b676117c2565b905060200201358152602001908152602001600020541015610bc15760405162461bcd60e51b8152602060048201526013602482015272151bdad95b881a5cc81b9bdd081b1bd8dad959606a1b6044820152606401610512565b80610bcb81611806565b915050610b0d565b50604051631759616b60e11b81526001600160a01b03881690632eb2c2d690610c0a90309033908a908a908a908a90600401611756565b600060405180830381600087803b158015610c2457600080fd5b505af1158015610c38573d6000803e3d6000fd5b5050505060005b84811015610ccc57838382818110610c5957610c596117c2565b90506020020135600560008a6001600160a01b03166001600160a01b031681526020019081526020016000206000888885818110610c9957610c996117c2565b90506020020135815260200190815260200160002054610cb991906118a5565b5080610cc481611806565b915050610c3f565b507f6832a963e4ce0fdb5b8a88923d2cbb595121250663714b42ada84d8230e4a1d6868887878787604051610d0696959493929190611821565b60405180910390a1505060016002555050505050565b60006001600160e01b03198216630271189760e51b148061040d575061040d82610f77565b610d4b8282610a47565b6107f957610d63816001600160a01b03166014610fac565b610d6e836020610fac565b604051602001610d7f9291906118ec565b60408051601f198184030181529082905262461bcd60e51b825261051291600401611961565b610daf8282610a47565b6107f9576000828152602081815260408083206001600160a01b03851684529091529020805460ff19166001179055610de53390565b6001600160a01b0316816001600160a01b0316837f2f8788117e7eff1d82e926ec794901d17c78024a50270940304540a733656f0d60405160405180910390a45050565b610e338282610a47565b156107f9576000828152602081815260408083206001600160a01b0385168085529252808320805460ff1916905551339285917ff6391f5c32d9c69d2a47ea670b442974b53935d1edc7fd64eb21e047a839171b9190a45050565b60015460ff16610ed75760405162461bcd60e51b815260206004820152601460248201527314185d5cd8589b194e881b9bdd081c185d5cd95960621b6044820152606401610512565b6001805460ff191690557f5db9ee0a495bf2e6ff9c91a7834c1ba4fdd244a5e8aa4e537bd38aeae4b073aa335b6040516001600160a01b03909116815260200160405180910390a1565b60015460ff1615610f445760405162461bcd60e51b8152600401610512906116f6565b6001805460ff1916811790557f62e78cea01bee320cd4e420270b5ea74000d11b0c9f74754ebdbfc544b05a25833610f04565b60006001600160e01b03198216637965db0b60e01b148061040d57506301ffc9a760e01b6001600160e01b031983161461040d565b60606000610fbb836002611994565b610fc69060026117ee565b67ffffffffffffffff811115610fde57610fde6111da565b6040519080825280601f01601f191660200182016040528015611008576020820181803683370190505b509050600360fc1b81600081518110611023576110236117c2565b60200101906001600160f81b031916908160001a905350600f60fb1b81600181518110611052576110526117c2565b60200101906001600160f81b031916908160001a9053506000611076846002611994565b6110819060016117ee565b90505b60018111156110f9576f181899199a1a9b1b9c1cb0b131b232b360811b85600f16601081106110b5576110b56117c2565b1a60f81b8282815181106110cb576110cb6117c2565b60200101906001600160f81b031916908160001a90535060049490941c936110f2816119b3565b9050611084565b5083156111485760405162461bcd60e51b815260206004820181905260248201527f537472696e67733a20686578206c656e67746820696e73756666696369656e746044820152606401610512565b9392505050565b60006020828403121561116157600080fd5b81356001600160e01b03198116811461114857600080fd5b80356001600160a01b038116811461119057600080fd5b919050565b6000602082840312156111a757600080fd5b61114882611179565b600080604083850312156111c357600080fd5b6111cc83611179565b946020939093013593505050565b634e487b7160e01b600052604160045260246000fd5b604051601f8201601f1916810167ffffffffffffffff81118282101715611219576112196111da565b604052919050565b600082601f83011261123257600080fd5b813567ffffffffffffffff81111561124c5761124c6111da565b61125f601f8201601f19166020016111f0565b81815284602083860101111561127457600080fd5b816020850160208301376000918101602001919091529392505050565b600080600080608085870312156112a757600080fd5b6112b085611179565b93506112be60208601611179565b925060408501359150606085013567ffffffffffffffff8111156112e157600080fd5b6112ed87828801611221565b91505092959194509250565b60008083601f84011261130b57600080fd5b50813567ffffffffffffffff81111561132357600080fd5b6020830191508360208260051b850101111561133e57600080fd5b9250929050565b60008060008060006060868803121561135d57600080fd5b61136686611179565b9450602086013567ffffffffffffffff8082111561138357600080fd5b61138f89838a016112f9565b909650945060408801359150808211156113a857600080fd5b506113b5888289016112f9565b969995985093965092949392505050565b6000602082840312156113d857600080fd5b5035919050565b600080604083850312156113f257600080fd5b8235915061140260208401611179565b90509250929050565b60008060006040848603121561142057600080fd5b61142984611179565b9250602084013567ffffffffffffffff81111561144557600080fd5b611451868287016112f9565b9497909650939450505050565b600082601f83011261146f57600080fd5b8135602067ffffffffffffffff82111561148b5761148b6111da565b8160051b61149a8282016111f0565b92835284810182019282810190878511156114b457600080fd5b83870192505b848310156114d3578235825291830191908301906114ba565b979650505050505050565b600080600080600060a086880312156114f657600080fd5b6114ff86611179565b945061150d60208701611179565b9350604086013567ffffffffffffffff8082111561152a57600080fd5b61153689838a0161145e565b9450606088013591508082111561154c57600080fd5b61155889838a0161145e565b9350608088013591508082111561156e57600080fd5b5061157b88828901611221565b9150509295509295909350565b600080600080600080608087890312156115a157600080fd5b6115aa87611179565b95506115b860208801611179565b9450604087013567ffffffffffffffff808211156115d557600080fd5b6115e18a838b016112f9565b909650945060608901359150808211156115fa57600080fd5b5061160789828a016112f9565b979a9699509497509295939492505050565b600080600080600060a0868803121561163157600080fd5b61163a86611179565b945061164860208701611179565b93506040860135925060608601359150608086013567ffffffffffffffff81111561167257600080fd5b61157b88828901611221565b60208082526021908201527f546f6b656e20636f6e7472616374206973206e6f742077686974656c697374656040820152601960fa1b606082015260800190565b6020808252601f908201527f5265656e7472616e637947756172643a207265656e7472616e742063616c6c00604082015260600190565b60208082526010908201526f14185d5cd8589b194e881c185d5cd95960821b604082015260600190565b81835260006001600160fb1b0383111561173957600080fd5b8260051b8083602087013760009401602001938452509192915050565b6001600160a01b0387811682528616602082015260a0604082018190526000906117839083018688611720565b8281036060840152611796818587611720565b838103608090940193909352505060048152630307830360e41b60208201526040019695505050505050565b634e487b7160e01b600052603260045260246000fd5b634e487b7160e01b600052601160045260246000fd5b60008219821115611801576118016117d8565b500190565b600060001982141561181a5761181a6117d8565b5060010190565b6001600160a01b0387811682528616602082015260806040820181905260009061184e9083018688611720565b8281036060840152611861818587611720565b9998505050505050505050565b6001600160a01b0385811682528416602082015260606040820181905260009061189b9083018486611720565b9695505050505050565b6000828210156118b7576118b76117d8565b500390565b60005b838110156118d75781810151838201526020016118bf565b838111156118e6576000848401525b50505050565b7f416363657373436f6e74726f6c3a206163636f756e74200000000000000000008152600083516119248160178501602088016118bc565b7001034b99036b4b9b9b4b733903937b6329607d1b60179184019182015283516119558160288401602088016118bc565b01602801949350505050565b60208152600082518060208401526119808160408501602087016118bc565b601f01601f19169190910160400192915050565b60008160001904831182151516156119ae576119ae6117d8565b500290565b6000816119c2576119c26117d8565b50600019019056fea264697066735822122048777ecf9c6401de7fdabc139b4021681d437ab66c19155b0841d711be655ecf64736f6c63430008090033",
  "devdoc": {
    "kind": "dev",
    "methods": {
      "getRoleAdmin(bytes32)": {
        "details": "Returns the admin role that controls `role`. See {grantRole} and {revokeRole}. To change a role's admin, use {_setRoleAdmin}."
      },
      "grantRole(bytes32,address)": {
        "details": "Grants `role` to `account`. If `account` had not been already granted `role`, emits a {RoleGranted} event. Requirements: - the caller must have ``role``'s admin role."
      },
      "hasRole(bytes32,address)": {
        "details": "Returns `true` if `account` has been granted `role`."
      },
      "onERC721Received(address,address,uint256,bytes)": {
        "details": "See {IERC721Receiver-onERC721Received}. Always returns `IERC721Receiver.onERC721Received.selector`."
      },
      "paused()": {
        "details": "Returns true if the contract is paused, and false otherwise."
      },
      "renounceRole(bytes32,address)": {
        "details": "Revokes `role` from the calling account. Roles are often managed via {grantRole} and {revokeRole}: this function's purpose is to provide a mechanism for accounts to lose their privileges if they are compromised (such as when a trusted device is misplaced). If the calling account had been revoked `role`, emits a {RoleRevoked} event. Requirements: - the caller must be `account`."
      },
      "revokeRole(bytes32,address)": {
        "details": "Revokes `role` from `account`. If `account` had been granted `role`, emits a {RoleRevoked} event. Requirements: - the caller must have ``role``'s admin role."
      }
    },
    "version": 1
  },
  "userdoc": {
    "kind": "user",
    "methods": {},
    "version": 1
  },
  "storageLayout": {
    "storage": [
      {
        "astId": 70,
        "contract": "contracts/LockContract.sol:LockContract",
        "label": "_roles",
        "offset": 0,
        "slot": "0",
        "type": "t_mapping(t_bytes32,t_struct(RoleData)65_storage)"
      },
      {
        "astId": 550,
        "contract": "contracts/LockContract.sol:LockContract",
        "label": "_paused",
        "offset": 0,
        "slot": "1",
        "type": "t_bool"
      },
      {
        "astId": 635,
        "contract": "contracts/LockContract.sol:LockContract",
        "label": "_status",
        "offset": 0,
        "slot": "2",
        "type": "t_uint256"
      },
      {
        "astId": 11187,
        "contract": "contracts/LockContract.sol:LockContract",
        "label": "whitelistedContracts",
        "offset": 0,
        "slot": "3",
        "type": "t_mapping(t_address,t_bool)"
      },
      {
        "astId": 11191,
        "contract": "contracts/LockContract.sol:LockContract",
        "label": "whitelistedBurnableContracts",
        "offset": 0,
        "slot": "4",
        "type": "t_mapping(t_address,t_bool)"
      },
      {
        "astId": 11197,
        "contract": "contracts/LockContract.sol:LockContract",
        "label": "lockedERC1155Tokens",
        "offset": 0,
        "slot": "5",
        "type": "t_mapping(t_address,t_mapping(t_uint256,t_uint256))"
      },
      {
        "astId": 11203,
        "contract": "contracts/LockContract.sol:LockContract",
        "label": "lockedERC721Tokens",
        "offset": 0,
        "slot": "6",
        "type": "t_mapping(t_address,t_mapping(t_uint256,t_bool))"
      }
    ],
    "types": {
      "t_address": {
        "encoding": "inplace",
        "label": "address",
        "numberOfBytes": "20"
      },
      "t_bool": {
        "encoding": "inplace",
        "label": "bool",
        "numberOfBytes": "1"
      },
      "t_bytes32": {
        "encoding": "inplace",
        "label": "bytes32",
        "numberOfBytes": "32"
      },
      "t_mapping(t_address,t_bool)": {
        "encoding": "mapping",
        "key": "t_address",
        "label": "mapping(address => bool)",
        "numberOfBytes": "32",
        "value": "t_bool"
      },
      "t_mapping(t_address,t_mapping(t_uint256,t_bool))": {
        "encoding": "mapping",
        "key": "t_address",
        "label": "mapping(address => mapping(uint256 => bool))",
        "numberOfBytes": "32",
        "value": "t_mapping(t_uint256,t_bool)"
      },
      "t_mapping(t_address,t_mapping(t_uint256,t_uint256))": {
        "encoding": "mapping",
        "key": "t_address",
        "label": "mapping(address => mapping(uint256 => uint256))",
        "numberOfBytes": "32",
        "value": "t_mapping(t_uint256,t_uint256)"
      },
      "t_mapping(t_bytes32,t_struct(RoleData)65_storage)": {
        "encoding": "mapping",
        "key": "t_bytes32",
        "label": "mapping(bytes32 => struct AccessControl.RoleData)",
        "numberOfBytes": "32",
        "value": "t_struct(RoleData)65_storage"
      },
      "t_mapping(t_uint256,t_bool)": {
        "encoding": "mapping",
        "key": "t_uint256",
        "label": "mapping(uint256 => bool)",
        "numberOfBytes": "32",
        "value": "t_bool"
      },
      "t_mapping(t_uint256,t_uint256)": {
        "encoding": "mapping",
        "key": "t_uint256",
        "label": "mapping(uint256 => uint256)",
        "numberOfBytes": "32",
        "value": "t_uint256"
      },
      "t_struct(RoleData)65_storage": {
        "encoding": "inplace",
        "label": "struct AccessControl.RoleData",
        "members": [
          {
            "astId": 62,
            "contract": "contracts/LockContract.sol:LockContract",
            "label": "members",
            "offset": 0,
            "slot": "0",
            "type": "t_mapping(t_address,t_bool)"
          },
          {
            "astId": 64,
            "contract": "contracts/LockContract.sol:LockContract",
            "label": "adminRole",
            "offset": 0,
            "slot": "1",
            "type": "t_bytes32"
          }
        ],
        "numberOfBytes": "64"
      },
      "t_uint256": {
        "encoding": "inplace",
        "label": "uint256",
        "numberOfBytes": "32"
      }
    }
  }
}