{
  "address": "0x3144823Fb626E38fD682aB557728761fE3DA23Ec",
  "abi": [
    {
      "inputs": [
        {
          "internalType": "contract IERC721",
          "name": "erc721Address",
          "type": "address"
        }
      ],
      "stateMutability": "nonpayable",
      "type": "constructor"
    },
    {
      "inputs": [],
      "name": "InvalidAmount",
      "type": "error"
    },
    {
      "inputs": [],
      "name": "InvalidParam",
      "type": "error"
    },
    {
      "inputs": [],
      "name": "NoZeroAddress",
      "type": "error"
    },
    {
      "inputs": [],
      "name": "NoZeroPrice",
      "type": "error"
    },
    {
      "inputs": [],
      "name": "NotActived",
      "type": "error"
    },
    {
      "inputs": [],
      "name": "NotOwner",
      "type": "error"
    },
    {
      "inputs": [],
      "name": "NotWhitelisted",
      "type": "error"
    },
    {
      "anonymous": false,
      "inputs": [
        {
          "indexed": false,
          "internalType": "uint256",
          "name": "fee1",
          "type": "uint256"
        },
        {
          "indexed": false,
          "internalType": "address",
          "name": "treasury1",
          "type": "address"
        },
        {
          "indexed": false,
          "internalType": "uint256",
          "name": "fee2",
          "type": "uint256"
        },
        {
          "indexed": false,
          "internalType": "address",
          "name": "treasury2",
          "type": "address"
        },
        {
          "indexed": false,
          "internalType": "address",
          "name": "changedBy",
          "type": "address"
        }
      ],
      "name": "FeesChanged",
      "type": "event"
    },
    {
      "anonymous": false,
      "inputs": [
        {
          "indexed": false,
          "internalType": "uint256",
          "name": "listingId",
          "type": "uint256"
        },
        {
          "indexed": false,
          "internalType": "uint256",
          "name": "tokenId",
          "type": "uint256"
        },
        {
          "indexed": false,
          "internalType": "address",
          "name": "seller",
          "type": "address"
        }
      ],
      "name": "ItemDelisted",
      "type": "event"
    },
    {
      "anonymous": false,
      "inputs": [
        {
          "indexed": false,
          "internalType": "uint256",
          "name": "listingId",
          "type": "uint256"
        },
        {
          "indexed": false,
          "internalType": "uint256",
          "name": "tokenId",
          "type": "uint256"
        },
        {
          "indexed": false,
          "internalType": "address",
          "name": "seller",
          "type": "address"
        },
        {
          "indexed": false,
          "internalType": "uint256",
          "name": "price",
          "type": "uint256"
        },
        {
          "indexed": false,
          "internalType": "address",
          "name": "payTokenAddress",
          "type": "address"
        }
      ],
      "name": "ItemListed",
      "type": "event"
    },
    {
      "anonymous": false,
      "inputs": [
        {
          "indexed": false,
          "internalType": "uint256",
          "name": "listingId",
          "type": "uint256"
        },
        {
          "indexed": false,
          "internalType": "uint256",
          "name": "tokenId",
          "type": "uint256"
        },
        {
          "indexed": false,
          "internalType": "address",
          "name": "seller",
          "type": "address"
        },
        {
          "indexed": false,
          "internalType": "address",
          "name": "buyer",
          "type": "address"
        },
        {
          "indexed": false,
          "internalType": "uint256",
          "name": "price",
          "type": "uint256"
        },
        {
          "indexed": false,
          "internalType": "uint256",
          "name": "fee1",
          "type": "uint256"
        },
        {
          "indexed": false,
          "internalType": "uint256",
          "name": "fee2",
          "type": "uint256"
        }
      ],
      "name": "ItemSold",
      "type": "event"
    },
    {
      "anonymous": false,
      "inputs": [
        {
          "indexed": true,
          "internalType": "address",
          "name": "previousOwner",
          "type": "address"
        },
        {
          "indexed": true,
          "internalType": "address",
          "name": "newOwner",
          "type": "address"
        }
      ],
      "name": "OwnershipTransferred",
      "type": "event"
    },
    {
      "anonymous": false,
      "inputs": [
        {
          "indexed": false,
          "internalType": "address",
          "name": "account",
          "type": "address"
        }
      ],
      "name": "Paused",
      "type": "event"
    },
    {
      "anonymous": false,
      "inputs": [
        {
          "indexed": false,
          "internalType": "address",
          "name": "account",
          "type": "address"
        }
      ],
      "name": "Unpaused",
      "type": "event"
    },
    {
      "anonymous": false,
      "inputs": [
        {
          "indexed": false,
          "internalType": "address[]",
          "name": "whitelists",
          "type": "address[]"
        }
      ],
      "name": "WhitelistAdded",
      "type": "event"
    },
    {
      "anonymous": false,
      "inputs": [
        {
          "indexed": false,
          "internalType": "address[]",
          "name": "whitelists",
          "type": "address[]"
        }
      ],
      "name": "WhitelistRemoved",
      "type": "event"
    },
    {
      "inputs": [],
      "name": "DECIMAL_FACTOR",
      "outputs": [
        {
          "internalType": "uint256",
          "name": "",
          "type": "uint256"
        }
      ],
      "stateMutability": "view",
      "type": "function"
    },
    {
      "inputs": [],
      "name": "activeListingCount",
      "outputs": [
        {
          "internalType": "uint256",
          "name": "",
          "type": "uint256"
        }
      ],
      "stateMutability": "view",
      "type": "function"
    },
    {
      "inputs": [
        {
          "internalType": "uint256",
          "name": "tokenId",
          "type": "uint256"
        },
        {
          "internalType": "uint256",
          "name": "price",
          "type": "uint256"
        },
        {
          "internalType": "contract IERC20",
          "name": "payTokenAddress",
          "type": "address"
        }
      ],
      "name": "addListing",
      "outputs": [],
      "stateMutability": "nonpayable",
      "type": "function"
    },
    {
      "inputs": [
        {
          "internalType": "uint256",
          "name": "listingId",
          "type": "uint256"
        }
      ],
      "name": "buy",
      "outputs": [],
      "stateMutability": "payable",
      "type": "function"
    },
    {
      "inputs": [],
      "name": "listingCount",
      "outputs": [
        {
          "internalType": "uint256",
          "name": "",
          "type": "uint256"
        }
      ],
      "stateMutability": "view",
      "type": "function"
    },
    {
      "inputs": [
        {
          "internalType": "uint256",
          "name": "",
          "type": "uint256"
        }
      ],
      "name": "listings",
      "outputs": [
        {
          "internalType": "address",
          "name": "owner",
          "type": "address"
        },
        {
          "internalType": "bool",
          "name": "isActive",
          "type": "bool"
        },
        {
          "internalType": "uint256",
          "name": "tokenId",
          "type": "uint256"
        },
        {
          "internalType": "uint256",
          "name": "price",
          "type": "uint256"
        },
        {
          "internalType": "contract IERC20",
          "name": "tokenAddress",
          "type": "address"
        }
      ],
      "stateMutability": "view",
      "type": "function"
    },
    {
      "inputs": [],
      "name": "owner",
      "outputs": [
        {
          "internalType": "address",
          "name": "",
          "type": "address"
        }
      ],
      "stateMutability": "view",
      "type": "function"
    },
    {
      "inputs": [
        {
          "internalType": "bool",
          "name": "stop",
          "type": "bool"
        }
      ],
      "name": "pause",
      "outputs": [],
      "stateMutability": "nonpayable",
      "type": "function"
    },
    {
      "inputs": [],
      "name": "paused",
      "outputs": [
        {
          "internalType": "bool",
          "name": "",
          "type": "bool"
        }
      ],
      "stateMutability": "view",
      "type": "function"
    },
    {
      "inputs": [
        {
          "internalType": "uint256",
          "name": "listingId",
          "type": "uint256"
        }
      ],
      "name": "removeListing",
      "outputs": [],
      "stateMutability": "nonpayable",
      "type": "function"
    },
    {
      "inputs": [
        {
          "internalType": "address[]",
          "name": "_whitelist",
          "type": "address[]"
        }
      ],
      "name": "removeWhitelistTokens",
      "outputs": [],
      "stateMutability": "nonpayable",
      "type": "function"
    },
    {
      "inputs": [],
      "name": "renounceOwnership",
      "outputs": [],
      "stateMutability": "nonpayable",
      "type": "function"
    },
    {
      "inputs": [
        {
          "internalType": "uint256",
          "name": "_fee1",
          "type": "uint256"
        },
        {
          "internalType": "address",
          "name": "_treasury1",
          "type": "address"
        },
        {
          "internalType": "uint256",
          "name": "_fee2",
          "type": "uint256"
        },
        {
          "internalType": "address",
          "name": "_treasury2",
          "type": "address"
        }
      ],
      "name": "setFee",
      "outputs": [],
      "stateMutability": "nonpayable",
      "type": "function"
    },
    {
      "inputs": [
        {
          "internalType": "address[]",
          "name": "_whitelist",
          "type": "address[]"
        }
      ],
      "name": "setWhitelistTokens",
      "outputs": [],
      "stateMutability": "nonpayable",
      "type": "function"
    },
    {
      "inputs": [
        {
          "internalType": "address",
          "name": "newOwner",
          "type": "address"
        }
      ],
      "name": "transferOwnership",
      "outputs": [],
      "stateMutability": "nonpayable",
      "type": "function"
    },
    {
      "inputs": [
        {
          "internalType": "address",
          "name": "",
          "type": "address"
        }
      ],
      "name": "whitelistedTokens",
      "outputs": [
        {
          "internalType": "bool",
          "name": "",
          "type": "bool"
        }
      ],
      "stateMutability": "view",
      "type": "function"
    }
  ],
  "transactionHash": "0xea344866f20bc5204f75d511afe4d28eec16a0335a8f8c691a185304d55a324f",
  "args": [
    "0x6B41b41EFC322c7c2Adb9Ac692b7F75f32F562F8"
  ],
  "numDeployments": 1,
  "solcInputHash": "b7caf7116d2ec06d392c187715787bdb",
  "bytecode": "0x608060405234801561001057600080fd5b50604051620018fa380380620018fa833981016040819052610031916100ea565b600160005561003f33610098565b6001805460ff60a01b191690556001600160a01b0381166100735760405163ddbadd5f60e01b815260040160405180910390fd5b600a80546001600160a01b0319166001600160a01b039290921691909117905561011a565b600180546001600160a01b038381166001600160a01b0319831681179093556040519116919082907f8be0079c531659141344cd1fd0a4f28419497f9722a3daafe3b4186f6b6457e090600090a35050565b6000602082840312156100fc57600080fd5b81516001600160a01b038116811461011357600080fd5b9392505050565b6117d0806200012a6000396000f3fe6080604052600436106100f35760003560e01c80638da5cb5b1161008a578063d96a094a11610059578063d96a094a14610277578063daf9c2101461028a578063de74e57b146102ba578063f2fde38b1461034657600080fd5b80638da5cb5b146101f9578063a9b07c2614610221578063b25706f314610237578063cf49e50a1461025757600080fd5b80634681a7c6116100c65780634681a7c614610183578063479ad4c3146101995780635c975abb146101b9578063715018a6146101e457600080fd5b806302329a29146100f857806326c0eb171461011a578063278b40771461013a57806333fdbbe51461015a575b600080fd5b34801561010457600080fd5b50610118610113366004611442565b610366565b005b34801561012657600080fd5b50610118610135366004611474565b610387565b34801561014657600080fd5b506101186101553660046114ad565b6105ad565b34801561016657600080fd5b5061017061271081565b6040519081526020015b60405180910390f35b34801561018f57600080fd5b5061017060035481565b3480156101a557600080fd5b506101186101b43660046114f7565b6106d0565b3480156101c557600080fd5b50600154600160a01b900460ff165b604051901515815260200161017a565b3480156101f057600080fd5b5061011861082c565b34801561020557600080fd5b506001546040516001600160a01b03909116815260200161017a565b34801561022d57600080fd5b5061017060025481565b34801561024357600080fd5b50610118610252366004611510565b610840565b34801561026357600080fd5b50610118610272366004611510565b610949565b6101186102853660046114f7565b610a46565b34801561029657600080fd5b506101d46102a5366004611585565b60086020526000908152604090205460ff1681565b3480156102c657600080fd5b506103126102d53660046114f7565b60096020526000908152604090208054600182015460028301546003909301546001600160a01b0380841694600160a01b90940460ff1693911685565b604080516001600160a01b03968716815294151560208601528401929092526060830152909116608082015260a00161017a565b34801561035257600080fd5b50610118610361366004611585565b610f21565b61036e610f97565b801561037f5761037c610ff1565b50565b61037c611051565b600260005414156103b35760405162461bcd60e51b81526004016103aa906115a2565b60405180910390fd5b60026000556103c061108d565b816103de57604051636aa5f95d60e11b815260040160405180910390fd5b6001600160a01b03811615610426576001600160a01b03811660009081526008602052604090205460ff1661042657604051630b094f2760e31b815260040160405180910390fd5b600280546040805160a081018252338152600160208083018281528385018a8152606085018a81526001600160a01b038a81166080880190815260008a81526009909652979094209551865493511515600160a01b026001600160a81b03199094169085161792909217855551848401555183870155925160039092018054929093166001600160a01b031990921691909117909155915490916104ca91906115ef565b6002556003546104db9060016115ef565b600355600a546001600160a01b03166323b872dd3330876040518463ffffffff1660e01b815260040161051093929190611607565b600060405180830381600087803b15801561052a57600080fd5b505af115801561053e573d6000803e3d6000fd5b505050507fdf1244428a7b48d2acd17fb49cd78f241dcef1479d83339825675596eddf98be818561056c3390565b6040805193845260208401929092526001600160a01b03908116838301526060830187905285166080830152519081900360a00190a1505060016000555050565b6105b5610f97565b6127106105c283866115ef565b106105e057604051633494a40d60e21b815260040160405180910390fd5b6001600160a01b0383166106075760405163ddbadd5f60e01b815260040160405180910390fd5b6001600160a01b03811661062e5760405163ddbadd5f60e01b815260040160405180910390fd5b6004849055600580546001600160a01b038086166001600160a01b031992831681179093556006859055600780549185169190921681179091557f411e041470d4dfedf5a73fbf6f67504194747ee8253ff0c2761da0c9e4e53b5791869185906106953390565b604080519586526001600160a01b0394851660208701528501929092528216606084015216608082015260a00160405180910390a150505050565b600260005414156106f35760405162461bcd60e51b81526004016103aa906115a2565b6002600090815581815260096020526040902080546001600160a01b03163314610730576040516330cd747160e01b815260040160405180910390fd5b8054600160a01b900460ff166107595760405163631843a760e11b815260040160405180910390fd5b805460ff60a01b19168155600a5460018201546040516323b872dd60e01b81526001600160a01b03909216916323b872dd9161079b9130913391600401611607565b600060405180830381600087803b1580156107b557600080fd5b505af11580156107c9573d6000803e3d6000fd5b5050505060016003546107dc919061162b565b60035560018101546040805184815260208101929092523382820152517f30411792a34feb0f32a6be64e1996fa803c4505bbf6314f391f3d63c24ae52d59181900360600190a150506001600055565b610834610f97565b61083e60006110da565b565b610848610f97565b60005b8181101561090b57600083838381811061086757610867611642565b905060200201602081019061087c9190611585565b6001600160a01b031614156108a45760405163ddbadd5f60e01b815260040160405180910390fd5b6000600860008585858181106108bc576108bc611642565b90506020020160208101906108d19190611585565b6001600160a01b031681526020810191909152604001600020805460ff19169115159190911790558061090381611658565b91505061084b565b507f1d474f57a5c483b47a8bf6006e39086f96dd040a00cb348e22f80a4ca2c6f222828260405161093d929190611673565b60405180910390a15050565b610951610f97565b60005b81811015610a1457600083838381811061097057610970611642565b90506020020160208101906109859190611585565b6001600160a01b031614156109ad5760405163ddbadd5f60e01b815260040160405180910390fd5b6001600860008585858181106109c5576109c5611642565b90506020020160208101906109da9190611585565b6001600160a01b031681526020810191909152604001600020805460ff191691151591909117905580610a0c81611658565b915050610954565b507ff74f148a4f930a0f67a2c33ba932a14e3e91b4e6468f21e545932fd825111538828260405161093d929190611673565b60026000541415610a695760405162461bcd60e51b81526004016103aa906115a2565b6002600055610a7661108d565b600081815260096020526040902054600160a01b900460ff16610aac5760405163631843a760e11b815260040160405180910390fd5b6000818152600960205260408120805460ff60a01b1916815560038101546002909101546004546001600160a01b0390921692909161271090610af09084906116c1565b610afa91906116e0565b9050600061271083600654610b0f91906116c1565b610b1991906116e0565b90506001600160a01b038416610d6f57823414610b495760405163162908e360e11b815260040160405180910390fd5b8115610bfe576005546040516000916001600160a01b03169084908381818185875af1925050503d8060008114610b9c576040519150601f19603f3d011682016040523d82523d6000602084013e610ba1565b606091505b5050905080610bfc5760405162461bcd60e51b815260206004820152602160248201527f4661696c656420746f2073656e6420457468657220746f2074726561737572796044820152603160f81b60648201526084016103aa565b505b8015610cb3576007546040516000916001600160a01b03169083908381818185875af1925050503d8060008114610c51576040519150601f19603f3d011682016040523d82523d6000602084013e610c56565b606091505b5050905080610cb15760405162461bcd60e51b815260206004820152602160248201527f4661696c656420746f2073656e6420457468657220746f2074726561737572796044820152601960f91b60648201526084016103aa565b505b6000858152600960205260408120546001600160a01b031682610cd6858761162b565b610ce0919061162b565b604051600081818185875af1925050503d8060008114610d1c576040519150601f19603f3d011682016040523d82523d6000602084013e610d21565b606091505b5050905080610d695760405162461bcd60e51b81526020600482015260146024820152732330b4b632b2103a379039b2b7321022ba3432b960611b60448201526064016103aa565b50610e13565b3415610d8e5760405163162908e360e11b815260040160405180910390fd5b8115610daf57610daf336005546001600160a01b038781169291168561112c565b8015610dd057610dd0336007546001600160a01b038781169291168461112c565b610e13336000878152600960205260409020546001600160a01b031683610df7868861162b565b610e01919061162b565b6001600160a01b03881692919061112c565b600a54600086815260096020526040908190206001015490516323b872dd60e01b81526001600160a01b03909216916323b872dd91610e589130913391600401611607565b600060405180830381600087803b158015610e7257600080fd5b505af1158015610e86573d6000803e3d6000fd5b505050506001600354610e99919061162b565b600355600085815260096020908152604091829020600181015490548351898152928301919091526001600160a01b0316818301523360608201526080810185905260a0810184905260c0810183905290517fc9141a3ddac52db2f53a95c9610152ab9e2145dedee43277af213c5e2a7d39919181900360e00190a150506001600055505050565b610f29610f97565b6001600160a01b038116610f8e5760405162461bcd60e51b815260206004820152602660248201527f4f776e61626c653a206e6577206f776e657220697320746865207a65726f206160448201526564647265737360d01b60648201526084016103aa565b61037c816110da565b6001546001600160a01b0316331461083e5760405162461bcd60e51b815260206004820181905260248201527f4f776e61626c653a2063616c6c6572206973206e6f7420746865206f776e657260448201526064016103aa565b610ff961108d565b6001805460ff60a01b1916600160a01b1790557f62e78cea01bee320cd4e420270b5ea74000d11b0c9f74754ebdbfc544b05a2586110343390565b6040516001600160a01b03909116815260200160405180910390a1565b61105961118a565b6001805460ff60a01b191690557f5db9ee0a495bf2e6ff9c91a7834c1ba4fdd244a5e8aa4e537bd38aeae4b073aa33611034565b600154600160a01b900460ff161561083e5760405162461bcd60e51b815260206004820152601060248201526f14185d5cd8589b194e881c185d5cd95960821b60448201526064016103aa565b600180546001600160a01b038381166001600160a01b0319831681179093556040519116919082907f8be0079c531659141344cd1fd0a4f28419497f9722a3daafe3b4186f6b6457e090600090a35050565b611184846323b872dd60e01b85858560405160240161114d93929190611607565b60408051601f198184030181529190526020810180516001600160e01b03166001600160e01b0319909316929092179091526111da565b50505050565b600154600160a01b900460ff1661083e5760405162461bcd60e51b815260206004820152601460248201527314185d5cd8589b194e881b9bdd081c185d5cd95960621b60448201526064016103aa565b600061122f826040518060400160405280602081526020017f5361666545524332303a206c6f772d6c6576656c2063616c6c206661696c6564815250856001600160a01b03166112b19092919063ffffffff16565b8051909150156112ac578080602001905181019061124d9190611702565b6112ac5760405162461bcd60e51b815260206004820152602a60248201527f5361666545524332303a204552433230206f7065726174696f6e20646964206e6044820152691bdd081cdd58d8d9595960b21b60648201526084016103aa565b505050565b60606112c084846000856112ca565b90505b9392505050565b60608247101561132b5760405162461bcd60e51b815260206004820152602660248201527f416464726573733a20696e73756666696369656e742062616c616e636520666f6044820152651c8818d85b1b60d21b60648201526084016103aa565b6001600160a01b0385163b6113825760405162461bcd60e51b815260206004820152601d60248201527f416464726573733a2063616c6c20746f206e6f6e2d636f6e747261637400000060448201526064016103aa565b600080866001600160a01b0316858760405161139e919061174b565b60006040518083038185875af1925050503d80600081146113db576040519150601f19603f3d011682016040523d82523d6000602084013e6113e0565b606091505b50915091506113f08282866113fb565b979650505050505050565b6060831561140a5750816112c3565b82511561141a5782518084602001fd5b8160405162461bcd60e51b81526004016103aa9190611767565b801515811461037c57600080fd5b60006020828403121561145457600080fd5b81356112c381611434565b6001600160a01b038116811461037c57600080fd5b60008060006060848603121561148957600080fd5b833592506020840135915060408401356114a28161145f565b809150509250925092565b600080600080608085870312156114c357600080fd5b8435935060208501356114d58161145f565b92506040850135915060608501356114ec8161145f565b939692955090935050565b60006020828403121561150957600080fd5b5035919050565b6000806020838503121561152357600080fd5b823567ffffffffffffffff8082111561153b57600080fd5b818501915085601f83011261154f57600080fd5b81358181111561155e57600080fd5b8660208260051b850101111561157357600080fd5b60209290920196919550909350505050565b60006020828403121561159757600080fd5b81356112c38161145f565b6020808252601f908201527f5265656e7472616e637947756172643a207265656e7472616e742063616c6c00604082015260600190565b634e487b7160e01b600052601160045260246000fd5b60008219821115611602576116026115d9565b500190565b6001600160a01b039384168152919092166020820152604081019190915260600190565b60008282101561163d5761163d6115d9565b500390565b634e487b7160e01b600052603260045260246000fd5b600060001982141561166c5761166c6115d9565b5060010190565b60208082528181018390526000908460408401835b868110156116b657823561169b8161145f565b6001600160a01b031682529183019190830190600101611688565b509695505050505050565b60008160001904831182151516156116db576116db6115d9565b500290565b6000826116fd57634e487b7160e01b600052601260045260246000fd5b500490565b60006020828403121561171457600080fd5b81516112c381611434565b60005b8381101561173a578181015183820152602001611722565b838111156111845750506000910152565b6000825161175d81846020870161171f565b9190910192915050565b602081526000825180602084015261178681604085016020870161171f565b601f01601f1916919091016040019291505056fea264697066735822122052b4aa83b09aad8b452df48213cdf01bd29dc3c6bcb32d327843552e49aa4af864736f6c63430008090033",
  "devdoc": {
    "details": "Based on OpenZeppelin Contracts.",
    "kind": "dev",
    "methods": {
      "addListing(uint256,uint256,address)": {
        "details": "Creates a new entry for a Listing object and transfers the Token to the contract",
        "params": {
          "price": "Price in NFTs.",
          "tokenId": "NFT TokenId."
        }
      },
      "buy(uint256)": {
        "details": "Trabsfers both the ERC20 token (price) and the NFT.",
        "params": {
          "listingId": "NFT Listing Id."
        }
      },
      "constructor": {
        "details": "Setup the two contracts it will interact with : ERC721 and ERC20",
        "params": {
          "erc721Address": "Address of the NFT Contract."
        }
      },
      "owner()": {
        "details": "Returns the address of the current owner."
      },
      "paused()": {
        "details": "Returns true if the contract is paused, and false otherwise."
      },
      "removeListing(uint256)": {
        "details": "Marks Listing as not active object and transfers the Token back",
        "params": {
          "listingId": "NFT Listing Id."
        }
      },
      "renounceOwnership()": {
        "details": "Leaves the contract without owner. It will not be possible to call `onlyOwner` functions anymore. Can only be called by the current owner. NOTE: Renouncing ownership will leave the contract without an owner, thereby removing any functionality that is only available to the owner."
      },
      "setFee(uint256,address,uint256,address)": {
        "params": {
          "_fee1": "new Fee1.",
          "_fee2": "new Fee2.",
          "_treasury1": "New treasury1 address.",
          "_treasury2": "New treasury2 address."
        }
      },
      "transferOwnership(address)": {
        "details": "Transfers ownership of the contract to a new account (`newOwner`). Can only be called by the current owner."
      }
    },
    "title": "Blast Royale Token - $BLT",
    "version": 1
  },
  "userdoc": {
    "events": {
      "FeesChanged(uint256,address,uint256,address,address)": {
        "notice": "Event Fee changed"
      },
      "ItemDelisted(uint256,uint256,address)": {
        "notice": "Event Delisted"
      },
      "ItemListed(uint256,uint256,address,uint256,address)": {
        "notice": "Event Listed"
      },
      "ItemSold(uint256,uint256,address,address,uint256,uint256,uint256)": {
        "notice": "EventItem Sold"
      }
    },
    "kind": "user",
    "methods": {
      "addListing(uint256,uint256,address)": {
        "notice": "add a Listing to the Marketplace"
      },
      "buy(uint256)": {
        "notice": "Buys a listed NFT"
      },
      "constructor": {
        "notice": "Token constructor"
      },
      "removeListing(uint256)": {
        "notice": "Remove a Listing from the Marketplace"
      },
      "setFee(uint256,address,uint256,address)": {
        "notice": "Sets a new Fee"
      }
    },
    "version": 1
  },
  "storageLayout": {
    "storage": [
      {
        "astId": 670,
        "contract": "contracts/Marketplace.sol:Marketplace",
        "label": "_status",
        "offset": 0,
        "slot": "0",
        "type": "t_uint256"
      },
      {
        "astId": 446,
        "contract": "contracts/Marketplace.sol:Marketplace",
        "label": "_owner",
        "offset": 0,
        "slot": "1",
        "type": "t_address"
      },
      {
        "astId": 569,
        "contract": "contracts/Marketplace.sol:Marketplace",
        "label": "_paused",
        "offset": 20,
        "slot": "1",
        "type": "t_bool"
      },
      {
        "astId": 8584,
        "contract": "contracts/Marketplace.sol:Marketplace",
        "label": "listingCount",
        "offset": 0,
        "slot": "2",
        "type": "t_uint256"
      },
      {
        "astId": 8586,
        "contract": "contracts/Marketplace.sol:Marketplace",
        "label": "activeListingCount",
        "offset": 0,
        "slot": "3",
        "type": "t_uint256"
      },
      {
        "astId": 8588,
        "contract": "contracts/Marketplace.sol:Marketplace",
        "label": "fee1",
        "offset": 0,
        "slot": "4",
        "type": "t_uint256"
      },
      {
        "astId": 8590,
        "contract": "contracts/Marketplace.sol:Marketplace",
        "label": "treasury1",
        "offset": 0,
        "slot": "5",
        "type": "t_address"
      },
      {
        "astId": 8592,
        "contract": "contracts/Marketplace.sol:Marketplace",
        "label": "fee2",
        "offset": 0,
        "slot": "6",
        "type": "t_uint256"
      },
      {
        "astId": 8594,
        "contract": "contracts/Marketplace.sol:Marketplace",
        "label": "treasury2",
        "offset": 0,
        "slot": "7",
        "type": "t_address"
      },
      {
        "astId": 8598,
        "contract": "contracts/Marketplace.sol:Marketplace",
        "label": "whitelistedTokens",
        "offset": 0,
        "slot": "8",
        "type": "t_mapping(t_address,t_bool)"
      },
      {
        "astId": 8603,
        "contract": "contracts/Marketplace.sol:Marketplace",
        "label": "listings",
        "offset": 0,
        "slot": "9",
        "type": "t_mapping(t_uint256,t_struct(Listing)8568_storage)"
      },
      {
        "astId": 8606,
        "contract": "contracts/Marketplace.sol:Marketplace",
        "label": "erc721Contract",
        "offset": 0,
        "slot": "10",
        "type": "t_contract(IERC721)2769"
      }
    ],
    "types": {
      "t_address": {
        "encoding": "inplace",
        "label": "address",
        "numberOfBytes": "20"
      },
      "t_bool": {
        "encoding": "inplace",
        "label": "bool",
        "numberOfBytes": "1"
      },
      "t_contract(IERC20)1363": {
        "encoding": "inplace",
        "label": "contract IERC20",
        "numberOfBytes": "20"
      },
      "t_contract(IERC721)2769": {
        "encoding": "inplace",
        "label": "contract IERC721",
        "numberOfBytes": "20"
      },
      "t_mapping(t_address,t_bool)": {
        "encoding": "mapping",
        "key": "t_address",
        "label": "mapping(address => bool)",
        "numberOfBytes": "32",
        "value": "t_bool"
      },
      "t_mapping(t_uint256,t_struct(Listing)8568_storage)": {
        "encoding": "mapping",
        "key": "t_uint256",
        "label": "mapping(uint256 => struct Listing)",
        "numberOfBytes": "32",
        "value": "t_struct(Listing)8568_storage"
      },
      "t_struct(Listing)8568_storage": {
        "encoding": "inplace",
        "label": "struct Listing",
        "members": [
          {
            "astId": 8558,
            "contract": "contracts/Marketplace.sol:Marketplace",
            "label": "owner",
            "offset": 0,
            "slot": "0",
            "type": "t_address"
          },
          {
            "astId": 8560,
            "contract": "contracts/Marketplace.sol:Marketplace",
            "label": "isActive",
            "offset": 20,
            "slot": "0",
            "type": "t_bool"
          },
          {
            "astId": 8562,
            "contract": "contracts/Marketplace.sol:Marketplace",
            "label": "tokenId",
            "offset": 0,
            "slot": "1",
            "type": "t_uint256"
          },
          {
            "astId": 8564,
            "contract": "contracts/Marketplace.sol:Marketplace",
            "label": "price",
            "offset": 0,
            "slot": "2",
            "type": "t_uint256"
          },
          {
            "astId": 8567,
            "contract": "contracts/Marketplace.sol:Marketplace",
            "label": "tokenAddress",
            "offset": 0,
            "slot": "3",
            "type": "t_contract(IERC20)1363"
          }
        ],
        "numberOfBytes": "128"
      },
      "t_uint256": {
        "encoding": "inplace",
        "label": "uint256",
        "numberOfBytes": "32"
      }
    }
  }
}