{
  "address": "0xE1c87b5bB768EF48C8723900A0A32e7cf4EBD57f",
  "abi": [
    {
      "inputs": [
        {
          "internalType": "contract IBlastLootbox",
          "name": "lootboxAddress",
          "type": "address"
        },
        {
          "internalType": "bytes32",
          "name": "_merkleRoot",
          "type": "bytes32"
        },
        {
          "internalType": "bytes32",
          "name": "_luckyMerkleRoot",
          "type": "bytes32"
        }
      ],
      "stateMutability": "nonpayable",
      "type": "constructor"
    },
    {
      "inputs": [],
      "name": "FailedToSendEther",
      "type": "error"
    },
    {
      "inputs": [],
      "name": "InvalidMerkleProof",
      "type": "error"
    },
    {
      "inputs": [],
      "name": "NoZeroAddress",
      "type": "error"
    },
    {
      "inputs": [],
      "name": "NoZeroPrice",
      "type": "error"
    },
    {
      "inputs": [],
      "name": "NotAbleToAdd",
      "type": "error"
    },
    {
      "inputs": [],
      "name": "NotAbleToBuy",
      "type": "error"
    },
    {
      "inputs": [],
      "name": "NotActived",
      "type": "error"
    },
    {
      "inputs": [],
      "name": "NotEnough",
      "type": "error"
    },
    {
      "inputs": [],
      "name": "NotOwner",
      "type": "error"
    },
    {
      "inputs": [],
      "name": "NotWhitelisted",
      "type": "error"
    },
    {
      "inputs": [],
      "name": "ReachedMaxLimit",
      "type": "error"
    },
    {
      "anonymous": false,
      "inputs": [
        {
          "indexed": false,
          "internalType": "uint256",
          "name": "tokenId",
          "type": "uint256"
        },
        {
          "indexed": false,
          "internalType": "address",
          "name": "seller",
          "type": "address"
        }
      ],
      "name": "LootboxDelisted",
      "type": "event"
    },
    {
      "anonymous": false,
      "inputs": [
        {
          "indexed": false,
          "internalType": "uint256",
          "name": "tokenId",
          "type": "uint256"
        },
        {
          "indexed": false,
          "internalType": "address",
          "name": "seller",
          "type": "address"
        },
        {
          "indexed": false,
          "internalType": "uint256",
          "name": "price",
          "type": "uint256"
        },
        {
          "indexed": false,
          "internalType": "address",
          "name": "payTokenAddress",
          "type": "address"
        }
      ],
      "name": "LootboxListed",
      "type": "event"
    },
    {
      "anonymous": false,
      "inputs": [
        {
          "indexed": false,
          "internalType": "uint256",
          "name": "tokenId",
          "type": "uint256"
        },
        {
          "indexed": false,
          "internalType": "address",
          "name": "seller",
          "type": "address"
        },
        {
          "indexed": false,
          "internalType": "address",
          "name": "buyer",
          "type": "address"
        },
        {
          "indexed": false,
          "internalType": "uint256",
          "name": "price",
          "type": "uint256"
        },
        {
          "indexed": false,
          "internalType": "bool",
          "name": "whitelisted",
          "type": "bool"
        },
        {
          "indexed": false,
          "internalType": "bool",
          "name": "isLucky",
          "type": "bool"
        }
      ],
      "name": "LootboxSold",
      "type": "event"
    },
    {
      "anonymous": false,
      "inputs": [
        {
          "indexed": true,
          "internalType": "address",
          "name": "previousOwner",
          "type": "address"
        },
        {
          "indexed": true,
          "internalType": "address",
          "name": "newOwner",
          "type": "address"
        }
      ],
      "name": "OwnershipTransferred",
      "type": "event"
    },
    {
      "anonymous": false,
      "inputs": [
        {
          "indexed": false,
          "internalType": "address",
          "name": "account",
          "type": "address"
        }
      ],
      "name": "Paused",
      "type": "event"
    },
    {
      "anonymous": false,
      "inputs": [
        {
          "indexed": false,
          "internalType": "address",
          "name": "account",
          "type": "address"
        }
      ],
      "name": "Unpaused",
      "type": "event"
    },
    {
      "anonymous": false,
      "inputs": [
        {
          "indexed": false,
          "internalType": "address[]",
          "name": "whitelists",
          "type": "address[]"
        }
      ],
      "name": "WhitelistAdded",
      "type": "event"
    },
    {
      "anonymous": false,
      "inputs": [
        {
          "indexed": false,
          "internalType": "address[]",
          "name": "whitelists",
          "type": "address[]"
        }
      ],
      "name": "WhitelistRemoved",
      "type": "event"
    },
    {
      "inputs": [],
      "name": "activeListingCount",
      "outputs": [
        {
          "internalType": "uint256",
          "name": "",
          "type": "uint256"
        }
      ],
      "stateMutability": "view",
      "type": "function"
    },
    {
      "inputs": [
        {
          "internalType": "uint256[]",
          "name": "tokenIds",
          "type": "uint256[]"
        },
        {
          "internalType": "uint256",
          "name": "price",
          "type": "uint256"
        },
        {
          "internalType": "contract IERC20",
          "name": "payTokenAddress",
          "type": "address"
        }
      ],
      "name": "addListing",
      "outputs": [],
      "stateMutability": "nonpayable",
      "type": "function"
    },
    {
      "inputs": [
        {
          "internalType": "uint256",
          "name": "_tokenId",
          "type": "uint256"
        },
        {
          "internalType": "bytes32[]",
          "name": "_merkleProof",
          "type": "bytes32[]"
        }
      ],
      "name": "buy",
      "outputs": [],
      "stateMutability": "payable",
      "type": "function"
    },
    {
      "inputs": [
        {
          "internalType": "address",
          "name": "_address",
          "type": "address"
        },
        {
          "internalType": "uint8",
          "name": "_tokenType",
          "type": "uint8"
        }
      ],
      "name": "getOwnedCount",
      "outputs": [
        {
          "internalType": "uint256",
          "name": "",
          "type": "uint256"
        }
      ],
      "stateMutability": "view",
      "type": "function"
    },
    {
      "inputs": [
        {
          "internalType": "uint256",
          "name": "",
          "type": "uint256"
        }
      ],
      "name": "listings",
      "outputs": [
        {
          "internalType": "address",
          "name": "owner",
          "type": "address"
        },
        {
          "internalType": "bool",
          "name": "isActive",
          "type": "bool"
        },
        {
          "internalType": "uint256",
          "name": "tokenId",
          "type": "uint256"
        },
        {
          "internalType": "uint256",
          "name": "price",
          "type": "uint256"
        },
        {
          "internalType": "contract IERC20",
          "name": "tokenAddress",
          "type": "address"
        }
      ],
      "stateMutability": "view",
      "type": "function"
    },
    {
      "inputs": [],
      "name": "luckyMerkleRoot",
      "outputs": [
        {
          "internalType": "bytes32",
          "name": "",
          "type": "bytes32"
        }
      ],
      "stateMutability": "view",
      "type": "function"
    },
    {
      "inputs": [],
      "name": "merkleRoot",
      "outputs": [
        {
          "internalType": "bytes32",
          "name": "",
          "type": "bytes32"
        }
      ],
      "stateMutability": "view",
      "type": "function"
    },
    {
      "inputs": [],
      "name": "owner",
      "outputs": [
        {
          "internalType": "address",
          "name": "",
          "type": "address"
        }
      ],
      "stateMutability": "view",
      "type": "function"
    },
    {
      "inputs": [
        {
          "internalType": "bool",
          "name": "stop",
          "type": "bool"
        }
      ],
      "name": "pause",
      "outputs": [],
      "stateMutability": "nonpayable",
      "type": "function"
    },
    {
      "inputs": [],
      "name": "paused",
      "outputs": [
        {
          "internalType": "bool",
          "name": "",
          "type": "bool"
        }
      ],
      "stateMutability": "view",
      "type": "function"
    },
    {
      "inputs": [
        {
          "internalType": "uint256",
          "name": "tokenId",
          "type": "uint256"
        }
      ],
      "name": "removeListing",
      "outputs": [],
      "stateMutability": "nonpayable",
      "type": "function"
    },
    {
      "inputs": [
        {
          "internalType": "address[]",
          "name": "_whitelist",
          "type": "address[]"
        }
      ],
      "name": "removeWhitelistTokens",
      "outputs": [],
      "stateMutability": "nonpayable",
      "type": "function"
    },
    {
      "inputs": [],
      "name": "renounceOwnership",
      "outputs": [],
      "stateMutability": "nonpayable",
      "type": "function"
    },
    {
      "inputs": [
        {
          "components": [
            {
              "internalType": "uint256",
              "name": "gwbLimit",
              "type": "uint256"
            },
            {
              "internalType": "uint256",
              "name": "nbLimit",
              "type": "uint256"
            }
          ],
          "internalType": "struct PurchaseLimit",
          "name": "_limit",
          "type": "tuple"
        }
      ],
      "name": "setNotWhitelistPurchaseLimit",
      "outputs": [],
      "stateMutability": "nonpayable",
      "type": "function"
    },
    {
      "inputs": [
        {
          "components": [
            {
              "internalType": "uint256",
              "name": "gwbLimit",
              "type": "uint256"
            },
            {
              "internalType": "uint256",
              "name": "nbLimit",
              "type": "uint256"
            }
          ],
          "internalType": "struct PurchaseLimit",
          "name": "_limit",
          "type": "tuple"
        }
      ],
      "name": "setWhitelistPurchaseLimit",
      "outputs": [],
      "stateMutability": "nonpayable",
      "type": "function"
    },
    {
      "inputs": [
        {
          "internalType": "address[]",
          "name": "_whitelist",
          "type": "address[]"
        }
      ],
      "name": "setWhitelistTokens",
      "outputs": [],
      "stateMutability": "nonpayable",
      "type": "function"
    },
    {
      "inputs": [
        {
          "internalType": "address",
          "name": "newOwner",
          "type": "address"
        }
      ],
      "name": "transferOwnership",
      "outputs": [],
      "stateMutability": "nonpayable",
      "type": "function"
    },
    {
      "inputs": [
        {
          "internalType": "bytes32",
          "name": "_luckyMerkleRoot",
          "type": "bytes32"
        }
      ],
      "name": "updateLuckyMerkleRoot",
      "outputs": [],
      "stateMutability": "nonpayable",
      "type": "function"
    },
    {
      "inputs": [
        {
          "internalType": "bytes32",
          "name": "_merkleRoot",
          "type": "bytes32"
        }
      ],
      "name": "updateMerkleRoot",
      "outputs": [],
      "stateMutability": "nonpayable",
      "type": "function"
    },
    {
      "inputs": [
        {
          "internalType": "address",
          "name": "",
          "type": "address"
        }
      ],
      "name": "whitelistedTokens",
      "outputs": [
        {
          "internalType": "bool",
          "name": "",
          "type": "bool"
        }
      ],
      "stateMutability": "view",
      "type": "function"
    }
  ],
  "transactionHash": "0x2313f0fe006ca5d5082ec9c840998574ad50ff6d3a33460fe54ea30d9ee48580",
  "args": [
    "0xfABd37a5B1a83f31EAbE1BfB95Bf6bEDd1970CE2",
    "0x3078300000000000000000000000000000000000000000000000000000000000",
    "0x3078300000000000000000000000000000000000000000000000000000000000"
  ],
  "numDeployments": 1,
  "solcInputHash": "b7caf7116d2ec06d392c187715787bdb",
  "bytecode": "0x60806040523480156200001157600080fd5b5060405162001c8438038062001c84833981016040819052620000349162000135565b60016000556200004433620000e3565b6001805460ff60a01b191690556001600160a01b038316620000795760405163ddbadd5f60e01b815260040160405180910390fd5b600c80546001600160a01b0319166001600160a01b039490941693909317909255600255600355604080518082018252600080825260016020928301819052600482905560058190558351808501909452808452929091018190526006919091556007556200017a565b600180546001600160a01b038381166001600160a01b0319831681179093556040519116919082907f8be0079c531659141344cd1fd0a4f28419497f9722a3daafe3b4186f6b6457e090600090a35050565b6000806000606084860312156200014b57600080fd5b83516001600160a01b03811681146200016357600080fd5b602085015160409095015190969495509392505050565b611afa806200018a6000396000f3fe60806040526004361061011f5760003560e01c8063b25706f3116100a0578063daf9c21011610064578063daf9c210146102f6578063de74e57b14610326578063ec6b5a8a146103b2578063ee5cf8b2146103d2578063f2fde38b146103f257600080fd5b8063b25706f314610260578063b948ecb914610280578063c077db17146102a0578063cf49e50a146102b6578063cfd6fb93146102d657600080fd5b8063479ad4c3116100e7578063479ad4c3146101c55780635a19b4db146101e55780635c975abb146101f8578063715018a6146102235780638da5cb5b1461023857600080fd5b806302329a29146101245780630744bbd8146101465780632eb4a7ab146101665780634681a7c61461018f5780634783f0ef146101a5575b600080fd5b34801561013057600080fd5b5061014461013f3660046115ba565b610412565b005b34801561015257600080fd5b5061014461016136600461161e565b610433565b34801561017257600080fd5b5061017c60025481565b6040519081526020015b60405180910390f35b34801561019b57600080fd5b5061017c60085481565b3480156101b157600080fd5b506101446101c036600461166d565b610449565b3480156101d157600080fd5b506101446101e036600461166d565b610456565b6101446101f3366004611686565b6105c0565b34801561020457600080fd5b50600154600160a01b900460ff165b6040519015158152602001610186565b34801561022f57600080fd5b50610144610aa1565b34801561024457600080fd5b506001546040516001600160a01b039091168152602001610186565b34801561026c57600080fd5b5061014461027b36600461173e565b610ab5565b34801561028c57600080fd5b5061014461029b36600461166d565b610bad565b3480156102ac57600080fd5b5061017c60035481565b3480156102c257600080fd5b506101446102d136600461173e565b610bba565b3480156102e257600080fd5b506101446102f136600461161e565b610ca7565b34801561030257600080fd5b506102136103113660046117d2565b60096020526000908152604090205460ff1681565b34801561033257600080fd5b5061037e61034136600461166d565b600a6020526000908152604090208054600182015460028301546003909301546001600160a01b0380841694600160a01b90940460ff1693911685565b604080516001600160a01b03968716815294151560208601528401929092526060830152909116608082015260a001610186565b3480156103be57600080fd5b506101446103cd3660046117ff565b610cbd565b3480156103de57600080fd5b5061017c6103ed3660046118b8565b610f8f565b3480156103fe57600080fd5b5061014461040d3660046117d2565b610fbd565b61041a611033565b801561042b5761042861108d565b50565b6104286110ed565b61043b611033565b805160045560200151600555565b610451611033565b600255565b61045e611033565b6002600054141561048a5760405162461bcd60e51b8152600401610481906118f1565b60405180910390fd5b6002600055610497611129565b6000818152600a6020526040902080546001600160a01b031633146104cf576040516330cd747160e01b815260040160405180910390fd5b8054600160a01b900460ff166104f85760405163631843a760e11b815260040160405180910390fd5b805460ff60a01b19168155600c546001600160a01b03166323b872dd3033856040518463ffffffff1660e01b815260040161053593929190611928565b600060405180830381600087803b15801561054f57600080fd5b505af1158015610563573d6000803e3d6000fd5b5050505060016008546105769190611962565b60085560018101546040805191825233602083015280517f438e264f935ed95b27ce329685e71e429fb44580d4a578132274855417d0091e9281900390910190a150506001600055565b600260005414156105e35760405162461bcd60e51b8152600401610481906118f1565b60026000556105f0611129565b600c546040516376aed2e160e01b8152600481018590526000916001600160a01b0316906376aed2e19060240160206040518083038186803b15801561063557600080fd5b505afa158015610649573d6000803e3d6000fd5b505050506040513d601f19601f8201168201806040525081019061066d9190611979565b905060ff811661069057604051633a043ca760e21b815260040160405180910390fd5b6000848152600a6020526040902054600160a01b900460ff166106c65760405163631843a760e11b815260040160405180910390fd5b60006107488484808060200260200160405190810160405280939291908181526020018383602002808284376000920191909152505060025491503390505b60405160200161072d919060609190911b6bffffffffffffffffffffffff1916815260140190565b60405160208183030381529060405280519060200120611176565b9050600061078d858580806020026020016040519081016040528093929190818152602001838360200280828437600092019190915250506003549150339050610705565b905081156107e4576107a38360ff16600161118e565b336000908152600b6020908152604080832060ff88168452909152902054106107df576040516339db9f3160e01b815260040160405180910390fd5b610811565b80156107f8576107a38360ff16600061118e565b60405163582f497d60e11b815260040160405180910390fd5b336000908152600b6020908152604080832060ff87168452909152812080546001929061083f908490611996565b90915550506000868152600a60205260409020805460ff60a01b19168155600301546001600160a01b031680610925576000878152600a602052604090206002015434146108a05760405163342ccafd60e21b815260040160405180910390fd5b6000878152600a60205260408082205490516001600160a01b039091169034908381818185875af1925050503d80600081146108f8576040519150601f19603f3d011682016040523d82523d6000602084013e6108fd565b606091505b505090508061091f57604051630dcf35db60e41b815260040160405180910390fd5b506109a1565b34156109735760405162461bcd60e51b815260206004820152601c60248201527f4e6f7420616c6c6f77656420746f206465706f736974204d41544943000000006044820152606401610481565b6109a1336000898152600a6020526040902080546002909101546001600160a01b03858116939216906111db565b600c546001600160a01b03166323b872dd30338a6040518463ffffffff1660e01b81526004016109d393929190611928565b600060405180830381600087803b1580156109ed57600080fd5b505af1158015610a01573d6000803e3d6000fd5b505050506001600854610a149190611962565b6008556000878152600a60209081526040918290206001810154815460029092015484519182526001600160a01b039092169281019290925233828401526060820152841515608082015283151560a082015290517f996f8e6633112c7506949c439286fcb2791b23e0c93ccd86f2a74bc0ad0775aa9181900360c00190a1505060016000555050505050565b610aa9611033565b610ab36000611239565b565b610abd611033565b60005b8151811015610b725760006001600160a01b0316828281518110610ae657610ae66119ae565b60200260200101516001600160a01b03161415610b165760405163ddbadd5f60e01b815260040160405180910390fd5b600060096000848481518110610b2e57610b2e6119ae565b6020908102919091018101516001600160a01b03168252810191909152604001600020805460ff191691151591909117905580610b6a816119c4565b915050610ac0565b507f1d474f57a5c483b47a8bf6006e39086f96dd040a00cb348e22f80a4ca2c6f22281604051610ba291906119df565b60405180910390a150565b610bb5611033565b600355565b610bc2611033565b60005b8151811015610c775760006001600160a01b0316828281518110610beb57610beb6119ae565b60200260200101516001600160a01b03161415610c1b5760405163ddbadd5f60e01b815260040160405180910390fd5b600160096000848481518110610c3357610c336119ae565b6020908102919091018101516001600160a01b03168252810191909152604001600020805460ff191691151591909117905580610c6f816119c4565b915050610bc5565b507ff74f148a4f930a0f67a2c33ba932a14e3e91b4e6468f21e545932fd82511153881604051610ba291906119df565b610caf611033565b805160065560200151600755565b610cc5611033565b60026000541415610ce85760405162461bcd60e51b8152600401610481906118f1565b6002600055610cf5611129565b81610d1357604051636aa5f95d60e11b815260040160405180910390fd5b6001600160a01b03811615610d5b576001600160a01b03811660009081526009602052604090205460ff16610d5b57604051630b094f2760e31b815260040160405180910390fd5b60005b8351811015610dd457600a6000858381518110610d7d57610d7d6119ae565b6020026020010151815260200190815260200160002060000160149054906101000a900460ff1615610dc2576040516333c553b360e01b815260040160405180910390fd5b80610dcc816119c4565b915050610d5e565b5060005b8351811015610f84576000848281518110610df557610df56119ae565b602002602001015190506040518060a00160405280610e113390565b6001600160a01b03908116825260016020808401829052604080850187905260608086018b90528985166080968701526000888152600a845282902087518154948901511515600160a01b026001600160a81b03199095169087161793909317835590860151828401558501516002820155939092015160039093018054939091166001600160a01b03199390931692909217909155600854610eb391611996565b600855600c546001600160a01b03166323b872dd3330846040518463ffffffff1660e01b8152600401610ee893929190611928565b600060405180830381600087803b158015610f0257600080fd5b505af1158015610f16573d6000803e3d6000fd5b505050507f37b7b092d2bfe326e3d50aba074399c185daa05a83d2c17fb19bbeb4640f41b381610f433390565b604080519283526001600160a01b03918216602084015282018790528516606082015260800160405180910390a15080610f7c816119c4565b915050610dd8565b505060016000555050565b6001600160a01b0382166000908152600b6020908152604080832060ff851684529091529020545b92915050565b610fc5611033565b6001600160a01b03811661102a5760405162461bcd60e51b815260206004820152602660248201527f4f776e61626c653a206e6577206f776e657220697320746865207a65726f206160448201526564647265737360d01b6064820152608401610481565b61042881611239565b6001546001600160a01b03163314610ab35760405162461bcd60e51b815260206004820181905260248201527f4f776e61626c653a2063616c6c6572206973206e6f7420746865206f776e65726044820152606401610481565b611095611129565b6001805460ff60a01b1916600160a01b1790557f62e78cea01bee320cd4e420270b5ea74000d11b0c9f74754ebdbfc544b05a2586110d03390565b6040516001600160a01b03909116815260200160405180910390a1565b6110f561128b565b6001805460ff60a01b191690557f5db9ee0a495bf2e6ff9c91a7834c1ba4fdd244a5e8aa4e537bd38aeae4b073aa336110d0565b600154600160a01b900460ff1615610ab35760405162461bcd60e51b815260206004820152601060248201526f14185d5cd8589b194e881c185d5cd95960821b6044820152606401610481565b60008261118385846112db565b1490505b9392505050565b600082600114156111b15781156111a85750600554610fb7565b50600754610fb7565b82600214156111d25781156111c95750600454610fb7565b50600654610fb7565b50600092915050565b611233846323b872dd60e01b8585856040516024016111fc93929190611928565b60408051601f198184030181529190526020810180516001600160e01b03166001600160e01b031990931692909217909152611328565b50505050565b600180546001600160a01b038381166001600160a01b0319831681179093556040519116919082907f8be0079c531659141344cd1fd0a4f28419497f9722a3daafe3b4186f6b6457e090600090a35050565b600154600160a01b900460ff16610ab35760405162461bcd60e51b815260206004820152601460248201527314185d5cd8589b194e881b9bdd081c185d5cd95960621b6044820152606401610481565b600081815b84518110156113205761130c828683815181106112ff576112ff6119ae565b60200260200101516113ff565b915080611318816119c4565b9150506112e0565b509392505050565b600061137d826040518060400160405280602081526020017f5361666545524332303a206c6f772d6c6576656c2063616c6c206661696c6564815250856001600160a01b031661142b9092919063ffffffff16565b8051909150156113fa578080602001905181019061139b9190611a2c565b6113fa5760405162461bcd60e51b815260206004820152602a60248201527f5361666545524332303a204552433230206f7065726174696f6e20646964206e6044820152691bdd081cdd58d8d9595960b21b6064820152608401610481565b505050565b600081831061141b576000828152602084905260409020611187565b5060009182526020526040902090565b606061143a8484600085611442565b949350505050565b6060824710156114a35760405162461bcd60e51b815260206004820152602660248201527f416464726573733a20696e73756666696369656e742062616c616e636520666f6044820152651c8818d85b1b60d21b6064820152608401610481565b6001600160a01b0385163b6114fa5760405162461bcd60e51b815260206004820152601d60248201527f416464726573733a2063616c6c20746f206e6f6e2d636f6e74726163740000006044820152606401610481565b600080866001600160a01b031685876040516115169190611a75565b60006040518083038185875af1925050503d8060008114611553576040519150601f19603f3d011682016040523d82523d6000602084013e611558565b606091505b5091509150611568828286611573565b979650505050505050565b60608315611582575081611187565b8251156115925782518084602001fd5b8160405162461bcd60e51b81526004016104819190611a91565b801515811461042857600080fd5b6000602082840312156115cc57600080fd5b8135611187816115ac565b634e487b7160e01b600052604160045260246000fd5b604051601f8201601f1916810167ffffffffffffffff81118282101715611616576116166115d7565b604052919050565b60006040828403121561163057600080fd5b6040516040810181811067ffffffffffffffff82111715611653576116536115d7565b604052823581526020928301359281019290925250919050565b60006020828403121561167f57600080fd5b5035919050565b60008060006040848603121561169b57600080fd5b83359250602084013567ffffffffffffffff808211156116ba57600080fd5b818601915086601f8301126116ce57600080fd5b8135818111156116dd57600080fd5b8760208260051b85010111156116f257600080fd5b6020830194508093505050509250925092565b600067ffffffffffffffff82111561171f5761171f6115d7565b5060051b60200190565b6001600160a01b038116811461042857600080fd5b6000602080838503121561175157600080fd5b823567ffffffffffffffff81111561176857600080fd5b8301601f8101851361177957600080fd5b803561178c61178782611705565b6115ed565b81815260059190911b820183019083810190878311156117ab57600080fd5b928401925b828410156115685783356117c381611729565b825292840192908401906117b0565b6000602082840312156117e457600080fd5b813561118781611729565b80356117fa81611729565b919050565b60008060006060848603121561181457600080fd5b833567ffffffffffffffff81111561182b57600080fd5b8401601f8101861361183c57600080fd5b8035602061184c61178783611705565b82815260059290921b8301810191818101908984111561186b57600080fd5b938201935b8385101561188957843582529382019390820190611870565b96505086013593506118a0915050604085016117ef565b90509250925092565b60ff8116811461042857600080fd5b600080604083850312156118cb57600080fd5b82356118d681611729565b915060208301356118e6816118a9565b809150509250929050565b6020808252601f908201527f5265656e7472616e637947756172643a207265656e7472616e742063616c6c00604082015260600190565b6001600160a01b039384168152919092166020820152604081019190915260600190565b634e487b7160e01b600052601160045260246000fd5b6000828210156119745761197461194c565b500390565b60006020828403121561198b57600080fd5b8151611187816118a9565b600082198211156119a9576119a961194c565b500190565b634e487b7160e01b600052603260045260246000fd5b60006000198214156119d8576119d861194c565b5060010190565b6020808252825182820181905260009190848201906040850190845b81811015611a205783516001600160a01b0316835292840192918401916001016119fb565b50909695505050505050565b600060208284031215611a3e57600080fd5b8151611187816115ac565b60005b83811015611a64578181015183820152602001611a4c565b838111156112335750506000910152565b60008251611a87818460208701611a49565b9190910192915050565b6020815260008251806020840152611ab0816040850160208701611a49565b601f01601f1916919091016040019291505056fea26469706673582212204df125f8cca70a0c2a478cf1526ebf7979b9e7aabbe20f54384962c6d4117a8b64736f6c63430008090033",
  "devdoc": {
    "details": "Based on OpenZeppelin Contracts.",
    "kind": "dev",
    "methods": {
      "addListing(uint256[],uint256,address)": {
        "details": "Creates a new entry for a Listing object and transfers the Token to the contract",
        "params": {
          "price": "Price in NFTs.",
          "tokenIds": "NFT TokenId."
        }
      },
      "buy(uint256,bytes32[])": {
        "details": "Transfers both the ERC20 token (price) and the NFT.",
        "params": {
          "_merkleProof": "MerkleProof value",
          "_tokenId": "NFT Token Id."
        }
      },
      "constructor": {
        "details": "Setup the blastlootbox contract",
        "params": {
          "lootboxAddress": "Address of the NFT Contract."
        }
      },
      "getOwnedCount(address,uint8)": {
        "details": "This function will return purchased count with tokenType",
        "params": {
          "_address": "owner Address",
          "_tokenType": "Token Type (1 or 2), (1 is NB, 2 is GWB)"
        }
      },
      "owner()": {
        "details": "Returns the address of the current owner."
      },
      "paused()": {
        "details": "Returns true if the contract is paused, and false otherwise."
      },
      "removeListing(uint256)": {
        "details": "Marks Listing as not active object and transfers the Token back",
        "params": {
          "tokenId": "NFT Token Id."
        }
      },
      "removeWhitelistTokens(address[])": {
        "details": "This will remove whitelisting of stable token for Lootbox trading",
        "params": {
          "_whitelist": "whitelist erc20 token array"
        }
      },
      "renounceOwnership()": {
        "details": "Leaves the contract without owner. It will not be possible to call `onlyOwner` functions anymore. Can only be called by the current owner. NOTE: Renouncing ownership will leave the contract without an owner, thereby removing any functionality that is only available to the owner."
      },
      "setNotWhitelistPurchaseLimit((uint256,uint256))": {
        "details": "This will set non-whitelist users limitation for GWB and NB",
        "params": {
          "_limit": "gwbLimit & nbLimit"
        }
      },
      "setWhitelistPurchaseLimit((uint256,uint256))": {
        "details": "This will set whitelist users limitation for GWB and NB",
        "params": {
          "_limit": "gwbLimit & nbLimit"
        }
      },
      "setWhitelistTokens(address[])": {
        "details": "This will create whitelisting of stable token for Lootbox trading",
        "params": {
          "_whitelist": "whitelist erc20 token array"
        }
      },
      "transferOwnership(address)": {
        "details": "Transfers ownership of the contract to a new account (`newOwner`). Can only be called by the current owner."
      },
      "updateLuckyMerkleRoot(bytes32)": {
        "details": "This function will update _luckyMerkleRoot",
        "params": {
          "_luckyMerkleRoot": "root of merkle Tree"
        }
      },
      "updateMerkleRoot(bytes32)": {
        "details": "This function will update merkleRoot",
        "params": {
          "_merkleRoot": "root of merkle Tree"
        }
      }
    },
    "title": "Marketplace contract to trade Lootbox",
    "version": 1
  },
  "userdoc": {
    "events": {
      "LootboxDelisted(uint256,address)": {
        "notice": "Event Delisted"
      },
      "LootboxListed(uint256,address,uint256,address)": {
        "notice": "Event Listed"
      },
      "LootboxSold(uint256,address,address,uint256,bool,bool)": {
        "notice": "EventItem Sold"
      }
    },
    "kind": "user",
    "methods": {
      "addListing(uint256[],uint256,address)": {
        "notice": "add a Listing to the Marketplace"
      },
      "buy(uint256,bytes32[])": {
        "notice": "Buys a listed NFT"
      },
      "constructor": {
        "notice": "Token constructor"
      },
      "getOwnedCount(address,uint8)": {
        "notice": "Get purchased count"
      },
      "removeListing(uint256)": {
        "notice": "Remove a Listing from the Marketplace"
      },
      "removeWhitelistTokens(address[])": {
        "notice": "Remove whitelist tokens for paying"
      },
      "setNotWhitelistPurchaseLimit((uint256,uint256))": {
        "notice": "Set the limitation for whitelisted and lucky users"
      },
      "setWhitelistPurchaseLimit((uint256,uint256))": {
        "notice": "Set the limitation for whitelist users"
      },
      "setWhitelistTokens(address[])": {
        "notice": "Set whitelist tokens for paying"
      },
      "updateLuckyMerkleRoot(bytes32)": {
        "notice": "Update LuckyMerkleRoot value"
      },
      "updateMerkleRoot(bytes32)": {
        "notice": "Update MerkleRoot value"
      }
    },
    "version": 1
  },
  "storageLayout": {
    "storage": [
      {
        "astId": 670,
        "contract": "contracts/MarketplaceLootbox.sol:MarketplaceLootbox",
        "label": "_status",
        "offset": 0,
        "slot": "0",
        "type": "t_uint256"
      },
      {
        "astId": 446,
        "contract": "contracts/MarketplaceLootbox.sol:MarketplaceLootbox",
        "label": "_owner",
        "offset": 0,
        "slot": "1",
        "type": "t_address"
      },
      {
        "astId": 569,
        "contract": "contracts/MarketplaceLootbox.sol:MarketplaceLootbox",
        "label": "_paused",
        "offset": 20,
        "slot": "1",
        "type": "t_bool"
      },
      {
        "astId": 9340,
        "contract": "contracts/MarketplaceLootbox.sol:MarketplaceLootbox",
        "label": "merkleRoot",
        "offset": 0,
        "slot": "2",
        "type": "t_bytes32"
      },
      {
        "astId": 9342,
        "contract": "contracts/MarketplaceLootbox.sol:MarketplaceLootbox",
        "label": "luckyMerkleRoot",
        "offset": 0,
        "slot": "3",
        "type": "t_bytes32"
      },
      {
        "astId": 9345,
        "contract": "contracts/MarketplaceLootbox.sol:MarketplaceLootbox",
        "label": "whitelistLimit",
        "offset": 0,
        "slot": "4",
        "type": "t_struct(PurchaseLimit)9327_storage"
      },
      {
        "astId": 9348,
        "contract": "contracts/MarketplaceLootbox.sol:MarketplaceLootbox",
        "label": "luckyUserLimit",
        "offset": 0,
        "slot": "6",
        "type": "t_struct(PurchaseLimit)9327_storage"
      },
      {
        "astId": 9350,
        "contract": "contracts/MarketplaceLootbox.sol:MarketplaceLootbox",
        "label": "activeListingCount",
        "offset": 0,
        "slot": "8",
        "type": "t_uint256"
      },
      {
        "astId": 9354,
        "contract": "contracts/MarketplaceLootbox.sol:MarketplaceLootbox",
        "label": "whitelistedTokens",
        "offset": 0,
        "slot": "9",
        "type": "t_mapping(t_address,t_bool)"
      },
      {
        "astId": 9359,
        "contract": "contracts/MarketplaceLootbox.sol:MarketplaceLootbox",
        "label": "listings",
        "offset": 0,
        "slot": "10",
        "type": "t_mapping(t_uint256,t_struct(Listing)9322_storage)"
      },
      {
        "astId": 9365,
        "contract": "contracts/MarketplaceLootbox.sol:MarketplaceLootbox",
        "label": "boughtCount",
        "offset": 0,
        "slot": "11",
        "type": "t_mapping(t_address,t_mapping(t_uint8,t_uint256))"
      },
      {
        "astId": 9368,
        "contract": "contracts/MarketplaceLootbox.sol:MarketplaceLootbox",
        "label": "lootboxContract",
        "offset": 0,
        "slot": "12",
        "type": "t_contract(IBlastLootbox)15273"
      }
    ],
    "types": {
      "t_address": {
        "encoding": "inplace",
        "label": "address",
        "numberOfBytes": "20"
      },
      "t_bool": {
        "encoding": "inplace",
        "label": "bool",
        "numberOfBytes": "1"
      },
      "t_bytes32": {
        "encoding": "inplace",
        "label": "bytes32",
        "numberOfBytes": "32"
      },
      "t_contract(IBlastLootbox)15273": {
        "encoding": "inplace",
        "label": "contract IBlastLootbox",
        "numberOfBytes": "20"
      },
      "t_contract(IERC20)1363": {
        "encoding": "inplace",
        "label": "contract IERC20",
        "numberOfBytes": "20"
      },
      "t_mapping(t_address,t_bool)": {
        "encoding": "mapping",
        "key": "t_address",
        "label": "mapping(address => bool)",
        "numberOfBytes": "32",
        "value": "t_bool"
      },
      "t_mapping(t_address,t_mapping(t_uint8,t_uint256))": {
        "encoding": "mapping",
        "key": "t_address",
        "label": "mapping(address => mapping(uint8 => uint256))",
        "numberOfBytes": "32",
        "value": "t_mapping(t_uint8,t_uint256)"
      },
      "t_mapping(t_uint256,t_struct(Listing)9322_storage)": {
        "encoding": "mapping",
        "key": "t_uint256",
        "label": "mapping(uint256 => struct Listing)",
        "numberOfBytes": "32",
        "value": "t_struct(Listing)9322_storage"
      },
      "t_mapping(t_uint8,t_uint256)": {
        "encoding": "mapping",
        "key": "t_uint8",
        "label": "mapping(uint8 => uint256)",
        "numberOfBytes": "32",
        "value": "t_uint256"
      },
      "t_struct(Listing)9322_storage": {
        "encoding": "inplace",
        "label": "struct Listing",
        "members": [
          {
            "astId": 9312,
            "contract": "contracts/MarketplaceLootbox.sol:MarketplaceLootbox",
            "label": "owner",
            "offset": 0,
            "slot": "0",
            "type": "t_address"
          },
          {
            "astId": 9314,
            "contract": "contracts/MarketplaceLootbox.sol:MarketplaceLootbox",
            "label": "isActive",
            "offset": 20,
            "slot": "0",
            "type": "t_bool"
          },
          {
            "astId": 9316,
            "contract": "contracts/MarketplaceLootbox.sol:MarketplaceLootbox",
            "label": "tokenId",
            "offset": 0,
            "slot": "1",
            "type": "t_uint256"
          },
          {
            "astId": 9318,
            "contract": "contracts/MarketplaceLootbox.sol:MarketplaceLootbox",
            "label": "price",
            "offset": 0,
            "slot": "2",
            "type": "t_uint256"
          },
          {
            "astId": 9321,
            "contract": "contracts/MarketplaceLootbox.sol:MarketplaceLootbox",
            "label": "tokenAddress",
            "offset": 0,
            "slot": "3",
            "type": "t_contract(IERC20)1363"
          }
        ],
        "numberOfBytes": "128"
      },
      "t_struct(PurchaseLimit)9327_storage": {
        "encoding": "inplace",
        "label": "struct PurchaseLimit",
        "members": [
          {
            "astId": 9324,
            "contract": "contracts/MarketplaceLootbox.sol:MarketplaceLootbox",
            "label": "gwbLimit",
            "offset": 0,
            "slot": "0",
            "type": "t_uint256"
          },
          {
            "astId": 9326,
            "contract": "contracts/MarketplaceLootbox.sol:MarketplaceLootbox",
            "label": "nbLimit",
            "offset": 0,
            "slot": "1",
            "type": "t_uint256"
          }
        ],
        "numberOfBytes": "64"
      },
      "t_uint256": {
        "encoding": "inplace",
        "label": "uint256",
        "numberOfBytes": "32"
      },
      "t_uint8": {
        "encoding": "inplace",
        "label": "uint8",
        "numberOfBytes": "1"
      }
    }
  }
}