{
  "address": "0x79cf6a0f31ECfeB182A3F547dCE907cef72F6255",
  "abi": [
    {
      "inputs": [
        {
          "internalType": "contract IBlastLootbox",
          "name": "lootboxAddress",
          "type": "address"
        },
        {
          "internalType": "bytes32",
          "name": "_merkleRoot",
          "type": "bytes32"
        },
        {
          "internalType": "bytes32",
          "name": "_luckyMerkleRoot",
          "type": "bytes32"
        }
      ],
      "stateMutability": "nonpayable",
      "type": "constructor"
    },
    {
      "anonymous": false,
      "inputs": [
        {
          "indexed": false,
          "internalType": "uint256",
          "name": "tokenId",
          "type": "uint256"
        },
        {
          "indexed": false,
          "internalType": "address",
          "name": "seller",
          "type": "address"
        }
      ],
      "name": "LootboxDelisted",
      "type": "event"
    },
    {
      "anonymous": false,
      "inputs": [
        {
          "indexed": false,
          "internalType": "uint256",
          "name": "tokenId",
          "type": "uint256"
        },
        {
          "indexed": false,
          "internalType": "address",
          "name": "seller",
          "type": "address"
        },
        {
          "indexed": false,
          "internalType": "uint256",
          "name": "price",
          "type": "uint256"
        },
        {
          "indexed": false,
          "internalType": "address",
          "name": "payTokenAddress",
          "type": "address"
        }
      ],
      "name": "LootboxListed",
      "type": "event"
    },
    {
      "anonymous": false,
      "inputs": [
        {
          "indexed": false,
          "internalType": "uint256",
          "name": "tokenId",
          "type": "uint256"
        },
        {
          "indexed": false,
          "internalType": "address",
          "name": "seller",
          "type": "address"
        },
        {
          "indexed": false,
          "internalType": "address",
          "name": "buyer",
          "type": "address"
        },
        {
          "indexed": false,
          "internalType": "uint256",
          "name": "price",
          "type": "uint256"
        },
        {
          "indexed": false,
          "internalType": "bool",
          "name": "whitelisted",
          "type": "bool"
        },
        {
          "indexed": false,
          "internalType": "bool",
          "name": "isLucky",
          "type": "bool"
        }
      ],
      "name": "LootboxSold",
      "type": "event"
    },
    {
      "anonymous": false,
      "inputs": [
        {
          "indexed": true,
          "internalType": "address",
          "name": "previousOwner",
          "type": "address"
        },
        {
          "indexed": true,
          "internalType": "address",
          "name": "newOwner",
          "type": "address"
        }
      ],
      "name": "OwnershipTransferred",
      "type": "event"
    },
    {
      "anonymous": false,
      "inputs": [
        {
          "indexed": false,
          "internalType": "address",
          "name": "account",
          "type": "address"
        }
      ],
      "name": "Paused",
      "type": "event"
    },
    {
      "anonymous": false,
      "inputs": [
        {
          "indexed": false,
          "internalType": "address",
          "name": "account",
          "type": "address"
        }
      ],
      "name": "Unpaused",
      "type": "event"
    },
    {
      "anonymous": false,
      "inputs": [
        {
          "indexed": false,
          "internalType": "address[]",
          "name": "whitelists",
          "type": "address[]"
        }
      ],
      "name": "WhitelistAdded",
      "type": "event"
    },
    {
      "anonymous": false,
      "inputs": [
        {
          "indexed": false,
          "internalType": "address[]",
          "name": "whitelists",
          "type": "address[]"
        }
      ],
      "name": "WhitelistRemoved",
      "type": "event"
    },
    {
      "inputs": [],
      "name": "activeListingCount",
      "outputs": [
        {
          "internalType": "uint256",
          "name": "",
          "type": "uint256"
        }
      ],
      "stateMutability": "view",
      "type": "function"
    },
    {
      "inputs": [
        {
          "internalType": "uint256[]",
          "name": "tokenIds",
          "type": "uint256[]"
        },
        {
          "internalType": "uint256",
          "name": "price",
          "type": "uint256"
        },
        {
          "internalType": "contract IERC20",
          "name": "payTokenAddress",
          "type": "address"
        }
      ],
      "name": "addListing",
      "outputs": [],
      "stateMutability": "nonpayable",
      "type": "function"
    },
    {
      "inputs": [
        {
          "internalType": "uint256",
          "name": "_tokenId",
          "type": "uint256"
        },
        {
          "internalType": "bytes32[]",
          "name": "_merkleProof",
          "type": "bytes32[]"
        }
      ],
      "name": "buy",
      "outputs": [],
      "stateMutability": "payable",
      "type": "function"
    },
    {
      "inputs": [
        {
          "internalType": "address",
          "name": "_address",
          "type": "address"
        },
        {
          "internalType": "uint8",
          "name": "_tokenType",
          "type": "uint8"
        }
      ],
      "name": "getOwnedCount",
      "outputs": [
        {
          "internalType": "uint256",
          "name": "",
          "type": "uint256"
        }
      ],
      "stateMutability": "view",
      "type": "function"
    },
    {
      "inputs": [
        {
          "internalType": "uint256",
          "name": "",
          "type": "uint256"
        }
      ],
      "name": "listings",
      "outputs": [
        {
          "internalType": "address",
          "name": "owner",
          "type": "address"
        },
        {
          "internalType": "bool",
          "name": "isActive",
          "type": "bool"
        },
        {
          "internalType": "uint256",
          "name": "tokenId",
          "type": "uint256"
        },
        {
          "internalType": "uint256",
          "name": "price",
          "type": "uint256"
        },
        {
          "internalType": "contract IERC20",
          "name": "tokenAddress",
          "type": "address"
        }
      ],
      "stateMutability": "view",
      "type": "function"
    },
    {
      "inputs": [],
      "name": "luckyMerkleRoot",
      "outputs": [
        {
          "internalType": "bytes32",
          "name": "",
          "type": "bytes32"
        }
      ],
      "stateMutability": "view",
      "type": "function"
    },
    {
      "inputs": [],
      "name": "merkleRoot",
      "outputs": [
        {
          "internalType": "bytes32",
          "name": "",
          "type": "bytes32"
        }
      ],
      "stateMutability": "view",
      "type": "function"
    },
    {
      "inputs": [],
      "name": "owner",
      "outputs": [
        {
          "internalType": "address",
          "name": "",
          "type": "address"
        }
      ],
      "stateMutability": "view",
      "type": "function"
    },
    {
      "inputs": [
        {
          "internalType": "bool",
          "name": "stop",
          "type": "bool"
        }
      ],
      "name": "pause",
      "outputs": [],
      "stateMutability": "nonpayable",
      "type": "function"
    },
    {
      "inputs": [],
      "name": "paused",
      "outputs": [
        {
          "internalType": "bool",
          "name": "",
          "type": "bool"
        }
      ],
      "stateMutability": "view",
      "type": "function"
    },
    {
      "inputs": [
        {
          "internalType": "uint256",
          "name": "tokenId",
          "type": "uint256"
        }
      ],
      "name": "removeListing",
      "outputs": [],
      "stateMutability": "nonpayable",
      "type": "function"
    },
    {
      "inputs": [
        {
          "internalType": "address[]",
          "name": "_whitelist",
          "type": "address[]"
        }
      ],
      "name": "removeWhitelistTokens",
      "outputs": [],
      "stateMutability": "nonpayable",
      "type": "function"
    },
    {
      "inputs": [],
      "name": "renounceOwnership",
      "outputs": [],
      "stateMutability": "nonpayable",
      "type": "function"
    },
    {
      "inputs": [
        {
          "components": [
            {
              "internalType": "uint256",
              "name": "gwbLimit",
              "type": "uint256"
            },
            {
              "internalType": "uint256",
              "name": "nbLimit",
              "type": "uint256"
            }
          ],
          "internalType": "struct PurchaseLimit",
          "name": "_limit",
          "type": "tuple"
        }
      ],
      "name": "setNotWhitelistPurchaseLimit",
      "outputs": [],
      "stateMutability": "nonpayable",
      "type": "function"
    },
    {
      "inputs": [
        {
          "components": [
            {
              "internalType": "uint256",
              "name": "gwbLimit",
              "type": "uint256"
            },
            {
              "internalType": "uint256",
              "name": "nbLimit",
              "type": "uint256"
            }
          ],
          "internalType": "struct PurchaseLimit",
          "name": "_limit",
          "type": "tuple"
        }
      ],
      "name": "setWhitelistPurchaseLimit",
      "outputs": [],
      "stateMutability": "nonpayable",
      "type": "function"
    },
    {
      "inputs": [
        {
          "internalType": "address[]",
          "name": "_whitelist",
          "type": "address[]"
        }
      ],
      "name": "setWhitelistTokens",
      "outputs": [],
      "stateMutability": "nonpayable",
      "type": "function"
    },
    {
      "inputs": [
        {
          "internalType": "address",
          "name": "newOwner",
          "type": "address"
        }
      ],
      "name": "transferOwnership",
      "outputs": [],
      "stateMutability": "nonpayable",
      "type": "function"
    },
    {
      "inputs": [
        {
          "internalType": "bytes32",
          "name": "_luckyMerkleRoot",
          "type": "bytes32"
        }
      ],
      "name": "updateLuckyMerkleRoot",
      "outputs": [],
      "stateMutability": "nonpayable",
      "type": "function"
    },
    {
      "inputs": [
        {
          "internalType": "bytes32",
          "name": "_merkleRoot",
          "type": "bytes32"
        }
      ],
      "name": "updateMerkleRoot",
      "outputs": [],
      "stateMutability": "nonpayable",
      "type": "function"
    },
    {
      "inputs": [
        {
          "internalType": "address",
          "name": "",
          "type": "address"
        }
      ],
      "name": "whitelistedTokens",
      "outputs": [
        {
          "internalType": "bool",
          "name": "",
          "type": "bool"
        }
      ],
      "stateMutability": "view",
      "type": "function"
    }
  ],
  "transactionHash": "0x7c5ef7425d9c7c40cd168d6dfe0ce9ea77bb7d2a919e715c476823f83126063c",
  "args": [
    "0x8a6710248db48bBb27eFE31754D730Fe38492737",
    "0x3078300000000000000000000000000000000000000000000000000000000000",
    "0x3078300000000000000000000000000000000000000000000000000000000000"
  ],
  "numDeployments": 1,
  "solcInputHash": "e1022c2b25c0085f1557400f326d633d",
  "bytecode": "0x60806040523480156200001157600080fd5b5060405162001ec638038062001ec6833981016040819052620000349162000158565b6001600055620000443362000106565b6001805460ff60a01b1916815560408051808201909152908152603160f81b60208201526001600160a01b0384166200009b5760405162461bcd60e51b81526004016200009291906200019d565b60405180910390fd5b50600c80546001600160a01b0319166001600160a01b03949094169390931790925560025560035560408051808201825260008082526001602092830181905260048290556005819055835180850190945280845292909101819052600691909155600755620001f5565b600180546001600160a01b038381166001600160a01b0319831681179093556040519116919082907f8be0079c531659141344cd1fd0a4f28419497f9722a3daafe3b4186f6b6457e090600090a35050565b6000806000606084860312156200016e57600080fd5b83516001600160a01b03811681146200018657600080fd5b602085015160409095015190969495509392505050565b600060208083528351808285015260005b81811015620001cc57858101830151858201604001528201620001ae565b81811115620001df576000604083870101525b50601f01601f1916929092016040019392505050565b611cc180620002056000396000f3fe60806040526004361061011f5760003560e01c8063b25706f3116100a0578063daf9c21011610064578063daf9c210146102f6578063de74e57b14610326578063ec6b5a8a146103b2578063ee5cf8b2146103d2578063f2fde38b146103f257600080fd5b8063b25706f314610260578063b948ecb914610280578063c077db17146102a0578063cf49e50a146102b6578063cfd6fb93146102d657600080fd5b8063479ad4c3116100e7578063479ad4c3146101c55780635a19b4db146101e55780635c975abb146101f8578063715018a6146102235780638da5cb5b1461023857600080fd5b806302329a29146101245780630744bbd8146101465780632eb4a7ab146101665780634681a7c61461018f5780634783f0ef146101a5575b600080fd5b34801561013057600080fd5b5061014461013f366004611781565b610412565b005b34801561015257600080fd5b506101446101613660046117e5565b610433565b34801561017257600080fd5b5061017c60025481565b6040519081526020015b60405180910390f35b34801561019b57600080fd5b5061017c60085481565b3480156101b157600080fd5b506101446101c0366004611834565b610449565b3480156101d157600080fd5b506101446101e0366004611834565b610456565b6101446101f336600461184d565b6105f9565b34801561020457600080fd5b50600154600160a01b900460ff165b6040519015158152602001610186565b34801561022f57600080fd5b50610144610bdb565b34801561024457600080fd5b506001546040516001600160a01b039091168152602001610186565b34801561026c57600080fd5b5061014461027b366004611905565b610bef565b34801561028c57600080fd5b5061014461029b366004611834565b610d03565b3480156102ac57600080fd5b5061017c60035481565b3480156102c257600080fd5b506101446102d1366004611905565b610d10565b3480156102e257600080fd5b506101446102f13660046117e5565b610e19565b34801561030257600080fd5b50610213610311366004611999565b60096020526000908152604090205460ff1681565b34801561033257600080fd5b5061037e610341366004611834565b600a6020526000908152604090208054600182015460028301546003909301546001600160a01b0380841694600160a01b90940460ff1693911685565b604080516001600160a01b03968716815294151560208601528401929092526060830152909116608082015260a001610186565b3480156103be57600080fd5b506101446103cd3660046119c6565b610e2f565b3480156103de57600080fd5b5061017c6103ed366004611a7f565b611156565b3480156103fe57600080fd5b5061014461040d366004611999565b611184565b61041a6111fa565b801561042b57610428611254565b50565b6104286112b4565b61043b6111fa565b805160045560200151600555565b6104516111fa565b600255565b61045e6111fa565b6002600054141561048a5760405162461bcd60e51b815260040161048190611ab8565b60405180910390fd5b60026000556104976112f0565b6000818152600a602052604090203381546040805180820190915260018152603360f81b6020820152916001600160a01b039182169116146104ec5760405162461bcd60e51b81526004016104819190611b1b565b5080546040805180820190915260028152610c4d60f21b602082015290600160a01b900460ff166105305760405162461bcd60e51b81526004016104819190611b1b565b50805460ff60a01b19168155600c546001600160a01b03166323b872dd3033856040518463ffffffff1660e01b815260040161056e93929190611b4e565b600060405180830381600087803b15801561058857600080fd5b505af115801561059c573d6000803e3d6000fd5b5050505060016008546105af9190611b88565b60085560018101546040805191825233602083015280517f438e264f935ed95b27ce329685e71e429fb44580d4a578132274855417d0091e9281900390910190a150506001600055565b6002600054141561061c5760405162461bcd60e51b815260040161048190611ab8565b60026000556106296112f0565b600c546040516376aed2e160e01b8152600481018590526000916001600160a01b0316906376aed2e19060240160206040518083038186803b15801561066e57600080fd5b505afa158015610682573d6000803e3d6000fd5b505050506040513d601f19601f820116820180604052508101906106a69190611b9f565b6040805180820190915260018152603560f81b602082015290915060ff82166106e25760405162461bcd60e51b81526004016104819190611b1b565b506000848152600a602090815260409182902054825180840190935260028352610c4d60f21b91830191909152600160a01b900460ff166107365760405162461bcd60e51b81526004016104819190611b1b565b5060006107b98484808060200260200160405190810160405280939291908181526020018383602002808284376000920191909152505060025491503390505b60405160200161079e919060609190911b6bffffffffffffffffffffffff1916815260140190565b6040516020818303038152906040528051906020012061133d565b905060006107fe858580806020026020016040519081016040528093929190818152602001838360200280828437600092019190915250506003549150339050610776565b905081806108095750805b60405180604001604052806002815260200161313760f01b815250906108425760405162461bcd60e51b81526004016104819190611b1b565b5081156108b5576108578360ff166001611355565b336000908152600b6020908152604080832060ff881684528252918290205482518084019093526002835261189b60f11b918301919091529091116108af5760405162461bcd60e51b81526004016104819190611b1b565b50610923565b8015610923576108c98360ff166000611355565b336000908152600b6020908152604080832060ff881684528252918290205482518084019093526002835261189b60f11b918301919091529091116109215760405162461bcd60e51b81526004016104819190611b1b565b505b336000908152600b6020908152604080832060ff871684529091528120805460019290610951908490611bbc565b90915550506000868152600a60205260409020805460ff60a01b19168155600301546001600160a01b031680610a7557600a6000888152602001908152602001600020600201543414604051806040016040528060018152602001601b60f91b815250906109d25760405162461bcd60e51b81526004016104819190611b1b565b506000878152600a60205260408082205490516001600160a01b039091169034908381818185875af1925050503d8060008114610a2b576040519150601f19603f3d011682016040523d82523d6000602084013e610a30565b606091505b505090508060405180604001604052806002815260200161313560f01b81525090610a6e5760405162461bcd60e51b81526004016104819190611b1b565b5050610adb565b6040805180820190915260018152601b60f91b60208201523415610aac5760405162461bcd60e51b81526004016104819190611b1b565b50610adb336000898152600a6020526040902080546002909101546001600160a01b03858116939216906113a2565b600c546001600160a01b03166323b872dd30338a6040518463ffffffff1660e01b8152600401610b0d93929190611b4e565b600060405180830381600087803b158015610b2757600080fd5b505af1158015610b3b573d6000803e3d6000fd5b505050506001600854610b4e9190611b88565b6008556000878152600a60209081526040918290206001810154815460029092015484519182526001600160a01b039092169281019290925233828401526060820152841515608082015283151560a082015290517f996f8e6633112c7506949c439286fcb2791b23e0c93ccd86f2a74bc0ad0775aa9181900360c00190a1505060016000555050505050565b610be36111fa565b610bed6000611400565b565b610bf76111fa565b60005b8151811015610cc85760006001600160a01b0316828281518110610c2057610c20611bd4565b60200260200101516001600160a01b03161415604051806040016040528060018152602001603160f81b81525090610c6b5760405162461bcd60e51b81526004016104819190611b1b565b50600060096000848481518110610c8457610c84611bd4565b6020908102919091018101516001600160a01b03168252810191909152604001600020805460ff191691151591909117905580610cc081611bea565b915050610bfa565b507f1d474f57a5c483b47a8bf6006e39086f96dd040a00cb348e22f80a4ca2c6f22281604051610cf89190611c05565b60405180910390a150565b610d0b6111fa565b600355565b610d186111fa565b60005b8151811015610de95760006001600160a01b0316828281518110610d4157610d41611bd4565b60200260200101516001600160a01b03161415604051806040016040528060018152602001603160f81b81525090610d8c5760405162461bcd60e51b81526004016104819190611b1b565b50600160096000848481518110610da557610da5611bd4565b6020908102919091018101516001600160a01b03168252810191909152604001600020805460ff191691151591909117905580610de181611bea565b915050610d1b565b507ff74f148a4f930a0f67a2c33ba932a14e3e91b4e6468f21e545932fd82511153881604051610cf89190611c05565b610e216111fa565b805160065560200151600755565b610e376111fa565b60026000541415610e5a5760405162461bcd60e51b815260040161048190611ab8565b6002600055610e676112f0565b6040805180820190915260018152601960f91b602082015282610e9d5760405162461bcd60e51b81526004016104819190611b1b565b506001600160a01b03811615610f05576001600160a01b0381166000908152600960209081526040918290205482518084019093526002835261313360f01b9183019190915260ff16610f035760405162461bcd60e51b81526004016104819190611b1b565b505b60005b8351811015610f9b57600a6000858381518110610f2757610f27611bd4565b6020026020010151815260200190815260200160002060000160149054906101000a900460ff1615604051806040016040528060028152602001610c4d60f21b81525090610f885760405162461bcd60e51b81526004016104819190611b1b565b5080610f9381611bea565b915050610f08565b5060005b835181101561114b576000848281518110610fbc57610fbc611bd4565b602002602001015190506040518060a00160405280610fd83390565b6001600160a01b03908116825260016020808401829052604080850187905260608086018b90528985166080968701526000888152600a845282902087518154948901511515600160a01b026001600160a81b03199095169087161793909317835590860151828401558501516002820155939092015160039093018054939091166001600160a01b0319939093169290921790915560085461107a91611bbc565b600855600c546001600160a01b03166323b872dd3330846040518463ffffffff1660e01b81526004016110af93929190611b4e565b600060405180830381600087803b1580156110c957600080fd5b505af11580156110dd573d6000803e3d6000fd5b505050507f37b7b092d2bfe326e3d50aba074399c185daa05a83d2c17fb19bbeb4640f41b38161110a3390565b604080519283526001600160a01b03918216602084015282018790528516606082015260800160405180910390a1508061114381611bea565b915050610f9f565b505060016000555050565b6001600160a01b0382166000908152600b6020908152604080832060ff851684529091529020545b92915050565b61118c6111fa565b6001600160a01b0381166111f15760405162461bcd60e51b815260206004820152602660248201527f4f776e61626c653a206e6577206f776e657220697320746865207a65726f206160448201526564647265737360d01b6064820152608401610481565b61042881611400565b6001546001600160a01b03163314610bed5760405162461bcd60e51b815260206004820181905260248201527f4f776e61626c653a2063616c6c6572206973206e6f7420746865206f776e65726044820152606401610481565b61125c6112f0565b6001805460ff60a01b1916600160a01b1790557f62e78cea01bee320cd4e420270b5ea74000d11b0c9f74754ebdbfc544b05a2586112973390565b6040516001600160a01b03909116815260200160405180910390a1565b6112bc611452565b6001805460ff60a01b191690557f5db9ee0a495bf2e6ff9c91a7834c1ba4fdd244a5e8aa4e537bd38aeae4b073aa33611297565b600154600160a01b900460ff1615610bed5760405162461bcd60e51b815260206004820152601060248201526f14185d5cd8589b194e881c185d5cd95960821b6044820152606401610481565b60008261134a85846114a2565b1490505b9392505050565b6000826001141561137857811561136f575060055461117e565b5060075461117e565b8260021415611399578115611390575060045461117e565b5060065461117e565b50600092915050565b6113fa846323b872dd60e01b8585856040516024016113c393929190611b4e565b60408051601f198184030181529190526020810180516001600160e01b03166001600160e01b0319909316929092179091526114ef565b50505050565b600180546001600160a01b038381166001600160a01b0319831681179093556040519116919082907f8be0079c531659141344cd1fd0a4f28419497f9722a3daafe3b4186f6b6457e090600090a35050565b600154600160a01b900460ff16610bed5760405162461bcd60e51b815260206004820152601460248201527314185d5cd8589b194e881b9bdd081c185d5cd95960621b6044820152606401610481565b600081815b84518110156114e7576114d3828683815181106114c6576114c6611bd4565b60200260200101516115c6565b9150806114df81611bea565b9150506114a7565b509392505050565b6000611544826040518060400160405280602081526020017f5361666545524332303a206c6f772d6c6576656c2063616c6c206661696c6564815250856001600160a01b03166115f29092919063ffffffff16565b8051909150156115c157808060200190518101906115629190611c52565b6115c15760405162461bcd60e51b815260206004820152602a60248201527f5361666545524332303a204552433230206f7065726174696f6e20646964206e6044820152691bdd081cdd58d8d9595960b21b6064820152608401610481565b505050565b60008183106115e257600082815260208490526040902061134e565b5060009182526020526040902090565b60606116018484600085611609565b949350505050565b60608247101561166a5760405162461bcd60e51b815260206004820152602660248201527f416464726573733a20696e73756666696369656e742062616c616e636520666f6044820152651c8818d85b1b60d21b6064820152608401610481565b6001600160a01b0385163b6116c15760405162461bcd60e51b815260206004820152601d60248201527f416464726573733a2063616c6c20746f206e6f6e2d636f6e74726163740000006044820152606401610481565b600080866001600160a01b031685876040516116dd9190611c6f565b60006040518083038185875af1925050503d806000811461171a576040519150601f19603f3d011682016040523d82523d6000602084013e61171f565b606091505b509150915061172f82828661173a565b979650505050505050565b6060831561174957508161134e565b8251156117595782518084602001fd5b8160405162461bcd60e51b81526004016104819190611b1b565b801515811461042857600080fd5b60006020828403121561179357600080fd5b813561134e81611773565b634e487b7160e01b600052604160045260246000fd5b604051601f8201601f1916810167ffffffffffffffff811182821017156117dd576117dd61179e565b604052919050565b6000604082840312156117f757600080fd5b6040516040810181811067ffffffffffffffff8211171561181a5761181a61179e565b604052823581526020928301359281019290925250919050565b60006020828403121561184657600080fd5b5035919050565b60008060006040848603121561186257600080fd5b83359250602084013567ffffffffffffffff8082111561188157600080fd5b818601915086601f83011261189557600080fd5b8135818111156118a457600080fd5b8760208260051b85010111156118b957600080fd5b6020830194508093505050509250925092565b600067ffffffffffffffff8211156118e6576118e661179e565b5060051b60200190565b6001600160a01b038116811461042857600080fd5b6000602080838503121561191857600080fd5b823567ffffffffffffffff81111561192f57600080fd5b8301601f8101851361194057600080fd5b803561195361194e826118cc565b6117b4565b81815260059190911b8201830190838101908783111561197257600080fd5b928401925b8284101561172f57833561198a816118f0565b82529284019290840190611977565b6000602082840312156119ab57600080fd5b813561134e816118f0565b80356119c1816118f0565b919050565b6000806000606084860312156119db57600080fd5b833567ffffffffffffffff8111156119f257600080fd5b8401601f81018613611a0357600080fd5b80356020611a1361194e836118cc565b82815260059290921b83018101918181019089841115611a3257600080fd5b938201935b83851015611a5057843582529382019390820190611a37565b9650508601359350611a67915050604085016119b6565b90509250925092565b60ff8116811461042857600080fd5b60008060408385031215611a9257600080fd5b8235611a9d816118f0565b91506020830135611aad81611a70565b809150509250929050565b6020808252601f908201527f5265656e7472616e637947756172643a207265656e7472616e742063616c6c00604082015260600190565b60005b83811015611b0a578181015183820152602001611af2565b838111156113fa5750506000910152565b6020815260008251806020840152611b3a816040850160208701611aef565b601f01601f19169190910160400192915050565b6001600160a01b039384168152919092166020820152604081019190915260600190565b634e487b7160e01b600052601160045260246000fd5b600082821015611b9a57611b9a611b72565b500390565b600060208284031215611bb157600080fd5b815161134e81611a70565b60008219821115611bcf57611bcf611b72565b500190565b634e487b7160e01b600052603260045260246000fd5b6000600019821415611bfe57611bfe611b72565b5060010190565b6020808252825182820181905260009190848201906040850190845b81811015611c465783516001600160a01b031683529284019291840191600101611c21565b50909695505050505050565b600060208284031215611c6457600080fd5b815161134e81611773565b60008251611c81818460208701611aef565b919091019291505056fea2646970667358221220377b47ab8e987a79306b80855a1f334fd6058313937ae9fb69aa9626ffb8018264736f6c63430008090033",
  "devdoc": {
    "details": "Based on OpenZeppelin Contracts.",
    "kind": "dev",
    "methods": {
      "addListing(uint256[],uint256,address)": {
        "details": "Creates a new entry for a Listing object and transfers the Token to the contract",
        "params": {
          "price": "Price in NFTs.",
          "tokenIds": "NFT TokenId."
        }
      },
      "buy(uint256,bytes32[])": {
        "details": "Transfers both the ERC20 token (price) and the NFT.",
        "params": {
          "_merkleProof": "MerkleProof value",
          "_tokenId": "NFT Token Id."
        }
      },
      "constructor": {
        "details": "Setup the blastlootbox contract",
        "params": {
          "lootboxAddress": "Address of the NFT Contract."
        }
      },
      "getOwnedCount(address,uint8)": {
        "details": "This function will return purchased count with tokenType",
        "params": {
          "_address": "owner Address",
          "_tokenType": "Token Type (1 or 2), (1 is NB, 2 is GWB)"
        }
      },
      "owner()": {
        "details": "Returns the address of the current owner."
      },
      "paused()": {
        "details": "Returns true if the contract is paused, and false otherwise."
      },
      "removeListing(uint256)": {
        "details": "Marks Listing as not active object and transfers the Token back",
        "params": {
          "tokenId": "NFT Token Id."
        }
      },
      "removeWhitelistTokens(address[])": {
        "details": "This will remove whitelisting of stable token for Lootbox trading",
        "params": {
          "_whitelist": "whitelist erc20 token array"
        }
      },
      "renounceOwnership()": {
        "details": "Leaves the contract without owner. It will not be possible to call `onlyOwner` functions anymore. Can only be called by the current owner. NOTE: Renouncing ownership will leave the contract without an owner, thereby removing any functionality that is only available to the owner."
      },
      "setNotWhitelistPurchaseLimit((uint256,uint256))": {
        "details": "This will set non-whitelist users limitation for GWB and NB",
        "params": {
          "_limit": "gwbLimit & nbLimit"
        }
      },
      "setWhitelistPurchaseLimit((uint256,uint256))": {
        "details": "This will set whitelist users limitation for GWB and NB",
        "params": {
          "_limit": "gwbLimit & nbLimit"
        }
      },
      "setWhitelistTokens(address[])": {
        "details": "This will create whitelisting of stable token for Lootbox trading",
        "params": {
          "_whitelist": "whitelist erc20 token array"
        }
      },
      "transferOwnership(address)": {
        "details": "Transfers ownership of the contract to a new account (`newOwner`). Can only be called by the current owner."
      },
      "updateLuckyMerkleRoot(bytes32)": {
        "details": "This function will update _luckyMerkleRoot",
        "params": {
          "_luckyMerkleRoot": "root of merkle Tree"
        }
      },
      "updateMerkleRoot(bytes32)": {
        "details": "This function will update merkleRoot",
        "params": {
          "_merkleRoot": "root of merkle Tree"
        }
      }
    },
    "title": "Marketplace contract to trade Lootbox",
    "version": 1
  },
  "userdoc": {
    "events": {
      "LootboxDelisted(uint256,address)": {
        "notice": "Event Delisted"
      },
      "LootboxListed(uint256,address,uint256,address)": {
        "notice": "Event Listed"
      },
      "LootboxSold(uint256,address,address,uint256,bool,bool)": {
        "notice": "EventItem Sold"
      }
    },
    "kind": "user",
    "methods": {
      "addListing(uint256[],uint256,address)": {
        "notice": "add a Listing to the Marketplace"
      },
      "buy(uint256,bytes32[])": {
        "notice": "Buys a listed NFT"
      },
      "constructor": {
        "notice": "Token constructor"
      },
      "getOwnedCount(address,uint8)": {
        "notice": "Get purchased count"
      },
      "removeListing(uint256)": {
        "notice": "Remove a Listing from the Marketplace"
      },
      "removeWhitelistTokens(address[])": {
        "notice": "Remove whitelist tokens for paying"
      },
      "setNotWhitelistPurchaseLimit((uint256,uint256))": {
        "notice": "Set the limitation for whitelisted and lucky users"
      },
      "setWhitelistPurchaseLimit((uint256,uint256))": {
        "notice": "Set the limitation for whitelist users"
      },
      "setWhitelistTokens(address[])": {
        "notice": "Set whitelist tokens for paying"
      },
      "updateLuckyMerkleRoot(bytes32)": {
        "notice": "Update LuckyMerkleRoot value"
      },
      "updateMerkleRoot(bytes32)": {
        "notice": "Update MerkleRoot value"
      }
    },
    "version": 1
  },
  "storageLayout": {
    "storage": [
      {
        "astId": 670,
        "contract": "contracts/MarketplaceLootbox.sol:MarketplaceLootbox",
        "label": "_status",
        "offset": 0,
        "slot": "0",
        "type": "t_uint256"
      },
      {
        "astId": 446,
        "contract": "contracts/MarketplaceLootbox.sol:MarketplaceLootbox",
        "label": "_owner",
        "offset": 0,
        "slot": "1",
        "type": "t_address"
      },
      {
        "astId": 569,
        "contract": "contracts/MarketplaceLootbox.sol:MarketplaceLootbox",
        "label": "_paused",
        "offset": 20,
        "slot": "1",
        "type": "t_bool"
      },
      {
        "astId": 8891,
        "contract": "contracts/MarketplaceLootbox.sol:MarketplaceLootbox",
        "label": "merkleRoot",
        "offset": 0,
        "slot": "2",
        "type": "t_bytes32"
      },
      {
        "astId": 8893,
        "contract": "contracts/MarketplaceLootbox.sol:MarketplaceLootbox",
        "label": "luckyMerkleRoot",
        "offset": 0,
        "slot": "3",
        "type": "t_bytes32"
      },
      {
        "astId": 8896,
        "contract": "contracts/MarketplaceLootbox.sol:MarketplaceLootbox",
        "label": "whitelistLimit",
        "offset": 0,
        "slot": "4",
        "type": "t_struct(PurchaseLimit)8878_storage"
      },
      {
        "astId": 8899,
        "contract": "contracts/MarketplaceLootbox.sol:MarketplaceLootbox",
        "label": "luckyUserLimit",
        "offset": 0,
        "slot": "6",
        "type": "t_struct(PurchaseLimit)8878_storage"
      },
      {
        "astId": 8901,
        "contract": "contracts/MarketplaceLootbox.sol:MarketplaceLootbox",
        "label": "activeListingCount",
        "offset": 0,
        "slot": "8",
        "type": "t_uint256"
      },
      {
        "astId": 8905,
        "contract": "contracts/MarketplaceLootbox.sol:MarketplaceLootbox",
        "label": "whitelistedTokens",
        "offset": 0,
        "slot": "9",
        "type": "t_mapping(t_address,t_bool)"
      },
      {
        "astId": 8910,
        "contract": "contracts/MarketplaceLootbox.sol:MarketplaceLootbox",
        "label": "listings",
        "offset": 0,
        "slot": "10",
        "type": "t_mapping(t_uint256,t_struct(Listing)8873_storage)"
      },
      {
        "astId": 8916,
        "contract": "contracts/MarketplaceLootbox.sol:MarketplaceLootbox",
        "label": "boughtCount",
        "offset": 0,
        "slot": "11",
        "type": "t_mapping(t_address,t_mapping(t_uint8,t_uint256))"
      },
      {
        "astId": 8919,
        "contract": "contracts/MarketplaceLootbox.sol:MarketplaceLootbox",
        "label": "lootboxContract",
        "offset": 0,
        "slot": "12",
        "type": "t_contract(IBlastLootbox)13590"
      }
    ],
    "types": {
      "t_address": {
        "encoding": "inplace",
        "label": "address",
        "numberOfBytes": "20"
      },
      "t_bool": {
        "encoding": "inplace",
        "label": "bool",
        "numberOfBytes": "1"
      },
      "t_bytes32": {
        "encoding": "inplace",
        "label": "bytes32",
        "numberOfBytes": "32"
      },
      "t_contract(IBlastLootbox)13590": {
        "encoding": "inplace",
        "label": "contract IBlastLootbox",
        "numberOfBytes": "20"
      },
      "t_contract(IERC20)1363": {
        "encoding": "inplace",
        "label": "contract IERC20",
        "numberOfBytes": "20"
      },
      "t_mapping(t_address,t_bool)": {
        "encoding": "mapping",
        "key": "t_address",
        "label": "mapping(address => bool)",
        "numberOfBytes": "32",
        "value": "t_bool"
      },
      "t_mapping(t_address,t_mapping(t_uint8,t_uint256))": {
        "encoding": "mapping",
        "key": "t_address",
        "label": "mapping(address => mapping(uint8 => uint256))",
        "numberOfBytes": "32",
        "value": "t_mapping(t_uint8,t_uint256)"
      },
      "t_mapping(t_uint256,t_struct(Listing)8873_storage)": {
        "encoding": "mapping",
        "key": "t_uint256",
        "label": "mapping(uint256 => struct Listing)",
        "numberOfBytes": "32",
        "value": "t_struct(Listing)8873_storage"
      },
      "t_mapping(t_uint8,t_uint256)": {
        "encoding": "mapping",
        "key": "t_uint8",
        "label": "mapping(uint8 => uint256)",
        "numberOfBytes": "32",
        "value": "t_uint256"
      },
      "t_struct(Listing)8873_storage": {
        "encoding": "inplace",
        "label": "struct Listing",
        "members": [
          {
            "astId": 8863,
            "contract": "contracts/MarketplaceLootbox.sol:MarketplaceLootbox",
            "label": "owner",
            "offset": 0,
            "slot": "0",
            "type": "t_address"
          },
          {
            "astId": 8865,
            "contract": "contracts/MarketplaceLootbox.sol:MarketplaceLootbox",
            "label": "isActive",
            "offset": 20,
            "slot": "0",
            "type": "t_bool"
          },
          {
            "astId": 8867,
            "contract": "contracts/MarketplaceLootbox.sol:MarketplaceLootbox",
            "label": "tokenId",
            "offset": 0,
            "slot": "1",
            "type": "t_uint256"
          },
          {
            "astId": 8869,
            "contract": "contracts/MarketplaceLootbox.sol:MarketplaceLootbox",
            "label": "price",
            "offset": 0,
            "slot": "2",
            "type": "t_uint256"
          },
          {
            "astId": 8872,
            "contract": "contracts/MarketplaceLootbox.sol:MarketplaceLootbox",
            "label": "tokenAddress",
            "offset": 0,
            "slot": "3",
            "type": "t_contract(IERC20)1363"
          }
        ],
        "numberOfBytes": "128"
      },
      "t_struct(PurchaseLimit)8878_storage": {
        "encoding": "inplace",
        "label": "struct PurchaseLimit",
        "members": [
          {
            "astId": 8875,
            "contract": "contracts/MarketplaceLootbox.sol:MarketplaceLootbox",
            "label": "gwbLimit",
            "offset": 0,
            "slot": "0",
            "type": "t_uint256"
          },
          {
            "astId": 8877,
            "contract": "contracts/MarketplaceLootbox.sol:MarketplaceLootbox",
            "label": "nbLimit",
            "offset": 0,
            "slot": "1",
            "type": "t_uint256"
          }
        ],
        "numberOfBytes": "64"
      },
      "t_uint256": {
        "encoding": "inplace",
        "label": "uint256",
        "numberOfBytes": "32"
      },
      "t_uint8": {
        "encoding": "inplace",
        "label": "uint8",
        "numberOfBytes": "1"
      }
    }
  }
}