{
  "address": "0xcB95d6C6D2485C1DCDA5a11F165ca289c31a0475",
  "abi": [
    {
      "inputs": [
        {
          "internalType": "contract IERC721",
          "name": "erc721Address",
          "type": "address"
        }
      ],
      "stateMutability": "nonpayable",
      "type": "constructor"
    },
    {
      "anonymous": false,
      "inputs": [
        {
          "indexed": false,
          "internalType": "uint256",
          "name": "fee1",
          "type": "uint256"
        },
        {
          "indexed": false,
          "internalType": "address",
          "name": "treasury1",
          "type": "address"
        },
        {
          "indexed": false,
          "internalType": "uint256",
          "name": "fee2",
          "type": "uint256"
        },
        {
          "indexed": false,
          "internalType": "address",
          "name": "treasury2",
          "type": "address"
        },
        {
          "indexed": false,
          "internalType": "address",
          "name": "changedBy",
          "type": "address"
        }
      ],
      "name": "FeesChanged",
      "type": "event"
    },
    {
      "anonymous": false,
      "inputs": [
        {
          "indexed": false,
          "internalType": "uint256",
          "name": "listingId",
          "type": "uint256"
        },
        {
          "indexed": false,
          "internalType": "uint256",
          "name": "tokenId",
          "type": "uint256"
        },
        {
          "indexed": false,
          "internalType": "address",
          "name": "seller",
          "type": "address"
        }
      ],
      "name": "ItemDelisted",
      "type": "event"
    },
    {
      "anonymous": false,
      "inputs": [
        {
          "indexed": false,
          "internalType": "uint256",
          "name": "listingId",
          "type": "uint256"
        },
        {
          "indexed": false,
          "internalType": "uint256",
          "name": "tokenId",
          "type": "uint256"
        },
        {
          "indexed": false,
          "internalType": "address",
          "name": "seller",
          "type": "address"
        },
        {
          "indexed": false,
          "internalType": "uint256",
          "name": "price",
          "type": "uint256"
        },
        {
          "indexed": false,
          "internalType": "address",
          "name": "payTokenAddress",
          "type": "address"
        }
      ],
      "name": "ItemListed",
      "type": "event"
    },
    {
      "anonymous": false,
      "inputs": [
        {
          "indexed": false,
          "internalType": "uint256",
          "name": "listingId",
          "type": "uint256"
        },
        {
          "indexed": false,
          "internalType": "uint256",
          "name": "tokenId",
          "type": "uint256"
        },
        {
          "indexed": false,
          "internalType": "address",
          "name": "seller",
          "type": "address"
        },
        {
          "indexed": false,
          "internalType": "address",
          "name": "buyer",
          "type": "address"
        },
        {
          "indexed": false,
          "internalType": "uint256",
          "name": "price",
          "type": "uint256"
        },
        {
          "indexed": false,
          "internalType": "uint256",
          "name": "fee1",
          "type": "uint256"
        },
        {
          "indexed": false,
          "internalType": "uint256",
          "name": "fee2",
          "type": "uint256"
        }
      ],
      "name": "ItemSold",
      "type": "event"
    },
    {
      "anonymous": false,
      "inputs": [
        {
          "indexed": true,
          "internalType": "address",
          "name": "previousOwner",
          "type": "address"
        },
        {
          "indexed": true,
          "internalType": "address",
          "name": "newOwner",
          "type": "address"
        }
      ],
      "name": "OwnershipTransferred",
      "type": "event"
    },
    {
      "anonymous": false,
      "inputs": [
        {
          "indexed": false,
          "internalType": "address",
          "name": "account",
          "type": "address"
        }
      ],
      "name": "Paused",
      "type": "event"
    },
    {
      "anonymous": false,
      "inputs": [
        {
          "indexed": false,
          "internalType": "address",
          "name": "account",
          "type": "address"
        }
      ],
      "name": "Unpaused",
      "type": "event"
    },
    {
      "anonymous": false,
      "inputs": [
        {
          "indexed": false,
          "internalType": "address[]",
          "name": "whitelists",
          "type": "address[]"
        }
      ],
      "name": "WhitelistAdded",
      "type": "event"
    },
    {
      "anonymous": false,
      "inputs": [
        {
          "indexed": false,
          "internalType": "address[]",
          "name": "whitelists",
          "type": "address[]"
        }
      ],
      "name": "WhitelistRemoved",
      "type": "event"
    },
    {
      "inputs": [],
      "name": "DECIMAL_FACTOR",
      "outputs": [
        {
          "internalType": "uint256",
          "name": "",
          "type": "uint256"
        }
      ],
      "stateMutability": "view",
      "type": "function"
    },
    {
      "inputs": [],
      "name": "activeListingCount",
      "outputs": [
        {
          "internalType": "uint256",
          "name": "",
          "type": "uint256"
        }
      ],
      "stateMutability": "view",
      "type": "function"
    },
    {
      "inputs": [
        {
          "internalType": "uint256",
          "name": "tokenId",
          "type": "uint256"
        },
        {
          "internalType": "uint256",
          "name": "price",
          "type": "uint256"
        },
        {
          "internalType": "contract IERC20",
          "name": "payTokenAddress",
          "type": "address"
        }
      ],
      "name": "addListing",
      "outputs": [],
      "stateMutability": "nonpayable",
      "type": "function"
    },
    {
      "inputs": [
        {
          "internalType": "uint256",
          "name": "listingId",
          "type": "uint256"
        }
      ],
      "name": "buy",
      "outputs": [],
      "stateMutability": "payable",
      "type": "function"
    },
    {
      "inputs": [],
      "name": "listingCount",
      "outputs": [
        {
          "internalType": "uint256",
          "name": "",
          "type": "uint256"
        }
      ],
      "stateMutability": "view",
      "type": "function"
    },
    {
      "inputs": [
        {
          "internalType": "uint256",
          "name": "",
          "type": "uint256"
        }
      ],
      "name": "listings",
      "outputs": [
        {
          "internalType": "address",
          "name": "owner",
          "type": "address"
        },
        {
          "internalType": "bool",
          "name": "isActive",
          "type": "bool"
        },
        {
          "internalType": "uint256",
          "name": "tokenId",
          "type": "uint256"
        },
        {
          "internalType": "uint256",
          "name": "price",
          "type": "uint256"
        },
        {
          "internalType": "contract IERC20",
          "name": "tokenAddress",
          "type": "address"
        }
      ],
      "stateMutability": "view",
      "type": "function"
    },
    {
      "inputs": [],
      "name": "owner",
      "outputs": [
        {
          "internalType": "address",
          "name": "",
          "type": "address"
        }
      ],
      "stateMutability": "view",
      "type": "function"
    },
    {
      "inputs": [
        {
          "internalType": "bool",
          "name": "stop",
          "type": "bool"
        }
      ],
      "name": "pause",
      "outputs": [],
      "stateMutability": "nonpayable",
      "type": "function"
    },
    {
      "inputs": [],
      "name": "paused",
      "outputs": [
        {
          "internalType": "bool",
          "name": "",
          "type": "bool"
        }
      ],
      "stateMutability": "view",
      "type": "function"
    },
    {
      "inputs": [
        {
          "internalType": "uint256",
          "name": "listingId",
          "type": "uint256"
        }
      ],
      "name": "removeListing",
      "outputs": [],
      "stateMutability": "nonpayable",
      "type": "function"
    },
    {
      "inputs": [
        {
          "internalType": "address[]",
          "name": "_whitelist",
          "type": "address[]"
        }
      ],
      "name": "removeWhitelistTokens",
      "outputs": [],
      "stateMutability": "nonpayable",
      "type": "function"
    },
    {
      "inputs": [],
      "name": "renounceOwnership",
      "outputs": [],
      "stateMutability": "nonpayable",
      "type": "function"
    },
    {
      "inputs": [
        {
          "internalType": "uint256",
          "name": "_fee1",
          "type": "uint256"
        },
        {
          "internalType": "address",
          "name": "_treasury1",
          "type": "address"
        },
        {
          "internalType": "uint256",
          "name": "_fee2",
          "type": "uint256"
        },
        {
          "internalType": "address",
          "name": "_treasury2",
          "type": "address"
        }
      ],
      "name": "setFee",
      "outputs": [],
      "stateMutability": "nonpayable",
      "type": "function"
    },
    {
      "inputs": [
        {
          "internalType": "address[]",
          "name": "_whitelist",
          "type": "address[]"
        }
      ],
      "name": "setWhitelistTokens",
      "outputs": [],
      "stateMutability": "nonpayable",
      "type": "function"
    },
    {
      "inputs": [
        {
          "internalType": "address",
          "name": "newOwner",
          "type": "address"
        }
      ],
      "name": "transferOwnership",
      "outputs": [],
      "stateMutability": "nonpayable",
      "type": "function"
    },
    {
      "inputs": [
        {
          "internalType": "address",
          "name": "",
          "type": "address"
        }
      ],
      "name": "whitelistedTokens",
      "outputs": [
        {
          "internalType": "bool",
          "name": "",
          "type": "bool"
        }
      ],
      "stateMutability": "view",
      "type": "function"
    }
  ],
  "transactionHash": "0xf1ba98c390975b76280c3cee0133d55c8f81b2462af25c30bf26a261214445b8",
  "args": [
    "0xb1e2ba7D374e3A9B4EefbF8Df49516B277459b78"
  ],
  "numDeployments": 1,
  "solcInputHash": "9679bf2be07d0d5ae98ab346fabce69b",
  "bytecode": "0x60806040523480156200001157600080fd5b5060405162001a8238038062001a82833981016040819052620000349162000114565b60016000556200004433620000c2565b6001805460ff60a01b1916815560408051808201909152908152603160f81b60208201526001600160a01b0382166200009b5760405162461bcd60e51b815260040162000092919062000146565b60405180910390fd5b50600a80546001600160a01b0319166001600160a01b03929092169190911790556200019e565b600180546001600160a01b038381166001600160a01b0319831681179093556040519116919082907f8be0079c531659141344cd1fd0a4f28419497f9722a3daafe3b4186f6b6457e090600090a35050565b6000602082840312156200012757600080fd5b81516001600160a01b03811681146200013f57600080fd5b9392505050565b600060208083528351808285015260005b81811015620001755785810183015185820160400152820162000157565b8181111562000188576000604083870101525b50601f01601f1916929092016040019392505050565b6118d480620001ae6000396000f3fe6080604052600436106100f35760003560e01c80638da5cb5b1161008a578063d96a094a11610059578063d96a094a14610277578063daf9c2101461028a578063de74e57b146102ba578063f2fde38b1461034657600080fd5b80638da5cb5b146101f9578063a9b07c2614610221578063b25706f314610237578063cf49e50a1461025757600080fd5b80634681a7c6116100c65780634681a7c614610183578063479ad4c3146101995780635c975abb146101b9578063715018a6146101e457600080fd5b806302329a29146100f857806326c0eb171461011a578063278b40771461013a57806333fdbbe51461015a575b600080fd5b34801561010457600080fd5b50610118610113366004611546565b610366565b005b34801561012657600080fd5b50610118610135366004611578565b610387565b34801561014657600080fd5b506101186101553660046115b1565b6105e5565b34801561016657600080fd5b5061017061271081565b6040519081526020015b60405180910390f35b34801561018f57600080fd5b5061017060035481565b3480156101a557600080fd5b506101186101b43660046115fb565b610756565b3480156101c557600080fd5b50600154600160a01b900460ff165b604051901515815260200161017a565b3480156101f057600080fd5b506101186108eb565b34801561020557600080fd5b506001546040516001600160a01b03909116815260200161017a565b34801561022d57600080fd5b5061017060025481565b34801561024357600080fd5b50610118610252366004611614565b6108ff565b34801561026357600080fd5b50610118610272366004611614565b610a24565b6101186102853660046115fb565b610b3d565b34801561029657600080fd5b506101d46102a5366004611689565b60086020526000908152604090205460ff1681565b3480156102c657600080fd5b506103126102d53660046115fb565b60096020526000908152604090208054600182015460028301546003909301546001600160a01b0380841694600160a01b90940460ff1693911685565b604080516001600160a01b03968716815294151560208601528401929092526060830152909116608082015260a00161017a565b34801561035257600080fd5b50610118610361366004611689565b611025565b61036e61109b565b801561037f5761037c6110f5565b50565b61037c611155565b600260005414156103b35760405162461bcd60e51b81526004016103aa906116a6565b60405180910390fd5b60026000556103c0611191565b6040805180820190915260018152601960f91b6020820152826103f65760405162461bcd60e51b81526004016103aa9190611709565b506001600160a01b0381161561045e576001600160a01b0381166000908152600860209081526040918290205482518084019093526002835261313360f01b9183019190915260ff1661045c5760405162461bcd60e51b81526004016103aa9190611709565b505b600280546040805160a081018252338152600160208083018281528385018a8152606085018a81526001600160a01b038a81166080880190815260008a81526009909652979094209551865493511515600160a01b026001600160a81b03199094169085161792909217855551848401555183870155925160039092018054929093166001600160a01b031990921691909117909155915490916105029190611752565b600255600354610513906001611752565b600355600a546001600160a01b03166323b872dd3330876040518463ffffffff1660e01b81526004016105489392919061176a565b600060405180830381600087803b15801561056257600080fd5b505af1158015610576573d6000803e3d6000fd5b505050507fdf1244428a7b48d2acd17fb49cd78f241dcef1479d83339825675596eddf98be81856105a43390565b6040805193845260208401929092526001600160a01b03908116838301526060830187905285166080830152519081900360a00190a1505060016000555050565b6105ed61109b565b6127106105fa8386611752565b10604051806040016040528060018152602001603560f81b815250906106335760405162461bcd60e51b81526004016103aa9190611709565b506040805180820190915260018152603160f81b60208201526001600160a01b0384166106735760405162461bcd60e51b81526004016103aa9190611709565b506040805180820190915260018152603160f81b60208201526001600160a01b0382166106b35760405162461bcd60e51b81526004016103aa9190611709565b506004849055600580546001600160a01b038086166001600160a01b031992831681179093556006859055600780549185169190921681179091557f411e041470d4dfedf5a73fbf6f67504194747ee8253ff0c2761da0c9e4e53b57918691859061071b3390565b604080519586526001600160a01b0394851660208701528501929092528216606084015216608082015260a00160405180910390a150505050565b600260005414156107795760405162461bcd60e51b81526004016103aa906116a6565b600260009081558181526009602052604090203381546040805180820190915260018152603360f81b6020820152916001600160a01b039182169116146107d35760405162461bcd60e51b81526004016103aa9190611709565b5080546040805180820190915260028152610c4d60f21b602082015290600160a01b900460ff166108175760405162461bcd60e51b81526004016103aa9190611709565b50805460ff60a01b19168155600a5460018201546040516323b872dd60e01b81526001600160a01b03909216916323b872dd9161085a913091339160040161176a565b600060405180830381600087803b15801561087457600080fd5b505af1158015610888573d6000803e3d6000fd5b50505050600160035461089b919061178e565b60035560018101546040805184815260208101929092523382820152517f30411792a34feb0f32a6be64e1996fa803c4505bbf6314f391f3d63c24ae52d59181900360600190a150506001600055565b6108f361109b565b6108fd60006111de565b565b61090761109b565b60005b818110156109e6576000838383818110610926576109266117a5565b905060200201602081019061093b9190611689565b6001600160a01b03161415604051806040016040528060018152602001603160f81b8152509061097e5760405162461bcd60e51b81526004016103aa9190611709565b50600060086000858585818110610997576109976117a5565b90506020020160208101906109ac9190611689565b6001600160a01b031681526020810191909152604001600020805460ff1916911515919091179055806109de816117bb565b91505061090a565b507f1d474f57a5c483b47a8bf6006e39086f96dd040a00cb348e22f80a4ca2c6f2228282604051610a189291906117d6565b60405180910390a15050565b610a2c61109b565b60005b81811015610b0b576000838383818110610a4b57610a4b6117a5565b9050602002016020810190610a609190611689565b6001600160a01b03161415604051806040016040528060018152602001603160f81b81525090610aa35760405162461bcd60e51b81526004016103aa9190611709565b50600160086000858585818110610abc57610abc6117a5565b9050602002016020810190610ad19190611689565b6001600160a01b031681526020810191909152604001600020805460ff191691151591909117905580610b03816117bb565b915050610a2f565b507ff74f148a4f930a0f67a2c33ba932a14e3e91b4e6468f21e545932fd8251115388282604051610a189291906117d6565b60026000541415610b605760405162461bcd60e51b81526004016103aa906116a6565b6002600055610b6d611191565b60008181526009602090815260409182902054825180840190935260028352610c4d60f21b91830191909152600160a01b900460ff16610bc05760405162461bcd60e51b81526004016103aa9190611709565b506000818152600960205260408120805460ff60a01b1916815560038101546002909101546004546001600160a01b0390921692909161271090610c05908490611824565b610c0f9190611843565b9050600061271083600654610c249190611824565b610c2e9190611843565b90506001600160a01b038416610e5a576040805180820190915260018152601b60f91b6020820152348414610c765760405162461bcd60e51b81526004016103aa9190611709565b508115610d0f576005546040516000916001600160a01b03169084908381818185875af1925050503d8060008114610cca576040519150601f19603f3d011682016040523d82523d6000602084013e610ccf565b606091505b5050905080604051806040016040528060018152602001603760f81b81525090610d0c5760405162461bcd60e51b81526004016103aa9190611709565b50505b8015610da7576007546040516000916001600160a01b03169083908381818185875af1925050503d8060008114610d62576040519150601f19603f3d011682016040523d82523d6000602084013e610d67565b606091505b5050905080604051806040016040528060018152602001600760fb1b81525090610da45760405162461bcd60e51b81526004016103aa9190611709565b50505b6000858152600960205260408120546001600160a01b031682610dca858761178e565b610dd4919061178e565b604051600081818185875af1925050503d8060008114610e10576040519150601f19603f3d011682016040523d82523d6000602084013e610e15565b606091505b505090508060405180604001604052806002815260200161313560f01b81525090610e535760405162461bcd60e51b81526004016103aa9190611709565b5050610f17565b6040805180820190915260018152601b60f91b60208201523415610e915760405162461bcd60e51b81526004016103aa9190611709565b508115610eb357610eb3336005546001600160a01b0387811692911685611230565b8015610ed457610ed4336007546001600160a01b0387811692911684611230565b610f17336000878152600960205260409020546001600160a01b031683610efb868861178e565b610f05919061178e565b6001600160a01b038816929190611230565b600a54600086815260096020526040908190206001015490516323b872dd60e01b81526001600160a01b03909216916323b872dd91610f5c913091339160040161176a565b600060405180830381600087803b158015610f7657600080fd5b505af1158015610f8a573d6000803e3d6000fd5b505050506001600354610f9d919061178e565b600355600085815260096020908152604091829020600181015490548351898152928301919091526001600160a01b0316818301523360608201526080810185905260a0810184905260c0810183905290517fc9141a3ddac52db2f53a95c9610152ab9e2145dedee43277af213c5e2a7d39919181900360e00190a150506001600055505050565b61102d61109b565b6001600160a01b0381166110925760405162461bcd60e51b815260206004820152602660248201527f4f776e61626c653a206e6577206f776e657220697320746865207a65726f206160448201526564647265737360d01b60648201526084016103aa565b61037c816111de565b6001546001600160a01b031633146108fd5760405162461bcd60e51b815260206004820181905260248201527f4f776e61626c653a2063616c6c6572206973206e6f7420746865206f776e657260448201526064016103aa565b6110fd611191565b6001805460ff60a01b1916600160a01b1790557f62e78cea01bee320cd4e420270b5ea74000d11b0c9f74754ebdbfc544b05a2586111383390565b6040516001600160a01b03909116815260200160405180910390a1565b61115d61128e565b6001805460ff60a01b191690557f5db9ee0a495bf2e6ff9c91a7834c1ba4fdd244a5e8aa4e537bd38aeae4b073aa33611138565b600154600160a01b900460ff16156108fd5760405162461bcd60e51b815260206004820152601060248201526f14185d5cd8589b194e881c185d5cd95960821b60448201526064016103aa565b600180546001600160a01b038381166001600160a01b0319831681179093556040519116919082907f8be0079c531659141344cd1fd0a4f28419497f9722a3daafe3b4186f6b6457e090600090a35050565b611288846323b872dd60e01b8585856040516024016112519392919061176a565b60408051601f198184030181529190526020810180516001600160e01b03166001600160e01b0319909316929092179091526112de565b50505050565b600154600160a01b900460ff166108fd5760405162461bcd60e51b815260206004820152601460248201527314185d5cd8589b194e881b9bdd081c185d5cd95960621b60448201526064016103aa565b6000611333826040518060400160405280602081526020017f5361666545524332303a206c6f772d6c6576656c2063616c6c206661696c6564815250856001600160a01b03166113b59092919063ffffffff16565b8051909150156113b057808060200190518101906113519190611865565b6113b05760405162461bcd60e51b815260206004820152602a60248201527f5361666545524332303a204552433230206f7065726174696f6e20646964206e6044820152691bdd081cdd58d8d9595960b21b60648201526084016103aa565b505050565b60606113c484846000856113ce565b90505b9392505050565b60608247101561142f5760405162461bcd60e51b815260206004820152602660248201527f416464726573733a20696e73756666696369656e742062616c616e636520666f6044820152651c8818d85b1b60d21b60648201526084016103aa565b6001600160a01b0385163b6114865760405162461bcd60e51b815260206004820152601d60248201527f416464726573733a2063616c6c20746f206e6f6e2d636f6e747261637400000060448201526064016103aa565b600080866001600160a01b031685876040516114a29190611882565b60006040518083038185875af1925050503d80600081146114df576040519150601f19603f3d011682016040523d82523d6000602084013e6114e4565b606091505b50915091506114f48282866114ff565b979650505050505050565b6060831561150e5750816113c7565b82511561151e5782518084602001fd5b8160405162461bcd60e51b81526004016103aa9190611709565b801515811461037c57600080fd5b60006020828403121561155857600080fd5b81356113c781611538565b6001600160a01b038116811461037c57600080fd5b60008060006060848603121561158d57600080fd5b833592506020840135915060408401356115a681611563565b809150509250925092565b600080600080608085870312156115c757600080fd5b8435935060208501356115d981611563565b92506040850135915060608501356115f081611563565b939692955090935050565b60006020828403121561160d57600080fd5b5035919050565b6000806020838503121561162757600080fd5b823567ffffffffffffffff8082111561163f57600080fd5b818501915085601f83011261165357600080fd5b81358181111561166257600080fd5b8660208260051b850101111561167757600080fd5b60209290920196919550909350505050565b60006020828403121561169b57600080fd5b81356113c781611563565b6020808252601f908201527f5265656e7472616e637947756172643a207265656e7472616e742063616c6c00604082015260600190565b60005b838110156116f85781810151838201526020016116e0565b838111156112885750506000910152565b60208152600082518060208401526117288160408501602087016116dd565b601f01601f19169190910160400192915050565b634e487b7160e01b600052601160045260246000fd5b600082198211156117655761176561173c565b500190565b6001600160a01b039384168152919092166020820152604081019190915260600190565b6000828210156117a0576117a061173c565b500390565b634e487b7160e01b600052603260045260246000fd5b60006000198214156117cf576117cf61173c565b5060010190565b60208082528181018390526000908460408401835b868110156118195782356117fe81611563565b6001600160a01b0316825291830191908301906001016117eb565b509695505050505050565b600081600019048311821515161561183e5761183e61173c565b500290565b60008261186057634e487b7160e01b600052601260045260246000fd5b500490565b60006020828403121561187757600080fd5b81516113c781611538565b600082516118948184602087016116dd565b919091019291505056fea2646970667358221220b3c450eab2b9a02d9c0ee8166f1ea7e9ef2fc5fb6437879392dc20de93024e4f64736f6c63430008090033",
  "devdoc": {
    "details": "Based on OpenZeppelin Contracts.",
    "kind": "dev",
    "methods": {
      "addListing(uint256,uint256,address)": {
        "details": "Creates a new entry for a Listing object and transfers the Token to the contract",
        "params": {
          "price": "Price in NFTs.",
          "tokenId": "NFT TokenId."
        }
      },
      "buy(uint256)": {
        "details": "Trabsfers both the ERC20 token (price) and the NFT.",
        "params": {
          "listingId": "NFT Listing Id."
        }
      },
      "constructor": {
        "details": "Setup the two contracts it will interact with : ERC721 and ERC20",
        "params": {
          "erc721Address": "Address of the NFT Contract."
        }
      },
      "owner()": {
        "details": "Returns the address of the current owner."
      },
      "paused()": {
        "details": "Returns true if the contract is paused, and false otherwise."
      },
      "removeListing(uint256)": {
        "details": "Marks Listing as not active object and transfers the Token back",
        "params": {
          "listingId": "NFT Listing Id."
        }
      },
      "renounceOwnership()": {
        "details": "Leaves the contract without owner. It will not be possible to call `onlyOwner` functions anymore. Can only be called by the current owner. NOTE: Renouncing ownership will leave the contract without an owner, thereby removing any functionality that is only available to the owner."
      },
      "setFee(uint256,address,uint256,address)": {
        "params": {
          "_fee1": "new Fee1.",
          "_fee2": "new Fee2.",
          "_treasury1": "New treasury1 address.",
          "_treasury2": "New treasury2 address."
        }
      },
      "transferOwnership(address)": {
        "details": "Transfers ownership of the contract to a new account (`newOwner`). Can only be called by the current owner."
      }
    },
    "title": "Blast Royale Token - $BLT",
    "version": 1
  },
  "userdoc": {
    "events": {
      "FeesChanged(uint256,address,uint256,address,address)": {
        "notice": "Event Fee changed"
      },
      "ItemDelisted(uint256,uint256,address)": {
        "notice": "Event Delisted"
      },
      "ItemListed(uint256,uint256,address,uint256,address)": {
        "notice": "Event Listed"
      },
      "ItemSold(uint256,uint256,address,address,uint256,uint256,uint256)": {
        "notice": "EventItem Sold"
      }
    },
    "kind": "user",
    "methods": {
      "addListing(uint256,uint256,address)": {
        "notice": "add a Listing to the Marketplace"
      },
      "buy(uint256)": {
        "notice": "Buys a listed NFT"
      },
      "constructor": {
        "notice": "Token constructor"
      },
      "removeListing(uint256)": {
        "notice": "Remove a Listing from the Marketplace"
      },
      "setFee(uint256,address,uint256,address)": {
        "notice": "Sets a new Fee"
      }
    },
    "version": 1
  },
  "storageLayout": {
    "storage": [
      {
        "astId": 670,
        "contract": "contracts/Marketplace.sol:Marketplace",
        "label": "_status",
        "offset": 0,
        "slot": "0",
        "type": "t_uint256"
      },
      {
        "astId": 446,
        "contract": "contracts/Marketplace.sol:Marketplace",
        "label": "_owner",
        "offset": 0,
        "slot": "1",
        "type": "t_address"
      },
      {
        "astId": 569,
        "contract": "contracts/Marketplace.sol:Marketplace",
        "label": "_paused",
        "offset": 20,
        "slot": "1",
        "type": "t_bool"
      },
      {
        "astId": 8617,
        "contract": "contracts/Marketplace.sol:Marketplace",
        "label": "listingCount",
        "offset": 0,
        "slot": "2",
        "type": "t_uint256"
      },
      {
        "astId": 8619,
        "contract": "contracts/Marketplace.sol:Marketplace",
        "label": "activeListingCount",
        "offset": 0,
        "slot": "3",
        "type": "t_uint256"
      },
      {
        "astId": 8621,
        "contract": "contracts/Marketplace.sol:Marketplace",
        "label": "fee1",
        "offset": 0,
        "slot": "4",
        "type": "t_uint256"
      },
      {
        "astId": 8623,
        "contract": "contracts/Marketplace.sol:Marketplace",
        "label": "treasury1",
        "offset": 0,
        "slot": "5",
        "type": "t_address"
      },
      {
        "astId": 8625,
        "contract": "contracts/Marketplace.sol:Marketplace",
        "label": "fee2",
        "offset": 0,
        "slot": "6",
        "type": "t_uint256"
      },
      {
        "astId": 8627,
        "contract": "contracts/Marketplace.sol:Marketplace",
        "label": "treasury2",
        "offset": 0,
        "slot": "7",
        "type": "t_address"
      },
      {
        "astId": 8631,
        "contract": "contracts/Marketplace.sol:Marketplace",
        "label": "whitelistedTokens",
        "offset": 0,
        "slot": "8",
        "type": "t_mapping(t_address,t_bool)"
      },
      {
        "astId": 8636,
        "contract": "contracts/Marketplace.sol:Marketplace",
        "label": "listings",
        "offset": 0,
        "slot": "9",
        "type": "t_mapping(t_uint256,t_struct(Listing)8601_storage)"
      },
      {
        "astId": 8639,
        "contract": "contracts/Marketplace.sol:Marketplace",
        "label": "erc721Contract",
        "offset": 0,
        "slot": "10",
        "type": "t_contract(IERC721)2769"
      }
    ],
    "types": {
      "t_address": {
        "encoding": "inplace",
        "label": "address",
        "numberOfBytes": "20"
      },
      "t_bool": {
        "encoding": "inplace",
        "label": "bool",
        "numberOfBytes": "1"
      },
      "t_contract(IERC20)1363": {
        "encoding": "inplace",
        "label": "contract IERC20",
        "numberOfBytes": "20"
      },
      "t_contract(IERC721)2769": {
        "encoding": "inplace",
        "label": "contract IERC721",
        "numberOfBytes": "20"
      },
      "t_mapping(t_address,t_bool)": {
        "encoding": "mapping",
        "key": "t_address",
        "label": "mapping(address => bool)",
        "numberOfBytes": "32",
        "value": "t_bool"
      },
      "t_mapping(t_uint256,t_struct(Listing)8601_storage)": {
        "encoding": "mapping",
        "key": "t_uint256",
        "label": "mapping(uint256 => struct Listing)",
        "numberOfBytes": "32",
        "value": "t_struct(Listing)8601_storage"
      },
      "t_struct(Listing)8601_storage": {
        "encoding": "inplace",
        "label": "struct Listing",
        "members": [
          {
            "astId": 8591,
            "contract": "contracts/Marketplace.sol:Marketplace",
            "label": "owner",
            "offset": 0,
            "slot": "0",
            "type": "t_address"
          },
          {
            "astId": 8593,
            "contract": "contracts/Marketplace.sol:Marketplace",
            "label": "isActive",
            "offset": 20,
            "slot": "0",
            "type": "t_bool"
          },
          {
            "astId": 8595,
            "contract": "contracts/Marketplace.sol:Marketplace",
            "label": "tokenId",
            "offset": 0,
            "slot": "1",
            "type": "t_uint256"
          },
          {
            "astId": 8597,
            "contract": "contracts/Marketplace.sol:Marketplace",
            "label": "price",
            "offset": 0,
            "slot": "2",
            "type": "t_uint256"
          },
          {
            "astId": 8600,
            "contract": "contracts/Marketplace.sol:Marketplace",
            "label": "tokenAddress",
            "offset": 0,
            "slot": "3",
            "type": "t_contract(IERC20)1363"
          }
        ],
        "numberOfBytes": "128"
      },
      "t_uint256": {
        "encoding": "inplace",
        "label": "uint256",
        "numberOfBytes": "32"
      }
    }
  }
}