{
  "address": "0x37D218d68B8bDed1D014Bcdc7112979e1ADe9235",
  "abi": [
    {
      "inputs": [
        {
          "internalType": "string",
          "name": "name",
          "type": "string"
        },
        {
          "internalType": "string",
          "name": "symbol",
          "type": "string"
        },
        {
          "internalType": "address",
          "name": "_owner",
          "type": "address"
        },
        {
          "internalType": "address",
          "name": "_treasury",
          "type": "address"
        },
        {
          "internalType": "uint256",
          "name": "_supply",
          "type": "uint256"
        }
      ],
      "stateMutability": "nonpayable",
      "type": "constructor"
    },
    {
      "anonymous": false,
      "inputs": [
        {
          "indexed": true,
          "internalType": "address",
          "name": "owner",
          "type": "address"
        },
        {
          "indexed": true,
          "internalType": "address",
          "name": "spender",
          "type": "address"
        },
        {
          "indexed": false,
          "internalType": "uint256",
          "name": "value",
          "type": "uint256"
        }
      ],
      "name": "Approval",
      "type": "event"
    },
    {
      "anonymous": false,
      "inputs": [
        {
          "indexed": true,
          "internalType": "address",
          "name": "previousOwner",
          "type": "address"
        },
        {
          "indexed": true,
          "internalType": "address",
          "name": "newOwner",
          "type": "address"
        }
      ],
      "name": "OwnershipTransferred",
      "type": "event"
    },
    {
      "anonymous": false,
      "inputs": [
        {
          "indexed": false,
          "internalType": "address",
          "name": "account",
          "type": "address"
        }
      ],
      "name": "Paused",
      "type": "event"
    },
    {
      "anonymous": false,
      "inputs": [
        {
          "indexed": true,
          "internalType": "address",
          "name": "from",
          "type": "address"
        },
        {
          "indexed": true,
          "internalType": "address",
          "name": "to",
          "type": "address"
        },
        {
          "indexed": false,
          "internalType": "uint256",
          "name": "value",
          "type": "uint256"
        }
      ],
      "name": "Transfer",
      "type": "event"
    },
    {
      "anonymous": false,
      "inputs": [
        {
          "indexed": false,
          "internalType": "address",
          "name": "account",
          "type": "address"
        }
      ],
      "name": "Unpaused",
      "type": "event"
    },
    {
      "inputs": [
        {
          "internalType": "address",
          "name": "owner",
          "type": "address"
        },
        {
          "internalType": "address",
          "name": "spender",
          "type": "address"
        }
      ],
      "name": "allowance",
      "outputs": [
        {
          "internalType": "uint256",
          "name": "",
          "type": "uint256"
        }
      ],
      "stateMutability": "view",
      "type": "function"
    },
    {
      "inputs": [
        {
          "internalType": "address",
          "name": "spender",
          "type": "address"
        },
        {
          "internalType": "uint256",
          "name": "amount",
          "type": "uint256"
        }
      ],
      "name": "approve",
      "outputs": [
        {
          "internalType": "bool",
          "name": "",
          "type": "bool"
        }
      ],
      "stateMutability": "nonpayable",
      "type": "function"
    },
    {
      "inputs": [
        {
          "internalType": "address",
          "name": "account",
          "type": "address"
        }
      ],
      "name": "balanceOf",
      "outputs": [
        {
          "internalType": "uint256",
          "name": "",
          "type": "uint256"
        }
      ],
      "stateMutability": "view",
      "type": "function"
    },
    {
      "inputs": [],
      "name": "decimals",
      "outputs": [
        {
          "internalType": "uint8",
          "name": "",
          "type": "uint8"
        }
      ],
      "stateMutability": "view",
      "type": "function"
    },
    {
      "inputs": [
        {
          "internalType": "address",
          "name": "spender",
          "type": "address"
        },
        {
          "internalType": "uint256",
          "name": "subtractedValue",
          "type": "uint256"
        }
      ],
      "name": "decreaseAllowance",
      "outputs": [
        {
          "internalType": "bool",
          "name": "",
          "type": "bool"
        }
      ],
      "stateMutability": "nonpayable",
      "type": "function"
    },
    {
      "inputs": [
        {
          "internalType": "address",
          "name": "spender",
          "type": "address"
        },
        {
          "internalType": "uint256",
          "name": "addedValue",
          "type": "uint256"
        }
      ],
      "name": "increaseAllowance",
      "outputs": [
        {
          "internalType": "bool",
          "name": "",
          "type": "bool"
        }
      ],
      "stateMutability": "nonpayable",
      "type": "function"
    },
    {
      "inputs": [],
      "name": "name",
      "outputs": [
        {
          "internalType": "string",
          "name": "",
          "type": "string"
        }
      ],
      "stateMutability": "view",
      "type": "function"
    },
    {
      "inputs": [],
      "name": "owner",
      "outputs": [
        {
          "internalType": "address",
          "name": "",
          "type": "address"
        }
      ],
      "stateMutability": "view",
      "type": "function"
    },
    {
      "inputs": [],
      "name": "pause",
      "outputs": [],
      "stateMutability": "nonpayable",
      "type": "function"
    },
    {
      "inputs": [],
      "name": "paused",
      "outputs": [
        {
          "internalType": "bool",
          "name": "",
          "type": "bool"
        }
      ],
      "stateMutability": "view",
      "type": "function"
    },
    {
      "inputs": [],
      "name": "renounceOwnership",
      "outputs": [],
      "stateMutability": "nonpayable",
      "type": "function"
    },
    {
      "inputs": [],
      "name": "symbol",
      "outputs": [
        {
          "internalType": "string",
          "name": "",
          "type": "string"
        }
      ],
      "stateMutability": "view",
      "type": "function"
    },
    {
      "inputs": [],
      "name": "totalSupply",
      "outputs": [
        {
          "internalType": "uint256",
          "name": "",
          "type": "uint256"
        }
      ],
      "stateMutability": "view",
      "type": "function"
    },
    {
      "inputs": [
        {
          "internalType": "address",
          "name": "to",
          "type": "address"
        },
        {
          "internalType": "uint256",
          "name": "amount",
          "type": "uint256"
        }
      ],
      "name": "transfer",
      "outputs": [
        {
          "internalType": "bool",
          "name": "",
          "type": "bool"
        }
      ],
      "stateMutability": "nonpayable",
      "type": "function"
    },
    {
      "inputs": [
        {
          "internalType": "address",
          "name": "from",
          "type": "address"
        },
        {
          "internalType": "address",
          "name": "to",
          "type": "address"
        },
        {
          "internalType": "uint256",
          "name": "amount",
          "type": "uint256"
        }
      ],
      "name": "transferFrom",
      "outputs": [
        {
          "internalType": "bool",
          "name": "",
          "type": "bool"
        }
      ],
      "stateMutability": "nonpayable",
      "type": "function"
    },
    {
      "inputs": [
        {
          "internalType": "address",
          "name": "newOwner",
          "type": "address"
        }
      ],
      "name": "transferOwnership",
      "outputs": [],
      "stateMutability": "nonpayable",
      "type": "function"
    },
    {
      "inputs": [],
      "name": "unpause",
      "outputs": [],
      "stateMutability": "nonpayable",
      "type": "function"
    }
  ],
  "transactionHash": "0x9dfe2a14ad1d39c21d56ba28af7b5695c0fd418f2fd548d727420566af9ba36e",
  "args": [
    "TestBlast",
    "TestBLST",
    "0x7Ac410F4E36873022b57821D7a8EB3D7513C045a",
    "0x7Ac410F4E36873022b57821D7a8EB3D7513C045a",
    "512000000000000000000000000"
  ],
  "numDeployments": 1,
  "solcInputHash": "b7caf7116d2ec06d392c187715787bdb",
  "bytecode": "0x60806040523480156200001157600080fd5b5060405162001228380380620012288339810160408190526200003491620004cb565b8451859085906200004d9060039060208501906200033b565b508051620000639060049060208401906200033b565b50506005805460ff19169055506200007b3362000151565b6001600160a01b038216620000d75760405162461bcd60e51b815260206004820152601e60248201527f54726561737572792063616e2774206265207a65726f2061646472657373000060448201526064015b60405180910390fd5b6001600160a01b0383166200012f5760405162461bcd60e51b815260206004820152601b60248201527f4f776e65722063616e2774206265207a65726f206164647265737300000000006044820152606401620000ce565b6200013b8282620001ab565b620001468362000151565b5050505050620005c8565b600580546001600160a01b03838116610100818102610100600160a81b031985161790945560405193909204169182907f8be0079c531659141344cd1fd0a4f28419497f9722a3daafe3b4186f6b6457e090600090a35050565b6001600160a01b038216620002035760405162461bcd60e51b815260206004820152601f60248201527f45524332303a206d696e7420746f20746865207a65726f2061646472657373006044820152606401620000ce565b62000211600083836200029e565b806002600082825462000225919062000564565b90915550506001600160a01b038216600090815260208190526040812080548392906200025490849062000564565b90915550506040518181526001600160a01b038316906000907fddf252ad1be2c89b69c2b068fc378daa952ba7f163c4a11628f55a4df523b3ef9060200160405180910390a35050565b620002b6838383620002bb60201b620004c81760201c565b505050565b620002d3838383620002b660201b6200052e1760201c565b60055460ff1615620002b65760405162461bcd60e51b815260206004820152602a60248201527f45524332305061757361626c653a20746f6b656e207472616e736665722077686044820152691a5b19481c185d5cd95960b21b6064820152608401620000ce565b82805462000349906200058b565b90600052602060002090601f0160209004810192826200036d5760008555620003b8565b82601f106200038857805160ff1916838001178555620003b8565b82800160010185558215620003b8579182015b82811115620003b85782518255916020019190600101906200039b565b50620003c6929150620003ca565b5090565b5b80821115620003c65760008155600101620003cb565b634e487b7160e01b600052604160045260246000fd5b600082601f8301126200040957600080fd5b81516001600160401b0380821115620004265762000426620003e1565b604051601f8301601f19908116603f01168101908282118183101715620004515762000451620003e1565b816040528381526020925086838588010111156200046e57600080fd5b600091505b8382101562000492578582018301518183018401529082019062000473565b83821115620004a45760008385830101525b9695505050505050565b80516001600160a01b0381168114620004c657600080fd5b919050565b600080600080600060a08688031215620004e457600080fd5b85516001600160401b0380821115620004fc57600080fd5b6200050a89838a01620003f7565b965060208801519150808211156200052157600080fd5b506200053088828901620003f7565b9450506200054160408701620004ae565b92506200055160608701620004ae565b9150608086015190509295509295909350565b600082198211156200058657634e487b7160e01b600052601160045260246000fd5b500190565b600181811c90821680620005a057607f821691505b60208210811415620005c257634e487b7160e01b600052602260045260246000fd5b50919050565b610c5080620005d86000396000f3fe608060405234801561001057600080fd5b506004361061010b5760003560e01c806370a08231116100a257806395d89b411161007157806395d89b411461020f578063a457c2d714610217578063a9059cbb1461022a578063dd62ed3e1461023d578063f2fde38b1461025057600080fd5b806370a08231146101ad578063715018a6146101d65780638456cb59146101de5780638da5cb5b146101e657600080fd5b8063313ce567116100de578063313ce5671461017657806339509351146101855780633f4ba83a146101985780635c975abb146101a257600080fd5b806306fdde0314610110578063095ea7b31461012e57806318160ddd1461015157806323b872dd14610163575b600080fd5b610118610263565b6040516101259190610a8d565b60405180910390f35b61014161013c366004610afe565b6102f5565b6040519015158152602001610125565b6002545b604051908152602001610125565b610141610171366004610b28565b61030d565b60405160128152602001610125565b610141610193366004610afe565b610331565b6101a0610353565b005b60055460ff16610141565b6101556101bb366004610b64565b6001600160a01b031660009081526020819052604090205490565b6101a0610365565b6101a0610377565b60055461010090046001600160a01b03166040516001600160a01b039091168152602001610125565b610118610387565b610141610225366004610afe565b610396565b610141610238366004610afe565b610416565b61015561024b366004610b86565b610424565b6101a061025e366004610b64565b61044f565b60606003805461027290610bb9565b80601f016020809104026020016040519081016040528092919081815260200182805461029e90610bb9565b80156102eb5780601f106102c0576101008083540402835291602001916102eb565b820191906000526020600020905b8154815290600101906020018083116102ce57829003601f168201915b5050505050905090565b600033610303818585610533565b5060019392505050565b60003361031b858285610657565b6103268585856106d1565b506001949350505050565b6000336103038185856103448383610424565b61034e9190610bf4565b610533565b61035b6108aa565b61036361090a565b565b61036d6108aa565b610363600061095c565b61037f6108aa565b6103636109b6565b60606004805461027290610bb9565b600033816103a48286610424565b9050838110156104095760405162461bcd60e51b815260206004820152602560248201527f45524332303a2064656372656173656420616c6c6f77616e63652062656c6f77604482015264207a65726f60d81b60648201526084015b60405180910390fd5b6103268286868403610533565b6000336103038185856106d1565b6001600160a01b03918216600090815260016020908152604080832093909416825291909152205490565b6104576108aa565b6001600160a01b0381166104bc5760405162461bcd60e51b815260206004820152602660248201527f4f776e61626c653a206e6577206f776e657220697320746865207a65726f206160448201526564647265737360d01b6064820152608401610400565b6104c58161095c565b50565b60055460ff161561052e5760405162461bcd60e51b815260206004820152602a60248201527f45524332305061757361626c653a20746f6b656e207472616e736665722077686044820152691a5b19481c185d5cd95960b21b6064820152608401610400565b505050565b6001600160a01b0383166105955760405162461bcd60e51b8152602060048201526024808201527f45524332303a20617070726f76652066726f6d20746865207a65726f206164646044820152637265737360e01b6064820152608401610400565b6001600160a01b0382166105f65760405162461bcd60e51b815260206004820152602260248201527f45524332303a20617070726f766520746f20746865207a65726f206164647265604482015261737360f01b6064820152608401610400565b6001600160a01b0383811660008181526001602090815260408083209487168084529482529182902085905590518481527f8c5be1e5ebec7d5bd14f71427d1e84f3dd0314c0f7b2291e5b200ac8c7c3b925910160405180910390a3505050565b60006106638484610424565b905060001981146106cb57818110156106be5760405162461bcd60e51b815260206004820152601d60248201527f45524332303a20696e73756666696369656e7420616c6c6f77616e63650000006044820152606401610400565b6106cb8484848403610533565b50505050565b6001600160a01b0383166107355760405162461bcd60e51b815260206004820152602560248201527f45524332303a207472616e736665722066726f6d20746865207a65726f206164604482015264647265737360d81b6064820152608401610400565b6001600160a01b0382166107975760405162461bcd60e51b815260206004820152602360248201527f45524332303a207472616e7366657220746f20746865207a65726f206164647260448201526265737360e81b6064820152608401610400565b6107a28383836109f3565b6001600160a01b0383166000908152602081905260409020548181101561081a5760405162461bcd60e51b815260206004820152602660248201527f45524332303a207472616e7366657220616d6f756e7420657863656564732062604482015265616c616e636560d01b6064820152608401610400565b6001600160a01b03808516600090815260208190526040808220858503905591851681529081208054849290610851908490610bf4565b92505081905550826001600160a01b0316846001600160a01b03167fddf252ad1be2c89b69c2b068fc378daa952ba7f163c4a11628f55a4df523b3ef8460405161089d91815260200190565b60405180910390a36106cb565b6005546001600160a01b036101009091041633146103635760405162461bcd60e51b815260206004820181905260248201527f4f776e61626c653a2063616c6c6572206973206e6f7420746865206f776e65726044820152606401610400565b6109126109fe565b6005805460ff191690557f5db9ee0a495bf2e6ff9c91a7834c1ba4fdd244a5e8aa4e537bd38aeae4b073aa335b6040516001600160a01b03909116815260200160405180910390a1565b600580546001600160a01b03838116610100818102610100600160a81b031985161790945560405193909204169182907f8be0079c531659141344cd1fd0a4f28419497f9722a3daafe3b4186f6b6457e090600090a35050565b6109be610a47565b6005805460ff191660011790557f62e78cea01bee320cd4e420270b5ea74000d11b0c9f74754ebdbfc544b05a25861093f3390565b61052e8383836104c8565b60055460ff166103635760405162461bcd60e51b815260206004820152601460248201527314185d5cd8589b194e881b9bdd081c185d5cd95960621b6044820152606401610400565b60055460ff16156103635760405162461bcd60e51b815260206004820152601060248201526f14185d5cd8589b194e881c185d5cd95960821b6044820152606401610400565b600060208083528351808285015260005b81811015610aba57858101830151858201604001528201610a9e565b81811115610acc576000604083870101525b50601f01601f1916929092016040019392505050565b80356001600160a01b0381168114610af957600080fd5b919050565b60008060408385031215610b1157600080fd5b610b1a83610ae2565b946020939093013593505050565b600080600060608486031215610b3d57600080fd5b610b4684610ae2565b9250610b5460208501610ae2565b9150604084013590509250925092565b600060208284031215610b7657600080fd5b610b7f82610ae2565b9392505050565b60008060408385031215610b9957600080fd5b610ba283610ae2565b9150610bb060208401610ae2565b90509250929050565b600181811c90821680610bcd57607f821691505b60208210811415610bee57634e487b7160e01b600052602260045260246000fd5b50919050565b60008219821115610c1557634e487b7160e01b600052601160045260246000fd5b50019056fea2646970667358221220263948b7c07adf1f99d021c6e68a795b3f3c1cdd1689e5d173e7d47c7f97157764736f6c63430008090033",
  "devdoc": {
    "details": "Based on OpenZeppelin Contracts.",
    "kind": "dev",
    "methods": {
      "allowance(address,address)": {
        "details": "See {IERC20-allowance}."
      },
      "approve(address,uint256)": {
        "details": "See {IERC20-approve}. NOTE: If `amount` is the maximum `uint256`, the allowance is not updated on `transferFrom`. This is semantically equivalent to an infinite approval. Requirements: - `spender` cannot be the zero address."
      },
      "balanceOf(address)": {
        "details": "See {IERC20-balanceOf}."
      },
      "constructor": {
        "details": "Creates the token and setup the initial supply and the Admin Role.",
        "params": {
          "_supply": "Initial Supply",
          "_treasury": "Treasury address",
          "name": "Name of the Token",
          "symbol": "Symbol of the token"
        }
      },
      "decimals()": {
        "details": "Returns the number of decimals used to get its user representation. For example, if `decimals` equals `2`, a balance of `505` tokens should be displayed to a user as `5.05` (`505 / 10 ** 2`). Tokens usually opt for a value of 18, imitating the relationship between Ether and Wei. This is the value {ERC20} uses, unless this function is overridden; NOTE: This information is only used for _display_ purposes: it in no way affects any of the arithmetic of the contract, including {IERC20-balanceOf} and {IERC20-transfer}."
      },
      "decreaseAllowance(address,uint256)": {
        "details": "Atomically decreases the allowance granted to `spender` by the caller. This is an alternative to {approve} that can be used as a mitigation for problems described in {IERC20-approve}. Emits an {Approval} event indicating the updated allowance. Requirements: - `spender` cannot be the zero address. - `spender` must have allowance for the caller of at least `subtractedValue`."
      },
      "increaseAllowance(address,uint256)": {
        "details": "Atomically increases the allowance granted to `spender` by the caller. This is an alternative to {approve} that can be used as a mitigation for problems described in {IERC20-approve}. Emits an {Approval} event indicating the updated allowance. Requirements: - `spender` cannot be the zero address."
      },
      "name()": {
        "details": "Returns the name of the token."
      },
      "owner()": {
        "details": "Returns the address of the current owner."
      },
      "pause()": {
        "details": "It stops transfer from happening. Only Owner can call it."
      },
      "paused()": {
        "details": "Returns true if the contract is paused, and false otherwise."
      },
      "renounceOwnership()": {
        "details": "Leaves the contract without owner. It will not be possible to call `onlyOwner` functions anymore. Can only be called by the current owner. NOTE: Renouncing ownership will leave the contract without an owner, thereby removing any functionality that is only available to the owner."
      },
      "symbol()": {
        "details": "Returns the symbol of the token, usually a shorter version of the name."
      },
      "totalSupply()": {
        "details": "See {IERC20-totalSupply}."
      },
      "transfer(address,uint256)": {
        "details": "See {IERC20-transfer}. Requirements: - `to` cannot be the zero address. - the caller must have a balance of at least `amount`."
      },
      "transferFrom(address,address,uint256)": {
        "details": "See {IERC20-transferFrom}. Emits an {Approval} event indicating the updated allowance. This is not required by the EIP. See the note at the beginning of {ERC20}. NOTE: Does not update the allowance if the current allowance is the maximum `uint256`. Requirements: - `from` and `to` cannot be the zero address. - `from` must have a balance of at least `amount`. - the caller must have allowance for ``from``'s tokens of at least `amount`."
      },
      "transferOwnership(address)": {
        "details": "Transfers ownership of the contract to a new account (`newOwner`). Can only be called by the current owner."
      },
      "unpause()": {
        "details": "Transfers are possible again. Only Owner can call it."
      }
    },
    "title": "Blast Royale Token - $BLT",
    "version": 1
  },
  "userdoc": {
    "kind": "user",
    "methods": {
      "constructor": {
        "notice": "Token constructor"
      },
      "pause()": {
        "notice": "Pauses the contract"
      },
      "unpause()": {
        "notice": "Unpauses the contract"
      }
    },
    "version": 1
  },
  "storageLayout": {
    "storage": [
      {
        "astId": 715,
        "contract": "contracts/PrimaryToken.sol:PrimaryToken",
        "label": "_balances",
        "offset": 0,
        "slot": "0",
        "type": "t_mapping(t_address,t_uint256)"
      },
      {
        "astId": 721,
        "contract": "contracts/PrimaryToken.sol:PrimaryToken",
        "label": "_allowances",
        "offset": 0,
        "slot": "1",
        "type": "t_mapping(t_address,t_mapping(t_address,t_uint256))"
      },
      {
        "astId": 723,
        "contract": "contracts/PrimaryToken.sol:PrimaryToken",
        "label": "_totalSupply",
        "offset": 0,
        "slot": "2",
        "type": "t_uint256"
      },
      {
        "astId": 725,
        "contract": "contracts/PrimaryToken.sol:PrimaryToken",
        "label": "_name",
        "offset": 0,
        "slot": "3",
        "type": "t_string_storage"
      },
      {
        "astId": 727,
        "contract": "contracts/PrimaryToken.sol:PrimaryToken",
        "label": "_symbol",
        "offset": 0,
        "slot": "4",
        "type": "t_string_storage"
      },
      {
        "astId": 569,
        "contract": "contracts/PrimaryToken.sol:PrimaryToken",
        "label": "_paused",
        "offset": 0,
        "slot": "5",
        "type": "t_bool"
      },
      {
        "astId": 446,
        "contract": "contracts/PrimaryToken.sol:PrimaryToken",
        "label": "_owner",
        "offset": 1,
        "slot": "5",
        "type": "t_address"
      }
    ],
    "types": {
      "t_address": {
        "encoding": "inplace",
        "label": "address",
        "numberOfBytes": "20"
      },
      "t_bool": {
        "encoding": "inplace",
        "label": "bool",
        "numberOfBytes": "1"
      },
      "t_mapping(t_address,t_mapping(t_address,t_uint256))": {
        "encoding": "mapping",
        "key": "t_address",
        "label": "mapping(address => mapping(address => uint256))",
        "numberOfBytes": "32",
        "value": "t_mapping(t_address,t_uint256)"
      },
      "t_mapping(t_address,t_uint256)": {
        "encoding": "mapping",
        "key": "t_address",
        "label": "mapping(address => uint256)",
        "numberOfBytes": "32",
        "value": "t_uint256"
      },
      "t_string_storage": {
        "encoding": "bytes",
        "label": "string",
        "numberOfBytes": "32"
      },
      "t_uint256": {
        "encoding": "inplace",
        "label": "uint256",
        "numberOfBytes": "32"
      }
    }
  }
}