{
  "address": "0x3700A37F2785E0724939b4AE7EF54286158F0b29",
  "abi": [
    {
      "inputs": [],
      "stateMutability": "nonpayable",
      "type": "constructor"
    },
    {
      "anonymous": false,
      "inputs": [
        {
          "indexed": true,
          "internalType": "address",
          "name": "account",
          "type": "address"
        },
        {
          "indexed": true,
          "internalType": "address",
          "name": "operator",
          "type": "address"
        },
        {
          "indexed": false,
          "internalType": "bool",
          "name": "approved",
          "type": "bool"
        }
      ],
      "name": "ApprovalForAll",
      "type": "event"
    },
    {
      "anonymous": false,
      "inputs": [
        {
          "indexed": false,
          "internalType": "address",
          "name": "account",
          "type": "address"
        }
      ],
      "name": "Paused",
      "type": "event"
    },
    {
      "anonymous": false,
      "inputs": [
        {
          "indexed": true,
          "internalType": "bytes32",
          "name": "role",
          "type": "bytes32"
        },
        {
          "indexed": true,
          "internalType": "bytes32",
          "name": "previousAdminRole",
          "type": "bytes32"
        },
        {
          "indexed": true,
          "internalType": "bytes32",
          "name": "newAdminRole",
          "type": "bytes32"
        }
      ],
      "name": "RoleAdminChanged",
      "type": "event"
    },
    {
      "anonymous": false,
      "inputs": [
        {
          "indexed": true,
          "internalType": "bytes32",
          "name": "role",
          "type": "bytes32"
        },
        {
          "indexed": true,
          "internalType": "address",
          "name": "account",
          "type": "address"
        },
        {
          "indexed": true,
          "internalType": "address",
          "name": "sender",
          "type": "address"
        }
      ],
      "name": "RoleGranted",
      "type": "event"
    },
    {
      "anonymous": false,
      "inputs": [
        {
          "indexed": true,
          "internalType": "bytes32",
          "name": "role",
          "type": "bytes32"
        },
        {
          "indexed": true,
          "internalType": "address",
          "name": "account",
          "type": "address"
        },
        {
          "indexed": true,
          "internalType": "address",
          "name": "sender",
          "type": "address"
        }
      ],
      "name": "RoleRevoked",
      "type": "event"
    },
    {
      "anonymous": false,
      "inputs": [
        {
          "indexed": true,
          "internalType": "address",
          "name": "operator",
          "type": "address"
        },
        {
          "indexed": true,
          "internalType": "address",
          "name": "from",
          "type": "address"
        },
        {
          "indexed": true,
          "internalType": "address",
          "name": "to",
          "type": "address"
        },
        {
          "indexed": false,
          "internalType": "uint256[]",
          "name": "ids",
          "type": "uint256[]"
        },
        {
          "indexed": false,
          "internalType": "uint256[]",
          "name": "values",
          "type": "uint256[]"
        }
      ],
      "name": "TransferBatch",
      "type": "event"
    },
    {
      "anonymous": false,
      "inputs": [
        {
          "indexed": true,
          "internalType": "address",
          "name": "operator",
          "type": "address"
        },
        {
          "indexed": true,
          "internalType": "address",
          "name": "from",
          "type": "address"
        },
        {
          "indexed": true,
          "internalType": "address",
          "name": "to",
          "type": "address"
        },
        {
          "indexed": false,
          "internalType": "uint256",
          "name": "id",
          "type": "uint256"
        },
        {
          "indexed": false,
          "internalType": "uint256",
          "name": "value",
          "type": "uint256"
        }
      ],
      "name": "TransferSingle",
      "type": "event"
    },
    {
      "anonymous": false,
      "inputs": [
        {
          "indexed": false,
          "internalType": "string",
          "name": "value",
          "type": "string"
        },
        {
          "indexed": true,
          "internalType": "uint256",
          "name": "id",
          "type": "uint256"
        }
      ],
      "name": "URI",
      "type": "event"
    },
    {
      "anonymous": false,
      "inputs": [
        {
          "indexed": false,
          "internalType": "address",
          "name": "account",
          "type": "address"
        }
      ],
      "name": "Unpaused",
      "type": "event"
    },
    {
      "inputs": [],
      "name": "DEFAULT_ADMIN_ROLE",
      "outputs": [
        {
          "internalType": "bytes32",
          "name": "",
          "type": "bytes32"
        }
      ],
      "stateMutability": "view",
      "type": "function"
    },
    {
      "inputs": [],
      "name": "MINTER_ROLE",
      "outputs": [
        {
          "internalType": "bytes32",
          "name": "",
          "type": "bytes32"
        }
      ],
      "stateMutability": "view",
      "type": "function"
    },
    {
      "inputs": [
        {
          "internalType": "address",
          "name": "account",
          "type": "address"
        },
        {
          "internalType": "uint256",
          "name": "id",
          "type": "uint256"
        }
      ],
      "name": "balanceOf",
      "outputs": [
        {
          "internalType": "uint256",
          "name": "",
          "type": "uint256"
        }
      ],
      "stateMutability": "view",
      "type": "function"
    },
    {
      "inputs": [
        {
          "internalType": "address[]",
          "name": "accounts",
          "type": "address[]"
        },
        {
          "internalType": "uint256[]",
          "name": "ids",
          "type": "uint256[]"
        }
      ],
      "name": "balanceOfBatch",
      "outputs": [
        {
          "internalType": "uint256[]",
          "name": "",
          "type": "uint256[]"
        }
      ],
      "stateMutability": "view",
      "type": "function"
    },
    {
      "inputs": [
        {
          "internalType": "address",
          "name": "account",
          "type": "address"
        },
        {
          "internalType": "uint256",
          "name": "id",
          "type": "uint256"
        },
        {
          "internalType": "uint256",
          "name": "value",
          "type": "uint256"
        }
      ],
      "name": "burn",
      "outputs": [],
      "stateMutability": "nonpayable",
      "type": "function"
    },
    {
      "inputs": [
        {
          "internalType": "address",
          "name": "account",
          "type": "address"
        },
        {
          "internalType": "uint256[]",
          "name": "ids",
          "type": "uint256[]"
        },
        {
          "internalType": "uint256[]",
          "name": "values",
          "type": "uint256[]"
        }
      ],
      "name": "burnBatch",
      "outputs": [],
      "stateMutability": "nonpayable",
      "type": "function"
    },
    {
      "inputs": [
        {
          "internalType": "uint256",
          "name": "id",
          "type": "uint256"
        }
      ],
      "name": "exists",
      "outputs": [
        {
          "internalType": "bool",
          "name": "",
          "type": "bool"
        }
      ],
      "stateMutability": "view",
      "type": "function"
    },
    {
      "inputs": [
        {
          "internalType": "bytes32",
          "name": "role",
          "type": "bytes32"
        }
      ],
      "name": "getRoleAdmin",
      "outputs": [
        {
          "internalType": "bytes32",
          "name": "",
          "type": "bytes32"
        }
      ],
      "stateMutability": "view",
      "type": "function"
    },
    {
      "inputs": [
        {
          "internalType": "bytes32",
          "name": "role",
          "type": "bytes32"
        },
        {
          "internalType": "address",
          "name": "account",
          "type": "address"
        }
      ],
      "name": "grantRole",
      "outputs": [],
      "stateMutability": "nonpayable",
      "type": "function"
    },
    {
      "inputs": [
        {
          "internalType": "bytes32",
          "name": "role",
          "type": "bytes32"
        },
        {
          "internalType": "address",
          "name": "account",
          "type": "address"
        }
      ],
      "name": "hasRole",
      "outputs": [
        {
          "internalType": "bool",
          "name": "",
          "type": "bool"
        }
      ],
      "stateMutability": "view",
      "type": "function"
    },
    {
      "inputs": [
        {
          "internalType": "address",
          "name": "account",
          "type": "address"
        },
        {
          "internalType": "address",
          "name": "operator",
          "type": "address"
        }
      ],
      "name": "isApprovedForAll",
      "outputs": [
        {
          "internalType": "bool",
          "name": "",
          "type": "bool"
        }
      ],
      "stateMutability": "view",
      "type": "function"
    },
    {
      "inputs": [
        {
          "internalType": "address",
          "name": "account",
          "type": "address"
        },
        {
          "internalType": "uint256",
          "name": "id",
          "type": "uint256"
        },
        {
          "internalType": "uint256",
          "name": "amount",
          "type": "uint256"
        },
        {
          "internalType": "bytes",
          "name": "data",
          "type": "bytes"
        }
      ],
      "name": "mint",
      "outputs": [],
      "stateMutability": "nonpayable",
      "type": "function"
    },
    {
      "inputs": [
        {
          "internalType": "address",
          "name": "to",
          "type": "address"
        },
        {
          "internalType": "uint256[]",
          "name": "ids",
          "type": "uint256[]"
        },
        {
          "internalType": "uint256[]",
          "name": "amounts",
          "type": "uint256[]"
        },
        {
          "internalType": "bytes",
          "name": "data",
          "type": "bytes"
        }
      ],
      "name": "mintBatch",
      "outputs": [],
      "stateMutability": "nonpayable",
      "type": "function"
    },
    {
      "inputs": [],
      "name": "pause",
      "outputs": [],
      "stateMutability": "nonpayable",
      "type": "function"
    },
    {
      "inputs": [],
      "name": "paused",
      "outputs": [
        {
          "internalType": "bool",
          "name": "",
          "type": "bool"
        }
      ],
      "stateMutability": "view",
      "type": "function"
    },
    {
      "inputs": [
        {
          "internalType": "bytes32",
          "name": "role",
          "type": "bytes32"
        },
        {
          "internalType": "address",
          "name": "account",
          "type": "address"
        }
      ],
      "name": "renounceRole",
      "outputs": [],
      "stateMutability": "nonpayable",
      "type": "function"
    },
    {
      "inputs": [
        {
          "internalType": "bytes32",
          "name": "role",
          "type": "bytes32"
        },
        {
          "internalType": "address",
          "name": "account",
          "type": "address"
        }
      ],
      "name": "revokeRole",
      "outputs": [],
      "stateMutability": "nonpayable",
      "type": "function"
    },
    {
      "inputs": [
        {
          "internalType": "address",
          "name": "from",
          "type": "address"
        },
        {
          "internalType": "address",
          "name": "to",
          "type": "address"
        },
        {
          "internalType": "uint256[]",
          "name": "ids",
          "type": "uint256[]"
        },
        {
          "internalType": "uint256[]",
          "name": "amounts",
          "type": "uint256[]"
        },
        {
          "internalType": "bytes",
          "name": "data",
          "type": "bytes"
        }
      ],
      "name": "safeBatchTransferFrom",
      "outputs": [],
      "stateMutability": "nonpayable",
      "type": "function"
    },
    {
      "inputs": [
        {
          "internalType": "address",
          "name": "from",
          "type": "address"
        },
        {
          "internalType": "address",
          "name": "to",
          "type": "address"
        },
        {
          "internalType": "uint256",
          "name": "id",
          "type": "uint256"
        },
        {
          "internalType": "uint256",
          "name": "amount",
          "type": "uint256"
        },
        {
          "internalType": "bytes",
          "name": "data",
          "type": "bytes"
        }
      ],
      "name": "safeTransferFrom",
      "outputs": [],
      "stateMutability": "nonpayable",
      "type": "function"
    },
    {
      "inputs": [
        {
          "internalType": "address",
          "name": "operator",
          "type": "address"
        },
        {
          "internalType": "bool",
          "name": "approved",
          "type": "bool"
        }
      ],
      "name": "setApprovalForAll",
      "outputs": [],
      "stateMutability": "nonpayable",
      "type": "function"
    },
    {
      "inputs": [
        {
          "internalType": "string",
          "name": "newuri",
          "type": "string"
        }
      ],
      "name": "setURI",
      "outputs": [],
      "stateMutability": "nonpayable",
      "type": "function"
    },
    {
      "inputs": [
        {
          "internalType": "bytes4",
          "name": "interfaceId",
          "type": "bytes4"
        }
      ],
      "name": "supportsInterface",
      "outputs": [
        {
          "internalType": "bool",
          "name": "",
          "type": "bool"
        }
      ],
      "stateMutability": "view",
      "type": "function"
    },
    {
      "inputs": [
        {
          "internalType": "uint256",
          "name": "id",
          "type": "uint256"
        }
      ],
      "name": "totalSupply",
      "outputs": [
        {
          "internalType": "uint256",
          "name": "",
          "type": "uint256"
        }
      ],
      "stateMutability": "view",
      "type": "function"
    },
    {
      "inputs": [],
      "name": "unpause",
      "outputs": [],
      "stateMutability": "nonpayable",
      "type": "function"
    },
    {
      "inputs": [
        {
          "internalType": "uint256",
          "name": "_id",
          "type": "uint256"
        }
      ],
      "name": "uri",
      "outputs": [
        {
          "internalType": "string",
          "name": "",
          "type": "string"
        }
      ],
      "stateMutability": "view",
      "type": "function"
    }
  ],
  "transactionHash": "0x8e34d6f220c5510424c972f242880c239745ed27b8327c4e1511d0115de6fc35",
  "args": [],
  "numDeployments": 1,
  "solcInputHash": "4da6953ee668730e59e27e2dd0e307a6",
  "bytecode": "0x60806040523480156200001157600080fd5b5060405180606001604052806031815260200162002b2b60319139620000378162000081565b506004805460ff191690556200004f6000336200009a565b6200007b7f9f2df0fed2c77648de5860a4cc508cd0818c85b8b8a1ab4ceeef8d981c8956a6336200009a565b62000221565b8051620000969060029060208401906200013e565b5050565b60008281526003602090815260408083206001600160a01b038516845290915290205460ff16620000965760008281526003602090815260408083206001600160a01b03851684529091529020805460ff19166001179055620000fa3390565b6001600160a01b0316816001600160a01b0316837f2f8788117e7eff1d82e926ec794901d17c78024a50270940304540a733656f0d60405160405180910390a45050565b8280546200014c90620001e4565b90600052602060002090601f016020900481019282620001705760008555620001bb565b82601f106200018b57805160ff1916838001178555620001bb565b82800160010185558215620001bb579182015b82811115620001bb5782518255916020019190600101906200019e565b50620001c9929150620001cd565b5090565b5b80821115620001c95760008155600101620001ce565b600181811c90821680620001f957607f821691505b602082108114156200021b57634e487b7160e01b600052602260045260246000fd5b50919050565b6128fa80620002316000396000f3fe608060405234801561001057600080fd5b50600436106101725760003560e01c80635c975abb116100de578063a22cb46511610097578063d547741f11610071578063d547741f1461035c578063e985e9c51461036f578063f242432a146103ab578063f5298aca146103be57600080fd5b8063a22cb46514610302578063bd85b03914610315578063d53913931461033557600080fd5b80635c975abb146102ae5780636b20c454146102b9578063731133e9146102cc5780638456cb59146102df57806391d14854146102e7578063a217fddf146102fa57600080fd5b80632eb2c2d6116101305780632eb2c2d61461022b5780632f2ff15d1461023e57806336568abe146102515780633f4ba83a146102645780634e1273f41461026c5780634f558e791461028c57600080fd5b8062fdd58e1461017757806301ffc9a71461019d57806302fe5305146101c05780630e89341c146101d55780631f7fdffa146101f5578063248a9ca314610208575b600080fd5b61018a610185366004611c5f565b6103d1565b6040519081526020015b60405180910390f35b6101b06101ab366004611c9f565b610468565b6040519015158152602001610194565b6101d36101ce366004611d5b565b610479565b005b6101e86101e3366004611da3565b610492565b6040516101949190611e18565b6101d3610203366004611edf565b61051c565b61018a610216366004611da3565b60009081526003602052604090206001015490565b6101d3610239366004611f77565b61055a565b6101d361024c366004612020565b6105ea565b6101d361025f366004612020565b610615565b6101d361068f565b61027f61027a36600461204c565b6106a6565b6040516101949190612151565b6101b061029a366004611da3565b600090815260056020526040902054151590565b60045460ff166101b0565b6101d36102c7366004612164565b6107cf565b6101d36102da3660046121d7565b610812565b6101d3610849565b6101b06102f5366004612020565b61085d565b61018a600081565b6101d361031036600461222b565b610888565b61018a610323366004611da3565b60009081526005602052604090205490565b61018a7f9f2df0fed2c77648de5860a4cc508cd0818c85b8b8a1ab4ceeef8d981c8956a681565b6101d361036a366004612020565b610893565b6101b061037d366004612267565b6001600160a01b03918216600090815260016020908152604080832093909416825291909152205460ff1690565b6101d36103b9366004612291565b6108b9565b6101d36103cc3660046122f5565b6108fe565b60006001600160a01b0383166104425760405162461bcd60e51b815260206004820152602b60248201527f455243313135353a2062616c616e636520717565727920666f7220746865207a60448201526a65726f206164647265737360a81b60648201526084015b60405180910390fd5b506000908152602081815260408083206001600160a01b03949094168352929052205490565b600061047382610941565b92915050565b60006104858133610966565b61048e826109ca565b5050565b6000818152600560205260409020546060906104e35760405162461bcd60e51b815260206004820152601060248201526f1554924e881b9bdb995e1a5cdd195b9d60821b6044820152606401610439565b6104ec826109dd565b6104f583610a71565b604051602001610506929190612328565b6040516020818303038152906040529050919050565b7f9f2df0fed2c77648de5860a4cc508cd0818c85b8b8a1ab4ceeef8d981c8956a66105478133610966565b61055385858585610b76565b5050505050565b6001600160a01b0385163314806105765750610576853361037d565b6105dd5760405162461bcd60e51b815260206004820152603260248201527f455243313135353a207472616e736665722063616c6c6572206973206e6f74206044820152711bdddb995c881b9bdc88185c1c1c9bdd995960721b6064820152608401610439565b6105538585858585610cd0565b6000828152600360205260409020600101546106068133610966565b6106108383610e7a565b505050565b6001600160a01b03811633146106855760405162461bcd60e51b815260206004820152602f60248201527f416363657373436f6e74726f6c3a2063616e206f6e6c792072656e6f756e636560448201526e103937b632b9903337b91039b2b63360891b6064820152608401610439565b61048e8282610f00565b600061069b8133610966565b6106a3610f67565b50565b6060815183511461070b5760405162461bcd60e51b815260206004820152602960248201527f455243313135353a206163636f756e747320616e6420696473206c656e677468604482015268040dad2e6dac2e8c6d60bb1b6064820152608401610439565b600083516001600160401b0381111561072657610726611cbc565b60405190808252806020026020018201604052801561074f578160200160208202803683370190505b50905060005b84518110156107c75761079a85828151811061077357610773612367565b602002602001015185838151811061078d5761078d612367565b60200260200101516103d1565b8282815181106107ac576107ac612367565b60209081029190910101526107c081612393565b9050610755565b509392505050565b6001600160a01b0383163314806107eb57506107eb833361037d565b6108075760405162461bcd60e51b8152600401610439906123ae565b610610838383610ffa565b7f9f2df0fed2c77648de5860a4cc508cd0818c85b8b8a1ab4ceeef8d981c8956a661083d8133610966565b61055385858585611188565b60006108558133610966565b6106a361125e565b60009182526003602090815260408084206001600160a01b0393909316845291905290205460ff1690565b61048e3383836112d9565b6000828152600360205260409020600101546108af8133610966565b6106108383610f00565b6001600160a01b0385163314806108d557506108d5853361037d565b6108f15760405162461bcd60e51b8152600401610439906123ae565b61055385858585856113ba565b6001600160a01b03831633148061091a575061091a833361037d565b6109365760405162461bcd60e51b8152600401610439906123ae565b6106108383836114d7565b60006001600160e01b03198216637965db0b60e01b14806104735750610473826115d8565b610970828261085d565b61048e57610988816001600160a01b03166014611628565b610993836020611628565b6040516020016109a49291906123f7565b60408051601f198184030181529082905262461bcd60e51b825261043991600401611e18565b805161048e906002906020840190611baa565b6060600280546109ec9061246c565b80601f0160208091040260200160405190810160405280929190818152602001828054610a189061246c565b8015610a655780601f10610a3a57610100808354040283529160200191610a65565b820191906000526020600020905b815481529060010190602001808311610a4857829003601f168201915b50505050509050919050565b606081610a955750506040805180820190915260018152600360fc1b602082015290565b8160005b8115610abf5780610aa981612393565b9150610ab89050600a836124bd565b9150610a99565b6000816001600160401b03811115610ad957610ad9611cbc565b6040519080825280601f01601f191660200182016040528015610b03576020820181803683370190505b5090505b8415610b6e57610b186001836124d1565b9150610b25600a866124e8565b610b309060306124fc565b60f81b818381518110610b4557610b45612367565b60200101906001600160f81b031916908160001a905350610b67600a866124bd565b9450610b07565b949350505050565b6001600160a01b038416610b9c5760405162461bcd60e51b815260040161043990612514565b8151835114610bbd5760405162461bcd60e51b815260040161043990612555565b33610bcd816000878787876117ca565b60005b8451811015610c6857838181518110610beb57610beb612367565b6020026020010151600080878481518110610c0857610c08612367565b602002602001015181526020019081526020016000206000886001600160a01b03166001600160a01b031681526020019081526020016000206000828254610c5091906124fc565b90915550819050610c6081612393565b915050610bd0565b50846001600160a01b031660006001600160a01b0316826001600160a01b03167f4a39dc06d4c0dbc64b70af90fd698a233a518aa5d07e595d983b8c0526c8f7fb8787604051610cb992919061259d565b60405180910390a46105538160008787878761181e565b8151835114610cf15760405162461bcd60e51b815260040161043990612555565b6001600160a01b038416610d175760405162461bcd60e51b8152600401610439906125cb565b33610d268187878787876117ca565b60005b8451811015610e0c576000858281518110610d4657610d46612367565b602002602001015190506000858381518110610d6457610d64612367565b602090810291909101810151600084815280835260408082206001600160a01b038e168352909352919091205490915081811015610db45760405162461bcd60e51b815260040161043990612610565b6000838152602081815260408083206001600160a01b038e8116855292528083208585039055908b16825281208054849290610df19084906124fc565b9250508190555050505080610e0590612393565b9050610d29565b50846001600160a01b0316866001600160a01b0316826001600160a01b03167f4a39dc06d4c0dbc64b70af90fd698a233a518aa5d07e595d983b8c0526c8f7fb8787604051610e5c92919061259d565b60405180910390a4610e7281878787878761181e565b505050505050565b610e84828261085d565b61048e5760008281526003602090815260408083206001600160a01b03851684529091529020805460ff19166001179055610ebc3390565b6001600160a01b0316816001600160a01b0316837f2f8788117e7eff1d82e926ec794901d17c78024a50270940304540a733656f0d60405160405180910390a45050565b610f0a828261085d565b1561048e5760008281526003602090815260408083206001600160a01b0385168085529252808320805460ff1916905551339285917ff6391f5c32d9c69d2a47ea670b442974b53935d1edc7fd64eb21e047a839171b9190a45050565b60045460ff16610fb05760405162461bcd60e51b815260206004820152601460248201527314185d5cd8589b194e881b9bdd081c185d5cd95960621b6044820152606401610439565b6004805460ff191690557f5db9ee0a495bf2e6ff9c91a7834c1ba4fdd244a5e8aa4e537bd38aeae4b073aa335b6040516001600160a01b03909116815260200160405180910390a1565b6001600160a01b0383166110205760405162461bcd60e51b81526004016104399061265a565b80518251146110415760405162461bcd60e51b815260040161043990612555565b6000339050611064818560008686604051806020016040528060008152506117ca565b60005b835181101561112957600084828151811061108457611084612367565b6020026020010151905060008483815181106110a2576110a2612367565b602090810291909101810151600084815280835260408082206001600160a01b038c1683529093529190912054909150818110156110f25760405162461bcd60e51b81526004016104399061269d565b6000928352602083815260408085206001600160a01b038b168652909152909220910390558061112181612393565b915050611067565b5060006001600160a01b0316846001600160a01b0316826001600160a01b03167f4a39dc06d4c0dbc64b70af90fd698a233a518aa5d07e595d983b8c0526c8f7fb868660405161117a92919061259d565b60405180910390a450505050565b6001600160a01b0384166111ae5760405162461bcd60e51b815260040161043990612514565b336111ce816000876111bf88611989565b6111c888611989565b876117ca565b6000848152602081815260408083206001600160a01b0389168452909152812080548592906111fe9084906124fc565b909155505060408051858152602081018590526001600160a01b0380881692600092918516917fc3d58168c5ae7397731d063d5bbf3d657854427343f4c083240f7aacaa2d0f62910160405180910390a4610553816000878787876119d4565b60045460ff16156112a45760405162461bcd60e51b815260206004820152601060248201526f14185d5cd8589b194e881c185d5cd95960821b6044820152606401610439565b6004805460ff191660011790557f62e78cea01bee320cd4e420270b5ea74000d11b0c9f74754ebdbfc544b05a258610fdd3390565b816001600160a01b0316836001600160a01b0316141561134d5760405162461bcd60e51b815260206004820152602960248201527f455243313135353a2073657474696e6720617070726f76616c20737461747573604482015268103337b91039b2b63360b91b6064820152608401610439565b6001600160a01b03838116600081815260016020908152604080832094871680845294825291829020805460ff191686151590811790915591519182527f17307eab39ab6107e8899845ad3d59bd9653f200f220920489ca2b5937696c31910160405180910390a3505050565b6001600160a01b0384166113e05760405162461bcd60e51b8152600401610439906125cb565b336113f08187876111bf88611989565b6000848152602081815260408083206001600160a01b038a168452909152902054838110156114315760405162461bcd60e51b815260040161043990612610565b6000858152602081815260408083206001600160a01b038b811685529252808320878503905590881682528120805486929061146e9084906124fc565b909155505060408051868152602081018690526001600160a01b03808916928a821692918616917fc3d58168c5ae7397731d063d5bbf3d657854427343f4c083240f7aacaa2d0f62910160405180910390a46114ce8288888888886119d4565b50505050505050565b6001600160a01b0383166114fd5760405162461bcd60e51b81526004016104399061265a565b3361152c8185600061150e87611989565b61151787611989565b604051806020016040528060008152506117ca565b6000838152602081815260408083206001600160a01b03881684529091529020548281101561156d5760405162461bcd60e51b81526004016104399061269d565b6000848152602081815260408083206001600160a01b03898116808652918452828520888703905582518981529384018890529092908616917fc3d58168c5ae7397731d063d5bbf3d657854427343f4c083240f7aacaa2d0f62910160405180910390a45050505050565b60006001600160e01b03198216636cdb3d1360e11b148061160957506001600160e01b031982166303a24d0760e21b145b8061047357506301ffc9a760e01b6001600160e01b0319831614610473565b606060006116378360026126e1565b6116429060026124fc565b6001600160401b0381111561165957611659611cbc565b6040519080825280601f01601f191660200182016040528015611683576020820181803683370190505b509050600360fc1b8160008151811061169e5761169e612367565b60200101906001600160f81b031916908160001a905350600f60fb1b816001815181106116cd576116cd612367565b60200101906001600160f81b031916908160001a90535060006116f18460026126e1565b6116fc9060016124fc565b90505b6001811115611774576f181899199a1a9b1b9c1cb0b131b232b360811b85600f166010811061173057611730612367565b1a60f81b82828151811061174657611746612367565b60200101906001600160f81b031916908160001a90535060049490941c9361176d81612700565b90506116ff565b5083156117c35760405162461bcd60e51b815260206004820181905260248201527f537472696e67733a20686578206c656e67746820696e73756666696369656e746044820152606401610439565b9392505050565b60045460ff16156118105760405162461bcd60e51b815260206004820152601060248201526f14185d5cd8589b194e881c185d5cd95960821b6044820152606401610439565b610e72868686868686611a9e565b6001600160a01b0384163b15610e725760405163bc197c8160e01b81526001600160a01b0385169063bc197c81906118629089908990889088908890600401612717565b602060405180830381600087803b15801561187c57600080fd5b505af19250505080156118ac575060408051601f3d908101601f191682019092526118a991810190612775565b60015b611959576118b8612792565b806308c379a014156118f257506118cd6127ae565b806118d857506118f4565b8060405162461bcd60e51b81526004016104399190611e18565b505b60405162461bcd60e51b815260206004820152603460248201527f455243313135353a207472616e7366657220746f206e6f6e20455243313135356044820152732932b1b2b4bb32b91034b6b83632b6b2b73a32b960611b6064820152608401610439565b6001600160e01b0319811663bc197c8160e01b146114ce5760405162461bcd60e51b815260040161043990612837565b604080516001808252818301909252606091600091906020808301908036833701905050905082816000815181106119c3576119c3612367565b602090810291909101015292915050565b6001600160a01b0384163b15610e725760405163f23a6e6160e01b81526001600160a01b0385169063f23a6e6190611a18908990899088908890889060040161287f565b602060405180830381600087803b158015611a3257600080fd5b505af1925050508015611a62575060408051601f3d908101601f19168201909252611a5f91810190612775565b60015b611a6e576118b8612792565b6001600160e01b0319811663f23a6e6160e01b146114ce5760405162461bcd60e51b815260040161043990612837565b6001600160a01b038516611b255760005b8351811015611b2357828181518110611aca57611aca612367565b602002602001015160056000868481518110611ae857611ae8612367565b602002602001015181526020019081526020016000206000828254611b0d91906124fc565b90915550611b1c905081612393565b9050611aaf565b505b6001600160a01b038416610e725760005b83518110156114ce57828181518110611b5157611b51612367565b602002602001015160056000868481518110611b6f57611b6f612367565b602002602001015181526020019081526020016000206000828254611b9491906124d1565b90915550611ba3905081612393565b9050611b36565b828054611bb69061246c565b90600052602060002090601f016020900481019282611bd85760008555611c1e565b82601f10611bf157805160ff1916838001178555611c1e565b82800160010185558215611c1e579182015b82811115611c1e578251825591602001919060010190611c03565b50611c2a929150611c2e565b5090565b5b80821115611c2a5760008155600101611c2f565b80356001600160a01b0381168114611c5a57600080fd5b919050565b60008060408385031215611c7257600080fd5b611c7b83611c43565b946020939093013593505050565b6001600160e01b0319811681146106a357600080fd5b600060208284031215611cb157600080fd5b81356117c381611c89565b634e487b7160e01b600052604160045260246000fd5b601f8201601f191681016001600160401b0381118282101715611cf757611cf7611cbc565b6040525050565b60006001600160401b03831115611d1757611d17611cbc565b604051611d2e601f8501601f191660200182611cd2565b809150838152848484011115611d4357600080fd5b83836020830137600060208583010152509392505050565b600060208284031215611d6d57600080fd5b81356001600160401b03811115611d8357600080fd5b8201601f81018413611d9457600080fd5b610b6e84823560208401611cfe565b600060208284031215611db557600080fd5b5035919050565b60005b83811015611dd7578181015183820152602001611dbf565b83811115611de6576000848401525b50505050565b60008151808452611e04816020860160208601611dbc565b601f01601f19169290920160200192915050565b6020815260006117c36020830184611dec565b60006001600160401b03821115611e4457611e44611cbc565b5060051b60200190565b600082601f830112611e5f57600080fd5b81356020611e6c82611e2b565b604051611e798282611cd2565b83815260059390931b8501820192828101915086841115611e9957600080fd5b8286015b84811015611eb45780358352918301918301611e9d565b509695505050505050565b600082601f830112611ed057600080fd5b6117c383833560208501611cfe565b60008060008060808587031215611ef557600080fd5b611efe85611c43565b935060208501356001600160401b0380821115611f1a57600080fd5b611f2688838901611e4e565b94506040870135915080821115611f3c57600080fd5b611f4888838901611e4e565b93506060870135915080821115611f5e57600080fd5b50611f6b87828801611ebf565b91505092959194509250565b600080600080600060a08688031215611f8f57600080fd5b611f9886611c43565b9450611fa660208701611c43565b935060408601356001600160401b0380821115611fc257600080fd5b611fce89838a01611e4e565b94506060880135915080821115611fe457600080fd5b611ff089838a01611e4e565b9350608088013591508082111561200657600080fd5b5061201388828901611ebf565b9150509295509295909350565b6000806040838503121561203357600080fd5b8235915061204360208401611c43565b90509250929050565b6000806040838503121561205f57600080fd5b82356001600160401b038082111561207657600080fd5b818501915085601f83011261208a57600080fd5b8135602061209782611e2b565b6040516120a48282611cd2565b83815260059390931b85018201928281019150898411156120c457600080fd5b948201945b838610156120e9576120da86611c43565b825294820194908201906120c9565b965050860135925050808211156120ff57600080fd5b5061210c85828601611e4e565b9150509250929050565b600081518084526020808501945080840160005b838110156121465781518752958201959082019060010161212a565b509495945050505050565b6020815260006117c36020830184612116565b60008060006060848603121561217957600080fd5b61218284611c43565b925060208401356001600160401b038082111561219e57600080fd5b6121aa87838801611e4e565b935060408601359150808211156121c057600080fd5b506121cd86828701611e4e565b9150509250925092565b600080600080608085870312156121ed57600080fd5b6121f685611c43565b9350602085013592506040850135915060608501356001600160401b0381111561221f57600080fd5b611f6b87828801611ebf565b6000806040838503121561223e57600080fd5b61224783611c43565b91506020830135801515811461225c57600080fd5b809150509250929050565b6000806040838503121561227a57600080fd5b61228383611c43565b915061204360208401611c43565b600080600080600060a086880312156122a957600080fd5b6122b286611c43565b94506122c060208701611c43565b9350604086013592506060860135915060808601356001600160401b038111156122e957600080fd5b61201388828901611ebf565b60008060006060848603121561230a57600080fd5b61231384611c43565b95602085013595506040909401359392505050565b6000835161233a818460208801611dbc565b83519083019061234e818360208801611dbc565b64173539b7b760d91b9101908152600501949350505050565b634e487b7160e01b600052603260045260246000fd5b634e487b7160e01b600052601160045260246000fd5b60006000198214156123a7576123a761237d565b5060010190565b60208082526029908201527f455243313135353a2063616c6c6572206973206e6f74206f776e6572206e6f7260408201526808185c1c1c9bdd995960ba1b606082015260800190565b7f416363657373436f6e74726f6c3a206163636f756e742000000000000000000081526000835161242f816017850160208801611dbc565b7001034b99036b4b9b9b4b733903937b6329607d1b6017918401918201528351612460816028840160208801611dbc565b01602801949350505050565b600181811c9082168061248057607f821691505b602082108114156124a157634e487b7160e01b600052602260045260246000fd5b50919050565b634e487b7160e01b600052601260045260246000fd5b6000826124cc576124cc6124a7565b500490565b6000828210156124e3576124e361237d565b500390565b6000826124f7576124f76124a7565b500690565b6000821982111561250f5761250f61237d565b500190565b60208082526021908201527f455243313135353a206d696e7420746f20746865207a65726f206164647265736040820152607360f81b606082015260800190565b60208082526028908201527f455243313135353a2069647320616e6420616d6f756e7473206c656e677468206040820152670dad2e6dac2e8c6d60c31b606082015260800190565b6040815260006125b06040830185612116565b82810360208401526125c28185612116565b95945050505050565b60208082526025908201527f455243313135353a207472616e7366657220746f20746865207a65726f206164604082015264647265737360d81b606082015260800190565b6020808252602a908201527f455243313135353a20696e73756666696369656e742062616c616e636520666f60408201526939103a3930b739b332b960b11b606082015260800190565b60208082526023908201527f455243313135353a206275726e2066726f6d20746865207a65726f206164647260408201526265737360e81b606082015260800190565b60208082526024908201527f455243313135353a206275726e20616d6f756e7420657863656564732062616c604082015263616e636560e01b606082015260800190565b60008160001904831182151516156126fb576126fb61237d565b500290565b60008161270f5761270f61237d565b506000190190565b6001600160a01b0386811682528516602082015260a06040820181905260009061274390830186612116565b82810360608401526127558186612116565b905082810360808401526127698185611dec565b98975050505050505050565b60006020828403121561278757600080fd5b81516117c381611c89565b600060033d11156127ab5760046000803e5060005160e01c5b90565b600060443d10156127bc5790565b6040516003193d81016004833e81513d6001600160401b0381602484011181841117156127eb57505050505090565b82850191508151818111156128035750505050505090565b843d870101602082850101111561281d5750505050505090565b61282c60208286010187611cd2565b509095945050505050565b60208082526028908201527f455243313135353a204552433131353552656365697665722072656a656374656040820152676420746f6b656e7360c01b606082015260800190565b6001600160a01b03868116825285166020820152604081018490526060810183905260a0608082018190526000906128b990830184611dec565b97965050505050505056fea264697066735822122073f338833a6d36ceac0e4d93f2996b5d569ec26e6115b8fa5618d5ddd2554dde64736f6c6343000809003368747470733a2f2f7374617469632e626c617374726f79616c652e636f6d2f6e66747374617469636d657461646174612f",
  "devdoc": {
    "kind": "dev",
    "methods": {
      "balanceOf(address,uint256)": {
        "details": "See {IERC1155-balanceOf}. Requirements: - `account` cannot be the zero address."
      },
      "balanceOfBatch(address[],uint256[])": {
        "details": "See {IERC1155-balanceOfBatch}. Requirements: - `accounts` and `ids` must have the same length."
      },
      "exists(uint256)": {
        "details": "Indicates whether any token exist with a given id, or not."
      },
      "getRoleAdmin(bytes32)": {
        "details": "Returns the admin role that controls `role`. See {grantRole} and {revokeRole}. To change a role's admin, use {_setRoleAdmin}."
      },
      "grantRole(bytes32,address)": {
        "details": "Grants `role` to `account`. If `account` had not been already granted `role`, emits a {RoleGranted} event. Requirements: - the caller must have ``role``'s admin role."
      },
      "hasRole(bytes32,address)": {
        "details": "Returns `true` if `account` has been granted `role`."
      },
      "isApprovedForAll(address,address)": {
        "details": "See {IERC1155-isApprovedForAll}."
      },
      "paused()": {
        "details": "Returns true if the contract is paused, and false otherwise."
      },
      "renounceRole(bytes32,address)": {
        "details": "Revokes `role` from the calling account. Roles are often managed via {grantRole} and {revokeRole}: this function's purpose is to provide a mechanism for accounts to lose their privileges if they are compromised (such as when a trusted device is misplaced). If the calling account had been revoked `role`, emits a {RoleRevoked} event. Requirements: - the caller must be `account`."
      },
      "revokeRole(bytes32,address)": {
        "details": "Revokes `role` from `account`. If `account` had been granted `role`, emits a {RoleRevoked} event. Requirements: - the caller must have ``role``'s admin role."
      },
      "safeBatchTransferFrom(address,address,uint256[],uint256[],bytes)": {
        "details": "See {IERC1155-safeBatchTransferFrom}."
      },
      "safeTransferFrom(address,address,uint256,uint256,bytes)": {
        "details": "See {IERC1155-safeTransferFrom}."
      },
      "setApprovalForAll(address,bool)": {
        "details": "See {IERC1155-setApprovalForAll}."
      },
      "totalSupply(uint256)": {
        "details": "Total amount of tokens in with a given id."
      }
    },
    "version": 1
  },
  "userdoc": {
    "kind": "user",
    "methods": {},
    "version": 1
  },
  "storageLayout": {
    "storage": [
      {
        "astId": 690,
        "contract": "contracts/ReloadedNFTs.sol:ReloadedNFT",
        "label": "_balances",
        "offset": 0,
        "slot": "0",
        "type": "t_mapping(t_uint256,t_mapping(t_address,t_uint256))"
      },
      {
        "astId": 696,
        "contract": "contracts/ReloadedNFTs.sol:ReloadedNFT",
        "label": "_operatorApprovals",
        "offset": 0,
        "slot": "1",
        "type": "t_mapping(t_address,t_mapping(t_address,t_bool))"
      },
      {
        "astId": 698,
        "contract": "contracts/ReloadedNFTs.sol:ReloadedNFT",
        "label": "_uri",
        "offset": 0,
        "slot": "2",
        "type": "t_string_storage"
      },
      {
        "astId": 70,
        "contract": "contracts/ReloadedNFTs.sol:ReloadedNFT",
        "label": "_roles",
        "offset": 0,
        "slot": "3",
        "type": "t_mapping(t_bytes32,t_struct(RoleData)65_storage)"
      },
      {
        "astId": 550,
        "contract": "contracts/ReloadedNFTs.sol:ReloadedNFT",
        "label": "_paused",
        "offset": 0,
        "slot": "4",
        "type": "t_bool"
      },
      {
        "astId": 2002,
        "contract": "contracts/ReloadedNFTs.sol:ReloadedNFT",
        "label": "_totalSupply",
        "offset": 0,
        "slot": "5",
        "type": "t_mapping(t_uint256,t_uint256)"
      }
    ],
    "types": {
      "t_address": {
        "encoding": "inplace",
        "label": "address",
        "numberOfBytes": "20"
      },
      "t_bool": {
        "encoding": "inplace",
        "label": "bool",
        "numberOfBytes": "1"
      },
      "t_bytes32": {
        "encoding": "inplace",
        "label": "bytes32",
        "numberOfBytes": "32"
      },
      "t_mapping(t_address,t_bool)": {
        "encoding": "mapping",
        "key": "t_address",
        "label": "mapping(address => bool)",
        "numberOfBytes": "32",
        "value": "t_bool"
      },
      "t_mapping(t_address,t_mapping(t_address,t_bool))": {
        "encoding": "mapping",
        "key": "t_address",
        "label": "mapping(address => mapping(address => bool))",
        "numberOfBytes": "32",
        "value": "t_mapping(t_address,t_bool)"
      },
      "t_mapping(t_address,t_uint256)": {
        "encoding": "mapping",
        "key": "t_address",
        "label": "mapping(address => uint256)",
        "numberOfBytes": "32",
        "value": "t_uint256"
      },
      "t_mapping(t_bytes32,t_struct(RoleData)65_storage)": {
        "encoding": "mapping",
        "key": "t_bytes32",
        "label": "mapping(bytes32 => struct AccessControl.RoleData)",
        "numberOfBytes": "32",
        "value": "t_struct(RoleData)65_storage"
      },
      "t_mapping(t_uint256,t_mapping(t_address,t_uint256))": {
        "encoding": "mapping",
        "key": "t_uint256",
        "label": "mapping(uint256 => mapping(address => uint256))",
        "numberOfBytes": "32",
        "value": "t_mapping(t_address,t_uint256)"
      },
      "t_mapping(t_uint256,t_uint256)": {
        "encoding": "mapping",
        "key": "t_uint256",
        "label": "mapping(uint256 => uint256)",
        "numberOfBytes": "32",
        "value": "t_uint256"
      },
      "t_string_storage": {
        "encoding": "bytes",
        "label": "string",
        "numberOfBytes": "32"
      },
      "t_struct(RoleData)65_storage": {
        "encoding": "inplace",
        "label": "struct AccessControl.RoleData",
        "members": [
          {
            "astId": 62,
            "contract": "contracts/ReloadedNFTs.sol:ReloadedNFT",
            "label": "members",
            "offset": 0,
            "slot": "0",
            "type": "t_mapping(t_address,t_bool)"
          },
          {
            "astId": 64,
            "contract": "contracts/ReloadedNFTs.sol:ReloadedNFT",
            "label": "adminRole",
            "offset": 0,
            "slot": "1",
            "type": "t_bytes32"
          }
        ],
        "numberOfBytes": "64"
      },
      "t_uint256": {
        "encoding": "inplace",
        "label": "uint256",
        "numberOfBytes": "32"
      }
    }
  }
}