{
  "address": "0x481FD13C6a2dA625f7dcec49D21Baff32610B1ea",
  "abi": [
    {
      "inputs": [
        {
          "internalType": "contract IBlastEquipmentNFT",
          "name": "_blastEquipmentNFT",
          "type": "address"
        },
        {
          "internalType": "contract IERC20",
          "name": "_blastToken",
          "type": "address"
        },
        {
          "internalType": "contract ERC20Burnable",
          "name": "_csToken",
          "type": "address"
        },
        {
          "internalType": "address",
          "name": "_treasuryAddress",
          "type": "address"
        },
        {
          "internalType": "address",
          "name": "_companyAddress",
          "type": "address"
        }
      ],
      "stateMutability": "nonpayable",
      "type": "constructor"
    },
    {
      "inputs": [
        {
          "internalType": "uint256",
          "name": "x",
          "type": "uint256"
        }
      ],
      "name": "PRBMathUD60x18__Exp2InputTooBig",
      "type": "error"
    },
    {
      "inputs": [
        {
          "internalType": "uint256",
          "name": "x",
          "type": "uint256"
        }
      ],
      "name": "PRBMathUD60x18__LogInputTooSmall",
      "type": "error"
    },
    {
      "inputs": [
        {
          "internalType": "uint256",
          "name": "prod1",
          "type": "uint256"
        }
      ],
      "name": "PRBMath__MulDivFixedPointOverflow",
      "type": "error"
    },
    {
      "inputs": [
        {
          "internalType": "uint256",
          "name": "prod1",
          "type": "uint256"
        },
        {
          "internalType": "uint256",
          "name": "denominator",
          "type": "uint256"
        }
      ],
      "name": "PRBMath__MulDivOverflow",
      "type": "error"
    },
    {
      "anonymous": false,
      "inputs": [
        {
          "indexed": false,
          "internalType": "address",
          "name": "account",
          "type": "address"
        }
      ],
      "name": "Paused",
      "type": "event"
    },
    {
      "anonymous": false,
      "inputs": [
        {
          "indexed": false,
          "internalType": "uint256",
          "name": "tokenId",
          "type": "uint256"
        },
        {
          "indexed": false,
          "internalType": "uint256",
          "name": "repairTimestamp",
          "type": "uint256"
        }
      ],
      "name": "Repaired",
      "type": "event"
    },
    {
      "anonymous": false,
      "inputs": [
        {
          "indexed": true,
          "internalType": "bytes32",
          "name": "role",
          "type": "bytes32"
        },
        {
          "indexed": true,
          "internalType": "bytes32",
          "name": "previousAdminRole",
          "type": "bytes32"
        },
        {
          "indexed": true,
          "internalType": "bytes32",
          "name": "newAdminRole",
          "type": "bytes32"
        }
      ],
      "name": "RoleAdminChanged",
      "type": "event"
    },
    {
      "anonymous": false,
      "inputs": [
        {
          "indexed": true,
          "internalType": "bytes32",
          "name": "role",
          "type": "bytes32"
        },
        {
          "indexed": true,
          "internalType": "address",
          "name": "account",
          "type": "address"
        },
        {
          "indexed": true,
          "internalType": "address",
          "name": "sender",
          "type": "address"
        }
      ],
      "name": "RoleGranted",
      "type": "event"
    },
    {
      "anonymous": false,
      "inputs": [
        {
          "indexed": true,
          "internalType": "bytes32",
          "name": "role",
          "type": "bytes32"
        },
        {
          "indexed": true,
          "internalType": "address",
          "name": "account",
          "type": "address"
        },
        {
          "indexed": true,
          "internalType": "address",
          "name": "sender",
          "type": "address"
        }
      ],
      "name": "RoleRevoked",
      "type": "event"
    },
    {
      "anonymous": false,
      "inputs": [
        {
          "indexed": false,
          "internalType": "address",
          "name": "account",
          "type": "address"
        }
      ],
      "name": "Unpaused",
      "type": "event"
    },
    {
      "inputs": [],
      "name": "DECIMAL_FACTOR",
      "outputs": [
        {
          "internalType": "uint256",
          "name": "",
          "type": "uint256"
        }
      ],
      "stateMutability": "view",
      "type": "function"
    },
    {
      "inputs": [],
      "name": "DEFAULT_ADMIN_ROLE",
      "outputs": [
        {
          "internalType": "bytes32",
          "name": "",
          "type": "bytes32"
        }
      ],
      "stateMutability": "view",
      "type": "function"
    },
    {
      "inputs": [],
      "name": "blastEquipmentNFT",
      "outputs": [
        {
          "internalType": "contract IBlastEquipmentNFT",
          "name": "",
          "type": "address"
        }
      ],
      "stateMutability": "view",
      "type": "function"
    },
    {
      "inputs": [],
      "name": "blastToken",
      "outputs": [
        {
          "internalType": "contract IERC20",
          "name": "",
          "type": "address"
        }
      ],
      "stateMutability": "view",
      "type": "function"
    },
    {
      "inputs": [],
      "name": "csToken",
      "outputs": [
        {
          "internalType": "contract ERC20Burnable",
          "name": "",
          "type": "address"
        }
      ],
      "stateMutability": "view",
      "type": "function"
    },
    {
      "inputs": [],
      "name": "flipIsUsingMatic",
      "outputs": [],
      "stateMutability": "nonpayable",
      "type": "function"
    },
    {
      "inputs": [
        {
          "internalType": "uint256",
          "name": "_tokenId",
          "type": "uint256"
        }
      ],
      "name": "getRepairPrice",
      "outputs": [
        {
          "internalType": "uint256",
          "name": "",
          "type": "uint256"
        }
      ],
      "stateMutability": "view",
      "type": "function"
    },
    {
      "inputs": [
        {
          "internalType": "uint256",
          "name": "_tokenId",
          "type": "uint256"
        }
      ],
      "name": "getRepairPriceBLST",
      "outputs": [
        {
          "internalType": "uint256",
          "name": "",
          "type": "uint256"
        }
      ],
      "stateMutability": "view",
      "type": "function"
    },
    {
      "inputs": [
        {
          "internalType": "bytes32",
          "name": "role",
          "type": "bytes32"
        }
      ],
      "name": "getRoleAdmin",
      "outputs": [
        {
          "internalType": "bytes32",
          "name": "",
          "type": "bytes32"
        }
      ],
      "stateMutability": "view",
      "type": "function"
    },
    {
      "inputs": [
        {
          "internalType": "bytes32",
          "name": "role",
          "type": "bytes32"
        },
        {
          "internalType": "address",
          "name": "account",
          "type": "address"
        }
      ],
      "name": "grantRole",
      "outputs": [],
      "stateMutability": "nonpayable",
      "type": "function"
    },
    {
      "inputs": [
        {
          "internalType": "bytes32",
          "name": "role",
          "type": "bytes32"
        },
        {
          "internalType": "address",
          "name": "account",
          "type": "address"
        }
      ],
      "name": "hasRole",
      "outputs": [
        {
          "internalType": "bool",
          "name": "",
          "type": "bool"
        }
      ],
      "stateMutability": "view",
      "type": "function"
    },
    {
      "inputs": [],
      "name": "isUsingMatic",
      "outputs": [
        {
          "internalType": "bool",
          "name": "",
          "type": "bool"
        }
      ],
      "stateMutability": "view",
      "type": "function"
    },
    {
      "inputs": [
        {
          "internalType": "bool",
          "name": "stop",
          "type": "bool"
        }
      ],
      "name": "pause",
      "outputs": [],
      "stateMutability": "nonpayable",
      "type": "function"
    },
    {
      "inputs": [],
      "name": "paused",
      "outputs": [
        {
          "internalType": "bool",
          "name": "",
          "type": "bool"
        }
      ],
      "stateMutability": "view",
      "type": "function"
    },
    {
      "inputs": [
        {
          "internalType": "bytes32",
          "name": "role",
          "type": "bytes32"
        },
        {
          "internalType": "address",
          "name": "account",
          "type": "address"
        }
      ],
      "name": "renounceRole",
      "outputs": [],
      "stateMutability": "nonpayable",
      "type": "function"
    },
    {
      "inputs": [
        {
          "internalType": "uint256",
          "name": "_tokenId",
          "type": "uint256"
        }
      ],
      "name": "repair",
      "outputs": [],
      "stateMutability": "nonpayable",
      "type": "function"
    },
    {
      "inputs": [
        {
          "internalType": "uint256",
          "name": "_tokenId",
          "type": "uint256"
        }
      ],
      "name": "repairUsingMatic",
      "outputs": [],
      "stateMutability": "payable",
      "type": "function"
    },
    {
      "inputs": [
        {
          "internalType": "bytes32",
          "name": "role",
          "type": "bytes32"
        },
        {
          "internalType": "address",
          "name": "account",
          "type": "address"
        }
      ],
      "name": "revokeRole",
      "outputs": [],
      "stateMutability": "nonpayable",
      "type": "function"
    },
    {
      "inputs": [
        {
          "internalType": "uint256",
          "name": "_basePowerForCS",
          "type": "uint256"
        },
        {
          "internalType": "uint256",
          "name": "_basePowerForBLST",
          "type": "uint256"
        }
      ],
      "name": "setBasePower",
      "outputs": [],
      "stateMutability": "nonpayable",
      "type": "function"
    },
    {
      "inputs": [
        {
          "internalType": "uint256",
          "name": "_basePriceForCS",
          "type": "uint256"
        },
        {
          "internalType": "uint256",
          "name": "_basePriceForBLST",
          "type": "uint256"
        },
        {
          "internalType": "uint256",
          "name": "_basePriceForMATIC",
          "type": "uint256"
        }
      ],
      "name": "setBasePrice",
      "outputs": [],
      "stateMutability": "nonpayable",
      "type": "function"
    },
    {
      "inputs": [
        {
          "internalType": "contract IBlastEquipmentNFT",
          "name": "_blastEquipmentNFT",
          "type": "address"
        }
      ],
      "name": "setBlastEquipmentAddress",
      "outputs": [],
      "stateMutability": "nonpayable",
      "type": "function"
    },
    {
      "inputs": [
        {
          "internalType": "contract IERC20",
          "name": "_blastToken",
          "type": "address"
        }
      ],
      "name": "setBlastTokenAddress",
      "outputs": [],
      "stateMutability": "nonpayable",
      "type": "function"
    },
    {
      "inputs": [
        {
          "internalType": "contract ERC20Burnable",
          "name": "_csToken",
          "type": "address"
        }
      ],
      "name": "setCSTokenAddress",
      "outputs": [],
      "stateMutability": "nonpayable",
      "type": "function"
    },
    {
      "inputs": [
        {
          "internalType": "address",
          "name": "_company",
          "type": "address"
        }
      ],
      "name": "setCompanyAddress",
      "outputs": [],
      "stateMutability": "nonpayable",
      "type": "function"
    },
    {
      "inputs": [
        {
          "internalType": "uint16",
          "name": "_significanceK",
          "type": "uint16"
        }
      ],
      "name": "setSignificanceK",
      "outputs": [],
      "stateMutability": "nonpayable",
      "type": "function"
    },
    {
      "inputs": [
        {
          "internalType": "address",
          "name": "_treasury",
          "type": "address"
        }
      ],
      "name": "setTreasuryAddress",
      "outputs": [],
      "stateMutability": "nonpayable",
      "type": "function"
    },
    {
      "inputs": [
        {
          "internalType": "bytes4",
          "name": "interfaceId",
          "type": "bytes4"
        }
      ],
      "name": "supportsInterface",
      "outputs": [
        {
          "internalType": "bool",
          "name": "",
          "type": "bool"
        }
      ],
      "stateMutability": "view",
      "type": "function"
    }
  ],
  "transactionHash": "0x2165ce07d8bc7388f40ad759a3ecbaa7d21137ca24398977106d54bcd6aab7d9",
  "args": [
    "0x95AE3f2aBa76316985c7D882C0fFF41E12698690",
    "0xf1ef3De13FE60a7E9C23cf8f912bf8D59475F53F",
    "0x377F70FF5Aaa97537256476C974dce06dB3b00D1",
    "0x7Ac410F4E36873022b57821D7a8EB3D7513C045a",
    "0x7Ac410F4E36873022b57821D7a8EB3D7513C045a"
  ],
  "numDeployments": 1,
  "solcInputHash": "e1022c2b25c0085f1557400f326d633d",
  "bytecode": "0x60806040526109c46007556107e9600855614e206009556032600a556005600b55600c805461ffff191660c81790553480156200003b57600080fd5b5060405162002d4438038062002d448339810160408190526200005e916200025f565b600180556002805460ff1916905584848484846001600160a01b038516158015906200009257506001600160a01b03841615155b8015620000a757506001600160a01b03831615155b8015620000bc57506001600160a01b03821615155b8015620000d157506001600160a01b03811615155b604051806040016040528060018152602001603160f81b81525090620001155760405162461bcd60e51b81526004016200010c9190620002df565b60405180910390fd5b506200012360003362000196565b600280546001600160a01b0396871661010002610100600160a81b0319909116179055600380549486166001600160a01b03199586161790556004805493861693851693909317909255600580549185169184169190911790556006805491909316911617905550620003379350505050565b620001a28282620001a6565b5050565b6000828152602081815260408083206001600160a01b038516845290915290205460ff16620001a2576000828152602081815260408083206001600160a01b03851684529091529020805460ff19166001179055620002023390565b6001600160a01b0316816001600160a01b0316837f2f8788117e7eff1d82e926ec794901d17c78024a50270940304540a733656f0d60405160405180910390a45050565b6001600160a01b03811681146200025c57600080fd5b50565b600080600080600060a086880312156200027857600080fd5b8551620002858162000246565b6020870151909550620002988162000246565b6040870151909450620002ab8162000246565b6060870151909350620002be8162000246565b6080870151909250620002d18162000246565b809150509295509295909350565b600060208083528351808285015260005b818110156200030e57858101830151858201604001528201620002f0565b8181111562000321576000604083870101525b50601f01601f1916929092016040019392505050565b6129fd80620003476000396000f3fe60806040526004361061019c5760003560e01c806368a1a8c6116100ec578063c1763ee51161008a578063df8de16311610064578063df8de1631461049e578063e04605fd146104bf578063eccb4448146104df578063f55dc821146104ff57600080fd5b8063c1763ee51461043e578063c4d3c6501461045e578063d547741f1461047e57600080fd5b806391d14854116100c657806391d14854146103c9578063a217fddf146103e9578063a85146d8146103fe578063b02631e51461041e57600080fd5b806368a1a8c61461036457806372c6239a146103845780638210174a146103a957600080fd5b80632f2ff15d116101595780634c0f5276116101335780634c0f5276146102ec5780634f63a7721461030c5780635c975abb1461032c5780636605bfda1461034457600080fd5b80632f2ff15d1461029657806333fdbbe5146102b657806336568abe146102cc57600080fd5b806301ffc9a7146101a1578063021946fd146101d657806302329a29146101ed578063054a22471461020d5780631b078ab314610220578063248a9ca314610258575b600080fd5b3480156101ad57600080fd5b506101c16101bc366004612632565b61051f565b60405190151581526020015b60405180910390f35b3480156101e257600080fd5b506101eb610556565b005b3480156101f957600080fd5b506101eb61020836600461266a565b610583565b6101eb61021b366004612687565b6105a8565b34801561022c57600080fd5b50600354610240906001600160a01b031681565b6040516001600160a01b0390911681526020016101cd565b34801561026457600080fd5b50610288610273366004612687565b60009081526020819052604090206001015490565b6040519081526020016101cd565b3480156102a257600080fd5b506101eb6102b13660046126b5565b610b02565b3480156102c257600080fd5b506102886103e881565b3480156102d857600080fd5b506101eb6102e73660046126b5565b610b2c565b3480156102f857600080fd5b506101eb6103073660046126e5565b610ba6565b34801561031857600080fd5b506101eb6103273660046126e5565b610c14565b34801561033857600080fd5b5060025460ff166101c1565b34801561035057600080fd5b506101eb61035f3660046126e5565b610c82565b34801561037057600080fd5b506101eb61037f366004612687565b610cf0565b34801561039057600080fd5b506002546102409061010090046001600160a01b031681565b3480156103b557600080fd5b506101eb6103c4366004612702565b610fa6565b3480156103d557600080fd5b506101c16103e43660046126b5565b61102b565b3480156103f557600080fd5b50610288600081565b34801561040a57600080fd5b50610288610419366004612687565b611054565b34801561042a57600080fd5b506101eb610439366004612724565b6111a0565b34801561044a57600080fd5b506101eb6104593660046126e5565b61125f565b34801561046a57600080fd5b506101eb610479366004612750565b6112cd565b34801561048a57600080fd5b506101eb6104993660046126b5565b61132c565b3480156104aa57600080fd5b506006546101c190600160a01b900460ff1681565b3480156104cb57600080fd5b50600454610240906001600160a01b031681565b3480156104eb57600080fd5b506101eb6104fa3660046126e5565b611351565b34801561050b57600080fd5b5061028861051a366004612687565b6113c5565b60006001600160e01b03198216637965db0b60e01b148061055057506301ffc9a760e01b6001600160e01b03198316145b92915050565b6000610561816114d3565b506006805460ff60a01b198116600160a01b9182900460ff1615909102179055565b600061058e816114d3565b81156105a05761059c6114e0565b5050565b61059c61153a565b600260015414156106005760405162461bcd60e51b815260206004820152601f60248201527f5265656e7472616e637947756172643a207265656e7472616e742063616c6c0060448201526064015b60405180910390fd5b600260015561060d611573565b600654604080518082019091526002815261031360f41b602082015290600160a01b900460ff166106515760405162461bcd60e51b81526004016105f791906127a0565b50336002546040516331a9108f60e11b8152600481018490526001600160a01b039283169261010090920490911690636352211e9060240160206040518083038186803b1580156106a157600080fd5b505afa1580156106b5573d6000803e3d6000fd5b505050506040513d601f19601f820116820180604052508101906106d991906127d3565b6001600160a01b031614604051806040016040528060018152602001603360f81b8152509061071b5760405162461bcd60e51b81526004016105f791906127a0565b50600254604051634378a6e360e01b8152600481018390526000918291829161010090046001600160a01b031690634378a6e39060240160c06040518083038186803b15801561076a57600080fd5b505afa15801561077e573d6000803e3d6000fd5b505050506040513d601f19601f820116820180604052508101906107a291906127f0565b50929650909450909250600691506107bc90508385612850565b11156109895760006107cd85611054565b905060008111604051806040016040528060018152602001601b60f91b8152509061080b5760405162461bcd60e51b81526004016105f791906127a0565b506040805180820190915260018152601b60f91b60208201523482146108445760405162461bcd60e51b81526004016105f791906127a0565b506005546000906001600160a01b031661085f60048461287e565b604051600081818185875af1925050503d806000811461089b576040519150601f19603f3d011682016040523d82523d6000602084013e6108a0565b606091505b5050905080604051806040016040528060018152602001603760f81b815250906108dd5760405162461bcd60e51b81526004016105f791906127a0565b506006546000906001600160a01b03166108f860048561287e565b61090290856128a0565b604051600081818185875af1925050503d806000811461093e576040519150601f19603f3d011682016040523d82523d6000602084013e610943565b606091505b5050905080604051806040016040528060018152602001600760fb1b815250906109805760405162461bcd60e51b81526004016105f791906127a0565b50505050610a47565b6000610994856113c5565b905060008111604051806040016040528060018152602001601b60f91b815250906109d25760405162461bcd60e51b81526004016105f791906127a0565b506004546001600160a01b03166379cc6790336040516001600160e01b031960e084901b1681526001600160a01b03909116600482015260248101849052604401600060405180830381600087803b158015610a2d57600080fd5b505af1158015610a41573d6000803e3d6000fd5b50505050505b60025461010090046001600160a01b0316631b36827185610a69846001612850565b6040516001600160e01b031960e085901b16815260048101929092526024820152604401600060405180830381600087803b158015610aa757600080fd5b505af1158015610abb573d6000803e3d6000fd5b5050604080518781524260208201527fbf89f06f13f79eac49a29e3cd588659bc3d0008b000b0efc38dec168c4b9a1d3935001905060405180910390a15050600180555050565b600082815260208190526040902060010154610b1d816114d3565b610b2783836115bb565b505050565b6001600160a01b0381163314610b9c5760405162461bcd60e51b815260206004820152602f60248201527f416363657373436f6e74726f6c3a2063616e206f6e6c792072656e6f756e636560448201526e103937b632b9903337b91039b2b63360891b60648201526084016105f7565b61059c828261163f565b6000610bb1816114d3565b6040805180820190915260018152603160f81b60208201526001600160a01b038316610bf05760405162461bcd60e51b81526004016105f791906127a0565b5050600380546001600160a01b0319166001600160a01b0392909216919091179055565b6000610c1f816114d3565b6040805180820190915260018152603160f81b60208201526001600160a01b038316610c5e5760405162461bcd60e51b81526004016105f791906127a0565b5050600680546001600160a01b0319166001600160a01b0392909216919091179055565b6000610c8d816114d3565b6040805180820190915260018152603160f81b60208201526001600160a01b038316610ccc5760405162461bcd60e51b81526004016105f791906127a0565b5050600580546001600160a01b0319166001600160a01b0392909216919091179055565b60026001541415610d435760405162461bcd60e51b815260206004820152601f60248201527f5265656e7472616e637947756172643a207265656e7472616e742063616c6c0060448201526064016105f7565b6002600155610d50611573565b6006546040805180820190915260018152603960f81b602082015290600160a01b900460ff1615610d945760405162461bcd60e51b81526004016105f791906127a0565b50336002546040516331a9108f60e11b8152600481018490526001600160a01b039283169261010090920490911690636352211e9060240160206040518083038186803b158015610de457600080fd5b505afa158015610df8573d6000803e3d6000fd5b505050506040513d601f19601f82011682018060405250810190610e1c91906127d3565b6001600160a01b031614604051806040016040528060018152602001603360f81b81525090610e5e5760405162461bcd60e51b81526004016105f791906127a0565b50600254604051634378a6e360e01b8152600481018390526000918291829161010090046001600160a01b031690634378a6e39060240160c06040518083038186803b158015610ead57600080fd5b505afa158015610ec1573d6000803e3d6000fd5b505050506040513d601f19601f82011682018060405250810190610ee591906127f0565b50945050935093505060068284610efc9190612850565b1115610989576000610f0d85611054565b905060008111604051806040016040528060018152602001601b60f91b81525090610f4b5760405162461bcd60e51b81526004016105f791906127a0565b50610f7b336005546001600160a01b0316610f6760048561287e565b6003546001600160a01b03169291906116a4565b610fa0336006546001600160a01b0316610f9660048561287e565b610f6790856128a0565b50610a47565b6000610fb1816114d3565b6040805180820190915260018152601960f91b602082015283610fe75760405162461bcd60e51b81526004016105f791906127a0565b506040805180820190915260018152601960f91b60208201528261101e5760405162461bcd60e51b81526004016105f791906127a0565b5050600791909155600855565b6000918252602082815260408084206001600160a01b0393909316845291905290205460ff1690565b600254604051634378a6e360e01b8152600481018390526000918291829161010090046001600160a01b031690634378a6e39060240160c06040518083038186803b1580156110a257600080fd5b505afa1580156110b6573d6000803e3d6000fd5b505050506040513d601f19601f820116820180604052508101906110da91906127f0565b5050509250925050600681836110f09190612850565b111561119657600081611104846001612850565b61110e91906128b7565b90508061112057506000949350505050565b6006546103e890600160a01b900460ff1661113d57600a54611141565b600b545b61117961117461116c61116461115f87670de0b6b3a76400006128b7565b611704565b6008546117b4565b6103e86117c7565b6117dc565b61118391906128b7565b61118d919061287e565b95945050505050565b5060009392505050565b60006111ab816114d3565b6040805180820190915260018152601960f91b6020820152846111e15760405162461bcd60e51b81526004016105f791906127a0565b506040805180820190915260018152601960f91b6020820152836112185760405162461bcd60e51b81526004016105f791906127a0565b506040805180820190915260018152601960f91b60208201528261124f5760405162461bcd60e51b81526004016105f791906127a0565b5050600992909255600a55600b55565b600061126a816114d3565b6040805180820190915260018152603160f81b60208201526001600160a01b0383166112a95760405162461bcd60e51b81526004016105f791906127a0565b5050600480546001600160a01b0319166001600160a01b0392909216919091179055565b60006112d8816114d3565b6040805180820190915260018152601960f91b602082015261ffff83166113125760405162461bcd60e51b81526004016105f791906127a0565b5050600c805461ffff191661ffff92909216919091179055565b600082815260208190526040902060010154611347816114d3565b610b27838361163f565b600061135c816114d3565b6040805180820190915260018152603160f81b60208201526001600160a01b03831661139b5760405162461bcd60e51b81526004016105f791906127a0565b5050600280546001600160a01b0390921661010002610100600160a81b0319909216919091179055565b600254604051634378a6e360e01b8152600481018390526000918291829161010090046001600160a01b031690634378a6e39060240160c06040518083038186803b15801561141357600080fd5b505afa158015611427573d6000803e3d6000fd5b505050506040513d601f19601f8201168201806040525081019061144b91906127f0565b5050600c54929550909350600092506103e89184915082906114719061ffff16876128b7565b61147b9190612850565b61148591906128b7565b61149790670de0b6b3a76400006128b7565b6114a1919061287e565b9050806114b357506000949350505050565b6103e860095461117961117461116c6114cb86611704565b6007546117b4565b6114dd8133611822565b50565b6114e8611573565b6002805460ff191660011790557f62e78cea01bee320cd4e420270b5ea74000d11b0c9f74754ebdbfc544b05a25861151d3390565b6040516001600160a01b03909116815260200160405180910390a1565b611542611886565b6002805460ff191690557f5db9ee0a495bf2e6ff9c91a7834c1ba4fdd244a5e8aa4e537bd38aeae4b073aa3361151d565b60025460ff16156115b95760405162461bcd60e51b815260206004820152601060248201526f14185d5cd8589b194e881c185d5cd95960821b60448201526064016105f7565b565b6115c5828261102b565b61059c576000828152602081815260408083206001600160a01b03851684529091529020805460ff191660011790556115fb3390565b6001600160a01b0316816001600160a01b0316837f2f8788117e7eff1d82e926ec794901d17c78024a50270940304540a733656f0d60405160405180910390a45050565b611649828261102b565b1561059c576000828152602081815260408083206001600160a01b0385168085529252808320805460ff1916905551339285917ff6391f5c32d9c69d2a47ea670b442974b53935d1edc7fd64eb21e047a839171b9190a45050565b604080516001600160a01b0385811660248301528416604482015260648082018490528251808303909101815260849091019091526020810180516001600160e01b03166323b872dd60e01b1790526116fe9085906118cf565b50505050565b6000670de0b6b3a764000082101561173257604051633621413760e21b8152600481018390526024016105f7565b6000611747670de0b6b3a764000084046119a1565b670de0b6b3a7640000808202935090915083821c9081141561176a575050919050565b6706f05b59d3b200005b80156117ac57670de0b6b3a7640000828002049150671bc16d674ec8000082106117a4579283019260019190911c905b60011c611774565b505050919050565b60006117c08383611a8a565b9392505050565b60006117c083670de0b6b3a764000084611b4c565b6000680a688906bd8b000000821061180a57604051634a4f26f160e01b8152600481018390526024016105f7565b670de0b6b3a7640000604083901b046117c081611c19565b61182c828261102b565b61059c57611844816001600160a01b03166014612315565b61184f836020612315565b6040516020016118609291906128d6565b60408051601f198184030181529082905262461bcd60e51b82526105f7916004016127a0565b60025460ff166115b95760405162461bcd60e51b815260206004820152601460248201527314185d5cd8589b194e881b9bdd081c185d5cd95960621b60448201526064016105f7565b6000611924826040518060400160405280602081526020017f5361666545524332303a206c6f772d6c6576656c2063616c6c206661696c6564815250856001600160a01b03166124b19092919063ffffffff16565b805190915015610b275780806020019051810190611942919061294b565b610b275760405162461bcd60e51b815260206004820152602a60248201527f5361666545524332303a204552433230206f7065726174696f6e20646964206e6044820152691bdd081cdd58d8d9595960b21b60648201526084016105f7565b6000600160801b82106119c157608091821c916119be9082612850565b90505b6801000000000000000082106119e457604091821c916119e19082612850565b90505b6401000000008210611a0357602091821c91611a009082612850565b90505b620100008210611a2057601091821c91611a1d9082612850565b90505b6101008210611a3c57600891821c91611a399082612850565b90505b60108210611a5757600491821c91611a549082612850565b90505b60048210611a7257600291821c91611a6f9082612850565b90505b60028210611a8557610550600182612850565b919050565b60008080600019848609848602925082811083820303915050670de0b6b3a76400008110611ace5760405163698d9a0160e11b8152600481018290526024016105f7565b600080670de0b6b3a76400008688099150506706f05b59d3b1ffff811182611b085780670de0b6b3a7640000850401945050505050610550565b620400008285030493909111909103600160ee1b02919091177faccb18165bd6fe31ae1cf318dc5b51eee0e1ba569b88cd74c1773b91fac106690201905092915050565b600080806000198587098587029250828110838203039150508060001415611b8757838281611b7d57611b7d612868565b04925050506117c0565b838110611bb157604051631dcf306360e21b815260048101829052602481018590526044016105f7565b600084868809600260036001881981018916988990049182028318808302840302808302840302808302840302808302840302808302840302918202909203026000889003889004909101858311909403939093029303949094049190911702949350505050565b600160bf1b678000000000000000821615611c3d5768016a09e667f3bcc9090260401c5b674000000000000000821615611c5c576801306fe0a31b7152df0260401c5b672000000000000000821615611c7b576801172b83c7d517adce0260401c5b671000000000000000821615611c9a5768010b5586cf9890f62a0260401c5b670800000000000000821615611cb9576801059b0d31585743ae0260401c5b670400000000000000821615611cd857680102c9a3e778060ee70260401c5b670200000000000000821615611cf75768010163da9fb33356d80260401c5b670100000000000000821615611d1657680100b1afa5abcbed610260401c5b6680000000000000821615611d345768010058c86da1c09ea20260401c5b6640000000000000821615611d52576801002c605e2e8cec500260401c5b6620000000000000821615611d7057680100162f3904051fa10260401c5b6610000000000000821615611d8e576801000b175effdc76ba0260401c5b6608000000000000821615611dac57680100058ba01fb9f96d0260401c5b6604000000000000821615611dca5768010002c5cc37da94920260401c5b6602000000000000821615611de8576801000162e525ee05470260401c5b6601000000000000821615611e065768010000b17255775c040260401c5b65800000000000821615611e23576801000058b91b5bc9ae0260401c5b65400000000000821615611e4057680100002c5c89d5ec6d0260401c5b65200000000000821615611e5d5768010000162e43f4f8310260401c5b65100000000000821615611e7a57680100000b1721bcfc9a0260401c5b65080000000000821615611e975768010000058b90cf1e6e0260401c5b65040000000000821615611eb4576801000002c5c863b73f0260401c5b65020000000000821615611ed157680100000162e430e5a20260401c5b65010000000000821615611eee576801000000b1721835510260401c5b648000000000821615611f0a57680100000058b90c0b490260401c5b644000000000821615611f265768010000002c5c8601cc0260401c5b642000000000821615611f42576801000000162e42fff00260401c5b641000000000821615611f5e5768010000000b17217fbb0260401c5b640800000000821615611f7a576801000000058b90bfce0260401c5b640400000000821615611f9657680100000002c5c85fe30260401c5b640200000000821615611fb25768010000000162e42ff10260401c5b640100000000821615611fce57680100000000b17217f80260401c5b6380000000821615611fe95768010000000058b90bfc0260401c5b6340000000821615612004576801000000002c5c85fe0260401c5b632000000082161561201f57680100000000162e42ff0260401c5b631000000082161561203a576801000000000b17217f0260401c5b630800000082161561205557680100000000058b90c00260401c5b63040000008216156120705768010000000002c5c8600260401c5b630200000082161561208b576801000000000162e4300260401c5b63010000008216156120a65768010000000000b172180260401c5b628000008216156120c0576801000000000058b90c0260401c5b624000008216156120da57680100000000002c5c860260401c5b622000008216156120f45768010000000000162e430260401c5b6210000082161561210e57680100000000000b17210260401c5b620800008216156121285768010000000000058b910260401c5b62040000821615612142576801000000000002c5c80260401c5b6202000082161561215c57680100000000000162e40260401c5b62010000821615612176576801000000000000b1720260401c5b61800082161561218f57680100000000000058b90260401c5b6140008216156121a85768010000000000002c5d0260401c5b6120008216156121c1576801000000000000162e0260401c5b6110008216156121da5768010000000000000b170260401c5b6108008216156121f3576801000000000000058c0260401c5b61040082161561220c57680100000000000002c60260401c5b61020082161561222557680100000000000001630260401c5b61010082161561223e57680100000000000000b10260401c5b608082161561225657680100000000000000590260401c5b604082161561226e576801000000000000002c0260401c5b602082161561228657680100000000000000160260401c5b601082161561229e576801000000000000000b0260401c5b60088216156122b657680100000000000000060260401c5b60048216156122ce57680100000000000000030260401c5b60028216156122e657680100000000000000010260401c5b60018216156122fe57680100000000000000010260401c5b670de0b6b3a76400000260409190911c60bf031c90565b606060006123248360026128b7565b61232f906002612850565b67ffffffffffffffff81111561234757612347612968565b6040519080825280601f01601f191660200182016040528015612371576020820181803683370190505b509050600360fc1b8160008151811061238c5761238c61297e565b60200101906001600160f81b031916908160001a905350600f60fb1b816001815181106123bb576123bb61297e565b60200101906001600160f81b031916908160001a90535060006123df8460026128b7565b6123ea906001612850565b90505b6001811115612462576f181899199a1a9b1b9c1cb0b131b232b360811b85600f166010811061241e5761241e61297e565b1a60f81b8282815181106124345761243461297e565b60200101906001600160f81b031916908160001a90535060049490941c9361245b81612994565b90506123ed565b5083156117c05760405162461bcd60e51b815260206004820181905260248201527f537472696e67733a20686578206c656e67746820696e73756666696369656e7460448201526064016105f7565b60606124c084846000856124c8565b949350505050565b6060824710156125295760405162461bcd60e51b815260206004820152602660248201527f416464726573733a20696e73756666696369656e742062616c616e636520666f6044820152651c8818d85b1b60d21b60648201526084016105f7565b6001600160a01b0385163b6125805760405162461bcd60e51b815260206004820152601d60248201527f416464726573733a2063616c6c20746f206e6f6e2d636f6e747261637400000060448201526064016105f7565b600080866001600160a01b0316858760405161259c91906129ab565b60006040518083038185875af1925050503d80600081146125d9576040519150601f19603f3d011682016040523d82523d6000602084013e6125de565b606091505b50915091506125ee8282866125f9565b979650505050505050565b606083156126085750816117c0565b8251156126185782518084602001fd5b8160405162461bcd60e51b81526004016105f791906127a0565b60006020828403121561264457600080fd5b81356001600160e01b0319811681146117c057600080fd5b80151581146114dd57600080fd5b60006020828403121561267c57600080fd5b81356117c08161265c565b60006020828403121561269957600080fd5b5035919050565b6001600160a01b03811681146114dd57600080fd5b600080604083850312156126c857600080fd5b8235915060208301356126da816126a0565b809150509250929050565b6000602082840312156126f757600080fd5b81356117c0816126a0565b6000806040838503121561271557600080fd5b50508035926020909101359150565b60008060006060848603121561273957600080fd5b505081359360208301359350604090920135919050565b60006020828403121561276257600080fd5b813561ffff811681146117c057600080fd5b60005b8381101561278f578181015183820152602001612777565b838111156116fe5750506000910152565b60208152600082518060208401526127bf816040850160208701612774565b601f01601f19169190910160400192915050565b6000602082840312156127e557600080fd5b81516117c0816126a0565b60008060008060008060c0878903121561280957600080fd5b865195506020870151945060408701519350606087015192506080870151915060a087015190509295509295509295565b634e487b7160e01b600052601160045260246000fd5b600082198211156128635761286361283a565b500190565b634e487b7160e01b600052601260045260246000fd5b60008261289b57634e487b7160e01b600052601260045260246000fd5b500490565b6000828210156128b2576128b261283a565b500390565b60008160001904831182151516156128d1576128d161283a565b500290565b7f416363657373436f6e74726f6c3a206163636f756e742000000000000000000081526000835161290e816017850160208801612774565b7001034b99036b4b9b9b4b733903937b6329607d1b601791840191820152835161293f816028840160208801612774565b01602801949350505050565b60006020828403121561295d57600080fd5b81516117c08161265c565b634e487b7160e01b600052604160045260246000fd5b634e487b7160e01b600052603260045260246000fd5b6000816129a3576129a361283a565b506000190190565b600082516129bd818460208701612774565b919091019291505056fea2646970667358221220ed5dc6ca6b363f663ce21ab3a5ff571fa4715e2ea3ff0dfee3829d518808484264736f6c63430008090033",
  "devdoc": {
    "kind": "dev",
    "methods": {
      "getRoleAdmin(bytes32)": {
        "details": "Returns the admin role that controls `role`. See {grantRole} and {revokeRole}. To change a role's admin, use {_setRoleAdmin}."
      },
      "grantRole(bytes32,address)": {
        "details": "Grants `role` to `account`. If `account` had not been already granted `role`, emits a {RoleGranted} event. Requirements: - the caller must have ``role``'s admin role. May emit a {RoleGranted} event."
      },
      "hasRole(bytes32,address)": {
        "details": "Returns `true` if `account` has been granted `role`."
      },
      "paused()": {
        "details": "Returns true if the contract is paused, and false otherwise."
      },
      "renounceRole(bytes32,address)": {
        "details": "Revokes `role` from the calling account. Roles are often managed via {grantRole} and {revokeRole}: this function's purpose is to provide a mechanism for accounts to lose their privileges if they are compromised (such as when a trusted device is misplaced). If the calling account had been revoked `role`, emits a {RoleRevoked} event. Requirements: - the caller must be `account`. May emit a {RoleRevoked} event."
      },
      "revokeRole(bytes32,address)": {
        "details": "Revokes `role` from `account`. If `account` had been granted `role`, emits a {RoleRevoked} event. Requirements: - the caller must have ``role``'s admin role. May emit a {RoleRevoked} event."
      },
      "setBasePower(uint256,uint256)": {
        "details": "The caller must have the `DEFAULT_ADMIN_ROLE`."
      },
      "setBasePrice(uint256,uint256,uint256)": {
        "details": "The caller must have the `DEFAULT_ADMIN_ROLE`."
      },
      "setSignificanceK(uint16)": {
        "details": "The caller must have the `DEFAULT_ADMIN_ROLE`."
      },
      "supportsInterface(bytes4)": {
        "details": "See {IERC165-supportsInterface}."
      }
    },
    "version": 1
  },
  "userdoc": {
    "errors": {
      "PRBMathUD60x18__Exp2InputTooBig(uint256)": [
        {
          "notice": "Emitted when the input is greater than 192."
        }
      ],
      "PRBMathUD60x18__LogInputTooSmall(uint256)": [
        {
          "notice": "Emitted when the input is less than 1."
        }
      ],
      "PRBMath__MulDivFixedPointOverflow(uint256)": [
        {
          "notice": "Emitted when the result overflows uint256."
        }
      ],
      "PRBMath__MulDivOverflow(uint256,uint256)": [
        {
          "notice": "Emitted when the result overflows uint256."
        }
      ]
    },
    "kind": "user",
    "methods": {
      "setBasePower(uint256,uint256)": {
        "notice": "Set Base Power for CS and BLST. It will affect to calculate repair price for CS & BLST"
      },
      "setBasePrice(uint256,uint256,uint256)": {
        "notice": "Set Base Price for CS and BLST. It will affect to calculate repair price for CS & BLST"
      },
      "setSignificanceK(uint16)": {
        "notice": "Set significanceK value"
      }
    },
    "version": 1
  },
  "storageLayout": {
    "storage": [
      {
        "astId": 70,
        "contract": "contracts/Utilities/Repairing.sol:Repairing",
        "label": "_roles",
        "offset": 0,
        "slot": "0",
        "type": "t_mapping(t_bytes32,t_struct(RoleData)65_storage)"
      },
      {
        "astId": 670,
        "contract": "contracts/Utilities/Repairing.sol:Repairing",
        "label": "_status",
        "offset": 0,
        "slot": "1",
        "type": "t_uint256"
      },
      {
        "astId": 569,
        "contract": "contracts/Utilities/Repairing.sol:Repairing",
        "label": "_paused",
        "offset": 0,
        "slot": "2",
        "type": "t_bool"
      },
      {
        "astId": 12547,
        "contract": "contracts/Utilities/Repairing.sol:Repairing",
        "label": "blastEquipmentNFT",
        "offset": 1,
        "slot": "2",
        "type": "t_contract(IBlastEquipmentNFT)13566"
      },
      {
        "astId": 12550,
        "contract": "contracts/Utilities/Repairing.sol:Repairing",
        "label": "blastToken",
        "offset": 0,
        "slot": "3",
        "type": "t_contract(IERC20)1363"
      },
      {
        "astId": 12553,
        "contract": "contracts/Utilities/Repairing.sol:Repairing",
        "label": "csToken",
        "offset": 0,
        "slot": "4",
        "type": "t_contract(ERC20Burnable)1407"
      },
      {
        "astId": 12555,
        "contract": "contracts/Utilities/Repairing.sol:Repairing",
        "label": "treasuryAddress",
        "offset": 0,
        "slot": "5",
        "type": "t_address"
      },
      {
        "astId": 12557,
        "contract": "contracts/Utilities/Repairing.sol:Repairing",
        "label": "companyAddress",
        "offset": 0,
        "slot": "6",
        "type": "t_address"
      },
      {
        "astId": 12559,
        "contract": "contracts/Utilities/Repairing.sol:Repairing",
        "label": "isUsingMatic",
        "offset": 20,
        "slot": "6",
        "type": "t_bool"
      },
      {
        "astId": 9879,
        "contract": "contracts/Utilities/Repairing.sol:Repairing",
        "label": "basePowerForCS",
        "offset": 0,
        "slot": "7",
        "type": "t_uint256"
      },
      {
        "astId": 9882,
        "contract": "contracts/Utilities/Repairing.sol:Repairing",
        "label": "basePowerForBLST",
        "offset": 0,
        "slot": "8",
        "type": "t_uint256"
      },
      {
        "astId": 9885,
        "contract": "contracts/Utilities/Repairing.sol:Repairing",
        "label": "basePriceForCS",
        "offset": 0,
        "slot": "9",
        "type": "t_uint256"
      },
      {
        "astId": 9888,
        "contract": "contracts/Utilities/Repairing.sol:Repairing",
        "label": "basePriceForBLST",
        "offset": 0,
        "slot": "10",
        "type": "t_uint256"
      },
      {
        "astId": 9891,
        "contract": "contracts/Utilities/Repairing.sol:Repairing",
        "label": "basePriceForMATIC",
        "offset": 0,
        "slot": "11",
        "type": "t_uint256"
      },
      {
        "astId": 9894,
        "contract": "contracts/Utilities/Repairing.sol:Repairing",
        "label": "significanceK",
        "offset": 0,
        "slot": "12",
        "type": "t_uint16"
      }
    ],
    "types": {
      "t_address": {
        "encoding": "inplace",
        "label": "address",
        "numberOfBytes": "20"
      },
      "t_bool": {
        "encoding": "inplace",
        "label": "bool",
        "numberOfBytes": "1"
      },
      "t_bytes32": {
        "encoding": "inplace",
        "label": "bytes32",
        "numberOfBytes": "32"
      },
      "t_contract(ERC20Burnable)1407": {
        "encoding": "inplace",
        "label": "contract ERC20Burnable",
        "numberOfBytes": "20"
      },
      "t_contract(IBlastEquipmentNFT)13566": {
        "encoding": "inplace",
        "label": "contract IBlastEquipmentNFT",
        "numberOfBytes": "20"
      },
      "t_contract(IERC20)1363": {
        "encoding": "inplace",
        "label": "contract IERC20",
        "numberOfBytes": "20"
      },
      "t_mapping(t_address,t_bool)": {
        "encoding": "mapping",
        "key": "t_address",
        "label": "mapping(address => bool)",
        "numberOfBytes": "32",
        "value": "t_bool"
      },
      "t_mapping(t_bytes32,t_struct(RoleData)65_storage)": {
        "encoding": "mapping",
        "key": "t_bytes32",
        "label": "mapping(bytes32 => struct AccessControl.RoleData)",
        "numberOfBytes": "32",
        "value": "t_struct(RoleData)65_storage"
      },
      "t_struct(RoleData)65_storage": {
        "encoding": "inplace",
        "label": "struct AccessControl.RoleData",
        "members": [
          {
            "astId": 62,
            "contract": "contracts/Utilities/Repairing.sol:Repairing",
            "label": "members",
            "offset": 0,
            "slot": "0",
            "type": "t_mapping(t_address,t_bool)"
          },
          {
            "astId": 64,
            "contract": "contracts/Utilities/Repairing.sol:Repairing",
            "label": "adminRole",
            "offset": 0,
            "slot": "1",
            "type": "t_bytes32"
          }
        ],
        "numberOfBytes": "64"
      },
      "t_uint16": {
        "encoding": "inplace",
        "label": "uint16",
        "numberOfBytes": "2"
      },
      "t_uint256": {
        "encoding": "inplace",
        "label": "uint256",
        "numberOfBytes": "32"
      }
    }
  }
}