{
  "address": "0xFa752EbEE9Ef11bce1809287F224D55E9a6B68Ad",
  "abi": [
    {
      "inputs": [
        {
          "internalType": "contract IBlastEquipmentNFT",
          "name": "_blastEquipmentNFT",
          "type": "address"
        },
        {
          "internalType": "contract IERC20",
          "name": "_blastToken",
          "type": "address"
        },
        {
          "internalType": "contract ERC20Burnable",
          "name": "_csToken",
          "type": "address"
        },
        {
          "internalType": "address",
          "name": "_treasuryAddress",
          "type": "address"
        },
        {
          "internalType": "address",
          "name": "_companyAddress",
          "type": "address"
        }
      ],
      "stateMutability": "nonpayable",
      "type": "constructor"
    },
    {
      "inputs": [
        {
          "internalType": "uint256",
          "name": "x",
          "type": "uint256"
        }
      ],
      "name": "PRBMathUD60x18__Exp2InputTooBig",
      "type": "error"
    },
    {
      "inputs": [
        {
          "internalType": "uint256",
          "name": "x",
          "type": "uint256"
        }
      ],
      "name": "PRBMathUD60x18__LogInputTooSmall",
      "type": "error"
    },
    {
      "inputs": [
        {
          "internalType": "uint256",
          "name": "prod1",
          "type": "uint256"
        }
      ],
      "name": "PRBMath__MulDivFixedPointOverflow",
      "type": "error"
    },
    {
      "inputs": [
        {
          "internalType": "uint256",
          "name": "prod1",
          "type": "uint256"
        },
        {
          "internalType": "uint256",
          "name": "denominator",
          "type": "uint256"
        }
      ],
      "name": "PRBMath__MulDivOverflow",
      "type": "error"
    },
    {
      "anonymous": false,
      "inputs": [
        {
          "indexed": false,
          "internalType": "address",
          "name": "account",
          "type": "address"
        }
      ],
      "name": "Paused",
      "type": "event"
    },
    {
      "anonymous": false,
      "inputs": [
        {
          "indexed": false,
          "internalType": "uint256",
          "name": "tokenId",
          "type": "uint256"
        },
        {
          "indexed": false,
          "internalType": "uint256",
          "name": "repairTimestamp",
          "type": "uint256"
        }
      ],
      "name": "Repaired",
      "type": "event"
    },
    {
      "anonymous": false,
      "inputs": [
        {
          "indexed": true,
          "internalType": "bytes32",
          "name": "role",
          "type": "bytes32"
        },
        {
          "indexed": true,
          "internalType": "bytes32",
          "name": "previousAdminRole",
          "type": "bytes32"
        },
        {
          "indexed": true,
          "internalType": "bytes32",
          "name": "newAdminRole",
          "type": "bytes32"
        }
      ],
      "name": "RoleAdminChanged",
      "type": "event"
    },
    {
      "anonymous": false,
      "inputs": [
        {
          "indexed": true,
          "internalType": "bytes32",
          "name": "role",
          "type": "bytes32"
        },
        {
          "indexed": true,
          "internalType": "address",
          "name": "account",
          "type": "address"
        },
        {
          "indexed": true,
          "internalType": "address",
          "name": "sender",
          "type": "address"
        }
      ],
      "name": "RoleGranted",
      "type": "event"
    },
    {
      "anonymous": false,
      "inputs": [
        {
          "indexed": true,
          "internalType": "bytes32",
          "name": "role",
          "type": "bytes32"
        },
        {
          "indexed": true,
          "internalType": "address",
          "name": "account",
          "type": "address"
        },
        {
          "indexed": true,
          "internalType": "address",
          "name": "sender",
          "type": "address"
        }
      ],
      "name": "RoleRevoked",
      "type": "event"
    },
    {
      "anonymous": false,
      "inputs": [
        {
          "indexed": false,
          "internalType": "address",
          "name": "account",
          "type": "address"
        }
      ],
      "name": "Unpaused",
      "type": "event"
    },
    {
      "inputs": [],
      "name": "DECIMAL_FACTOR",
      "outputs": [
        {
          "internalType": "uint256",
          "name": "",
          "type": "uint256"
        }
      ],
      "stateMutability": "view",
      "type": "function"
    },
    {
      "inputs": [],
      "name": "DEFAULT_ADMIN_ROLE",
      "outputs": [
        {
          "internalType": "bytes32",
          "name": "",
          "type": "bytes32"
        }
      ],
      "stateMutability": "view",
      "type": "function"
    },
    {
      "inputs": [],
      "name": "blastEquipmentNFT",
      "outputs": [
        {
          "internalType": "contract IBlastEquipmentNFT",
          "name": "",
          "type": "address"
        }
      ],
      "stateMutability": "view",
      "type": "function"
    },
    {
      "inputs": [],
      "name": "blastToken",
      "outputs": [
        {
          "internalType": "contract IERC20",
          "name": "",
          "type": "address"
        }
      ],
      "stateMutability": "view",
      "type": "function"
    },
    {
      "inputs": [],
      "name": "csToken",
      "outputs": [
        {
          "internalType": "contract ERC20Burnable",
          "name": "",
          "type": "address"
        }
      ],
      "stateMutability": "view",
      "type": "function"
    },
    {
      "inputs": [],
      "name": "flipIsUsingMatic",
      "outputs": [],
      "stateMutability": "nonpayable",
      "type": "function"
    },
    {
      "inputs": [
        {
          "internalType": "uint256",
          "name": "_tokenId",
          "type": "uint256"
        }
      ],
      "name": "getRepairPrice",
      "outputs": [
        {
          "internalType": "uint256",
          "name": "",
          "type": "uint256"
        }
      ],
      "stateMutability": "view",
      "type": "function"
    },
    {
      "inputs": [
        {
          "internalType": "uint256",
          "name": "_tokenId",
          "type": "uint256"
        }
      ],
      "name": "getRepairPriceBLST",
      "outputs": [
        {
          "internalType": "uint256",
          "name": "",
          "type": "uint256"
        }
      ],
      "stateMutability": "view",
      "type": "function"
    },
    {
      "inputs": [
        {
          "internalType": "bytes32",
          "name": "role",
          "type": "bytes32"
        }
      ],
      "name": "getRoleAdmin",
      "outputs": [
        {
          "internalType": "bytes32",
          "name": "",
          "type": "bytes32"
        }
      ],
      "stateMutability": "view",
      "type": "function"
    },
    {
      "inputs": [
        {
          "internalType": "bytes32",
          "name": "role",
          "type": "bytes32"
        },
        {
          "internalType": "address",
          "name": "account",
          "type": "address"
        }
      ],
      "name": "grantRole",
      "outputs": [],
      "stateMutability": "nonpayable",
      "type": "function"
    },
    {
      "inputs": [
        {
          "internalType": "bytes32",
          "name": "role",
          "type": "bytes32"
        },
        {
          "internalType": "address",
          "name": "account",
          "type": "address"
        }
      ],
      "name": "hasRole",
      "outputs": [
        {
          "internalType": "bool",
          "name": "",
          "type": "bool"
        }
      ],
      "stateMutability": "view",
      "type": "function"
    },
    {
      "inputs": [],
      "name": "isUsingMatic",
      "outputs": [
        {
          "internalType": "bool",
          "name": "",
          "type": "bool"
        }
      ],
      "stateMutability": "view",
      "type": "function"
    },
    {
      "inputs": [
        {
          "internalType": "bool",
          "name": "stop",
          "type": "bool"
        }
      ],
      "name": "pause",
      "outputs": [],
      "stateMutability": "nonpayable",
      "type": "function"
    },
    {
      "inputs": [],
      "name": "paused",
      "outputs": [
        {
          "internalType": "bool",
          "name": "",
          "type": "bool"
        }
      ],
      "stateMutability": "view",
      "type": "function"
    },
    {
      "inputs": [
        {
          "internalType": "bytes32",
          "name": "role",
          "type": "bytes32"
        },
        {
          "internalType": "address",
          "name": "account",
          "type": "address"
        }
      ],
      "name": "renounceRole",
      "outputs": [],
      "stateMutability": "nonpayable",
      "type": "function"
    },
    {
      "inputs": [
        {
          "internalType": "uint256",
          "name": "_tokenId",
          "type": "uint256"
        }
      ],
      "name": "repair",
      "outputs": [],
      "stateMutability": "nonpayable",
      "type": "function"
    },
    {
      "inputs": [
        {
          "internalType": "uint256",
          "name": "_tokenId",
          "type": "uint256"
        }
      ],
      "name": "repairUsingMatic",
      "outputs": [],
      "stateMutability": "payable",
      "type": "function"
    },
    {
      "inputs": [
        {
          "internalType": "bytes32",
          "name": "role",
          "type": "bytes32"
        },
        {
          "internalType": "address",
          "name": "account",
          "type": "address"
        }
      ],
      "name": "revokeRole",
      "outputs": [],
      "stateMutability": "nonpayable",
      "type": "function"
    },
    {
      "inputs": [
        {
          "internalType": "uint256",
          "name": "_basePowerForCS",
          "type": "uint256"
        },
        {
          "internalType": "uint256",
          "name": "_basePowerForBLST",
          "type": "uint256"
        }
      ],
      "name": "setBasePower",
      "outputs": [],
      "stateMutability": "nonpayable",
      "type": "function"
    },
    {
      "inputs": [
        {
          "internalType": "uint256",
          "name": "_basePriceForCS",
          "type": "uint256"
        },
        {
          "internalType": "uint256",
          "name": "_basePriceForBLST",
          "type": "uint256"
        },
        {
          "internalType": "uint256",
          "name": "_basePriceForMATIC",
          "type": "uint256"
        }
      ],
      "name": "setBasePrice",
      "outputs": [],
      "stateMutability": "nonpayable",
      "type": "function"
    },
    {
      "inputs": [
        {
          "internalType": "contract IBlastEquipmentNFT",
          "name": "_blastEquipmentNFT",
          "type": "address"
        }
      ],
      "name": "setBlastEquipmentAddress",
      "outputs": [],
      "stateMutability": "nonpayable",
      "type": "function"
    },
    {
      "inputs": [
        {
          "internalType": "contract IERC20",
          "name": "_blastToken",
          "type": "address"
        }
      ],
      "name": "setBlastTokenAddress",
      "outputs": [],
      "stateMutability": "nonpayable",
      "type": "function"
    },
    {
      "inputs": [
        {
          "internalType": "contract ERC20Burnable",
          "name": "_csToken",
          "type": "address"
        }
      ],
      "name": "setCSTokenAddress",
      "outputs": [],
      "stateMutability": "nonpayable",
      "type": "function"
    },
    {
      "inputs": [
        {
          "internalType": "address",
          "name": "_company",
          "type": "address"
        }
      ],
      "name": "setCompanyAddress",
      "outputs": [],
      "stateMutability": "nonpayable",
      "type": "function"
    },
    {
      "inputs": [
        {
          "internalType": "uint16",
          "name": "_significanceK",
          "type": "uint16"
        }
      ],
      "name": "setSignificanceK",
      "outputs": [],
      "stateMutability": "nonpayable",
      "type": "function"
    },
    {
      "inputs": [
        {
          "internalType": "address",
          "name": "_treasury",
          "type": "address"
        }
      ],
      "name": "setTreasuryAddress",
      "outputs": [],
      "stateMutability": "nonpayable",
      "type": "function"
    },
    {
      "inputs": [
        {
          "internalType": "bytes4",
          "name": "interfaceId",
          "type": "bytes4"
        }
      ],
      "name": "supportsInterface",
      "outputs": [
        {
          "internalType": "bool",
          "name": "",
          "type": "bool"
        }
      ],
      "stateMutability": "view",
      "type": "function"
    }
  ],
  "transactionHash": "0x43cc4faba04505652ec21c5320fa710689b0938b943ea34c0b2d456dd4ecc425",
  "args": [
    "0x03eA885Ec4cb6100707EB4bE74DD83a7DDf856B1",
    "0xdF1b3D7F8DE55148c42dAb83f8f1b9E0510EfCb2",
    "0xdec2bE2062416011688B3D7f3487a2F3B5421c74",
    "0x7Ac410F4E36873022b57821D7a8EB3D7513C045a",
    "0x7Ac410F4E36873022b57821D7a8EB3D7513C045a"
  ],
  "numDeployments": 3,
  "solcInputHash": "33aaa315b90d2e2bf98753769b81dbaa",
  "bytecode": "0x60806040526109c46008556107e9600955614e20600a556032600b55600c805461ffff191660c81790553480156200003657600080fd5b5060405162002e9c38038062002e9c833981016040819052620000599162000278565b600180556002805460ff1916905584848484846001600160a01b038516158015906200008d57506001600160a01b03841615155b8015620000a257506001600160a01b03831615155b8015620000b757506001600160a01b03821615155b8015620000cc57506001600160a01b03811615155b604051806040016040528060018152602001603160f81b81525090620001105760405162461bcd60e51b8152600401620001079190620002f8565b60405180910390fd5b506200011e600033620001af565b600380546001600160a01b03199081166001600160a01b03978816179091556004805482169587169590951790945560058054851693861693909317909255600680548416918516919091179055600780549092169216919091179055505060028054610100600160a81b03191674d0d5e3db44de05e9f294bb0a3beeaf030de24ada001790555062000350915050565b620001bb8282620001bf565b5050565b6000828152602081815260408083206001600160a01b038516845290915290205460ff16620001bb576000828152602081815260408083206001600160a01b03851684529091529020805460ff191660011790556200021b3390565b6001600160a01b0316816001600160a01b0316837f2f8788117e7eff1d82e926ec794901d17c78024a50270940304540a733656f0d60405160405180910390a45050565b6001600160a01b03811681146200027557600080fd5b50565b600080600080600060a086880312156200029157600080fd5b85516200029e816200025f565b6020870151909550620002b1816200025f565b6040870151909450620002c4816200025f565b6060870151909350620002d7816200025f565b6080870151909250620002ea816200025f565b809150509295509295909350565b600060208083528351808285015260005b81811015620003275785810183015185820160400152820162000309565b818111156200033a576000604083870101525b50601f01601f1916929092016040019392505050565b612b3c80620003606000396000f3fe6080604052600436106101b75760003560e01c806372c6239a116100ec578063c4d3c6501161008a578063e04605fd11610064578063e04605fd146104ca578063eccb4448146104ea578063f55dc8211461050a578063f881300a1461052a57600080fd5b8063c4d3c65014610469578063d547741f14610489578063df8de163146104a957600080fd5b806391d14854116100c657806391d14854146103f4578063a217fddf14610414578063a85146d814610429578063c1763ee51461044957600080fd5b806372c6239a1461039f5780638210174a146103bf5780638e15f473146103df57600080fd5b806333fdbbe5116101595780634f63a772116101335780634f63a772146103275780635c975abb146103475780636605bfda1461035f57806368a1a8c61461037f57600080fd5b806333fdbbe5146102d157806336568abe146102e75780634c0f52761461030757600080fd5b8063054a224711610195578063054a2247146102285780631b078ab31461023b578063248a9ca3146102735780632f2ff15d146102b157600080fd5b806301ffc9a7146101bc578063021946fd146101f157806302329a2914610208575b600080fd5b3480156101c857600080fd5b506101dc6101d7366004612733565b61054a565b60405190151581526020015b60405180910390f35b3480156101fd57600080fd5b50610206610581565b005b34801561021457600080fd5b5061020661022336600461276b565b6105ae565b610206610236366004612788565b6105d3565b34801561024757600080fd5b5060045461025b906001600160a01b031681565b6040516001600160a01b0390911681526020016101e8565b34801561027f57600080fd5b506102a361028e366004612788565b60009081526020819052604090206001015490565b6040519081526020016101e8565b3480156102bd57600080fd5b506102066102cc3660046127b6565b610b18565b3480156102dd57600080fd5b506102a36103e881565b3480156102f357600080fd5b506102066103023660046127b6565b610b42565b34801561031357600080fd5b506102066103223660046127e6565b610bbc565b34801561033357600080fd5b506102066103423660046127e6565b610c2a565b34801561035357600080fd5b5060025460ff166101dc565b34801561036b57600080fd5b5061020661037a3660046127e6565b610c98565b34801561038b57600080fd5b5061020661039a366004612788565b610d06565b3480156103ab57600080fd5b5060035461025b906001600160a01b031681565b3480156103cb57600080fd5b506102066103da366004612803565b610fac565b3480156103eb57600080fd5b506102a361106e565b34801561040057600080fd5b506101dc61040f3660046127b6565b611102565b34801561042057600080fd5b506102a3600081565b34801561043557600080fd5b506102a3610444366004612788565b61112b565b34801561045557600080fd5b506102066104643660046127e6565b6112ae565b34801561047557600080fd5b50610206610484366004612825565b61131c565b34801561049557600080fd5b506102066104a43660046127b6565b61137b565b3480156104b557600080fd5b506007546101dc90600160a01b900460ff1681565b3480156104d657600080fd5b5060055461025b906001600160a01b031681565b3480156104f657600080fd5b506102066105053660046127e6565b6113a0565b34801561051657600080fd5b506102a3610525366004612788565b61140e565b34801561053657600080fd5b50610206610545366004612803565b61152b565b60006001600160e01b03198216637965db0b60e01b148061057b57506301ffc9a760e01b6001600160e01b03198316145b92915050565b600061058c816115e4565b506007805460ff60a01b198116600160a01b9182900460ff1615909102179055565b60006105b9816115e4565b81156105cb576105c76115f1565b5050565b6105c761164b565b6002600154141561062b5760405162461bcd60e51b815260206004820152601f60248201527f5265656e7472616e637947756172643a207265656e7472616e742063616c6c0060448201526064015b60405180910390fd5b6002600155610638611684565b600754604080518082019091526002815261031360f41b602082015290600160a01b900460ff1661067c5760405162461bcd60e51b81526004016106229190612875565b506003546040516331a9108f60e11b81526004810183905233916001600160a01b031690636352211e9060240160206040518083038186803b1580156106c157600080fd5b505afa1580156106d5573d6000803e3d6000fd5b505050506040513d601f19601f820116820180604052508101906106f991906128a8565b6001600160a01b031614604051806040016040528060018152602001603360f81b8152509061073b5760405162461bcd60e51b81526004016106229190612875565b50600354604051634378a6e360e01b815260048101839052600091829182916001600160a01b031690634378a6e39060240160c06040518083038186803b15801561078557600080fd5b505afa158015610799573d6000803e3d6000fd5b505050506040513d601f19601f820116820180604052508101906107bd91906128c5565b50929650909450909250600691506107d790508385612925565b11156109a45760006107e88561112b565b905060008111604051806040016040528060018152602001601b60f91b815250906108265760405162461bcd60e51b81526004016106229190612875565b506040805180820190915260018152601b60f91b602082015234821461085f5760405162461bcd60e51b81526004016106229190612875565b506006546000906001600160a01b031661087a600484612953565b604051600081818185875af1925050503d80600081146108b6576040519150601f19603f3d011682016040523d82523d6000602084013e6108bb565b606091505b5050905080604051806040016040528060018152602001603760f81b815250906108f85760405162461bcd60e51b81526004016106229190612875565b506007546000906001600160a01b0316610913600485612953565b61091d9085612975565b604051600081818185875af1925050503d8060008114610959576040519150601f19603f3d011682016040523d82523d6000602084013e61095e565b606091505b5050905080604051806040016040528060018152602001600760fb1b8152509061099b5760405162461bcd60e51b81526004016106229190612875565b50505050610a62565b60006109af8561140e565b905060008111604051806040016040528060018152602001601b60f91b815250906109ed5760405162461bcd60e51b81526004016106229190612875565b506005546001600160a01b03166379cc6790336040516001600160e01b031960e084901b1681526001600160a01b03909116600482015260248101849052604401600060405180830381600087803b158015610a4857600080fd5b505af1158015610a5c573d6000803e3d6000fd5b50505050505b6003546001600160a01b0316631b36827185610a7f846001612925565b6040516001600160e01b031960e085901b16815260048101929092526024820152604401600060405180830381600087803b158015610abd57600080fd5b505af1158015610ad1573d6000803e3d6000fd5b5050604080518781524260208201527fbf89f06f13f79eac49a29e3cd588659bc3d0008b000b0efc38dec168c4b9a1d3935001905060405180910390a15050600180555050565b600082815260208190526040902060010154610b33816115e4565b610b3d83836116cc565b505050565b6001600160a01b0381163314610bb25760405162461bcd60e51b815260206004820152602f60248201527f416363657373436f6e74726f6c3a2063616e206f6e6c792072656e6f756e636560448201526e103937b632b9903337b91039b2b63360891b6064820152608401610622565b6105c78282611750565b6000610bc7816115e4565b6040805180820190915260018152603160f81b60208201526001600160a01b038316610c065760405162461bcd60e51b81526004016106229190612875565b5050600480546001600160a01b0319166001600160a01b0392909216919091179055565b6000610c35816115e4565b6040805180820190915260018152603160f81b60208201526001600160a01b038316610c745760405162461bcd60e51b81526004016106229190612875565b5050600780546001600160a01b0319166001600160a01b0392909216919091179055565b6000610ca3816115e4565b6040805180820190915260018152603160f81b60208201526001600160a01b038316610ce25760405162461bcd60e51b81526004016106229190612875565b5050600680546001600160a01b0319166001600160a01b0392909216919091179055565b60026001541415610d595760405162461bcd60e51b815260206004820152601f60248201527f5265656e7472616e637947756172643a207265656e7472616e742063616c6c006044820152606401610622565b6002600155610d66611684565b6007546040805180820190915260018152603960f81b602082015290600160a01b900460ff1615610daa5760405162461bcd60e51b81526004016106229190612875565b506003546040516331a9108f60e11b81526004810183905233916001600160a01b031690636352211e9060240160206040518083038186803b158015610def57600080fd5b505afa158015610e03573d6000803e3d6000fd5b505050506040513d601f19601f82011682018060405250810190610e2791906128a8565b6001600160a01b031614604051806040016040528060018152602001603360f81b81525090610e695760405162461bcd60e51b81526004016106229190612875565b50600354604051634378a6e360e01b815260048101839052600091829182916001600160a01b031690634378a6e39060240160c06040518083038186803b158015610eb357600080fd5b505afa158015610ec7573d6000803e3d6000fd5b505050506040513d601f19601f82011682018060405250810190610eeb91906128c5565b50945050935093505060068284610f029190612925565b11156109a4576000610f138561112b565b905060008111604051806040016040528060018152602001601b60f91b81525090610f515760405162461bcd60e51b81526004016106229190612875565b50610f81336006546001600160a01b0316610f6d600485612953565b6004546001600160a01b03169291906117b5565b610fa6336007546001600160a01b0316610f9c600485612953565b610f6d9085612975565b50610a62565b6000610fb7816115e4565b6040805180820190915260018152601960f91b602082015283610fed5760405162461bcd60e51b81526004016106229190612875565b506040805180820190915260018152601960f91b6020820152826110245760405162461bcd60e51b81526004016106229190612875565b506008839055600982905560408051848152602081018490527fec91aab5285f341602f04b9c0d7e21952b3fbf79ecd696a090a91ff91a81f9f991015b60405180910390a1505050565b600080600260019054906101000a90046001600160a01b03166001600160a01b031663feaf968c6040518163ffffffff1660e01b815260040160a06040518083038186803b1580156110bf57600080fd5b505afa1580156110d3573d6000803e3d6000fd5b505050506040513d601f19601f820116820180604052508101906110f791906129a6565b509195945050505050565b6000918252602082815260408084206001600160a01b0393909316845291905290205460ff1690565b600354604051634378a6e360e01b815260048101839052600091829182916001600160a01b031690634378a6e39060240160c06040518083038186803b15801561117457600080fd5b505afa158015611188573d6000803e3d6000fd5b505050506040513d601f19601f820116820180604052508101906111ac91906128c5565b5050509250925050600681836111c29190612925565b11156112a4576000816111d6846001612925565b6111e091906129f6565b9050806111f257506000949350505050565b60006103e8600b5461123461122f61122761121f87670de0b6b3a764000061121a91906129f6565b611815565b6009546118c5565b6103e86118d8565b6118ed565b61123e91906129f6565b6112489190612953565b600754909150600160a01b900460ff161561129b57600061126761106e565b9050600081136112775781611290565b6305f5e10061128682846129f6565b6112909190612953565b979650505050505050565b95945050505050565b5060009392505050565b60006112b9816115e4565b6040805180820190915260018152603160f81b60208201526001600160a01b0383166112f85760405162461bcd60e51b81526004016106229190612875565b5050600580546001600160a01b0319166001600160a01b0392909216919091179055565b6000611327816115e4565b6040805180820190915260018152601960f91b602082015261ffff83166113615760405162461bcd60e51b81526004016106229190612875565b5050600c805461ffff191661ffff92909216919091179055565b600082815260208190526040902060010154611396816115e4565b610b3d8383611750565b60006113ab816115e4565b6040805180820190915260018152603160f81b60208201526001600160a01b0383166113ea5760405162461bcd60e51b81526004016106229190612875565b5050600380546001600160a01b0319166001600160a01b0392909216919091179055565b600354604051634378a6e360e01b815260048101839052600091829182916001600160a01b031690634378a6e39060240160c06040518083038186803b15801561145757600080fd5b505afa15801561146b573d6000803e3d6000fd5b505050506040513d601f19601f8201168201806040525081019061148f91906128c5565b5050600c54929550909350600092506103e89184915082906114b59061ffff16876129f6565b6114bf9190612925565b6114c991906129f6565b6114db90670de0b6b3a76400006129f6565b6114e59190612953565b9050806114f757506000949350505050565b6103e8600a5461151761122f61122761150f86611815565b6008546118c5565b61152191906129f6565b61129b9190612953565b6000611536816115e4565b6040805180820190915260018152601960f91b60208201528361156c5760405162461bcd60e51b81526004016106229190612875565b506040805180820190915260018152601960f91b6020820152826115a35760405162461bcd60e51b81526004016106229190612875565b50600a839055600b82905560408051848152602081018490527f25de84a545fa2e920c87ed61608c1a1e73712c6f83720133126e05145a028cc49101611061565b6115ee8133611933565b50565b6115f9611684565b6002805460ff191660011790557f62e78cea01bee320cd4e420270b5ea74000d11b0c9f74754ebdbfc544b05a25861162e3390565b6040516001600160a01b03909116815260200160405180910390a1565b611653611997565b6002805460ff191690557f5db9ee0a495bf2e6ff9c91a7834c1ba4fdd244a5e8aa4e537bd38aeae4b073aa3361162e565b60025460ff16156116ca5760405162461bcd60e51b815260206004820152601060248201526f14185d5cd8589b194e881c185d5cd95960821b6044820152606401610622565b565b6116d68282611102565b6105c7576000828152602081815260408083206001600160a01b03851684529091529020805460ff1916600117905561170c3390565b6001600160a01b0316816001600160a01b0316837f2f8788117e7eff1d82e926ec794901d17c78024a50270940304540a733656f0d60405160405180910390a45050565b61175a8282611102565b156105c7576000828152602081815260408083206001600160a01b0385168085529252808320805460ff1916905551339285917ff6391f5c32d9c69d2a47ea670b442974b53935d1edc7fd64eb21e047a839171b9190a45050565b604080516001600160a01b0385811660248301528416604482015260648082018490528251808303909101815260849091019091526020810180516001600160e01b03166323b872dd60e01b17905261180f9085906119e0565b50505050565b6000670de0b6b3a764000082101561184357604051633621413760e21b815260048101839052602401610622565b6000611858670de0b6b3a76400008404611ab2565b670de0b6b3a7640000808202935090915083821c9081141561187b575050919050565b6706f05b59d3b200005b80156118bd57670de0b6b3a7640000828002049150671bc16d674ec8000082106118b5579283019260019190911c905b60011c611885565b505050919050565b60006118d18383611b9b565b9392505050565b60006118d183670de0b6b3a764000084611c5d565b6000680a688906bd8b000000821061191b57604051634a4f26f160e01b815260048101839052602401610622565b670de0b6b3a7640000604083901b046118d181611d2a565b61193d8282611102565b6105c757611955816001600160a01b03166014612426565b611960836020612426565b604051602001611971929190612a15565b60408051601f198184030181529082905262461bcd60e51b825261062291600401612875565b60025460ff166116ca5760405162461bcd60e51b815260206004820152601460248201527314185d5cd8589b194e881b9bdd081c185d5cd95960621b6044820152606401610622565b6000611a35826040518060400160405280602081526020017f5361666545524332303a206c6f772d6c6576656c2063616c6c206661696c6564815250856001600160a01b03166125c29092919063ffffffff16565b805190915015610b3d5780806020019051810190611a539190612a8a565b610b3d5760405162461bcd60e51b815260206004820152602a60248201527f5361666545524332303a204552433230206f7065726174696f6e20646964206e6044820152691bdd081cdd58d8d9595960b21b6064820152608401610622565b6000600160801b8210611ad257608091821c91611acf9082612925565b90505b680100000000000000008210611af557604091821c91611af29082612925565b90505b6401000000008210611b1457602091821c91611b119082612925565b90505b620100008210611b3157601091821c91611b2e9082612925565b90505b6101008210611b4d57600891821c91611b4a9082612925565b90505b60108210611b6857600491821c91611b659082612925565b90505b60048210611b8357600291821c91611b809082612925565b90505b60028210611b965761057b600182612925565b919050565b60008080600019848609848602925082811083820303915050670de0b6b3a76400008110611bdf5760405163698d9a0160e11b815260048101829052602401610622565b600080670de0b6b3a76400008688099150506706f05b59d3b1ffff811182611c195780670de0b6b3a764000085040194505050505061057b565b620400008285030493909111909103600160ee1b02919091177faccb18165bd6fe31ae1cf318dc5b51eee0e1ba569b88cd74c1773b91fac106690201905092915050565b600080806000198587098587029250828110838203039150508060001415611c9857838281611c8e57611c8e61293d565b04925050506118d1565b838110611cc257604051631dcf306360e21b81526004810182905260248101859052604401610622565b600084868809600260036001881981018916988990049182028318808302840302808302840302808302840302808302840302808302840302918202909203026000889003889004909101858311909403939093029303949094049190911702949350505050565b600160bf1b678000000000000000821615611d4e5768016a09e667f3bcc9090260401c5b674000000000000000821615611d6d576801306fe0a31b7152df0260401c5b672000000000000000821615611d8c576801172b83c7d517adce0260401c5b671000000000000000821615611dab5768010b5586cf9890f62a0260401c5b670800000000000000821615611dca576801059b0d31585743ae0260401c5b670400000000000000821615611de957680102c9a3e778060ee70260401c5b670200000000000000821615611e085768010163da9fb33356d80260401c5b670100000000000000821615611e2757680100b1afa5abcbed610260401c5b6680000000000000821615611e455768010058c86da1c09ea20260401c5b6640000000000000821615611e63576801002c605e2e8cec500260401c5b6620000000000000821615611e8157680100162f3904051fa10260401c5b6610000000000000821615611e9f576801000b175effdc76ba0260401c5b6608000000000000821615611ebd57680100058ba01fb9f96d0260401c5b6604000000000000821615611edb5768010002c5cc37da94920260401c5b6602000000000000821615611ef9576801000162e525ee05470260401c5b6601000000000000821615611f175768010000b17255775c040260401c5b65800000000000821615611f34576801000058b91b5bc9ae0260401c5b65400000000000821615611f5157680100002c5c89d5ec6d0260401c5b65200000000000821615611f6e5768010000162e43f4f8310260401c5b65100000000000821615611f8b57680100000b1721bcfc9a0260401c5b65080000000000821615611fa85768010000058b90cf1e6e0260401c5b65040000000000821615611fc5576801000002c5c863b73f0260401c5b65020000000000821615611fe257680100000162e430e5a20260401c5b65010000000000821615611fff576801000000b1721835510260401c5b64800000000082161561201b57680100000058b90c0b490260401c5b6440000000008216156120375768010000002c5c8601cc0260401c5b642000000000821615612053576801000000162e42fff00260401c5b64100000000082161561206f5768010000000b17217fbb0260401c5b64080000000082161561208b576801000000058b90bfce0260401c5b6404000000008216156120a757680100000002c5c85fe30260401c5b6402000000008216156120c35768010000000162e42ff10260401c5b6401000000008216156120df57680100000000b17217f80260401c5b63800000008216156120fa5768010000000058b90bfc0260401c5b6340000000821615612115576801000000002c5c85fe0260401c5b632000000082161561213057680100000000162e42ff0260401c5b631000000082161561214b576801000000000b17217f0260401c5b630800000082161561216657680100000000058b90c00260401c5b63040000008216156121815768010000000002c5c8600260401c5b630200000082161561219c576801000000000162e4300260401c5b63010000008216156121b75768010000000000b172180260401c5b628000008216156121d1576801000000000058b90c0260401c5b624000008216156121eb57680100000000002c5c860260401c5b622000008216156122055768010000000000162e430260401c5b6210000082161561221f57680100000000000b17210260401c5b620800008216156122395768010000000000058b910260401c5b62040000821615612253576801000000000002c5c80260401c5b6202000082161561226d57680100000000000162e40260401c5b62010000821615612287576801000000000000b1720260401c5b6180008216156122a057680100000000000058b90260401c5b6140008216156122b95768010000000000002c5d0260401c5b6120008216156122d2576801000000000000162e0260401c5b6110008216156122eb5768010000000000000b170260401c5b610800821615612304576801000000000000058c0260401c5b61040082161561231d57680100000000000002c60260401c5b61020082161561233657680100000000000001630260401c5b61010082161561234f57680100000000000000b10260401c5b608082161561236757680100000000000000590260401c5b604082161561237f576801000000000000002c0260401c5b602082161561239757680100000000000000160260401c5b60108216156123af576801000000000000000b0260401c5b60088216156123c757680100000000000000060260401c5b60048216156123df57680100000000000000030260401c5b60028216156123f757680100000000000000010260401c5b600182161561240f57680100000000000000010260401c5b670de0b6b3a76400000260409190911c60bf031c90565b606060006124358360026129f6565b612440906002612925565b67ffffffffffffffff81111561245857612458612aa7565b6040519080825280601f01601f191660200182016040528015612482576020820181803683370190505b509050600360fc1b8160008151811061249d5761249d612abd565b60200101906001600160f81b031916908160001a905350600f60fb1b816001815181106124cc576124cc612abd565b60200101906001600160f81b031916908160001a90535060006124f08460026129f6565b6124fb906001612925565b90505b6001811115612573576f181899199a1a9b1b9c1cb0b131b232b360811b85600f166010811061252f5761252f612abd565b1a60f81b82828151811061254557612545612abd565b60200101906001600160f81b031916908160001a90535060049490941c9361256c81612ad3565b90506124fe565b5083156118d15760405162461bcd60e51b815260206004820181905260248201527f537472696e67733a20686578206c656e67746820696e73756666696369656e746044820152606401610622565b60606125d184846000856125d9565b949350505050565b60608247101561263a5760405162461bcd60e51b815260206004820152602660248201527f416464726573733a20696e73756666696369656e742062616c616e636520666f6044820152651c8818d85b1b60d21b6064820152608401610622565b6001600160a01b0385163b6126915760405162461bcd60e51b815260206004820152601d60248201527f416464726573733a2063616c6c20746f206e6f6e2d636f6e74726163740000006044820152606401610622565b600080866001600160a01b031685876040516126ad9190612aea565b60006040518083038185875af1925050503d80600081146126ea576040519150601f19603f3d011682016040523d82523d6000602084013e6126ef565b606091505b5091509150611290828286606083156127095750816118d1565b8251156127195782518084602001fd5b8160405162461bcd60e51b81526004016106229190612875565b60006020828403121561274557600080fd5b81356001600160e01b0319811681146118d157600080fd5b80151581146115ee57600080fd5b60006020828403121561277d57600080fd5b81356118d18161275d565b60006020828403121561279a57600080fd5b5035919050565b6001600160a01b03811681146115ee57600080fd5b600080604083850312156127c957600080fd5b8235915060208301356127db816127a1565b809150509250929050565b6000602082840312156127f857600080fd5b81356118d1816127a1565b6000806040838503121561281657600080fd5b50508035926020909101359150565b60006020828403121561283757600080fd5b813561ffff811681146118d157600080fd5b60005b8381101561286457818101518382015260200161284c565b8381111561180f5750506000910152565b6020815260008251806020840152612894816040850160208701612849565b601f01601f19169190910160400192915050565b6000602082840312156128ba57600080fd5b81516118d1816127a1565b60008060008060008060c087890312156128de57600080fd5b865195506020870151945060408701519350606087015192506080870151915060a087015190509295509295509295565b634e487b7160e01b600052601160045260246000fd5b600082198211156129385761293861290f565b500190565b634e487b7160e01b600052601260045260246000fd5b60008261297057634e487b7160e01b600052601260045260246000fd5b500490565b6000828210156129875761298761290f565b500390565b805169ffffffffffffffffffff81168114611b9657600080fd5b600080600080600060a086880312156129be57600080fd5b6129c78661298c565b94506020860151935060408601519250606086015191506129ea6080870161298c565b90509295509295909350565b6000816000190483118215151615612a1057612a1061290f565b500290565b7f416363657373436f6e74726f6c3a206163636f756e7420000000000000000000815260008351612a4d816017850160208801612849565b7001034b99036b4b9b9b4b733903937b6329607d1b6017918401918201528351612a7e816028840160208801612849565b01602801949350505050565b600060208284031215612a9c57600080fd5b81516118d18161275d565b634e487b7160e01b600052604160045260246000fd5b634e487b7160e01b600052603260045260246000fd5b600081612ae257612ae261290f565b506000190190565b60008251612afc818460208701612849565b919091019291505056fea264697066735822122036cb43c69bad69857ca7a656b34da0e33e1f26f78b28b03cbd484a7f8e05e01c64736f6c63430008090033",
  "devdoc": {
    "kind": "dev",
    "methods": {
      "getRoleAdmin(bytes32)": {
        "details": "Returns the admin role that controls `role`. See {grantRole} and {revokeRole}. To change a role's admin, use {_setRoleAdmin}."
      },
      "grantRole(bytes32,address)": {
        "details": "Grants `role` to `account`. If `account` had not been already granted `role`, emits a {RoleGranted} event. Requirements: - the caller must have ``role``'s admin role. May emit a {RoleGranted} event."
      },
      "hasRole(bytes32,address)": {
        "details": "Returns `true` if `account` has been granted `role`."
      },
      "paused()": {
        "details": "Returns true if the contract is paused, and false otherwise."
      },
      "renounceRole(bytes32,address)": {
        "details": "Revokes `role` from the calling account. Roles are often managed via {grantRole} and {revokeRole}: this function's purpose is to provide a mechanism for accounts to lose their privileges if they are compromised (such as when a trusted device is misplaced). If the calling account had been revoked `role`, emits a {RoleRevoked} event. Requirements: - the caller must be `account`. May emit a {RoleRevoked} event."
      },
      "revokeRole(bytes32,address)": {
        "details": "Revokes `role` from `account`. If `account` had been granted `role`, emits a {RoleRevoked} event. Requirements: - the caller must have ``role``'s admin role. May emit a {RoleRevoked} event."
      },
      "setBasePower(uint256,uint256)": {
        "details": "The caller must have the `DEFAULT_ADMIN_ROLE`."
      },
      "setBasePrice(uint256,uint256)": {
        "details": "The caller must have the `DEFAULT_ADMIN_ROLE`."
      },
      "setSignificanceK(uint16)": {
        "details": "The caller must have the `DEFAULT_ADMIN_ROLE`."
      },
      "supportsInterface(bytes4)": {
        "details": "See {IERC165-supportsInterface}."
      }
    },
    "version": 1
  },
  "userdoc": {
    "errors": {
      "PRBMathUD60x18__Exp2InputTooBig(uint256)": [
        {
          "notice": "Emitted when the input is greater than 192."
        }
      ],
      "PRBMathUD60x18__LogInputTooSmall(uint256)": [
        {
          "notice": "Emitted when the input is less than 1."
        }
      ],
      "PRBMath__MulDivFixedPointOverflow(uint256)": [
        {
          "notice": "Emitted when the result overflows uint256."
        }
      ],
      "PRBMath__MulDivOverflow(uint256,uint256)": [
        {
          "notice": "Emitted when the result overflows uint256."
        }
      ]
    },
    "events": {
      "BasePowerUpdated(uint256,uint256)": {
        "notice": "Event Base Power Updated"
      },
      "BasePriceUpdated(uint256,uint256)": {
        "notice": "Event Base Price Updated"
      }
    },
    "kind": "user",
    "methods": {
      "getLatestPrice()": {
        "notice": "Returns the latest price"
      },
      "setBasePower(uint256,uint256)": {
        "notice": "Set Base Power for CS and BLST. It will affect to calculate repair price for CS & BLST"
      },
      "setBasePrice(uint256,uint256)": {
        "notice": "Set Base Price for CS and BLST. It will affect to calculate repair price for CS & BLST"
      },
      "setSignificanceK(uint16)": {
        "notice": "Set significanceK value"
      }
    },
    "version": 1
  },
  "storageLayout": {
    "storage": [
      {
        "astId": 70,
        "contract": "contracts/Utilities/Repairing.sol:Repairing",
        "label": "_roles",
        "offset": 0,
        "slot": "0",
        "type": "t_mapping(t_bytes32,t_struct(RoleData)65_storage)"
      },
      {
        "astId": 557,
        "contract": "contracts/Utilities/Repairing.sol:Repairing",
        "label": "_status",
        "offset": 0,
        "slot": "1",
        "type": "t_uint256"
      },
      {
        "astId": 456,
        "contract": "contracts/Utilities/Repairing.sol:Repairing",
        "label": "_paused",
        "offset": 0,
        "slot": "2",
        "type": "t_bool"
      },
      {
        "astId": 5480,
        "contract": "contracts/Utilities/Repairing.sol:Repairing",
        "label": "priceFeed",
        "offset": 1,
        "slot": "2",
        "type": "t_contract(AggregatorV3Interface)45"
      },
      {
        "astId": 5486,
        "contract": "contracts/Utilities/Repairing.sol:Repairing",
        "label": "blastEquipmentNFT",
        "offset": 0,
        "slot": "3",
        "type": "t_contract(IBlastEquipmentNFT)5902"
      },
      {
        "astId": 5489,
        "contract": "contracts/Utilities/Repairing.sol:Repairing",
        "label": "blastToken",
        "offset": 0,
        "slot": "4",
        "type": "t_contract(IERC20)1250"
      },
      {
        "astId": 5492,
        "contract": "contracts/Utilities/Repairing.sol:Repairing",
        "label": "csToken",
        "offset": 0,
        "slot": "5",
        "type": "t_contract(ERC20Burnable)1294"
      },
      {
        "astId": 5494,
        "contract": "contracts/Utilities/Repairing.sol:Repairing",
        "label": "treasuryAddress",
        "offset": 0,
        "slot": "6",
        "type": "t_address"
      },
      {
        "astId": 5496,
        "contract": "contracts/Utilities/Repairing.sol:Repairing",
        "label": "companyAddress",
        "offset": 0,
        "slot": "7",
        "type": "t_address"
      },
      {
        "astId": 5498,
        "contract": "contracts/Utilities/Repairing.sol:Repairing",
        "label": "isUsingMatic",
        "offset": 20,
        "slot": "7",
        "type": "t_bool"
      },
      {
        "astId": 4852,
        "contract": "contracts/Utilities/Repairing.sol:Repairing",
        "label": "basePowerForCS",
        "offset": 0,
        "slot": "8",
        "type": "t_uint256"
      },
      {
        "astId": 4855,
        "contract": "contracts/Utilities/Repairing.sol:Repairing",
        "label": "basePowerForBLST",
        "offset": 0,
        "slot": "9",
        "type": "t_uint256"
      },
      {
        "astId": 4858,
        "contract": "contracts/Utilities/Repairing.sol:Repairing",
        "label": "basePriceForCS",
        "offset": 0,
        "slot": "10",
        "type": "t_uint256"
      },
      {
        "astId": 4861,
        "contract": "contracts/Utilities/Repairing.sol:Repairing",
        "label": "basePriceForBLST",
        "offset": 0,
        "slot": "11",
        "type": "t_uint256"
      },
      {
        "astId": 4864,
        "contract": "contracts/Utilities/Repairing.sol:Repairing",
        "label": "significanceK",
        "offset": 0,
        "slot": "12",
        "type": "t_uint16"
      }
    ],
    "types": {
      "t_address": {
        "encoding": "inplace",
        "label": "address",
        "numberOfBytes": "20"
      },
      "t_bool": {
        "encoding": "inplace",
        "label": "bool",
        "numberOfBytes": "1"
      },
      "t_bytes32": {
        "encoding": "inplace",
        "label": "bytes32",
        "numberOfBytes": "32"
      },
      "t_contract(AggregatorV3Interface)45": {
        "encoding": "inplace",
        "label": "contract AggregatorV3Interface",
        "numberOfBytes": "20"
      },
      "t_contract(ERC20Burnable)1294": {
        "encoding": "inplace",
        "label": "contract ERC20Burnable",
        "numberOfBytes": "20"
      },
      "t_contract(IBlastEquipmentNFT)5902": {
        "encoding": "inplace",
        "label": "contract IBlastEquipmentNFT",
        "numberOfBytes": "20"
      },
      "t_contract(IERC20)1250": {
        "encoding": "inplace",
        "label": "contract IERC20",
        "numberOfBytes": "20"
      },
      "t_mapping(t_address,t_bool)": {
        "encoding": "mapping",
        "key": "t_address",
        "label": "mapping(address => bool)",
        "numberOfBytes": "32",
        "value": "t_bool"
      },
      "t_mapping(t_bytes32,t_struct(RoleData)65_storage)": {
        "encoding": "mapping",
        "key": "t_bytes32",
        "label": "mapping(bytes32 => struct AccessControl.RoleData)",
        "numberOfBytes": "32",
        "value": "t_struct(RoleData)65_storage"
      },
      "t_struct(RoleData)65_storage": {
        "encoding": "inplace",
        "label": "struct AccessControl.RoleData",
        "members": [
          {
            "astId": 62,
            "contract": "contracts/Utilities/Repairing.sol:Repairing",
            "label": "members",
            "offset": 0,
            "slot": "0",
            "type": "t_mapping(t_address,t_bool)"
          },
          {
            "astId": 64,
            "contract": "contracts/Utilities/Repairing.sol:Repairing",
            "label": "adminRole",
            "offset": 0,
            "slot": "1",
            "type": "t_bytes32"
          }
        ],
        "numberOfBytes": "64"
      },
      "t_uint16": {
        "encoding": "inplace",
        "label": "uint16",
        "numberOfBytes": "2"
      },
      "t_uint256": {
        "encoding": "inplace",
        "label": "uint256",
        "numberOfBytes": "32"
      }
    }
  }
}