{
  "address": "0x26bB5EbC29b7d4900d93790Ebf50626d946DDCeB",
  "abi": [
    {
      "inputs": [
        {
          "internalType": "contract IBlastEquipmentNFT",
          "name": "_blastEquipmentNFT",
          "type": "address"
        },
        {
          "internalType": "contract IERC20",
          "name": "_blastToken",
          "type": "address"
        },
        {
          "internalType": "contract ERC20Burnable",
          "name": "_csToken",
          "type": "address"
        },
        {
          "internalType": "address",
          "name": "_treasuryAddress",
          "type": "address"
        },
        {
          "internalType": "address",
          "name": "_companyAddress",
          "type": "address"
        }
      ],
      "stateMutability": "nonpayable",
      "type": "constructor"
    },
    {
      "inputs": [],
      "name": "InvalidParams",
      "type": "error"
    },
    {
      "inputs": [],
      "name": "NoZeroAddress",
      "type": "error"
    },
    {
      "inputs": [],
      "name": "NotOwner",
      "type": "error"
    },
    {
      "inputs": [],
      "name": "NotReadyMorph",
      "type": "error"
    },
    {
      "inputs": [],
      "name": "NotReadyReplicate",
      "type": "error"
    },
    {
      "anonymous": false,
      "inputs": [
        {
          "indexed": false,
          "internalType": "uint256",
          "name": "parent0",
          "type": "uint256"
        },
        {
          "indexed": false,
          "internalType": "uint256",
          "name": "parent1",
          "type": "uint256"
        },
        {
          "indexed": false,
          "internalType": "uint256",
          "name": "childId",
          "type": "uint256"
        },
        {
          "indexed": false,
          "internalType": "address",
          "name": "owner",
          "type": "address"
        },
        {
          "indexed": false,
          "internalType": "uint256",
          "name": "timestamp",
          "type": "uint256"
        }
      ],
      "name": "Morphed",
      "type": "event"
    },
    {
      "anonymous": false,
      "inputs": [
        {
          "indexed": false,
          "internalType": "address",
          "name": "account",
          "type": "address"
        }
      ],
      "name": "Paused",
      "type": "event"
    },
    {
      "anonymous": false,
      "inputs": [
        {
          "indexed": false,
          "internalType": "uint256",
          "name": "parent0",
          "type": "uint256"
        },
        {
          "indexed": false,
          "internalType": "uint256",
          "name": "parent1",
          "type": "uint256"
        },
        {
          "indexed": false,
          "internalType": "uint256",
          "name": "childId",
          "type": "uint256"
        },
        {
          "indexed": false,
          "internalType": "address",
          "name": "owner",
          "type": "address"
        },
        {
          "indexed": false,
          "internalType": "uint256",
          "name": "timestamp",
          "type": "uint256"
        }
      ],
      "name": "Replicated",
      "type": "event"
    },
    {
      "anonymous": false,
      "inputs": [
        {
          "indexed": true,
          "internalType": "bytes32",
          "name": "role",
          "type": "bytes32"
        },
        {
          "indexed": true,
          "internalType": "bytes32",
          "name": "previousAdminRole",
          "type": "bytes32"
        },
        {
          "indexed": true,
          "internalType": "bytes32",
          "name": "newAdminRole",
          "type": "bytes32"
        }
      ],
      "name": "RoleAdminChanged",
      "type": "event"
    },
    {
      "anonymous": false,
      "inputs": [
        {
          "indexed": true,
          "internalType": "bytes32",
          "name": "role",
          "type": "bytes32"
        },
        {
          "indexed": true,
          "internalType": "address",
          "name": "account",
          "type": "address"
        },
        {
          "indexed": true,
          "internalType": "address",
          "name": "sender",
          "type": "address"
        }
      ],
      "name": "RoleGranted",
      "type": "event"
    },
    {
      "anonymous": false,
      "inputs": [
        {
          "indexed": true,
          "internalType": "bytes32",
          "name": "role",
          "type": "bytes32"
        },
        {
          "indexed": true,
          "internalType": "address",
          "name": "account",
          "type": "address"
        },
        {
          "indexed": true,
          "internalType": "address",
          "name": "sender",
          "type": "address"
        }
      ],
      "name": "RoleRevoked",
      "type": "event"
    },
    {
      "anonymous": false,
      "inputs": [
        {
          "indexed": false,
          "internalType": "address",
          "name": "account",
          "type": "address"
        }
      ],
      "name": "Unpaused",
      "type": "event"
    },
    {
      "inputs": [],
      "name": "DECIMAL_FACTOR",
      "outputs": [
        {
          "internalType": "uint256",
          "name": "",
          "type": "uint256"
        }
      ],
      "stateMutability": "view",
      "type": "function"
    },
    {
      "inputs": [],
      "name": "DEFAULT_ADMIN_ROLE",
      "outputs": [
        {
          "internalType": "bytes32",
          "name": "",
          "type": "bytes32"
        }
      ],
      "stateMutability": "view",
      "type": "function"
    },
    {
      "inputs": [],
      "name": "blastEquipmentNFT",
      "outputs": [
        {
          "internalType": "contract IBlastEquipmentNFT",
          "name": "",
          "type": "address"
        }
      ],
      "stateMutability": "view",
      "type": "function"
    },
    {
      "inputs": [],
      "name": "blastToken",
      "outputs": [
        {
          "internalType": "contract IERC20",
          "name": "",
          "type": "address"
        }
      ],
      "stateMutability": "view",
      "type": "function"
    },
    {
      "inputs": [
        {
          "internalType": "uint256",
          "name": "",
          "type": "uint256"
        }
      ],
      "name": "bltPrices",
      "outputs": [
        {
          "internalType": "uint256",
          "name": "",
          "type": "uint256"
        }
      ],
      "stateMutability": "view",
      "type": "function"
    },
    {
      "inputs": [
        {
          "internalType": "uint256",
          "name": "",
          "type": "uint256"
        }
      ],
      "name": "csPrices",
      "outputs": [
        {
          "internalType": "uint256",
          "name": "",
          "type": "uint256"
        }
      ],
      "stateMutability": "view",
      "type": "function"
    },
    {
      "inputs": [],
      "name": "csToken",
      "outputs": [
        {
          "internalType": "contract ERC20Burnable",
          "name": "",
          "type": "address"
        }
      ],
      "stateMutability": "view",
      "type": "function"
    },
    {
      "inputs": [],
      "name": "flipIsUsingMatic",
      "outputs": [],
      "stateMutability": "nonpayable",
      "type": "function"
    },
    {
      "inputs": [],
      "name": "getLatestPrice",
      "outputs": [
        {
          "internalType": "int256",
          "name": "",
          "type": "int256"
        }
      ],
      "stateMutability": "view",
      "type": "function"
    },
    {
      "inputs": [
        {
          "internalType": "bytes32",
          "name": "role",
          "type": "bytes32"
        }
      ],
      "name": "getRoleAdmin",
      "outputs": [
        {
          "internalType": "bytes32",
          "name": "",
          "type": "bytes32"
        }
      ],
      "stateMutability": "view",
      "type": "function"
    },
    {
      "inputs": [
        {
          "internalType": "uint256",
          "name": "currentReplicationCountP1",
          "type": "uint256"
        },
        {
          "internalType": "uint256",
          "name": "currentReplicationCountP2",
          "type": "uint256"
        }
      ],
      "name": "getTotalBLSTAmount",
      "outputs": [
        {
          "internalType": "uint256",
          "name": "",
          "type": "uint256"
        }
      ],
      "stateMutability": "view",
      "type": "function"
    },
    {
      "inputs": [
        {
          "internalType": "bytes32",
          "name": "role",
          "type": "bytes32"
        },
        {
          "internalType": "address",
          "name": "account",
          "type": "address"
        }
      ],
      "name": "grantRole",
      "outputs": [],
      "stateMutability": "nonpayable",
      "type": "function"
    },
    {
      "inputs": [
        {
          "internalType": "bytes32",
          "name": "role",
          "type": "bytes32"
        },
        {
          "internalType": "address",
          "name": "account",
          "type": "address"
        }
      ],
      "name": "hasRole",
      "outputs": [
        {
          "internalType": "bool",
          "name": "",
          "type": "bool"
        }
      ],
      "stateMutability": "view",
      "type": "function"
    },
    {
      "inputs": [
        {
          "internalType": "uint256",
          "name": "",
          "type": "uint256"
        }
      ],
      "name": "isReplicating",
      "outputs": [
        {
          "internalType": "bool",
          "name": "",
          "type": "bool"
        }
      ],
      "stateMutability": "view",
      "type": "function"
    },
    {
      "inputs": [],
      "name": "isUsingMatic",
      "outputs": [
        {
          "internalType": "bool",
          "name": "",
          "type": "bool"
        }
      ],
      "stateMutability": "view",
      "type": "function"
    },
    {
      "inputs": [
        {
          "internalType": "uint256",
          "name": "_childId",
          "type": "uint256"
        }
      ],
      "name": "morph",
      "outputs": [],
      "stateMutability": "nonpayable",
      "type": "function"
    },
    {
      "inputs": [
        {
          "internalType": "uint256",
          "name": "",
          "type": "uint256"
        }
      ],
      "name": "morphTimestamp",
      "outputs": [
        {
          "internalType": "uint256",
          "name": "",
          "type": "uint256"
        }
      ],
      "stateMutability": "view",
      "type": "function"
    },
    {
      "inputs": [
        {
          "internalType": "address",
          "name": "",
          "type": "address"
        }
      ],
      "name": "nonces",
      "outputs": [
        {
          "internalType": "uint256",
          "name": "",
          "type": "uint256"
        }
      ],
      "stateMutability": "view",
      "type": "function"
    },
    {
      "inputs": [
        {
          "internalType": "uint256",
          "name": "",
          "type": "uint256"
        }
      ],
      "name": "parents",
      "outputs": [
        {
          "internalType": "uint256",
          "name": "parent0",
          "type": "uint256"
        },
        {
          "internalType": "uint256",
          "name": "parent1",
          "type": "uint256"
        }
      ],
      "stateMutability": "view",
      "type": "function"
    },
    {
      "inputs": [
        {
          "internalType": "bool",
          "name": "stop",
          "type": "bool"
        }
      ],
      "name": "pause",
      "outputs": [],
      "stateMutability": "nonpayable",
      "type": "function"
    },
    {
      "inputs": [],
      "name": "paused",
      "outputs": [
        {
          "internalType": "bool",
          "name": "",
          "type": "bool"
        }
      ],
      "stateMutability": "view",
      "type": "function"
    },
    {
      "inputs": [
        {
          "internalType": "bytes32",
          "name": "role",
          "type": "bytes32"
        },
        {
          "internalType": "address",
          "name": "account",
          "type": "address"
        }
      ],
      "name": "renounceRole",
      "outputs": [],
      "stateMutability": "nonpayable",
      "type": "function"
    },
    {
      "inputs": [
        {
          "internalType": "string",
          "name": "_uri",
          "type": "string"
        },
        {
          "internalType": "string",
          "name": "_hashString",
          "type": "string"
        },
        {
          "internalType": "string",
          "name": "_realUri",
          "type": "string"
        },
        {
          "internalType": "uint256",
          "name": "_p1",
          "type": "uint256"
        },
        {
          "internalType": "uint256",
          "name": "_p2",
          "type": "uint256"
        },
        {
          "components": [
            {
              "internalType": "uint8",
              "name": "maxLevel",
              "type": "uint8"
            },
            {
              "internalType": "uint8",
              "name": "maxDurability",
              "type": "uint8"
            },
            {
              "internalType": "uint8",
              "name": "adjective",
              "type": "uint8"
            },
            {
              "internalType": "uint8",
              "name": "rarity",
              "type": "uint8"
            },
            {
              "internalType": "uint8",
              "name": "grade",
              "type": "uint8"
            }
          ],
          "internalType": "struct StaticAttributes",
          "name": "_staticAttribute",
          "type": "tuple"
        }
      ],
      "name": "replicate",
      "outputs": [],
      "stateMutability": "nonpayable",
      "type": "function"
    },
    {
      "inputs": [
        {
          "internalType": "string",
          "name": "_uri",
          "type": "string"
        },
        {
          "internalType": "string",
          "name": "_hashString",
          "type": "string"
        },
        {
          "internalType": "string",
          "name": "_realUri",
          "type": "string"
        },
        {
          "internalType": "uint256",
          "name": "_p1",
          "type": "uint256"
        },
        {
          "internalType": "uint256",
          "name": "_p2",
          "type": "uint256"
        },
        {
          "components": [
            {
              "internalType": "uint8",
              "name": "maxLevel",
              "type": "uint8"
            },
            {
              "internalType": "uint8",
              "name": "maxDurability",
              "type": "uint8"
            },
            {
              "internalType": "uint8",
              "name": "adjective",
              "type": "uint8"
            },
            {
              "internalType": "uint8",
              "name": "rarity",
              "type": "uint8"
            },
            {
              "internalType": "uint8",
              "name": "grade",
              "type": "uint8"
            }
          ],
          "internalType": "struct StaticAttributes",
          "name": "_staticAttribute",
          "type": "tuple"
        }
      ],
      "name": "replicateUsingMatic",
      "outputs": [],
      "stateMutability": "payable",
      "type": "function"
    },
    {
      "inputs": [],
      "name": "replicationTimer",
      "outputs": [
        {
          "internalType": "uint256",
          "name": "",
          "type": "uint256"
        }
      ],
      "stateMutability": "view",
      "type": "function"
    },
    {
      "inputs": [
        {
          "internalType": "bytes32",
          "name": "role",
          "type": "bytes32"
        },
        {
          "internalType": "address",
          "name": "account",
          "type": "address"
        }
      ],
      "name": "revokeRole",
      "outputs": [],
      "stateMutability": "nonpayable",
      "type": "function"
    },
    {
      "inputs": [
        {
          "internalType": "uint256[]",
          "name": "_bltPrices",
          "type": "uint256[]"
        }
      ],
      "name": "setBLTPrices",
      "outputs": [],
      "stateMutability": "nonpayable",
      "type": "function"
    },
    {
      "inputs": [
        {
          "internalType": "contract IBlastEquipmentNFT",
          "name": "_blastEquipmentNFT",
          "type": "address"
        }
      ],
      "name": "setBlastEquipmentAddress",
      "outputs": [],
      "stateMutability": "nonpayable",
      "type": "function"
    },
    {
      "inputs": [
        {
          "internalType": "contract IERC20",
          "name": "_blastToken",
          "type": "address"
        }
      ],
      "name": "setBlastTokenAddress",
      "outputs": [],
      "stateMutability": "nonpayable",
      "type": "function"
    },
    {
      "inputs": [
        {
          "internalType": "uint256[]",
          "name": "_csPrices",
          "type": "uint256[]"
        }
      ],
      "name": "setCSPrices",
      "outputs": [],
      "stateMutability": "nonpayable",
      "type": "function"
    },
    {
      "inputs": [
        {
          "internalType": "contract ERC20Burnable",
          "name": "_csToken",
          "type": "address"
        }
      ],
      "name": "setCSTokenAddress",
      "outputs": [],
      "stateMutability": "nonpayable",
      "type": "function"
    },
    {
      "inputs": [
        {
          "internalType": "address",
          "name": "_company",
          "type": "address"
        }
      ],
      "name": "setCompanyAddress",
      "outputs": [],
      "stateMutability": "nonpayable",
      "type": "function"
    },
    {
      "inputs": [
        {
          "internalType": "uint256",
          "name": "_newTimer",
          "type": "uint256"
        }
      ],
      "name": "setReplicationTimer",
      "outputs": [],
      "stateMutability": "nonpayable",
      "type": "function"
    },
    {
      "inputs": [
        {
          "internalType": "address",
          "name": "_treasury",
          "type": "address"
        }
      ],
      "name": "setTreasuryAddress",
      "outputs": [],
      "stateMutability": "nonpayable",
      "type": "function"
    },
    {
      "inputs": [
        {
          "internalType": "bytes4",
          "name": "interfaceId",
          "type": "bytes4"
        }
      ],
      "name": "supportsInterface",
      "outputs": [
        {
          "internalType": "bool",
          "name": "",
          "type": "bool"
        }
      ],
      "stateMutability": "view",
      "type": "function"
    }
  ],
  "transactionHash": "0x953bfacf4e4e69aa62158ecaa74631932f524ea92e3925b5c3b6d4af39b6430b",
  "args": [
    "0x6B41b41EFC322c7c2Adb9Ac692b7F75f32F562F8",
    "0xbb151104D1d1DD68fa76602dBc215e97486d6a3c",
    "0x9458699Cfe694c642336E18518BcAe6C9ea688bD",
    "0x7Ac410F4E36873022b57821D7a8EB3D7513C045a",
    "0x7Ac410F4E36873022b57821D7a8EB3D7513C045a"
  ],
  "numDeployments": 1,
  "solcInputHash": "d9b52be0d2f22db0774fe6093c05cce7",
  "bytecode": "0x61012c6009556101606040526843c33c1937564800006080908152686194049f30f720000060a05268ad78ebc5ac6200000060c05269010f0cf064dd5920000060e0526901e7e4171bf4d3a00000610100526902f6f10780d22cc00000610120526904c3ba39c5e411100000610140526200007f90600d90600762000306565b506040805160e081018252676124fee993bc00008152677ce66c50e2840000602082015267a688906bd8b000009181019190915267d02ab486cedc000060608201526801158e460913d00000608082015268015af1d78b58c4000060a08201526801a055690d9db8000060c0820152620000fe90601490600762000354565b503480156200010c57600080fd5b5060405162002d1538038062002d158339810160408190526200012f91620003c0565b600180556002805460ff1916905584848484846001600160a01b03851615806200016057506001600160a01b038416155b806200017357506001600160a01b038316155b806200018657506001600160a01b038216155b806200019957506001600160a01b038116155b15620001b85760405163ddbadd5f60e01b815260040160405180910390fd5b620001c560003362000256565b600380546001600160a01b03199081166001600160a01b03978816179091556004805482169587169590951790945560058054851693861693909317909255600680548416918516919091179055600780549092169216919091179055505060028054610100600160a81b03191674d0d5e3db44de05e9f294bb0a3beeaf030de24ada001790555062000440915050565b62000262828262000266565b5050565b6000828152602081815260408083206001600160a01b038516845290915290205460ff1662000262576000828152602081815260408083206001600160a01b03851684529091529020805460ff19166001179055620002c23390565b6001600160a01b0316816001600160a01b0316837f2f8788117e7eff1d82e926ec794901d17c78024a50270940304540a733656f0d60405160405180910390a45050565b826007810192821562000342579160200282015b828111156200034257825182906001600160501b03169055916020019190600101906200031a565b506200035092915062000390565b5090565b826007810192821562000342579160200282015b828111156200034257825182906001600160481b031690559160200191906001019062000368565b5b8082111562000350576000815560010162000391565b6001600160a01b0381168114620003bd57600080fd5b50565b600080600080600060a08688031215620003d957600080fd5b8551620003e681620003a7565b6020870151909550620003f981620003a7565b60408701519094506200040c81620003a7565b60608701519093506200041f81620003a7565b60808701519092506200043281620003a7565b809150509295509295909350565b6128c580620004506000396000f3fe6080604052600436106102045760003560e01c80635eaf5e8b1161011857806397414626116100a0578063d8c26f661161006f578063d8c26f661461061f578063df8de1631461063f578063e04605fd14610660578063eccb444814610680578063f741e0cf146106a057600080fd5b806397414626146105aa578063a217fddf146105ca578063c1763ee5146105df578063d547741f146105ff57600080fd5b806372c6239a116100e757806372c6239a146104df5780637ecebe00146104ff578063898572a61461052c5780638e15f4731461057557806391d148541461058a57600080fd5b80635eaf5e8b1461045f57806360f5b9141461047f5780636605bfda1461049f5780637067e19f146104bf57600080fd5b8063248a9ca31161019b57806336568abe1161016a57806336568abe146103d45780634c0f5276146103f45780634e704d48146104145780634f63a772146104275780635c975abb1461044757600080fd5b8063248a9ca3146103585780632b0afd84146103885780632f2ff15d1461039e57806333fdbbe5146103be57600080fd5b80630c64fe86116101d75780630c64fe86146102955780631b078ab3146102d05780631f9ea6b014610308578063228ea4f81461033857600080fd5b806301ffc9a714610209578063021946fd1461023e57806302329a291461025557806304ac5b2114610275575b600080fd5b34801561021557600080fd5b5061022961022436600461212f565b6106c0565b60405190151581526020015b60405180910390f35b34801561024a57600080fd5b506102536106f7565b005b34801561026157600080fd5b50610253610270366004612167565b610724565b34801561028157600080fd5b506102536102903660046121cd565b610749565b3480156102a157600080fd5b506102c26102b0366004612296565b600b6020526000908152604090205481565b604051908152602001610235565b3480156102dc57600080fd5b506004546102f0906001600160a01b031681565b6040516001600160a01b039091168152602001610235565b34801561031457600080fd5b50610229610323366004612296565b600c6020526000908152604090205460ff1681565b34801561034457600080fd5b506102536103533660046122af565b610a06565b34801561036457600080fd5b506102c2610373366004612296565b60009081526020819052604090206001015490565b34801561039457600080fd5b506102c260095481565b3480156103aa57600080fd5b506102536103b9366004612339565b610a8d565b3480156103ca57600080fd5b506102c26103e881565b3480156103e057600080fd5b506102536103ef366004612339565b610ab7565b34801561040057600080fd5b5061025361040f366004612369565b610b31565b6102536104223660046121cd565b610b85565b34801561043357600080fd5b50610253610442366004612369565b610c0b565b34801561045357600080fd5b5060025460ff16610229565b34801561046b57600080fd5b506102c261047a366004612296565b610c60565b34801561048b57600080fd5b506102c261049a366004612296565b610c77565b3480156104ab57600080fd5b506102536104ba366004612369565b610c87565b3480156104cb57600080fd5b506102536104da3660046122af565b610cdc565b3480156104eb57600080fd5b506003546102f0906001600160a01b031681565b34801561050b57600080fd5b506102c261051a366004612369565b60086020526000908152604090205481565b34801561053857600080fd5b50610560610547366004612296565b600a602052600090815260409020805460019091015482565b60408051928352602083019190915201610235565b34801561058157600080fd5b506102c2610d5d565b34801561059657600080fd5b506102296105a5366004612339565b610df1565b3480156105b657600080fd5b506102536105c5366004612296565b610e1a565b3480156105d657600080fd5b506102c2600081565b3480156105eb57600080fd5b506102536105fa366004612369565b611024565b34801561060b57600080fd5b5061025361061a366004612339565b611078565b34801561062b57600080fd5b506102c261063a366004612386565b61109d565b34801561064b57600080fd5b5060075461022990600160a01b900460ff1681565b34801561066c57600080fd5b506005546102f0906001600160a01b031681565b34801561068c57600080fd5b5061025361069b366004612369565b61115b565b3480156106ac57600080fd5b506102536106bb366004612296565b6111af565b60006001600160e01b03198216637965db0b60e01b14806106f157506301ffc9a760e01b6001600160e01b03198316145b92915050565b600061070281611210565b506007805460ff60a01b198116600160a01b9182900460ff1615909102179055565b600061072f81611210565b81156107415761073d61121d565b5050565b61073d611277565b600061075481611210565b600260015414156107805760405162461bcd60e51b8152600401610777906123a8565b60405180910390fd5b600260015561078d6112b0565b600754600160a01b900460ff16156107e75760405162461bcd60e51b815260206004820152601960248201527f4e6f7420617661696c61626c65207573696e67204d61746963000000000000006044820152606401610777565b8284141561080857604051635435b28960e11b815260040160405180910390fd5b6003546040516331a9108f60e11b8152600481018690526000916001600160a01b031690636352211e9060240160206040518083038186803b15801561084d57600080fd5b505afa158015610861573d6000803e3d6000fd5b505050506040513d601f19601f8201168201806040525081019061088591906123df565b6003546040516331a9108f60e11b8152600481018790529192506001600160a01b031690636352211e9060240160206040518083038186803b1580156108ca57600080fd5b505afa1580156108de573d6000803e3d6000fd5b505050506040513d601f19601f8201168201806040525081019061090291906123df565b6001600160a01b0316816001600160a01b03161461093357604051635435b28960e11b815260040160405180910390fd5b6000858152600c602052604090205460ff168061095e57506000848152600c602052604090205460ff165b1561097c57604051630e6d0b7760e01b815260040160405180910390fd5b6109878585836112f8565b600061099b828d8d8d8d8d8d8d8d8d611825565b60408051888152602081018890529081018290526001600160a01b03841660608201524260808201529091507f3b7684b0f6cced36c46355d820bc209ce502a1a3724a6fde47f9588513debb7d9060a00160405180910390a150506001805550505050505050505050565b6000610a1181611210565b60078214610a3257604051635435b28960e11b815260040160405180910390fd5b60005b60078160ff161015610a875783838260ff16818110610a5657610a566123fc565b90506020020135600d8260ff1660078110610a7357610a736123fc565b015580610a7f81612428565b915050610a35565b50505050565b600082815260208190526040902060010154610aa881611210565b610ab28383611980565b505050565b6001600160a01b0381163314610b275760405162461bcd60e51b815260206004820152602f60248201527f416363657373436f6e74726f6c3a2063616e206f6e6c792072656e6f756e636560448201526e103937b632b9903337b91039b2b63360891b6064820152608401610777565b61073d8282611a04565b6000610b3c81611210565b6001600160a01b038216610b625760405162461bcd60e51b815260040161077790612448565b50600480546001600160a01b0319166001600160a01b0392909216919091179055565b6000610b9081611210565b60026001541415610bb35760405162461bcd60e51b8152600401610777906123a8565b6002600155610bc06112b0565b600754600160a01b900460ff166107e75760405162461bcd60e51b815260206004820152600f60248201526e4e6f74207573696e67204d6174696360881b6044820152606401610777565b6000610c1681611210565b6001600160a01b038216610c3d5760405163ddbadd5f60e01b815260040160405180910390fd5b50600780546001600160a01b0319166001600160a01b0392909216919091179055565b60148160078110610c7057600080fd5b0154905081565b600d8160078110610c7057600080fd5b6000610c9281611210565b6001600160a01b038216610cb95760405163ddbadd5f60e01b815260040160405180910390fd5b50600680546001600160a01b0319166001600160a01b0392909216919091179055565b6000610ce781611210565b60078214610d0857604051635435b28960e11b815260040160405180910390fd5b60005b60078160ff161015610a875783838260ff16818110610d2c57610d2c6123fc565b9050602002013560148260ff1660078110610d4957610d496123fc565b015580610d5581612428565b915050610d0b565b600080600260019054906101000a90046001600160a01b03166001600160a01b031663feaf968c6040518163ffffffff1660e01b815260040160a06040518083038186803b158015610dae57600080fd5b505afa158015610dc2573d6000803e3d6000fd5b505050506040513d601f19601f82011682018060405250810190610de6919061248e565b509195945050505050565b6000918252602082815260408084206001600160a01b0393909316845291905290205460ff1690565b60026001541415610e3d5760405162461bcd60e51b8152600401610777906123a8565b6002600155610e4a6112b0565b6003546040516331a9108f60e11b81526004810183905233916001600160a01b031690636352211e9060240160206040518083038186803b158015610e8e57600080fd5b505afa158015610ea2573d6000803e3d6000fd5b505050506040513d601f19601f82011682018060405250810190610ec691906123df565b6001600160a01b031614610eed576040516330cd747160e01b815260040160405180910390fd5b6000818152600b60205260409020541580610f1557506000818152600b602052604090205442105b15610f33576040516311ee923d60e11b815260040160405180910390fd5b6000818152600a60209081526040808320815180830183528154815260019091015481840152848452600c90925291829020805460ff19169055600354915163058169e360e51b81526004810184905290916001600160a01b03169063b02d3c6090602401600060405180830381600087803b158015610fb257600080fd5b505af1158015610fc6573d6000803e3d6000fd5b50508251602080850151604080519384529183015281018590523360608201524260808201527facde6ee1929833056a039dea7409102fc241daa3858944b47a0f7e7e67d5237c925060a001905060405180910390a1505060018055565b600061102f81611210565b6001600160a01b0382166110555760405162461bcd60e51b815260040161077790612448565b50600580546001600160a01b0319166001600160a01b0392909216919091179055565b60008281526020819052604090206001015461109381611210565b610ab28383611a04565b6000806110a8610d5d565b600754909150600160a01b900460ff1680156110c45750600081135b1561111f576305f5e10081601485600781106110e2576110e26123fc565b0154601487600781106110f7576110f76123fc565b015461110391906124de565b61110d91906124f6565b611117919061252b565b9150506106f1565b60148360078110611132576111326123fc565b015460148560078110611147576111476123fc565b015461115391906124de565b949350505050565b600061116681611210565b6001600160a01b03821661118c5760405162461bcd60e51b815260040161077790612448565b50600380546001600160a01b0319166001600160a01b0392909216919091179055565b60006111ba81611210565b6000821161120a5760405162461bcd60e51b815260206004820152601860248201527f5265706c696361746f723a496e76616c69642054696d657200000000000000006044820152606401610777565b50600955565b61121a8133611a69565b50565b6112256112b0565b6002805460ff191660011790557f62e78cea01bee320cd4e420270b5ea74000d11b0c9f74754ebdbfc544b05a25861125a3390565b6040516001600160a01b03909116815260200160405180910390a1565b61127f611acd565b6002805460ff191690557f5db9ee0a495bf2e6ff9c91a7834c1ba4fdd244a5e8aa4e537bd38aeae4b073aa3361125a565b60025460ff16156112f65760405162461bcd60e51b815260206004820152601060248201526f14185d5cd8589b194e881c185d5cd95960821b6044820152606401610777565b565b600354604051634378a6e360e01b8152600481018590526000916001600160a01b031690634378a6e39060240160c06040518083038186803b15801561133d57600080fd5b505afa158015611351573d6000803e3d6000fd5b505050506040513d601f19601f82011682018060405250810190611375919061253f565b600354604051634378a6e360e01b8152600481018b9052919750600096506001600160a01b03169450634378a6e3935060240191506113b19050565b60c06040518083038186803b1580156113c957600080fd5b505afa1580156113dd573d6000803e3d6000fd5b505050506040513d601f19601f82011682018060405250810190611401919061253f565b6005549096506001600160a01b031694506379cc67909350879250600d915085905060078110611433576114336123fc565b0154600d8660078110611448576114486123fc565b015461145491906124de565b6040516001600160e01b031960e085901b1681526001600160a01b0390921660048301526024820152604401600060405180830381600087803b15801561149a57600080fd5b505af11580156114ae573d6000803e3d6000fd5b5050505060006114be838361109d565b600754909150600160a01b900460ff161561168d578034146115225760405162461bcd60e51b815260206004820152601f60248201527f5265706c696361746f723a496e76616c6964204d6174696320416d6f756e74006044820152606401610777565b6006546000906001600160a01b031661153c60048461252b565b604051600081818185875af1925050503d8060008114611578576040519150601f19603f3d011682016040523d82523d6000602084013e61157d565b606091505b50509050806115ce5760405162461bcd60e51b815260206004820152601e60248201527f4661696c656420746f2073656e642074726561737572794164647265737300006044820152606401610777565b6007546000906001600160a01b031660046115ea8560036124f6565b6115f4919061252b565b604051600081818185875af1925050503d8060008114611630576040519150601f19603f3d011682016040523d82523d6000602084013e611635565b606091505b50509050806116865760405162461bcd60e51b815260206004820152601d60248201527f4661696c656420746f2073656e6420636f6d70616e79416464726573730000006044820152606401610777565b5050611735565b34156116db5760405162461bcd60e51b815260206004820152601860248201527f5265706c696361746f723a496e76616c69642056616c756500000000000000006044820152606401610777565b60065461170c9085906001600160a01b03166116f860048561252b565b6004546001600160a01b0316929190611b16565b6007546117359085906001600160a01b0316600461172b8560036124f6565b6116f8919061252b565b6003546001600160a01b031663c48de06d876117528660016124de565b6040516001600160e01b031960e085901b16815260048101929092526024820152604401600060405180830381600087803b15801561179057600080fd5b505af11580156117a4573d6000803e3d6000fd5b50506003546001600160a01b0316915063c48de06d9050866117c78560016124de565b6040516001600160e01b031960e085901b16815260048101929092526024820152604401600060405180830381600087803b15801561180557600080fd5b505af1158015611819573d6000803e3d6000fd5b50505050505050505050565b600080600360009054906101000a90046001600160a01b03166001600160a01b0316638b1514ed8d8d8d61188e8e8e8080601f016020809104026020016040519081016040528093929190818152602001838380828437600092019190915250611b7092505050565b61189790612589565b8c8c8a6040518863ffffffff1660e01b81526004016118bc97969594939291906125ea565b602060405180830381600087803b1580156118d657600080fd5b505af11580156118ea573d6000803e3d6000fd5b505050506040513d601f19601f8201168201806040525081019061190e919061269c565b6000818152600c60209081526040808320805460ff19166001908117909155815180830183528a81528084018a8152868652600a9094529190932090518155905191015560095490915061196290426124de565b6000828152600b60205260409020559b9a5050505050505050505050565b61198a8282610df1565b61073d576000828152602081815260408083206001600160a01b03851684529091529020805460ff191660011790556119c03390565b6001600160a01b0316816001600160a01b0316837f2f8788117e7eff1d82e926ec794901d17c78024a50270940304540a733656f0d60405160405180910390a45050565b611a0e8282610df1565b1561073d576000828152602081815260408083206001600160a01b0385168085529252808320805460ff1916905551339285917ff6391f5c32d9c69d2a47ea670b442974b53935d1edc7fd64eb21e047a839171b9190a45050565b611a738282610df1565b61073d57611a8b816001600160a01b03166014611c99565b611a96836020611c99565b604051602001611aa79291906126e1565b60408051601f198184030181529082905262461bcd60e51b825261077791600401612756565b60025460ff166112f65760405162461bcd60e51b815260206004820152601460248201527314185d5cd8589b194e881b9bdd081c185d5cd95960621b6044820152606401610777565b604080516001600160a01b0385811660248301528416604482015260648082018490528251808303909101815260849091019091526020810180516001600160e01b03166323b872dd60e01b179052610a87908590611e3c565b80516060908290611b8390600290612789565b15611b8d57600080fd5b600060028251611b9d919061252b565b67ffffffffffffffff811115611bb557611bb561279d565b6040519080825280601f01601f191660200182016040528015611bdf576020820181803683370190505b50905060005b60028351611bf3919061252b565b811015611c9157611c3183611c098360026124f6565b611c149060016124de565b81518110611c2457611c246123fc565b016020015160f81c611f0e565b611c4084611c148460026124f6565b611c4b9060106127b3565b611c5591906127dc565b60f81b828281518110611c6a57611c6a6123fc565b60200101906001600160f81b031916908160001a905350611c8a81612801565b9050611be5565b509392505050565b60606000611ca88360026124f6565b611cb39060026124de565b67ffffffffffffffff811115611ccb57611ccb61279d565b6040519080825280601f01601f191660200182016040528015611cf5576020820181803683370190505b509050600360fc1b81600081518110611d1057611d106123fc565b60200101906001600160f81b031916908160001a905350600f60fb1b81600181518110611d3f57611d3f6123fc565b60200101906001600160f81b031916908160001a9053506000611d638460026124f6565b611d6e9060016124de565b90505b6001811115611de6576f181899199a1a9b1b9c1cb0b131b232b360811b85600f1660108110611da257611da26123fc565b1a60f81b828281518110611db857611db86123fc565b60200101906001600160f81b031916908160001a90535060049490941c93611ddf8161281c565b9050611d71565b508315611e355760405162461bcd60e51b815260206004820181905260248201527f537472696e67733a20686578206c656e67746820696e73756666696369656e746044820152606401610777565b9392505050565b6000611e91826040518060400160405280602081526020017f5361666545524332303a206c6f772d6c6576656c2063616c6c206661696c6564815250856001600160a01b031661201b9092919063ffffffff16565b805190915015610ab25780806020019051810190611eaf9190612833565b610ab25760405162461bcd60e51b815260206004820152602a60248201527f5361666545524332303a204552433230206f7065726174696f6e20646964206e6044820152691bdd081cdd58d8d9595960b21b6064820152608401610777565b6000600360fc1b60f883901b6001600160f81b03191610801590611f445750603960f81b60f883901b6001600160f81b03191611155b15611f54576106f1603083612850565b606160f81b60f883901b6001600160f81b03191610801590611f885750603360f91b60f883901b6001600160f81b03191611155b15611fa4576061611f9a83600a6127dc565b6106f19190612850565b604160f81b60f883901b6001600160f81b03191610801590611fd85750602360f91b60f883901b6001600160f81b03191611155b15611fea576041611f9a83600a6127dc565b60405162461bcd60e51b81526004016107779060208082526004908201526319985a5b60e21b604082015260600190565b60606111538484600085856001600160a01b0385163b61207d5760405162461bcd60e51b815260206004820152601d60248201527f416464726573733a2063616c6c20746f206e6f6e2d636f6e74726163740000006044820152606401610777565b600080866001600160a01b031685876040516120999190612873565b60006040518083038185875af1925050503d80600081146120d6576040519150601f19603f3d011682016040523d82523d6000602084013e6120db565b606091505b50915091506120eb8282866120f6565b979650505050505050565b60608315612105575081611e35565b8251156121155782518084602001fd5b8160405162461bcd60e51b81526004016107779190612756565b60006020828403121561214157600080fd5b81356001600160e01b031981168114611e3557600080fd5b801515811461121a57600080fd5b60006020828403121561217957600080fd5b8135611e3581612159565b60008083601f84011261219657600080fd5b50813567ffffffffffffffff8111156121ae57600080fd5b6020830191508360208285010111156121c657600080fd5b9250929050565b6000806000806000806000806000898b036101408112156121ed57600080fd5b8a3567ffffffffffffffff8082111561220557600080fd5b6122118e838f01612184565b909c509a5060208d013591508082111561222a57600080fd5b6122368e838f01612184565b909a50985060408d013591508082111561224f57600080fd5b5061225c8d828e01612184565b90975095505060608b0135935060808b0135925060a0609f198201121561228257600080fd5b5060a08a0190509295985092959850929598565b6000602082840312156122a857600080fd5b5035919050565b600080602083850312156122c257600080fd5b823567ffffffffffffffff808211156122da57600080fd5b818501915085601f8301126122ee57600080fd5b8135818111156122fd57600080fd5b8660208260051b850101111561231257600080fd5b60209290920196919550909350505050565b6001600160a01b038116811461121a57600080fd5b6000806040838503121561234c57600080fd5b82359150602083013561235e81612324565b809150509250929050565b60006020828403121561237b57600080fd5b8135611e3581612324565b6000806040838503121561239957600080fd5b50508035926020909101359150565b6020808252601f908201527f5265656e7472616e637947756172643a207265656e7472616e742063616c6c00604082015260600190565b6000602082840312156123f157600080fd5b8151611e3581612324565b634e487b7160e01b600052603260045260246000fd5b634e487b7160e01b600052601160045260246000fd5b600060ff821660ff81141561243f5761243f612412565b60010192915050565b6020808252600d908201526c4e6f5a65726f4164647265737360981b604082015260600190565b805169ffffffffffffffffffff8116811461248957600080fd5b919050565b600080600080600060a086880312156124a657600080fd5b6124af8661246f565b94506020860151935060408601519250606086015191506124d26080870161246f565b90509295509295909350565b600082198211156124f1576124f1612412565b500190565b600081600019048311821515161561251057612510612412565b500290565b634e487b7160e01b600052601260045260246000fd5b60008261253a5761253a612515565b500490565b60008060008060008060c0878903121561255857600080fd5b865195506020870151945060408701519350606087015192506080870151915060a087015190509295509295509295565b805160208083015191908110156125aa576000198160200360031b1b821691505b50919050565b81835281816020850137506000828201602090810191909152601f909101601f19169091010190565b803560ff8116811461248957600080fd5b6001600160a01b038816815261012060208201819052600090612610838201898b6125b0565b9050866040840152828103606084015261262b8186886125b0565b91505060ff612639846125d9565b16608083015260ff61264d602085016125d9565b1660a083015260ff612661604085016125d9565b1660c083015260ff612675606085016125d9565b1660e083015260ff612689608085016125d9565b1661010083015298975050505050505050565b6000602082840312156126ae57600080fd5b5051919050565b60005b838110156126d05781810151838201526020016126b8565b83811115610a875750506000910152565b7f416363657373436f6e74726f6c3a206163636f756e74200000000000000000008152600083516127198160178501602088016126b5565b7001034b99036b4b9b9b4b733903937b6329607d1b601791840191820152835161274a8160288401602088016126b5565b01602801949350505050565b60208152600082518060208401526127758160408501602087016126b5565b601f01601f19169190910160400192915050565b60008261279857612798612515565b500690565b634e487b7160e01b600052604160045260246000fd5b600060ff821660ff84168160ff04811182151516156127d4576127d4612412565b029392505050565b600060ff821660ff84168060ff038211156127f9576127f9612412565b019392505050565b600060001982141561281557612815612412565b5060010190565b60008161282b5761282b612412565b506000190190565b60006020828403121561284557600080fd5b8151611e3581612159565b600060ff821660ff84168082101561286a5761286a612412565b90039392505050565b600082516128858184602087016126b5565b919091019291505056fea264697066735822122020e17a6f3c8a1d3c84cef827441f991378acaa8588256499709c5f35a6c0f7c964736f6c63430008090033",
  "devdoc": {
    "kind": "dev",
    "methods": {
      "constructor": {
        "details": "Grants `DEFAULT_ADMIN_ROLE`, `MINTER_ROLE` and `PAUSER_ROLE` to the",
        "params": {
          "_blastEquipmentNFT": ": address of EquipmentNFT contract",
          "_blastToken": ": address of Primary Token",
          "_csToken": ": address of Secondary Token"
        }
      },
      "getRoleAdmin(bytes32)": {
        "details": "Returns the admin role that controls `role`. See {grantRole} and {revokeRole}. To change a role's admin, use {_setRoleAdmin}."
      },
      "grantRole(bytes32,address)": {
        "details": "Grants `role` to `account`. If `account` had not been already granted `role`, emits a {RoleGranted} event. Requirements: - the caller must have ``role``'s admin role. May emit a {RoleGranted} event."
      },
      "hasRole(bytes32,address)": {
        "details": "Returns `true` if `account` has been granted `role`."
      },
      "paused()": {
        "details": "Returns true if the contract is paused, and false otherwise."
      },
      "renounceRole(bytes32,address)": {
        "details": "Revokes `role` from the calling account. Roles are often managed via {grantRole} and {revokeRole}: this function's purpose is to provide a mechanism for accounts to lose their privileges if they are compromised (such as when a trusted device is misplaced). If the calling account had been revoked `role`, emits a {RoleRevoked} event. Requirements: - the caller must be `account`. May emit a {RoleRevoked} event."
      },
      "revokeRole(bytes32,address)": {
        "details": "Revokes `role` from `account`. If `account` had been granted `role`, emits a {RoleRevoked} event. Requirements: - the caller must have ``role``'s admin role. May emit a {RoleRevoked} event."
      },
      "supportsInterface(bytes4)": {
        "details": "See {IERC165-supportsInterface}."
      }
    },
    "version": 1
  },
  "userdoc": {
    "kind": "user",
    "methods": {
      "getLatestPrice()": {
        "notice": "Returns the latest price"
      }
    },
    "version": 1
  },
  "storageLayout": {
    "storage": [
      {
        "astId": 70,
        "contract": "contracts/Utilities/Replicator.sol:Replicator",
        "label": "_roles",
        "offset": 0,
        "slot": "0",
        "type": "t_mapping(t_bytes32,t_struct(RoleData)65_storage)"
      },
      {
        "astId": 557,
        "contract": "contracts/Utilities/Replicator.sol:Replicator",
        "label": "_status",
        "offset": 0,
        "slot": "1",
        "type": "t_uint256"
      },
      {
        "astId": 456,
        "contract": "contracts/Utilities/Replicator.sol:Replicator",
        "label": "_paused",
        "offset": 0,
        "slot": "2",
        "type": "t_bool"
      },
      {
        "astId": 6981,
        "contract": "contracts/Utilities/Replicator.sol:Replicator",
        "label": "priceFeed",
        "offset": 1,
        "slot": "2",
        "type": "t_contract(AggregatorV3Interface)45"
      },
      {
        "astId": 6987,
        "contract": "contracts/Utilities/Replicator.sol:Replicator",
        "label": "blastEquipmentNFT",
        "offset": 0,
        "slot": "3",
        "type": "t_contract(IBlastEquipmentNFT)7397"
      },
      {
        "astId": 6990,
        "contract": "contracts/Utilities/Replicator.sol:Replicator",
        "label": "blastToken",
        "offset": 0,
        "slot": "4",
        "type": "t_contract(IERC20)1250"
      },
      {
        "astId": 6993,
        "contract": "contracts/Utilities/Replicator.sol:Replicator",
        "label": "csToken",
        "offset": 0,
        "slot": "5",
        "type": "t_contract(ERC20Burnable)1294"
      },
      {
        "astId": 6995,
        "contract": "contracts/Utilities/Replicator.sol:Replicator",
        "label": "treasuryAddress",
        "offset": 0,
        "slot": "6",
        "type": "t_address"
      },
      {
        "astId": 6997,
        "contract": "contracts/Utilities/Replicator.sol:Replicator",
        "label": "companyAddress",
        "offset": 0,
        "slot": "7",
        "type": "t_address"
      },
      {
        "astId": 6999,
        "contract": "contracts/Utilities/Replicator.sol:Replicator",
        "label": "isUsingMatic",
        "offset": 20,
        "slot": "7",
        "type": "t_bool"
      },
      {
        "astId": 5457,
        "contract": "contracts/Utilities/Replicator.sol:Replicator",
        "label": "nonces",
        "offset": 0,
        "slot": "8",
        "type": "t_mapping(t_address,t_uint256)"
      },
      {
        "astId": 5460,
        "contract": "contracts/Utilities/Replicator.sol:Replicator",
        "label": "replicationTimer",
        "offset": 0,
        "slot": "9",
        "type": "t_uint256"
      },
      {
        "astId": 5489,
        "contract": "contracts/Utilities/Replicator.sol:Replicator",
        "label": "parents",
        "offset": 0,
        "slot": "10",
        "type": "t_mapping(t_uint256,t_struct(Parent)5453_storage)"
      },
      {
        "astId": 5493,
        "contract": "contracts/Utilities/Replicator.sol:Replicator",
        "label": "morphTimestamp",
        "offset": 0,
        "slot": "11",
        "type": "t_mapping(t_uint256,t_uint256)"
      },
      {
        "astId": 5497,
        "contract": "contracts/Utilities/Replicator.sol:Replicator",
        "label": "isReplicating",
        "offset": 0,
        "slot": "12",
        "type": "t_mapping(t_uint256,t_bool)"
      },
      {
        "astId": 5509,
        "contract": "contracts/Utilities/Replicator.sol:Replicator",
        "label": "csPrices",
        "offset": 0,
        "slot": "13",
        "type": "t_array(t_uint256)7_storage"
      },
      {
        "astId": 5521,
        "contract": "contracts/Utilities/Replicator.sol:Replicator",
        "label": "bltPrices",
        "offset": 0,
        "slot": "20",
        "type": "t_array(t_uint256)7_storage"
      }
    ],
    "types": {
      "t_address": {
        "encoding": "inplace",
        "label": "address",
        "numberOfBytes": "20"
      },
      "t_array(t_uint256)7_storage": {
        "base": "t_uint256",
        "encoding": "inplace",
        "label": "uint256[7]",
        "numberOfBytes": "224"
      },
      "t_bool": {
        "encoding": "inplace",
        "label": "bool",
        "numberOfBytes": "1"
      },
      "t_bytes32": {
        "encoding": "inplace",
        "label": "bytes32",
        "numberOfBytes": "32"
      },
      "t_contract(AggregatorV3Interface)45": {
        "encoding": "inplace",
        "label": "contract AggregatorV3Interface",
        "numberOfBytes": "20"
      },
      "t_contract(ERC20Burnable)1294": {
        "encoding": "inplace",
        "label": "contract ERC20Burnable",
        "numberOfBytes": "20"
      },
      "t_contract(IBlastEquipmentNFT)7397": {
        "encoding": "inplace",
        "label": "contract IBlastEquipmentNFT",
        "numberOfBytes": "20"
      },
      "t_contract(IERC20)1250": {
        "encoding": "inplace",
        "label": "contract IERC20",
        "numberOfBytes": "20"
      },
      "t_mapping(t_address,t_bool)": {
        "encoding": "mapping",
        "key": "t_address",
        "label": "mapping(address => bool)",
        "numberOfBytes": "32",
        "value": "t_bool"
      },
      "t_mapping(t_address,t_uint256)": {
        "encoding": "mapping",
        "key": "t_address",
        "label": "mapping(address => uint256)",
        "numberOfBytes": "32",
        "value": "t_uint256"
      },
      "t_mapping(t_bytes32,t_struct(RoleData)65_storage)": {
        "encoding": "mapping",
        "key": "t_bytes32",
        "label": "mapping(bytes32 => struct AccessControl.RoleData)",
        "numberOfBytes": "32",
        "value": "t_struct(RoleData)65_storage"
      },
      "t_mapping(t_uint256,t_bool)": {
        "encoding": "mapping",
        "key": "t_uint256",
        "label": "mapping(uint256 => bool)",
        "numberOfBytes": "32",
        "value": "t_bool"
      },
      "t_mapping(t_uint256,t_struct(Parent)5453_storage)": {
        "encoding": "mapping",
        "key": "t_uint256",
        "label": "mapping(uint256 => struct Replicator.Parent)",
        "numberOfBytes": "32",
        "value": "t_struct(Parent)5453_storage"
      },
      "t_mapping(t_uint256,t_uint256)": {
        "encoding": "mapping",
        "key": "t_uint256",
        "label": "mapping(uint256 => uint256)",
        "numberOfBytes": "32",
        "value": "t_uint256"
      },
      "t_struct(Parent)5453_storage": {
        "encoding": "inplace",
        "label": "struct Replicator.Parent",
        "members": [
          {
            "astId": 5450,
            "contract": "contracts/Utilities/Replicator.sol:Replicator",
            "label": "parent0",
            "offset": 0,
            "slot": "0",
            "type": "t_uint256"
          },
          {
            "astId": 5452,
            "contract": "contracts/Utilities/Replicator.sol:Replicator",
            "label": "parent1",
            "offset": 0,
            "slot": "1",
            "type": "t_uint256"
          }
        ],
        "numberOfBytes": "64"
      },
      "t_struct(RoleData)65_storage": {
        "encoding": "inplace",
        "label": "struct AccessControl.RoleData",
        "members": [
          {
            "astId": 62,
            "contract": "contracts/Utilities/Replicator.sol:Replicator",
            "label": "members",
            "offset": 0,
            "slot": "0",
            "type": "t_mapping(t_address,t_bool)"
          },
          {
            "astId": 64,
            "contract": "contracts/Utilities/Replicator.sol:Replicator",
            "label": "adminRole",
            "offset": 0,
            "slot": "1",
            "type": "t_bytes32"
          }
        ],
        "numberOfBytes": "64"
      },
      "t_uint256": {
        "encoding": "inplace",
        "label": "uint256",
        "numberOfBytes": "32"
      }
    }
  }
}