{
  "address": "0xe51012c034d610ab9608dfA01e5FEeE96A7BA7EA",
  "abi": [
    {
      "inputs": [
        {
          "internalType": "contract IBlastEquipmentNFT",
          "name": "_blastEquipmentNFT",
          "type": "address"
        },
        {
          "internalType": "contract IERC20",
          "name": "_blastToken",
          "type": "address"
        },
        {
          "internalType": "contract ERC20Burnable",
          "name": "_csToken",
          "type": "address"
        },
        {
          "internalType": "address",
          "name": "_treasuryAddress",
          "type": "address"
        },
        {
          "internalType": "address",
          "name": "_companyAddress",
          "type": "address"
        }
      ],
      "stateMutability": "nonpayable",
      "type": "constructor"
    },
    {
      "anonymous": false,
      "inputs": [
        {
          "indexed": false,
          "internalType": "uint256",
          "name": "parent0",
          "type": "uint256"
        },
        {
          "indexed": false,
          "internalType": "uint256",
          "name": "parent1",
          "type": "uint256"
        },
        {
          "indexed": false,
          "internalType": "uint256",
          "name": "childId",
          "type": "uint256"
        },
        {
          "indexed": false,
          "internalType": "address",
          "name": "owner",
          "type": "address"
        },
        {
          "indexed": false,
          "internalType": "uint256",
          "name": "timestamp",
          "type": "uint256"
        }
      ],
      "name": "Morphed",
      "type": "event"
    },
    {
      "anonymous": false,
      "inputs": [
        {
          "indexed": false,
          "internalType": "address",
          "name": "account",
          "type": "address"
        }
      ],
      "name": "Paused",
      "type": "event"
    },
    {
      "anonymous": false,
      "inputs": [
        {
          "indexed": false,
          "internalType": "uint256",
          "name": "parent0",
          "type": "uint256"
        },
        {
          "indexed": false,
          "internalType": "uint256",
          "name": "parent1",
          "type": "uint256"
        },
        {
          "indexed": false,
          "internalType": "uint256",
          "name": "childId",
          "type": "uint256"
        },
        {
          "indexed": false,
          "internalType": "address",
          "name": "owner",
          "type": "address"
        },
        {
          "indexed": false,
          "internalType": "uint256",
          "name": "timestamp",
          "type": "uint256"
        }
      ],
      "name": "Replicated",
      "type": "event"
    },
    {
      "anonymous": false,
      "inputs": [
        {
          "indexed": true,
          "internalType": "bytes32",
          "name": "role",
          "type": "bytes32"
        },
        {
          "indexed": true,
          "internalType": "bytes32",
          "name": "previousAdminRole",
          "type": "bytes32"
        },
        {
          "indexed": true,
          "internalType": "bytes32",
          "name": "newAdminRole",
          "type": "bytes32"
        }
      ],
      "name": "RoleAdminChanged",
      "type": "event"
    },
    {
      "anonymous": false,
      "inputs": [
        {
          "indexed": true,
          "internalType": "bytes32",
          "name": "role",
          "type": "bytes32"
        },
        {
          "indexed": true,
          "internalType": "address",
          "name": "account",
          "type": "address"
        },
        {
          "indexed": true,
          "internalType": "address",
          "name": "sender",
          "type": "address"
        }
      ],
      "name": "RoleGranted",
      "type": "event"
    },
    {
      "anonymous": false,
      "inputs": [
        {
          "indexed": true,
          "internalType": "bytes32",
          "name": "role",
          "type": "bytes32"
        },
        {
          "indexed": true,
          "internalType": "address",
          "name": "account",
          "type": "address"
        },
        {
          "indexed": true,
          "internalType": "address",
          "name": "sender",
          "type": "address"
        }
      ],
      "name": "RoleRevoked",
      "type": "event"
    },
    {
      "anonymous": false,
      "inputs": [
        {
          "indexed": false,
          "internalType": "address",
          "name": "account",
          "type": "address"
        }
      ],
      "name": "Unpaused",
      "type": "event"
    },
    {
      "inputs": [],
      "name": "DECIMAL_FACTOR",
      "outputs": [
        {
          "internalType": "uint256",
          "name": "",
          "type": "uint256"
        }
      ],
      "stateMutability": "view",
      "type": "function"
    },
    {
      "inputs": [],
      "name": "DEFAULT_ADMIN_ROLE",
      "outputs": [
        {
          "internalType": "bytes32",
          "name": "",
          "type": "bytes32"
        }
      ],
      "stateMutability": "view",
      "type": "function"
    },
    {
      "inputs": [],
      "name": "blastEquipmentNFT",
      "outputs": [
        {
          "internalType": "contract IBlastEquipmentNFT",
          "name": "",
          "type": "address"
        }
      ],
      "stateMutability": "view",
      "type": "function"
    },
    {
      "inputs": [],
      "name": "blastToken",
      "outputs": [
        {
          "internalType": "contract IERC20",
          "name": "",
          "type": "address"
        }
      ],
      "stateMutability": "view",
      "type": "function"
    },
    {
      "inputs": [
        {
          "internalType": "uint256",
          "name": "",
          "type": "uint256"
        }
      ],
      "name": "bltPrices",
      "outputs": [
        {
          "internalType": "uint256",
          "name": "",
          "type": "uint256"
        }
      ],
      "stateMutability": "view",
      "type": "function"
    },
    {
      "inputs": [
        {
          "internalType": "uint256",
          "name": "",
          "type": "uint256"
        }
      ],
      "name": "csPrices",
      "outputs": [
        {
          "internalType": "uint256",
          "name": "",
          "type": "uint256"
        }
      ],
      "stateMutability": "view",
      "type": "function"
    },
    {
      "inputs": [],
      "name": "csToken",
      "outputs": [
        {
          "internalType": "contract ERC20Burnable",
          "name": "",
          "type": "address"
        }
      ],
      "stateMutability": "view",
      "type": "function"
    },
    {
      "inputs": [],
      "name": "flipIsUsingMatic",
      "outputs": [],
      "stateMutability": "nonpayable",
      "type": "function"
    },
    {
      "inputs": [],
      "name": "getLatestPrice",
      "outputs": [
        {
          "internalType": "int256",
          "name": "",
          "type": "int256"
        }
      ],
      "stateMutability": "view",
      "type": "function"
    },
    {
      "inputs": [
        {
          "internalType": "bytes32",
          "name": "role",
          "type": "bytes32"
        }
      ],
      "name": "getRoleAdmin",
      "outputs": [
        {
          "internalType": "bytes32",
          "name": "",
          "type": "bytes32"
        }
      ],
      "stateMutability": "view",
      "type": "function"
    },
    {
      "inputs": [
        {
          "internalType": "uint256",
          "name": "currentReplicationCountP1",
          "type": "uint256"
        },
        {
          "internalType": "uint256",
          "name": "currentReplicationCountP2",
          "type": "uint256"
        }
      ],
      "name": "getTotalBLSTAmount",
      "outputs": [
        {
          "internalType": "uint256",
          "name": "",
          "type": "uint256"
        }
      ],
      "stateMutability": "view",
      "type": "function"
    },
    {
      "inputs": [
        {
          "internalType": "uint256",
          "name": "currentReplicationCountP1",
          "type": "uint256"
        },
        {
          "internalType": "uint256",
          "name": "currentReplicationCountP2",
          "type": "uint256"
        }
      ],
      "name": "getTotalCSAmount",
      "outputs": [
        {
          "internalType": "uint256",
          "name": "",
          "type": "uint256"
        }
      ],
      "stateMutability": "view",
      "type": "function"
    },
    {
      "inputs": [
        {
          "internalType": "bytes32",
          "name": "role",
          "type": "bytes32"
        },
        {
          "internalType": "address",
          "name": "account",
          "type": "address"
        }
      ],
      "name": "grantRole",
      "outputs": [],
      "stateMutability": "nonpayable",
      "type": "function"
    },
    {
      "inputs": [
        {
          "internalType": "bytes32",
          "name": "role",
          "type": "bytes32"
        },
        {
          "internalType": "address",
          "name": "account",
          "type": "address"
        }
      ],
      "name": "hasRole",
      "outputs": [
        {
          "internalType": "bool",
          "name": "",
          "type": "bool"
        }
      ],
      "stateMutability": "view",
      "type": "function"
    },
    {
      "inputs": [
        {
          "internalType": "uint256",
          "name": "",
          "type": "uint256"
        }
      ],
      "name": "isReplicating",
      "outputs": [
        {
          "internalType": "bool",
          "name": "",
          "type": "bool"
        }
      ],
      "stateMutability": "view",
      "type": "function"
    },
    {
      "inputs": [],
      "name": "isUsingMatic",
      "outputs": [
        {
          "internalType": "bool",
          "name": "",
          "type": "bool"
        }
      ],
      "stateMutability": "view",
      "type": "function"
    },
    {
      "inputs": [
        {
          "internalType": "uint256",
          "name": "",
          "type": "uint256"
        }
      ],
      "name": "maticCsPrices",
      "outputs": [
        {
          "internalType": "uint256",
          "name": "",
          "type": "uint256"
        }
      ],
      "stateMutability": "view",
      "type": "function"
    },
    {
      "inputs": [
        {
          "internalType": "uint256",
          "name": "_childId",
          "type": "uint256"
        }
      ],
      "name": "morph",
      "outputs": [],
      "stateMutability": "nonpayable",
      "type": "function"
    },
    {
      "inputs": [
        {
          "internalType": "uint256",
          "name": "",
          "type": "uint256"
        }
      ],
      "name": "morphTimestamp",
      "outputs": [
        {
          "internalType": "uint256",
          "name": "",
          "type": "uint256"
        }
      ],
      "stateMutability": "view",
      "type": "function"
    },
    {
      "inputs": [
        {
          "internalType": "address",
          "name": "",
          "type": "address"
        }
      ],
      "name": "nonces",
      "outputs": [
        {
          "internalType": "uint256",
          "name": "",
          "type": "uint256"
        }
      ],
      "stateMutability": "view",
      "type": "function"
    },
    {
      "inputs": [
        {
          "internalType": "uint256",
          "name": "",
          "type": "uint256"
        }
      ],
      "name": "parents",
      "outputs": [
        {
          "internalType": "uint256",
          "name": "parent0",
          "type": "uint256"
        },
        {
          "internalType": "uint256",
          "name": "parent1",
          "type": "uint256"
        }
      ],
      "stateMutability": "view",
      "type": "function"
    },
    {
      "inputs": [
        {
          "internalType": "bool",
          "name": "stop",
          "type": "bool"
        }
      ],
      "name": "pause",
      "outputs": [],
      "stateMutability": "nonpayable",
      "type": "function"
    },
    {
      "inputs": [],
      "name": "paused",
      "outputs": [
        {
          "internalType": "bool",
          "name": "",
          "type": "bool"
        }
      ],
      "stateMutability": "view",
      "type": "function"
    },
    {
      "inputs": [
        {
          "internalType": "bytes32",
          "name": "role",
          "type": "bytes32"
        },
        {
          "internalType": "address",
          "name": "account",
          "type": "address"
        }
      ],
      "name": "renounceRole",
      "outputs": [],
      "stateMutability": "nonpayable",
      "type": "function"
    },
    {
      "inputs": [
        {
          "internalType": "string",
          "name": "_uri",
          "type": "string"
        },
        {
          "internalType": "string",
          "name": "_hashString",
          "type": "string"
        },
        {
          "internalType": "string",
          "name": "_realUri",
          "type": "string"
        },
        {
          "internalType": "uint256",
          "name": "_p1",
          "type": "uint256"
        },
        {
          "internalType": "uint256",
          "name": "_p2",
          "type": "uint256"
        },
        {
          "components": [
            {
              "internalType": "uint8",
              "name": "maxLevel",
              "type": "uint8"
            },
            {
              "internalType": "uint8",
              "name": "maxDurability",
              "type": "uint8"
            },
            {
              "internalType": "uint8",
              "name": "adjective",
              "type": "uint8"
            },
            {
              "internalType": "uint8",
              "name": "rarity",
              "type": "uint8"
            },
            {
              "internalType": "uint8",
              "name": "grade",
              "type": "uint8"
            }
          ],
          "internalType": "struct StaticAttributes",
          "name": "_staticAttribute",
          "type": "tuple"
        }
      ],
      "name": "replicate",
      "outputs": [],
      "stateMutability": "nonpayable",
      "type": "function"
    },
    {
      "inputs": [],
      "name": "replicationTimer",
      "outputs": [
        {
          "internalType": "uint256",
          "name": "",
          "type": "uint256"
        }
      ],
      "stateMutability": "view",
      "type": "function"
    },
    {
      "inputs": [
        {
          "internalType": "bytes32",
          "name": "role",
          "type": "bytes32"
        },
        {
          "internalType": "address",
          "name": "account",
          "type": "address"
        }
      ],
      "name": "revokeRole",
      "outputs": [],
      "stateMutability": "nonpayable",
      "type": "function"
    },
    {
      "inputs": [
        {
          "internalType": "uint256[]",
          "name": "_bltPrices",
          "type": "uint256[]"
        }
      ],
      "name": "setBLTPrices",
      "outputs": [],
      "stateMutability": "nonpayable",
      "type": "function"
    },
    {
      "inputs": [
        {
          "internalType": "contract IBlastEquipmentNFT",
          "name": "_blastEquipmentNFT",
          "type": "address"
        }
      ],
      "name": "setBlastEquipmentAddress",
      "outputs": [],
      "stateMutability": "nonpayable",
      "type": "function"
    },
    {
      "inputs": [
        {
          "internalType": "contract IERC20",
          "name": "_blastToken",
          "type": "address"
        }
      ],
      "name": "setBlastTokenAddress",
      "outputs": [],
      "stateMutability": "nonpayable",
      "type": "function"
    },
    {
      "inputs": [
        {
          "internalType": "uint256[]",
          "name": "_csPrices",
          "type": "uint256[]"
        }
      ],
      "name": "setCSPrices",
      "outputs": [],
      "stateMutability": "nonpayable",
      "type": "function"
    },
    {
      "inputs": [
        {
          "internalType": "contract ERC20Burnable",
          "name": "_csToken",
          "type": "address"
        }
      ],
      "name": "setCSTokenAddress",
      "outputs": [],
      "stateMutability": "nonpayable",
      "type": "function"
    },
    {
      "inputs": [
        {
          "internalType": "address",
          "name": "_company",
          "type": "address"
        }
      ],
      "name": "setCompanyAddress",
      "outputs": [],
      "stateMutability": "nonpayable",
      "type": "function"
    },
    {
      "inputs": [
        {
          "internalType": "uint256[]",
          "name": "_maticCsPrices",
          "type": "uint256[]"
        }
      ],
      "name": "setMaticCSPrices",
      "outputs": [],
      "stateMutability": "nonpayable",
      "type": "function"
    },
    {
      "inputs": [
        {
          "internalType": "uint256",
          "name": "_newTimer",
          "type": "uint256"
        }
      ],
      "name": "setReplicationTimer",
      "outputs": [],
      "stateMutability": "nonpayable",
      "type": "function"
    },
    {
      "inputs": [
        {
          "internalType": "address",
          "name": "_treasury",
          "type": "address"
        }
      ],
      "name": "setTreasuryAddress",
      "outputs": [],
      "stateMutability": "nonpayable",
      "type": "function"
    },
    {
      "inputs": [
        {
          "internalType": "bytes4",
          "name": "interfaceId",
          "type": "bytes4"
        }
      ],
      "name": "supportsInterface",
      "outputs": [
        {
          "internalType": "bool",
          "name": "",
          "type": "bool"
        }
      ],
      "stateMutability": "view",
      "type": "function"
    }
  ],
  "transactionHash": "0xbf4fd265bca75a28075a9d6881361d81d45a2d28f601de0eb9edcd273e3b1d50",
  "args": [
    "0x03eA885Ec4cb6100707EB4bE74DD83a7DDf856B1",
    "0xdF1b3D7F8DE55148c42dAb83f8f1b9E0510EfCb2",
    "0xdec2bE2062416011688B3D7f3487a2F3B5421c74",
    "0x7Ac410F4E36873022b57821D7a8EB3D7513C045a",
    "0x7Ac410F4E36873022b57821D7a8EB3D7513C045a"
  ],
  "numDeployments": 4,
  "solcInputHash": "806fd6caa0c2733e69b801a912701bab",
  "bytecode": "0x61012c6009556101606040526843c33c1937564800006080908152686194049f30f720000060a05268ad78ebc5ac6200000060c05269010f0cf064dd5920000060e0526901e7e4171bf4d3a00000610100526902f6f10780d22cc00000610120526904c3ba39c5e411100000610140526200007f90600d906007620003b8565b506040805160e081018252680d8d726b7177a8000081526812f939c99edab800006020820152681b1ae4d6e2ef500000918101919091526825f273933db57000006060820152683635c9adc5dea000006080820152685150ae84a8cdf0000060a0820152686c6b935b8bbd40000060c08201526200010290601490600762000406565b506040805160e081018252676124fee993bc00008152677ce66c50e2840000602082015267a688906bd8b000009181019190915267d02ab486cedc000060608201526801158e460913d00000608082015268015af1d78b58c4000060a08201526801a055690d9db8000060c08201526200018190601b90600762000406565b503480156200018f57600080fd5b5060405162002bbf38038062002bbf833981016040819052620001b29162000472565b600180556002805460ff1916905584848484846001600160a01b03851615801590620001e657506001600160a01b03841615155b8015620001fb57506001600160a01b03831615155b80156200021057506001600160a01b03821615155b80156200022557506001600160a01b03811615155b604051806040016040528060018152602001603160f81b81525090620002695760405162461bcd60e51b8152600401620002609190620004f2565b60405180910390fd5b506200027760003362000308565b600380546001600160a01b03199081166001600160a01b03978816179091556004805482169587169590951790945560058054851693861693909317909255600680548416918516919091179055600780549092169216919091179055505060028054610100600160a81b03191674d0d5e3db44de05e9f294bb0a3beeaf030de24ada00179055506200054a915050565b62000314828262000318565b5050565b6000828152602081815260408083206001600160a01b038516845290915290205460ff1662000314576000828152602081815260408083206001600160a01b03851684529091529020805460ff19166001179055620003743390565b6001600160a01b0316816001600160a01b0316837f2f8788117e7eff1d82e926ec794901d17c78024a50270940304540a733656f0d60405160405180910390a45050565b8260078101928215620003f4579160200282015b82811115620003f457825182906001600160501b0316905591602001919060010190620003cc565b506200040292915062000442565b5090565b8260078101928215620003f4579160200282015b82811115620003f457825182906001600160481b03169055916020019190600101906200041a565b5b8082111562000402576000815560010162000443565b6001600160a01b03811681146200046f57600080fd5b50565b600080600080600060a086880312156200048b57600080fd5b8551620004988162000459565b6020870151909550620004ab8162000459565b6040870151909450620004be8162000459565b6060870151909350620004d18162000459565b6080870151909250620004e48162000459565b809150509295509295909350565b600060208083528351808285015260005b81811015620005215785810183015185820160400152820162000503565b8181111562000534576000604083870101525b50601f01601f1916929092016040019392505050565b612665806200055a6000396000f3fe608060405234801561001057600080fd5b50600436106102275760003560e01c806363755a9411610130578063a217fddf116100b8578063df8de1631161007c578063df8de163146104ef578063e04605fd14610503578063eccb444814610516578063f741e0cf14610529578063ff5c13141461053c57600080fd5b8063a217fddf1461049b578063b67489bd146104a3578063c1763ee5146104b6578063d547741f146104c9578063d8c26f66146104dc57600080fd5b80637ecebe00116100ff5780637ecebe0014610411578063898572a6146104315780638e15f4731461046d57806391d1485414610475578063974146261461048857600080fd5b806363755a94146103c55780636605bfda146103d85780637067e19f146103eb57806372c6239a146103fe57600080fd5b80632b0afd84116101b35780634c0f5276116101825780634c0f52761461036e5780634f63a772146103815780635c975abb146103945780635eaf5e8b1461039f57806360f5b914146103b257600080fd5b80632b0afd84146103365780632f2ff15d1461033f57806333fdbbe51461035257806336568abe1461035b57600080fd5b80630c64fe86116101fa5780630c64fe86146102845780631b078ab3146102b25780631f9ea6b0146102dd578063228ea4f814610300578063248a9ca31461031357600080fd5b806301ffc9a71461022c578063021946fd1461025457806302329a291461025e57806304ac5b2114610271575b600080fd5b61023f61023a366004611f2d565b61054f565b60405190151581526020015b60405180910390f35b61025c610586565b005b61025c61026c366004611f65565b6105b3565b61025c61027f366004611fcb565b6105d8565b6102a4610292366004612094565b600b6020526000908152604090205481565b60405190815260200161024b565b6004546102c5906001600160a01b031681565b6040516001600160a01b03909116815260200161024b565b61023f6102eb366004612094565b600c6020526000908152604090205460ff1681565b61025c61030e3660046120ad565b6108bb565b6102a4610321366004612094565b60009081526020819052604090206001015490565b6102a460095481565b61025c61034d366004612137565b61095b565b6102a46103e881565b61025c610369366004612137565b610985565b61025c61037c366004612167565b6109ff565b61025c61038f366004612167565b610a6d565b60025460ff1661023f565b6102a46103ad366004612094565b610adb565b6102a46103c0366004612094565b610af2565b6102a46103d3366004612184565b610b02565b61025c6103e6366004612167565b610b8d565b61025c6103f93660046120ad565b610bfb565b6003546102c5906001600160a01b031681565b6102a461041f366004612167565b60086020526000908152604090205481565b61045861043f366004612094565b600a602052600090815260409020805460019091015482565b6040805192835260208301919091520161024b565b6102a4610c95565b61023f610483366004612137565b610d29565b61025c610496366004612094565b610d52565b6102a4600081565b61025c6104b13660046120ad565b610fc7565b61025c6104c4366004612167565b611061565b61025c6104d7366004612137565b6110cf565b6102a46104ea366004612184565b6110f4565b60075461023f90600160a01b900460ff1681565b6005546102c5906001600160a01b031681565b61025c610524366004612167565b61111e565b61025c610537366004612094565b61118c565b6102a461054a366004612094565b6111d4565b60006001600160e01b03198216637965db0b60e01b148061058057506301ffc9a760e01b6001600160e01b03198316145b92915050565b6000610591816111e4565b506007805460ff60a01b198116600160a01b9182900460ff1615909102179055565b60006105be816111e4565b81156105d0576105cc6111f1565b5050565b6105cc61124b565b60006105e3816111e4565b6002600154141561063b5760405162461bcd60e51b815260206004820152601f60248201527f5265656e7472616e637947756172643a207265656e7472616e742063616c6c0060448201526064015b60405180910390fd5b6002600155610648611284565b6040805180820190915260018152603560f81b6020820152848414156106815760405162461bcd60e51b815260040161063291906121d2565b506003546040516331a9108f60e11b8152600481018690526000916001600160a01b031690636352211e9060240160206040518083038186803b1580156106c757600080fd5b505afa1580156106db573d6000803e3d6000fd5b505050506040513d601f19601f820116820180604052508101906106ff9190612205565b6003546040516331a9108f60e11b8152600481018790529192506001600160a01b031690636352211e9060240160206040518083038186803b15801561074457600080fd5b505afa158015610758573d6000803e3d6000fd5b505050506040513d601f19601f8201168201806040525081019061077c9190612205565b6001600160a01b0316816001600160a01b031614604051806040016040528060018152602001603560f81b815250906107c85760405162461bcd60e51b815260040161063291906121d2565b506000858152600c602052604090205460ff161580156107f757506000848152600c602052604090205460ff16155b60405180604001604052806002815260200161323160f01b815250906108305760405162461bcd60e51b815260040161063291906121d2565b5061083c8585836112cc565b6000610850828d8d8d8d8d8d8d8d8d6115be565b60408051888152602081018890529081018290526001600160a01b03841660608201524260808201529091507f3b7684b0f6cced36c46355d820bc209ce502a1a3724a6fde47f9588513debb7d9060a00160405180910390a150506001805550505050505050505050565b60006108c6816111e4565b6040805180820190915260018152603560f81b6020820152600783146108ff5760405162461bcd60e51b815260040161063291906121d2565b5060005b60078160ff1610156109555783838260ff1681811061092457610924612222565b90506020020135600d8260ff166007811061094157610941612222565b01558061094d8161224e565b915050610903565b50505050565b600082815260208190526040902060010154610976816111e4565b6109808383611719565b505050565b6001600160a01b03811633146109f55760405162461bcd60e51b815260206004820152602f60248201527f416363657373436f6e74726f6c3a2063616e206f6e6c792072656e6f756e636560448201526e103937b632b9903337b91039b2b63360891b6064820152608401610632565b6105cc828261179d565b6000610a0a816111e4565b6040805180820190915260018152603160f81b60208201526001600160a01b038316610a495760405162461bcd60e51b815260040161063291906121d2565b5050600480546001600160a01b0319166001600160a01b0392909216919091179055565b6000610a78816111e4565b6040805180820190915260018152603160f81b60208201526001600160a01b038316610ab75760405162461bcd60e51b815260040161063291906121d2565b5050600780546001600160a01b0319166001600160a01b0392909216919091179055565b601b8160078110610aeb57600080fd5b0154905081565b600d8160078110610aeb57600080fd5b600754600090600160a01b900460ff1615610b525760148260078110610b2a57610b2a612222565b015460148460078110610b3f57610b3f612222565b0154610b4b919061226e565b9050610580565b600d8260078110610b6557610b65612222565b0154600d8460078110610b7a57610b7a612222565b0154610b86919061226e565b9392505050565b6000610b98816111e4565b6040805180820190915260018152603160f81b60208201526001600160a01b038316610bd75760405162461bcd60e51b815260040161063291906121d2565b5050600680546001600160a01b0319166001600160a01b0392909216919091179055565b6000610c06816111e4565b6040805180820190915260018152603560f81b602082015260078314610c3f5760405162461bcd60e51b815260040161063291906121d2565b5060005b60078160ff1610156109555783838260ff16818110610c6457610c64612222565b90506020020135601b8260ff1660078110610c8157610c81612222565b015580610c8d8161224e565b915050610c43565b600080600260019054906101000a90046001600160a01b03166001600160a01b031663feaf968c6040518163ffffffff1660e01b815260040160a06040518083038186803b158015610ce657600080fd5b505afa158015610cfa573d6000803e3d6000fd5b505050506040513d601f19601f82011682018060405250810190610d1e91906122a5565b509195945050505050565b6000918252602082815260408084206001600160a01b0393909316845291905290205460ff1690565b60026001541415610da55760405162461bcd60e51b815260206004820152601f60248201527f5265656e7472616e637947756172643a207265656e7472616e742063616c6c006044820152606401610632565b6002600155610db2611284565b6003546040516331a9108f60e11b81526004810183905233916001600160a01b031690636352211e9060240160206040518083038186803b158015610df657600080fd5b505afa158015610e0a573d6000803e3d6000fd5b505050506040513d601f19601f82011682018060405250810190610e2e9190612205565b6001600160a01b031614604051806040016040528060018152602001603360f81b81525090610e705760405162461bcd60e51b815260040161063291906121d2565b506000818152600b602052604090205415801590610e9c57506000818152600b60205260409020544210155b60405180604001604052806002815260200161191960f11b81525090610ed55760405162461bcd60e51b815260040161063291906121d2565b506000818152600a60209081526040808320815180830183528154815260019091015481840152848452600c90925291829020805460ff19169055600354915163058169e360e51b81526004810184905290916001600160a01b03169063b02d3c6090602401600060405180830381600087803b158015610f5557600080fd5b505af1158015610f69573d6000803e3d6000fd5b50508251602080850151604080519384529183015281018590523360608201524260808201527facde6ee1929833056a039dea7409102fc241daa3858944b47a0f7e7e67d5237c925060a001905060405180910390a1505060018055565b6000610fd2816111e4565b6040805180820190915260018152603560f81b60208201526007831461100b5760405162461bcd60e51b815260040161063291906121d2565b5060005b60078160ff1610156109555783838260ff1681811061103057611030612222565b9050602002013560148260ff166007811061104d5761104d612222565b0155806110598161224e565b91505061100f565b600061106c816111e4565b6040805180820190915260018152603160f81b60208201526001600160a01b0383166110ab5760405162461bcd60e51b815260040161063291906121d2565b5050600580546001600160a01b0319166001600160a01b0392909216919091179055565b6000828152602081905260409020600101546110ea816111e4565b610980838361179d565b6000601b826007811061110957611109612222565b0154601b8460078110610b7a57610b7a612222565b6000611129816111e4565b6040805180820190915260018152603160f81b60208201526001600160a01b0383166111685760405162461bcd60e51b815260040161063291906121d2565b5050600380546001600160a01b0319166001600160a01b0392909216919091179055565b6000611197816111e4565b6040805180820190915260018152601960f91b6020820152826111cd5760405162461bcd60e51b815260040161063291906121d2565b5050600955565b60148160078110610aeb57600080fd5b6111ee8133611802565b50565b6111f9611284565b6002805460ff191660011790557f62e78cea01bee320cd4e420270b5ea74000d11b0c9f74754ebdbfc544b05a25861122e3390565b6040516001600160a01b03909116815260200160405180910390a1565b611253611866565b6002805460ff191690557f5db9ee0a495bf2e6ff9c91a7834c1ba4fdd244a5e8aa4e537bd38aeae4b073aa3361122e565b60025460ff16156112ca5760405162461bcd60e51b815260206004820152601060248201526f14185d5cd8589b194e881c185d5cd95960821b6044820152606401610632565b565b600354604051634378a6e360e01b8152600481018590526000916001600160a01b031690634378a6e39060240160c06040518083038186803b15801561131157600080fd5b505afa158015611325573d6000803e3d6000fd5b505050506040513d601f19601f8201168201806040525081019061134991906122f5565b600354604051634378a6e360e01b8152600481018b9052919750600096506001600160a01b03169450634378a6e3935060240191506113859050565b60c06040518083038186803b15801561139d57600080fd5b505afa1580156113b1573d6000803e3d6000fd5b505050506040513d601f19601f820116820180604052508101906113d591906122f5565b9550505050505060006113e88383610b02565b60055460405163079cc67960e41b81526001600160a01b038781166004830152602482018490529293509116906379cc679090604401600060405180830381600087803b15801561143857600080fd5b505af115801561144c573d6000803e3d6000fd5b5050600754600160a01b900460ff1691506114ce905057600061146f84846110f4565b6006549091506114a39086906001600160a01b031661148f600485612355565b6004546001600160a01b03169291906118af565b6007546114cc9086906001600160a01b031660046114c2856003612369565b61148f9190612355565b505b6003546001600160a01b031663c48de06d876114eb86600161226e565b6040516001600160e01b031960e085901b16815260048101929092526024820152604401600060405180830381600087803b15801561152957600080fd5b505af115801561153d573d6000803e3d6000fd5b50506003546001600160a01b0316915063c48de06d90508661156085600161226e565b6040516001600160e01b031960e085901b16815260048101929092526024820152604401600060405180830381600087803b15801561159e57600080fd5b505af11580156115b2573d6000803e3d6000fd5b50505050505050505050565b600080600360009054906101000a90046001600160a01b03166001600160a01b0316638b1514ed8d8d8d6116278e8e8080601f01602080910402602001604051908101604052809392919081815260200183838082843760009201919091525061190992505050565b61163090612388565b8c8c8a6040518863ffffffff1660e01b815260040161165597969594939291906123e9565b602060405180830381600087803b15801561166f57600080fd5b505af1158015611683573d6000803e3d6000fd5b505050506040513d601f19601f820116820180604052508101906116a7919061249b565b6000818152600c60209081526040808320805460ff19166001908117909155815180830183528a81528084018a8152868652600a909452919093209051815590519101556009549091506116fb904261226e565b6000828152600b60205260409020559b9a5050505050505050505050565b6117238282610d29565b6105cc576000828152602081815260408083206001600160a01b03851684529091529020805460ff191660011790556117593390565b6001600160a01b0316816001600160a01b0316837f2f8788117e7eff1d82e926ec794901d17c78024a50270940304540a733656f0d60405160405180910390a45050565b6117a78282610d29565b156105cc576000828152602081815260408083206001600160a01b0385168085529252808320805460ff1916905551339285917ff6391f5c32d9c69d2a47ea670b442974b53935d1edc7fd64eb21e047a839171b9190a45050565b61180c8282610d29565b6105cc57611824816001600160a01b03166014611a32565b61182f836020611a32565b6040516020016118409291906124b4565b60408051601f198184030181529082905262461bcd60e51b8252610632916004016121d2565b60025460ff166112ca5760405162461bcd60e51b815260206004820152601460248201527314185d5cd8589b194e881b9bdd081c185d5cd95960621b6044820152606401610632565b604080516001600160a01b0385811660248301528416604482015260648082018490528251808303909101815260849091019091526020810180516001600160e01b03166323b872dd60e01b179052610955908590611bce565b8051606090829061191c90600290612529565b1561192657600080fd5b6000600282516119369190612355565b67ffffffffffffffff81111561194e5761194e61253d565b6040519080825280601f01601f191660200182016040528015611978576020820181803683370190505b50905060005b6002835161198c9190612355565b811015611a2a576119ca836119a2836002612369565b6119ad90600161226e565b815181106119bd576119bd612222565b016020015160f81c611ca0565b6119d9846119ad846002612369565b6119e4906010612553565b6119ee919061257c565b60f81b828281518110611a0357611a03612222565b60200101906001600160f81b031916908160001a905350611a23816125a1565b905061197e565b509392505050565b60606000611a41836002612369565b611a4c90600261226e565b67ffffffffffffffff811115611a6457611a6461253d565b6040519080825280601f01601f191660200182016040528015611a8e576020820181803683370190505b509050600360fc1b81600081518110611aa957611aa9612222565b60200101906001600160f81b031916908160001a905350600f60fb1b81600181518110611ad857611ad8612222565b60200101906001600160f81b031916908160001a9053506000611afc846002612369565b611b0790600161226e565b90505b6001811115611b7f576f181899199a1a9b1b9c1cb0b131b232b360811b85600f1660108110611b3b57611b3b612222565b1a60f81b828281518110611b5157611b51612222565b60200101906001600160f81b031916908160001a90535060049490941c93611b78816125bc565b9050611b0a565b508315610b865760405162461bcd60e51b815260206004820181905260248201527f537472696e67733a20686578206c656e67746820696e73756666696369656e746044820152606401610632565b6000611c23826040518060400160405280602081526020017f5361666545524332303a206c6f772d6c6576656c2063616c6c206661696c6564815250856001600160a01b0316611dac9092919063ffffffff16565b8051909150156109805780806020019051810190611c4191906125d3565b6109805760405162461bcd60e51b815260206004820152602a60248201527f5361666545524332303a204552433230206f7065726174696f6e20646964206e6044820152691bdd081cdd58d8d9595960b21b6064820152608401610632565b6000600360fc1b60f883901b6001600160f81b03191610801590611cd65750603960f81b60f883901b6001600160f81b03191611155b15611ce6576105806030836125f0565b606160f81b60f883901b6001600160f81b03191610801590611d1a5750603360f91b60f883901b6001600160f81b03191611155b15611d36576061611d2c83600a61257c565b61058091906125f0565b604160f81b60f883901b6001600160f81b03191610801590611d6a5750602360f91b60f883901b6001600160f81b03191611155b15611d7c576041611d2c83600a61257c565b6040805180820182526002815261323360f01b6020820152905162461bcd60e51b815261063291906004016121d2565b6060611dbb8484600085611dc3565b949350505050565b606082471015611e245760405162461bcd60e51b815260206004820152602660248201527f416464726573733a20696e73756666696369656e742062616c616e636520666f6044820152651c8818d85b1b60d21b6064820152608401610632565b6001600160a01b0385163b611e7b5760405162461bcd60e51b815260206004820152601d60248201527f416464726573733a2063616c6c20746f206e6f6e2d636f6e74726163740000006044820152606401610632565b600080866001600160a01b03168587604051611e979190612613565b60006040518083038185875af1925050503d8060008114611ed4576040519150601f19603f3d011682016040523d82523d6000602084013e611ed9565b606091505b5091509150611ee9828286611ef4565b979650505050505050565b60608315611f03575081610b86565b825115611f135782518084602001fd5b8160405162461bcd60e51b815260040161063291906121d2565b600060208284031215611f3f57600080fd5b81356001600160e01b031981168114610b8657600080fd5b80151581146111ee57600080fd5b600060208284031215611f7757600080fd5b8135610b8681611f57565b60008083601f840112611f9457600080fd5b50813567ffffffffffffffff811115611fac57600080fd5b602083019150836020828501011115611fc457600080fd5b9250929050565b6000806000806000806000806000898b03610140811215611feb57600080fd5b8a3567ffffffffffffffff8082111561200357600080fd5b61200f8e838f01611f82565b909c509a5060208d013591508082111561202857600080fd5b6120348e838f01611f82565b909a50985060408d013591508082111561204d57600080fd5b5061205a8d828e01611f82565b90975095505060608b0135935060808b0135925060a0609f198201121561208057600080fd5b5060a08a0190509295985092959850929598565b6000602082840312156120a657600080fd5b5035919050565b600080602083850312156120c057600080fd5b823567ffffffffffffffff808211156120d857600080fd5b818501915085601f8301126120ec57600080fd5b8135818111156120fb57600080fd5b8660208260051b850101111561211057600080fd5b60209290920196919550909350505050565b6001600160a01b03811681146111ee57600080fd5b6000806040838503121561214a57600080fd5b82359150602083013561215c81612122565b809150509250929050565b60006020828403121561217957600080fd5b8135610b8681612122565b6000806040838503121561219757600080fd5b50508035926020909101359150565b60005b838110156121c15781810151838201526020016121a9565b838111156109555750506000910152565b60208152600082518060208401526121f18160408501602087016121a6565b601f01601f19169190910160400192915050565b60006020828403121561221757600080fd5b8151610b8681612122565b634e487b7160e01b600052603260045260246000fd5b634e487b7160e01b600052601160045260246000fd5b600060ff821660ff81141561226557612265612238565b60010192915050565b6000821982111561228157612281612238565b500190565b805169ffffffffffffffffffff811681146122a057600080fd5b919050565b600080600080600060a086880312156122bd57600080fd5b6122c686612286565b94506020860151935060408601519250606086015191506122e960808701612286565b90509295509295909350565b60008060008060008060c0878903121561230e57600080fd5b865195506020870151945060408701519350606087015192506080870151915060a087015190509295509295509295565b634e487b7160e01b600052601260045260246000fd5b6000826123645761236461233f565b500490565b600081600019048311821515161561238357612383612238565b500290565b805160208083015191908110156123a9576000198160200360031b1b821691505b50919050565b81835281816020850137506000828201602090810191909152601f909101601f19169091010190565b803560ff811681146122a057600080fd5b6001600160a01b03881681526101206020820181905260009061240f838201898b6123af565b9050866040840152828103606084015261242a8186886123af565b91505060ff612438846123d8565b16608083015260ff61244c602085016123d8565b1660a083015260ff612460604085016123d8565b1660c083015260ff612474606085016123d8565b1660e083015260ff612488608085016123d8565b1661010083015298975050505050505050565b6000602082840312156124ad57600080fd5b5051919050565b7f416363657373436f6e74726f6c3a206163636f756e74200000000000000000008152600083516124ec8160178501602088016121a6565b7001034b99036b4b9b9b4b733903937b6329607d1b601791840191820152835161251d8160288401602088016121a6565b01602801949350505050565b6000826125385761253861233f565b500690565b634e487b7160e01b600052604160045260246000fd5b600060ff821660ff84168160ff048111821515161561257457612574612238565b029392505050565b600060ff821660ff84168060ff0382111561259957612599612238565b019392505050565b60006000198214156125b5576125b5612238565b5060010190565b6000816125cb576125cb612238565b506000190190565b6000602082840312156125e557600080fd5b8151610b8681611f57565b600060ff821660ff84168082101561260a5761260a612238565b90039392505050565b600082516126258184602087016121a6565b919091019291505056fea264697066735822122050c91791f30d7dedfe5db79eb09431f2242223606c38d064cff29f9346d970ef64736f6c63430008090033",
  "devdoc": {
    "kind": "dev",
    "methods": {
      "constructor": {
        "details": "Grants `DEFAULT_ADMIN_ROLE`, `MINTER_ROLE` and `PAUSER_ROLE` to the",
        "params": {
          "_blastEquipmentNFT": ": address of EquipmentNFT contract",
          "_blastToken": ": address of Primary Token",
          "_csToken": ": address of Secondary Token"
        }
      },
      "getRoleAdmin(bytes32)": {
        "details": "Returns the admin role that controls `role`. See {grantRole} and {revokeRole}. To change a role's admin, use {_setRoleAdmin}."
      },
      "grantRole(bytes32,address)": {
        "details": "Grants `role` to `account`. If `account` had not been already granted `role`, emits a {RoleGranted} event. Requirements: - the caller must have ``role``'s admin role. May emit a {RoleGranted} event."
      },
      "hasRole(bytes32,address)": {
        "details": "Returns `true` if `account` has been granted `role`."
      },
      "paused()": {
        "details": "Returns true if the contract is paused, and false otherwise."
      },
      "renounceRole(bytes32,address)": {
        "details": "Revokes `role` from the calling account. Roles are often managed via {grantRole} and {revokeRole}: this function's purpose is to provide a mechanism for accounts to lose their privileges if they are compromised (such as when a trusted device is misplaced). If the calling account had been revoked `role`, emits a {RoleRevoked} event. Requirements: - the caller must be `account`. May emit a {RoleRevoked} event."
      },
      "revokeRole(bytes32,address)": {
        "details": "Revokes `role` from `account`. If `account` had been granted `role`, emits a {RoleRevoked} event. Requirements: - the caller must have ``role``'s admin role. May emit a {RoleRevoked} event."
      },
      "supportsInterface(bytes4)": {
        "details": "See {IERC165-supportsInterface}."
      }
    },
    "version": 1
  },
  "userdoc": {
    "kind": "user",
    "methods": {
      "getLatestPrice()": {
        "notice": "Returns the latest price"
      }
    },
    "version": 1
  },
  "storageLayout": {
    "storage": [
      {
        "astId": 70,
        "contract": "contracts/Utilities/Replicator.sol:Replicator",
        "label": "_roles",
        "offset": 0,
        "slot": "0",
        "type": "t_mapping(t_bytes32,t_struct(RoleData)65_storage)"
      },
      {
        "astId": 557,
        "contract": "contracts/Utilities/Replicator.sol:Replicator",
        "label": "_status",
        "offset": 0,
        "slot": "1",
        "type": "t_uint256"
      },
      {
        "astId": 456,
        "contract": "contracts/Utilities/Replicator.sol:Replicator",
        "label": "_paused",
        "offset": 0,
        "slot": "2",
        "type": "t_bool"
      },
      {
        "astId": 3176,
        "contract": "contracts/Utilities/Replicator.sol:Replicator",
        "label": "priceFeed",
        "offset": 1,
        "slot": "2",
        "type": "t_contract(AggregatorV3Interface)45"
      },
      {
        "astId": 3182,
        "contract": "contracts/Utilities/Replicator.sol:Replicator",
        "label": "blastEquipmentNFT",
        "offset": 0,
        "slot": "3",
        "type": "t_contract(IBlastEquipmentNFT)3598"
      },
      {
        "astId": 3185,
        "contract": "contracts/Utilities/Replicator.sol:Replicator",
        "label": "blastToken",
        "offset": 0,
        "slot": "4",
        "type": "t_contract(IERC20)1250"
      },
      {
        "astId": 3188,
        "contract": "contracts/Utilities/Replicator.sol:Replicator",
        "label": "csToken",
        "offset": 0,
        "slot": "5",
        "type": "t_contract(ERC20Burnable)1294"
      },
      {
        "astId": 3190,
        "contract": "contracts/Utilities/Replicator.sol:Replicator",
        "label": "treasuryAddress",
        "offset": 0,
        "slot": "6",
        "type": "t_address"
      },
      {
        "astId": 3192,
        "contract": "contracts/Utilities/Replicator.sol:Replicator",
        "label": "companyAddress",
        "offset": 0,
        "slot": "7",
        "type": "t_address"
      },
      {
        "astId": 3194,
        "contract": "contracts/Utilities/Replicator.sol:Replicator",
        "label": "isUsingMatic",
        "offset": 20,
        "slot": "7",
        "type": "t_bool"
      },
      {
        "astId": 2356,
        "contract": "contracts/Utilities/Replicator.sol:Replicator",
        "label": "nonces",
        "offset": 0,
        "slot": "8",
        "type": "t_mapping(t_address,t_uint256)"
      },
      {
        "astId": 2359,
        "contract": "contracts/Utilities/Replicator.sol:Replicator",
        "label": "replicationTimer",
        "offset": 0,
        "slot": "9",
        "type": "t_uint256"
      },
      {
        "astId": 2388,
        "contract": "contracts/Utilities/Replicator.sol:Replicator",
        "label": "parents",
        "offset": 0,
        "slot": "10",
        "type": "t_mapping(t_uint256,t_struct(Parent)2352_storage)"
      },
      {
        "astId": 2392,
        "contract": "contracts/Utilities/Replicator.sol:Replicator",
        "label": "morphTimestamp",
        "offset": 0,
        "slot": "11",
        "type": "t_mapping(t_uint256,t_uint256)"
      },
      {
        "astId": 2396,
        "contract": "contracts/Utilities/Replicator.sol:Replicator",
        "label": "isReplicating",
        "offset": 0,
        "slot": "12",
        "type": "t_mapping(t_uint256,t_bool)"
      },
      {
        "astId": 2408,
        "contract": "contracts/Utilities/Replicator.sol:Replicator",
        "label": "csPrices",
        "offset": 0,
        "slot": "13",
        "type": "t_array(t_uint256)7_storage"
      },
      {
        "astId": 2420,
        "contract": "contracts/Utilities/Replicator.sol:Replicator",
        "label": "maticCsPrices",
        "offset": 0,
        "slot": "20",
        "type": "t_array(t_uint256)7_storage"
      },
      {
        "astId": 2432,
        "contract": "contracts/Utilities/Replicator.sol:Replicator",
        "label": "bltPrices",
        "offset": 0,
        "slot": "27",
        "type": "t_array(t_uint256)7_storage"
      }
    ],
    "types": {
      "t_address": {
        "encoding": "inplace",
        "label": "address",
        "numberOfBytes": "20"
      },
      "t_array(t_uint256)7_storage": {
        "base": "t_uint256",
        "encoding": "inplace",
        "label": "uint256[7]",
        "numberOfBytes": "224"
      },
      "t_bool": {
        "encoding": "inplace",
        "label": "bool",
        "numberOfBytes": "1"
      },
      "t_bytes32": {
        "encoding": "inplace",
        "label": "bytes32",
        "numberOfBytes": "32"
      },
      "t_contract(AggregatorV3Interface)45": {
        "encoding": "inplace",
        "label": "contract AggregatorV3Interface",
        "numberOfBytes": "20"
      },
      "t_contract(ERC20Burnable)1294": {
        "encoding": "inplace",
        "label": "contract ERC20Burnable",
        "numberOfBytes": "20"
      },
      "t_contract(IBlastEquipmentNFT)3598": {
        "encoding": "inplace",
        "label": "contract IBlastEquipmentNFT",
        "numberOfBytes": "20"
      },
      "t_contract(IERC20)1250": {
        "encoding": "inplace",
        "label": "contract IERC20",
        "numberOfBytes": "20"
      },
      "t_mapping(t_address,t_bool)": {
        "encoding": "mapping",
        "key": "t_address",
        "label": "mapping(address => bool)",
        "numberOfBytes": "32",
        "value": "t_bool"
      },
      "t_mapping(t_address,t_uint256)": {
        "encoding": "mapping",
        "key": "t_address",
        "label": "mapping(address => uint256)",
        "numberOfBytes": "32",
        "value": "t_uint256"
      },
      "t_mapping(t_bytes32,t_struct(RoleData)65_storage)": {
        "encoding": "mapping",
        "key": "t_bytes32",
        "label": "mapping(bytes32 => struct AccessControl.RoleData)",
        "numberOfBytes": "32",
        "value": "t_struct(RoleData)65_storage"
      },
      "t_mapping(t_uint256,t_bool)": {
        "encoding": "mapping",
        "key": "t_uint256",
        "label": "mapping(uint256 => bool)",
        "numberOfBytes": "32",
        "value": "t_bool"
      },
      "t_mapping(t_uint256,t_struct(Parent)2352_storage)": {
        "encoding": "mapping",
        "key": "t_uint256",
        "label": "mapping(uint256 => struct Replicator.Parent)",
        "numberOfBytes": "32",
        "value": "t_struct(Parent)2352_storage"
      },
      "t_mapping(t_uint256,t_uint256)": {
        "encoding": "mapping",
        "key": "t_uint256",
        "label": "mapping(uint256 => uint256)",
        "numberOfBytes": "32",
        "value": "t_uint256"
      },
      "t_struct(Parent)2352_storage": {
        "encoding": "inplace",
        "label": "struct Replicator.Parent",
        "members": [
          {
            "astId": 2349,
            "contract": "contracts/Utilities/Replicator.sol:Replicator",
            "label": "parent0",
            "offset": 0,
            "slot": "0",
            "type": "t_uint256"
          },
          {
            "astId": 2351,
            "contract": "contracts/Utilities/Replicator.sol:Replicator",
            "label": "parent1",
            "offset": 0,
            "slot": "1",
            "type": "t_uint256"
          }
        ],
        "numberOfBytes": "64"
      },
      "t_struct(RoleData)65_storage": {
        "encoding": "inplace",
        "label": "struct AccessControl.RoleData",
        "members": [
          {
            "astId": 62,
            "contract": "contracts/Utilities/Replicator.sol:Replicator",
            "label": "members",
            "offset": 0,
            "slot": "0",
            "type": "t_mapping(t_address,t_bool)"
          },
          {
            "astId": 64,
            "contract": "contracts/Utilities/Replicator.sol:Replicator",
            "label": "adminRole",
            "offset": 0,
            "slot": "1",
            "type": "t_bytes32"
          }
        ],
        "numberOfBytes": "64"
      },
      "t_uint256": {
        "encoding": "inplace",
        "label": "uint256",
        "numberOfBytes": "32"
      }
    }
  }
}