{
  "address": "0x5AA65791ff9f210243571C0E507013351fB47398",
  "abi": [
    {
      "inputs": [
        {
          "internalType": "contract IBlastEquipmentNFT",
          "name": "_blastEquipmentNFT",
          "type": "address"
        },
        {
          "internalType": "contract IERC20",
          "name": "_blastToken",
          "type": "address"
        },
        {
          "internalType": "contract ERC20Burnable",
          "name": "_csToken",
          "type": "address"
        },
        {
          "internalType": "address",
          "name": "_treasuryAddress",
          "type": "address"
        },
        {
          "internalType": "address",
          "name": "_companyAddress",
          "type": "address"
        }
      ],
      "stateMutability": "nonpayable",
      "type": "constructor"
    },
    {
      "anonymous": false,
      "inputs": [
        {
          "indexed": false,
          "internalType": "uint256",
          "name": "parent0",
          "type": "uint256"
        },
        {
          "indexed": false,
          "internalType": "uint256",
          "name": "parent1",
          "type": "uint256"
        },
        {
          "indexed": false,
          "internalType": "uint256",
          "name": "childId",
          "type": "uint256"
        },
        {
          "indexed": false,
          "internalType": "address",
          "name": "owner",
          "type": "address"
        },
        {
          "indexed": false,
          "internalType": "uint256",
          "name": "timestamp",
          "type": "uint256"
        }
      ],
      "name": "Morphed",
      "type": "event"
    },
    {
      "anonymous": false,
      "inputs": [
        {
          "indexed": false,
          "internalType": "address",
          "name": "account",
          "type": "address"
        }
      ],
      "name": "Paused",
      "type": "event"
    },
    {
      "anonymous": false,
      "inputs": [
        {
          "indexed": false,
          "internalType": "uint256",
          "name": "parent0",
          "type": "uint256"
        },
        {
          "indexed": false,
          "internalType": "uint256",
          "name": "parent1",
          "type": "uint256"
        },
        {
          "indexed": false,
          "internalType": "uint256",
          "name": "childId",
          "type": "uint256"
        },
        {
          "indexed": false,
          "internalType": "address",
          "name": "owner",
          "type": "address"
        },
        {
          "indexed": false,
          "internalType": "uint256",
          "name": "timestamp",
          "type": "uint256"
        }
      ],
      "name": "Replicated",
      "type": "event"
    },
    {
      "anonymous": false,
      "inputs": [
        {
          "indexed": true,
          "internalType": "bytes32",
          "name": "role",
          "type": "bytes32"
        },
        {
          "indexed": true,
          "internalType": "bytes32",
          "name": "previousAdminRole",
          "type": "bytes32"
        },
        {
          "indexed": true,
          "internalType": "bytes32",
          "name": "newAdminRole",
          "type": "bytes32"
        }
      ],
      "name": "RoleAdminChanged",
      "type": "event"
    },
    {
      "anonymous": false,
      "inputs": [
        {
          "indexed": true,
          "internalType": "bytes32",
          "name": "role",
          "type": "bytes32"
        },
        {
          "indexed": true,
          "internalType": "address",
          "name": "account",
          "type": "address"
        },
        {
          "indexed": true,
          "internalType": "address",
          "name": "sender",
          "type": "address"
        }
      ],
      "name": "RoleGranted",
      "type": "event"
    },
    {
      "anonymous": false,
      "inputs": [
        {
          "indexed": true,
          "internalType": "bytes32",
          "name": "role",
          "type": "bytes32"
        },
        {
          "indexed": true,
          "internalType": "address",
          "name": "account",
          "type": "address"
        },
        {
          "indexed": true,
          "internalType": "address",
          "name": "sender",
          "type": "address"
        }
      ],
      "name": "RoleRevoked",
      "type": "event"
    },
    {
      "anonymous": false,
      "inputs": [
        {
          "indexed": false,
          "internalType": "address",
          "name": "account",
          "type": "address"
        }
      ],
      "name": "Unpaused",
      "type": "event"
    },
    {
      "inputs": [],
      "name": "DECIMAL_FACTOR",
      "outputs": [
        {
          "internalType": "uint256",
          "name": "",
          "type": "uint256"
        }
      ],
      "stateMutability": "view",
      "type": "function"
    },
    {
      "inputs": [],
      "name": "DEFAULT_ADMIN_ROLE",
      "outputs": [
        {
          "internalType": "bytes32",
          "name": "",
          "type": "bytes32"
        }
      ],
      "stateMutability": "view",
      "type": "function"
    },
    {
      "inputs": [],
      "name": "blastEquipmentNFT",
      "outputs": [
        {
          "internalType": "contract IBlastEquipmentNFT",
          "name": "",
          "type": "address"
        }
      ],
      "stateMutability": "view",
      "type": "function"
    },
    {
      "inputs": [],
      "name": "blastToken",
      "outputs": [
        {
          "internalType": "contract IERC20",
          "name": "",
          "type": "address"
        }
      ],
      "stateMutability": "view",
      "type": "function"
    },
    {
      "inputs": [
        {
          "internalType": "uint256",
          "name": "",
          "type": "uint256"
        }
      ],
      "name": "bltPrices",
      "outputs": [
        {
          "internalType": "uint256",
          "name": "",
          "type": "uint256"
        }
      ],
      "stateMutability": "view",
      "type": "function"
    },
    {
      "inputs": [
        {
          "internalType": "uint256",
          "name": "",
          "type": "uint256"
        }
      ],
      "name": "csPrices",
      "outputs": [
        {
          "internalType": "uint256",
          "name": "",
          "type": "uint256"
        }
      ],
      "stateMutability": "view",
      "type": "function"
    },
    {
      "inputs": [],
      "name": "csToken",
      "outputs": [
        {
          "internalType": "contract ERC20Burnable",
          "name": "",
          "type": "address"
        }
      ],
      "stateMutability": "view",
      "type": "function"
    },
    {
      "inputs": [],
      "name": "flipIsUsingMatic",
      "outputs": [],
      "stateMutability": "nonpayable",
      "type": "function"
    },
    {
      "inputs": [],
      "name": "getLatestPrice",
      "outputs": [
        {
          "internalType": "int256",
          "name": "",
          "type": "int256"
        }
      ],
      "stateMutability": "view",
      "type": "function"
    },
    {
      "inputs": [
        {
          "internalType": "bytes32",
          "name": "role",
          "type": "bytes32"
        }
      ],
      "name": "getRoleAdmin",
      "outputs": [
        {
          "internalType": "bytes32",
          "name": "",
          "type": "bytes32"
        }
      ],
      "stateMutability": "view",
      "type": "function"
    },
    {
      "inputs": [
        {
          "internalType": "uint256",
          "name": "currentReplicationCountP1",
          "type": "uint256"
        },
        {
          "internalType": "uint256",
          "name": "currentReplicationCountP2",
          "type": "uint256"
        }
      ],
      "name": "getTotalBLSTAmount",
      "outputs": [
        {
          "internalType": "uint256",
          "name": "",
          "type": "uint256"
        }
      ],
      "stateMutability": "view",
      "type": "function"
    },
    {
      "inputs": [
        {
          "internalType": "bytes32",
          "name": "role",
          "type": "bytes32"
        },
        {
          "internalType": "address",
          "name": "account",
          "type": "address"
        }
      ],
      "name": "grantRole",
      "outputs": [],
      "stateMutability": "nonpayable",
      "type": "function"
    },
    {
      "inputs": [
        {
          "internalType": "bytes32",
          "name": "role",
          "type": "bytes32"
        },
        {
          "internalType": "address",
          "name": "account",
          "type": "address"
        }
      ],
      "name": "hasRole",
      "outputs": [
        {
          "internalType": "bool",
          "name": "",
          "type": "bool"
        }
      ],
      "stateMutability": "view",
      "type": "function"
    },
    {
      "inputs": [
        {
          "internalType": "uint256",
          "name": "",
          "type": "uint256"
        }
      ],
      "name": "isReplicating",
      "outputs": [
        {
          "internalType": "bool",
          "name": "",
          "type": "bool"
        }
      ],
      "stateMutability": "view",
      "type": "function"
    },
    {
      "inputs": [],
      "name": "isUsingMatic",
      "outputs": [
        {
          "internalType": "bool",
          "name": "",
          "type": "bool"
        }
      ],
      "stateMutability": "view",
      "type": "function"
    },
    {
      "inputs": [
        {
          "internalType": "uint256",
          "name": "_childId",
          "type": "uint256"
        }
      ],
      "name": "morph",
      "outputs": [],
      "stateMutability": "nonpayable",
      "type": "function"
    },
    {
      "inputs": [
        {
          "internalType": "uint256",
          "name": "",
          "type": "uint256"
        }
      ],
      "name": "morphTimestamp",
      "outputs": [
        {
          "internalType": "uint256",
          "name": "",
          "type": "uint256"
        }
      ],
      "stateMutability": "view",
      "type": "function"
    },
    {
      "inputs": [
        {
          "internalType": "address",
          "name": "",
          "type": "address"
        }
      ],
      "name": "nonces",
      "outputs": [
        {
          "internalType": "uint256",
          "name": "",
          "type": "uint256"
        }
      ],
      "stateMutability": "view",
      "type": "function"
    },
    {
      "inputs": [
        {
          "internalType": "uint256",
          "name": "",
          "type": "uint256"
        }
      ],
      "name": "parents",
      "outputs": [
        {
          "internalType": "uint256",
          "name": "parent0",
          "type": "uint256"
        },
        {
          "internalType": "uint256",
          "name": "parent1",
          "type": "uint256"
        }
      ],
      "stateMutability": "view",
      "type": "function"
    },
    {
      "inputs": [
        {
          "internalType": "bool",
          "name": "stop",
          "type": "bool"
        }
      ],
      "name": "pause",
      "outputs": [],
      "stateMutability": "nonpayable",
      "type": "function"
    },
    {
      "inputs": [],
      "name": "paused",
      "outputs": [
        {
          "internalType": "bool",
          "name": "",
          "type": "bool"
        }
      ],
      "stateMutability": "view",
      "type": "function"
    },
    {
      "inputs": [
        {
          "internalType": "bytes32",
          "name": "role",
          "type": "bytes32"
        },
        {
          "internalType": "address",
          "name": "account",
          "type": "address"
        }
      ],
      "name": "renounceRole",
      "outputs": [],
      "stateMutability": "nonpayable",
      "type": "function"
    },
    {
      "inputs": [
        {
          "internalType": "string",
          "name": "_uri",
          "type": "string"
        },
        {
          "internalType": "string",
          "name": "_hashString",
          "type": "string"
        },
        {
          "internalType": "string",
          "name": "_realUri",
          "type": "string"
        },
        {
          "internalType": "uint256",
          "name": "_p1",
          "type": "uint256"
        },
        {
          "internalType": "uint256",
          "name": "_p2",
          "type": "uint256"
        },
        {
          "components": [
            {
              "internalType": "uint8",
              "name": "maxLevel",
              "type": "uint8"
            },
            {
              "internalType": "uint8",
              "name": "maxDurability",
              "type": "uint8"
            },
            {
              "internalType": "uint8",
              "name": "adjective",
              "type": "uint8"
            },
            {
              "internalType": "uint8",
              "name": "rarity",
              "type": "uint8"
            },
            {
              "internalType": "uint8",
              "name": "grade",
              "type": "uint8"
            }
          ],
          "internalType": "struct StaticAttributes",
          "name": "_staticAttribute",
          "type": "tuple"
        }
      ],
      "name": "replicate",
      "outputs": [],
      "stateMutability": "nonpayable",
      "type": "function"
    },
    {
      "inputs": [
        {
          "internalType": "string",
          "name": "_uri",
          "type": "string"
        },
        {
          "internalType": "string",
          "name": "_hashString",
          "type": "string"
        },
        {
          "internalType": "string",
          "name": "_realUri",
          "type": "string"
        },
        {
          "internalType": "uint256",
          "name": "_p1",
          "type": "uint256"
        },
        {
          "internalType": "uint256",
          "name": "_p2",
          "type": "uint256"
        },
        {
          "components": [
            {
              "internalType": "uint8",
              "name": "maxLevel",
              "type": "uint8"
            },
            {
              "internalType": "uint8",
              "name": "maxDurability",
              "type": "uint8"
            },
            {
              "internalType": "uint8",
              "name": "adjective",
              "type": "uint8"
            },
            {
              "internalType": "uint8",
              "name": "rarity",
              "type": "uint8"
            },
            {
              "internalType": "uint8",
              "name": "grade",
              "type": "uint8"
            }
          ],
          "internalType": "struct StaticAttributes",
          "name": "_staticAttribute",
          "type": "tuple"
        }
      ],
      "name": "replicateUsingMatic",
      "outputs": [],
      "stateMutability": "payable",
      "type": "function"
    },
    {
      "inputs": [],
      "name": "replicationTimer",
      "outputs": [
        {
          "internalType": "uint256",
          "name": "",
          "type": "uint256"
        }
      ],
      "stateMutability": "view",
      "type": "function"
    },
    {
      "inputs": [
        {
          "internalType": "bytes32",
          "name": "role",
          "type": "bytes32"
        },
        {
          "internalType": "address",
          "name": "account",
          "type": "address"
        }
      ],
      "name": "revokeRole",
      "outputs": [],
      "stateMutability": "nonpayable",
      "type": "function"
    },
    {
      "inputs": [
        {
          "internalType": "uint256[]",
          "name": "_bltPrices",
          "type": "uint256[]"
        }
      ],
      "name": "setBLTPrices",
      "outputs": [],
      "stateMutability": "nonpayable",
      "type": "function"
    },
    {
      "inputs": [
        {
          "internalType": "contract IBlastEquipmentNFT",
          "name": "_blastEquipmentNFT",
          "type": "address"
        }
      ],
      "name": "setBlastEquipmentAddress",
      "outputs": [],
      "stateMutability": "nonpayable",
      "type": "function"
    },
    {
      "inputs": [
        {
          "internalType": "contract IERC20",
          "name": "_blastToken",
          "type": "address"
        }
      ],
      "name": "setBlastTokenAddress",
      "outputs": [],
      "stateMutability": "nonpayable",
      "type": "function"
    },
    {
      "inputs": [
        {
          "internalType": "uint256[]",
          "name": "_csPrices",
          "type": "uint256[]"
        }
      ],
      "name": "setCSPrices",
      "outputs": [],
      "stateMutability": "nonpayable",
      "type": "function"
    },
    {
      "inputs": [
        {
          "internalType": "contract ERC20Burnable",
          "name": "_csToken",
          "type": "address"
        }
      ],
      "name": "setCSTokenAddress",
      "outputs": [],
      "stateMutability": "nonpayable",
      "type": "function"
    },
    {
      "inputs": [
        {
          "internalType": "address",
          "name": "_company",
          "type": "address"
        }
      ],
      "name": "setCompanyAddress",
      "outputs": [],
      "stateMutability": "nonpayable",
      "type": "function"
    },
    {
      "inputs": [
        {
          "internalType": "uint256",
          "name": "_newTimer",
          "type": "uint256"
        }
      ],
      "name": "setReplicationTimer",
      "outputs": [],
      "stateMutability": "nonpayable",
      "type": "function"
    },
    {
      "inputs": [
        {
          "internalType": "address",
          "name": "_treasury",
          "type": "address"
        }
      ],
      "name": "setTreasuryAddress",
      "outputs": [],
      "stateMutability": "nonpayable",
      "type": "function"
    },
    {
      "inputs": [
        {
          "internalType": "bytes4",
          "name": "interfaceId",
          "type": "bytes4"
        }
      ],
      "name": "supportsInterface",
      "outputs": [
        {
          "internalType": "bool",
          "name": "",
          "type": "bool"
        }
      ],
      "stateMutability": "view",
      "type": "function"
    }
  ],
  "transactionHash": "0x74bea6f741b4688af7d44f5df43dd7544329e76064bb410f2268f9c543d13249",
  "args": [
    "0xb1e2ba7D374e3A9B4EefbF8Df49516B277459b78",
    "0x565646FE9807f2d31a9Eb57Ec8A4750DB3Cc6043",
    "0x8a7EF0754Cfd4Ebc6a773DbC41f77F645c751690",
    "0x7Ac410F4E36873022b57821D7a8EB3D7513C045a",
    "0x7Ac410F4E36873022b57821D7a8EB3D7513C045a"
  ],
  "numDeployments": 1,
  "solcInputHash": "9679bf2be07d0d5ae98ab346fabce69b",
  "bytecode": "0x61012c6009556101606040526843c33c1937564800006080908152686194049f30f720000060a05268ad78ebc5ac6200000060c05269010f0cf064dd5920000060e0526901e7e4171bf4d3a00000610100526902f6f10780d22cc00000610120526904c3ba39c5e411100000610140526200007f90600d90600762000335565b506040805160e081018252676124fee993bc00008152677ce66c50e2840000602082015267a688906bd8b000009181019190915267d02ab486cedc000060608201526801158e460913d00000608082015268015af1d78b58c4000060a08201526801a055690d9db8000060c0820152620000fe90601490600762000383565b503480156200010c57600080fd5b5060405162002e2e38038062002e2e8339810160408190526200012f91620003ef565b600180556002805460ff1916905584848484846001600160a01b038516158015906200016357506001600160a01b03841615155b80156200017857506001600160a01b03831615155b80156200018d57506001600160a01b03821615155b8015620001a257506001600160a01b03811615155b604051806040016040528060018152602001603160f81b81525090620001e65760405162461bcd60e51b8152600401620001dd91906200046f565b60405180910390fd5b50620001f460003362000285565b600380546001600160a01b03199081166001600160a01b03978816179091556004805482169587169590951790945560058054851693861693909317909255600680548416918516919091179055600780549092169216919091179055505060028054610100600160a81b03191674d0d5e3db44de05e9f294bb0a3beeaf030de24ada0017905550620004c7915050565b62000291828262000295565b5050565b6000828152602081815260408083206001600160a01b038516845290915290205460ff1662000291576000828152602081815260408083206001600160a01b03851684529091529020805460ff19166001179055620002f13390565b6001600160a01b0316816001600160a01b0316837f2f8788117e7eff1d82e926ec794901d17c78024a50270940304540a733656f0d60405160405180910390a45050565b826007810192821562000371579160200282015b828111156200037157825182906001600160501b031690559160200191906001019062000349565b506200037f929150620003bf565b5090565b826007810192821562000371579160200282015b828111156200037157825182906001600160481b031690559160200191906001019062000397565b5b808211156200037f5760008155600101620003c0565b6001600160a01b0381168114620003ec57600080fd5b50565b600080600080600060a086880312156200040857600080fd5b85516200041581620003d6565b60208701519095506200042881620003d6565b60408701519094506200043b81620003d6565b60608701519093506200044e81620003d6565b60808701519092506200046181620003d6565b809150509295509295909350565b600060208083528351808285015260005b818110156200049e5785810183015185820160400152820162000480565b81811115620004b1576000604083870101525b50601f01601f1916929092016040019392505050565b61295780620004d76000396000f3fe6080604052600436106102045760003560e01c80635eaf5e8b1161011857806397414626116100a0578063d8c26f661161006f578063d8c26f661461061f578063df8de1631461063f578063e04605fd14610660578063eccb444814610680578063f741e0cf146106a057600080fd5b806397414626146105aa578063a217fddf146105ca578063c1763ee5146105df578063d547741f146105ff57600080fd5b806372c6239a116100e757806372c6239a146104df5780637ecebe00146104ff578063898572a61461052c5780638e15f4731461057557806391d148541461058a57600080fd5b80635eaf5e8b1461045f57806360f5b9141461047f5780636605bfda1461049f5780637067e19f146104bf57600080fd5b8063248a9ca31161019b57806336568abe1161016a57806336568abe146103d45780634c0f5276146103f45780634e704d48146104145780634f63a772146104275780635c975abb1461044757600080fd5b8063248a9ca3146103585780632b0afd84146103885780632f2ff15d1461039e57806333fdbbe5146103be57600080fd5b80630c64fe86116101d75780630c64fe86146102955780631b078ab3146102d05780631f9ea6b014610308578063228ea4f81461033857600080fd5b806301ffc9a714610209578063021946fd1461023e57806302329a291461025557806304ac5b2114610275575b600080fd5b34801561021557600080fd5b506102296102243660046121e8565b6106c0565b60405190151581526020015b60405180910390f35b34801561024a57600080fd5b506102536106f7565b005b34801561026157600080fd5b50610253610270366004612220565b610724565b34801561028157600080fd5b50610253610290366004612286565b610749565b3480156102a157600080fd5b506102c26102b036600461234f565b600b6020526000908152604090205481565b604051908152602001610235565b3480156102dc57600080fd5b506004546102f0906001600160a01b031681565b6040516001600160a01b039091168152602001610235565b34801561031457600080fd5b5061022961032336600461234f565b600c6020526000908152604090205460ff1681565b34801561034457600080fd5b50610253610353366004612368565b610a45565b34801561036457600080fd5b506102c261037336600461234f565b60009081526020819052604090206001015490565b34801561039457600080fd5b506102c260095481565b3480156103aa57600080fd5b506102536103b93660046123f2565b610ae5565b3480156103ca57600080fd5b506102c26103e881565b3480156103e057600080fd5b506102536103ef3660046123f2565b610b0f565b34801561040057600080fd5b5061025361040f366004612422565b610b89565b610253610422366004612286565b610bf7565b34801561043357600080fd5b50610253610442366004612422565b610c76565b34801561045357600080fd5b5060025460ff16610229565b34801561046b57600080fd5b506102c261047a36600461234f565b610ce4565b34801561048b57600080fd5b506102c261049a36600461234f565b610cfb565b3480156104ab57600080fd5b506102536104ba366004612422565b610d0b565b3480156104cb57600080fd5b506102536104da366004612368565b610d79565b3480156104eb57600080fd5b506003546102f0906001600160a01b031681565b34801561050b57600080fd5b506102c261051a366004612422565b60086020526000908152604090205481565b34801561053857600080fd5b5061056061054736600461234f565b600a602052600090815260409020805460019091015482565b60408051928352602083019190915201610235565b34801561058157600080fd5b506102c2610e13565b34801561059657600080fd5b506102296105a53660046123f2565b610ea7565b3480156105b657600080fd5b506102536105c536600461234f565b610ed0565b3480156105d657600080fd5b506102c2600081565b3480156105eb57600080fd5b506102536105fa366004612422565b611115565b34801561060b57600080fd5b5061025361061a3660046123f2565b611183565b34801561062b57600080fd5b506102c261063a36600461243f565b6111a8565b34801561064b57600080fd5b5060075461022990600160a01b900460ff1681565b34801561066c57600080fd5b506005546102f0906001600160a01b031681565b34801561068c57600080fd5b5061025361069b366004612422565b611266565b3480156106ac57600080fd5b506102536106bb36600461234f565b6112d4565b60006001600160e01b03198216637965db0b60e01b14806106f157506301ffc9a760e01b6001600160e01b03198316145b92915050565b60006107028161131c565b506007805460ff60a01b198116600160a01b9182900460ff1615909102179055565b600061072f8161131c565b81156107415761073d611329565b5050565b61073d611383565b60006107548161131c565b600260015414156107805760405162461bcd60e51b815260040161077790612461565b60405180910390fd5b600260015561078d6113bc565b6007546040805180820190915260018152603960f81b602082015290600160a01b900460ff16156107d15760405162461bcd60e51b815260040161077791906124c4565b506040805180820190915260018152603560f81b60208201528484141561080b5760405162461bcd60e51b815260040161077791906124c4565b506003546040516331a9108f60e11b8152600481018690526000916001600160a01b031690636352211e9060240160206040518083038186803b15801561085157600080fd5b505afa158015610865573d6000803e3d6000fd5b505050506040513d601f19601f8201168201806040525081019061088991906124f7565b6003546040516331a9108f60e11b8152600481018790529192506001600160a01b031690636352211e9060240160206040518083038186803b1580156108ce57600080fd5b505afa1580156108e2573d6000803e3d6000fd5b505050506040513d601f19601f8201168201806040525081019061090691906124f7565b6001600160a01b0316816001600160a01b031614604051806040016040528060018152602001603560f81b815250906109525760405162461bcd60e51b815260040161077791906124c4565b506000858152600c602052604090205460ff1615801561098157506000848152600c602052604090205460ff16155b60405180604001604052806002815260200161323160f01b815250906109ba5760405162461bcd60e51b815260040161077791906124c4565b506109c6858583611404565b60006109da828d8d8d8d8d8d8d8d8d6118df565b60408051888152602081018890529081018290526001600160a01b03841660608201524260808201529091507f3b7684b0f6cced36c46355d820bc209ce502a1a3724a6fde47f9588513debb7d9060a00160405180910390a150506001805550505050505050505050565b6000610a508161131c565b6040805180820190915260018152603560f81b602082015260078314610a895760405162461bcd60e51b815260040161077791906124c4565b5060005b60078160ff161015610adf5783838260ff16818110610aae57610aae612514565b90506020020135600d8260ff1660078110610acb57610acb612514565b015580610ad781612540565b915050610a8d565b50505050565b600082815260208190526040902060010154610b008161131c565b610b0a8383611a3a565b505050565b6001600160a01b0381163314610b7f5760405162461bcd60e51b815260206004820152602f60248201527f416363657373436f6e74726f6c3a2063616e206f6e6c792072656e6f756e636560448201526e103937b632b9903337b91039b2b63360891b6064820152608401610777565b61073d8282611abe565b6000610b948161131c565b6040805180820190915260018152603160f81b60208201526001600160a01b038316610bd35760405162461bcd60e51b815260040161077791906124c4565b5050600480546001600160a01b0319166001600160a01b0392909216919091179055565b6000610c028161131c565b60026001541415610c255760405162461bcd60e51b815260040161077790612461565b6002600155610c326113bc565b600754604080518082019091526002815261031360f41b602082015290600160a01b900460ff166107d15760405162461bcd60e51b815260040161077791906124c4565b6000610c818161131c565b6040805180820190915260018152603160f81b60208201526001600160a01b038316610cc05760405162461bcd60e51b815260040161077791906124c4565b5050600780546001600160a01b0319166001600160a01b0392909216919091179055565b60148160078110610cf457600080fd5b0154905081565b600d8160078110610cf457600080fd5b6000610d168161131c565b6040805180820190915260018152603160f81b60208201526001600160a01b038316610d555760405162461bcd60e51b815260040161077791906124c4565b5050600680546001600160a01b0319166001600160a01b0392909216919091179055565b6000610d848161131c565b6040805180820190915260018152603560f81b602082015260078314610dbd5760405162461bcd60e51b815260040161077791906124c4565b5060005b60078160ff161015610adf5783838260ff16818110610de257610de2612514565b9050602002013560148260ff1660078110610dff57610dff612514565b015580610e0b81612540565b915050610dc1565b600080600260019054906101000a90046001600160a01b03166001600160a01b031663feaf968c6040518163ffffffff1660e01b815260040160a06040518083038186803b158015610e6457600080fd5b505afa158015610e78573d6000803e3d6000fd5b505050506040513d601f19601f82011682018060405250810190610e9c919061257f565b509195945050505050565b6000918252602082815260408084206001600160a01b0393909316845291905290205460ff1690565b60026001541415610ef35760405162461bcd60e51b815260040161077790612461565b6002600155610f006113bc565b6003546040516331a9108f60e11b81526004810183905233916001600160a01b031690636352211e9060240160206040518083038186803b158015610f4457600080fd5b505afa158015610f58573d6000803e3d6000fd5b505050506040513d601f19601f82011682018060405250810190610f7c91906124f7565b6001600160a01b031614604051806040016040528060018152602001603360f81b81525090610fbe5760405162461bcd60e51b815260040161077791906124c4565b506000818152600b602052604090205415801590610fea57506000818152600b60205260409020544210155b60405180604001604052806002815260200161191960f11b815250906110235760405162461bcd60e51b815260040161077791906124c4565b506000818152600a60209081526040808320815180830183528154815260019091015481840152848452600c90925291829020805460ff19169055600354915163058169e360e51b81526004810184905290916001600160a01b03169063b02d3c6090602401600060405180830381600087803b1580156110a357600080fd5b505af11580156110b7573d6000803e3d6000fd5b50508251602080850151604080519384529183015281018590523360608201524260808201527facde6ee1929833056a039dea7409102fc241daa3858944b47a0f7e7e67d5237c925060a001905060405180910390a1505060018055565b60006111208161131c565b6040805180820190915260018152603160f81b60208201526001600160a01b03831661115f5760405162461bcd60e51b815260040161077791906124c4565b5050600580546001600160a01b0319166001600160a01b0392909216919091179055565b60008281526020819052604090206001015461119e8161131c565b610b0a8383611abe565b6000806111b3610e13565b600754909150600160a01b900460ff1680156111cf5750600081135b1561122a576305f5e10081601485600781106111ed576111ed612514565b01546014876007811061120257611202612514565b015461120e91906125cf565b61121891906125e7565b611222919061261c565b9150506106f1565b6014836007811061123d5761123d612514565b01546014856007811061125257611252612514565b015461125e91906125cf565b949350505050565b60006112718161131c565b6040805180820190915260018152603160f81b60208201526001600160a01b0383166112b05760405162461bcd60e51b815260040161077791906124c4565b5050600380546001600160a01b0319166001600160a01b0392909216919091179055565b60006112df8161131c565b6040805180820190915260018152601960f91b6020820152826113155760405162461bcd60e51b815260040161077791906124c4565b5050600955565b6113268133611b23565b50565b6113316113bc565b6002805460ff191660011790557f62e78cea01bee320cd4e420270b5ea74000d11b0c9f74754ebdbfc544b05a2586113663390565b6040516001600160a01b03909116815260200160405180910390a1565b61138b611b87565b6002805460ff191690557f5db9ee0a495bf2e6ff9c91a7834c1ba4fdd244a5e8aa4e537bd38aeae4b073aa33611366565b60025460ff16156114025760405162461bcd60e51b815260206004820152601060248201526f14185d5cd8589b194e881c185d5cd95960821b6044820152606401610777565b565b600354604051634378a6e360e01b8152600481018590526000916001600160a01b031690634378a6e39060240160c06040518083038186803b15801561144957600080fd5b505afa15801561145d573d6000803e3d6000fd5b505050506040513d601f19601f820116820180604052508101906114819190612630565b600354604051634378a6e360e01b8152600481018b9052919750600096506001600160a01b03169450634378a6e3935060240191506114bd9050565b60c06040518083038186803b1580156114d557600080fd5b505afa1580156114e9573d6000803e3d6000fd5b505050506040513d601f19601f8201168201806040525081019061150d9190612630565b6005549096506001600160a01b031694506379cc67909350879250600d91508590506007811061153f5761153f612514565b0154600d866007811061155457611554612514565b015461156091906125cf565b6040516001600160e01b031960e085901b1681526001600160a01b0390921660048301526024820152604401600060405180830381600087803b1580156115a657600080fd5b505af11580156115ba573d6000803e3d6000fd5b5050505060006115ca83836111a8565b600754909150600160a01b900460ff161561175d576040805180820190915260018152601b60f91b60208201523482146116175760405162461bcd60e51b815260040161077791906124c4565b506006546000906001600160a01b031661163260048461261c565b604051600081818185875af1925050503d806000811461166e576040519150601f19603f3d011682016040523d82523d6000602084013e611673565b606091505b5050905080604051806040016040528060018152602001603760f81b815250906116b05760405162461bcd60e51b815260040161077791906124c4565b506007546000906001600160a01b031660046116cd8560036125e7565b6116d7919061261c565b604051600081818185875af1925050503d8060008114611713576040519150601f19603f3d011682016040523d82523d6000602084013e611718565b606091505b5050905080604051806040016040528060018152602001600760fb1b815250906117555760405162461bcd60e51b815260040161077791906124c4565b5050506117ef565b6040805180820190915260018152601b60f91b602082015234156117945760405162461bcd60e51b815260040161077791906124c4565b506006546117c69085906001600160a01b03166117b260048561261c565b6004546001600160a01b0316929190611bd0565b6007546117ef9085906001600160a01b031660046117e58560036125e7565b6117b2919061261c565b6003546001600160a01b031663c48de06d8761180c8660016125cf565b6040516001600160e01b031960e085901b16815260048101929092526024820152604401600060405180830381600087803b15801561184a57600080fd5b505af115801561185e573d6000803e3d6000fd5b50506003546001600160a01b0316915063c48de06d9050866118818560016125cf565b6040516001600160e01b031960e085901b16815260048101929092526024820152604401600060405180830381600087803b1580156118bf57600080fd5b505af11580156118d3573d6000803e3d6000fd5b50505050505050505050565b600080600360009054906101000a90046001600160a01b03166001600160a01b0316638b1514ed8d8d8d6119488e8e8080601f016020809104026020016040519081016040528093929190818152602001838380828437600092019190915250611c2a92505050565b6119519061267a565b8c8c8a6040518863ffffffff1660e01b815260040161197697969594939291906126db565b602060405180830381600087803b15801561199057600080fd5b505af11580156119a4573d6000803e3d6000fd5b505050506040513d601f19601f820116820180604052508101906119c8919061278d565b6000818152600c60209081526040808320805460ff19166001908117909155815180830183528a81528084018a8152868652600a90945291909320905181559051910155600954909150611a1c90426125cf565b6000828152600b60205260409020559b9a5050505050505050505050565b611a448282610ea7565b61073d576000828152602081815260408083206001600160a01b03851684529091529020805460ff19166001179055611a7a3390565b6001600160a01b0316816001600160a01b0316837f2f8788117e7eff1d82e926ec794901d17c78024a50270940304540a733656f0d60405160405180910390a45050565b611ac88282610ea7565b1561073d576000828152602081815260408083206001600160a01b0385168085529252808320805460ff1916905551339285917ff6391f5c32d9c69d2a47ea670b442974b53935d1edc7fd64eb21e047a839171b9190a45050565b611b2d8282610ea7565b61073d57611b45816001600160a01b03166014611d53565b611b50836020611d53565b604051602001611b619291906127a6565b60408051601f198184030181529082905262461bcd60e51b8252610777916004016124c4565b60025460ff166114025760405162461bcd60e51b815260206004820152601460248201527314185d5cd8589b194e881b9bdd081c185d5cd95960621b6044820152606401610777565b604080516001600160a01b0385811660248301528416604482015260648082018490528251808303909101815260849091019091526020810180516001600160e01b03166323b872dd60e01b179052610adf908590611ef6565b80516060908290611c3d9060029061281b565b15611c4757600080fd5b600060028251611c57919061261c565b67ffffffffffffffff811115611c6f57611c6f61282f565b6040519080825280601f01601f191660200182016040528015611c99576020820181803683370190505b50905060005b60028351611cad919061261c565b811015611d4b57611ceb83611cc38360026125e7565b611cce9060016125cf565b81518110611cde57611cde612514565b016020015160f81c611fc8565b611cfa84611cce8460026125e7565b611d05906010612845565b611d0f919061286e565b60f81b828281518110611d2457611d24612514565b60200101906001600160f81b031916908160001a905350611d4481612893565b9050611c9f565b509392505050565b60606000611d628360026125e7565b611d6d9060026125cf565b67ffffffffffffffff811115611d8557611d8561282f565b6040519080825280601f01601f191660200182016040528015611daf576020820181803683370190505b509050600360fc1b81600081518110611dca57611dca612514565b60200101906001600160f81b031916908160001a905350600f60fb1b81600181518110611df957611df9612514565b60200101906001600160f81b031916908160001a9053506000611e1d8460026125e7565b611e289060016125cf565b90505b6001811115611ea0576f181899199a1a9b1b9c1cb0b131b232b360811b85600f1660108110611e5c57611e5c612514565b1a60f81b828281518110611e7257611e72612514565b60200101906001600160f81b031916908160001a90535060049490941c93611e99816128ae565b9050611e2b565b508315611eef5760405162461bcd60e51b815260206004820181905260248201527f537472696e67733a20686578206c656e67746820696e73756666696369656e746044820152606401610777565b9392505050565b6000611f4b826040518060400160405280602081526020017f5361666545524332303a206c6f772d6c6576656c2063616c6c206661696c6564815250856001600160a01b03166120d49092919063ffffffff16565b805190915015610b0a5780806020019051810190611f6991906128c5565b610b0a5760405162461bcd60e51b815260206004820152602a60248201527f5361666545524332303a204552433230206f7065726174696f6e20646964206e6044820152691bdd081cdd58d8d9595960b21b6064820152608401610777565b6000600360fc1b60f883901b6001600160f81b03191610801590611ffe5750603960f81b60f883901b6001600160f81b03191611155b1561200e576106f16030836128e2565b606160f81b60f883901b6001600160f81b031916108015906120425750603360f91b60f883901b6001600160f81b03191611155b1561205e57606161205483600a61286e565b6106f191906128e2565b604160f81b60f883901b6001600160f81b031916108015906120925750602360f91b60f883901b6001600160f81b03191611155b156120a457604161205483600a61286e565b6040805180820182526002815261323360f01b6020820152905162461bcd60e51b815261077791906004016124c4565b606061125e8484600085856001600160a01b0385163b6121365760405162461bcd60e51b815260206004820152601d60248201527f416464726573733a2063616c6c20746f206e6f6e2d636f6e74726163740000006044820152606401610777565b600080866001600160a01b031685876040516121529190612905565b60006040518083038185875af1925050503d806000811461218f576040519150601f19603f3d011682016040523d82523d6000602084013e612194565b606091505b50915091506121a48282866121af565b979650505050505050565b606083156121be575081611eef565b8251156121ce5782518084602001fd5b8160405162461bcd60e51b815260040161077791906124c4565b6000602082840312156121fa57600080fd5b81356001600160e01b031981168114611eef57600080fd5b801515811461132657600080fd5b60006020828403121561223257600080fd5b8135611eef81612212565b60008083601f84011261224f57600080fd5b50813567ffffffffffffffff81111561226757600080fd5b60208301915083602082850101111561227f57600080fd5b9250929050565b6000806000806000806000806000898b036101408112156122a657600080fd5b8a3567ffffffffffffffff808211156122be57600080fd5b6122ca8e838f0161223d565b909c509a5060208d01359150808211156122e357600080fd5b6122ef8e838f0161223d565b909a50985060408d013591508082111561230857600080fd5b506123158d828e0161223d565b90975095505060608b0135935060808b0135925060a0609f198201121561233b57600080fd5b5060a08a0190509295985092959850929598565b60006020828403121561236157600080fd5b5035919050565b6000806020838503121561237b57600080fd5b823567ffffffffffffffff8082111561239357600080fd5b818501915085601f8301126123a757600080fd5b8135818111156123b657600080fd5b8660208260051b85010111156123cb57600080fd5b60209290920196919550909350505050565b6001600160a01b038116811461132657600080fd5b6000806040838503121561240557600080fd5b823591506020830135612417816123dd565b809150509250929050565b60006020828403121561243457600080fd5b8135611eef816123dd565b6000806040838503121561245257600080fd5b50508035926020909101359150565b6020808252601f908201527f5265656e7472616e637947756172643a207265656e7472616e742063616c6c00604082015260600190565b60005b838110156124b357818101518382015260200161249b565b83811115610adf5750506000910152565b60208152600082518060208401526124e3816040850160208701612498565b601f01601f19169190910160400192915050565b60006020828403121561250957600080fd5b8151611eef816123dd565b634e487b7160e01b600052603260045260246000fd5b634e487b7160e01b600052601160045260246000fd5b600060ff821660ff8114156125575761255761252a565b60010192915050565b805169ffffffffffffffffffff8116811461257a57600080fd5b919050565b600080600080600060a0868803121561259757600080fd5b6125a086612560565b94506020860151935060408601519250606086015191506125c360808701612560565b90509295509295909350565b600082198211156125e2576125e261252a565b500190565b60008160001904831182151516156126015761260161252a565b500290565b634e487b7160e01b600052601260045260246000fd5b60008261262b5761262b612606565b500490565b60008060008060008060c0878903121561264957600080fd5b865195506020870151945060408701519350606087015192506080870151915060a087015190509295509295509295565b8051602080830151919081101561269b576000198160200360031b1b821691505b50919050565b81835281816020850137506000828201602090810191909152601f909101601f19169091010190565b803560ff8116811461257a57600080fd5b6001600160a01b038816815261012060208201819052600090612701838201898b6126a1565b9050866040840152828103606084015261271c8186886126a1565b91505060ff61272a846126ca565b16608083015260ff61273e602085016126ca565b1660a083015260ff612752604085016126ca565b1660c083015260ff612766606085016126ca565b1660e083015260ff61277a608085016126ca565b1661010083015298975050505050505050565b60006020828403121561279f57600080fd5b5051919050565b7f416363657373436f6e74726f6c3a206163636f756e74200000000000000000008152600083516127de816017850160208801612498565b7001034b99036b4b9b9b4b733903937b6329607d1b601791840191820152835161280f816028840160208801612498565b01602801949350505050565b60008261282a5761282a612606565b500690565b634e487b7160e01b600052604160045260246000fd5b600060ff821660ff84168160ff04811182151516156128665761286661252a565b029392505050565b600060ff821660ff84168060ff0382111561288b5761288b61252a565b019392505050565b60006000198214156128a7576128a761252a565b5060010190565b6000816128bd576128bd61252a565b506000190190565b6000602082840312156128d757600080fd5b8151611eef81612212565b600060ff821660ff8416808210156128fc576128fc61252a565b90039392505050565b60008251612917818460208701612498565b919091019291505056fea26469706673582212200e2e59381ccda8ce8d28e9b47ec68ad173e11dd1b0229de6961e83d894fda7e664736f6c63430008090033",
  "devdoc": {
    "kind": "dev",
    "methods": {
      "constructor": {
        "details": "Grants `DEFAULT_ADMIN_ROLE`, `MINTER_ROLE` and `PAUSER_ROLE` to the",
        "params": {
          "_blastEquipmentNFT": ": address of EquipmentNFT contract",
          "_blastToken": ": address of Primary Token",
          "_csToken": ": address of Secondary Token"
        }
      },
      "getRoleAdmin(bytes32)": {
        "details": "Returns the admin role that controls `role`. See {grantRole} and {revokeRole}. To change a role's admin, use {_setRoleAdmin}."
      },
      "grantRole(bytes32,address)": {
        "details": "Grants `role` to `account`. If `account` had not been already granted `role`, emits a {RoleGranted} event. Requirements: - the caller must have ``role``'s admin role. May emit a {RoleGranted} event."
      },
      "hasRole(bytes32,address)": {
        "details": "Returns `true` if `account` has been granted `role`."
      },
      "paused()": {
        "details": "Returns true if the contract is paused, and false otherwise."
      },
      "renounceRole(bytes32,address)": {
        "details": "Revokes `role` from the calling account. Roles are often managed via {grantRole} and {revokeRole}: this function's purpose is to provide a mechanism for accounts to lose their privileges if they are compromised (such as when a trusted device is misplaced). If the calling account had been revoked `role`, emits a {RoleRevoked} event. Requirements: - the caller must be `account`. May emit a {RoleRevoked} event."
      },
      "revokeRole(bytes32,address)": {
        "details": "Revokes `role` from `account`. If `account` had been granted `role`, emits a {RoleRevoked} event. Requirements: - the caller must have ``role``'s admin role. May emit a {RoleRevoked} event."
      },
      "supportsInterface(bytes4)": {
        "details": "See {IERC165-supportsInterface}."
      }
    },
    "version": 1
  },
  "userdoc": {
    "kind": "user",
    "methods": {
      "getLatestPrice()": {
        "notice": "Returns the latest price"
      }
    },
    "version": 1
  },
  "storageLayout": {
    "storage": [
      {
        "astId": 70,
        "contract": "contracts/Utilities/Replicator.sol:Replicator",
        "label": "_roles",
        "offset": 0,
        "slot": "0",
        "type": "t_mapping(t_bytes32,t_struct(RoleData)65_storage)"
      },
      {
        "astId": 670,
        "contract": "contracts/Utilities/Replicator.sol:Replicator",
        "label": "_status",
        "offset": 0,
        "slot": "1",
        "type": "t_uint256"
      },
      {
        "astId": 569,
        "contract": "contracts/Utilities/Replicator.sol:Replicator",
        "label": "_paused",
        "offset": 0,
        "slot": "2",
        "type": "t_bool"
      },
      {
        "astId": 12655,
        "contract": "contracts/Utilities/Replicator.sol:Replicator",
        "label": "priceFeed",
        "offset": 1,
        "slot": "2",
        "type": "t_contract(AggregatorV3Interface)45"
      },
      {
        "astId": 12661,
        "contract": "contracts/Utilities/Replicator.sol:Replicator",
        "label": "blastEquipmentNFT",
        "offset": 0,
        "slot": "3",
        "type": "t_contract(IBlastEquipmentNFT)13077"
      },
      {
        "astId": 12664,
        "contract": "contracts/Utilities/Replicator.sol:Replicator",
        "label": "blastToken",
        "offset": 0,
        "slot": "4",
        "type": "t_contract(IERC20)1363"
      },
      {
        "astId": 12667,
        "contract": "contracts/Utilities/Replicator.sol:Replicator",
        "label": "csToken",
        "offset": 0,
        "slot": "5",
        "type": "t_contract(ERC20Burnable)1407"
      },
      {
        "astId": 12669,
        "contract": "contracts/Utilities/Replicator.sol:Replicator",
        "label": "treasuryAddress",
        "offset": 0,
        "slot": "6",
        "type": "t_address"
      },
      {
        "astId": 12671,
        "contract": "contracts/Utilities/Replicator.sol:Replicator",
        "label": "companyAddress",
        "offset": 0,
        "slot": "7",
        "type": "t_address"
      },
      {
        "astId": 12673,
        "contract": "contracts/Utilities/Replicator.sol:Replicator",
        "label": "isUsingMatic",
        "offset": 20,
        "slot": "7",
        "type": "t_bool"
      },
      {
        "astId": 11109,
        "contract": "contracts/Utilities/Replicator.sol:Replicator",
        "label": "nonces",
        "offset": 0,
        "slot": "8",
        "type": "t_mapping(t_address,t_uint256)"
      },
      {
        "astId": 11112,
        "contract": "contracts/Utilities/Replicator.sol:Replicator",
        "label": "replicationTimer",
        "offset": 0,
        "slot": "9",
        "type": "t_uint256"
      },
      {
        "astId": 11141,
        "contract": "contracts/Utilities/Replicator.sol:Replicator",
        "label": "parents",
        "offset": 0,
        "slot": "10",
        "type": "t_mapping(t_uint256,t_struct(Parent)11105_storage)"
      },
      {
        "astId": 11145,
        "contract": "contracts/Utilities/Replicator.sol:Replicator",
        "label": "morphTimestamp",
        "offset": 0,
        "slot": "11",
        "type": "t_mapping(t_uint256,t_uint256)"
      },
      {
        "astId": 11149,
        "contract": "contracts/Utilities/Replicator.sol:Replicator",
        "label": "isReplicating",
        "offset": 0,
        "slot": "12",
        "type": "t_mapping(t_uint256,t_bool)"
      },
      {
        "astId": 11161,
        "contract": "contracts/Utilities/Replicator.sol:Replicator",
        "label": "csPrices",
        "offset": 0,
        "slot": "13",
        "type": "t_array(t_uint256)7_storage"
      },
      {
        "astId": 11173,
        "contract": "contracts/Utilities/Replicator.sol:Replicator",
        "label": "bltPrices",
        "offset": 0,
        "slot": "20",
        "type": "t_array(t_uint256)7_storage"
      }
    ],
    "types": {
      "t_address": {
        "encoding": "inplace",
        "label": "address",
        "numberOfBytes": "20"
      },
      "t_array(t_uint256)7_storage": {
        "base": "t_uint256",
        "encoding": "inplace",
        "label": "uint256[7]",
        "numberOfBytes": "224"
      },
      "t_bool": {
        "encoding": "inplace",
        "label": "bool",
        "numberOfBytes": "1"
      },
      "t_bytes32": {
        "encoding": "inplace",
        "label": "bytes32",
        "numberOfBytes": "32"
      },
      "t_contract(AggregatorV3Interface)45": {
        "encoding": "inplace",
        "label": "contract AggregatorV3Interface",
        "numberOfBytes": "20"
      },
      "t_contract(ERC20Burnable)1407": {
        "encoding": "inplace",
        "label": "contract ERC20Burnable",
        "numberOfBytes": "20"
      },
      "t_contract(IBlastEquipmentNFT)13077": {
        "encoding": "inplace",
        "label": "contract IBlastEquipmentNFT",
        "numberOfBytes": "20"
      },
      "t_contract(IERC20)1363": {
        "encoding": "inplace",
        "label": "contract IERC20",
        "numberOfBytes": "20"
      },
      "t_mapping(t_address,t_bool)": {
        "encoding": "mapping",
        "key": "t_address",
        "label": "mapping(address => bool)",
        "numberOfBytes": "32",
        "value": "t_bool"
      },
      "t_mapping(t_address,t_uint256)": {
        "encoding": "mapping",
        "key": "t_address",
        "label": "mapping(address => uint256)",
        "numberOfBytes": "32",
        "value": "t_uint256"
      },
      "t_mapping(t_bytes32,t_struct(RoleData)65_storage)": {
        "encoding": "mapping",
        "key": "t_bytes32",
        "label": "mapping(bytes32 => struct AccessControl.RoleData)",
        "numberOfBytes": "32",
        "value": "t_struct(RoleData)65_storage"
      },
      "t_mapping(t_uint256,t_bool)": {
        "encoding": "mapping",
        "key": "t_uint256",
        "label": "mapping(uint256 => bool)",
        "numberOfBytes": "32",
        "value": "t_bool"
      },
      "t_mapping(t_uint256,t_struct(Parent)11105_storage)": {
        "encoding": "mapping",
        "key": "t_uint256",
        "label": "mapping(uint256 => struct Replicator.Parent)",
        "numberOfBytes": "32",
        "value": "t_struct(Parent)11105_storage"
      },
      "t_mapping(t_uint256,t_uint256)": {
        "encoding": "mapping",
        "key": "t_uint256",
        "label": "mapping(uint256 => uint256)",
        "numberOfBytes": "32",
        "value": "t_uint256"
      },
      "t_struct(Parent)11105_storage": {
        "encoding": "inplace",
        "label": "struct Replicator.Parent",
        "members": [
          {
            "astId": 11102,
            "contract": "contracts/Utilities/Replicator.sol:Replicator",
            "label": "parent0",
            "offset": 0,
            "slot": "0",
            "type": "t_uint256"
          },
          {
            "astId": 11104,
            "contract": "contracts/Utilities/Replicator.sol:Replicator",
            "label": "parent1",
            "offset": 0,
            "slot": "1",
            "type": "t_uint256"
          }
        ],
        "numberOfBytes": "64"
      },
      "t_struct(RoleData)65_storage": {
        "encoding": "inplace",
        "label": "struct AccessControl.RoleData",
        "members": [
          {
            "astId": 62,
            "contract": "contracts/Utilities/Replicator.sol:Replicator",
            "label": "members",
            "offset": 0,
            "slot": "0",
            "type": "t_mapping(t_address,t_bool)"
          },
          {
            "astId": 64,
            "contract": "contracts/Utilities/Replicator.sol:Replicator",
            "label": "adminRole",
            "offset": 0,
            "slot": "1",
            "type": "t_bytes32"
          }
        ],
        "numberOfBytes": "64"
      },
      "t_uint256": {
        "encoding": "inplace",
        "label": "uint256",
        "numberOfBytes": "32"
      }
    }
  }
}