{
  "address": "0xc48140aD04F6611363739e8C15235Dc9f67853de",
  "abi": [
    {
      "inputs": [
        {
          "internalType": "contract IBlastEquipmentNFT",
          "name": "_blastEquipmentNFT",
          "type": "address"
        },
        {
          "internalType": "contract ICraftSpiceToken",
          "name": "_csToken",
          "type": "address"
        }
      ],
      "stateMutability": "nonpayable",
      "type": "constructor"
    },
    {
      "inputs": [],
      "name": "NoZeroAddress",
      "type": "error"
    },
    {
      "anonymous": false,
      "inputs": [
        {
          "indexed": false,
          "internalType": "address",
          "name": "account",
          "type": "address"
        }
      ],
      "name": "Paused",
      "type": "event"
    },
    {
      "anonymous": false,
      "inputs": [
        {
          "indexed": true,
          "internalType": "bytes32",
          "name": "role",
          "type": "bytes32"
        },
        {
          "indexed": true,
          "internalType": "bytes32",
          "name": "previousAdminRole",
          "type": "bytes32"
        },
        {
          "indexed": true,
          "internalType": "bytes32",
          "name": "newAdminRole",
          "type": "bytes32"
        }
      ],
      "name": "RoleAdminChanged",
      "type": "event"
    },
    {
      "anonymous": false,
      "inputs": [
        {
          "indexed": true,
          "internalType": "bytes32",
          "name": "role",
          "type": "bytes32"
        },
        {
          "indexed": true,
          "internalType": "address",
          "name": "account",
          "type": "address"
        },
        {
          "indexed": true,
          "internalType": "address",
          "name": "sender",
          "type": "address"
        }
      ],
      "name": "RoleGranted",
      "type": "event"
    },
    {
      "anonymous": false,
      "inputs": [
        {
          "indexed": true,
          "internalType": "bytes32",
          "name": "role",
          "type": "bytes32"
        },
        {
          "indexed": true,
          "internalType": "address",
          "name": "account",
          "type": "address"
        },
        {
          "indexed": true,
          "internalType": "address",
          "name": "sender",
          "type": "address"
        }
      ],
      "name": "RoleRevoked",
      "type": "event"
    },
    {
      "anonymous": false,
      "inputs": [
        {
          "indexed": false,
          "internalType": "uint256",
          "name": "tokenId",
          "type": "uint256"
        },
        {
          "indexed": false,
          "internalType": "address",
          "name": "user",
          "type": "address"
        },
        {
          "indexed": false,
          "internalType": "uint256",
          "name": "csAmount",
          "type": "uint256"
        }
      ],
      "name": "Scrapped",
      "type": "event"
    },
    {
      "anonymous": false,
      "inputs": [
        {
          "indexed": false,
          "internalType": "address",
          "name": "account",
          "type": "address"
        }
      ],
      "name": "Unpaused",
      "type": "event"
    },
    {
      "inputs": [],
      "name": "DECIMAL_FACTOR",
      "outputs": [
        {
          "internalType": "uint256",
          "name": "",
          "type": "uint256"
        }
      ],
      "stateMutability": "view",
      "type": "function"
    },
    {
      "inputs": [],
      "name": "DEFAULT_ADMIN_ROLE",
      "outputs": [
        {
          "internalType": "bytes32",
          "name": "",
          "type": "bytes32"
        }
      ],
      "stateMutability": "view",
      "type": "function"
    },
    {
      "inputs": [],
      "name": "blastEquipmentNFT",
      "outputs": [
        {
          "internalType": "contract IBlastEquipmentNFT",
          "name": "",
          "type": "address"
        }
      ],
      "stateMutability": "view",
      "type": "function"
    },
    {
      "inputs": [
        {
          "internalType": "uint256",
          "name": "",
          "type": "uint256"
        }
      ],
      "name": "csAdditiveValuePerAdjective",
      "outputs": [
        {
          "internalType": "uint256",
          "name": "",
          "type": "uint256"
        }
      ],
      "stateMutability": "view",
      "type": "function"
    },
    {
      "inputs": [],
      "name": "csPercentagePerLevel",
      "outputs": [
        {
          "internalType": "uint256",
          "name": "",
          "type": "uint256"
        }
      ],
      "stateMutability": "view",
      "type": "function"
    },
    {
      "inputs": [],
      "name": "csToken",
      "outputs": [
        {
          "internalType": "contract ICraftSpiceToken",
          "name": "",
          "type": "address"
        }
      ],
      "stateMutability": "view",
      "type": "function"
    },
    {
      "inputs": [
        {
          "internalType": "uint256",
          "name": "",
          "type": "uint256"
        }
      ],
      "name": "csValuePerRarity",
      "outputs": [
        {
          "internalType": "uint256",
          "name": "",
          "type": "uint256"
        }
      ],
      "stateMutability": "view",
      "type": "function"
    },
    {
      "inputs": [
        {
          "internalType": "uint256",
          "name": "_tokenId",
          "type": "uint256"
        }
      ],
      "name": "getCSPrice",
      "outputs": [
        {
          "internalType": "uint256",
          "name": "",
          "type": "uint256"
        }
      ],
      "stateMutability": "view",
      "type": "function"
    },
    {
      "inputs": [
        {
          "internalType": "bytes32",
          "name": "role",
          "type": "bytes32"
        }
      ],
      "name": "getRoleAdmin",
      "outputs": [
        {
          "internalType": "bytes32",
          "name": "",
          "type": "bytes32"
        }
      ],
      "stateMutability": "view",
      "type": "function"
    },
    {
      "inputs": [
        {
          "internalType": "uint256",
          "name": "",
          "type": "uint256"
        }
      ],
      "name": "gradeMultiplierPerGrade",
      "outputs": [
        {
          "internalType": "uint256",
          "name": "",
          "type": "uint256"
        }
      ],
      "stateMutability": "view",
      "type": "function"
    },
    {
      "inputs": [
        {
          "internalType": "bytes32",
          "name": "role",
          "type": "bytes32"
        },
        {
          "internalType": "address",
          "name": "account",
          "type": "address"
        }
      ],
      "name": "grantRole",
      "outputs": [],
      "stateMutability": "nonpayable",
      "type": "function"
    },
    {
      "inputs": [],
      "name": "growthMultiplier",
      "outputs": [
        {
          "internalType": "uint256",
          "name": "",
          "type": "uint256"
        }
      ],
      "stateMutability": "view",
      "type": "function"
    },
    {
      "inputs": [
        {
          "internalType": "bytes32",
          "name": "role",
          "type": "bytes32"
        },
        {
          "internalType": "address",
          "name": "account",
          "type": "address"
        }
      ],
      "name": "hasRole",
      "outputs": [
        {
          "internalType": "bool",
          "name": "",
          "type": "bool"
        }
      ],
      "stateMutability": "view",
      "type": "function"
    },
    {
      "inputs": [
        {
          "internalType": "bool",
          "name": "stop",
          "type": "bool"
        }
      ],
      "name": "pause",
      "outputs": [],
      "stateMutability": "nonpayable",
      "type": "function"
    },
    {
      "inputs": [],
      "name": "paused",
      "outputs": [
        {
          "internalType": "bool",
          "name": "",
          "type": "bool"
        }
      ],
      "stateMutability": "view",
      "type": "function"
    },
    {
      "inputs": [
        {
          "internalType": "bytes32",
          "name": "role",
          "type": "bytes32"
        },
        {
          "internalType": "address",
          "name": "account",
          "type": "address"
        }
      ],
      "name": "renounceRole",
      "outputs": [],
      "stateMutability": "nonpayable",
      "type": "function"
    },
    {
      "inputs": [
        {
          "internalType": "bytes32",
          "name": "role",
          "type": "bytes32"
        },
        {
          "internalType": "address",
          "name": "account",
          "type": "address"
        }
      ],
      "name": "revokeRole",
      "outputs": [],
      "stateMutability": "nonpayable",
      "type": "function"
    },
    {
      "inputs": [
        {
          "internalType": "uint256",
          "name": "_tokenId",
          "type": "uint256"
        }
      ],
      "name": "scrap",
      "outputs": [],
      "stateMutability": "nonpayable",
      "type": "function"
    },
    {
      "inputs": [
        {
          "internalType": "contract IBlastEquipmentNFT",
          "name": "_blastEquipmentNFT",
          "type": "address"
        }
      ],
      "name": "setBlastEquipmentAddress",
      "outputs": [],
      "stateMutability": "nonpayable",
      "type": "function"
    },
    {
      "inputs": [
        {
          "internalType": "contract ICraftSpiceToken",
          "name": "_csToken",
          "type": "address"
        }
      ],
      "name": "setCSTokenAddress",
      "outputs": [],
      "stateMutability": "nonpayable",
      "type": "function"
    },
    {
      "inputs": [
        {
          "internalType": "bytes4",
          "name": "interfaceId",
          "type": "bytes4"
        }
      ],
      "name": "supportsInterface",
      "outputs": [
        {
          "internalType": "bool",
          "name": "",
          "type": "bool"
        }
      ],
      "stateMutability": "view",
      "type": "function"
    }
  ],
  "transactionHash": "0x74e77b7e2de9ca8c87054e8649bbb8e6c87e8083eefbb76aff5e9f5c4632cb19",
  "args": [
    "0x6B41b41EFC322c7c2Adb9Ac692b7F75f32F562F8",
    "0x9458699Cfe694c642336E18518BcAe6C9ea688bD"
  ],
  "numDeployments": 1,
  "solcInputHash": "b133a25b20809dca4a913aac447e8d39",
  "bytecode": "0x6104b06004556101c060405260646080908152607860a052609060c05260ad60e05260d06101005260fa6101205261012c61014052610168610160526101b0610180526102066101a0526200005990600590600a6200027c565b5060408051610140810182526014815260286020820152604691810191909152606460608201819052608082015260c860a0820181905260c082015261015e60e08201526101f46101008201819052610120820152620000be90600f90600a6200027c565b506040805160c08101825260648152606e6020820152607891810191909152608c606082015260a5608082015260c860a082015262000102906019906006620002c5565b506019601f553480156200011557600080fd5b50604051620015043803806200150483398101604081905262000138916200032b565b600180556002805460ff191690556001600160a01b03821615806200016457506001600160a01b038116155b15620001835760405163ddbadd5f60e01b815260040160405180910390fd5b62000190600033620001cc565b60028054610100600160a81b0319166101006001600160a01b0394851602179055600380546001600160a01b031916919092161790556200036a565b620001d88282620001dc565b5050565b6000828152602081815260408083206001600160a01b038516845290915290205460ff16620001d8576000828152602081815260408083206001600160a01b03851684529091529020805460ff19166001179055620002383390565b6001600160a01b0316816001600160a01b0316837f2f8788117e7eff1d82e926ec794901d17c78024a50270940304540a733656f0d60405160405180910390a45050565b82600a8101928215620002b3579160200282015b82811115620002b3578251829061ffff1690559160200191906001019062000290565b50620002c1929150620002fb565b5090565b8260068101928215620002b3579160200282015b82811115620002b3578251829060ff16905591602001919060010190620002d9565b5b80821115620002c15760008155600101620002fc565b6001600160a01b03811681146200032857600080fd5b50565b600080604083850312156200033f57600080fd5b82516200034c8162000312565b60208401519092506200035f8162000312565b809150509250929050565b61118a806200037a6000396000f3fe608060405234801561001057600080fd5b50600436106101375760003560e01c806372c6239a116100b8578063d09ae8001161007c578063d09ae80014610284578063d12cbc6e1461028d578063d547741f146102a0578063d99b9ca3146102b3578063e04605fd146102c6578063eccb4448146102d957600080fd5b806372c6239a1461021357806391d148541461024357806392cff26b14610256578063a217fddf14610269578063c1763ee51461027157600080fd5b806333fdbbe5116100ff57806333fdbbe5146101d057806336568abe146101d957806349e01824146101ec5780635c975abb146101f55780637170c8dc1461020057600080fd5b806301ffc9a71461013c57806302329a2914610164578063248a9ca3146101795780632f2ff15d146101aa57806331a06772146101bd575b600080fd5b61014f61014a366004610e0a565b6102ec565b60405190151581526020015b60405180910390f35b610177610172366004610e34565b610323565b005b61019c610187366004610e56565b60009081526020819052604090206001015490565b60405190815260200161015b565b6101776101b8366004610e84565b610348565b6101776101cb366004610e56565b610372565b61019c6103e881565b6101776101e7366004610e84565b6105e8565b61019c601f5481565b60025460ff1661014f565b61019c61020e366004610e56565b610662565b60025461022b9061010090046001600160a01b031681565b6040516001600160a01b03909116815260200161015b565b61014f610251366004610e84565b610679565b61019c610264366004610e56565b6106a2565b61019c600081565b61017761027f366004610eb4565b6106b2565b61019c60045481565b61019c61029b366004610e56565b610726565b6101776102ae366004610e84565b610736565b61019c6102c1366004610e56565b61075b565b60035461022b906001600160a01b031681565b6101776102e7366004610eb4565b61096f565b60006001600160e01b03198216637965db0b60e01b148061031d57506301ffc9a760e01b6001600160e01b03198316145b92915050565b600061032e816109e9565b81156103405761033c6109f6565b5050565b61033c610a50565b600082815260208190526040902060010154610363816109e9565b61036d8383610a89565b505050565b600260015414156103ca5760405162461bcd60e51b815260206004820152601f60248201527f5265656e7472616e637947756172643a207265656e7472616e742063616c6c0060448201526064015b60405180910390fd5b60026001556103d7610b0d565b6002546040516331a9108f60e11b815260048101839052339161010090046001600160a01b031690636352211e9060240160206040518083038186803b15801561042057600080fd5b505afa158015610434573d6000803e3d6000fd5b505050506040513d601f19601f820116820180604052508101906104589190610ed1565b6001600160a01b0316146104ae5760405162461bcd60e51b815260206004820152601c60248201527f53637261707065723a204e6f74206f776e6572206f6620746f6b656e0000000060448201526064016103c1565b60006104b98261075b565b6003549091506001600160a01b031663aad3ec96336040516001600160e01b031960e084901b1681526001600160a01b03909116600482015260248101849052604401600060405180830381600087803b15801561051657600080fd5b505af115801561052a573d6000803e3d6000fd5b50506002546040516318d033b960e11b8152600481018690526101009091046001600160a01b031692506331a067729150602401600060405180830381600087803b15801561057857600080fd5b505af115801561058c573d6000803e3d6000fd5b505050507fcdaef64f4acee8ebc2de72af41cf86fc0e22ba3aff28ba957742b2517ace7a4c826105b93390565b604080519283526001600160a01b039091166020830152810183905260600160405180910390a1505060018055565b6001600160a01b03811633146106585760405162461bcd60e51b815260206004820152602f60248201527f416363657373436f6e74726f6c3a2063616e206f6e6c792072656e6f756e636560448201526e103937b632b9903337b91039b2b63360891b60648201526084016103c1565b61033c8282610b55565b6019816006811061067257600080fd5b0154905081565b6000918252602082815260408084206001600160a01b0393909316845291905290205460ff1690565b600f81600a811061067257600080fd5b60006106bd816109e9565b6001600160a01b0382166107035760405162461bcd60e51b815260206004820152600d60248201526c4e6f5a65726f4164647265737360981b60448201526064016103c1565b50600380546001600160a01b0319166001600160a01b0392909216919091179055565b600581600a811061067257600080fd5b600082815260208190526040902060010154610751816109e9565b61036d8383610b55565b60025460405163f692c82960e01b8152600481018390526000918291829182916101009091046001600160a01b03169063f692c8299060240160a06040518083038186803b1580156107ac57600080fd5b505afa1580156107c0573d6000803e3d6000fd5b505050506040513d601f19601f820116820180604052508101906107e49190610f04565b600254604051634378a6e360e01b8152600481018c905293985091965094506000935061010090046001600160a01b03169150634378a6e39060240160c06040518083038186803b15801561083857600080fd5b505afa15801561084c573d6000803e3d6000fd5b505050506040513d601f19601f820116820180604052508101906108709190610f69565b50505050509050606460198360ff166006811061088f5761088f610fb3565b0154601f546103e8906108a3600186610fdf565b600f8960ff16600a81106108b9576108b9610fb3565b015460058960ff16600a81106108d1576108d1610fb3565b01546108dd9190610ff6565b6108e7919061100e565b6108f1919061100e565b6108fb919061102d565b600f8760ff16600a811061091157610911610fb3565b015460058760ff16600a811061092957610929610fb3565b01546109359190610ff6565b61093f9190610ff6565b610949919061100e565b610953919061102d565b61096590670de0b6b3a764000061100e565b9695505050505050565b600061097a816109e9565b6001600160a01b0382166109c05760405162461bcd60e51b815260206004820152600d60248201526c4e6f5a65726f4164647265737360981b60448201526064016103c1565b50600280546001600160a01b0390921661010002610100600160a81b0319909216919091179055565b6109f38133610bba565b50565b6109fe610b0d565b6002805460ff191660011790557f62e78cea01bee320cd4e420270b5ea74000d11b0c9f74754ebdbfc544b05a258610a333390565b6040516001600160a01b03909116815260200160405180910390a1565b610a58610c1e565b6002805460ff191690557f5db9ee0a495bf2e6ff9c91a7834c1ba4fdd244a5e8aa4e537bd38aeae4b073aa33610a33565b610a938282610679565b61033c576000828152602081815260408083206001600160a01b03851684529091529020805460ff19166001179055610ac93390565b6001600160a01b0316816001600160a01b0316837f2f8788117e7eff1d82e926ec794901d17c78024a50270940304540a733656f0d60405160405180910390a45050565b60025460ff1615610b535760405162461bcd60e51b815260206004820152601060248201526f14185d5cd8589b194e881c185d5cd95960821b60448201526064016103c1565b565b610b5f8282610679565b1561033c576000828152602081815260408083206001600160a01b0385168085529252808320805460ff1916905551339285917ff6391f5c32d9c69d2a47ea670b442974b53935d1edc7fd64eb21e047a839171b9190a45050565b610bc48282610679565b61033c57610bdc816001600160a01b03166014610c67565b610be7836020610c67565b604051602001610bf892919061107f565b60408051601f198184030181529082905262461bcd60e51b82526103c1916004016110f4565b60025460ff16610b535760405162461bcd60e51b815260206004820152601460248201527314185d5cd8589b194e881b9bdd081c185d5cd95960621b60448201526064016103c1565b60606000610c7683600261100e565b610c81906002610ff6565b67ffffffffffffffff811115610c9957610c99611127565b6040519080825280601f01601f191660200182016040528015610cc3576020820181803683370190505b509050600360fc1b81600081518110610cde57610cde610fb3565b60200101906001600160f81b031916908160001a905350600f60fb1b81600181518110610d0d57610d0d610fb3565b60200101906001600160f81b031916908160001a9053506000610d3184600261100e565b610d3c906001610ff6565b90505b6001811115610db4576f181899199a1a9b1b9c1cb0b131b232b360811b85600f1660108110610d7057610d70610fb3565b1a60f81b828281518110610d8657610d86610fb3565b60200101906001600160f81b031916908160001a90535060049490941c93610dad8161113d565b9050610d3f565b508315610e035760405162461bcd60e51b815260206004820181905260248201527f537472696e67733a20686578206c656e67746820696e73756666696369656e7460448201526064016103c1565b9392505050565b600060208284031215610e1c57600080fd5b81356001600160e01b031981168114610e0357600080fd5b600060208284031215610e4657600080fd5b81358015158114610e0357600080fd5b600060208284031215610e6857600080fd5b5035919050565b6001600160a01b03811681146109f357600080fd5b60008060408385031215610e9757600080fd5b823591506020830135610ea981610e6f565b809150509250929050565b600060208284031215610ec657600080fd5b8135610e0381610e6f565b600060208284031215610ee357600080fd5b8151610e0381610e6f565b805160ff81168114610eff57600080fd5b919050565b600080600080600060a08688031215610f1c57600080fd5b610f2586610eee565b9450610f3360208701610eee565b9350610f4160408701610eee565b9250610f4f60608701610eee565b9150610f5d60808701610eee565b90509295509295909350565b60008060008060008060c08789031215610f8257600080fd5b865195506020870151945060408701519350606087015192506080870151915060a087015190509295509295509295565b634e487b7160e01b600052603260045260246000fd5b634e487b7160e01b600052601160045260246000fd5b600082821015610ff157610ff1610fc9565b500390565b6000821982111561100957611009610fc9565b500190565b600081600019048311821515161561102857611028610fc9565b500290565b60008261104a57634e487b7160e01b600052601260045260246000fd5b500490565b60005b8381101561106a578181015183820152602001611052565b83811115611079576000848401525b50505050565b7f416363657373436f6e74726f6c3a206163636f756e74200000000000000000008152600083516110b781601785016020880161104f565b7001034b99036b4b9b9b4b733903937b6329607d1b60179184019182015283516110e881602884016020880161104f565b01602801949350505050565b602081526000825180602084015261111381604085016020870161104f565b601f01601f19169190910160400192915050565b634e487b7160e01b600052604160045260246000fd5b60008161114c5761114c610fc9565b50600019019056fea2646970667358221220c8950de8dc6d2ff4767a6ef985cd871d39ef4c6432898888c35a37e459a9546f64736f6c63430008090033",
  "devdoc": {
    "kind": "dev",
    "methods": {
      "getRoleAdmin(bytes32)": {
        "details": "Returns the admin role that controls `role`. See {grantRole} and {revokeRole}. To change a role's admin, use {_setRoleAdmin}."
      },
      "grantRole(bytes32,address)": {
        "details": "Grants `role` to `account`. If `account` had not been already granted `role`, emits a {RoleGranted} event. Requirements: - the caller must have ``role``'s admin role. May emit a {RoleGranted} event."
      },
      "hasRole(bytes32,address)": {
        "details": "Returns `true` if `account` has been granted `role`."
      },
      "paused()": {
        "details": "Returns true if the contract is paused, and false otherwise."
      },
      "renounceRole(bytes32,address)": {
        "details": "Revokes `role` from the calling account. Roles are often managed via {grantRole} and {revokeRole}: this function's purpose is to provide a mechanism for accounts to lose their privileges if they are compromised (such as when a trusted device is misplaced). If the calling account had been revoked `role`, emits a {RoleRevoked} event. Requirements: - the caller must be `account`. May emit a {RoleRevoked} event."
      },
      "revokeRole(bytes32,address)": {
        "details": "Revokes `role` from `account`. If `account` had been granted `role`, emits a {RoleRevoked} event. Requirements: - the caller must have ``role``'s admin role. May emit a {RoleRevoked} event."
      },
      "supportsInterface(bytes4)": {
        "details": "See {IERC165-supportsInterface}."
      }
    },
    "version": 1
  },
  "userdoc": {
    "kind": "user",
    "methods": {},
    "version": 1
  },
  "storageLayout": {
    "storage": [
      {
        "astId": 70,
        "contract": "contracts/Utilities/Scrapper.sol:Scrapper",
        "label": "_roles",
        "offset": 0,
        "slot": "0",
        "type": "t_mapping(t_bytes32,t_struct(RoleData)65_storage)"
      },
      {
        "astId": 557,
        "contract": "contracts/Utilities/Scrapper.sol:Scrapper",
        "label": "_status",
        "offset": 0,
        "slot": "1",
        "type": "t_uint256"
      },
      {
        "astId": 456,
        "contract": "contracts/Utilities/Scrapper.sol:Scrapper",
        "label": "_paused",
        "offset": 0,
        "slot": "2",
        "type": "t_bool"
      },
      {
        "astId": 6202,
        "contract": "contracts/Utilities/Scrapper.sol:Scrapper",
        "label": "blastEquipmentNFT",
        "offset": 1,
        "slot": "2",
        "type": "t_contract(IBlastEquipmentNFT)7421"
      },
      {
        "astId": 6205,
        "contract": "contracts/Utilities/Scrapper.sol:Scrapper",
        "label": "csToken",
        "offset": 0,
        "slot": "3",
        "type": "t_contract(ICraftSpiceToken)7435"
      },
      {
        "astId": 6211,
        "contract": "contracts/Utilities/Scrapper.sol:Scrapper",
        "label": "growthMultiplier",
        "offset": 0,
        "slot": "4",
        "type": "t_uint256"
      },
      {
        "astId": 6226,
        "contract": "contracts/Utilities/Scrapper.sol:Scrapper",
        "label": "csValuePerRarity",
        "offset": 0,
        "slot": "5",
        "type": "t_array(t_uint256)10_storage"
      },
      {
        "astId": 6241,
        "contract": "contracts/Utilities/Scrapper.sol:Scrapper",
        "label": "csAdditiveValuePerAdjective",
        "offset": 0,
        "slot": "15",
        "type": "t_array(t_uint256)10_storage"
      },
      {
        "astId": 6252,
        "contract": "contracts/Utilities/Scrapper.sol:Scrapper",
        "label": "gradeMultiplierPerGrade",
        "offset": 0,
        "slot": "25",
        "type": "t_array(t_uint256)6_storage"
      },
      {
        "astId": 6255,
        "contract": "contracts/Utilities/Scrapper.sol:Scrapper",
        "label": "csPercentagePerLevel",
        "offset": 0,
        "slot": "31",
        "type": "t_uint256"
      }
    ],
    "types": {
      "t_address": {
        "encoding": "inplace",
        "label": "address",
        "numberOfBytes": "20"
      },
      "t_array(t_uint256)10_storage": {
        "base": "t_uint256",
        "encoding": "inplace",
        "label": "uint256[10]",
        "numberOfBytes": "320"
      },
      "t_array(t_uint256)6_storage": {
        "base": "t_uint256",
        "encoding": "inplace",
        "label": "uint256[6]",
        "numberOfBytes": "192"
      },
      "t_bool": {
        "encoding": "inplace",
        "label": "bool",
        "numberOfBytes": "1"
      },
      "t_bytes32": {
        "encoding": "inplace",
        "label": "bytes32",
        "numberOfBytes": "32"
      },
      "t_contract(IBlastEquipmentNFT)7421": {
        "encoding": "inplace",
        "label": "contract IBlastEquipmentNFT",
        "numberOfBytes": "20"
      },
      "t_contract(ICraftSpiceToken)7435": {
        "encoding": "inplace",
        "label": "contract ICraftSpiceToken",
        "numberOfBytes": "20"
      },
      "t_mapping(t_address,t_bool)": {
        "encoding": "mapping",
        "key": "t_address",
        "label": "mapping(address => bool)",
        "numberOfBytes": "32",
        "value": "t_bool"
      },
      "t_mapping(t_bytes32,t_struct(RoleData)65_storage)": {
        "encoding": "mapping",
        "key": "t_bytes32",
        "label": "mapping(bytes32 => struct AccessControl.RoleData)",
        "numberOfBytes": "32",
        "value": "t_struct(RoleData)65_storage"
      },
      "t_struct(RoleData)65_storage": {
        "encoding": "inplace",
        "label": "struct AccessControl.RoleData",
        "members": [
          {
            "astId": 62,
            "contract": "contracts/Utilities/Scrapper.sol:Scrapper",
            "label": "members",
            "offset": 0,
            "slot": "0",
            "type": "t_mapping(t_address,t_bool)"
          },
          {
            "astId": 64,
            "contract": "contracts/Utilities/Scrapper.sol:Scrapper",
            "label": "adminRole",
            "offset": 0,
            "slot": "1",
            "type": "t_bytes32"
          }
        ],
        "numberOfBytes": "64"
      },
      "t_uint256": {
        "encoding": "inplace",
        "label": "uint256",
        "numberOfBytes": "32"
      }
    }
  }
}