{
  "address": "0xFbc28efb01D5B9f7342978596c6939f330C75f4F",
  "abi": [
    {
      "inputs": [
        {
          "internalType": "contract IBlastEquipmentNFT",
          "name": "_blastEquipmentNFT",
          "type": "address"
        },
        {
          "internalType": "contract ICraftSpiceToken",
          "name": "_csToken",
          "type": "address"
        }
      ],
      "stateMutability": "nonpayable",
      "type": "constructor"
    },
    {
      "anonymous": false,
      "inputs": [
        {
          "indexed": false,
          "internalType": "address",
          "name": "account",
          "type": "address"
        }
      ],
      "name": "Paused",
      "type": "event"
    },
    {
      "anonymous": false,
      "inputs": [
        {
          "indexed": true,
          "internalType": "bytes32",
          "name": "role",
          "type": "bytes32"
        },
        {
          "indexed": true,
          "internalType": "bytes32",
          "name": "previousAdminRole",
          "type": "bytes32"
        },
        {
          "indexed": true,
          "internalType": "bytes32",
          "name": "newAdminRole",
          "type": "bytes32"
        }
      ],
      "name": "RoleAdminChanged",
      "type": "event"
    },
    {
      "anonymous": false,
      "inputs": [
        {
          "indexed": true,
          "internalType": "bytes32",
          "name": "role",
          "type": "bytes32"
        },
        {
          "indexed": true,
          "internalType": "address",
          "name": "account",
          "type": "address"
        },
        {
          "indexed": true,
          "internalType": "address",
          "name": "sender",
          "type": "address"
        }
      ],
      "name": "RoleGranted",
      "type": "event"
    },
    {
      "anonymous": false,
      "inputs": [
        {
          "indexed": true,
          "internalType": "bytes32",
          "name": "role",
          "type": "bytes32"
        },
        {
          "indexed": true,
          "internalType": "address",
          "name": "account",
          "type": "address"
        },
        {
          "indexed": true,
          "internalType": "address",
          "name": "sender",
          "type": "address"
        }
      ],
      "name": "RoleRevoked",
      "type": "event"
    },
    {
      "anonymous": false,
      "inputs": [
        {
          "indexed": false,
          "internalType": "uint256",
          "name": "tokenId",
          "type": "uint256"
        },
        {
          "indexed": false,
          "internalType": "address",
          "name": "user",
          "type": "address"
        },
        {
          "indexed": false,
          "internalType": "uint256",
          "name": "csAmount",
          "type": "uint256"
        }
      ],
      "name": "Scrapped",
      "type": "event"
    },
    {
      "anonymous": false,
      "inputs": [
        {
          "indexed": false,
          "internalType": "address",
          "name": "account",
          "type": "address"
        }
      ],
      "name": "Unpaused",
      "type": "event"
    },
    {
      "inputs": [],
      "name": "DECIMAL_FACTOR",
      "outputs": [
        {
          "internalType": "uint256",
          "name": "",
          "type": "uint256"
        }
      ],
      "stateMutability": "view",
      "type": "function"
    },
    {
      "inputs": [],
      "name": "DEFAULT_ADMIN_ROLE",
      "outputs": [
        {
          "internalType": "bytes32",
          "name": "",
          "type": "bytes32"
        }
      ],
      "stateMutability": "view",
      "type": "function"
    },
    {
      "inputs": [],
      "name": "blastEquipmentNFT",
      "outputs": [
        {
          "internalType": "contract IBlastEquipmentNFT",
          "name": "",
          "type": "address"
        }
      ],
      "stateMutability": "view",
      "type": "function"
    },
    {
      "inputs": [
        {
          "internalType": "uint256",
          "name": "",
          "type": "uint256"
        }
      ],
      "name": "csAdditiveValuePerAdjective",
      "outputs": [
        {
          "internalType": "uint256",
          "name": "",
          "type": "uint256"
        }
      ],
      "stateMutability": "view",
      "type": "function"
    },
    {
      "inputs": [],
      "name": "csPercentagePerLevel",
      "outputs": [
        {
          "internalType": "uint256",
          "name": "",
          "type": "uint256"
        }
      ],
      "stateMutability": "view",
      "type": "function"
    },
    {
      "inputs": [],
      "name": "csToken",
      "outputs": [
        {
          "internalType": "contract ICraftSpiceToken",
          "name": "",
          "type": "address"
        }
      ],
      "stateMutability": "view",
      "type": "function"
    },
    {
      "inputs": [
        {
          "internalType": "uint256",
          "name": "",
          "type": "uint256"
        }
      ],
      "name": "csValuePerRarity",
      "outputs": [
        {
          "internalType": "uint256",
          "name": "",
          "type": "uint256"
        }
      ],
      "stateMutability": "view",
      "type": "function"
    },
    {
      "inputs": [
        {
          "internalType": "uint256",
          "name": "_tokenId",
          "type": "uint256"
        }
      ],
      "name": "getCSPrice",
      "outputs": [
        {
          "internalType": "uint256",
          "name": "",
          "type": "uint256"
        }
      ],
      "stateMutability": "view",
      "type": "function"
    },
    {
      "inputs": [
        {
          "internalType": "bytes32",
          "name": "role",
          "type": "bytes32"
        }
      ],
      "name": "getRoleAdmin",
      "outputs": [
        {
          "internalType": "bytes32",
          "name": "",
          "type": "bytes32"
        }
      ],
      "stateMutability": "view",
      "type": "function"
    },
    {
      "inputs": [
        {
          "internalType": "uint256",
          "name": "",
          "type": "uint256"
        }
      ],
      "name": "gradeMultiplierPerGrade",
      "outputs": [
        {
          "internalType": "uint256",
          "name": "",
          "type": "uint256"
        }
      ],
      "stateMutability": "view",
      "type": "function"
    },
    {
      "inputs": [
        {
          "internalType": "bytes32",
          "name": "role",
          "type": "bytes32"
        },
        {
          "internalType": "address",
          "name": "account",
          "type": "address"
        }
      ],
      "name": "grantRole",
      "outputs": [],
      "stateMutability": "nonpayable",
      "type": "function"
    },
    {
      "inputs": [],
      "name": "growthMultiplier",
      "outputs": [
        {
          "internalType": "uint256",
          "name": "",
          "type": "uint256"
        }
      ],
      "stateMutability": "view",
      "type": "function"
    },
    {
      "inputs": [
        {
          "internalType": "bytes32",
          "name": "role",
          "type": "bytes32"
        },
        {
          "internalType": "address",
          "name": "account",
          "type": "address"
        }
      ],
      "name": "hasRole",
      "outputs": [
        {
          "internalType": "bool",
          "name": "",
          "type": "bool"
        }
      ],
      "stateMutability": "view",
      "type": "function"
    },
    {
      "inputs": [
        {
          "internalType": "bool",
          "name": "stop",
          "type": "bool"
        }
      ],
      "name": "pause",
      "outputs": [],
      "stateMutability": "nonpayable",
      "type": "function"
    },
    {
      "inputs": [],
      "name": "paused",
      "outputs": [
        {
          "internalType": "bool",
          "name": "",
          "type": "bool"
        }
      ],
      "stateMutability": "view",
      "type": "function"
    },
    {
      "inputs": [
        {
          "internalType": "bytes32",
          "name": "role",
          "type": "bytes32"
        },
        {
          "internalType": "address",
          "name": "account",
          "type": "address"
        }
      ],
      "name": "renounceRole",
      "outputs": [],
      "stateMutability": "nonpayable",
      "type": "function"
    },
    {
      "inputs": [
        {
          "internalType": "bytes32",
          "name": "role",
          "type": "bytes32"
        },
        {
          "internalType": "address",
          "name": "account",
          "type": "address"
        }
      ],
      "name": "revokeRole",
      "outputs": [],
      "stateMutability": "nonpayable",
      "type": "function"
    },
    {
      "inputs": [
        {
          "internalType": "uint256",
          "name": "_tokenId",
          "type": "uint256"
        }
      ],
      "name": "scrap",
      "outputs": [],
      "stateMutability": "nonpayable",
      "type": "function"
    },
    {
      "inputs": [
        {
          "internalType": "contract IBlastEquipmentNFT",
          "name": "_blastEquipmentNFT",
          "type": "address"
        }
      ],
      "name": "setBlastEquipmentAddress",
      "outputs": [],
      "stateMutability": "nonpayable",
      "type": "function"
    },
    {
      "inputs": [
        {
          "internalType": "uint256[10]",
          "name": "_csAdditiveValuePerAdjective",
          "type": "uint256[10]"
        }
      ],
      "name": "setCSAdditiveValuePerAdjective",
      "outputs": [],
      "stateMutability": "nonpayable",
      "type": "function"
    },
    {
      "inputs": [
        {
          "internalType": "contract ICraftSpiceToken",
          "name": "_csToken",
          "type": "address"
        }
      ],
      "name": "setCSTokenAddress",
      "outputs": [],
      "stateMutability": "nonpayable",
      "type": "function"
    },
    {
      "inputs": [
        {
          "internalType": "bytes4",
          "name": "interfaceId",
          "type": "bytes4"
        }
      ],
      "name": "supportsInterface",
      "outputs": [
        {
          "internalType": "bool",
          "name": "",
          "type": "bool"
        }
      ],
      "stateMutability": "view",
      "type": "function"
    }
  ],
  "transactionHash": "0x6839e20f454e663ad037f3525b848ce6e4e4cb217a2df5966812a424c531be30",
  "args": [
    "0x03eA885Ec4cb6100707EB4bE74DD83a7DDf856B1",
    "0x3539f80890beD510F666Dd307A640220c113e599"
  ],
  "numDeployments": 2,
  "solcInputHash": "038ad6350887b7125fa5b305dd90fc15",
  "bytecode": "0x6104b06004556101c060405260646080908152607860a052609060c05260ad60e05260d06101005260fa6101205261012c61014052610168610160526101b0610180526102066101a0526200005990600590600a620002a5565b5060408051610140810182526014815260286020820152604691810191909152606460608201819052608082015260c860a0820181905260c082015261015e60e08201526101f46101008201819052610120820152620000be90600f90600a620002a5565b506040805160c08101825260648152606e6020820152607891810191909152608c606082015260a5608082015260c860a082015262000102906019906006620002ee565b506019601f553480156200011557600080fd5b50604051620016a8380380620016a8833981016040819052620001389162000354565b600180556002805460ff191690556001600160a01b038216158015906200016757506001600160a01b03811615155b604051806040016040528060018152602001603160f81b81525090620001ab5760405162461bcd60e51b8152600401620001a2919062000393565b60405180910390fd5b50620001b9600033620001f5565b60028054610100600160a81b0319166101006001600160a01b0394851602179055600380546001600160a01b03191691909216179055620003eb565b62000201828262000205565b5050565b6000828152602081815260408083206001600160a01b038516845290915290205460ff1662000201576000828152602081815260408083206001600160a01b03851684529091529020805460ff19166001179055620002613390565b6001600160a01b0316816001600160a01b0316837f2f8788117e7eff1d82e926ec794901d17c78024a50270940304540a733656f0d60405160405180910390a45050565b82600a8101928215620002dc579160200282015b82811115620002dc578251829061ffff16905591602001919060010190620002b9565b50620002ea92915062000324565b5090565b8260068101928215620002dc579160200282015b82811115620002dc578251829060ff1690559160200191906001019062000302565b5b80821115620002ea576000815560010162000325565b6001600160a01b03811681146200035157600080fd5b50565b600080604083850312156200036857600080fd5b825162000375816200033b565b602084015190925062000388816200033b565b809150509250929050565b600060208083528351808285015260005b81811015620003c257858101830151858201604001528201620003a4565b81811115620003d5576000604083870101525b50601f01601f1916929092016040019392505050565b6112ad80620003fb6000396000f3fe608060405234801561001057600080fd5b50600436106101425760003560e01c806391d14854116100b8578063d12cbc6e1161007c578063d12cbc6e14610298578063d547741f146102ab578063d99b9ca3146102be578063e04605fd146102d1578063eccb4448146102e4578063f9f377bd146102f757600080fd5b806391d148541461024e57806392cff26b14610261578063a217fddf14610274578063c1763ee51461027c578063d09ae8001461028f57600080fd5b806333fdbbe51161010a57806333fdbbe5146101db57806336568abe146101e457806349e01824146101f75780635c975abb146102005780637170c8dc1461020b57806372c6239a1461021e57600080fd5b806301ffc9a71461014757806302329a291461016f578063248a9ca3146101845780632f2ff15d146101b557806331a06772146101c8575b600080fd5b61015a610155366004610e80565b61030a565b60405190151581526020015b60405180910390f35b61018261017d366004610eaa565b610341565b005b6101a7610192366004610ecc565b60009081526020819052604090206001015490565b604051908152602001610166565b6101826101c3366004610efa565b610366565b6101826101d6366004610ecc565b610390565b6101a76103e881565b6101826101f2366004610efa565b6105f3565b6101a7601f5481565b60025460ff1661015a565b6101a7610219366004610ecc565b61066d565b6002546102369061010090046001600160a01b031681565b6040516001600160a01b039091168152602001610166565b61015a61025c366004610efa565b610684565b6101a761026f366004610ecc565b6106ad565b6101a7600081565b61018261028a366004610f2a565b6106bd565b6101a760045481565b6101a76102a6366004610ecc565b61072b565b6101826102b9366004610efa565b61073b565b6101a76102cc366004610ecc565b610760565b600354610236906001600160a01b031681565b6101826102f2366004610f2a565b610974565b610182610305366004610f5d565b6109e8565b60006001600160e01b03198216637965db0b60e01b148061033b57506301ffc9a760e01b6001600160e01b03198316145b92915050565b600061034c81610a5f565b811561035e5761035a610a6c565b5050565b61035a610ac6565b60008281526020819052604090206001015461038181610a5f565b61038b8383610aff565b505050565b600260015414156103e85760405162461bcd60e51b815260206004820152601f60248201527f5265656e7472616e637947756172643a207265656e7472616e742063616c6c0060448201526064015b60405180910390fd5b60026001556103f5610b83565b6002546040516331a9108f60e11b815260048101839052339161010090046001600160a01b031690636352211e9060240160206040518083038186803b15801561043e57600080fd5b505afa158015610452573d6000803e3d6000fd5b505050506040513d601f19601f820116820180604052508101906104769190610fea565b6001600160a01b031614604051806040016040528060018152602001603360f81b815250906104b85760405162461bcd60e51b81526004016103df9190611037565b5060006104c482610760565b6003549091506001600160a01b031663a53d9426336040516001600160e01b031960e084901b1681526001600160a01b03909116600482015260248101849052604401600060405180830381600087803b15801561052157600080fd5b505af1158015610535573d6000803e3d6000fd5b50506002546040516318d033b960e11b8152600481018690526101009091046001600160a01b031692506331a067729150602401600060405180830381600087803b15801561058357600080fd5b505af1158015610597573d6000803e3d6000fd5b505050507fcdaef64f4acee8ebc2de72af41cf86fc0e22ba3aff28ba957742b2517ace7a4c826105c43390565b604080519283526001600160a01b039091166020830152810183905260600160405180910390a1505060018055565b6001600160a01b03811633146106635760405162461bcd60e51b815260206004820152602f60248201527f416363657373436f6e74726f6c3a2063616e206f6e6c792072656e6f756e636560448201526e103937b632b9903337b91039b2b63360891b60648201526084016103df565b61035a8282610bcb565b6019816006811061067d57600080fd5b0154905081565b6000918252602082815260408084206001600160a01b0393909316845291905290205460ff1690565b600f81600a811061067d57600080fd5b60006106c881610a5f565b6040805180820190915260018152603160f81b60208201526001600160a01b0383166107075760405162461bcd60e51b81526004016103df9190611037565b5050600380546001600160a01b0319166001600160a01b0392909216919091179055565b600581600a811061067d57600080fd5b60008281526020819052604090206001015461075681610a5f565b61038b8383610bcb565b60025460405163f692c82960e01b8152600481018390526000918291829182916101009091046001600160a01b03169063f692c8299060240160a06040518083038186803b1580156107b157600080fd5b505afa1580156107c5573d6000803e3d6000fd5b505050506040513d601f19601f820116820180604052508101906107e99190611080565b600254604051634378a6e360e01b8152600481018c905293985091965094506000935061010090046001600160a01b03169150634378a6e39060240160c06040518083038186803b15801561083d57600080fd5b505afa158015610851573d6000803e3d6000fd5b505050506040513d601f19601f8201168201806040525081019061087591906110e5565b50505050509050606460198360ff16600681106108945761089461112f565b0154601f546103e8906108a860018661115b565b600f8960ff16600a81106108be576108be61112f565b015460058960ff16600a81106108d6576108d661112f565b01546108e29190611172565b6108ec919061118a565b6108f6919061118a565b61090091906111a9565b600f8760ff16600a81106109165761091661112f565b015460058760ff16600a811061092e5761092e61112f565b015461093a9190611172565b6109449190611172565b61094e919061118a565b61095891906111a9565b61096a90670de0b6b3a764000061118a565b9695505050505050565b600061097f81610a5f565b6040805180820190915260018152603160f81b60208201526001600160a01b0383166109be5760405162461bcd60e51b81526004016103df9190611037565b5050600280546001600160a01b0390921661010002610100600160a81b0319909216919091179055565b60006109f381610a5f565b6040805180820190915260018152603560f81b60208201525060005b600a8160ff16101561038b57828160ff16600a8110610a3057610a3061112f565b6020020151600f8260ff16600a8110610a4b57610a4b61112f565b015580610a57816111cb565b915050610a0f565b610a698133610c30565b50565b610a74610b83565b6002805460ff191660011790557f62e78cea01bee320cd4e420270b5ea74000d11b0c9f74754ebdbfc544b05a258610aa93390565b6040516001600160a01b03909116815260200160405180910390a1565b610ace610c94565b6002805460ff191690557f5db9ee0a495bf2e6ff9c91a7834c1ba4fdd244a5e8aa4e537bd38aeae4b073aa33610aa9565b610b098282610684565b61035a576000828152602081815260408083206001600160a01b03851684529091529020805460ff19166001179055610b3f3390565b6001600160a01b0316816001600160a01b0316837f2f8788117e7eff1d82e926ec794901d17c78024a50270940304540a733656f0d60405160405180910390a45050565b60025460ff1615610bc95760405162461bcd60e51b815260206004820152601060248201526f14185d5cd8589b194e881c185d5cd95960821b60448201526064016103df565b565b610bd58282610684565b1561035a576000828152602081815260408083206001600160a01b0385168085529252808320805460ff1916905551339285917ff6391f5c32d9c69d2a47ea670b442974b53935d1edc7fd64eb21e047a839171b9190a45050565b610c3a8282610684565b61035a57610c52816001600160a01b03166014610cdd565b610c5d836020610cdd565b604051602001610c6e9291906111eb565b60408051601f198184030181529082905262461bcd60e51b82526103df91600401611037565b60025460ff16610bc95760405162461bcd60e51b815260206004820152601460248201527314185d5cd8589b194e881b9bdd081c185d5cd95960621b60448201526064016103df565b60606000610cec83600261118a565b610cf7906002611172565b67ffffffffffffffff811115610d0f57610d0f610f47565b6040519080825280601f01601f191660200182016040528015610d39576020820181803683370190505b509050600360fc1b81600081518110610d5457610d5461112f565b60200101906001600160f81b031916908160001a905350600f60fb1b81600181518110610d8357610d8361112f565b60200101906001600160f81b031916908160001a9053506000610da784600261118a565b610db2906001611172565b90505b6001811115610e2a576f181899199a1a9b1b9c1cb0b131b232b360811b85600f1660108110610de657610de661112f565b1a60f81b828281518110610dfc57610dfc61112f565b60200101906001600160f81b031916908160001a90535060049490941c93610e2381611260565b9050610db5565b508315610e795760405162461bcd60e51b815260206004820181905260248201527f537472696e67733a20686578206c656e67746820696e73756666696369656e7460448201526064016103df565b9392505050565b600060208284031215610e9257600080fd5b81356001600160e01b031981168114610e7957600080fd5b600060208284031215610ebc57600080fd5b81358015158114610e7957600080fd5b600060208284031215610ede57600080fd5b5035919050565b6001600160a01b0381168114610a6957600080fd5b60008060408385031215610f0d57600080fd5b823591506020830135610f1f81610ee5565b809150509250929050565b600060208284031215610f3c57600080fd5b8135610e7981610ee5565b634e487b7160e01b600052604160045260246000fd5b6000610140808385031215610f7157600080fd5b83601f840112610f8057600080fd5b60405181810181811067ffffffffffffffff82111715610fb057634e487b7160e01b600052604160045260246000fd5b604052908301908085831115610fc557600080fd5b845b83811015610fdf578035825260209182019101610fc7565b509095945050505050565b600060208284031215610ffc57600080fd5b8151610e7981610ee5565b60005b8381101561102257818101518382015260200161100a565b83811115611031576000848401525b50505050565b6020815260008251806020840152611056816040850160208701611007565b601f01601f19169190910160400192915050565b805160ff8116811461107b57600080fd5b919050565b600080600080600060a0868803121561109857600080fd5b6110a18661106a565b94506110af6020870161106a565b93506110bd6040870161106a565b92506110cb6060870161106a565b91506110d96080870161106a565b90509295509295909350565b60008060008060008060c087890312156110fe57600080fd5b865195506020870151945060408701519350606087015192506080870151915060a087015190509295509295509295565b634e487b7160e01b600052603260045260246000fd5b634e487b7160e01b600052601160045260246000fd5b60008282101561116d5761116d611145565b500390565b6000821982111561118557611185611145565b500190565b60008160001904831182151516156111a4576111a4611145565b500290565b6000826111c657634e487b7160e01b600052601260045260246000fd5b500490565b600060ff821660ff8114156111e2576111e2611145565b60010192915050565b7f416363657373436f6e74726f6c3a206163636f756e7420000000000000000000815260008351611223816017850160208801611007565b7001034b99036b4b9b9b4b733903937b6329607d1b6017918401918201528351611254816028840160208801611007565b01602801949350505050565b60008161126f5761126f611145565b50600019019056fea2646970667358221220ed22f0d577145e1c05bcba9278c299c26405e3a0230a1951c4d2c727b683350c64736f6c63430008090033",
  "devdoc": {
    "kind": "dev",
    "methods": {
      "getRoleAdmin(bytes32)": {
        "details": "Returns the admin role that controls `role`. See {grantRole} and {revokeRole}. To change a role's admin, use {_setRoleAdmin}."
      },
      "grantRole(bytes32,address)": {
        "details": "Grants `role` to `account`. If `account` had not been already granted `role`, emits a {RoleGranted} event. Requirements: - the caller must have ``role``'s admin role. May emit a {RoleGranted} event."
      },
      "hasRole(bytes32,address)": {
        "details": "Returns `true` if `account` has been granted `role`."
      },
      "paused()": {
        "details": "Returns true if the contract is paused, and false otherwise."
      },
      "renounceRole(bytes32,address)": {
        "details": "Revokes `role` from the calling account. Roles are often managed via {grantRole} and {revokeRole}: this function's purpose is to provide a mechanism for accounts to lose their privileges if they are compromised (such as when a trusted device is misplaced). If the calling account had been revoked `role`, emits a {RoleRevoked} event. Requirements: - the caller must be `account`. May emit a {RoleRevoked} event."
      },
      "revokeRole(bytes32,address)": {
        "details": "Revokes `role` from `account`. If `account` had been granted `role`, emits a {RoleRevoked} event. Requirements: - the caller must have ``role``'s admin role. May emit a {RoleRevoked} event."
      },
      "supportsInterface(bytes4)": {
        "details": "See {IERC165-supportsInterface}."
      }
    },
    "version": 1
  },
  "userdoc": {
    "kind": "user",
    "methods": {},
    "version": 1
  },
  "storageLayout": {
    "storage": [
      {
        "astId": 70,
        "contract": "contracts/Utilities/Scrapper.sol:Scrapper",
        "label": "_roles",
        "offset": 0,
        "slot": "0",
        "type": "t_mapping(t_bytes32,t_struct(RoleData)65_storage)"
      },
      {
        "astId": 557,
        "contract": "contracts/Utilities/Scrapper.sol:Scrapper",
        "label": "_status",
        "offset": 0,
        "slot": "1",
        "type": "t_uint256"
      },
      {
        "astId": 456,
        "contract": "contracts/Utilities/Scrapper.sol:Scrapper",
        "label": "_paused",
        "offset": 0,
        "slot": "2",
        "type": "t_bool"
      },
      {
        "astId": 6238,
        "contract": "contracts/Utilities/Scrapper.sol:Scrapper",
        "label": "blastEquipmentNFT",
        "offset": 1,
        "slot": "2",
        "type": "t_contract(IBlastEquipmentNFT)7716"
      },
      {
        "astId": 6241,
        "contract": "contracts/Utilities/Scrapper.sol:Scrapper",
        "label": "csToken",
        "offset": 0,
        "slot": "3",
        "type": "t_contract(ICraftSpiceToken)7730"
      },
      {
        "astId": 6247,
        "contract": "contracts/Utilities/Scrapper.sol:Scrapper",
        "label": "growthMultiplier",
        "offset": 0,
        "slot": "4",
        "type": "t_uint256"
      },
      {
        "astId": 6262,
        "contract": "contracts/Utilities/Scrapper.sol:Scrapper",
        "label": "csValuePerRarity",
        "offset": 0,
        "slot": "5",
        "type": "t_array(t_uint256)10_storage"
      },
      {
        "astId": 6277,
        "contract": "contracts/Utilities/Scrapper.sol:Scrapper",
        "label": "csAdditiveValuePerAdjective",
        "offset": 0,
        "slot": "15",
        "type": "t_array(t_uint256)10_storage"
      },
      {
        "astId": 6288,
        "contract": "contracts/Utilities/Scrapper.sol:Scrapper",
        "label": "gradeMultiplierPerGrade",
        "offset": 0,
        "slot": "25",
        "type": "t_array(t_uint256)6_storage"
      },
      {
        "astId": 6291,
        "contract": "contracts/Utilities/Scrapper.sol:Scrapper",
        "label": "csPercentagePerLevel",
        "offset": 0,
        "slot": "31",
        "type": "t_uint256"
      }
    ],
    "types": {
      "t_address": {
        "encoding": "inplace",
        "label": "address",
        "numberOfBytes": "20"
      },
      "t_array(t_uint256)10_storage": {
        "base": "t_uint256",
        "encoding": "inplace",
        "label": "uint256[10]",
        "numberOfBytes": "320"
      },
      "t_array(t_uint256)6_storage": {
        "base": "t_uint256",
        "encoding": "inplace",
        "label": "uint256[6]",
        "numberOfBytes": "192"
      },
      "t_bool": {
        "encoding": "inplace",
        "label": "bool",
        "numberOfBytes": "1"
      },
      "t_bytes32": {
        "encoding": "inplace",
        "label": "bytes32",
        "numberOfBytes": "32"
      },
      "t_contract(IBlastEquipmentNFT)7716": {
        "encoding": "inplace",
        "label": "contract IBlastEquipmentNFT",
        "numberOfBytes": "20"
      },
      "t_contract(ICraftSpiceToken)7730": {
        "encoding": "inplace",
        "label": "contract ICraftSpiceToken",
        "numberOfBytes": "20"
      },
      "t_mapping(t_address,t_bool)": {
        "encoding": "mapping",
        "key": "t_address",
        "label": "mapping(address => bool)",
        "numberOfBytes": "32",
        "value": "t_bool"
      },
      "t_mapping(t_bytes32,t_struct(RoleData)65_storage)": {
        "encoding": "mapping",
        "key": "t_bytes32",
        "label": "mapping(bytes32 => struct AccessControl.RoleData)",
        "numberOfBytes": "32",
        "value": "t_struct(RoleData)65_storage"
      },
      "t_struct(RoleData)65_storage": {
        "encoding": "inplace",
        "label": "struct AccessControl.RoleData",
        "members": [
          {
            "astId": 62,
            "contract": "contracts/Utilities/Scrapper.sol:Scrapper",
            "label": "members",
            "offset": 0,
            "slot": "0",
            "type": "t_mapping(t_address,t_bool)"
          },
          {
            "astId": 64,
            "contract": "contracts/Utilities/Scrapper.sol:Scrapper",
            "label": "adminRole",
            "offset": 0,
            "slot": "1",
            "type": "t_bytes32"
          }
        ],
        "numberOfBytes": "64"
      },
      "t_uint256": {
        "encoding": "inplace",
        "label": "uint256",
        "numberOfBytes": "32"
      }
    }
  }
}