{
  "address": "0x4Ad46670982d998716bdcc63D3a59553A5AC629f",
  "abi": [
    {
      "inputs": [
        {
          "internalType": "contract IBlastEquipmentNFT",
          "name": "_blastEquipmentNFT",
          "type": "address"
        },
        {
          "internalType": "contract ICraftSpiceToken",
          "name": "_csToken",
          "type": "address"
        }
      ],
      "stateMutability": "nonpayable",
      "type": "constructor"
    },
    {
      "anonymous": false,
      "inputs": [
        {
          "indexed": false,
          "internalType": "address",
          "name": "account",
          "type": "address"
        }
      ],
      "name": "Paused",
      "type": "event"
    },
    {
      "anonymous": false,
      "inputs": [
        {
          "indexed": true,
          "internalType": "bytes32",
          "name": "role",
          "type": "bytes32"
        },
        {
          "indexed": true,
          "internalType": "bytes32",
          "name": "previousAdminRole",
          "type": "bytes32"
        },
        {
          "indexed": true,
          "internalType": "bytes32",
          "name": "newAdminRole",
          "type": "bytes32"
        }
      ],
      "name": "RoleAdminChanged",
      "type": "event"
    },
    {
      "anonymous": false,
      "inputs": [
        {
          "indexed": true,
          "internalType": "bytes32",
          "name": "role",
          "type": "bytes32"
        },
        {
          "indexed": true,
          "internalType": "address",
          "name": "account",
          "type": "address"
        },
        {
          "indexed": true,
          "internalType": "address",
          "name": "sender",
          "type": "address"
        }
      ],
      "name": "RoleGranted",
      "type": "event"
    },
    {
      "anonymous": false,
      "inputs": [
        {
          "indexed": true,
          "internalType": "bytes32",
          "name": "role",
          "type": "bytes32"
        },
        {
          "indexed": true,
          "internalType": "address",
          "name": "account",
          "type": "address"
        },
        {
          "indexed": true,
          "internalType": "address",
          "name": "sender",
          "type": "address"
        }
      ],
      "name": "RoleRevoked",
      "type": "event"
    },
    {
      "anonymous": false,
      "inputs": [
        {
          "indexed": false,
          "internalType": "uint256",
          "name": "tokenId",
          "type": "uint256"
        },
        {
          "indexed": false,
          "internalType": "address",
          "name": "user",
          "type": "address"
        },
        {
          "indexed": false,
          "internalType": "uint256",
          "name": "csAmount",
          "type": "uint256"
        }
      ],
      "name": "Scrapped",
      "type": "event"
    },
    {
      "anonymous": false,
      "inputs": [
        {
          "indexed": false,
          "internalType": "address",
          "name": "account",
          "type": "address"
        }
      ],
      "name": "Unpaused",
      "type": "event"
    },
    {
      "inputs": [],
      "name": "DECIMAL_FACTOR",
      "outputs": [
        {
          "internalType": "uint256",
          "name": "",
          "type": "uint256"
        }
      ],
      "stateMutability": "view",
      "type": "function"
    },
    {
      "inputs": [],
      "name": "DEFAULT_ADMIN_ROLE",
      "outputs": [
        {
          "internalType": "bytes32",
          "name": "",
          "type": "bytes32"
        }
      ],
      "stateMutability": "view",
      "type": "function"
    },
    {
      "inputs": [],
      "name": "blastEquipmentNFT",
      "outputs": [
        {
          "internalType": "contract IBlastEquipmentNFT",
          "name": "",
          "type": "address"
        }
      ],
      "stateMutability": "view",
      "type": "function"
    },
    {
      "inputs": [
        {
          "internalType": "uint256",
          "name": "",
          "type": "uint256"
        }
      ],
      "name": "csAdditiveValuePerAdjective",
      "outputs": [
        {
          "internalType": "uint256",
          "name": "",
          "type": "uint256"
        }
      ],
      "stateMutability": "view",
      "type": "function"
    },
    {
      "inputs": [],
      "name": "csPercentagePerLevel",
      "outputs": [
        {
          "internalType": "uint256",
          "name": "",
          "type": "uint256"
        }
      ],
      "stateMutability": "view",
      "type": "function"
    },
    {
      "inputs": [],
      "name": "csToken",
      "outputs": [
        {
          "internalType": "contract ICraftSpiceToken",
          "name": "",
          "type": "address"
        }
      ],
      "stateMutability": "view",
      "type": "function"
    },
    {
      "inputs": [
        {
          "internalType": "uint256",
          "name": "",
          "type": "uint256"
        }
      ],
      "name": "csValuePerRarity",
      "outputs": [
        {
          "internalType": "uint256",
          "name": "",
          "type": "uint256"
        }
      ],
      "stateMutability": "view",
      "type": "function"
    },
    {
      "inputs": [
        {
          "internalType": "uint256",
          "name": "_tokenId",
          "type": "uint256"
        }
      ],
      "name": "getCSPrice",
      "outputs": [
        {
          "internalType": "uint256",
          "name": "",
          "type": "uint256"
        }
      ],
      "stateMutability": "view",
      "type": "function"
    },
    {
      "inputs": [
        {
          "internalType": "bytes32",
          "name": "role",
          "type": "bytes32"
        }
      ],
      "name": "getRoleAdmin",
      "outputs": [
        {
          "internalType": "bytes32",
          "name": "",
          "type": "bytes32"
        }
      ],
      "stateMutability": "view",
      "type": "function"
    },
    {
      "inputs": [
        {
          "internalType": "uint256",
          "name": "",
          "type": "uint256"
        }
      ],
      "name": "gradeMultiplierPerGrade",
      "outputs": [
        {
          "internalType": "uint256",
          "name": "",
          "type": "uint256"
        }
      ],
      "stateMutability": "view",
      "type": "function"
    },
    {
      "inputs": [
        {
          "internalType": "bytes32",
          "name": "role",
          "type": "bytes32"
        },
        {
          "internalType": "address",
          "name": "account",
          "type": "address"
        }
      ],
      "name": "grantRole",
      "outputs": [],
      "stateMutability": "nonpayable",
      "type": "function"
    },
    {
      "inputs": [],
      "name": "growthMultiplier",
      "outputs": [
        {
          "internalType": "uint256",
          "name": "",
          "type": "uint256"
        }
      ],
      "stateMutability": "view",
      "type": "function"
    },
    {
      "inputs": [
        {
          "internalType": "bytes32",
          "name": "role",
          "type": "bytes32"
        },
        {
          "internalType": "address",
          "name": "account",
          "type": "address"
        }
      ],
      "name": "hasRole",
      "outputs": [
        {
          "internalType": "bool",
          "name": "",
          "type": "bool"
        }
      ],
      "stateMutability": "view",
      "type": "function"
    },
    {
      "inputs": [
        {
          "internalType": "bool",
          "name": "stop",
          "type": "bool"
        }
      ],
      "name": "pause",
      "outputs": [],
      "stateMutability": "nonpayable",
      "type": "function"
    },
    {
      "inputs": [],
      "name": "paused",
      "outputs": [
        {
          "internalType": "bool",
          "name": "",
          "type": "bool"
        }
      ],
      "stateMutability": "view",
      "type": "function"
    },
    {
      "inputs": [
        {
          "internalType": "bytes32",
          "name": "role",
          "type": "bytes32"
        },
        {
          "internalType": "address",
          "name": "account",
          "type": "address"
        }
      ],
      "name": "renounceRole",
      "outputs": [],
      "stateMutability": "nonpayable",
      "type": "function"
    },
    {
      "inputs": [
        {
          "internalType": "bytes32",
          "name": "role",
          "type": "bytes32"
        },
        {
          "internalType": "address",
          "name": "account",
          "type": "address"
        }
      ],
      "name": "revokeRole",
      "outputs": [],
      "stateMutability": "nonpayable",
      "type": "function"
    },
    {
      "inputs": [
        {
          "internalType": "uint256",
          "name": "_tokenId",
          "type": "uint256"
        }
      ],
      "name": "scrap",
      "outputs": [],
      "stateMutability": "nonpayable",
      "type": "function"
    },
    {
      "inputs": [
        {
          "internalType": "contract IBlastEquipmentNFT",
          "name": "_blastEquipmentNFT",
          "type": "address"
        }
      ],
      "name": "setBlastEquipmentAddress",
      "outputs": [],
      "stateMutability": "nonpayable",
      "type": "function"
    },
    {
      "inputs": [
        {
          "internalType": "uint256[10]",
          "name": "_csAdditiveValuePerAdjective",
          "type": "uint256[10]"
        }
      ],
      "name": "setCSAdditiveValuePerAdjective",
      "outputs": [],
      "stateMutability": "nonpayable",
      "type": "function"
    },
    {
      "inputs": [
        {
          "internalType": "contract ICraftSpiceToken",
          "name": "_csToken",
          "type": "address"
        }
      ],
      "name": "setCSTokenAddress",
      "outputs": [],
      "stateMutability": "nonpayable",
      "type": "function"
    },
    {
      "inputs": [
        {
          "internalType": "uint256[10]",
          "name": "_csValuePerRarity",
          "type": "uint256[10]"
        }
      ],
      "name": "setCsValuePerRarity",
      "outputs": [],
      "stateMutability": "nonpayable",
      "type": "function"
    },
    {
      "inputs": [
        {
          "internalType": "uint256[5]",
          "name": "_gradeMultiplierPerGrade",
          "type": "uint256[5]"
        }
      ],
      "name": "setGradeMultiplierPerGrade",
      "outputs": [],
      "stateMutability": "nonpayable",
      "type": "function"
    },
    {
      "inputs": [
        {
          "internalType": "bytes4",
          "name": "interfaceId",
          "type": "bytes4"
        }
      ],
      "name": "supportsInterface",
      "outputs": [
        {
          "internalType": "bool",
          "name": "",
          "type": "bool"
        }
      ],
      "stateMutability": "view",
      "type": "function"
    }
  ],
  "transactionHash": "0xbde45807bec66cf52f8ef630da3cdf3add630f85376e66d1d40af3adc5c9ebd6",
  "args": [
    "0x95AE3f2aBa76316985c7D882C0fFF41E12698690",
    "0x377F70FF5Aaa97537256476C974dce06dB3b00D1"
  ],
  "numDeployments": 1,
  "solcInputHash": "e1022c2b25c0085f1557400f326d633d",
  "bytecode": "0x6104b06004556101c060405260646080908152607860a052609060c05260ad60e05260d06101005260fa6101205261012c61014052610168610160526101b0610180526102066101a0526200005990600590600a6200029e565b5060408051610140810182526014815260286020820152604691810191909152606460608201819052608082015260c860a0820181905260c082015261015e60e08201526101f46101008201819052610120820152620000be90600f90600a6200029e565b506040805160a08101825260a58152608c6020820152607891810191909152606e606082015260646080820152620000fb906019906005620002e7565b506019601e553480156200010e57600080fd5b50604051620018513803806200185183398101604081905262000131916200034d565b600180556002805460ff191690556001600160a01b038216158015906200016057506001600160a01b03811615155b604051806040016040528060018152602001603160f81b81525090620001a45760405162461bcd60e51b81526004016200019b91906200038c565b60405180910390fd5b50620001b2600033620001ee565b60028054610100600160a81b0319166101006001600160a01b0394851602179055600380546001600160a01b03191691909216179055620003e4565b620001fa8282620001fe565b5050565b6000828152602081815260408083206001600160a01b038516845290915290205460ff16620001fa576000828152602081815260408083206001600160a01b03851684529091529020805460ff191660011790556200025a3390565b6001600160a01b0316816001600160a01b0316837f2f8788117e7eff1d82e926ec794901d17c78024a50270940304540a733656f0d60405160405180910390a45050565b82600a8101928215620002d5579160200282015b82811115620002d5578251829061ffff16905591602001919060010190620002b2565b50620002e39291506200031d565b5090565b8260058101928215620002d5579160200282015b82811115620002d5578251829060ff16905591602001919060010190620002fb565b5b80821115620002e357600081556001016200031e565b6001600160a01b03811681146200034a57600080fd5b50565b600080604083850312156200036157600080fd5b82516200036e8162000334565b6020840151909250620003818162000334565b809150509250929050565b600060208083528351808285015260005b81811015620003bb578581018301518582016040015282016200039d565b81811115620003ce576000604083870101525b50601f01601f1916929092016040019392505050565b61145d80620003f46000396000f3fe608060405234801561001057600080fd5b50600436106101585760003560e01c80637eadf596116100c3578063d12cbc6e1161007c578063d12cbc6e146102d4578063d547741f146102e7578063d99b9ca3146102fa578063e04605fd1461030d578063eccb444814610320578063f9f377bd1461033357600080fd5b80637eadf5961461027757806391d148541461028a57806392cff26b1461029d578063a217fddf146102b0578063c1763ee5146102b8578063d09ae800146102cb57600080fd5b806336568abe1161011557806336568abe146101fa57806349e018241461020d5780635c975abb1461021657806360944b0a146102215780637170c8dc1461023457806372c6239a1461024757600080fd5b806301ffc9a71461015d57806302329a2914610185578063248a9ca31461019a5780632f2ff15d146101cb57806331a06772146101de57806333fdbbe5146101f1575b600080fd5b61017061016b366004610fb1565b610346565b60405190151581526020015b60405180910390f35b610198610193366004610fdb565b61037d565b005b6101bd6101a8366004610ffd565b60009081526020819052604090206001015490565b60405190815260200161017c565b6101986101d936600461102b565b6103a2565b6101986101ec366004610ffd565b6103cc565b6101bd6103e881565b61019861020836600461102b565b610635565b6101bd601e5481565b60025460ff16610170565b61019861022f366004611071565b6106af565b6101bd610242366004610ffd565b610726565b60025461025f9061010090046001600160a01b031681565b6040516001600160a01b03909116815260200161017c565b6101986102853660046110ef565b61073d565b61017061029836600461102b565b6107b4565b6101bd6102ab366004610ffd565b6107dd565b6101bd600081565b6101986102c636600461116e565b6107ed565b6101bd60045481565b6101bd6102e2366004610ffd565b61085b565b6101986102f536600461102b565b61086b565b6101bd610308366004610ffd565b610890565b60035461025f906001600160a01b031681565b61019861032e36600461116e565b610aa5565b6101986103413660046110ef565b610b19565b60006001600160e01b03198216637965db0b60e01b148061037757506301ffc9a760e01b6001600160e01b03198316145b92915050565b600061038881610b90565b811561039a57610396610b9d565b5050565b610396610bf7565b6000828152602081905260409020600101546103bd81610b90565b6103c78383610c30565b505050565b600260015414156104245760405162461bcd60e51b815260206004820152601f60248201527f5265656e7472616e637947756172643a207265656e7472616e742063616c6c0060448201526064015b60405180910390fd5b6002600155610431610cb4565b336002546040516331a9108f60e11b8152600481018490526001600160a01b039283169261010090920490911690636352211e9060240160206040518083038186803b15801561048057600080fd5b505afa158015610494573d6000803e3d6000fd5b505050506040513d601f19601f820116820180604052508101906104b8919061118b565b6001600160a01b031614604051806040016040528060018152602001603360f81b815250906104fa5760405162461bcd60e51b815260040161041b91906111d8565b50600061050682610890565b6003549091506001600160a01b031663a53d9426336040516001600160e01b031960e084901b1681526001600160a01b03909116600482015260248101849052604401600060405180830381600087803b15801561056357600080fd5b505af1158015610577573d6000803e3d6000fd5b50506002546040516318d033b960e11b8152600481018690526101009091046001600160a01b031692506331a067729150602401600060405180830381600087803b1580156105c557600080fd5b505af11580156105d9573d6000803e3d6000fd5b505050507fcdaef64f4acee8ebc2de72af41cf86fc0e22ba3aff28ba957742b2517ace7a4c826106063390565b604080519283526001600160a01b039091166020830152810183905260600160405180910390a1505060018055565b6001600160a01b03811633146106a55760405162461bcd60e51b815260206004820152602f60248201527f416363657373436f6e74726f6c3a2063616e206f6e6c792072656e6f756e636560448201526e103937b632b9903337b91039b2b63360891b606482015260840161041b565b6103968282610cfc565b60006106ba81610b90565b6040805180820190915260018152603560f81b60208201525060005b600a8160ff1610156103c757828160ff16600581106106f7576106f761120b565b602002015160198260ff16600581106107125761071261120b565b01558061071e81611237565b9150506106d6565b6019816005811061073657600080fd5b0154905081565b600061074881610b90565b6040805180820190915260018152603560f81b60208201525060005b600a8160ff1610156103c757828160ff16600a81106107855761078561120b565b602002015160058260ff16600a81106107a0576107a061120b565b0155806107ac81611237565b915050610764565b6000918252602082815260408084206001600160a01b0393909316845291905290205460ff1690565b600f81600a811061073657600080fd5b60006107f881610b90565b6040805180820190915260018152603160f81b60208201526001600160a01b0383166108375760405162461bcd60e51b815260040161041b91906111d8565b5050600380546001600160a01b0319166001600160a01b0392909216919091179055565b600581600a811061073657600080fd5b60008281526020819052604090206001015461088681610b90565b6103c78383610cfc565b60025460405163f692c82960e01b8152600481018390526000918291829182916101009091046001600160a01b03169063f692c8299060240160c06040518083038186803b1580156108e157600080fd5b505afa1580156108f5573d6000803e3d6000fd5b505050506040513d601f19601f82011682018060405250810190610919919061126d565b600254604051634378a6e360e01b8152600481018d905293995091975095506000945061010090046001600160a01b03169250634378a6e3915060240160c06040518083038186803b15801561096e57600080fd5b505afa158015610982573d6000803e3d6000fd5b505050506040513d601f19601f820116820180604052508101906109a691906112e1565b50505050509050606460198360ff16600581106109c5576109c561120b565b0154601e546103e8906109d960018661132b565b600f8960ff16600a81106109ef576109ef61120b565b015460058960ff16600a8110610a0757610a0761120b565b0154610a139190611342565b610a1d919061135a565b610a27919061135a565b610a319190611379565b600f8760ff16600a8110610a4757610a4761120b565b015460058760ff16600a8110610a5f57610a5f61120b565b0154610a6b9190611342565b610a759190611342565b610a7f919061135a565b610a899190611379565b610a9b90670de0b6b3a764000061135a565b9695505050505050565b6000610ab081610b90565b6040805180820190915260018152603160f81b60208201526001600160a01b038316610aef5760405162461bcd60e51b815260040161041b91906111d8565b5050600280546001600160a01b0390921661010002610100600160a81b0319909216919091179055565b6000610b2481610b90565b6040805180820190915260018152603560f81b60208201525060005b600a8160ff1610156103c757828160ff16600a8110610b6157610b6161120b565b6020020151600f8260ff16600a8110610b7c57610b7c61120b565b015580610b8881611237565b915050610b40565b610b9a8133610d61565b50565b610ba5610cb4565b6002805460ff191660011790557f62e78cea01bee320cd4e420270b5ea74000d11b0c9f74754ebdbfc544b05a258610bda3390565b6040516001600160a01b03909116815260200160405180910390a1565b610bff610dc5565b6002805460ff191690557f5db9ee0a495bf2e6ff9c91a7834c1ba4fdd244a5e8aa4e537bd38aeae4b073aa33610bda565b610c3a82826107b4565b610396576000828152602081815260408083206001600160a01b03851684529091529020805460ff19166001179055610c703390565b6001600160a01b0316816001600160a01b0316837f2f8788117e7eff1d82e926ec794901d17c78024a50270940304540a733656f0d60405160405180910390a45050565b60025460ff1615610cfa5760405162461bcd60e51b815260206004820152601060248201526f14185d5cd8589b194e881c185d5cd95960821b604482015260640161041b565b565b610d0682826107b4565b15610396576000828152602081815260408083206001600160a01b0385168085529252808320805460ff1916905551339285917ff6391f5c32d9c69d2a47ea670b442974b53935d1edc7fd64eb21e047a839171b9190a45050565b610d6b82826107b4565b61039657610d83816001600160a01b03166014610e0e565b610d8e836020610e0e565b604051602001610d9f92919061139b565b60408051601f198184030181529082905262461bcd60e51b825261041b916004016111d8565b60025460ff16610cfa5760405162461bcd60e51b815260206004820152601460248201527314185d5cd8589b194e881b9bdd081c185d5cd95960621b604482015260640161041b565b60606000610e1d83600261135a565b610e28906002611342565b67ffffffffffffffff811115610e4057610e4061105b565b6040519080825280601f01601f191660200182016040528015610e6a576020820181803683370190505b509050600360fc1b81600081518110610e8557610e8561120b565b60200101906001600160f81b031916908160001a905350600f60fb1b81600181518110610eb457610eb461120b565b60200101906001600160f81b031916908160001a9053506000610ed884600261135a565b610ee3906001611342565b90505b6001811115610f5b576f181899199a1a9b1b9c1cb0b131b232b360811b85600f1660108110610f1757610f1761120b565b1a60f81b828281518110610f2d57610f2d61120b565b60200101906001600160f81b031916908160001a90535060049490941c93610f5481611410565b9050610ee6565b508315610faa5760405162461bcd60e51b815260206004820181905260248201527f537472696e67733a20686578206c656e67746820696e73756666696369656e74604482015260640161041b565b9392505050565b600060208284031215610fc357600080fd5b81356001600160e01b031981168114610faa57600080fd5b600060208284031215610fed57600080fd5b81358015158114610faa57600080fd5b60006020828403121561100f57600080fd5b5035919050565b6001600160a01b0381168114610b9a57600080fd5b6000806040838503121561103e57600080fd5b82359150602083013561105081611016565b809150509250929050565b634e487b7160e01b600052604160045260246000fd5b600060a0828403121561108357600080fd5b82601f83011261109257600080fd5b60405160a0810181811067ffffffffffffffff821117156110b5576110b561105b565b6040528060a08401858111156110ca57600080fd5b845b818110156110e45780358352602092830192016110cc565b509195945050505050565b600061014080838503121561110357600080fd5b83601f84011261111257600080fd5b60405181810181811067ffffffffffffffff821117156111345761113461105b565b60405290830190808583111561114957600080fd5b845b8381101561116357803582526020918201910161114b565b509095945050505050565b60006020828403121561118057600080fd5b8135610faa81611016565b60006020828403121561119d57600080fd5b8151610faa81611016565b60005b838110156111c35781810151838201526020016111ab565b838111156111d2576000848401525b50505050565b60208152600082518060208401526111f78160408501602087016111a8565b601f01601f19169190910160400192915050565b634e487b7160e01b600052603260045260246000fd5b634e487b7160e01b600052601160045260246000fd5b600060ff821660ff81141561124e5761124e611221565b60010192915050565b805160ff8116811461126857600080fd5b919050565b60008060008060008060c0878903121561128657600080fd5b61128f87611257565b955061129d60208801611257565b94506112ab60408801611257565b93506112b960608801611257565b92506112c760808801611257565b91506112d560a08801611257565b90509295509295509295565b60008060008060008060c087890312156112fa57600080fd5b865195506020870151945060408701519350606087015192506080870151915060a087015190509295509295509295565b60008282101561133d5761133d611221565b500390565b6000821982111561135557611355611221565b500190565b600081600019048311821515161561137457611374611221565b500290565b60008261139657634e487b7160e01b600052601260045260246000fd5b500490565b7f416363657373436f6e74726f6c3a206163636f756e74200000000000000000008152600083516113d38160178501602088016111a8565b7001034b99036b4b9b9b4b733903937b6329607d1b60179184019182015283516114048160288401602088016111a8565b01602801949350505050565b60008161141f5761141f611221565b50600019019056fea26469706673582212202738283eca315d53520cae54957029bb56df2102066d83b93e293efb88f2f1c064736f6c63430008090033",
  "devdoc": {
    "kind": "dev",
    "methods": {
      "getRoleAdmin(bytes32)": {
        "details": "Returns the admin role that controls `role`. See {grantRole} and {revokeRole}. To change a role's admin, use {_setRoleAdmin}."
      },
      "grantRole(bytes32,address)": {
        "details": "Grants `role` to `account`. If `account` had not been already granted `role`, emits a {RoleGranted} event. Requirements: - the caller must have ``role``'s admin role. May emit a {RoleGranted} event."
      },
      "hasRole(bytes32,address)": {
        "details": "Returns `true` if `account` has been granted `role`."
      },
      "paused()": {
        "details": "Returns true if the contract is paused, and false otherwise."
      },
      "renounceRole(bytes32,address)": {
        "details": "Revokes `role` from the calling account. Roles are often managed via {grantRole} and {revokeRole}: this function's purpose is to provide a mechanism for accounts to lose their privileges if they are compromised (such as when a trusted device is misplaced). If the calling account had been revoked `role`, emits a {RoleRevoked} event. Requirements: - the caller must be `account`. May emit a {RoleRevoked} event."
      },
      "revokeRole(bytes32,address)": {
        "details": "Revokes `role` from `account`. If `account` had been granted `role`, emits a {RoleRevoked} event. Requirements: - the caller must have ``role``'s admin role. May emit a {RoleRevoked} event."
      },
      "supportsInterface(bytes4)": {
        "details": "See {IERC165-supportsInterface}."
      }
    },
    "version": 1
  },
  "userdoc": {
    "kind": "user",
    "methods": {},
    "version": 1
  },
  "storageLayout": {
    "storage": [
      {
        "astId": 70,
        "contract": "contracts/Utilities/Scrapper.sol:Scrapper",
        "label": "_roles",
        "offset": 0,
        "slot": "0",
        "type": "t_mapping(t_bytes32,t_struct(RoleData)65_storage)"
      },
      {
        "astId": 670,
        "contract": "contracts/Utilities/Scrapper.sol:Scrapper",
        "label": "_status",
        "offset": 0,
        "slot": "1",
        "type": "t_uint256"
      },
      {
        "astId": 569,
        "contract": "contracts/Utilities/Scrapper.sol:Scrapper",
        "label": "_paused",
        "offset": 0,
        "slot": "2",
        "type": "t_bool"
      },
      {
        "astId": 11284,
        "contract": "contracts/Utilities/Scrapper.sol:Scrapper",
        "label": "blastEquipmentNFT",
        "offset": 1,
        "slot": "2",
        "type": "t_contract(IBlastEquipmentNFT)13566"
      },
      {
        "astId": 11287,
        "contract": "contracts/Utilities/Scrapper.sol:Scrapper",
        "label": "csToken",
        "offset": 0,
        "slot": "3",
        "type": "t_contract(ICraftSpiceToken)13604"
      },
      {
        "astId": 11293,
        "contract": "contracts/Utilities/Scrapper.sol:Scrapper",
        "label": "growthMultiplier",
        "offset": 0,
        "slot": "4",
        "type": "t_uint256"
      },
      {
        "astId": 11308,
        "contract": "contracts/Utilities/Scrapper.sol:Scrapper",
        "label": "csValuePerRarity",
        "offset": 0,
        "slot": "5",
        "type": "t_array(t_uint256)10_storage"
      },
      {
        "astId": 11323,
        "contract": "contracts/Utilities/Scrapper.sol:Scrapper",
        "label": "csAdditiveValuePerAdjective",
        "offset": 0,
        "slot": "15",
        "type": "t_array(t_uint256)10_storage"
      },
      {
        "astId": 11333,
        "contract": "contracts/Utilities/Scrapper.sol:Scrapper",
        "label": "gradeMultiplierPerGrade",
        "offset": 0,
        "slot": "25",
        "type": "t_array(t_uint256)5_storage"
      },
      {
        "astId": 11336,
        "contract": "contracts/Utilities/Scrapper.sol:Scrapper",
        "label": "csPercentagePerLevel",
        "offset": 0,
        "slot": "30",
        "type": "t_uint256"
      }
    ],
    "types": {
      "t_address": {
        "encoding": "inplace",
        "label": "address",
        "numberOfBytes": "20"
      },
      "t_array(t_uint256)10_storage": {
        "base": "t_uint256",
        "encoding": "inplace",
        "label": "uint256[10]",
        "numberOfBytes": "320"
      },
      "t_array(t_uint256)5_storage": {
        "base": "t_uint256",
        "encoding": "inplace",
        "label": "uint256[5]",
        "numberOfBytes": "160"
      },
      "t_bool": {
        "encoding": "inplace",
        "label": "bool",
        "numberOfBytes": "1"
      },
      "t_bytes32": {
        "encoding": "inplace",
        "label": "bytes32",
        "numberOfBytes": "32"
      },
      "t_contract(IBlastEquipmentNFT)13566": {
        "encoding": "inplace",
        "label": "contract IBlastEquipmentNFT",
        "numberOfBytes": "20"
      },
      "t_contract(ICraftSpiceToken)13604": {
        "encoding": "inplace",
        "label": "contract ICraftSpiceToken",
        "numberOfBytes": "20"
      },
      "t_mapping(t_address,t_bool)": {
        "encoding": "mapping",
        "key": "t_address",
        "label": "mapping(address => bool)",
        "numberOfBytes": "32",
        "value": "t_bool"
      },
      "t_mapping(t_bytes32,t_struct(RoleData)65_storage)": {
        "encoding": "mapping",
        "key": "t_bytes32",
        "label": "mapping(bytes32 => struct AccessControl.RoleData)",
        "numberOfBytes": "32",
        "value": "t_struct(RoleData)65_storage"
      },
      "t_struct(RoleData)65_storage": {
        "encoding": "inplace",
        "label": "struct AccessControl.RoleData",
        "members": [
          {
            "astId": 62,
            "contract": "contracts/Utilities/Scrapper.sol:Scrapper",
            "label": "members",
            "offset": 0,
            "slot": "0",
            "type": "t_mapping(t_address,t_bool)"
          },
          {
            "astId": 64,
            "contract": "contracts/Utilities/Scrapper.sol:Scrapper",
            "label": "adminRole",
            "offset": 0,
            "slot": "1",
            "type": "t_bytes32"
          }
        ],
        "numberOfBytes": "64"
      },
      "t_uint256": {
        "encoding": "inplace",
        "label": "uint256",
        "numberOfBytes": "32"
      }
    }
  }
}