{
  "address": "0x5cFE343F1a069eAA089A56583E9446582a1ec479",
  "abi": [
    {
      "inputs": [
        {
          "internalType": "string",
          "name": "name",
          "type": "string"
        },
        {
          "internalType": "string",
          "name": "symbol",
          "type": "string"
        },
        {
          "internalType": "uint256",
          "name": "_initialSupply",
          "type": "uint256"
        },
        {
          "internalType": "address",
          "name": "_signer",
          "type": "address"
        }
      ],
      "stateMutability": "nonpayable",
      "type": "constructor"
    },
    {
      "anonymous": false,
      "inputs": [
        {
          "indexed": true,
          "internalType": "address",
          "name": "owner",
          "type": "address"
        },
        {
          "indexed": true,
          "internalType": "address",
          "name": "spender",
          "type": "address"
        },
        {
          "indexed": false,
          "internalType": "uint256",
          "name": "value",
          "type": "uint256"
        }
      ],
      "name": "Approval",
      "type": "event"
    },
    {
      "anonymous": false,
      "inputs": [
        {
          "indexed": false,
          "internalType": "address",
          "name": "user",
          "type": "address"
        },
        {
          "indexed": false,
          "internalType": "uint256",
          "name": "amount",
          "type": "uint256"
        }
      ],
      "name": "Claimed",
      "type": "event"
    },
    {
      "anonymous": false,
      "inputs": [
        {
          "indexed": false,
          "internalType": "address",
          "name": "account",
          "type": "address"
        }
      ],
      "name": "Paused",
      "type": "event"
    },
    {
      "anonymous": false,
      "inputs": [
        {
          "indexed": true,
          "internalType": "bytes32",
          "name": "role",
          "type": "bytes32"
        },
        {
          "indexed": true,
          "internalType": "bytes32",
          "name": "previousAdminRole",
          "type": "bytes32"
        },
        {
          "indexed": true,
          "internalType": "bytes32",
          "name": "newAdminRole",
          "type": "bytes32"
        }
      ],
      "name": "RoleAdminChanged",
      "type": "event"
    },
    {
      "anonymous": false,
      "inputs": [
        {
          "indexed": true,
          "internalType": "bytes32",
          "name": "role",
          "type": "bytes32"
        },
        {
          "indexed": true,
          "internalType": "address",
          "name": "account",
          "type": "address"
        },
        {
          "indexed": true,
          "internalType": "address",
          "name": "sender",
          "type": "address"
        }
      ],
      "name": "RoleGranted",
      "type": "event"
    },
    {
      "anonymous": false,
      "inputs": [
        {
          "indexed": true,
          "internalType": "bytes32",
          "name": "role",
          "type": "bytes32"
        },
        {
          "indexed": true,
          "internalType": "address",
          "name": "account",
          "type": "address"
        },
        {
          "indexed": true,
          "internalType": "address",
          "name": "sender",
          "type": "address"
        }
      ],
      "name": "RoleRevoked",
      "type": "event"
    },
    {
      "anonymous": false,
      "inputs": [
        {
          "indexed": true,
          "internalType": "address",
          "name": "from",
          "type": "address"
        },
        {
          "indexed": true,
          "internalType": "address",
          "name": "to",
          "type": "address"
        },
        {
          "indexed": false,
          "internalType": "uint256",
          "name": "value",
          "type": "uint256"
        }
      ],
      "name": "Transfer",
      "type": "event"
    },
    {
      "anonymous": false,
      "inputs": [
        {
          "indexed": false,
          "internalType": "address",
          "name": "account",
          "type": "address"
        }
      ],
      "name": "Unpaused",
      "type": "event"
    },
    {
      "inputs": [],
      "name": "CSTOKEN_TYPEHASH",
      "outputs": [
        {
          "internalType": "bytes32",
          "name": "",
          "type": "bytes32"
        }
      ],
      "stateMutability": "view",
      "type": "function"
    },
    {
      "inputs": [],
      "name": "DEFAULT_ADMIN_ROLE",
      "outputs": [
        {
          "internalType": "bytes32",
          "name": "",
          "type": "bytes32"
        }
      ],
      "stateMutability": "view",
      "type": "function"
    },
    {
      "inputs": [],
      "name": "MINTER_ROLE",
      "outputs": [
        {
          "internalType": "bytes32",
          "name": "",
          "type": "bytes32"
        }
      ],
      "stateMutability": "view",
      "type": "function"
    },
    {
      "inputs": [
        {
          "internalType": "address",
          "name": "owner",
          "type": "address"
        },
        {
          "internalType": "address",
          "name": "spender",
          "type": "address"
        }
      ],
      "name": "allowance",
      "outputs": [
        {
          "internalType": "uint256",
          "name": "",
          "type": "uint256"
        }
      ],
      "stateMutability": "view",
      "type": "function"
    },
    {
      "inputs": [
        {
          "internalType": "address",
          "name": "spender",
          "type": "address"
        },
        {
          "internalType": "uint256",
          "name": "amount",
          "type": "uint256"
        }
      ],
      "name": "approve",
      "outputs": [
        {
          "internalType": "bool",
          "name": "",
          "type": "bool"
        }
      ],
      "stateMutability": "nonpayable",
      "type": "function"
    },
    {
      "inputs": [
        {
          "internalType": "address",
          "name": "account",
          "type": "address"
        }
      ],
      "name": "balanceOf",
      "outputs": [
        {
          "internalType": "uint256",
          "name": "",
          "type": "uint256"
        }
      ],
      "stateMutability": "view",
      "type": "function"
    },
    {
      "inputs": [
        {
          "internalType": "uint256",
          "name": "amount",
          "type": "uint256"
        }
      ],
      "name": "burn",
      "outputs": [],
      "stateMutability": "nonpayable",
      "type": "function"
    },
    {
      "inputs": [
        {
          "internalType": "address",
          "name": "account",
          "type": "address"
        },
        {
          "internalType": "uint256",
          "name": "amount",
          "type": "uint256"
        }
      ],
      "name": "burnFrom",
      "outputs": [],
      "stateMutability": "nonpayable",
      "type": "function"
    },
    {
      "inputs": [
        {
          "internalType": "address",
          "name": "_to",
          "type": "address"
        },
        {
          "internalType": "uint256",
          "name": "_amount",
          "type": "uint256"
        }
      ],
      "name": "claim",
      "outputs": [],
      "stateMutability": "nonpayable",
      "type": "function"
    },
    {
      "inputs": [
        {
          "internalType": "uint256",
          "name": "_amount",
          "type": "uint256"
        },
        {
          "internalType": "uint256",
          "name": "_deadline",
          "type": "uint256"
        },
        {
          "internalType": "bytes",
          "name": "_signature",
          "type": "bytes"
        }
      ],
      "name": "claimSelf",
      "outputs": [],
      "stateMutability": "nonpayable",
      "type": "function"
    },
    {
      "inputs": [],
      "name": "decimals",
      "outputs": [
        {
          "internalType": "uint8",
          "name": "",
          "type": "uint8"
        }
      ],
      "stateMutability": "view",
      "type": "function"
    },
    {
      "inputs": [
        {
          "internalType": "address",
          "name": "spender",
          "type": "address"
        },
        {
          "internalType": "uint256",
          "name": "subtractedValue",
          "type": "uint256"
        }
      ],
      "name": "decreaseAllowance",
      "outputs": [
        {
          "internalType": "bool",
          "name": "",
          "type": "bool"
        }
      ],
      "stateMutability": "nonpayable",
      "type": "function"
    },
    {
      "inputs": [
        {
          "internalType": "bytes32",
          "name": "role",
          "type": "bytes32"
        }
      ],
      "name": "getRoleAdmin",
      "outputs": [
        {
          "internalType": "bytes32",
          "name": "",
          "type": "bytes32"
        }
      ],
      "stateMutability": "view",
      "type": "function"
    },
    {
      "inputs": [
        {
          "internalType": "bytes32",
          "name": "role",
          "type": "bytes32"
        },
        {
          "internalType": "address",
          "name": "account",
          "type": "address"
        }
      ],
      "name": "grantRole",
      "outputs": [],
      "stateMutability": "nonpayable",
      "type": "function"
    },
    {
      "inputs": [
        {
          "internalType": "bytes32",
          "name": "role",
          "type": "bytes32"
        },
        {
          "internalType": "address",
          "name": "account",
          "type": "address"
        }
      ],
      "name": "hasRole",
      "outputs": [
        {
          "internalType": "bool",
          "name": "",
          "type": "bool"
        }
      ],
      "stateMutability": "view",
      "type": "function"
    },
    {
      "inputs": [
        {
          "internalType": "address",
          "name": "spender",
          "type": "address"
        },
        {
          "internalType": "uint256",
          "name": "addedValue",
          "type": "uint256"
        }
      ],
      "name": "increaseAllowance",
      "outputs": [
        {
          "internalType": "bool",
          "name": "",
          "type": "bool"
        }
      ],
      "stateMutability": "nonpayable",
      "type": "function"
    },
    {
      "inputs": [],
      "name": "name",
      "outputs": [
        {
          "internalType": "string",
          "name": "",
          "type": "string"
        }
      ],
      "stateMutability": "view",
      "type": "function"
    },
    {
      "inputs": [
        {
          "internalType": "address",
          "name": "",
          "type": "address"
        }
      ],
      "name": "nonces",
      "outputs": [
        {
          "internalType": "uint256",
          "name": "",
          "type": "uint256"
        }
      ],
      "stateMutability": "view",
      "type": "function"
    },
    {
      "inputs": [],
      "name": "pause",
      "outputs": [],
      "stateMutability": "nonpayable",
      "type": "function"
    },
    {
      "inputs": [],
      "name": "paused",
      "outputs": [
        {
          "internalType": "bool",
          "name": "",
          "type": "bool"
        }
      ],
      "stateMutability": "view",
      "type": "function"
    },
    {
      "inputs": [
        {
          "internalType": "bytes32",
          "name": "role",
          "type": "bytes32"
        },
        {
          "internalType": "address",
          "name": "account",
          "type": "address"
        }
      ],
      "name": "renounceRole",
      "outputs": [],
      "stateMutability": "nonpayable",
      "type": "function"
    },
    {
      "inputs": [
        {
          "internalType": "bytes32",
          "name": "role",
          "type": "bytes32"
        },
        {
          "internalType": "address",
          "name": "account",
          "type": "address"
        }
      ],
      "name": "revokeRole",
      "outputs": [],
      "stateMutability": "nonpayable",
      "type": "function"
    },
    {
      "inputs": [
        {
          "internalType": "bytes4",
          "name": "interfaceId",
          "type": "bytes4"
        }
      ],
      "name": "supportsInterface",
      "outputs": [
        {
          "internalType": "bool",
          "name": "",
          "type": "bool"
        }
      ],
      "stateMutability": "view",
      "type": "function"
    },
    {
      "inputs": [],
      "name": "symbol",
      "outputs": [
        {
          "internalType": "string",
          "name": "",
          "type": "string"
        }
      ],
      "stateMutability": "view",
      "type": "function"
    },
    {
      "inputs": [],
      "name": "totalSupply",
      "outputs": [
        {
          "internalType": "uint256",
          "name": "",
          "type": "uint256"
        }
      ],
      "stateMutability": "view",
      "type": "function"
    },
    {
      "inputs": [
        {
          "internalType": "address",
          "name": "to",
          "type": "address"
        },
        {
          "internalType": "uint256",
          "name": "amount",
          "type": "uint256"
        }
      ],
      "name": "transfer",
      "outputs": [
        {
          "internalType": "bool",
          "name": "",
          "type": "bool"
        }
      ],
      "stateMutability": "nonpayable",
      "type": "function"
    },
    {
      "inputs": [
        {
          "internalType": "address",
          "name": "from",
          "type": "address"
        },
        {
          "internalType": "address",
          "name": "to",
          "type": "address"
        },
        {
          "internalType": "uint256",
          "name": "amount",
          "type": "uint256"
        }
      ],
      "name": "transferFrom",
      "outputs": [
        {
          "internalType": "bool",
          "name": "",
          "type": "bool"
        }
      ],
      "stateMutability": "nonpayable",
      "type": "function"
    },
    {
      "inputs": [],
      "name": "unpause",
      "outputs": [],
      "stateMutability": "nonpayable",
      "type": "function"
    },
    {
      "inputs": [
        {
          "internalType": "address",
          "name": "_signer",
          "type": "address"
        }
      ],
      "name": "updateSigner",
      "outputs": [],
      "stateMutability": "nonpayable",
      "type": "function"
    }
  ],
  "transactionHash": "0x45948e4316629be30615985ee58d5dd42f27b7a27c768a89c0620df092d19381",
  "args": [
    "Test Craft Spice",
    "TestCS",
    "10000000000000000000000",
    "0x7Ac410F4E36873022b57821D7a8EB3D7513C045a"
  ],
  "numDeployments": 1,
  "solcInputHash": "b7caf7116d2ec06d392c187715787bdb",
  "bytecode": "0x6101406040523480156200001257600080fd5b506040516200243e3803806200243e833981016040819052620000359162000584565b6040518060400160405280600781526020016621a9aa37b5b2b760c91b815250604051806040016040528060058152602001640312e302e360dc1b815250858581600390805190602001906200008d92919062000411565b508051620000a390600490602084019062000411565b5050825160208085019190912083518483012060e08290526101008190524660a0818152604080517f8b73c3c69bb8fe3d512ecc4cf759cc79239f7b179b0ffacaa9a75d522b39400f81880181905281830187905260608201869052608082019490945230818401528151808203909301835260c0019052805194019390932091935091906080523060c0526101205250506005805460ff19169055505060016007556001600160a01b0381166200015a57600080fd5b62000167600033620001c9565b620001937f9f2df0fed2c77648de5860a4cc508cd0818c85b8b8a1ab4ceeef8d981c8956a633620001c9565b6200019f3383620001d9565b600880546001600160a01b0319166001600160a01b0392909216919091179055506200067d915050565b620001d58282620002d0565b5050565b6001600160a01b038216620002355760405162461bcd60e51b815260206004820152601f60248201527f45524332303a206d696e7420746f20746865207a65726f20616464726573730060448201526064015b60405180910390fd5b620002436000838362000374565b806002600082825462000257919062000619565b90915550506001600160a01b038216600090815260208190526040812080548392906200028690849062000619565b90915550506040518181526001600160a01b038316906000907fddf252ad1be2c89b69c2b068fc378daa952ba7f163c4a11628f55a4df523b3ef9060200160405180910390a35050565b60008281526006602090815260408083206001600160a01b038516845290915290205460ff16620001d55760008281526006602090815260408083206001600160a01b03851684529091529020805460ff19166001179055620003303390565b6001600160a01b0316816001600160a01b0316837f2f8788117e7eff1d82e926ec794901d17c78024a50270940304540a733656f0d60405160405180910390a45050565b6200038c8383836200039160201b62000a241760201c565b505050565b620003a98383836200038c60201b6200072e1760201c565b60055460ff16156200038c5760405162461bcd60e51b815260206004820152602a60248201527f45524332305061757361626c653a20746f6b656e207472616e736665722077686044820152691a5b19481c185d5cd95960b21b60648201526084016200022c565b8280546200041f9062000640565b90600052602060002090601f0160209004810192826200044357600085556200048e565b82601f106200045e57805160ff19168380011785556200048e565b828001600101855582156200048e579182015b828111156200048e57825182559160200191906001019062000471565b506200049c929150620004a0565b5090565b5b808211156200049c5760008155600101620004a1565b634e487b7160e01b600052604160045260246000fd5b600082601f830112620004df57600080fd5b81516001600160401b0380821115620004fc57620004fc620004b7565b604051601f8301601f19908116603f01168101908282118183101715620005275762000527620004b7565b816040528381526020925086838588010111156200054457600080fd5b600091505b8382101562000568578582018301518183018401529082019062000549565b838211156200057a5760008385830101525b9695505050505050565b600080600080608085870312156200059b57600080fd5b84516001600160401b0380821115620005b357600080fd5b620005c188838901620004cd565b95506020870151915080821115620005d857600080fd5b50620005e787828801620004cd565b60408701516060880151919550935090506001600160a01b03811681146200060e57600080fd5b939692955090935050565b600082198211156200063b57634e487b7160e01b600052601160045260246000fd5b500190565b600181811c908216806200065557607f821691505b602082108114156200067757634e487b7160e01b600052602260045260246000fd5b50919050565b60805160a05160c05160e0516101005161012051611d71620006cd6000396000611470015260006114bf0152600061149a015260006113f30152600061141d015260006114470152611d716000f3fe608060405234801561001057600080fd5b50600436106101cf5760003560e01c80635c975abb11610104578063a217fddf116100a2578063aad3ec9611610071578063aad3ec96146103da578063d5391393146103ed578063d547741f14610414578063dd62ed3e1461042757600080fd5b8063a217fddf14610399578063a457c2d7146103a1578063a7ecd37e146103b4578063a9059cbb146103c757600080fd5b80637ecebe00116100de5780637ecebe00146103565780638456cb591461037657806391d148541461037e57806395d89b411461039157600080fd5b80635c975abb1461030f57806370a082311461031a57806379cc67901461034357600080fd5b8063248a9ca31161017157806336568abe1161014b57806336568abe146102ce57806339509351146102e15780633f4ba83a146102f457806342966c68146102fc57600080fd5b8063248a9ca3146102895780632f2ff15d146102ac578063313ce567146102bf57600080fd5b8063095ea7b3116101ad578063095ea7b3146102265780630baa4e511461023957806318160ddd1461026e57806323b872dd1461027657600080fd5b806301ee105a146101d457806301ffc9a7146101e957806306fdde0314610211575b600080fd5b6101e76101e236600461199e565b61043a565b005b6101fc6101f7366004611a1e565b610604565b60405190151581526020015b60405180910390f35b61021961063b565b6040516102089190611a74565b6101fc610234366004611ac3565b6106cd565b6102607f7f714c7cff70cc05f735355cbc68b89bb3fb8dfb9b9e5b650107ce97ff94ed3481565b604051908152602001610208565b600254610260565b6101fc610284366004611aed565b6106e5565b610260610297366004611b29565b60009081526006602052604090206001015490565b6101e76102ba366004611b42565b610709565b60405160128152602001610208565b6101e76102dc366004611b42565b610733565b6101fc6102ef366004611ac3565b6107b1565b6101e76107d3565b6101e761030a366004611b29565b6107e9565b60055460ff166101fc565b610260610328366004611b6e565b6001600160a01b031660009081526020819052604090205490565b6101e7610351366004611ac3565b6107f3565b610260610364366004611b6e565b60096020526000908152604090205481565b6101e7610808565b6101fc61038c366004611b42565b61081b565b610219610846565b610260600081565b6101fc6103af366004611ac3565b610855565b6101e76103c2366004611b6e565b6108d0565b6101fc6103d5366004611ac3565b61094b565b6101e76103e8366004611ac3565b610959565b6102607f9f2df0fed2c77648de5860a4cc508cd0818c85b8b8a1ab4ceeef8d981c8956a681565b6101e7610422366004611b42565b6109d4565b610260610435366004611b89565b6109f9565b600260075414156104925760405162461bcd60e51b815260206004820152601f60248201527f5265656e7472616e637947756172643a207265656e7472616e742063616c6c0060448201526064015b60405180910390fd5b6002600755428310156104de5760405162461bcd60e51b815260206004820152601460248201527310d4ce94da59db985d1d5c9948195e1c1a5c995960621b6044820152606401610489565b3360008181526009602052604090205461053a916104fe91879087610a8a565b83838080601f016020809104026020016040519081016040528093929190818152602001838380828437600092019190915250610b0892505050565b6105865760405162461bcd60e51b815260206004820181905260248201527f43533a496e76616c6964205369676e617475726520696e20636c61696d696e676044820152606401610489565b3360009081526009602052604081208054916105a183611bc9565b91905055506105b66105b03390565b85610b32565b7fd8138f8a3f377c5259ca548e70e4c2de94f129f5a11036a15b69513cba2b426a33604080516001600160a01b039092168252602082018790520160405180910390a1505060016007555050565b60006001600160e01b03198216637965db0b60e01b148061063557506301ffc9a760e01b6001600160e01b03198316145b92915050565b60606003805461064a90611be4565b80601f016020809104026020016040519081016040528092919081815260200182805461067690611be4565b80156106c35780601f10610698576101008083540402835291602001916106c3565b820191906000526020600020905b8154815290600101906020018083116106a657829003601f168201915b5050505050905090565b6000336106db818585610c1d565b5060019392505050565b6000336106f3858285610d41565b6106fe858585610dbb565b506001949350505050565b60008281526006602052604090206001015461072481610f94565b61072e8383610f9e565b505050565b6001600160a01b03811633146107a35760405162461bcd60e51b815260206004820152602f60248201527f416363657373436f6e74726f6c3a2063616e206f6e6c792072656e6f756e636560448201526e103937b632b9903337b91039b2b63360891b6064820152608401610489565b6107ad8282611024565b5050565b6000336106db8185856107c483836109f9565b6107ce9190611c1f565b610c1d565b60006107de81610f94565b6107e661108b565b50565b6107e633826110dd565b6107fe823383610d41565b6107ad82826110dd565b600061081381610f94565b6107e6611237565b60009182526006602090815260408084206001600160a01b0393909316845291905290205460ff1690565b60606004805461064a90611be4565b6000338161086382866109f9565b9050838110156108c35760405162461bcd60e51b815260206004820152602560248201527f45524332303a2064656372656173656420616c6c6f77616e63652062656c6f77604482015264207a65726f60d81b6064820152608401610489565b6106fe8286868403610c1d565b60006108db81610f94565b6001600160a01b0382166109285760405162461bcd60e51b81526020600482015260146024820152737369676e65722063616e2774206265207a65726f60601b6044820152606401610489565b50600880546001600160a01b0319166001600160a01b0392909216919091179055565b6000336106db818585610dbb565b7f9f2df0fed2c77648de5860a4cc508cd0818c85b8b8a1ab4ceeef8d981c8956a661098381610f94565b61098d8383610b32565b604080516001600160a01b0385168152602081018490527fd8138f8a3f377c5259ca548e70e4c2de94f129f5a11036a15b69513cba2b426a910160405180910390a1505050565b6000828152600660205260409020600101546109ef81610f94565b61072e8383611024565b6001600160a01b03918216600090815260016020908152604080832093909416825291909152205490565b60055460ff161561072e5760405162461bcd60e51b815260206004820152602a60248201527f45524332305061757361626c653a20746f6b656e207472616e736665722077686044820152691a5b19481c185d5cd95960b21b6064820152608401610489565b604080517f7f714c7cff70cc05f735355cbc68b89bb3fb8dfb9b9e5b650107ce97ff94ed3460208201526001600160a01b03861691810191909152606081018490526080810183905260a08101829052600090610aff9060c00160405160208183030381529060405280519060200120611274565b95945050505050565b6008546000906001600160a01b0316610b2184846112c2565b6001600160a01b0316149392505050565b6001600160a01b038216610b885760405162461bcd60e51b815260206004820152601f60248201527f45524332303a206d696e7420746f20746865207a65726f2061646472657373006044820152606401610489565b610b94600083836112e6565b8060026000828254610ba69190611c1f565b90915550506001600160a01b03821660009081526020819052604081208054839290610bd3908490611c1f565b90915550506040518181526001600160a01b038316906000907fddf252ad1be2c89b69c2b068fc378daa952ba7f163c4a11628f55a4df523b3ef9060200160405180910390a35050565b6001600160a01b038316610c7f5760405162461bcd60e51b8152602060048201526024808201527f45524332303a20617070726f76652066726f6d20746865207a65726f206164646044820152637265737360e01b6064820152608401610489565b6001600160a01b038216610ce05760405162461bcd60e51b815260206004820152602260248201527f45524332303a20617070726f766520746f20746865207a65726f206164647265604482015261737360f01b6064820152608401610489565b6001600160a01b0383811660008181526001602090815260408083209487168084529482529182902085905590518481527f8c5be1e5ebec7d5bd14f71427d1e84f3dd0314c0f7b2291e5b200ac8c7c3b925910160405180910390a3505050565b6000610d4d84846109f9565b90506000198114610db55781811015610da85760405162461bcd60e51b815260206004820152601d60248201527f45524332303a20696e73756666696369656e7420616c6c6f77616e63650000006044820152606401610489565b610db58484848403610c1d565b50505050565b6001600160a01b038316610e1f5760405162461bcd60e51b815260206004820152602560248201527f45524332303a207472616e736665722066726f6d20746865207a65726f206164604482015264647265737360d81b6064820152608401610489565b6001600160a01b038216610e815760405162461bcd60e51b815260206004820152602360248201527f45524332303a207472616e7366657220746f20746865207a65726f206164647260448201526265737360e81b6064820152608401610489565b610e8c8383836112e6565b6001600160a01b03831660009081526020819052604090205481811015610f045760405162461bcd60e51b815260206004820152602660248201527f45524332303a207472616e7366657220616d6f756e7420657863656564732062604482015265616c616e636560d01b6064820152608401610489565b6001600160a01b03808516600090815260208190526040808220858503905591851681529081208054849290610f3b908490611c1f565b92505081905550826001600160a01b0316846001600160a01b03167fddf252ad1be2c89b69c2b068fc378daa952ba7f163c4a11628f55a4df523b3ef84604051610f8791815260200190565b60405180910390a3610db5565b6107e681336112f1565b610fa8828261081b565b6107ad5760008281526006602090815260408083206001600160a01b03851684529091529020805460ff19166001179055610fe03390565b6001600160a01b0316816001600160a01b0316837f2f8788117e7eff1d82e926ec794901d17c78024a50270940304540a733656f0d60405160405180910390a45050565b61102e828261081b565b156107ad5760008281526006602090815260408083206001600160a01b0385168085529252808320805460ff1916905551339285917ff6391f5c32d9c69d2a47ea670b442974b53935d1edc7fd64eb21e047a839171b9190a45050565b611093611355565b6005805460ff191690557f5db9ee0a495bf2e6ff9c91a7834c1ba4fdd244a5e8aa4e537bd38aeae4b073aa335b6040516001600160a01b03909116815260200160405180910390a1565b6001600160a01b03821661113d5760405162461bcd60e51b815260206004820152602160248201527f45524332303a206275726e2066726f6d20746865207a65726f206164647265736044820152607360f81b6064820152608401610489565b611149826000836112e6565b6001600160a01b038216600090815260208190526040902054818110156111bd5760405162461bcd60e51b815260206004820152602260248201527f45524332303a206275726e20616d6f756e7420657863656564732062616c616e604482015261636560f01b6064820152608401610489565b6001600160a01b03831660009081526020819052604081208383039055600280548492906111ec908490611c37565b90915550506040518281526000906001600160a01b038516907fddf252ad1be2c89b69c2b068fc378daa952ba7f163c4a11628f55a4df523b3ef9060200160405180910390a3505050565b61123f6113a0565b6005805460ff191660011790557f62e78cea01bee320cd4e420270b5ea74000d11b0c9f74754ebdbfc544b05a2586110c03390565b60006106356112816113e6565b8360405161190160f01b6020820152602281018390526042810182905260009060620160405160208183030381529060405280519060200120905092915050565b60008060006112d1858561150d565b915091506112de81611553565b509392505050565b61072e838383610a24565b6112fb828261081b565b6107ad57611313816001600160a01b0316601461170e565b61131e83602061170e565b60405160200161132f929190611c4e565b60408051601f198184030181529082905262461bcd60e51b825261048991600401611a74565b60055460ff1661139e5760405162461bcd60e51b815260206004820152601460248201527314185d5cd8589b194e881b9bdd081c185d5cd95960621b6044820152606401610489565b565b60055460ff161561139e5760405162461bcd60e51b815260206004820152601060248201526f14185d5cd8589b194e881c185d5cd95960821b6044820152606401610489565b6000306001600160a01b037f00000000000000000000000000000000000000000000000000000000000000001614801561143f57507f000000000000000000000000000000000000000000000000000000000000000046145b1561146957507f000000000000000000000000000000000000000000000000000000000000000090565b50604080517f00000000000000000000000000000000000000000000000000000000000000006020808301919091527f0000000000000000000000000000000000000000000000000000000000000000828401527f000000000000000000000000000000000000000000000000000000000000000060608301524660808301523060a0808401919091528351808403909101815260c0909201909252805191012090565b6000808251604114156115445760208301516040840151606085015160001a611538878285856118b1565b9450945050505061154c565b506000905060025b9250929050565b600081600481111561156757611567611cc3565b14156115705750565b600181600481111561158457611584611cc3565b14156115d25760405162461bcd60e51b815260206004820152601860248201527f45434453413a20696e76616c6964207369676e617475726500000000000000006044820152606401610489565b60028160048111156115e6576115e6611cc3565b14156116345760405162461bcd60e51b815260206004820152601f60248201527f45434453413a20696e76616c6964207369676e6174757265206c656e677468006044820152606401610489565b600381600481111561164857611648611cc3565b14156116a15760405162461bcd60e51b815260206004820152602260248201527f45434453413a20696e76616c6964207369676e6174757265202773272076616c604482015261756560f01b6064820152608401610489565b60048160048111156116b5576116b5611cc3565b14156107e65760405162461bcd60e51b815260206004820152602260248201527f45434453413a20696e76616c6964207369676e6174757265202776272076616c604482015261756560f01b6064820152608401610489565b6060600061171d836002611cd9565b611728906002611c1f565b67ffffffffffffffff81111561174057611740611cf8565b6040519080825280601f01601f19166020018201604052801561176a576020820181803683370190505b509050600360fc1b8160008151811061178557611785611d0e565b60200101906001600160f81b031916908160001a905350600f60fb1b816001815181106117b4576117b4611d0e565b60200101906001600160f81b031916908160001a90535060006117d8846002611cd9565b6117e3906001611c1f565b90505b600181111561185b576f181899199a1a9b1b9c1cb0b131b232b360811b85600f166010811061181757611817611d0e565b1a60f81b82828151811061182d5761182d611d0e565b60200101906001600160f81b031916908160001a90535060049490941c9361185481611d24565b90506117e6565b5083156118aa5760405162461bcd60e51b815260206004820181905260248201527f537472696e67733a20686578206c656e67746820696e73756666696369656e746044820152606401610489565b9392505050565b6000807f7fffffffffffffffffffffffffffffff5d576e7357a4501ddfe92f46681b20a08311156118e85750600090506003611995565b8460ff16601b1415801561190057508460ff16601c14155b156119115750600090506004611995565b6040805160008082526020820180845289905260ff881692820192909252606081018690526080810185905260019060a0016020604051602081039080840390855afa158015611965573d6000803e3d6000fd5b5050604051601f1901519150506001600160a01b03811661198e57600060019250925050611995565b9150600090505b94509492505050565b600080600080606085870312156119b457600080fd5b8435935060208501359250604085013567ffffffffffffffff808211156119da57600080fd5b818701915087601f8301126119ee57600080fd5b8135818111156119fd57600080fd5b886020828501011115611a0f57600080fd5b95989497505060200194505050565b600060208284031215611a3057600080fd5b81356001600160e01b0319811681146118aa57600080fd5b60005b83811015611a63578181015183820152602001611a4b565b83811115610db55750506000910152565b6020815260008251806020840152611a93816040850160208701611a48565b601f01601f19169190910160400192915050565b80356001600160a01b0381168114611abe57600080fd5b919050565b60008060408385031215611ad657600080fd5b611adf83611aa7565b946020939093013593505050565b600080600060608486031215611b0257600080fd5b611b0b84611aa7565b9250611b1960208501611aa7565b9150604084013590509250925092565b600060208284031215611b3b57600080fd5b5035919050565b60008060408385031215611b5557600080fd5b82359150611b6560208401611aa7565b90509250929050565b600060208284031215611b8057600080fd5b6118aa82611aa7565b60008060408385031215611b9c57600080fd5b611ba583611aa7565b9150611b6560208401611aa7565b634e487b7160e01b600052601160045260246000fd5b6000600019821415611bdd57611bdd611bb3565b5060010190565b600181811c90821680611bf857607f821691505b60208210811415611c1957634e487b7160e01b600052602260045260246000fd5b50919050565b60008219821115611c3257611c32611bb3565b500190565b600082821015611c4957611c49611bb3565b500390565b7f416363657373436f6e74726f6c3a206163636f756e7420000000000000000000815260008351611c86816017850160208801611a48565b7001034b99036b4b9b9b4b733903937b6329607d1b6017918401918201528351611cb7816028840160208801611a48565b01602801949350505050565b634e487b7160e01b600052602160045260246000fd5b6000816000190483118215151615611cf357611cf3611bb3565b500290565b634e487b7160e01b600052604160045260246000fd5b634e487b7160e01b600052603260045260246000fd5b600081611d3357611d33611bb3565b50600019019056fea2646970667358221220964d8fec662e0d4dda4592f78ff80e34aa1e1003b7aec702f840db36a5ed264a64736f6c63430008090033",
  "devdoc": {
    "details": "Based on OpenZeppelin Contracts.",
    "kind": "dev",
    "methods": {
      "allowance(address,address)": {
        "details": "See {IERC20-allowance}."
      },
      "approve(address,uint256)": {
        "details": "See {IERC20-approve}. NOTE: If `amount` is the maximum `uint256`, the allowance is not updated on `transferFrom`. This is semantically equivalent to an infinite approval. Requirements: - `spender` cannot be the zero address."
      },
      "balanceOf(address)": {
        "details": "See {IERC20-balanceOf}."
      },
      "burn(uint256)": {
        "details": "Destroys `amount` tokens from the caller. See {ERC20-_burn}."
      },
      "burnFrom(address,uint256)": {
        "details": "Destroys `amount` tokens from `account`, deducting from the caller's allowance. See {ERC20-_burn} and {ERC20-allowance}. Requirements: - the caller must have allowance for ``accounts``'s tokens of at least `amount`."
      },
      "claim(address,uint256)": {
        "params": {
          "_amount": "Token Amount",
          "_to": "Target Address"
        }
      },
      "claimSelf(uint256,uint256,bytes)": {
        "params": {
          "_amount": "Token Amount",
          "_deadline": "Deadline",
          "_signature": "Generated by admin"
        }
      },
      "constructor": {
        "details": "Creates the token and setup the initial supply and the Admin Role.",
        "params": {
          "_initialSupply": "Initial Supply",
          "name": "Name of the Token",
          "symbol": "Symbol of the token"
        }
      },
      "decimals()": {
        "details": "Returns the number of decimals used to get its user representation. For example, if `decimals` equals `2`, a balance of `505` tokens should be displayed to a user as `5.05` (`505 / 10 ** 2`). Tokens usually opt for a value of 18, imitating the relationship between Ether and Wei. This is the value {ERC20} uses, unless this function is overridden; NOTE: This information is only used for _display_ purposes: it in no way affects any of the arithmetic of the contract, including {IERC20-balanceOf} and {IERC20-transfer}."
      },
      "decreaseAllowance(address,uint256)": {
        "details": "Atomically decreases the allowance granted to `spender` by the caller. This is an alternative to {approve} that can be used as a mitigation for problems described in {IERC20-approve}. Emits an {Approval} event indicating the updated allowance. Requirements: - `spender` cannot be the zero address. - `spender` must have allowance for the caller of at least `subtractedValue`."
      },
      "getRoleAdmin(bytes32)": {
        "details": "Returns the admin role that controls `role`. See {grantRole} and {revokeRole}. To change a role's admin, use {_setRoleAdmin}."
      },
      "grantRole(bytes32,address)": {
        "details": "Grants `role` to `account`. If `account` had not been already granted `role`, emits a {RoleGranted} event. Requirements: - the caller must have ``role``'s admin role. May emit a {RoleGranted} event."
      },
      "hasRole(bytes32,address)": {
        "details": "Returns `true` if `account` has been granted `role`."
      },
      "increaseAllowance(address,uint256)": {
        "details": "Atomically increases the allowance granted to `spender` by the caller. This is an alternative to {approve} that can be used as a mitigation for problems described in {IERC20-approve}. Emits an {Approval} event indicating the updated allowance. Requirements: - `spender` cannot be the zero address."
      },
      "name()": {
        "details": "Returns the name of the token."
      },
      "pause()": {
        "details": "It stops transfer from happening. Only Owner can call it."
      },
      "paused()": {
        "details": "Returns true if the contract is paused, and false otherwise."
      },
      "renounceRole(bytes32,address)": {
        "details": "Revokes `role` from the calling account. Roles are often managed via {grantRole} and {revokeRole}: this function's purpose is to provide a mechanism for accounts to lose their privileges if they are compromised (such as when a trusted device is misplaced). If the calling account had been revoked `role`, emits a {RoleRevoked} event. Requirements: - the caller must be `account`. May emit a {RoleRevoked} event."
      },
      "revokeRole(bytes32,address)": {
        "details": "Revokes `role` from `account`. If `account` had been granted `role`, emits a {RoleRevoked} event. Requirements: - the caller must have ``role``'s admin role. May emit a {RoleRevoked} event."
      },
      "supportsInterface(bytes4)": {
        "details": "See {IERC165-supportsInterface}."
      },
      "symbol()": {
        "details": "Returns the symbol of the token, usually a shorter version of the name."
      },
      "totalSupply()": {
        "details": "See {IERC20-totalSupply}."
      },
      "transfer(address,uint256)": {
        "details": "See {IERC20-transfer}. Requirements: - `to` cannot be the zero address. - the caller must have a balance of at least `amount`."
      },
      "transferFrom(address,address,uint256)": {
        "details": "See {IERC20-transferFrom}. Emits an {Approval} event indicating the updated allowance. This is not required by the EIP. See the note at the beginning of {ERC20}. NOTE: Does not update the allowance if the current allowance is the maximum `uint256`. Requirements: - `from` and `to` cannot be the zero address. - `from` must have a balance of at least `amount`. - the caller must have allowance for ``from``'s tokens of at least `amount`."
      },
      "unpause()": {
        "details": "Transfers are possible again. Only Owner can call it."
      }
    },
    "title": "Blast Royale Token - Secondary Token",
    "version": 1
  },
  "userdoc": {
    "kind": "user",
    "methods": {
      "claim(address,uint256)": {
        "notice": "Mint new tokens"
      },
      "claimSelf(uint256,uint256,bytes)": {
        "notice": "Mint new tokens"
      },
      "constructor": {
        "notice": "Token constructor"
      },
      "pause()": {
        "notice": "Pauses the contract"
      },
      "unpause()": {
        "notice": "Unpauses the contract"
      }
    },
    "version": 1
  },
  "storageLayout": {
    "storage": [
      {
        "astId": 715,
        "contract": "contracts/SecondaryToken.sol:SecondaryToken",
        "label": "_balances",
        "offset": 0,
        "slot": "0",
        "type": "t_mapping(t_address,t_uint256)"
      },
      {
        "astId": 721,
        "contract": "contracts/SecondaryToken.sol:SecondaryToken",
        "label": "_allowances",
        "offset": 0,
        "slot": "1",
        "type": "t_mapping(t_address,t_mapping(t_address,t_uint256))"
      },
      {
        "astId": 723,
        "contract": "contracts/SecondaryToken.sol:SecondaryToken",
        "label": "_totalSupply",
        "offset": 0,
        "slot": "2",
        "type": "t_uint256"
      },
      {
        "astId": 725,
        "contract": "contracts/SecondaryToken.sol:SecondaryToken",
        "label": "_name",
        "offset": 0,
        "slot": "3",
        "type": "t_string_storage"
      },
      {
        "astId": 727,
        "contract": "contracts/SecondaryToken.sol:SecondaryToken",
        "label": "_symbol",
        "offset": 0,
        "slot": "4",
        "type": "t_string_storage"
      },
      {
        "astId": 569,
        "contract": "contracts/SecondaryToken.sol:SecondaryToken",
        "label": "_paused",
        "offset": 0,
        "slot": "5",
        "type": "t_bool"
      },
      {
        "astId": 70,
        "contract": "contracts/SecondaryToken.sol:SecondaryToken",
        "label": "_roles",
        "offset": 0,
        "slot": "6",
        "type": "t_mapping(t_bytes32,t_struct(RoleData)65_storage)"
      },
      {
        "astId": 670,
        "contract": "contracts/SecondaryToken.sol:SecondaryToken",
        "label": "_status",
        "offset": 0,
        "slot": "7",
        "type": "t_uint256"
      },
      {
        "astId": 10267,
        "contract": "contracts/SecondaryToken.sol:SecondaryToken",
        "label": "signer",
        "offset": 0,
        "slot": "8",
        "type": "t_address"
      },
      {
        "astId": 10271,
        "contract": "contracts/SecondaryToken.sol:SecondaryToken",
        "label": "nonces",
        "offset": 0,
        "slot": "9",
        "type": "t_mapping(t_address,t_uint256)"
      }
    ],
    "types": {
      "t_address": {
        "encoding": "inplace",
        "label": "address",
        "numberOfBytes": "20"
      },
      "t_bool": {
        "encoding": "inplace",
        "label": "bool",
        "numberOfBytes": "1"
      },
      "t_bytes32": {
        "encoding": "inplace",
        "label": "bytes32",
        "numberOfBytes": "32"
      },
      "t_mapping(t_address,t_bool)": {
        "encoding": "mapping",
        "key": "t_address",
        "label": "mapping(address => bool)",
        "numberOfBytes": "32",
        "value": "t_bool"
      },
      "t_mapping(t_address,t_mapping(t_address,t_uint256))": {
        "encoding": "mapping",
        "key": "t_address",
        "label": "mapping(address => mapping(address => uint256))",
        "numberOfBytes": "32",
        "value": "t_mapping(t_address,t_uint256)"
      },
      "t_mapping(t_address,t_uint256)": {
        "encoding": "mapping",
        "key": "t_address",
        "label": "mapping(address => uint256)",
        "numberOfBytes": "32",
        "value": "t_uint256"
      },
      "t_mapping(t_bytes32,t_struct(RoleData)65_storage)": {
        "encoding": "mapping",
        "key": "t_bytes32",
        "label": "mapping(bytes32 => struct AccessControl.RoleData)",
        "numberOfBytes": "32",
        "value": "t_struct(RoleData)65_storage"
      },
      "t_string_storage": {
        "encoding": "bytes",
        "label": "string",
        "numberOfBytes": "32"
      },
      "t_struct(RoleData)65_storage": {
        "encoding": "inplace",
        "label": "struct AccessControl.RoleData",
        "members": [
          {
            "astId": 62,
            "contract": "contracts/SecondaryToken.sol:SecondaryToken",
            "label": "members",
            "offset": 0,
            "slot": "0",
            "type": "t_mapping(t_address,t_bool)"
          },
          {
            "astId": 64,
            "contract": "contracts/SecondaryToken.sol:SecondaryToken",
            "label": "adminRole",
            "offset": 0,
            "slot": "1",
            "type": "t_bytes32"
          }
        ],
        "numberOfBytes": "64"
      },
      "t_uint256": {
        "encoding": "inplace",
        "label": "uint256",
        "numberOfBytes": "32"
      }
    }
  }
}