{
  "address": "0x8a7EF0754Cfd4Ebc6a773DbC41f77F645c751690",
  "abi": [
    {
      "inputs": [
        {
          "internalType": "string",
          "name": "name",
          "type": "string"
        },
        {
          "internalType": "string",
          "name": "symbol",
          "type": "string"
        },
        {
          "internalType": "uint256",
          "name": "_initialSupply",
          "type": "uint256"
        },
        {
          "internalType": "address",
          "name": "_signer",
          "type": "address"
        }
      ],
      "stateMutability": "nonpayable",
      "type": "constructor"
    },
    {
      "anonymous": false,
      "inputs": [
        {
          "indexed": true,
          "internalType": "address",
          "name": "owner",
          "type": "address"
        },
        {
          "indexed": true,
          "internalType": "address",
          "name": "spender",
          "type": "address"
        },
        {
          "indexed": false,
          "internalType": "uint256",
          "name": "value",
          "type": "uint256"
        }
      ],
      "name": "Approval",
      "type": "event"
    },
    {
      "anonymous": false,
      "inputs": [
        {
          "indexed": false,
          "internalType": "address",
          "name": "user",
          "type": "address"
        },
        {
          "indexed": false,
          "internalType": "uint256",
          "name": "amount",
          "type": "uint256"
        }
      ],
      "name": "Claimed",
      "type": "event"
    },
    {
      "anonymous": false,
      "inputs": [
        {
          "indexed": false,
          "internalType": "address",
          "name": "account",
          "type": "address"
        }
      ],
      "name": "Paused",
      "type": "event"
    },
    {
      "anonymous": false,
      "inputs": [
        {
          "indexed": true,
          "internalType": "bytes32",
          "name": "role",
          "type": "bytes32"
        },
        {
          "indexed": true,
          "internalType": "bytes32",
          "name": "previousAdminRole",
          "type": "bytes32"
        },
        {
          "indexed": true,
          "internalType": "bytes32",
          "name": "newAdminRole",
          "type": "bytes32"
        }
      ],
      "name": "RoleAdminChanged",
      "type": "event"
    },
    {
      "anonymous": false,
      "inputs": [
        {
          "indexed": true,
          "internalType": "bytes32",
          "name": "role",
          "type": "bytes32"
        },
        {
          "indexed": true,
          "internalType": "address",
          "name": "account",
          "type": "address"
        },
        {
          "indexed": true,
          "internalType": "address",
          "name": "sender",
          "type": "address"
        }
      ],
      "name": "RoleGranted",
      "type": "event"
    },
    {
      "anonymous": false,
      "inputs": [
        {
          "indexed": true,
          "internalType": "bytes32",
          "name": "role",
          "type": "bytes32"
        },
        {
          "indexed": true,
          "internalType": "address",
          "name": "account",
          "type": "address"
        },
        {
          "indexed": true,
          "internalType": "address",
          "name": "sender",
          "type": "address"
        }
      ],
      "name": "RoleRevoked",
      "type": "event"
    },
    {
      "anonymous": false,
      "inputs": [
        {
          "indexed": true,
          "internalType": "address",
          "name": "from",
          "type": "address"
        },
        {
          "indexed": true,
          "internalType": "address",
          "name": "to",
          "type": "address"
        },
        {
          "indexed": false,
          "internalType": "uint256",
          "name": "value",
          "type": "uint256"
        }
      ],
      "name": "Transfer",
      "type": "event"
    },
    {
      "anonymous": false,
      "inputs": [
        {
          "indexed": false,
          "internalType": "address",
          "name": "account",
          "type": "address"
        }
      ],
      "name": "Unpaused",
      "type": "event"
    },
    {
      "inputs": [],
      "name": "CSTOKEN_TYPEHASH",
      "outputs": [
        {
          "internalType": "bytes32",
          "name": "",
          "type": "bytes32"
        }
      ],
      "stateMutability": "view",
      "type": "function"
    },
    {
      "inputs": [],
      "name": "DEFAULT_ADMIN_ROLE",
      "outputs": [
        {
          "internalType": "bytes32",
          "name": "",
          "type": "bytes32"
        }
      ],
      "stateMutability": "view",
      "type": "function"
    },
    {
      "inputs": [],
      "name": "MINTER_ROLE",
      "outputs": [
        {
          "internalType": "bytes32",
          "name": "",
          "type": "bytes32"
        }
      ],
      "stateMutability": "view",
      "type": "function"
    },
    {
      "inputs": [
        {
          "internalType": "address",
          "name": "owner",
          "type": "address"
        },
        {
          "internalType": "address",
          "name": "spender",
          "type": "address"
        }
      ],
      "name": "allowance",
      "outputs": [
        {
          "internalType": "uint256",
          "name": "",
          "type": "uint256"
        }
      ],
      "stateMutability": "view",
      "type": "function"
    },
    {
      "inputs": [
        {
          "internalType": "address",
          "name": "spender",
          "type": "address"
        },
        {
          "internalType": "uint256",
          "name": "amount",
          "type": "uint256"
        }
      ],
      "name": "approve",
      "outputs": [
        {
          "internalType": "bool",
          "name": "",
          "type": "bool"
        }
      ],
      "stateMutability": "nonpayable",
      "type": "function"
    },
    {
      "inputs": [
        {
          "internalType": "address",
          "name": "account",
          "type": "address"
        }
      ],
      "name": "balanceOf",
      "outputs": [
        {
          "internalType": "uint256",
          "name": "",
          "type": "uint256"
        }
      ],
      "stateMutability": "view",
      "type": "function"
    },
    {
      "inputs": [
        {
          "internalType": "uint256",
          "name": "amount",
          "type": "uint256"
        }
      ],
      "name": "burn",
      "outputs": [],
      "stateMutability": "nonpayable",
      "type": "function"
    },
    {
      "inputs": [
        {
          "internalType": "address",
          "name": "account",
          "type": "address"
        },
        {
          "internalType": "uint256",
          "name": "amount",
          "type": "uint256"
        }
      ],
      "name": "burnFrom",
      "outputs": [],
      "stateMutability": "nonpayable",
      "type": "function"
    },
    {
      "inputs": [
        {
          "internalType": "address",
          "name": "_to",
          "type": "address"
        },
        {
          "internalType": "uint256",
          "name": "_amount",
          "type": "uint256"
        }
      ],
      "name": "claim",
      "outputs": [],
      "stateMutability": "nonpayable",
      "type": "function"
    },
    {
      "inputs": [
        {
          "internalType": "uint256",
          "name": "_amount",
          "type": "uint256"
        },
        {
          "internalType": "uint256",
          "name": "_deadline",
          "type": "uint256"
        },
        {
          "internalType": "bytes",
          "name": "_signature",
          "type": "bytes"
        }
      ],
      "name": "claimSelf",
      "outputs": [],
      "stateMutability": "nonpayable",
      "type": "function"
    },
    {
      "inputs": [],
      "name": "decimals",
      "outputs": [
        {
          "internalType": "uint8",
          "name": "",
          "type": "uint8"
        }
      ],
      "stateMutability": "view",
      "type": "function"
    },
    {
      "inputs": [
        {
          "internalType": "address",
          "name": "spender",
          "type": "address"
        },
        {
          "internalType": "uint256",
          "name": "subtractedValue",
          "type": "uint256"
        }
      ],
      "name": "decreaseAllowance",
      "outputs": [
        {
          "internalType": "bool",
          "name": "",
          "type": "bool"
        }
      ],
      "stateMutability": "nonpayable",
      "type": "function"
    },
    {
      "inputs": [
        {
          "internalType": "bytes32",
          "name": "role",
          "type": "bytes32"
        }
      ],
      "name": "getRoleAdmin",
      "outputs": [
        {
          "internalType": "bytes32",
          "name": "",
          "type": "bytes32"
        }
      ],
      "stateMutability": "view",
      "type": "function"
    },
    {
      "inputs": [
        {
          "internalType": "bytes32",
          "name": "role",
          "type": "bytes32"
        },
        {
          "internalType": "address",
          "name": "account",
          "type": "address"
        }
      ],
      "name": "grantRole",
      "outputs": [],
      "stateMutability": "nonpayable",
      "type": "function"
    },
    {
      "inputs": [
        {
          "internalType": "bytes32",
          "name": "role",
          "type": "bytes32"
        },
        {
          "internalType": "address",
          "name": "account",
          "type": "address"
        }
      ],
      "name": "hasRole",
      "outputs": [
        {
          "internalType": "bool",
          "name": "",
          "type": "bool"
        }
      ],
      "stateMutability": "view",
      "type": "function"
    },
    {
      "inputs": [
        {
          "internalType": "address",
          "name": "spender",
          "type": "address"
        },
        {
          "internalType": "uint256",
          "name": "addedValue",
          "type": "uint256"
        }
      ],
      "name": "increaseAllowance",
      "outputs": [
        {
          "internalType": "bool",
          "name": "",
          "type": "bool"
        }
      ],
      "stateMutability": "nonpayable",
      "type": "function"
    },
    {
      "inputs": [],
      "name": "name",
      "outputs": [
        {
          "internalType": "string",
          "name": "",
          "type": "string"
        }
      ],
      "stateMutability": "view",
      "type": "function"
    },
    {
      "inputs": [
        {
          "internalType": "address",
          "name": "",
          "type": "address"
        }
      ],
      "name": "nonces",
      "outputs": [
        {
          "internalType": "uint256",
          "name": "",
          "type": "uint256"
        }
      ],
      "stateMutability": "view",
      "type": "function"
    },
    {
      "inputs": [
        {
          "internalType": "bool",
          "name": "stop",
          "type": "bool"
        }
      ],
      "name": "pause",
      "outputs": [],
      "stateMutability": "nonpayable",
      "type": "function"
    },
    {
      "inputs": [],
      "name": "paused",
      "outputs": [
        {
          "internalType": "bool",
          "name": "",
          "type": "bool"
        }
      ],
      "stateMutability": "view",
      "type": "function"
    },
    {
      "inputs": [
        {
          "internalType": "bytes32",
          "name": "role",
          "type": "bytes32"
        },
        {
          "internalType": "address",
          "name": "account",
          "type": "address"
        }
      ],
      "name": "renounceRole",
      "outputs": [],
      "stateMutability": "nonpayable",
      "type": "function"
    },
    {
      "inputs": [
        {
          "internalType": "bytes32",
          "name": "role",
          "type": "bytes32"
        },
        {
          "internalType": "address",
          "name": "account",
          "type": "address"
        }
      ],
      "name": "revokeRole",
      "outputs": [],
      "stateMutability": "nonpayable",
      "type": "function"
    },
    {
      "inputs": [
        {
          "internalType": "bytes4",
          "name": "interfaceId",
          "type": "bytes4"
        }
      ],
      "name": "supportsInterface",
      "outputs": [
        {
          "internalType": "bool",
          "name": "",
          "type": "bool"
        }
      ],
      "stateMutability": "view",
      "type": "function"
    },
    {
      "inputs": [],
      "name": "symbol",
      "outputs": [
        {
          "internalType": "string",
          "name": "",
          "type": "string"
        }
      ],
      "stateMutability": "view",
      "type": "function"
    },
    {
      "inputs": [],
      "name": "totalSupply",
      "outputs": [
        {
          "internalType": "uint256",
          "name": "",
          "type": "uint256"
        }
      ],
      "stateMutability": "view",
      "type": "function"
    },
    {
      "inputs": [
        {
          "internalType": "address",
          "name": "to",
          "type": "address"
        },
        {
          "internalType": "uint256",
          "name": "amount",
          "type": "uint256"
        }
      ],
      "name": "transfer",
      "outputs": [
        {
          "internalType": "bool",
          "name": "",
          "type": "bool"
        }
      ],
      "stateMutability": "nonpayable",
      "type": "function"
    },
    {
      "inputs": [
        {
          "internalType": "address",
          "name": "from",
          "type": "address"
        },
        {
          "internalType": "address",
          "name": "to",
          "type": "address"
        },
        {
          "internalType": "uint256",
          "name": "amount",
          "type": "uint256"
        }
      ],
      "name": "transferFrom",
      "outputs": [
        {
          "internalType": "bool",
          "name": "",
          "type": "bool"
        }
      ],
      "stateMutability": "nonpayable",
      "type": "function"
    },
    {
      "inputs": [
        {
          "internalType": "address",
          "name": "_signer",
          "type": "address"
        }
      ],
      "name": "updateSigner",
      "outputs": [],
      "stateMutability": "nonpayable",
      "type": "function"
    }
  ],
  "transactionHash": "0x4cf88fa56578d3d409bb4667faec5ab4b216d9cb05e936f3ec201d2610c49bfc",
  "args": [
    "Test Craft Spice",
    "TestCS",
    "10000000000000000000000",
    "0x7Ac410F4E36873022b57821D7a8EB3D7513C045a"
  ],
  "numDeployments": 1,
  "solcInputHash": "9679bf2be07d0d5ae98ab346fabce69b",
  "bytecode": "0x6101406040523480156200001257600080fd5b506040516200242d3803806200242d833981016040819052620000359162000584565b6040518060400160405280600781526020016621a9aa37b5b2b760c91b815250604051806040016040528060058152602001640312e302e360dc1b815250858581600390805190602001906200008d92919062000411565b508051620000a390600490602084019062000411565b5050825160208085019190912083518483012060e08290526101008190524660a0818152604080517f8b73c3c69bb8fe3d512ecc4cf759cc79239f7b179b0ffacaa9a75d522b39400f81880181905281830187905260608201869052608082019490945230818401528151808203909301835260c0019052805194019390932091935091906080523060c0526101205250506005805460ff19169055505060016007556001600160a01b0381166200015a57600080fd5b62000167600033620001c9565b620001937f9f2df0fed2c77648de5860a4cc508cd0818c85b8b8a1ab4ceeef8d981c8956a633620001c9565b6200019f3383620001d9565b600880546001600160a01b0319166001600160a01b0392909216919091179055506200067d915050565b620001d58282620002d0565b5050565b6001600160a01b038216620002355760405162461bcd60e51b815260206004820152601f60248201527f45524332303a206d696e7420746f20746865207a65726f20616464726573730060448201526064015b60405180910390fd5b620002436000838362000374565b806002600082825462000257919062000619565b90915550506001600160a01b038216600090815260208190526040812080548392906200028690849062000619565b90915550506040518181526001600160a01b038316906000907fddf252ad1be2c89b69c2b068fc378daa952ba7f163c4a11628f55a4df523b3ef9060200160405180910390a35050565b60008281526006602090815260408083206001600160a01b038516845290915290205460ff16620001d55760008281526006602090815260408083206001600160a01b03851684529091529020805460ff19166001179055620003303390565b6001600160a01b0316816001600160a01b0316837f2f8788117e7eff1d82e926ec794901d17c78024a50270940304540a733656f0d60405160405180910390a45050565b6200038c8383836200039160201b620009ed1760201c565b505050565b620003a98383836200038c60201b6200072e1760201c565b60055460ff16156200038c5760405162461bcd60e51b815260206004820152602a60248201527f45524332305061757361626c653a20746f6b656e207472616e736665722077686044820152691a5b19481c185d5cd95960b21b60648201526084016200022c565b8280546200041f9062000640565b90600052602060002090601f0160209004810192826200044357600085556200048e565b82601f106200045e57805160ff19168380011785556200048e565b828001600101855582156200048e579182015b828111156200048e57825182559160200191906001019062000471565b506200049c929150620004a0565b5090565b5b808211156200049c5760008155600101620004a1565b634e487b7160e01b600052604160045260246000fd5b600082601f830112620004df57600080fd5b81516001600160401b0380821115620004fc57620004fc620004b7565b604051601f8301601f19908116603f01168101908282118183101715620005275762000527620004b7565b816040528381526020925086838588010111156200054457600080fd5b600091505b8382101562000568578582018301518183018401529082019062000549565b838211156200057a5760008385830101525b9695505050505050565b600080600080608085870312156200059b57600080fd5b84516001600160401b0380821115620005b357600080fd5b620005c188838901620004cd565b95506020870151915080821115620005d857600080fd5b50620005e787828801620004cd565b60408701516060880151919550935090506001600160a01b03811681146200060e57600080fd5b939692955090935050565b600082198211156200063b57634e487b7160e01b600052601160045260246000fd5b500190565b600181811c908216806200065557607f821691505b602082108114156200067757634e487b7160e01b600052602260045260246000fd5b50919050565b60805160a05160c05160e0516101005161012051611d60620006cd600039600061143d0152600061148c01526000611467015260006113c0015260006113ea015260006114140152611d606000f3fe608060405234801561001057600080fd5b50600436106101c45760003560e01c80635c975abb116100f9578063a457c2d711610097578063aad3ec9611610071578063aad3ec96146103d2578063d5391393146103e5578063d547741f1461040c578063dd62ed3e1461041f57600080fd5b8063a457c2d714610399578063a7ecd37e146103ac578063a9059cbb146103bf57600080fd5b80637ecebe00116100d35780637ecebe001461035657806391d148541461037657806395d89b4114610389578063a217fddf1461039157600080fd5b80635c975abb1461030f57806370a082311461031a57806379cc67901461034357600080fd5b806323b872dd11610166578063313ce56711610140578063313ce567146102c757806336568abe146102d657806339509351146102e957806342966c68146102fc57600080fd5b806323b872dd1461027e578063248a9ca3146102915780632f2ff15d146102b457600080fd5b806306fdde03116101a257806306fdde0314610219578063095ea7b31461022e5780630baa4e511461024157806318160ddd1461027657600080fd5b806301ee105a146101c957806301ffc9a7146101de57806302329a2914610206575b600080fd5b6101dc6101d736600461196b565b610432565b005b6101f16101ec3660046119eb565b6105df565b60405190151581526020015b60405180910390f35b6101dc610214366004611a15565b610616565b61022161063b565b6040516101fd9190611a63565b6101f161023c366004611ab2565b6106cd565b6102687f7f714c7cff70cc05f735355cbc68b89bb3fb8dfb9b9e5b650107ce97ff94ed3481565b6040519081526020016101fd565b600254610268565b6101f161028c366004611adc565b6106e5565b61026861029f366004611b18565b60009081526006602052604090206001015490565b6101dc6102c2366004611b31565b610709565b604051601281526020016101fd565b6101dc6102e4366004611b31565b610733565b6101f16102f7366004611ab2565b6107ad565b6101dc61030a366004611b18565b6107cf565b60055460ff166101f1565b610268610328366004611b5d565b6001600160a01b031660009081526020819052604090205490565b6101dc610351366004611ab2565b6107dc565b610268610364366004611b5d565b60096020526000908152604090205481565b6101f1610384366004611b31565b6107f1565b61022161081c565b610268600081565b6101f16103a7366004611ab2565b61082b565b6101dc6103ba366004611b5d565b6108a6565b6101f16103cd366004611ab2565b610914565b6101dc6103e0366004611ab2565b610922565b6102687f9f2df0fed2c77648de5860a4cc508cd0818c85b8b8a1ab4ceeef8d981c8956a681565b6101dc61041a366004611b31565b61099d565b61026861042d366004611b78565b6109c2565b6002600754141561048a5760405162461bcd60e51b815260206004820152601f60248201527f5265656e7472616e637947756172643a207265656e7472616e742063616c6c0060448201526064015b60405180910390fd5b600260078190556040805180820190915290815261313960f01b6020820152428410156104ca5760405162461bcd60e51b81526004016104819190611a63565b5033600081815260096020526040902054610527916104eb91879087610a53565b83838080601f016020809104026020016040519081016040528093929190818152602001838380828437600092019190915250610ad192505050565b60405180604001604052806002815260200161032360f41b815250906105605760405162461bcd60e51b81526004016104819190611a63565b5033600090815260096020526040812080549161057c83611bb8565b919050555061059161058b3390565b85610afb565b7fd8138f8a3f377c5259ca548e70e4c2de94f129f5a11036a15b69513cba2b426a33604080516001600160a01b039092168252602082018790520160405180910390a1505060016007555050565b60006001600160e01b03198216637965db0b60e01b148061061057506301ffc9a760e01b6001600160e01b03198316145b92915050565b600061062181610be6565b81156106335761062f610bf0565b5050565b61062f610c4a565b60606003805461064a90611bd3565b80601f016020809104026020016040519081016040528092919081815260200182805461067690611bd3565b80156106c35780601f10610698576101008083540402835291602001916106c3565b820191906000526020600020905b8154815290600101906020018083116106a657829003601f168201915b5050505050905090565b6000336106db818585610c83565b5060019392505050565b6000336106f3858285610da7565b6106fe858585610e21565b506001949350505050565b60008281526006602052604090206001015461072481610be6565b61072e8383610ffa565b505050565b6001600160a01b03811633146107a35760405162461bcd60e51b815260206004820152602f60248201527f416363657373436f6e74726f6c3a2063616e206f6e6c792072656e6f756e636560448201526e103937b632b9903337b91039b2b63360891b6064820152608401610481565b61062f8282611080565b6000336106db8185856107c083836109c2565b6107ca9190611c0e565b610c83565b6107d933826110e7565b50565b6107e7823383610da7565b61062f82826110e7565b60009182526006602090815260408084206001600160a01b0393909316845291905290205460ff1690565b60606004805461064a90611bd3565b6000338161083982866109c2565b9050838110156108995760405162461bcd60e51b815260206004820152602560248201527f45524332303a2064656372656173656420616c6c6f77616e63652062656c6f77604482015264207a65726f60d81b6064820152608401610481565b6106fe8286868403610c83565b60006108b181610be6565b6040805180820190915260018152603160f81b60208201526001600160a01b0383166108f05760405162461bcd60e51b81526004016104819190611a63565b5050600880546001600160a01b0319166001600160a01b0392909216919091179055565b6000336106db818585610e21565b7f9f2df0fed2c77648de5860a4cc508cd0818c85b8b8a1ab4ceeef8d981c8956a661094c81610be6565b6109568383610afb565b604080516001600160a01b0385168152602081018490527fd8138f8a3f377c5259ca548e70e4c2de94f129f5a11036a15b69513cba2b426a910160405180910390a1505050565b6000828152600660205260409020600101546109b881610be6565b61072e8383611080565b6001600160a01b03918216600090815260016020908152604080832093909416825291909152205490565b60055460ff161561072e5760405162461bcd60e51b815260206004820152602a60248201527f45524332305061757361626c653a20746f6b656e207472616e736665722077686044820152691a5b19481c185d5cd95960b21b6064820152608401610481565b604080517f7f714c7cff70cc05f735355cbc68b89bb3fb8dfb9b9e5b650107ce97ff94ed3460208201526001600160a01b03861691810191909152606081018490526080810183905260a08101829052600090610ac89060c00160405160208183030381529060405280519060200120611241565b95945050505050565b6008546000906001600160a01b0316610aea848461128f565b6001600160a01b0316149392505050565b6001600160a01b038216610b515760405162461bcd60e51b815260206004820152601f60248201527f45524332303a206d696e7420746f20746865207a65726f2061646472657373006044820152606401610481565b610b5d600083836112b3565b8060026000828254610b6f9190611c0e565b90915550506001600160a01b03821660009081526020819052604081208054839290610b9c908490611c0e565b90915550506040518181526001600160a01b038316906000907fddf252ad1be2c89b69c2b068fc378daa952ba7f163c4a11628f55a4df523b3ef9060200160405180910390a35050565b6107d981336112be565b610bf8611322565b6005805460ff191660011790557f62e78cea01bee320cd4e420270b5ea74000d11b0c9f74754ebdbfc544b05a258610c2d3390565b6040516001600160a01b03909116815260200160405180910390a1565b610c5261136a565b6005805460ff191690557f5db9ee0a495bf2e6ff9c91a7834c1ba4fdd244a5e8aa4e537bd38aeae4b073aa33610c2d565b6001600160a01b038316610ce55760405162461bcd60e51b8152602060048201526024808201527f45524332303a20617070726f76652066726f6d20746865207a65726f206164646044820152637265737360e01b6064820152608401610481565b6001600160a01b038216610d465760405162461bcd60e51b815260206004820152602260248201527f45524332303a20617070726f766520746f20746865207a65726f206164647265604482015261737360f01b6064820152608401610481565b6001600160a01b0383811660008181526001602090815260408083209487168084529482529182902085905590518481527f8c5be1e5ebec7d5bd14f71427d1e84f3dd0314c0f7b2291e5b200ac8c7c3b925910160405180910390a3505050565b6000610db384846109c2565b90506000198114610e1b5781811015610e0e5760405162461bcd60e51b815260206004820152601d60248201527f45524332303a20696e73756666696369656e7420616c6c6f77616e63650000006044820152606401610481565b610e1b8484848403610c83565b50505050565b6001600160a01b038316610e855760405162461bcd60e51b815260206004820152602560248201527f45524332303a207472616e736665722066726f6d20746865207a65726f206164604482015264647265737360d81b6064820152608401610481565b6001600160a01b038216610ee75760405162461bcd60e51b815260206004820152602360248201527f45524332303a207472616e7366657220746f20746865207a65726f206164647260448201526265737360e81b6064820152608401610481565b610ef28383836112b3565b6001600160a01b03831660009081526020819052604090205481811015610f6a5760405162461bcd60e51b815260206004820152602660248201527f45524332303a207472616e7366657220616d6f756e7420657863656564732062604482015265616c616e636560d01b6064820152608401610481565b6001600160a01b03808516600090815260208190526040808220858503905591851681529081208054849290610fa1908490611c0e565b92505081905550826001600160a01b0316846001600160a01b03167fddf252ad1be2c89b69c2b068fc378daa952ba7f163c4a11628f55a4df523b3ef84604051610fed91815260200190565b60405180910390a3610e1b565b61100482826107f1565b61062f5760008281526006602090815260408083206001600160a01b03851684529091529020805460ff1916600117905561103c3390565b6001600160a01b0316816001600160a01b0316837f2f8788117e7eff1d82e926ec794901d17c78024a50270940304540a733656f0d60405160405180910390a45050565b61108a82826107f1565b1561062f5760008281526006602090815260408083206001600160a01b0385168085529252808320805460ff1916905551339285917ff6391f5c32d9c69d2a47ea670b442974b53935d1edc7fd64eb21e047a839171b9190a45050565b6001600160a01b0382166111475760405162461bcd60e51b815260206004820152602160248201527f45524332303a206275726e2066726f6d20746865207a65726f206164647265736044820152607360f81b6064820152608401610481565b611153826000836112b3565b6001600160a01b038216600090815260208190526040902054818110156111c75760405162461bcd60e51b815260206004820152602260248201527f45524332303a206275726e20616d6f756e7420657863656564732062616c616e604482015261636560f01b6064820152608401610481565b6001600160a01b03831660009081526020819052604081208383039055600280548492906111f6908490611c26565b90915550506040518281526000906001600160a01b038516907fddf252ad1be2c89b69c2b068fc378daa952ba7f163c4a11628f55a4df523b3ef9060200160405180910390a3505050565b600061061061124e6113b3565b8360405161190160f01b6020820152602281018390526042810182905260009060620160405160208183030381529060405280519060200120905092915050565b600080600061129e85856114da565b915091506112ab81611520565b509392505050565b61072e8383836109ed565b6112c882826107f1565b61062f576112e0816001600160a01b031660146116db565b6112eb8360206116db565b6040516020016112fc929190611c3d565b60408051601f198184030181529082905262461bcd60e51b825261048191600401611a63565b60055460ff16156113685760405162461bcd60e51b815260206004820152601060248201526f14185d5cd8589b194e881c185d5cd95960821b6044820152606401610481565b565b60055460ff166113685760405162461bcd60e51b815260206004820152601460248201527314185d5cd8589b194e881b9bdd081c185d5cd95960621b6044820152606401610481565b6000306001600160a01b037f00000000000000000000000000000000000000000000000000000000000000001614801561140c57507f000000000000000000000000000000000000000000000000000000000000000046145b1561143657507f000000000000000000000000000000000000000000000000000000000000000090565b50604080517f00000000000000000000000000000000000000000000000000000000000000006020808301919091527f0000000000000000000000000000000000000000000000000000000000000000828401527f000000000000000000000000000000000000000000000000000000000000000060608301524660808301523060a0808401919091528351808403909101815260c0909201909252805191012090565b6000808251604114156115115760208301516040840151606085015160001a6115058782858561187e565b94509450505050611519565b506000905060025b9250929050565b600081600481111561153457611534611cb2565b141561153d5750565b600181600481111561155157611551611cb2565b141561159f5760405162461bcd60e51b815260206004820152601860248201527f45434453413a20696e76616c6964207369676e617475726500000000000000006044820152606401610481565b60028160048111156115b3576115b3611cb2565b14156116015760405162461bcd60e51b815260206004820152601f60248201527f45434453413a20696e76616c6964207369676e6174757265206c656e677468006044820152606401610481565b600381600481111561161557611615611cb2565b141561166e5760405162461bcd60e51b815260206004820152602260248201527f45434453413a20696e76616c6964207369676e6174757265202773272076616c604482015261756560f01b6064820152608401610481565b600481600481111561168257611682611cb2565b14156107d95760405162461bcd60e51b815260206004820152602260248201527f45434453413a20696e76616c6964207369676e6174757265202776272076616c604482015261756560f01b6064820152608401610481565b606060006116ea836002611cc8565b6116f5906002611c0e565b67ffffffffffffffff81111561170d5761170d611ce7565b6040519080825280601f01601f191660200182016040528015611737576020820181803683370190505b509050600360fc1b8160008151811061175257611752611cfd565b60200101906001600160f81b031916908160001a905350600f60fb1b8160018151811061178157611781611cfd565b60200101906001600160f81b031916908160001a90535060006117a5846002611cc8565b6117b0906001611c0e565b90505b6001811115611828576f181899199a1a9b1b9c1cb0b131b232b360811b85600f16601081106117e4576117e4611cfd565b1a60f81b8282815181106117fa576117fa611cfd565b60200101906001600160f81b031916908160001a90535060049490941c9361182181611d13565b90506117b3565b5083156118775760405162461bcd60e51b815260206004820181905260248201527f537472696e67733a20686578206c656e67746820696e73756666696369656e746044820152606401610481565b9392505050565b6000807f7fffffffffffffffffffffffffffffff5d576e7357a4501ddfe92f46681b20a08311156118b55750600090506003611962565b8460ff16601b141580156118cd57508460ff16601c14155b156118de5750600090506004611962565b6040805160008082526020820180845289905260ff881692820192909252606081018690526080810185905260019060a0016020604051602081039080840390855afa158015611932573d6000803e3d6000fd5b5050604051601f1901519150506001600160a01b03811661195b57600060019250925050611962565b9150600090505b94509492505050565b6000806000806060858703121561198157600080fd5b8435935060208501359250604085013567ffffffffffffffff808211156119a757600080fd5b818701915087601f8301126119bb57600080fd5b8135818111156119ca57600080fd5b8860208285010111156119dc57600080fd5b95989497505060200194505050565b6000602082840312156119fd57600080fd5b81356001600160e01b03198116811461187757600080fd5b600060208284031215611a2757600080fd5b8135801515811461187757600080fd5b60005b83811015611a52578181015183820152602001611a3a565b83811115610e1b5750506000910152565b6020815260008251806020840152611a82816040850160208701611a37565b601f01601f19169190910160400192915050565b80356001600160a01b0381168114611aad57600080fd5b919050565b60008060408385031215611ac557600080fd5b611ace83611a96565b946020939093013593505050565b600080600060608486031215611af157600080fd5b611afa84611a96565b9250611b0860208501611a96565b9150604084013590509250925092565b600060208284031215611b2a57600080fd5b5035919050565b60008060408385031215611b4457600080fd5b82359150611b5460208401611a96565b90509250929050565b600060208284031215611b6f57600080fd5b61187782611a96565b60008060408385031215611b8b57600080fd5b611b9483611a96565b9150611b5460208401611a96565b634e487b7160e01b600052601160045260246000fd5b6000600019821415611bcc57611bcc611ba2565b5060010190565b600181811c90821680611be757607f821691505b60208210811415611c0857634e487b7160e01b600052602260045260246000fd5b50919050565b60008219821115611c2157611c21611ba2565b500190565b600082821015611c3857611c38611ba2565b500390565b7f416363657373436f6e74726f6c3a206163636f756e7420000000000000000000815260008351611c75816017850160208801611a37565b7001034b99036b4b9b9b4b733903937b6329607d1b6017918401918201528351611ca6816028840160208801611a37565b01602801949350505050565b634e487b7160e01b600052602160045260246000fd5b6000816000190483118215151615611ce257611ce2611ba2565b500290565b634e487b7160e01b600052604160045260246000fd5b634e487b7160e01b600052603260045260246000fd5b600081611d2257611d22611ba2565b50600019019056fea26469706673582212201d5dfcfe1ad89ff75d772d0a54ac739729761d1d74cf7a129553424ca542301f64736f6c63430008090033",
  "devdoc": {
    "details": "Based on OpenZeppelin Contracts.",
    "kind": "dev",
    "methods": {
      "allowance(address,address)": {
        "details": "See {IERC20-allowance}."
      },
      "approve(address,uint256)": {
        "details": "See {IERC20-approve}. NOTE: If `amount` is the maximum `uint256`, the allowance is not updated on `transferFrom`. This is semantically equivalent to an infinite approval. Requirements: - `spender` cannot be the zero address."
      },
      "balanceOf(address)": {
        "details": "See {IERC20-balanceOf}."
      },
      "burn(uint256)": {
        "details": "Destroys `amount` tokens from the caller. See {ERC20-_burn}."
      },
      "burnFrom(address,uint256)": {
        "details": "Destroys `amount` tokens from `account`, deducting from the caller's allowance. See {ERC20-_burn} and {ERC20-allowance}. Requirements: - the caller must have allowance for ``accounts``'s tokens of at least `amount`."
      },
      "claim(address,uint256)": {
        "params": {
          "_amount": "Token Amount",
          "_to": "Target Address"
        }
      },
      "claimSelf(uint256,uint256,bytes)": {
        "params": {
          "_amount": "Token Amount",
          "_deadline": "Deadline",
          "_signature": "Generated by admin"
        }
      },
      "constructor": {
        "details": "Creates the token and setup the initial supply and the Admin Role.",
        "params": {
          "_initialSupply": "Initial Supply",
          "name": "Name of the Token",
          "symbol": "Symbol of the token"
        }
      },
      "decimals()": {
        "details": "Returns the number of decimals used to get its user representation. For example, if `decimals` equals `2`, a balance of `505` tokens should be displayed to a user as `5.05` (`505 / 10 ** 2`). Tokens usually opt for a value of 18, imitating the relationship between Ether and Wei. This is the value {ERC20} uses, unless this function is overridden; NOTE: This information is only used for _display_ purposes: it in no way affects any of the arithmetic of the contract, including {IERC20-balanceOf} and {IERC20-transfer}."
      },
      "decreaseAllowance(address,uint256)": {
        "details": "Atomically decreases the allowance granted to `spender` by the caller. This is an alternative to {approve} that can be used as a mitigation for problems described in {IERC20-approve}. Emits an {Approval} event indicating the updated allowance. Requirements: - `spender` cannot be the zero address. - `spender` must have allowance for the caller of at least `subtractedValue`."
      },
      "getRoleAdmin(bytes32)": {
        "details": "Returns the admin role that controls `role`. See {grantRole} and {revokeRole}. To change a role's admin, use {_setRoleAdmin}."
      },
      "grantRole(bytes32,address)": {
        "details": "Grants `role` to `account`. If `account` had not been already granted `role`, emits a {RoleGranted} event. Requirements: - the caller must have ``role``'s admin role. May emit a {RoleGranted} event."
      },
      "hasRole(bytes32,address)": {
        "details": "Returns `true` if `account` has been granted `role`."
      },
      "increaseAllowance(address,uint256)": {
        "details": "Atomically increases the allowance granted to `spender` by the caller. This is an alternative to {approve} that can be used as a mitigation for problems described in {IERC20-approve}. Emits an {Approval} event indicating the updated allowance. Requirements: - `spender` cannot be the zero address."
      },
      "name()": {
        "details": "Returns the name of the token."
      },
      "paused()": {
        "details": "Returns true if the contract is paused, and false otherwise."
      },
      "renounceRole(bytes32,address)": {
        "details": "Revokes `role` from the calling account. Roles are often managed via {grantRole} and {revokeRole}: this function's purpose is to provide a mechanism for accounts to lose their privileges if they are compromised (such as when a trusted device is misplaced). If the calling account had been revoked `role`, emits a {RoleRevoked} event. Requirements: - the caller must be `account`. May emit a {RoleRevoked} event."
      },
      "revokeRole(bytes32,address)": {
        "details": "Revokes `role` from `account`. If `account` had been granted `role`, emits a {RoleRevoked} event. Requirements: - the caller must have ``role``'s admin role. May emit a {RoleRevoked} event."
      },
      "supportsInterface(bytes4)": {
        "details": "See {IERC165-supportsInterface}."
      },
      "symbol()": {
        "details": "Returns the symbol of the token, usually a shorter version of the name."
      },
      "totalSupply()": {
        "details": "See {IERC20-totalSupply}."
      },
      "transfer(address,uint256)": {
        "details": "See {IERC20-transfer}. Requirements: - `to` cannot be the zero address. - the caller must have a balance of at least `amount`."
      },
      "transferFrom(address,address,uint256)": {
        "details": "See {IERC20-transferFrom}. Emits an {Approval} event indicating the updated allowance. This is not required by the EIP. See the note at the beginning of {ERC20}. NOTE: Does not update the allowance if the current allowance is the maximum `uint256`. Requirements: - `from` and `to` cannot be the zero address. - `from` must have a balance of at least `amount`. - the caller must have allowance for ``from``'s tokens of at least `amount`."
      }
    },
    "title": "Blast Royale Token - Secondary Token",
    "version": 1
  },
  "userdoc": {
    "kind": "user",
    "methods": {
      "claim(address,uint256)": {
        "notice": "Mint new tokens"
      },
      "claimSelf(uint256,uint256,bytes)": {
        "notice": "Mint new tokens"
      },
      "constructor": {
        "notice": "Token constructor"
      }
    },
    "version": 1
  },
  "storageLayout": {
    "storage": [
      {
        "astId": 715,
        "contract": "contracts/SecondaryToken.sol:SecondaryToken",
        "label": "_balances",
        "offset": 0,
        "slot": "0",
        "type": "t_mapping(t_address,t_uint256)"
      },
      {
        "astId": 721,
        "contract": "contracts/SecondaryToken.sol:SecondaryToken",
        "label": "_allowances",
        "offset": 0,
        "slot": "1",
        "type": "t_mapping(t_address,t_mapping(t_address,t_uint256))"
      },
      {
        "astId": 723,
        "contract": "contracts/SecondaryToken.sol:SecondaryToken",
        "label": "_totalSupply",
        "offset": 0,
        "slot": "2",
        "type": "t_uint256"
      },
      {
        "astId": 725,
        "contract": "contracts/SecondaryToken.sol:SecondaryToken",
        "label": "_name",
        "offset": 0,
        "slot": "3",
        "type": "t_string_storage"
      },
      {
        "astId": 727,
        "contract": "contracts/SecondaryToken.sol:SecondaryToken",
        "label": "_symbol",
        "offset": 0,
        "slot": "4",
        "type": "t_string_storage"
      },
      {
        "astId": 569,
        "contract": "contracts/SecondaryToken.sol:SecondaryToken",
        "label": "_paused",
        "offset": 0,
        "slot": "5",
        "type": "t_bool"
      },
      {
        "astId": 70,
        "contract": "contracts/SecondaryToken.sol:SecondaryToken",
        "label": "_roles",
        "offset": 0,
        "slot": "6",
        "type": "t_mapping(t_bytes32,t_struct(RoleData)65_storage)"
      },
      {
        "astId": 670,
        "contract": "contracts/SecondaryToken.sol:SecondaryToken",
        "label": "_status",
        "offset": 0,
        "slot": "7",
        "type": "t_uint256"
      },
      {
        "astId": 10204,
        "contract": "contracts/SecondaryToken.sol:SecondaryToken",
        "label": "signer",
        "offset": 0,
        "slot": "8",
        "type": "t_address"
      },
      {
        "astId": 10208,
        "contract": "contracts/SecondaryToken.sol:SecondaryToken",
        "label": "nonces",
        "offset": 0,
        "slot": "9",
        "type": "t_mapping(t_address,t_uint256)"
      }
    ],
    "types": {
      "t_address": {
        "encoding": "inplace",
        "label": "address",
        "numberOfBytes": "20"
      },
      "t_bool": {
        "encoding": "inplace",
        "label": "bool",
        "numberOfBytes": "1"
      },
      "t_bytes32": {
        "encoding": "inplace",
        "label": "bytes32",
        "numberOfBytes": "32"
      },
      "t_mapping(t_address,t_bool)": {
        "encoding": "mapping",
        "key": "t_address",
        "label": "mapping(address => bool)",
        "numberOfBytes": "32",
        "value": "t_bool"
      },
      "t_mapping(t_address,t_mapping(t_address,t_uint256))": {
        "encoding": "mapping",
        "key": "t_address",
        "label": "mapping(address => mapping(address => uint256))",
        "numberOfBytes": "32",
        "value": "t_mapping(t_address,t_uint256)"
      },
      "t_mapping(t_address,t_uint256)": {
        "encoding": "mapping",
        "key": "t_address",
        "label": "mapping(address => uint256)",
        "numberOfBytes": "32",
        "value": "t_uint256"
      },
      "t_mapping(t_bytes32,t_struct(RoleData)65_storage)": {
        "encoding": "mapping",
        "key": "t_bytes32",
        "label": "mapping(bytes32 => struct AccessControl.RoleData)",
        "numberOfBytes": "32",
        "value": "t_struct(RoleData)65_storage"
      },
      "t_string_storage": {
        "encoding": "bytes",
        "label": "string",
        "numberOfBytes": "32"
      },
      "t_struct(RoleData)65_storage": {
        "encoding": "inplace",
        "label": "struct AccessControl.RoleData",
        "members": [
          {
            "astId": 62,
            "contract": "contracts/SecondaryToken.sol:SecondaryToken",
            "label": "members",
            "offset": 0,
            "slot": "0",
            "type": "t_mapping(t_address,t_bool)"
          },
          {
            "astId": 64,
            "contract": "contracts/SecondaryToken.sol:SecondaryToken",
            "label": "adminRole",
            "offset": 0,
            "slot": "1",
            "type": "t_bytes32"
          }
        ],
        "numberOfBytes": "64"
      },
      "t_uint256": {
        "encoding": "inplace",
        "label": "uint256",
        "numberOfBytes": "32"
      }
    }
  }
}