{
  "address": "0xcCEA2a4aF7d05E9BcB1CdAf3AAcD169Db900439e",
  "abi": [
    {
      "inputs": [
        {
          "internalType": "contract IERC20",
          "name": "_blastToken",
          "type": "address"
        }
      ],
      "stateMutability": "nonpayable",
      "type": "constructor"
    },
    {
      "inputs": [],
      "name": "AmountInvalid",
      "type": "error"
    },
    {
      "inputs": [],
      "name": "BeneficiayrOrOwner",
      "type": "error"
    },
    {
      "inputs": [],
      "name": "DurationInvalid",
      "type": "error"
    },
    {
      "inputs": [],
      "name": "InsufficientTokens",
      "type": "error"
    },
    {
      "inputs": [],
      "name": "NotEnoughTokens",
      "type": "error"
    },
    {
      "inputs": [],
      "name": "NotRevocable",
      "type": "error"
    },
    {
      "inputs": [],
      "name": "ScheduleRevoked",
      "type": "error"
    },
    {
      "inputs": [],
      "name": "StartTimeInvalid",
      "type": "error"
    },
    {
      "inputs": [],
      "name": "ZeroAddress",
      "type": "error"
    },
    {
      "anonymous": false,
      "inputs": [
        {
          "indexed": false,
          "internalType": "address",
          "name": "user",
          "type": "address"
        },
        {
          "indexed": false,
          "internalType": "bytes32",
          "name": "scheduleId",
          "type": "bytes32"
        }
      ],
      "name": "CreatedVestingSchedule",
      "type": "event"
    },
    {
      "anonymous": false,
      "inputs": [
        {
          "indexed": true,
          "internalType": "address",
          "name": "previousOwner",
          "type": "address"
        },
        {
          "indexed": true,
          "internalType": "address",
          "name": "newOwner",
          "type": "address"
        }
      ],
      "name": "OwnershipTransferred",
      "type": "event"
    },
    {
      "anonymous": false,
      "inputs": [
        {
          "indexed": false,
          "internalType": "address",
          "name": "account",
          "type": "address"
        }
      ],
      "name": "Paused",
      "type": "event"
    },
    {
      "anonymous": false,
      "inputs": [
        {
          "indexed": false,
          "internalType": "address",
          "name": "beneficiary",
          "type": "address"
        },
        {
          "indexed": false,
          "internalType": "bytes32",
          "name": "vestingScheduleId",
          "type": "bytes32"
        },
        {
          "indexed": false,
          "internalType": "uint256",
          "name": "amount",
          "type": "uint256"
        },
        {
          "indexed": false,
          "internalType": "uint256",
          "name": "releaseTimestamp",
          "type": "uint256"
        }
      ],
      "name": "Released",
      "type": "event"
    },
    {
      "anonymous": false,
      "inputs": [
        {
          "indexed": false,
          "internalType": "bytes32",
          "name": "vestingScheduleId",
          "type": "bytes32"
        },
        {
          "indexed": false,
          "internalType": "uint256",
          "name": "revokeTimestamp",
          "type": "uint256"
        }
      ],
      "name": "Revoked",
      "type": "event"
    },
    {
      "anonymous": false,
      "inputs": [
        {
          "indexed": false,
          "internalType": "address",
          "name": "account",
          "type": "address"
        }
      ],
      "name": "Unpaused",
      "type": "event"
    },
    {
      "inputs": [],
      "name": "blastToken",
      "outputs": [
        {
          "internalType": "contract IERC20",
          "name": "",
          "type": "address"
        }
      ],
      "stateMutability": "view",
      "type": "function"
    },
    {
      "inputs": [
        {
          "internalType": "address",
          "name": "holder",
          "type": "address"
        }
      ],
      "name": "computeNextVestingScheduleIdForHolder",
      "outputs": [
        {
          "internalType": "bytes32",
          "name": "",
          "type": "bytes32"
        }
      ],
      "stateMutability": "view",
      "type": "function"
    },
    {
      "inputs": [
        {
          "internalType": "bytes32",
          "name": "vestingScheduleId",
          "type": "bytes32"
        }
      ],
      "name": "computeReleasableAmount",
      "outputs": [
        {
          "internalType": "uint256",
          "name": "",
          "type": "uint256"
        }
      ],
      "stateMutability": "view",
      "type": "function"
    },
    {
      "inputs": [
        {
          "internalType": "address",
          "name": "holder",
          "type": "address"
        },
        {
          "internalType": "uint256",
          "name": "index",
          "type": "uint256"
        }
      ],
      "name": "computeVestingScheduleIdForAddressAndIndex",
      "outputs": [
        {
          "internalType": "bytes32",
          "name": "",
          "type": "bytes32"
        }
      ],
      "stateMutability": "pure",
      "type": "function"
    },
    {
      "inputs": [
        {
          "internalType": "address",
          "name": "_beneficiary",
          "type": "address"
        },
        {
          "internalType": "uint256",
          "name": "_start",
          "type": "uint256"
        },
        {
          "internalType": "uint256",
          "name": "_cliffDuration",
          "type": "uint256"
        },
        {
          "internalType": "uint256",
          "name": "_duration",
          "type": "uint256"
        },
        {
          "internalType": "uint256",
          "name": "_immediateReleaseAmount",
          "type": "uint256"
        },
        {
          "internalType": "uint256",
          "name": "_amountTotal",
          "type": "uint256"
        },
        {
          "internalType": "bool",
          "name": "_revocable",
          "type": "bool"
        }
      ],
      "name": "createVestingSchedule",
      "outputs": [],
      "stateMutability": "nonpayable",
      "type": "function"
    },
    {
      "inputs": [
        {
          "internalType": "bytes32",
          "name": "vestingScheduleId",
          "type": "bytes32"
        }
      ],
      "name": "getVestingSchedule",
      "outputs": [
        {
          "components": [
            {
              "internalType": "address",
              "name": "beneficiary",
              "type": "address"
            },
            {
              "internalType": "uint256",
              "name": "start",
              "type": "uint256"
            },
            {
              "internalType": "uint256",
              "name": "cliffStart",
              "type": "uint256"
            },
            {
              "internalType": "uint256",
              "name": "duration",
              "type": "uint256"
            },
            {
              "internalType": "uint256",
              "name": "immediateVestedAmount",
              "type": "uint256"
            },
            {
              "internalType": "uint256",
              "name": "amountTotal",
              "type": "uint256"
            },
            {
              "internalType": "uint256",
              "name": "released",
              "type": "uint256"
            },
            {
              "internalType": "bool",
              "name": "revocable",
              "type": "bool"
            },
            {
              "internalType": "bool",
              "name": "revoked",
              "type": "bool"
            }
          ],
          "internalType": "struct TokenVesting.VestingSchedule",
          "name": "",
          "type": "tuple"
        }
      ],
      "stateMutability": "view",
      "type": "function"
    },
    {
      "inputs": [
        {
          "internalType": "address",
          "name": "holder",
          "type": "address"
        },
        {
          "internalType": "uint256",
          "name": "index",
          "type": "uint256"
        }
      ],
      "name": "getVestingScheduleByAddressAndIndex",
      "outputs": [
        {
          "components": [
            {
              "internalType": "address",
              "name": "beneficiary",
              "type": "address"
            },
            {
              "internalType": "uint256",
              "name": "start",
              "type": "uint256"
            },
            {
              "internalType": "uint256",
              "name": "cliffStart",
              "type": "uint256"
            },
            {
              "internalType": "uint256",
              "name": "duration",
              "type": "uint256"
            },
            {
              "internalType": "uint256",
              "name": "immediateVestedAmount",
              "type": "uint256"
            },
            {
              "internalType": "uint256",
              "name": "amountTotal",
              "type": "uint256"
            },
            {
              "internalType": "uint256",
              "name": "released",
              "type": "uint256"
            },
            {
              "internalType": "bool",
              "name": "revocable",
              "type": "bool"
            },
            {
              "internalType": "bool",
              "name": "revoked",
              "type": "bool"
            }
          ],
          "internalType": "struct TokenVesting.VestingSchedule",
          "name": "",
          "type": "tuple"
        }
      ],
      "stateMutability": "view",
      "type": "function"
    },
    {
      "inputs": [],
      "name": "getWithdrawableAmount",
      "outputs": [
        {
          "internalType": "uint256",
          "name": "",
          "type": "uint256"
        }
      ],
      "stateMutability": "view",
      "type": "function"
    },
    {
      "inputs": [],
      "name": "owner",
      "outputs": [
        {
          "internalType": "address",
          "name": "",
          "type": "address"
        }
      ],
      "stateMutability": "view",
      "type": "function"
    },
    {
      "inputs": [
        {
          "internalType": "bool",
          "name": "stop",
          "type": "bool"
        }
      ],
      "name": "pause",
      "outputs": [],
      "stateMutability": "nonpayable",
      "type": "function"
    },
    {
      "inputs": [],
      "name": "paused",
      "outputs": [
        {
          "internalType": "bool",
          "name": "",
          "type": "bool"
        }
      ],
      "stateMutability": "view",
      "type": "function"
    },
    {
      "inputs": [
        {
          "internalType": "bytes32",
          "name": "vestingScheduleId",
          "type": "bytes32"
        },
        {
          "internalType": "uint256",
          "name": "amount",
          "type": "uint256"
        }
      ],
      "name": "release",
      "outputs": [],
      "stateMutability": "nonpayable",
      "type": "function"
    },
    {
      "inputs": [],
      "name": "renounceOwnership",
      "outputs": [],
      "stateMutability": "nonpayable",
      "type": "function"
    },
    {
      "inputs": [
        {
          "internalType": "bytes32",
          "name": "vestingScheduleId",
          "type": "bytes32"
        }
      ],
      "name": "revoke",
      "outputs": [],
      "stateMutability": "nonpayable",
      "type": "function"
    },
    {
      "inputs": [
        {
          "internalType": "address",
          "name": "newOwner",
          "type": "address"
        }
      ],
      "name": "transferOwnership",
      "outputs": [],
      "stateMutability": "nonpayable",
      "type": "function"
    }
  ],
  "transactionHash": "0x75d7d5e860e16ccc7f52c79ba4663c034a675f8b6d6d2315d518d5f124f14b56",
  "args": [
    "0x565646FE9807f2d31a9Eb57Ec8A4750DB3Cc6043"
  ],
  "numDeployments": 1,
  "solcInputHash": "954ee2647c1b704508c86c1dc057c60f",
  "bytecode": "0x60a060405234801561001057600080fd5b506040516115e43803806115e483398101604081905261002f916100a7565b61003833610057565b600180556002805460ff191690556001600160a01b03166080526100d7565b600080546001600160a01b038381166001600160a01b0319831681178455604051919092169283917f8be0079c531659141344cd1fd0a4f28419497f9722a3daafe3b4186f6b6457e09190a35050565b6000602082840312156100b957600080fd5b81516001600160a01b03811681146100d057600080fd5b9392505050565b6080516114e4610100600039600081816101140152818161071c015261081701526114e46000f3fe608060405234801561001057600080fd5b50600436106100f55760003560e01c80638da5cb5b11610097578063ea1bb3d511610066578063ea1bb3d514610204578063f2fde38b14610217578063f51321d71461022a578063f7c469f01461023d57600080fd5b80638da5cb5b146101b857806390be10cc146101c95780639ef346b4146101d1578063b75c7dc6146101f157600080fd5b80635c975abb116100d35780635c975abb1461016657806366afd8ef1461017c578063715018a61461018f5780638af104da1461019757600080fd5b806302329a29146100fa5780631b078ab31461010f5780634495e82714610153575b600080fd5b61010d6101083660046111da565b610250565b005b6101367f000000000000000000000000000000000000000000000000000000000000000081565b6040516001600160a01b0390911681526020015b60405180910390f35b61010d610161366004611213565b610271565b60025460ff16604051901515815260200161014a565b61010d61018a36600461127a565b610554565b61010d610798565b6101aa6101a536600461129c565b6107ac565b60405190815260200161014a565b6000546001600160a01b0316610136565b6101aa6107f3565b6101e46101df3660046112c6565b6108a0565b60405161014a91906112df565b61010d6101ff3660046112c6565b610933565b6101aa6102123660046112c6565b610ab9565b61010d610225366004611358565b610b87565b6101e461023836600461129c565b610bfd565b6101aa61024b366004611358565b610c12565b610258610c3c565b801561026957610266610c96565b50565b610266610cf0565b610279610d29565b610281610c3c565b6001600160a01b0387166102a85760405163d92e233d60e01b815260040160405180910390fd5b6102b28383611389565b6102ba6107f3565b10156102d9576040516378dbf0af60e11b815260040160405180910390fd5b836102f757604051637c2a912d60e11b815260040160405180910390fd5b816103155760405163079d4a4560e11b815260040160405180910390fd5b42861161033557604051632aeba70760e21b815260040160405180910390fd5b8385111561035657604051637c2a912d60e11b815260040160405180910390fd5b600061036188610c12565b9050600061036f8789611389565b90506040518061012001604052808a6001600160a01b03168152602001898152602001828152602001878152602001868152602001858152602001600081526020018415158152602001600015158152506004600084815260200190815260200160002060008201518160000160006101000a8154816001600160a01b0302191690836001600160a01b031602179055506020820151816001015560408201518160020155606082015181600301556080820151816004015560a0820151816005015560c0820151816006015560e08201518160070160006101000a81548160ff0219169083151502179055506101008201518160070160016101000a81548160ff021916908315150217905550905050848460055461048f9190611389565b6104999190611389565b6005556003805460018181019092557fc2575a0e9e593c00f959f8c92f12db2869c3395a3b0502d05e2516446f71f85b018390556001600160a01b038a16600090815260066020526040902054906104f2908290611389565b6001600160a01b038b166000818152600660209081526040918290209390935580519182529181018590527f866861c8e9b4426152f128328a1bb760e1fd75b7d542ee92a4af3d4bdc5f5a4c910160405180910390a150505050505050505050565b61055c610d29565b600260015414156105b45760405162461bcd60e51b815260206004820152601f60248201527f5265656e7472616e637947756172643a207265656e7472616e742063616c6c0060448201526064015b60405180910390fd5b6002600155600082815260046020526040902060070154610100900460ff16156105f1576040516318aaa38760e31b815260040160405180910390fd5b6000828152600460205260408120805491549091336001600160a01b039182168114929190911614811582610624575080155b1561064257604051634c61ddc160e01b815260040160405180910390fd5b604080516101208101825284546001600160a01b03168152600185015460208201526002850154918101919091526003840154606082015260048401546080820152600584015460a0820152600684015460c0820152600784015460ff808216151560e084015261010091829004161515908201526000906106c390610d6f565b9050848110156106e6576040516308aeed0f60e21b815260040160405180910390fd5b8484600601546106f69190611389565b60068501556005546107099086906113a1565b6005558354610745906001600160a01b037f00000000000000000000000000000000000000000000000000000000000000008116911687610e30565b60408051338152602081018890529081018690524260608201527f4d42445e683cbab3983ed888401e0f37825acc044273f7c77716cf3b7057e5f49060800160405180910390a150506001805550505050565b6107a0610c3c565b6107aa6000610e87565b565b6040516bffffffffffffffffffffffff19606084901b1660208201526034810182905260009060540160405160208183030381529060405280519060200120905092915050565b6005546040516370a0823160e01b8152306004820152600091906001600160a01b037f000000000000000000000000000000000000000000000000000000000000000016906370a082319060240160206040518083038186803b15801561085957600080fd5b505afa15801561086d573d6000803e3d6000fd5b505050506040513d601f19601f8201168201806040525081019061089191906113b8565b61089b91906113a1565b905090565b6108a8611173565b5060009081526004602081815260409283902083516101208101855281546001600160a01b0316815260018201549281019290925260028101549382019390935260038301546060820152908201546080820152600582015460a0820152600682015460c082015260079091015460ff808216151560e0840152610100918290041615159082015290565b61093b610d29565b610943610c3c565b600081815260046020526040902060070154610100900460ff161561097b576040516318aaa38760e31b815260040160405180910390fd5b6000818152600460205260409020600781015460ff166109ae57604051639414820d60e01b815260040160405180910390fd5b604080516101208101825282546001600160a01b03168152600183015460208201526002830154918101919091526003820154606082015260048201546080820152600582015460a0820152600682015460c0820152600782015460ff808216151560e08401526101009182900416151590820152600090610a2f90610d6f565b90508015610a4157610a418382610554565b600082600601548360050154610a5791906113a1565b905080600554610a6791906113a1565b60055560078301805461ff001916610100179055604080518581524260208201527ff53e4c807734a99e87fb386d2952cda1e1aa71600280ecf91f5eaae69677c333910160405180910390a150505050565b600081815260046020526040812060070154610100900460ff1615610af1576040516318aaa38760e31b815260040160405180910390fd5b60008281526004602081815260409283902083516101208101855281546001600160a01b0316815260018201549281019290925260028101549382019390935260038301546060820152908201546080820152600582015460a0820152600682015460c0820152600782015460ff808216151560e08401526101009182900416151590820152610b8090610d6f565b9392505050565b610b8f610c3c565b6001600160a01b038116610bf45760405162461bcd60e51b815260206004820152602660248201527f4f776e61626c653a206e6577206f776e657220697320746865207a65726f206160448201526564647265737360d01b60648201526084016105ab565b61026681610e87565b610c05611173565b610b806101df84846107ac565b6001600160a01b038116600090815260066020526040812054610c369083906107ac565b92915050565b6000546001600160a01b031633146107aa5760405162461bcd60e51b815260206004820181905260248201527f4f776e61626c653a2063616c6c6572206973206e6f7420746865206f776e657260448201526064016105ab565b610c9e610d29565b6002805460ff191660011790557f62e78cea01bee320cd4e420270b5ea74000d11b0c9f74754ebdbfc544b05a258610cd33390565b6040516001600160a01b03909116815260200160405180910390a1565b610cf8610ed7565b6002805460ff191690557f5db9ee0a495bf2e6ff9c91a7834c1ba4fdd244a5e8aa4e537bd38aeae4b073aa33610cd3565b60025460ff16156107aa5760405162461bcd60e51b815260206004820152601060248201526f14185d5cd8589b194e881c185d5cd95960821b60448201526064016105ab565b60408101516000904290811015610d94578260c001518360800151610b8091906113a1565b82606001518360400151610da89190611389565b8110610dd1578260c0015183608001518460a00151610dc79190611389565b610b8091906113a1565b6000836040015182610de391906113a1565b905060008460600151828660a00151610dfc91906113d1565b610e0691906113f0565b90508460c00151856080015182610e1d9190611389565b610e2791906113a1565b95945050505050565b604080516001600160a01b038416602482015260448082018490528251808303909101815260649091019091526020810180516001600160e01b031663a9059cbb60e01b179052610e82908490610f20565b505050565b600080546001600160a01b038381166001600160a01b0319831681178455604051919092169283917f8be0079c531659141344cd1fd0a4f28419497f9722a3daafe3b4186f6b6457e09190a35050565b60025460ff166107aa5760405162461bcd60e51b815260206004820152601460248201527314185d5cd8589b194e881b9bdd081c185d5cd95960621b60448201526064016105ab565b6000610f75826040518060400160405280602081526020017f5361666545524332303a206c6f772d6c6576656c2063616c6c206661696c6564815250856001600160a01b0316610ff29092919063ffffffff16565b805190915015610e825780806020019051810190610f939190611412565b610e825760405162461bcd60e51b815260206004820152602a60248201527f5361666545524332303a204552433230206f7065726174696f6e20646964206e6044820152691bdd081cdd58d8d9595960b21b60648201526084016105ab565b60606110018484600085611009565b949350505050565b60608247101561106a5760405162461bcd60e51b815260206004820152602660248201527f416464726573733a20696e73756666696369656e742062616c616e636520666f6044820152651c8818d85b1b60d21b60648201526084016105ab565b6001600160a01b0385163b6110c15760405162461bcd60e51b815260206004820152601d60248201527f416464726573733a2063616c6c20746f206e6f6e2d636f6e747261637400000060448201526064016105ab565b600080866001600160a01b031685876040516110dd919061145f565b60006040518083038185875af1925050503d806000811461111a576040519150601f19603f3d011682016040523d82523d6000602084013e61111f565b606091505b509150915061112f82828661113a565b979650505050505050565b60608315611149575081610b80565b8251156111595782518084602001fd5b8160405162461bcd60e51b81526004016105ab919061147b565b60405180610120016040528060006001600160a01b031681526020016000815260200160008152602001600081526020016000815260200160008152602001600081526020016000151581526020016000151581525090565b801515811461026657600080fd5b6000602082840312156111ec57600080fd5b8135610b80816111cc565b80356001600160a01b038116811461120e57600080fd5b919050565b600080600080600080600060e0888a03121561122e57600080fd5b611237886111f7565b96506020880135955060408801359450606088013593506080880135925060a0880135915060c088013561126a816111cc565b8091505092959891949750929550565b6000806040838503121561128d57600080fd5b50508035926020909101359150565b600080604083850312156112af57600080fd5b6112b8836111f7565b946020939093013593505050565b6000602082840312156112d857600080fd5b5035919050565b60006101208201905060018060a01b0383511682526020830151602083015260408301516040830152606083015160608301526080830151608083015260a083015160a083015260c083015160c083015260e0830151151560e0830152610100808401516113508285018215159052565b505092915050565b60006020828403121561136a57600080fd5b610b80826111f7565b634e487b7160e01b600052601160045260246000fd5b6000821982111561139c5761139c611373565b500190565b6000828210156113b3576113b3611373565b500390565b6000602082840312156113ca57600080fd5b5051919050565b60008160001904831182151516156113eb576113eb611373565b500290565b60008261140d57634e487b7160e01b600052601260045260246000fd5b500490565b60006020828403121561142457600080fd5b8151610b80816111cc565b60005b8381101561144a578181015183820152602001611432565b83811115611459576000848401525b50505050565b6000825161147181846020870161142f565b9190910192915050565b602081526000825180602084015261149a81604085016020870161142f565b601f01601f1916919091016040019291505056fea2646970667358221220567e9cc7b1ac8e4d90c2ae904270f670f6a043de8494912f9fa45940c304bf2e64736f6c63430008090033",
  "devdoc": {
    "kind": "dev",
    "methods": {
      "computeNextVestingScheduleIdForHolder(address)": {
        "details": "Computes the next vesting schedule identifier for a given holder address."
      },
      "computeReleasableAmount(bytes32)": {
        "returns": {
          "_0": "the vested amount"
        }
      },
      "computeVestingScheduleIdForAddressAndIndex(address,uint256)": {
        "details": "Computes the vesting schedule identifier for an address and an index."
      },
      "getVestingSchedule(bytes32)": {
        "returns": {
          "_0": "the vesting schedule structure information"
        }
      },
      "getVestingScheduleByAddressAndIndex(address,uint256)": {
        "returns": {
          "_0": "the vesting schedule structure information"
        }
      },
      "getWithdrawableAmount()": {
        "details": "Returns the amount of tokens that can be withdrawn by the owner.",
        "returns": {
          "_0": "the amount of tokens"
        }
      },
      "owner()": {
        "details": "Returns the address of the current owner."
      },
      "paused()": {
        "details": "Returns true if the contract is paused, and false otherwise."
      },
      "renounceOwnership()": {
        "details": "Leaves the contract without owner. It will not be possible to call `onlyOwner` functions anymore. Can only be called by the current owner. NOTE: Renouncing ownership will leave the contract without an owner, thereby removing any functionality that is only available to the owner."
      },
      "revoke(bytes32)": {
        "params": {
          "vestingScheduleId": "the vesting schedule identifier"
        }
      },
      "transferOwnership(address)": {
        "details": "Transfers ownership of the contract to a new account (`newOwner`). Can only be called by the current owner."
      }
    },
    "version": 1
  },
  "userdoc": {
    "errors": {
      "AmountInvalid()": [
        {
          "notice": "amount must be > 0"
        }
      ],
      "BeneficiayrOrOwner()": [
        {
          "notice": "only beneficiary and owner can release vested tokens"
        }
      ],
      "DurationInvalid()": [
        {
          "notice": "duration must be > 0"
        }
      ],
      "InsufficientTokens()": [
        {
          "notice": "cannot create vesting schedule because not sufficient tokens"
        }
      ],
      "NotEnoughTokens()": [
        {
          "notice": "cannot release tokens, not enough vested tokens"
        }
      ],
      "NotRevocable()": [
        {
          "notice": "Vesting is not revocable"
        }
      ],
      "ScheduleRevoked()": [
        {
          "notice": "Reverts if the vesting schedule has been revoked"
        }
      ],
      "StartTimeInvalid()": [
        {
          "notice": "When create vesting schedule, in case of start time should be future"
        }
      ],
      "ZeroAddress()": [
        {
          "notice": "In case the address is zero"
        }
      ]
    },
    "kind": "user",
    "methods": {
      "blastToken()": {
        "notice": "Blast TOKEN"
      },
      "computeReleasableAmount(bytes32)": {
        "notice": "Computes the vested amount of tokens for the given vesting schedule identifier."
      },
      "createVestingSchedule(address,uint256,uint256,uint256,uint256,uint256,bool)": {
        "notice": "Creates a new vesting schedule for a beneficiary"
      },
      "getVestingSchedule(bytes32)": {
        "notice": "Returns the vesting schedule information for a given identifier."
      },
      "getVestingScheduleByAddressAndIndex(address,uint256)": {
        "notice": "Returns the vesting schedule information for a given holder and index."
      },
      "release(bytes32,uint256)": {
        "notice": "Release vested amount of tokens."
      },
      "revoke(bytes32)": {
        "notice": "Revokes the vesting schedule for given identifier."
      }
    },
    "version": 1
  },
  "storageLayout": {
    "storage": [
      {
        "astId": 400,
        "contract": "contracts/Vesting/TokenVesting.sol:TokenVesting",
        "label": "_owner",
        "offset": 0,
        "slot": "0",
        "type": "t_address"
      },
      {
        "astId": 624,
        "contract": "contracts/Vesting/TokenVesting.sol:TokenVesting",
        "label": "_status",
        "offset": 0,
        "slot": "1",
        "type": "t_uint256"
      },
      {
        "astId": 523,
        "contract": "contracts/Vesting/TokenVesting.sol:TokenVesting",
        "label": "_paused",
        "offset": 0,
        "slot": "2",
        "type": "t_bool"
      },
      {
        "astId": 8518,
        "contract": "contracts/Vesting/TokenVesting.sol:TokenVesting",
        "label": "vestingSchedulesIds",
        "offset": 0,
        "slot": "3",
        "type": "t_array(t_bytes32)dyn_storage"
      },
      {
        "astId": 8523,
        "contract": "contracts/Vesting/TokenVesting.sol:TokenVesting",
        "label": "vestingSchedules",
        "offset": 0,
        "slot": "4",
        "type": "t_mapping(t_bytes32,t_struct(VestingSchedule)8515_storage)"
      },
      {
        "astId": 8525,
        "contract": "contracts/Vesting/TokenVesting.sol:TokenVesting",
        "label": "vestingSchedulesTotalAmount",
        "offset": 0,
        "slot": "5",
        "type": "t_uint256"
      },
      {
        "astId": 8529,
        "contract": "contracts/Vesting/TokenVesting.sol:TokenVesting",
        "label": "holdersVestingCount",
        "offset": 0,
        "slot": "6",
        "type": "t_mapping(t_address,t_uint256)"
      }
    ],
    "types": {
      "t_address": {
        "encoding": "inplace",
        "label": "address",
        "numberOfBytes": "20"
      },
      "t_array(t_bytes32)dyn_storage": {
        "base": "t_bytes32",
        "encoding": "dynamic_array",
        "label": "bytes32[]",
        "numberOfBytes": "32"
      },
      "t_bool": {
        "encoding": "inplace",
        "label": "bool",
        "numberOfBytes": "1"
      },
      "t_bytes32": {
        "encoding": "inplace",
        "label": "bytes32",
        "numberOfBytes": "32"
      },
      "t_mapping(t_address,t_uint256)": {
        "encoding": "mapping",
        "key": "t_address",
        "label": "mapping(address => uint256)",
        "numberOfBytes": "32",
        "value": "t_uint256"
      },
      "t_mapping(t_bytes32,t_struct(VestingSchedule)8515_storage)": {
        "encoding": "mapping",
        "key": "t_bytes32",
        "label": "mapping(bytes32 => struct TokenVesting.VestingSchedule)",
        "numberOfBytes": "32",
        "value": "t_struct(VestingSchedule)8515_storage"
      },
      "t_struct(VestingSchedule)8515_storage": {
        "encoding": "inplace",
        "label": "struct TokenVesting.VestingSchedule",
        "members": [
          {
            "astId": 8498,
            "contract": "contracts/Vesting/TokenVesting.sol:TokenVesting",
            "label": "beneficiary",
            "offset": 0,
            "slot": "0",
            "type": "t_address"
          },
          {
            "astId": 8500,
            "contract": "contracts/Vesting/TokenVesting.sol:TokenVesting",
            "label": "start",
            "offset": 0,
            "slot": "1",
            "type": "t_uint256"
          },
          {
            "astId": 8502,
            "contract": "contracts/Vesting/TokenVesting.sol:TokenVesting",
            "label": "cliffStart",
            "offset": 0,
            "slot": "2",
            "type": "t_uint256"
          },
          {
            "astId": 8504,
            "contract": "contracts/Vesting/TokenVesting.sol:TokenVesting",
            "label": "duration",
            "offset": 0,
            "slot": "3",
            "type": "t_uint256"
          },
          {
            "astId": 8506,
            "contract": "contracts/Vesting/TokenVesting.sol:TokenVesting",
            "label": "immediateVestedAmount",
            "offset": 0,
            "slot": "4",
            "type": "t_uint256"
          },
          {
            "astId": 8508,
            "contract": "contracts/Vesting/TokenVesting.sol:TokenVesting",
            "label": "amountTotal",
            "offset": 0,
            "slot": "5",
            "type": "t_uint256"
          },
          {
            "astId": 8510,
            "contract": "contracts/Vesting/TokenVesting.sol:TokenVesting",
            "label": "released",
            "offset": 0,
            "slot": "6",
            "type": "t_uint256"
          },
          {
            "astId": 8512,
            "contract": "contracts/Vesting/TokenVesting.sol:TokenVesting",
            "label": "revocable",
            "offset": 0,
            "slot": "7",
            "type": "t_bool"
          },
          {
            "astId": 8514,
            "contract": "contracts/Vesting/TokenVesting.sol:TokenVesting",
            "label": "revoked",
            "offset": 1,
            "slot": "7",
            "type": "t_bool"
          }
        ],
        "numberOfBytes": "256"
      },
      "t_uint256": {
        "encoding": "inplace",
        "label": "uint256",
        "numberOfBytes": "32"
      }
    }
  }
}