{
  "address": "0xeaCBAEA06F3973e98c820b3C81a516727bf6CF9D",
  "abi": [
    {
      "inputs": [
        {
          "internalType": "contract IERC20",
          "name": "_blastToken",
          "type": "address"
        }
      ],
      "stateMutability": "nonpayable",
      "type": "constructor"
    },
    {
      "anonymous": false,
      "inputs": [
        {
          "indexed": false,
          "internalType": "address",
          "name": "user",
          "type": "address"
        },
        {
          "indexed": false,
          "internalType": "bytes32",
          "name": "scheduleId",
          "type": "bytes32"
        }
      ],
      "name": "CreatedVestingSchedule",
      "type": "event"
    },
    {
      "anonymous": false,
      "inputs": [
        {
          "indexed": true,
          "internalType": "address",
          "name": "previousOwner",
          "type": "address"
        },
        {
          "indexed": true,
          "internalType": "address",
          "name": "newOwner",
          "type": "address"
        }
      ],
      "name": "OwnershipTransferred",
      "type": "event"
    },
    {
      "anonymous": false,
      "inputs": [
        {
          "indexed": false,
          "internalType": "address",
          "name": "account",
          "type": "address"
        }
      ],
      "name": "Paused",
      "type": "event"
    },
    {
      "anonymous": false,
      "inputs": [
        {
          "indexed": false,
          "internalType": "address",
          "name": "beneficiary",
          "type": "address"
        },
        {
          "indexed": false,
          "internalType": "bytes32",
          "name": "vestingScheduleId",
          "type": "bytes32"
        },
        {
          "indexed": false,
          "internalType": "uint256",
          "name": "amount",
          "type": "uint256"
        },
        {
          "indexed": false,
          "internalType": "uint256",
          "name": "releaseTimestamp",
          "type": "uint256"
        }
      ],
      "name": "Released",
      "type": "event"
    },
    {
      "anonymous": false,
      "inputs": [
        {
          "indexed": false,
          "internalType": "bytes32",
          "name": "vestingScheduleId",
          "type": "bytes32"
        },
        {
          "indexed": false,
          "internalType": "uint256",
          "name": "revokeTimestamp",
          "type": "uint256"
        }
      ],
      "name": "Revoked",
      "type": "event"
    },
    {
      "anonymous": false,
      "inputs": [
        {
          "indexed": false,
          "internalType": "address",
          "name": "account",
          "type": "address"
        }
      ],
      "name": "Unpaused",
      "type": "event"
    },
    {
      "inputs": [],
      "name": "blastToken",
      "outputs": [
        {
          "internalType": "contract IERC20",
          "name": "",
          "type": "address"
        }
      ],
      "stateMutability": "view",
      "type": "function"
    },
    {
      "inputs": [
        {
          "internalType": "address",
          "name": "holder",
          "type": "address"
        }
      ],
      "name": "computeNextVestingScheduleIdForHolder",
      "outputs": [
        {
          "internalType": "bytes32",
          "name": "",
          "type": "bytes32"
        }
      ],
      "stateMutability": "view",
      "type": "function"
    },
    {
      "inputs": [
        {
          "internalType": "bytes32",
          "name": "vestingScheduleId",
          "type": "bytes32"
        }
      ],
      "name": "computeReleasableAmount",
      "outputs": [
        {
          "internalType": "uint256",
          "name": "",
          "type": "uint256"
        }
      ],
      "stateMutability": "view",
      "type": "function"
    },
    {
      "inputs": [
        {
          "internalType": "address",
          "name": "holder",
          "type": "address"
        },
        {
          "internalType": "uint256",
          "name": "index",
          "type": "uint256"
        }
      ],
      "name": "computeVestingScheduleIdForAddressAndIndex",
      "outputs": [
        {
          "internalType": "bytes32",
          "name": "",
          "type": "bytes32"
        }
      ],
      "stateMutability": "pure",
      "type": "function"
    },
    {
      "inputs": [
        {
          "internalType": "address",
          "name": "_beneficiary",
          "type": "address"
        },
        {
          "internalType": "uint256",
          "name": "_start",
          "type": "uint256"
        },
        {
          "internalType": "uint256",
          "name": "_cliffDuration",
          "type": "uint256"
        },
        {
          "internalType": "uint256",
          "name": "_duration",
          "type": "uint256"
        },
        {
          "internalType": "uint256",
          "name": "_immediateReleaseAmount",
          "type": "uint256"
        },
        {
          "internalType": "uint256",
          "name": "_amountTotal",
          "type": "uint256"
        },
        {
          "internalType": "bool",
          "name": "_revocable",
          "type": "bool"
        }
      ],
      "name": "createVestingSchedule",
      "outputs": [],
      "stateMutability": "nonpayable",
      "type": "function"
    },
    {
      "inputs": [
        {
          "internalType": "bytes32",
          "name": "vestingScheduleId",
          "type": "bytes32"
        }
      ],
      "name": "getVestingSchedule",
      "outputs": [
        {
          "components": [
            {
              "internalType": "address",
              "name": "beneficiary",
              "type": "address"
            },
            {
              "internalType": "uint256",
              "name": "start",
              "type": "uint256"
            },
            {
              "internalType": "uint256",
              "name": "cliffStart",
              "type": "uint256"
            },
            {
              "internalType": "uint256",
              "name": "duration",
              "type": "uint256"
            },
            {
              "internalType": "uint256",
              "name": "immediateVestedAmount",
              "type": "uint256"
            },
            {
              "internalType": "uint256",
              "name": "amountTotal",
              "type": "uint256"
            },
            {
              "internalType": "uint256",
              "name": "released",
              "type": "uint256"
            },
            {
              "internalType": "bool",
              "name": "revocable",
              "type": "bool"
            },
            {
              "internalType": "bool",
              "name": "revoked",
              "type": "bool"
            }
          ],
          "internalType": "struct TokenVesting.VestingSchedule",
          "name": "",
          "type": "tuple"
        }
      ],
      "stateMutability": "view",
      "type": "function"
    },
    {
      "inputs": [
        {
          "internalType": "address",
          "name": "holder",
          "type": "address"
        },
        {
          "internalType": "uint256",
          "name": "index",
          "type": "uint256"
        }
      ],
      "name": "getVestingScheduleByAddressAndIndex",
      "outputs": [
        {
          "components": [
            {
              "internalType": "address",
              "name": "beneficiary",
              "type": "address"
            },
            {
              "internalType": "uint256",
              "name": "start",
              "type": "uint256"
            },
            {
              "internalType": "uint256",
              "name": "cliffStart",
              "type": "uint256"
            },
            {
              "internalType": "uint256",
              "name": "duration",
              "type": "uint256"
            },
            {
              "internalType": "uint256",
              "name": "immediateVestedAmount",
              "type": "uint256"
            },
            {
              "internalType": "uint256",
              "name": "amountTotal",
              "type": "uint256"
            },
            {
              "internalType": "uint256",
              "name": "released",
              "type": "uint256"
            },
            {
              "internalType": "bool",
              "name": "revocable",
              "type": "bool"
            },
            {
              "internalType": "bool",
              "name": "revoked",
              "type": "bool"
            }
          ],
          "internalType": "struct TokenVesting.VestingSchedule",
          "name": "",
          "type": "tuple"
        }
      ],
      "stateMutability": "view",
      "type": "function"
    },
    {
      "inputs": [],
      "name": "getWithdrawableAmount",
      "outputs": [
        {
          "internalType": "uint256",
          "name": "",
          "type": "uint256"
        }
      ],
      "stateMutability": "view",
      "type": "function"
    },
    {
      "inputs": [],
      "name": "owner",
      "outputs": [
        {
          "internalType": "address",
          "name": "",
          "type": "address"
        }
      ],
      "stateMutability": "view",
      "type": "function"
    },
    {
      "inputs": [
        {
          "internalType": "bool",
          "name": "stop",
          "type": "bool"
        }
      ],
      "name": "pause",
      "outputs": [],
      "stateMutability": "nonpayable",
      "type": "function"
    },
    {
      "inputs": [],
      "name": "paused",
      "outputs": [
        {
          "internalType": "bool",
          "name": "",
          "type": "bool"
        }
      ],
      "stateMutability": "view",
      "type": "function"
    },
    {
      "inputs": [
        {
          "internalType": "bytes32",
          "name": "vestingScheduleId",
          "type": "bytes32"
        },
        {
          "internalType": "uint256",
          "name": "amount",
          "type": "uint256"
        }
      ],
      "name": "release",
      "outputs": [],
      "stateMutability": "nonpayable",
      "type": "function"
    },
    {
      "inputs": [],
      "name": "renounceOwnership",
      "outputs": [],
      "stateMutability": "nonpayable",
      "type": "function"
    },
    {
      "inputs": [
        {
          "internalType": "bytes32",
          "name": "vestingScheduleId",
          "type": "bytes32"
        }
      ],
      "name": "revoke",
      "outputs": [],
      "stateMutability": "nonpayable",
      "type": "function"
    },
    {
      "inputs": [
        {
          "internalType": "address",
          "name": "newOwner",
          "type": "address"
        }
      ],
      "name": "transferOwnership",
      "outputs": [],
      "stateMutability": "nonpayable",
      "type": "function"
    }
  ],
  "transactionHash": "0x3821bc750522870440f944fa9fbef6bbb5006b60c54c5279fcaa8e6a635d0c0e",
  "args": [
    "0xf1ef3De13FE60a7E9C23cf8f912bf8D59475F53F"
  ],
  "numDeployments": 1,
  "solcInputHash": "e1022c2b25c0085f1557400f326d633d",
  "bytecode": "0x608060405234801561001057600080fd5b506040516116f93803806116f983398101604081905261002f916100b6565b61003833610066565b60018055600280546001600160a01b03909216610100026001600160a81b03199092169190911790556100e6565b600080546001600160a01b038381166001600160a01b0319831681178455604051919092169283917f8be0079c531659141344cd1fd0a4f28419497f9722a3daafe3b4186f6b6457e09190a35050565b6000602082840312156100c857600080fd5b81516001600160a01b03811681146100df57600080fd5b9392505050565b611604806100f56000396000f3fe608060405234801561001057600080fd5b50600436106100f55760003560e01c80638da5cb5b11610097578063ea1bb3d511610066578063ea1bb3d5146101f5578063f2fde38b14610208578063f51321d71461021b578063f7c469f01461022e57600080fd5b80638da5cb5b146101a957806390be10cc146101ba5780639ef346b4146101c2578063b75c7dc6146101e257600080fd5b80635c975abb116100d35780635c975abb1461015757806366afd8ef1461016d578063715018a6146101805780638af104da1461018857600080fd5b806302329a29146100fa5780631b078ab31461010f5780634495e82714610144575b600080fd5b61010d6101083660046112fa565b610241565b005b6002546101279061010090046001600160a01b031681565b6040516001600160a01b0390911681526020015b60405180910390f35b61010d610152366004611333565b610262565b60025460ff16604051901515815260200161013b565b61010d61017b36600461139a565b6105eb565b61010d610858565b61019b6101963660046113bc565b61086c565b60405190815260200161013b565b6000546001600160a01b0316610127565b61019b6108b3565b6101d56101d03660046113e6565b610947565b60405161013b91906113ff565b61010d6101f03660046113e6565b6109da565b61019b6102033660046113e6565b610bbb565b61010d610216366004611478565b610ca7565b6101d56102293660046113bc565b610d1d565b61019b61023c366004611478565b610d32565b610249610d5c565b801561025a57610257610db6565b50565b610257610e10565b61026a610e49565b610272610d5c565b6040805180820190915260018152603160f81b60208201526001600160a01b0388166102ba5760405162461bcd60e51b81526004016102b191906114c3565b60405180910390fd5b506102c5838361150c565b6102cd6108b3565b101560405180604001604052806002815260200161323560f01b815250906103085760405162461bcd60e51b81526004016102b191906114c3565b50604080518082019091526002815261191b60f11b6020820152846103405760405162461bcd60e51b81526004016102b191906114c3565b506040805180820190915260018152601b60f91b6020820152826103775760405162461bcd60e51b81526004016102b191906114c3565b50604080518082019091526002815261333160f01b60208201524287116103b15760405162461bcd60e51b81526004016102b191906114c3565b50604080518082019091526002815261191b60f11b6020820152848611156103ec5760405162461bcd60e51b81526004016102b191906114c3565b5060006103f888610d32565b90506000610406878961150c565b90506040518061012001604052808a6001600160a01b03168152602001898152602001828152602001878152602001868152602001858152602001600081526020018415158152602001600015158152506004600084815260200190815260200160002060008201518160000160006101000a8154816001600160a01b0302191690836001600160a01b031602179055506020820151816001015560408201518160020155606082015181600301556080820151816004015560a0820151816005015560c0820151816006015560e08201518160070160006101000a81548160ff0219169083151502179055506101008201518160070160016101000a81548160ff0219169083151502179055509050508484600554610526919061150c565b610530919061150c565b6005556003805460018181019092557fc2575a0e9e593c00f959f8c92f12db2869c3395a3b0502d05e2516446f71f85b018390556001600160a01b038a166000908152600660205260409020549061058990829061150c565b6001600160a01b038b166000818152600660209081526040918290209390935580519182529181018590527f866861c8e9b4426152f128328a1bb760e1fd75b7d542ee92a4af3d4bdc5f5a4c910160405180910390a150505050505050505050565b6105f3610e49565b600260015414156106465760405162461bcd60e51b815260206004820152601f60248201527f5265656e7472616e637947756172643a207265656e7472616e742063616c6c0060448201526064016102b1565b600260018190556000838152600460209081526040918290206007810154835180850190945293835261323960f01b9183019190915291610100900460ff16156106a35760405162461bcd60e51b81526004016102b191906114c3565b5080546000546001600160a01b03918216913380841492919091161481806106c85750805b60405180604001604052806002815260200161323760f01b815250906107015760405162461bcd60e51b81526004016102b191906114c3565b50604080516101208101825285546001600160a01b03168152600186015460208201526002860154918101919091526003850154606082015260048501546080820152600585015460a0820152600685015460c0820152600785015460ff808216151560e0840152610100918290041615159082015260009061078390610e8f565b90508581101560405180604001604052806002815260200161064760f31b815250906107c25760405162461bcd60e51b81526004016102b191906114c3565b508585600601546107d3919061150c565b60068601556005546107e6908790611524565b6005556002546108059061010090046001600160a01b03168588610f50565b604080513381526020810189905280820188905242606082015290517f4d42445e683cbab3983ed888401e0f37825acc044273f7c77716cf3b7057e5f49181900360800190a15050600180555050505050565b610860610d5c565b61086a6000610fa7565b565b6040516bffffffffffffffffffffffff19606084901b1660208201526034810182905260009060540160405160208183030381529060405280519060200120905092915050565b6005546002546040516370a0823160e01b81523060048201526000929161010090046001600160a01b0316906370a082319060240160206040518083038186803b15801561090057600080fd5b505afa158015610914573d6000803e3d6000fd5b505050506040513d601f19601f82011682018060405250810190610938919061153b565b6109429190611524565b905090565b61094f611293565b5060009081526004602081815260409283902083516101208101855281546001600160a01b0316815260018201549281019290925260028101549382019390935260038301546060820152908201546080820152600582015460a0820152600682015460c082015260079091015460ff808216151560e0840152610100918290041615159082015290565b6109e2610e49565b6109ea610d5c565b600081815260046020908152604091829020600781015483518085019094526002845261323960f01b928401929092529190610100900460ff1615610a425760405162461bcd60e51b81526004016102b191906114c3565b506007810154604080518082019091526002815261033360f41b60208201529060ff16610a825760405162461bcd60e51b81526004016102b191906114c3565b50604080516101208101825282546001600160a01b03168152600183015460208201526002830154918101919091526003820154606082015260048201546080820152600582015460a0820152600682015460c0820152600782015460ff808216151560e08401526101009182900416151590820152600090610b0490610e8f565b90508015610b1657610b1683826105eb565b600082600601548360050154610b2c9190611524565b905080600554610b3c9190611524565b60055560078301805461ff001916610100179055610b7d610b656000546001600160a01b031690565b60025461010090046001600160a01b03169083610f50565b604080518581524260208201527ff53e4c807734a99e87fb386d2952cda1e1aa71600280ecf91f5eaae69677c333910160405180910390a150505050565b60008181526004602090815260408083206007015481518083019092526002825261323960f01b9282019290925290610100900460ff1615610c105760405162461bcd60e51b81526004016102b191906114c3565b5060008281526004602081815260409283902083516101208101855281546001600160a01b0316815260018201549281019290925260028101549382019390935260038301546060820152908201546080820152600582015460a0820152600682015460c0820152600782015460ff808216151560e08401526101009182900416151590820152610ca090610e8f565b9392505050565b610caf610d5c565b6001600160a01b038116610d145760405162461bcd60e51b815260206004820152602660248201527f4f776e61626c653a206e6577206f776e657220697320746865207a65726f206160448201526564647265737360d01b60648201526084016102b1565b61025781610fa7565b610d25611293565b610ca06101d0848461086c565b6001600160a01b038116600090815260066020526040812054610d5690839061086c565b92915050565b6000546001600160a01b0316331461086a5760405162461bcd60e51b815260206004820181905260248201527f4f776e61626c653a2063616c6c6572206973206e6f7420746865206f776e657260448201526064016102b1565b610dbe610e49565b6002805460ff191660011790557f62e78cea01bee320cd4e420270b5ea74000d11b0c9f74754ebdbfc544b05a258610df33390565b6040516001600160a01b03909116815260200160405180910390a1565b610e18610ff7565b6002805460ff191690557f5db9ee0a495bf2e6ff9c91a7834c1ba4fdd244a5e8aa4e537bd38aeae4b073aa33610df3565b60025460ff161561086a5760405162461bcd60e51b815260206004820152601060248201526f14185d5cd8589b194e881c185d5cd95960821b60448201526064016102b1565b60408101516000904290811015610eb4578260c001518360800151610ca09190611524565b82606001518360400151610ec8919061150c565b8110610ef1578260c0015183608001518460a00151610ee7919061150c565b610ca09190611524565b6000836040015182610f039190611524565b905060008460600151828660a00151610f1c9190611554565b610f269190611573565b90508460c00151856080015182610f3d919061150c565b610f479190611524565b95945050505050565b604080516001600160a01b038416602482015260448082018490528251808303909101815260649091019091526020810180516001600160e01b031663a9059cbb60e01b179052610fa2908490611040565b505050565b600080546001600160a01b038381166001600160a01b0319831681178455604051919092169283917f8be0079c531659141344cd1fd0a4f28419497f9722a3daafe3b4186f6b6457e09190a35050565b60025460ff1661086a5760405162461bcd60e51b815260206004820152601460248201527314185d5cd8589b194e881b9bdd081c185d5cd95960621b60448201526064016102b1565b6000611095826040518060400160405280602081526020017f5361666545524332303a206c6f772d6c6576656c2063616c6c206661696c6564815250856001600160a01b03166111129092919063ffffffff16565b805190915015610fa257808060200190518101906110b39190611595565b610fa25760405162461bcd60e51b815260206004820152602a60248201527f5361666545524332303a204552433230206f7065726174696f6e20646964206e6044820152691bdd081cdd58d8d9595960b21b60648201526084016102b1565b60606111218484600085611129565b949350505050565b60608247101561118a5760405162461bcd60e51b815260206004820152602660248201527f416464726573733a20696e73756666696369656e742062616c616e636520666f6044820152651c8818d85b1b60d21b60648201526084016102b1565b6001600160a01b0385163b6111e15760405162461bcd60e51b815260206004820152601d60248201527f416464726573733a2063616c6c20746f206e6f6e2d636f6e747261637400000060448201526064016102b1565b600080866001600160a01b031685876040516111fd91906115b2565b60006040518083038185875af1925050503d806000811461123a576040519150601f19603f3d011682016040523d82523d6000602084013e61123f565b606091505b509150915061124f82828661125a565b979650505050505050565b60608315611269575081610ca0565b8251156112795782518084602001fd5b8160405162461bcd60e51b81526004016102b191906114c3565b60405180610120016040528060006001600160a01b031681526020016000815260200160008152602001600081526020016000815260200160008152602001600081526020016000151581526020016000151581525090565b801515811461025757600080fd5b60006020828403121561130c57600080fd5b8135610ca0816112ec565b80356001600160a01b038116811461132e57600080fd5b919050565b600080600080600080600060e0888a03121561134e57600080fd5b61135788611317565b96506020880135955060408801359450606088013593506080880135925060a0880135915060c088013561138a816112ec565b8091505092959891949750929550565b600080604083850312156113ad57600080fd5b50508035926020909101359150565b600080604083850312156113cf57600080fd5b6113d883611317565b946020939093013593505050565b6000602082840312156113f857600080fd5b5035919050565b60006101208201905060018060a01b0383511682526020830151602083015260408301516040830152606083015160608301526080830151608083015260a083015160a083015260c083015160c083015260e0830151151560e0830152610100808401516114708285018215159052565b505092915050565b60006020828403121561148a57600080fd5b610ca082611317565b60005b838110156114ae578181015183820152602001611496565b838111156114bd576000848401525b50505050565b60208152600082518060208401526114e2816040850160208701611493565b601f01601f19169190910160400192915050565b634e487b7160e01b600052601160045260246000fd5b6000821982111561151f5761151f6114f6565b500190565b600082821015611536576115366114f6565b500390565b60006020828403121561154d57600080fd5b5051919050565b600081600019048311821515161561156e5761156e6114f6565b500290565b60008261159057634e487b7160e01b600052601260045260246000fd5b500490565b6000602082840312156115a757600080fd5b8151610ca0816112ec565b600082516115c4818460208701611493565b919091019291505056fea2646970667358221220605d423d08d58fc5c24932f12f26e93525c777aa63f21f7b9e2c17fe2037d3d964736f6c63430008090033",
  "devdoc": {
    "kind": "dev",
    "methods": {
      "computeNextVestingScheduleIdForHolder(address)": {
        "details": "Computes the next vesting schedule identifier for a given holder address."
      },
      "computeReleasableAmount(bytes32)": {
        "returns": {
          "_0": "the vested amount"
        }
      },
      "computeVestingScheduleIdForAddressAndIndex(address,uint256)": {
        "details": "Computes the vesting schedule identifier for an address and an index."
      },
      "getVestingSchedule(bytes32)": {
        "returns": {
          "_0": "the vesting schedule structure information"
        }
      },
      "getVestingScheduleByAddressAndIndex(address,uint256)": {
        "returns": {
          "_0": "the vesting schedule structure information"
        }
      },
      "getWithdrawableAmount()": {
        "details": "Returns the amount of tokens that can be withdrawn by the owner.",
        "returns": {
          "_0": "the amount of tokens"
        }
      },
      "owner()": {
        "details": "Returns the address of the current owner."
      },
      "paused()": {
        "details": "Returns true if the contract is paused, and false otherwise."
      },
      "renounceOwnership()": {
        "details": "Leaves the contract without owner. It will not be possible to call `onlyOwner` functions anymore. Can only be called by the current owner. NOTE: Renouncing ownership will leave the contract without an owner, thereby removing any functionality that is only available to the owner."
      },
      "revoke(bytes32)": {
        "params": {
          "vestingScheduleId": "the vesting schedule identifier"
        }
      },
      "transferOwnership(address)": {
        "details": "Transfers ownership of the contract to a new account (`newOwner`). Can only be called by the current owner."
      }
    },
    "version": 1
  },
  "userdoc": {
    "kind": "user",
    "methods": {
      "blastToken()": {
        "notice": "Blast TOKEN"
      },
      "computeReleasableAmount(bytes32)": {
        "notice": "Computes the vested amount of tokens for the given vesting schedule identifier."
      },
      "createVestingSchedule(address,uint256,uint256,uint256,uint256,uint256,bool)": {
        "notice": "Creates a new vesting schedule for a beneficiary"
      },
      "getVestingSchedule(bytes32)": {
        "notice": "Returns the vesting schedule information for a given identifier."
      },
      "getVestingScheduleByAddressAndIndex(address,uint256)": {
        "notice": "Returns the vesting schedule information for a given holder and index."
      },
      "release(bytes32,uint256)": {
        "notice": "Release vested amount of tokens."
      },
      "revoke(bytes32)": {
        "notice": "Revokes the vesting schedule for given identifier."
      }
    },
    "version": 1
  },
  "storageLayout": {
    "storage": [
      {
        "astId": 446,
        "contract": "contracts/Vesting/TokenVesting.sol:TokenVesting",
        "label": "_owner",
        "offset": 0,
        "slot": "0",
        "type": "t_address"
      },
      {
        "astId": 670,
        "contract": "contracts/Vesting/TokenVesting.sol:TokenVesting",
        "label": "_status",
        "offset": 0,
        "slot": "1",
        "type": "t_uint256"
      },
      {
        "astId": 569,
        "contract": "contracts/Vesting/TokenVesting.sol:TokenVesting",
        "label": "_paused",
        "offset": 0,
        "slot": "2",
        "type": "t_bool"
      },
      {
        "astId": 12843,
        "contract": "contracts/Vesting/TokenVesting.sol:TokenVesting",
        "label": "blastToken",
        "offset": 1,
        "slot": "2",
        "type": "t_contract(IERC20)1363"
      },
      {
        "astId": 12865,
        "contract": "contracts/Vesting/TokenVesting.sol:TokenVesting",
        "label": "vestingSchedulesIds",
        "offset": 0,
        "slot": "3",
        "type": "t_array(t_bytes32)dyn_storage"
      },
      {
        "astId": 12870,
        "contract": "contracts/Vesting/TokenVesting.sol:TokenVesting",
        "label": "vestingSchedules",
        "offset": 0,
        "slot": "4",
        "type": "t_mapping(t_bytes32,t_struct(VestingSchedule)12862_storage)"
      },
      {
        "astId": 12872,
        "contract": "contracts/Vesting/TokenVesting.sol:TokenVesting",
        "label": "vestingSchedulesTotalAmount",
        "offset": 0,
        "slot": "5",
        "type": "t_uint256"
      },
      {
        "astId": 12876,
        "contract": "contracts/Vesting/TokenVesting.sol:TokenVesting",
        "label": "holdersVestingCount",
        "offset": 0,
        "slot": "6",
        "type": "t_mapping(t_address,t_uint256)"
      }
    ],
    "types": {
      "t_address": {
        "encoding": "inplace",
        "label": "address",
        "numberOfBytes": "20"
      },
      "t_array(t_bytes32)dyn_storage": {
        "base": "t_bytes32",
        "encoding": "dynamic_array",
        "label": "bytes32[]",
        "numberOfBytes": "32"
      },
      "t_bool": {
        "encoding": "inplace",
        "label": "bool",
        "numberOfBytes": "1"
      },
      "t_bytes32": {
        "encoding": "inplace",
        "label": "bytes32",
        "numberOfBytes": "32"
      },
      "t_contract(IERC20)1363": {
        "encoding": "inplace",
        "label": "contract IERC20",
        "numberOfBytes": "20"
      },
      "t_mapping(t_address,t_uint256)": {
        "encoding": "mapping",
        "key": "t_address",
        "label": "mapping(address => uint256)",
        "numberOfBytes": "32",
        "value": "t_uint256"
      },
      "t_mapping(t_bytes32,t_struct(VestingSchedule)12862_storage)": {
        "encoding": "mapping",
        "key": "t_bytes32",
        "label": "mapping(bytes32 => struct TokenVesting.VestingSchedule)",
        "numberOfBytes": "32",
        "value": "t_struct(VestingSchedule)12862_storage"
      },
      "t_struct(VestingSchedule)12862_storage": {
        "encoding": "inplace",
        "label": "struct TokenVesting.VestingSchedule",
        "members": [
          {
            "astId": 12845,
            "contract": "contracts/Vesting/TokenVesting.sol:TokenVesting",
            "label": "beneficiary",
            "offset": 0,
            "slot": "0",
            "type": "t_address"
          },
          {
            "astId": 12847,
            "contract": "contracts/Vesting/TokenVesting.sol:TokenVesting",
            "label": "start",
            "offset": 0,
            "slot": "1",
            "type": "t_uint256"
          },
          {
            "astId": 12849,
            "contract": "contracts/Vesting/TokenVesting.sol:TokenVesting",
            "label": "cliffStart",
            "offset": 0,
            "slot": "2",
            "type": "t_uint256"
          },
          {
            "astId": 12851,
            "contract": "contracts/Vesting/TokenVesting.sol:TokenVesting",
            "label": "duration",
            "offset": 0,
            "slot": "3",
            "type": "t_uint256"
          },
          {
            "astId": 12853,
            "contract": "contracts/Vesting/TokenVesting.sol:TokenVesting",
            "label": "immediateVestedAmount",
            "offset": 0,
            "slot": "4",
            "type": "t_uint256"
          },
          {
            "astId": 12855,
            "contract": "contracts/Vesting/TokenVesting.sol:TokenVesting",
            "label": "amountTotal",
            "offset": 0,
            "slot": "5",
            "type": "t_uint256"
          },
          {
            "astId": 12857,
            "contract": "contracts/Vesting/TokenVesting.sol:TokenVesting",
            "label": "released",
            "offset": 0,
            "slot": "6",
            "type": "t_uint256"
          },
          {
            "astId": 12859,
            "contract": "contracts/Vesting/TokenVesting.sol:TokenVesting",
            "label": "revocable",
            "offset": 0,
            "slot": "7",
            "type": "t_bool"
          },
          {
            "astId": 12861,
            "contract": "contracts/Vesting/TokenVesting.sol:TokenVesting",
            "label": "revoked",
            "offset": 1,
            "slot": "7",
            "type": "t_bool"
          }
        ],
        "numberOfBytes": "256"
      },
      "t_uint256": {
        "encoding": "inplace",
        "label": "uint256",
        "numberOfBytes": "32"
      }
    }
  }
}