{
  "address": "0x5Fa5b1501c859560d4A591dd9C0714F0b7619057",
  "abi": [
    {
      "inputs": [
        {
          "internalType": "contract IERC20",
          "name": "_blastToken",
          "type": "address"
        }
      ],
      "stateMutability": "nonpayable",
      "type": "constructor"
    },
    {
      "inputs": [],
      "name": "AmountInvalid",
      "type": "error"
    },
    {
      "inputs": [],
      "name": "BeneficiayrOrOwner",
      "type": "error"
    },
    {
      "inputs": [],
      "name": "DurationInvalid",
      "type": "error"
    },
    {
      "inputs": [],
      "name": "InsufficientTokens",
      "type": "error"
    },
    {
      "inputs": [],
      "name": "NotEnoughTokens",
      "type": "error"
    },
    {
      "inputs": [],
      "name": "NotRevocable",
      "type": "error"
    },
    {
      "inputs": [],
      "name": "ScheduleRevoked",
      "type": "error"
    },
    {
      "inputs": [],
      "name": "StartTimeInvalid",
      "type": "error"
    },
    {
      "inputs": [],
      "name": "ZeroAddress",
      "type": "error"
    },
    {
      "anonymous": false,
      "inputs": [
        {
          "indexed": false,
          "internalType": "address",
          "name": "user",
          "type": "address"
        },
        {
          "indexed": false,
          "internalType": "bytes32",
          "name": "scheduleId",
          "type": "bytes32"
        }
      ],
      "name": "CreatedVestingSchedule",
      "type": "event"
    },
    {
      "anonymous": false,
      "inputs": [
        {
          "indexed": true,
          "internalType": "address",
          "name": "previousOwner",
          "type": "address"
        },
        {
          "indexed": true,
          "internalType": "address",
          "name": "newOwner",
          "type": "address"
        }
      ],
      "name": "OwnershipTransferred",
      "type": "event"
    },
    {
      "anonymous": false,
      "inputs": [
        {
          "indexed": false,
          "internalType": "address",
          "name": "beneficiary",
          "type": "address"
        },
        {
          "indexed": false,
          "internalType": "bytes32",
          "name": "vestingScheduleId",
          "type": "bytes32"
        },
        {
          "indexed": false,
          "internalType": "uint256",
          "name": "amount",
          "type": "uint256"
        },
        {
          "indexed": false,
          "internalType": "uint256",
          "name": "releaseTimestamp",
          "type": "uint256"
        }
      ],
      "name": "Released",
      "type": "event"
    },
    {
      "anonymous": false,
      "inputs": [
        {
          "indexed": false,
          "internalType": "bytes32",
          "name": "vestingScheduleId",
          "type": "bytes32"
        },
        {
          "indexed": false,
          "internalType": "uint256",
          "name": "revokeTimestamp",
          "type": "uint256"
        }
      ],
      "name": "Revoked",
      "type": "event"
    },
    {
      "inputs": [],
      "name": "blastToken",
      "outputs": [
        {
          "internalType": "contract IERC20",
          "name": "",
          "type": "address"
        }
      ],
      "stateMutability": "view",
      "type": "function"
    },
    {
      "inputs": [
        {
          "internalType": "address",
          "name": "holder",
          "type": "address"
        }
      ],
      "name": "computeNextVestingScheduleIdForHolder",
      "outputs": [
        {
          "internalType": "bytes32",
          "name": "",
          "type": "bytes32"
        }
      ],
      "stateMutability": "view",
      "type": "function"
    },
    {
      "inputs": [
        {
          "internalType": "bytes32",
          "name": "vestingScheduleId",
          "type": "bytes32"
        }
      ],
      "name": "computeReleasableAmount",
      "outputs": [
        {
          "internalType": "uint256",
          "name": "",
          "type": "uint256"
        }
      ],
      "stateMutability": "view",
      "type": "function"
    },
    {
      "inputs": [
        {
          "internalType": "address",
          "name": "holder",
          "type": "address"
        },
        {
          "internalType": "uint256",
          "name": "index",
          "type": "uint256"
        }
      ],
      "name": "computeVestingScheduleIdForAddressAndIndex",
      "outputs": [
        {
          "internalType": "bytes32",
          "name": "",
          "type": "bytes32"
        }
      ],
      "stateMutability": "pure",
      "type": "function"
    },
    {
      "inputs": [
        {
          "internalType": "address",
          "name": "_beneficiary",
          "type": "address"
        },
        {
          "internalType": "uint256",
          "name": "_start",
          "type": "uint256"
        },
        {
          "internalType": "uint256",
          "name": "_cliffDuration",
          "type": "uint256"
        },
        {
          "internalType": "uint256",
          "name": "_duration",
          "type": "uint256"
        },
        {
          "internalType": "uint256",
          "name": "_immediateReleaseAmount",
          "type": "uint256"
        },
        {
          "internalType": "uint256",
          "name": "_amountTotal",
          "type": "uint256"
        },
        {
          "internalType": "bool",
          "name": "_revocable",
          "type": "bool"
        }
      ],
      "name": "createVestingSchedule",
      "outputs": [],
      "stateMutability": "nonpayable",
      "type": "function"
    },
    {
      "inputs": [
        {
          "internalType": "bytes32",
          "name": "vestingScheduleId",
          "type": "bytes32"
        }
      ],
      "name": "getVestingSchedule",
      "outputs": [
        {
          "components": [
            {
              "internalType": "address",
              "name": "beneficiary",
              "type": "address"
            },
            {
              "internalType": "uint256",
              "name": "start",
              "type": "uint256"
            },
            {
              "internalType": "uint256",
              "name": "cliffStart",
              "type": "uint256"
            },
            {
              "internalType": "uint256",
              "name": "duration",
              "type": "uint256"
            },
            {
              "internalType": "uint256",
              "name": "immediateVestedAmount",
              "type": "uint256"
            },
            {
              "internalType": "uint256",
              "name": "amountTotal",
              "type": "uint256"
            },
            {
              "internalType": "uint256",
              "name": "released",
              "type": "uint256"
            },
            {
              "internalType": "bool",
              "name": "revocable",
              "type": "bool"
            },
            {
              "internalType": "bool",
              "name": "revoked",
              "type": "bool"
            }
          ],
          "internalType": "struct TokenVesting.VestingSchedule",
          "name": "",
          "type": "tuple"
        }
      ],
      "stateMutability": "view",
      "type": "function"
    },
    {
      "inputs": [
        {
          "internalType": "address",
          "name": "holder",
          "type": "address"
        },
        {
          "internalType": "uint256",
          "name": "index",
          "type": "uint256"
        }
      ],
      "name": "getVestingScheduleByAddressAndIndex",
      "outputs": [
        {
          "components": [
            {
              "internalType": "address",
              "name": "beneficiary",
              "type": "address"
            },
            {
              "internalType": "uint256",
              "name": "start",
              "type": "uint256"
            },
            {
              "internalType": "uint256",
              "name": "cliffStart",
              "type": "uint256"
            },
            {
              "internalType": "uint256",
              "name": "duration",
              "type": "uint256"
            },
            {
              "internalType": "uint256",
              "name": "immediateVestedAmount",
              "type": "uint256"
            },
            {
              "internalType": "uint256",
              "name": "amountTotal",
              "type": "uint256"
            },
            {
              "internalType": "uint256",
              "name": "released",
              "type": "uint256"
            },
            {
              "internalType": "bool",
              "name": "revocable",
              "type": "bool"
            },
            {
              "internalType": "bool",
              "name": "revoked",
              "type": "bool"
            }
          ],
          "internalType": "struct TokenVesting.VestingSchedule",
          "name": "",
          "type": "tuple"
        }
      ],
      "stateMutability": "view",
      "type": "function"
    },
    {
      "inputs": [],
      "name": "getWithdrawableAmount",
      "outputs": [
        {
          "internalType": "uint256",
          "name": "",
          "type": "uint256"
        }
      ],
      "stateMutability": "view",
      "type": "function"
    },
    {
      "inputs": [],
      "name": "owner",
      "outputs": [
        {
          "internalType": "address",
          "name": "",
          "type": "address"
        }
      ],
      "stateMutability": "view",
      "type": "function"
    },
    {
      "inputs": [
        {
          "internalType": "bytes32",
          "name": "vestingScheduleId",
          "type": "bytes32"
        },
        {
          "internalType": "uint256",
          "name": "amount",
          "type": "uint256"
        }
      ],
      "name": "release",
      "outputs": [],
      "stateMutability": "nonpayable",
      "type": "function"
    },
    {
      "inputs": [],
      "name": "renounceOwnership",
      "outputs": [],
      "stateMutability": "nonpayable",
      "type": "function"
    },
    {
      "inputs": [
        {
          "internalType": "bytes32",
          "name": "vestingScheduleId",
          "type": "bytes32"
        }
      ],
      "name": "revoke",
      "outputs": [],
      "stateMutability": "nonpayable",
      "type": "function"
    },
    {
      "inputs": [
        {
          "internalType": "address",
          "name": "newOwner",
          "type": "address"
        }
      ],
      "name": "transferOwnership",
      "outputs": [],
      "stateMutability": "nonpayable",
      "type": "function"
    }
  ],
  "transactionHash": "0xf54a8506c4e8843fb4ed7f279c1d7f148511ed923ce4952d420945d776a6af00",
  "args": [
    "0xbb151104D1d1DD68fa76602dBc215e97486d6a3c"
  ],
  "numDeployments": 1,
  "solcInputHash": "b7caf7116d2ec06d392c187715787bdb",
  "bytecode": "0x60a060405234801561001057600080fd5b5060405161141738038061141783398101604081905261002f9161009d565b6100383361004d565b600180556001600160a01b03166080526100cd565b600080546001600160a01b038381166001600160a01b0319831681178455604051919092169283917f8be0079c531659141344cd1fd0a4f28419497f9722a3daafe3b4186f6b6457e09190a35050565b6000602082840312156100af57600080fd5b81516001600160a01b03811681146100c657600080fd5b9392505050565b6080516113226100f56000396000818160d90152818161069c015261079101526113226000f3fe608060405234801561001057600080fd5b50600436106100cf5760003560e01c806390be10cc1161008c578063ea1bb3d511610066578063ea1bb3d5146101b5578063f2fde38b146101c8578063f51321d7146101db578063f7c469f0146101ee57600080fd5b806390be10cc1461017a5780639ef346b414610182578063b75c7dc6146101a257600080fd5b80631b078ab3146100d45780634495e8271461011857806366afd8ef1461012d578063715018a6146101405780638af104da146101485780638da5cb5b14610169575b600080fd5b6100fb7f000000000000000000000000000000000000000000000000000000000000000081565b6040516001600160a01b0390911681526020015b60405180910390f35b61012b610126366004611051565b610201565b005b61012b61013b3660046110b8565b6104dc565b61012b610718565b61015b6101563660046110da565b61072c565b60405190815260200161010f565b6000546001600160a01b03166100fb565b61015b610773565b610195610190366004611104565b610822565b60405161010f919061111d565b61012b6101b0366004611104565b6108b5565b61015b6101c3366004611104565b610a33565b61012b6101d6366004611196565b610b01565b6101956101e93660046110da565b610b7a565b61015b6101fc366004611196565b610b8f565b610209610bb9565b6001600160a01b0387166102305760405163d92e233d60e01b815260040160405180910390fd5b61023a83836111c7565b610242610773565b1015610261576040516378dbf0af60e11b815260040160405180910390fd5b8361027f57604051637c2a912d60e11b815260040160405180910390fd5b8161029d5760405163079d4a4560e11b815260040160405180910390fd5b4286116102bd57604051632aeba70760e21b815260040160405180910390fd5b838511156102de57604051637c2a912d60e11b815260040160405180910390fd5b60006102e988610b8f565b905060006102f787896111c7565b90506040518061012001604052808a6001600160a01b03168152602001898152602001828152602001878152602001868152602001858152602001600081526020018415158152602001600015158152506003600084815260200190815260200160002060008201518160000160006101000a8154816001600160a01b0302191690836001600160a01b031602179055506020820151816001015560408201518160020155606082015181600301556080820151816004015560a0820151816005015560c0820151816006015560e08201518160070160006101000a81548160ff0219169083151502179055506101008201518160070160016101000a81548160ff021916908315150217905550905050848460045461041791906111c7565b61042191906111c7565b6004556002805460018181019092557f405787fa12a823e0f2b7631cc41b3ba8828b3321ca811111fa75cd3aa3bb5ace018390556001600160a01b038a166000908152600560205260409020549061047a9082906111c7565b6001600160a01b038b166000818152600560209081526040918290209390935580519182529181018590527f866861c8e9b4426152f128328a1bb760e1fd75b7d542ee92a4af3d4bdc5f5a4c910160405180910390a150505050505050505050565b600260015414156105345760405162461bcd60e51b815260206004820152601f60248201527f5265656e7472616e637947756172643a207265656e7472616e742063616c6c0060448201526064015b60405180910390fd5b6002600155600082815260036020526040902060070154610100900460ff1615610571576040516318aaa38760e31b815260040160405180910390fd5b6000828152600360205260408120805491549091336001600160a01b0391821681149291909116148115826105a4575080155b156105c257604051634c61ddc160e01b815260040160405180910390fd5b604080516101208101825284546001600160a01b03168152600185015460208201526002850154918101919091526003840154606082015260048401546080820152600584015460a0820152600684015460c0820152600784015460ff808216151560e0840152610100918290041615159082015260009061064390610c13565b905084811015610666576040516308aeed0f60e21b815260040160405180910390fd5b84846006015461067691906111c7565b60068501556004546106899086906111df565b60045583546106c5906001600160a01b037f00000000000000000000000000000000000000000000000000000000000000008116911687610cd4565b60408051338152602081018890529081018690524260608201527f4d42445e683cbab3983ed888401e0f37825acc044273f7c77716cf3b7057e5f49060800160405180910390a150506001805550505050565b610720610bb9565b61072a6000610d2b565b565b6040516bffffffffffffffffffffffff19606084901b1660208201526034810182905260009060540160405160208183030381529060405280519060200120905092915050565b600480546040516370a0823160e01b815230928101929092526000917f00000000000000000000000000000000000000000000000000000000000000006001600160a01b0316906370a082319060240160206040518083038186803b1580156107db57600080fd5b505afa1580156107ef573d6000803e3d6000fd5b505050506040513d601f19601f8201168201806040525081019061081391906111f6565b61081d91906111df565b905090565b61082a610fce565b5060009081526003602081815260409283902083516101208101855281546001600160a01b0316815260018201549281019290925260028101549382019390935290820154606082015260048201546080820152600582015460a0820152600682015460c082015260079091015460ff808216151560e0840152610100918290041615159082015290565b6108bd610bb9565b600081815260036020526040902060070154610100900460ff16156108f5576040516318aaa38760e31b815260040160405180910390fd5b6000818152600360205260409020600781015460ff1661092857604051639414820d60e01b815260040160405180910390fd5b604080516101208101825282546001600160a01b03168152600183015460208201526002830154918101919091526003820154606082015260048201546080820152600582015460a0820152600682015460c0820152600782015460ff808216151560e084015261010091829004161515908201526000906109a990610c13565b905080156109bb576109bb83826104dc565b6000826006015483600501546109d191906111df565b9050806004546109e191906111df565b60045560078301805461ff001916610100179055604080518581524260208201527ff53e4c807734a99e87fb386d2952cda1e1aa71600280ecf91f5eaae69677c333910160405180910390a150505050565b600081815260036020526040812060070154610100900460ff1615610a6b576040516318aaa38760e31b815260040160405180910390fd5b60008281526003602081815260409283902083516101208101855281546001600160a01b0316815260018201549281019290925260028101549382019390935290820154606082015260048201546080820152600582015460a0820152600682015460c0820152600782015460ff808216151560e08401526101009182900416151590820152610afa90610c13565b9392505050565b610b09610bb9565b6001600160a01b038116610b6e5760405162461bcd60e51b815260206004820152602660248201527f4f776e61626c653a206e6577206f776e657220697320746865207a65726f206160448201526564647265737360d01b606482015260840161052b565b610b7781610d2b565b50565b610b82610fce565b610afa610190848461072c565b6001600160a01b038116600090815260056020526040812054610bb390839061072c565b92915050565b6000546001600160a01b0316331461072a5760405162461bcd60e51b815260206004820181905260248201527f4f776e61626c653a2063616c6c6572206973206e6f7420746865206f776e6572604482015260640161052b565b60408101516000904290811015610c38578260c001518360800151610afa91906111df565b82606001518360400151610c4c91906111c7565b8110610c75578260c0015183608001518460a00151610c6b91906111c7565b610afa91906111df565b6000836040015182610c8791906111df565b905060008460600151828660a00151610ca0919061120f565b610caa919061122e565b90508460c00151856080015182610cc191906111c7565b610ccb91906111df565b95945050505050565b604080516001600160a01b038416602482015260448082018490528251808303909101815260649091019091526020810180516001600160e01b031663a9059cbb60e01b179052610d26908490610d7b565b505050565b600080546001600160a01b038381166001600160a01b0319831681178455604051919092169283917f8be0079c531659141344cd1fd0a4f28419497f9722a3daafe3b4186f6b6457e09190a35050565b6000610dd0826040518060400160405280602081526020017f5361666545524332303a206c6f772d6c6576656c2063616c6c206661696c6564815250856001600160a01b0316610e4d9092919063ffffffff16565b805190915015610d265780806020019051810190610dee9190611250565b610d265760405162461bcd60e51b815260206004820152602a60248201527f5361666545524332303a204552433230206f7065726174696f6e20646964206e6044820152691bdd081cdd58d8d9595960b21b606482015260840161052b565b6060610e5c8484600085610e64565b949350505050565b606082471015610ec55760405162461bcd60e51b815260206004820152602660248201527f416464726573733a20696e73756666696369656e742062616c616e636520666f6044820152651c8818d85b1b60d21b606482015260840161052b565b6001600160a01b0385163b610f1c5760405162461bcd60e51b815260206004820152601d60248201527f416464726573733a2063616c6c20746f206e6f6e2d636f6e7472616374000000604482015260640161052b565b600080866001600160a01b03168587604051610f38919061129d565b60006040518083038185875af1925050503d8060008114610f75576040519150601f19603f3d011682016040523d82523d6000602084013e610f7a565b606091505b5091509150610f8a828286610f95565b979650505050505050565b60608315610fa4575081610afa565b825115610fb45782518084602001fd5b8160405162461bcd60e51b815260040161052b91906112b9565b60405180610120016040528060006001600160a01b031681526020016000815260200160008152602001600081526020016000815260200160008152602001600081526020016000151581526020016000151581525090565b80356001600160a01b038116811461103e57600080fd5b919050565b8015158114610b7757600080fd5b600080600080600080600060e0888a03121561106c57600080fd5b61107588611027565b96506020880135955060408801359450606088013593506080880135925060a0880135915060c08801356110a881611043565b8091505092959891949750929550565b600080604083850312156110cb57600080fd5b50508035926020909101359150565b600080604083850312156110ed57600080fd5b6110f683611027565b946020939093013593505050565b60006020828403121561111657600080fd5b5035919050565b60006101208201905060018060a01b0383511682526020830151602083015260408301516040830152606083015160608301526080830151608083015260a083015160a083015260c083015160c083015260e0830151151560e08301526101008084015161118e8285018215159052565b505092915050565b6000602082840312156111a857600080fd5b610afa82611027565b634e487b7160e01b600052601160045260246000fd5b600082198211156111da576111da6111b1565b500190565b6000828210156111f1576111f16111b1565b500390565b60006020828403121561120857600080fd5b5051919050565b6000816000190483118215151615611229576112296111b1565b500290565b60008261124b57634e487b7160e01b600052601260045260246000fd5b500490565b60006020828403121561126257600080fd5b8151610afa81611043565b60005b83811015611288578181015183820152602001611270565b83811115611297576000848401525b50505050565b600082516112af81846020870161126d565b9190910192915050565b60208152600082518060208401526112d881604085016020870161126d565b601f01601f1916919091016040019291505056fea2646970667358221220653fe37834d71cd09a3544895712cf61409af035519879be5515eefd22ea72b564736f6c63430008090033",
  "devdoc": {
    "kind": "dev",
    "methods": {
      "computeNextVestingScheduleIdForHolder(address)": {
        "details": "Computes the next vesting schedule identifier for a given holder address."
      },
      "computeReleasableAmount(bytes32)": {
        "returns": {
          "_0": "the vested amount"
        }
      },
      "computeVestingScheduleIdForAddressAndIndex(address,uint256)": {
        "details": "Computes the vesting schedule identifier for an address and an index."
      },
      "getVestingSchedule(bytes32)": {
        "returns": {
          "_0": "the vesting schedule structure information"
        }
      },
      "getVestingScheduleByAddressAndIndex(address,uint256)": {
        "returns": {
          "_0": "the vesting schedule structure information"
        }
      },
      "getWithdrawableAmount()": {
        "details": "Returns the amount of tokens that can be withdrawn by the owner.",
        "returns": {
          "_0": "the amount of tokens"
        }
      },
      "owner()": {
        "details": "Returns the address of the current owner."
      },
      "renounceOwnership()": {
        "details": "Leaves the contract without owner. It will not be possible to call `onlyOwner` functions anymore. Can only be called by the current owner. NOTE: Renouncing ownership will leave the contract without an owner, thereby removing any functionality that is only available to the owner."
      },
      "revoke(bytes32)": {
        "params": {
          "vestingScheduleId": "the vesting schedule identifier"
        }
      },
      "transferOwnership(address)": {
        "details": "Transfers ownership of the contract to a new account (`newOwner`). Can only be called by the current owner."
      }
    },
    "version": 1
  },
  "userdoc": {
    "errors": {
      "AmountInvalid()": [
        {
          "notice": "amount must be > 0"
        }
      ],
      "BeneficiayrOrOwner()": [
        {
          "notice": "only beneficiary and owner can release vested tokens"
        }
      ],
      "DurationInvalid()": [
        {
          "notice": "duration must be > 0"
        }
      ],
      "InsufficientTokens()": [
        {
          "notice": "cannot create vesting schedule because not sufficient tokens"
        }
      ],
      "NotEnoughTokens()": [
        {
          "notice": "cannot release tokens, not enough vested tokens"
        }
      ],
      "NotRevocable()": [
        {
          "notice": "Vesting is not revocable"
        }
      ],
      "ScheduleRevoked()": [
        {
          "notice": "Reverts if the vesting schedule has been revoked"
        }
      ],
      "StartTimeInvalid()": [
        {
          "notice": "When create vesting schedule, in case of start time should be future"
        }
      ],
      "ZeroAddress()": [
        {
          "notice": "In case the address is zero"
        }
      ]
    },
    "kind": "user",
    "methods": {
      "blastToken()": {
        "notice": "Blast TOKEN"
      },
      "computeReleasableAmount(bytes32)": {
        "notice": "Computes the vested amount of tokens for the given vesting schedule identifier."
      },
      "createVestingSchedule(address,uint256,uint256,uint256,uint256,uint256,bool)": {
        "notice": "Creates a new vesting schedule for a beneficiary"
      },
      "getVestingSchedule(bytes32)": {
        "notice": "Returns the vesting schedule information for a given identifier."
      },
      "getVestingScheduleByAddressAndIndex(address,uint256)": {
        "notice": "Returns the vesting schedule information for a given holder and index."
      },
      "release(bytes32,uint256)": {
        "notice": "Release vested amount of tokens."
      },
      "revoke(bytes32)": {
        "notice": "Revokes the vesting schedule for given identifier."
      }
    },
    "version": 1
  },
  "storageLayout": {
    "storage": [
      {
        "astId": 446,
        "contract": "contracts/Vesting/TokenVesting.sol:TokenVesting",
        "label": "_owner",
        "offset": 0,
        "slot": "0",
        "type": "t_address"
      },
      {
        "astId": 670,
        "contract": "contracts/Vesting/TokenVesting.sol:TokenVesting",
        "label": "_status",
        "offset": 0,
        "slot": "1",
        "type": "t_uint256"
      },
      {
        "astId": 14593,
        "contract": "contracts/Vesting/TokenVesting.sol:TokenVesting",
        "label": "vestingSchedulesIds",
        "offset": 0,
        "slot": "2",
        "type": "t_array(t_bytes32)dyn_storage"
      },
      {
        "astId": 14598,
        "contract": "contracts/Vesting/TokenVesting.sol:TokenVesting",
        "label": "vestingSchedules",
        "offset": 0,
        "slot": "3",
        "type": "t_mapping(t_bytes32,t_struct(VestingSchedule)14590_storage)"
      },
      {
        "astId": 14600,
        "contract": "contracts/Vesting/TokenVesting.sol:TokenVesting",
        "label": "vestingSchedulesTotalAmount",
        "offset": 0,
        "slot": "4",
        "type": "t_uint256"
      },
      {
        "astId": 14604,
        "contract": "contracts/Vesting/TokenVesting.sol:TokenVesting",
        "label": "holdersVestingCount",
        "offset": 0,
        "slot": "5",
        "type": "t_mapping(t_address,t_uint256)"
      }
    ],
    "types": {
      "t_address": {
        "encoding": "inplace",
        "label": "address",
        "numberOfBytes": "20"
      },
      "t_array(t_bytes32)dyn_storage": {
        "base": "t_bytes32",
        "encoding": "dynamic_array",
        "label": "bytes32[]",
        "numberOfBytes": "32"
      },
      "t_bool": {
        "encoding": "inplace",
        "label": "bool",
        "numberOfBytes": "1"
      },
      "t_bytes32": {
        "encoding": "inplace",
        "label": "bytes32",
        "numberOfBytes": "32"
      },
      "t_mapping(t_address,t_uint256)": {
        "encoding": "mapping",
        "key": "t_address",
        "label": "mapping(address => uint256)",
        "numberOfBytes": "32",
        "value": "t_uint256"
      },
      "t_mapping(t_bytes32,t_struct(VestingSchedule)14590_storage)": {
        "encoding": "mapping",
        "key": "t_bytes32",
        "label": "mapping(bytes32 => struct TokenVesting.VestingSchedule)",
        "numberOfBytes": "32",
        "value": "t_struct(VestingSchedule)14590_storage"
      },
      "t_struct(VestingSchedule)14590_storage": {
        "encoding": "inplace",
        "label": "struct TokenVesting.VestingSchedule",
        "members": [
          {
            "astId": 14573,
            "contract": "contracts/Vesting/TokenVesting.sol:TokenVesting",
            "label": "beneficiary",
            "offset": 0,
            "slot": "0",
            "type": "t_address"
          },
          {
            "astId": 14575,
            "contract": "contracts/Vesting/TokenVesting.sol:TokenVesting",
            "label": "start",
            "offset": 0,
            "slot": "1",
            "type": "t_uint256"
          },
          {
            "astId": 14577,
            "contract": "contracts/Vesting/TokenVesting.sol:TokenVesting",
            "label": "cliffStart",
            "offset": 0,
            "slot": "2",
            "type": "t_uint256"
          },
          {
            "astId": 14579,
            "contract": "contracts/Vesting/TokenVesting.sol:TokenVesting",
            "label": "duration",
            "offset": 0,
            "slot": "3",
            "type": "t_uint256"
          },
          {
            "astId": 14581,
            "contract": "contracts/Vesting/TokenVesting.sol:TokenVesting",
            "label": "immediateVestedAmount",
            "offset": 0,
            "slot": "4",
            "type": "t_uint256"
          },
          {
            "astId": 14583,
            "contract": "contracts/Vesting/TokenVesting.sol:TokenVesting",
            "label": "amountTotal",
            "offset": 0,
            "slot": "5",
            "type": "t_uint256"
          },
          {
            "astId": 14585,
            "contract": "contracts/Vesting/TokenVesting.sol:TokenVesting",
            "label": "released",
            "offset": 0,
            "slot": "6",
            "type": "t_uint256"
          },
          {
            "astId": 14587,
            "contract": "contracts/Vesting/TokenVesting.sol:TokenVesting",
            "label": "revocable",
            "offset": 0,
            "slot": "7",
            "type": "t_bool"
          },
          {
            "astId": 14589,
            "contract": "contracts/Vesting/TokenVesting.sol:TokenVesting",
            "label": "revoked",
            "offset": 1,
            "slot": "7",
            "type": "t_bool"
          }
        ],
        "numberOfBytes": "256"
      },
      "t_uint256": {
        "encoding": "inplace",
        "label": "uint256",
        "numberOfBytes": "32"
      }
    }
  }
}