{
  "address": "0x1d1ea9c0EEFeB90c5A43fEe7111b8661B2D8982E",
  "abi": [
    {
      "inputs": [
        {
          "internalType": "contract IBlastEquipmentNFT",
          "name": "_blastEquipmentNFT",
          "type": "address"
        },
        {
          "internalType": "contract IERC20",
          "name": "_blastToken",
          "type": "address"
        },
        {
          "internalType": "contract ERC20Burnable",
          "name": "_csToken",
          "type": "address"
        },
        {
          "internalType": "address",
          "name": "_treasuryAddress",
          "type": "address"
        },
        {
          "internalType": "address",
          "name": "_companyAddress",
          "type": "address"
        }
      ],
      "stateMutability": "nonpayable",
      "type": "constructor"
    },
    {
      "anonymous": false,
      "inputs": [
        {
          "indexed": false,
          "internalType": "uint256",
          "name": "tokenId",
          "type": "uint256"
        },
        {
          "indexed": false,
          "internalType": "address",
          "name": "owner",
          "type": "address"
        },
        {
          "indexed": false,
          "internalType": "uint256",
          "name": "newLevel",
          "type": "uint256"
        }
      ],
      "name": "LevelUpgraded",
      "type": "event"
    },
    {
      "anonymous": false,
      "inputs": [
        {
          "indexed": false,
          "internalType": "address",
          "name": "account",
          "type": "address"
        }
      ],
      "name": "Paused",
      "type": "event"
    },
    {
      "anonymous": false,
      "inputs": [
        {
          "indexed": true,
          "internalType": "bytes32",
          "name": "role",
          "type": "bytes32"
        },
        {
          "indexed": true,
          "internalType": "bytes32",
          "name": "previousAdminRole",
          "type": "bytes32"
        },
        {
          "indexed": true,
          "internalType": "bytes32",
          "name": "newAdminRole",
          "type": "bytes32"
        }
      ],
      "name": "RoleAdminChanged",
      "type": "event"
    },
    {
      "anonymous": false,
      "inputs": [
        {
          "indexed": true,
          "internalType": "bytes32",
          "name": "role",
          "type": "bytes32"
        },
        {
          "indexed": true,
          "internalType": "address",
          "name": "account",
          "type": "address"
        },
        {
          "indexed": true,
          "internalType": "address",
          "name": "sender",
          "type": "address"
        }
      ],
      "name": "RoleGranted",
      "type": "event"
    },
    {
      "anonymous": false,
      "inputs": [
        {
          "indexed": true,
          "internalType": "bytes32",
          "name": "role",
          "type": "bytes32"
        },
        {
          "indexed": true,
          "internalType": "address",
          "name": "account",
          "type": "address"
        },
        {
          "indexed": true,
          "internalType": "address",
          "name": "sender",
          "type": "address"
        }
      ],
      "name": "RoleRevoked",
      "type": "event"
    },
    {
      "anonymous": false,
      "inputs": [
        {
          "indexed": false,
          "internalType": "address",
          "name": "account",
          "type": "address"
        }
      ],
      "name": "Unpaused",
      "type": "event"
    },
    {
      "inputs": [],
      "name": "DECIMAL_FACTOR",
      "outputs": [
        {
          "internalType": "uint256",
          "name": "",
          "type": "uint256"
        }
      ],
      "stateMutability": "view",
      "type": "function"
    },
    {
      "inputs": [],
      "name": "DEFAULT_ADMIN_ROLE",
      "outputs": [
        {
          "internalType": "bytes32",
          "name": "",
          "type": "bytes32"
        }
      ],
      "stateMutability": "view",
      "type": "function"
    },
    {
      "inputs": [],
      "name": "blastEquipmentNFT",
      "outputs": [
        {
          "internalType": "contract IBlastEquipmentNFT",
          "name": "",
          "type": "address"
        }
      ],
      "stateMutability": "view",
      "type": "function"
    },
    {
      "inputs": [],
      "name": "blastToken",
      "outputs": [
        {
          "internalType": "contract IERC20",
          "name": "",
          "type": "address"
        }
      ],
      "stateMutability": "view",
      "type": "function"
    },
    {
      "inputs": [],
      "name": "bltAttribute",
      "outputs": [
        {
          "internalType": "uint256",
          "name": "pricePerLevel",
          "type": "uint256"
        }
      ],
      "stateMutability": "view",
      "type": "function"
    },
    {
      "inputs": [],
      "name": "csAttribute",
      "outputs": [
        {
          "internalType": "uint256",
          "name": "pricePerLevel",
          "type": "uint256"
        }
      ],
      "stateMutability": "view",
      "type": "function"
    },
    {
      "inputs": [],
      "name": "csToken",
      "outputs": [
        {
          "internalType": "contract ERC20Burnable",
          "name": "",
          "type": "address"
        }
      ],
      "stateMutability": "view",
      "type": "function"
    },
    {
      "inputs": [],
      "name": "durabilityEffectDivider",
      "outputs": [
        {
          "internalType": "uint256",
          "name": "",
          "type": "uint256"
        }
      ],
      "stateMutability": "view",
      "type": "function"
    },
    {
      "inputs": [],
      "name": "flipIsUsingMatic",
      "outputs": [],
      "stateMutability": "nonpayable",
      "type": "function"
    },
    {
      "inputs": [],
      "name": "getLatestPrice",
      "outputs": [
        {
          "internalType": "int256",
          "name": "",
          "type": "int256"
        }
      ],
      "stateMutability": "view",
      "type": "function"
    },
    {
      "inputs": [
        {
          "internalType": "uint8",
          "name": "_tokenType",
          "type": "uint8"
        },
        {
          "internalType": "uint256",
          "name": "_tokenId",
          "type": "uint256"
        }
      ],
      "name": "getRequiredPrice",
      "outputs": [
        {
          "internalType": "uint256",
          "name": "",
          "type": "uint256"
        }
      ],
      "stateMutability": "view",
      "type": "function"
    },
    {
      "inputs": [
        {
          "internalType": "bytes32",
          "name": "role",
          "type": "bytes32"
        }
      ],
      "name": "getRoleAdmin",
      "outputs": [
        {
          "internalType": "bytes32",
          "name": "",
          "type": "bytes32"
        }
      ],
      "stateMutability": "view",
      "type": "function"
    },
    {
      "inputs": [
        {
          "internalType": "bytes32",
          "name": "role",
          "type": "bytes32"
        },
        {
          "internalType": "address",
          "name": "account",
          "type": "address"
        }
      ],
      "name": "grantRole",
      "outputs": [],
      "stateMutability": "nonpayable",
      "type": "function"
    },
    {
      "inputs": [
        {
          "internalType": "bytes32",
          "name": "role",
          "type": "bytes32"
        },
        {
          "internalType": "address",
          "name": "account",
          "type": "address"
        }
      ],
      "name": "hasRole",
      "outputs": [
        {
          "internalType": "bool",
          "name": "",
          "type": "bool"
        }
      ],
      "stateMutability": "view",
      "type": "function"
    },
    {
      "inputs": [],
      "name": "isUsingMatic",
      "outputs": [
        {
          "internalType": "bool",
          "name": "",
          "type": "bool"
        }
      ],
      "stateMutability": "view",
      "type": "function"
    },
    {
      "inputs": [
        {
          "internalType": "uint256",
          "name": "",
          "type": "uint256"
        }
      ],
      "name": "maxLevelPerRarity",
      "outputs": [
        {
          "internalType": "uint256",
          "name": "",
          "type": "uint256"
        }
      ],
      "stateMutability": "view",
      "type": "function"
    },
    {
      "inputs": [
        {
          "internalType": "uint256",
          "name": "",
          "type": "uint256"
        }
      ],
      "name": "multiplierPerGrade",
      "outputs": [
        {
          "internalType": "uint16",
          "name": "",
          "type": "uint16"
        }
      ],
      "stateMutability": "view",
      "type": "function"
    },
    {
      "inputs": [
        {
          "internalType": "bool",
          "name": "stop",
          "type": "bool"
        }
      ],
      "name": "pause",
      "outputs": [],
      "stateMutability": "nonpayable",
      "type": "function"
    },
    {
      "inputs": [],
      "name": "paused",
      "outputs": [
        {
          "internalType": "bool",
          "name": "",
          "type": "bool"
        }
      ],
      "stateMutability": "view",
      "type": "function"
    },
    {
      "inputs": [
        {
          "internalType": "bytes32",
          "name": "role",
          "type": "bytes32"
        },
        {
          "internalType": "address",
          "name": "account",
          "type": "address"
        }
      ],
      "name": "renounceRole",
      "outputs": [],
      "stateMutability": "nonpayable",
      "type": "function"
    },
    {
      "inputs": [
        {
          "internalType": "bytes32",
          "name": "role",
          "type": "bytes32"
        },
        {
          "internalType": "address",
          "name": "account",
          "type": "address"
        }
      ],
      "name": "revokeRole",
      "outputs": [],
      "stateMutability": "nonpayable",
      "type": "function"
    },
    {
      "inputs": [
        {
          "internalType": "contract IBlastEquipmentNFT",
          "name": "_blastEquipmentNFT",
          "type": "address"
        }
      ],
      "name": "setBlastEquipmentAddress",
      "outputs": [],
      "stateMutability": "nonpayable",
      "type": "function"
    },
    {
      "inputs": [
        {
          "internalType": "contract IERC20",
          "name": "_blastToken",
          "type": "address"
        }
      ],
      "name": "setBlastTokenAddress",
      "outputs": [],
      "stateMutability": "nonpayable",
      "type": "function"
    },
    {
      "inputs": [
        {
          "internalType": "contract ERC20Burnable",
          "name": "_csToken",
          "type": "address"
        }
      ],
      "name": "setCSTokenAddress",
      "outputs": [],
      "stateMutability": "nonpayable",
      "type": "function"
    },
    {
      "inputs": [
        {
          "internalType": "address",
          "name": "_company",
          "type": "address"
        }
      ],
      "name": "setCompanyAddress",
      "outputs": [],
      "stateMutability": "nonpayable",
      "type": "function"
    },
    {
      "inputs": [
        {
          "internalType": "uint256",
          "name": "_newValue",
          "type": "uint256"
        }
      ],
      "name": "setDurabilityEffectDivider",
      "outputs": [],
      "stateMutability": "nonpayable",
      "type": "function"
    },
    {
      "inputs": [
        {
          "internalType": "uint16[5]",
          "name": "_multiplierPerGrade",
          "type": "uint16[5]"
        }
      ],
      "name": "setMultiplierPerGrade",
      "outputs": [],
      "stateMutability": "nonpayable",
      "type": "function"
    },
    {
      "inputs": [
        {
          "internalType": "address",
          "name": "_treasury",
          "type": "address"
        }
      ],
      "name": "setTreasuryAddress",
      "outputs": [],
      "stateMutability": "nonpayable",
      "type": "function"
    },
    {
      "inputs": [
        {
          "internalType": "bytes4",
          "name": "interfaceId",
          "type": "bytes4"
        }
      ],
      "name": "supportsInterface",
      "outputs": [
        {
          "internalType": "bool",
          "name": "",
          "type": "bool"
        }
      ],
      "stateMutability": "view",
      "type": "function"
    },
    {
      "inputs": [
        {
          "internalType": "uint256",
          "name": "_tokenId",
          "type": "uint256"
        }
      ],
      "name": "upgrade",
      "outputs": [],
      "stateMutability": "nonpayable",
      "type": "function"
    },
    {
      "inputs": [
        {
          "internalType": "uint256",
          "name": "_tokenId",
          "type": "uint256"
        }
      ],
      "name": "upgradeUsingMatic",
      "outputs": [],
      "stateMutability": "payable",
      "type": "function"
    }
  ],
  "transactionHash": "0x9515a66c7ad93da3e78695bf2bfac58aae7e6a23fc1cf025505cb0aae99b9ad9",
  "args": [
    "0x03eA885Ec4cb6100707EB4bE74DD83a7DDf856B1",
    "0xdF1b3D7F8DE55148c42dAb83f8f1b9E0510EfCb2",
    "0x3539f80890beD510F666Dd307A640220c113e599",
    "0x7Ac410F4E36873022b57821D7a8EB3D7513C045a",
    "0x7Ac410F4E36873022b57821D7a8EB3D7513C045a"
  ],
  "numDeployments": 3,
  "solcInputHash": "038ad6350887b7125fa5b305dd90fc15",
  "bytecode": "0x60306008556101c0604052600a6080818152600c60a052600f60c052601160e052601461010052601661012052601961014052601b61016052601e6101805260236101a052620000539160099190620005e3565b506040805160a0810182526106cc81526105f060208201526105289181019190915261047e60608201526103e86080820152620000959060139060056200062b565b50348015620000a357600080fd5b5060405162002ece38038062002ece833981016040819052620000c69162000779565b600180556002805460ff1916905584848484846001600160a01b03851615801590620000fa57506001600160a01b03841615155b80156200010f57506001600160a01b03831615155b80156200012457506001600160a01b03821615155b80156200013957506001600160a01b03811615155b604051806040016040528060018152602001603160f81b815250906200017d5760405162461bcd60e51b8152600401620001749190620007f9565b60405180910390fd5b506200018b60003362000533565b84600360006101000a8154816001600160a01b0302191690836001600160a01b0316021790555083600460006101000a8154816001600160a01b0302191690836001600160a01b0316021790555082600560006101000a8154816001600160a01b0302191690836001600160a01b0316021790555081600660006101000a8154816001600160a01b0302191690836001600160a01b0316021790555080600760006101000a8154816001600160a01b0302191690836001600160a01b0316021790555073d0d5e3db44de05e9f294bb0a3beeaf030de24ada600260016101000a8154816001600160a01b0302191690836001600160a01b0316021790555050505050506000604051806101400160405280600361ffff1661ffff168152602001600461ffff168152602001600461ffff168152602001600561ffff168152602001600561ffff168152602001600661ffff168152602001600761ffff168152602001600761ffff168152602001600861ffff168152602001600961ffff1681525090506000604051806101400160405280600060ff168152602001600060ff168152602001600060ff168152602001600160ff168152602001600160ff168152602001600260ff168152602001600260ff168152602001600360ff168152602001600460ff168152602001600460ff1681525090506000604051806101400160405280606461ffff168152602001609061ffff16815260200160cf61ffff16815260200161012961ffff1681526020016101ab61ffff16815260200161026561ffff16815260200161037161ffff1681526020016104f261ffff16815260200161071b61ffff168152602001610a3561ffff1681525090506000604051806101400160405280600060ff168152602001600060ff168152602001600060ff168152602001600160ff168152602001600160ff168152602001600260ff168152602001600260ff168152602001600360ff168152602001600460ff168152602001600460ff16815250905060405180606001604052808581526020018481526020016101f4815250601460008201518160000190600a620004ad9291906200062b565b506020820151620004c5906001830190600a620006c3565b506040918201516002909101558051606081018252838152602081018390526109c4918101919091526017620004fe8185600a6200062b565b50602082015162000516906001830190600a620006c3565b506040820151816002015590505050505050505050505062000851565b6200053f828262000543565b5050565b6000828152602081815260408083206001600160a01b038516845290915290205460ff166200053f576000828152602081815260408083206001600160a01b03851684529091529020805460ff191660011790556200059f3390565b6001600160a01b0316816001600160a01b0316837f2f8788117e7eff1d82e926ec794901d17c78024a50270940304540a733656f0d60405160405180910390a45050565b82600a810192821562000619579160200282015b8281111562000619578251829060ff16905591602001919060010190620005f7565b506200062792915062000749565b5090565b600183019183908215620006195791602002820160005b838211156200068457835183826101000a81548161ffff021916908361ffff160217905550926020019260020160208160010104928301926001030262000642565b8015620006b45782816101000a81549061ffff021916905560020160208160010104928301926001030262000684565b50506200062792915062000749565b600183019183908215620006195791602002820160005b838211156200071a57835183826101000a81548160ff021916908360ff1602179055509260200192600101602081600001049283019260010302620006da565b8015620006b45782816101000a81549060ff02191690556001016020816000010492830192600103026200071a565b5b808211156200062757600081556001016200074a565b6001600160a01b03811681146200077657600080fd5b50565b600080600080600060a086880312156200079257600080fd5b85516200079f8162000760565b6020870151909550620007b28162000760565b6040870151909450620007c58162000760565b6060870151909350620007d88162000760565b6080870151909250620007eb8162000760565b809150509295509295909350565b600060208083528351808285015260005b8181101562000828578581018301518582016040015282016200080a565b818111156200083b576000604083870101525b50601f01601f1916929092016040019392505050565b61266d80620008616000396000f3fe6080604052600436106101d85760003560e01c80635ad6af93116101025780638e15f47311610095578063d547741f11610064578063d547741f14610541578063df8de16314610561578063e04605fd14610582578063eccb4448146105a257600080fd5b80638e15f473146104d757806391d14854146104ec578063a217fddf1461050c578063c1763ee51461052157600080fd5b806367bdae9a116100d157806367bdae9a1461046d57806372c6239a1461048d5780637557a7d2146104ad57806384b8bce4146104c457600080fd5b80635ad6af93146104085780635c975abb1461041f5780635e00e592146104375780636605bfda1461044d57600080fd5b8063248a9ca31161017a57806345977d031161014957806345977d03146103885780634c0f5276146103a85780634f63a772146103c8578063522ffe96146103e857600080fd5b8063248a9ca3146103025780632f2ff15d1461033257806333fdbbe51461035257806336568abe1461036857600080fd5b8063062f8344116101b6578063062f83441461024957806309aca32e1461027c5780631b078ab31461029c5780632116dcc0146102d457600080fd5b806301ffc9a7146101dd578063021946fd1461021257806302329a2914610229575b600080fd5b3480156101e957600080fd5b506101fd6101f836600461212b565b6105c2565b60405190151581526020015b60405180910390f35b34801561021e57600080fd5b506102276105f9565b005b34801561023557600080fd5b50610227610244366004612163565b610626565b34801561025557600080fd5b50610269610264366004612180565b61064b565b60405161ffff9091168152602001610209565b34801561028857600080fd5b50610227610297366004612180565b610679565b3480156102a857600080fd5b506004546102bc906001600160a01b031681565b6040516001600160a01b039091168152602001610209565b3480156102e057600080fd5b506102f46102ef3660046121a8565b6106ca565b604051908152602001610209565b34801561030e57600080fd5b506102f461031d366004612180565b60009081526020819052604090206001015490565b34801561033e57600080fd5b5061022761034d3660046121e9565b610aab565b34801561035e57600080fd5b506102f46103e881565b34801561037457600080fd5b506102276103833660046121e9565b610ad5565b34801561039457600080fd5b506102276103a3366004612180565b610b4f565b3480156103b457600080fd5b506102276103c3366004612219565b611066565b3480156103d457600080fd5b506102276103e3366004612219565b6110d4565b3480156103f457600080fd5b506102f4610403366004612180565b611142565b34801561041457600080fd5b506019546102f49081565b34801561042b57600080fd5b5060025460ff166101fd565b34801561044357600080fd5b506102f460085481565b34801561045957600080fd5b50610227610468366004612219565b611159565b34801561047957600080fd5b50610227610488366004612263565b6111c7565b34801561049957600080fd5b506003546102bc906001600160a01b031681565b3480156104b957600080fd5b506016546102f49081565b6102276104d2366004612180565b611262565b3480156104e357600080fd5b506102f4611899565b3480156104f857600080fd5b506101fd6105073660046121e9565b61192d565b34801561051857600080fd5b506102f4600081565b34801561052d57600080fd5b5061022761053c366004612219565b611956565b34801561054d57600080fd5b5061022761055c3660046121e9565b6119c4565b34801561056d57600080fd5b506007546101fd90600160a01b900460ff1681565b34801561058e57600080fd5b506005546102bc906001600160a01b031681565b3480156105ae57600080fd5b506102276105bd366004612219565b6119e9565b60006001600160e01b03198216637965db0b60e01b14806105f357506301ffc9a760e01b6001600160e01b03198316145b92915050565b600061060481611a57565b506007805460ff60a01b198116600160a01b9182900460ff1615909102179055565b600061063181611a57565b81156106435761063f611a64565b5050565b61063f611abe565b6013816005811061065b57600080fd5b60109182820401919006600202915054906101000a900461ffff1681565b600061068481611a57565b6040805180820190915260018152603160f81b6020820152826106c35760405162461bcd60e51b81526004016106ba9190612317565b60405180910390fd5b5050600855565b60035460405163f692c82960e01b81526004810183905260009182918291829182916001600160a01b03169063f692c8299060240160a06040518083038186803b15801561071757600080fd5b505afa15801561072b573d6000803e3d6000fd5b505050506040513d601f19601f8201168201806040525081019061074f919061234a565b600354604051634378a6e360e01b8152600481018d90529499509297509095509350600092506001600160a01b031690634378a6e39060240160c06040518083038186803b1580156107a057600080fd5b505afa1580156107b4573d6000803e3d6000fd5b505050506040513d601f19601f820116820180604052508101906107d891906123bf565b505050505090508760ff16600014156109575760006008548660ff1660138560ff166005811061080a5761080a612409565b601091828204019190066002029054906101000a900461ffff1661ffff1660146002015460018661083b9190612435565b610845919061244c565b61085290620186a061246b565b601560ff8a16600a811061086857610868612409565b602081049091015460ff601f9092166101000a90048116906014908a16600a811061089557610895612409565b601091828204019190066002029054906101000a900461ffff166108b99190612483565b61ffff166108c7919061244c565b6108d1919061244c565b6108e0906402540be40061244c565b6108ea919061244c565b6108f491906124a9565b600754909150600160a01b900460ff161561094a576000610913611899565b905060008113610923578161093c565b6305f5e100610932828461244c565b61093c91906124a9565b9750505050505050506105f3565b95506105f3945050505050565b8760ff1660011415610a9d576008548560ff1660646103e88060138760ff166005811061098657610986612409565b601091828204019190066002029054906101000a900461ffff1661ffff166017600201546001886109b79190612435565b6109c1919061244c565b6109ce90620186a061246b565b601860ff8c16600a81106109e4576109e4612409565b602081049091015460ff601f9092166101000a90048116906017908c16600a8110610a1157610a11612409565b601091828204019190066002029054906101000a900461ffff16610a359190612483565b61ffff16610a43919061244c565b610a4d919061244c565b610a5791906124a9565b610a6191906124a9565b610a6b91906124a9565b610a7d90670de0b6b3a764000061244c565b610a87919061244c565b610a9191906124a9565b955050505050506105f3565b506000979650505050505050565b600082815260208190526040902060010154610ac681611a57565b610ad08383611af7565b505050565b6001600160a01b0381163314610b455760405162461bcd60e51b815260206004820152602f60248201527f416363657373436f6e74726f6c3a2063616e206f6e6c792072656e6f756e636560448201526e103937b632b9903337b91039b2b63360891b60648201526084016106ba565b61063f8282611b7b565b60026001541415610ba25760405162461bcd60e51b815260206004820152601f60248201527f5265656e7472616e637947756172643a207265656e7472616e742063616c6c0060448201526064016106ba565b6002600155610baf611be0565b6007546040805180820190915260018152603960f81b602082015290600160a01b900460ff1615610bf35760405162461bcd60e51b81526004016106ba9190612317565b506003546040516331a9108f60e11b8152600481018390526001600160a01b0390911690636352211e9060240160206040518083038186803b158015610c3857600080fd5b505afa158015610c4c573d6000803e3d6000fd5b505050506040513d601f19601f82011682018060405250810190610c7091906124cb565b6001600160a01b0316336001600160a01b031614604051806040016040528060018152602001603360f81b81525090610cbc5760405162461bcd60e51b81526004016106ba9190612317565b506000610cca6000836106ca565b90506000610cd96001846106ca565b60035460405163f692c82960e01b8152600481018690529192506000916001600160a01b039091169063f692c8299060240160a06040518083038186803b158015610d2357600080fd5b505afa158015610d37573d6000803e3d6000fd5b505050506040513d601f19601f82011682018060405250810190610d5b919061234a565b50600354604051634378a6e360e01b8152600481018a9052919550600094506001600160a01b03169250634378a6e3915060240160c06040518083038186803b158015610da757600080fd5b505afa158015610dbb573d6000803e3d6000fd5b505050506040513d601f19601f82011682018060405250810190610ddf91906123bf565b505050505090508060001415604051806040016040528060018152602001603560f81b81525090610e235760405162461bcd60e51b81526004016106ba9190612317565b5060098260ff16600a8110610e3a57610e3a612409565b015481141560405180604001604052806002815260200161189960f11b81525090610e785760405162461bcd60e51b81526004016106ba9190612317565b508315801590610e8757508215155b604051806040016040528060018152602001603560f81b81525090610ebf5760405162461bcd60e51b81526004016106ba9190612317565b506005546001600160a01b03166379cc6790336040516001600160e01b031960e084901b1681526001600160a01b03909116600482015260248101869052604401600060405180830381600087803b158015610f1a57600080fd5b505af1158015610f2e573d6000803e3d6000fd5b50505050610f67610f3c3390565b6006546001600160a01b0316610f536004886124a9565b6004546001600160a01b0316929190611c28565b610f8e336007546001600160a01b03166004610f8488600361244c565b610f5391906124a9565b6003546001600160a01b03166370a93b3686610fab84600161246b565b6040516001600160e01b031960e085901b16815260048101929092526024820152604401600060405180830381600087803b158015610fe957600080fd5b505af1158015610ffd573d6000803e3d6000fd5b505050507f38567192e7192f44727cb01ef1cce779467d435edc1f3f105c452844508782358561102a3390565b61103584600161246b565b604080519384526001600160a01b0390921660208401529082015260600160405180910390a1505060018055505050565b600061107181611a57565b6040805180820190915260018152603160f81b60208201526001600160a01b0383166110b05760405162461bcd60e51b81526004016106ba9190612317565b5050600480546001600160a01b0319166001600160a01b0392909216919091179055565b60006110df81611a57565b6040805180820190915260018152603160f81b60208201526001600160a01b03831661111e5760405162461bcd60e51b81526004016106ba9190612317565b5050600780546001600160a01b0319166001600160a01b0392909216919091179055565b600981600a811061115257600080fd5b0154905081565b600061116481611a57565b6040805180820190915260018152603160f81b60208201526001600160a01b0383166111a35760405162461bcd60e51b81526004016106ba9190612317565b5050600680546001600160a01b0319166001600160a01b0392909216919091179055565b60006111d281611a57565b6040805180820190915260018152603160f81b60208201525060005b60058160ff161015610ad057828160ff166005811061120f5761120f612409565b602002015160138260ff166005811061122a5761122a612409565b601091828204019190066002026101000a81548161ffff021916908361ffff160217905550808061125a906124e8565b9150506111ee565b600260015414156112b55760405162461bcd60e51b815260206004820152601f60248201527f5265656e7472616e637947756172643a207265656e7472616e742063616c6c0060448201526064016106ba565b60026001556112c2611be0565b600754604080518082019091526002815261031360f41b602082015290600160a01b900460ff166113065760405162461bcd60e51b81526004016106ba9190612317565b506003546040516331a9108f60e11b8152600481018390526001600160a01b0390911690636352211e9060240160206040518083038186803b15801561134b57600080fd5b505afa15801561135f573d6000803e3d6000fd5b505050506040513d601f19601f8201168201806040525081019061138391906124cb565b6001600160a01b0316336001600160a01b031614604051806040016040528060018152602001603360f81b815250906113cf5760405162461bcd60e51b81526004016106ba9190612317565b5060006113dd6000836106ca565b905060006113ec6001846106ca565b60035460405163f692c82960e01b8152600481018690529192506000916001600160a01b039091169063f692c8299060240160a06040518083038186803b15801561143657600080fd5b505afa15801561144a573d6000803e3d6000fd5b505050506040513d601f19601f8201168201806040525081019061146e919061234a565b50600354604051634378a6e360e01b8152600481018a9052919550600094506001600160a01b03169250634378a6e3915060240160c06040518083038186803b1580156114ba57600080fd5b505afa1580156114ce573d6000803e3d6000fd5b505050506040513d601f19601f820116820180604052508101906114f291906123bf565b505050505090508060001415604051806040016040528060018152602001603560f81b815250906115365760405162461bcd60e51b81526004016106ba9190612317565b5060098260ff16600a811061154d5761154d612409565b015481141560405180604001604052806002815260200161189960f11b8152509061158b5760405162461bcd60e51b81526004016106ba9190612317565b50831580159061159a57508215155b604051806040016040528060018152602001603560f81b815250906115d25760405162461bcd60e51b81526004016106ba9190612317565b506005546001600160a01b03166379cc6790336040516001600160e01b031960e084901b1681526001600160a01b03909116600482015260248101869052604401600060405180830381600087803b15801561162d57600080fd5b505af1158015611641573d6000803e3d6000fd5b50505050833414604051806040016040528060018152602001601b60f91b815250906116805760405162461bcd60e51b81526004016106ba9190612317565b506006546000906001600160a01b031661169b6004876124a9565b604051600081818185875af1925050503d80600081146116d7576040519150601f19603f3d011682016040523d82523d6000602084013e6116dc565b606091505b5050905080604051806040016040528060018152602001603760f81b815250906117195760405162461bcd60e51b81526004016106ba9190612317565b506007546000906001600160a01b0316600461173688600361244c565b61174091906124a9565b604051600081818185875af1925050503d806000811461177c576040519150601f19603f3d011682016040523d82523d6000602084013e611781565b606091505b5050905080604051806040016040528060018152602001600760fb1b815250906117be5760405162461bcd60e51b81526004016106ba9190612317565b506003546001600160a01b03166370a93b36886117dc86600161246b565b6040516001600160e01b031960e085901b16815260048101929092526024820152604401600060405180830381600087803b15801561181a57600080fd5b505af115801561182e573d6000803e3d6000fd5b505050507f38567192e7192f44727cb01ef1cce779467d435edc1f3f105c452844508782358761185b3390565b61186686600161246b565b604080519384526001600160a01b0390921660208401529082015260600160405180910390a15050600180555050505050565b600080600260019054906101000a90046001600160a01b03166001600160a01b031663feaf968c6040518163ffffffff1660e01b815260040160a06040518083038186803b1580156118ea57600080fd5b505afa1580156118fe573d6000803e3d6000fd5b505050506040513d601f19601f820116820180604052508101906119229190612522565b509195945050505050565b6000918252602082815260408084206001600160a01b0393909316845291905290205460ff1690565b600061196181611a57565b6040805180820190915260018152603160f81b60208201526001600160a01b0383166119a05760405162461bcd60e51b81526004016106ba9190612317565b5050600580546001600160a01b0319166001600160a01b0392909216919091179055565b6000828152602081905260409020600101546119df81611a57565b610ad08383611b7b565b60006119f481611a57565b6040805180820190915260018152603160f81b60208201526001600160a01b038316611a335760405162461bcd60e51b81526004016106ba9190612317565b5050600380546001600160a01b0319166001600160a01b0392909216919091179055565b611a618133611c88565b50565b611a6c611be0565b6002805460ff191660011790557f62e78cea01bee320cd4e420270b5ea74000d11b0c9f74754ebdbfc544b05a258611aa13390565b6040516001600160a01b03909116815260200160405180910390a1565b611ac6611cec565b6002805460ff191690557f5db9ee0a495bf2e6ff9c91a7834c1ba4fdd244a5e8aa4e537bd38aeae4b073aa33611aa1565b611b01828261192d565b61063f576000828152602081815260408083206001600160a01b03851684529091529020805460ff19166001179055611b373390565b6001600160a01b0316816001600160a01b0316837f2f8788117e7eff1d82e926ec794901d17c78024a50270940304540a733656f0d60405160405180910390a45050565b611b85828261192d565b1561063f576000828152602081815260408083206001600160a01b0385168085529252808320805460ff1916905551339285917ff6391f5c32d9c69d2a47ea670b442974b53935d1edc7fd64eb21e047a839171b9190a45050565b60025460ff1615611c265760405162461bcd60e51b815260206004820152601060248201526f14185d5cd8589b194e881c185d5cd95960821b60448201526064016106ba565b565b604080516001600160a01b0385811660248301528416604482015260648082018490528251808303909101815260849091019091526020810180516001600160e01b03166323b872dd60e01b179052611c82908590611d35565b50505050565b611c92828261192d565b61063f57611caa816001600160a01b03166014611e07565b611cb5836020611e07565b604051602001611cc6929190612572565b60408051601f198184030181529082905262461bcd60e51b82526106ba91600401612317565b60025460ff16611c265760405162461bcd60e51b815260206004820152601460248201527314185d5cd8589b194e881b9bdd081c185d5cd95960621b60448201526064016106ba565b6000611d8a826040518060400160405280602081526020017f5361666545524332303a206c6f772d6c6576656c2063616c6c206661696c6564815250856001600160a01b0316611faa9092919063ffffffff16565b805190915015610ad05780806020019051810190611da891906125e7565b610ad05760405162461bcd60e51b815260206004820152602a60248201527f5361666545524332303a204552433230206f7065726174696f6e20646964206e6044820152691bdd081cdd58d8d9595960b21b60648201526084016106ba565b60606000611e1683600261244c565b611e2190600261246b565b67ffffffffffffffff811115611e3957611e39612236565b6040519080825280601f01601f191660200182016040528015611e63576020820181803683370190505b509050600360fc1b81600081518110611e7e57611e7e612409565b60200101906001600160f81b031916908160001a905350600f60fb1b81600181518110611ead57611ead612409565b60200101906001600160f81b031916908160001a9053506000611ed184600261244c565b611edc90600161246b565b90505b6001811115611f54576f181899199a1a9b1b9c1cb0b131b232b360811b85600f1660108110611f1057611f10612409565b1a60f81b828281518110611f2657611f26612409565b60200101906001600160f81b031916908160001a90535060049490941c93611f4d81612604565b9050611edf565b508315611fa35760405162461bcd60e51b815260206004820181905260248201527f537472696e67733a20686578206c656e67746820696e73756666696369656e7460448201526064016106ba565b9392505050565b6060611fb98484600085611fc1565b949350505050565b6060824710156120225760405162461bcd60e51b815260206004820152602660248201527f416464726573733a20696e73756666696369656e742062616c616e636520666f6044820152651c8818d85b1b60d21b60648201526084016106ba565b6001600160a01b0385163b6120795760405162461bcd60e51b815260206004820152601d60248201527f416464726573733a2063616c6c20746f206e6f6e2d636f6e747261637400000060448201526064016106ba565b600080866001600160a01b03168587604051612095919061261b565b60006040518083038185875af1925050503d80600081146120d2576040519150601f19603f3d011682016040523d82523d6000602084013e6120d7565b606091505b50915091506120e78282866120f2565b979650505050505050565b60608315612101575081611fa3565b8251156121115782518084602001fd5b8160405162461bcd60e51b81526004016106ba9190612317565b60006020828403121561213d57600080fd5b81356001600160e01b031981168114611fa357600080fd5b8015158114611a6157600080fd5b60006020828403121561217557600080fd5b8135611fa381612155565b60006020828403121561219257600080fd5b5035919050565b60ff81168114611a6157600080fd5b600080604083850312156121bb57600080fd5b82356121c681612199565b946020939093013593505050565b6001600160a01b0381168114611a6157600080fd5b600080604083850312156121fc57600080fd5b82359150602083013561220e816121d4565b809150509250929050565b60006020828403121561222b57600080fd5b8135611fa3816121d4565b634e487b7160e01b600052604160045260246000fd5b803561ffff8116811461225e57600080fd5b919050565b600060a0828403121561227557600080fd5b82601f83011261228457600080fd5b60405160a0810181811067ffffffffffffffff821117156122b557634e487b7160e01b600052604160045260246000fd5b6040528060a08401858111156122ca57600080fd5b845b81811015611922576122dd8161224c565b8352602092830192016122cc565b60005b838110156123065781810151838201526020016122ee565b83811115611c825750506000910152565b60208152600082518060208401526123368160408501602087016122eb565b601f01601f19169190910160400192915050565b600080600080600060a0868803121561236257600080fd5b855161236d81612199565b602087015190955061237e81612199565b604087015190945061238f81612199565b60608701519093506123a081612199565b60808701519092506123b181612199565b809150509295509295909350565b60008060008060008060c087890312156123d857600080fd5b865195506020870151945060408701519350606087015192506080870151915060a087015190509295509295509295565b634e487b7160e01b600052603260045260246000fd5b634e487b7160e01b600052601160045260246000fd5b6000828210156124475761244761241f565b500390565b60008160001904831182151516156124665761246661241f565b500290565b6000821982111561247e5761247e61241f565b500190565b600061ffff8083168185168083038211156124a0576124a061241f565b01949350505050565b6000826124c657634e487b7160e01b600052601260045260246000fd5b500490565b6000602082840312156124dd57600080fd5b8151611fa3816121d4565b600060ff821660ff8114156124ff576124ff61241f565b60010192915050565b805169ffffffffffffffffffff8116811461225e57600080fd5b600080600080600060a0868803121561253a57600080fd5b61254386612508565b945060208601519350604086015192506060860151915061256660808701612508565b90509295509295909350565b7f416363657373436f6e74726f6c3a206163636f756e74200000000000000000008152600083516125aa8160178501602088016122eb565b7001034b99036b4b9b9b4b733903937b6329607d1b60179184019182015283516125db8160288401602088016122eb565b01602801949350505050565b6000602082840312156125f957600080fd5b8151611fa381612155565b6000816126135761261361241f565b506000190190565b6000825161262d8184602087016122eb565b919091019291505056fea26469706673582212204b640231e21ac779fe323771c4eded49fa64dbf258c76e5fd5c9ba483577deb464736f6c63430008090033",
  "devdoc": {
    "kind": "dev",
    "methods": {
      "getRoleAdmin(bytes32)": {
        "details": "Returns the admin role that controls `role`. See {grantRole} and {revokeRole}. To change a role's admin, use {_setRoleAdmin}."
      },
      "grantRole(bytes32,address)": {
        "details": "Grants `role` to `account`. If `account` had not been already granted `role`, emits a {RoleGranted} event. Requirements: - the caller must have ``role``'s admin role. May emit a {RoleGranted} event."
      },
      "hasRole(bytes32,address)": {
        "details": "Returns `true` if `account` has been granted `role`."
      },
      "paused()": {
        "details": "Returns true if the contract is paused, and false otherwise."
      },
      "renounceRole(bytes32,address)": {
        "details": "Revokes `role` from the calling account. Roles are often managed via {grantRole} and {revokeRole}: this function's purpose is to provide a mechanism for accounts to lose their privileges if they are compromised (such as when a trusted device is misplaced). If the calling account had been revoked `role`, emits a {RoleRevoked} event. Requirements: - the caller must be `account`. May emit a {RoleRevoked} event."
      },
      "revokeRole(bytes32,address)": {
        "details": "Revokes `role` from `account`. If `account` had been granted `role`, emits a {RoleRevoked} event. Requirements: - the caller must have ``role``'s admin role. May emit a {RoleRevoked} event."
      },
      "supportsInterface(bytes4)": {
        "details": "See {IERC165-supportsInterface}."
      }
    },
    "version": 1
  },
  "userdoc": {
    "kind": "user",
    "methods": {
      "getLatestPrice()": {
        "notice": "Returns the latest price"
      }
    },
    "version": 1
  },
  "storageLayout": {
    "storage": [
      {
        "astId": 70,
        "contract": "contracts/Utilities/Upgrader.sol:Upgrader",
        "label": "_roles",
        "offset": 0,
        "slot": "0",
        "type": "t_mapping(t_bytes32,t_struct(RoleData)65_storage)"
      },
      {
        "astId": 557,
        "contract": "contracts/Utilities/Upgrader.sol:Upgrader",
        "label": "_status",
        "offset": 0,
        "slot": "1",
        "type": "t_uint256"
      },
      {
        "astId": 456,
        "contract": "contracts/Utilities/Upgrader.sol:Upgrader",
        "label": "_paused",
        "offset": 0,
        "slot": "2",
        "type": "t_bool"
      },
      {
        "astId": 7294,
        "contract": "contracts/Utilities/Upgrader.sol:Upgrader",
        "label": "priceFeed",
        "offset": 1,
        "slot": "2",
        "type": "t_contract(AggregatorV3Interface)45"
      },
      {
        "astId": 7300,
        "contract": "contracts/Utilities/Upgrader.sol:Upgrader",
        "label": "blastEquipmentNFT",
        "offset": 0,
        "slot": "3",
        "type": "t_contract(IBlastEquipmentNFT)7716"
      },
      {
        "astId": 7303,
        "contract": "contracts/Utilities/Upgrader.sol:Upgrader",
        "label": "blastToken",
        "offset": 0,
        "slot": "4",
        "type": "t_contract(IERC20)1250"
      },
      {
        "astId": 7306,
        "contract": "contracts/Utilities/Upgrader.sol:Upgrader",
        "label": "csToken",
        "offset": 0,
        "slot": "5",
        "type": "t_contract(ERC20Burnable)1294"
      },
      {
        "astId": 7308,
        "contract": "contracts/Utilities/Upgrader.sol:Upgrader",
        "label": "treasuryAddress",
        "offset": 0,
        "slot": "6",
        "type": "t_address"
      },
      {
        "astId": 7310,
        "contract": "contracts/Utilities/Upgrader.sol:Upgrader",
        "label": "companyAddress",
        "offset": 0,
        "slot": "7",
        "type": "t_address"
      },
      {
        "astId": 7312,
        "contract": "contracts/Utilities/Upgrader.sol:Upgrader",
        "label": "isUsingMatic",
        "offset": 20,
        "slot": "7",
        "type": "t_bool"
      },
      {
        "astId": 6614,
        "contract": "contracts/Utilities/Upgrader.sol:Upgrader",
        "label": "durabilityEffectDivider",
        "offset": 0,
        "slot": "8",
        "type": "t_uint256"
      },
      {
        "astId": 6629,
        "contract": "contracts/Utilities/Upgrader.sol:Upgrader",
        "label": "maxLevelPerRarity",
        "offset": 0,
        "slot": "9",
        "type": "t_array(t_uint256)10_storage"
      },
      {
        "astId": 6639,
        "contract": "contracts/Utilities/Upgrader.sol:Upgrader",
        "label": "multiplierPerGrade",
        "offset": 0,
        "slot": "19",
        "type": "t_array(t_uint16)5_storage"
      },
      {
        "astId": 6642,
        "contract": "contracts/Utilities/Upgrader.sol:Upgrader",
        "label": "bltAttribute",
        "offset": 0,
        "slot": "20",
        "type": "t_struct(Attributes)6611_storage"
      },
      {
        "astId": 6645,
        "contract": "contracts/Utilities/Upgrader.sol:Upgrader",
        "label": "csAttribute",
        "offset": 0,
        "slot": "23",
        "type": "t_struct(Attributes)6611_storage"
      }
    ],
    "types": {
      "t_address": {
        "encoding": "inplace",
        "label": "address",
        "numberOfBytes": "20"
      },
      "t_array(t_uint16)10_storage": {
        "base": "t_uint16",
        "encoding": "inplace",
        "label": "uint16[10]",
        "numberOfBytes": "32"
      },
      "t_array(t_uint16)5_storage": {
        "base": "t_uint16",
        "encoding": "inplace",
        "label": "uint16[5]",
        "numberOfBytes": "32"
      },
      "t_array(t_uint256)10_storage": {
        "base": "t_uint256",
        "encoding": "inplace",
        "label": "uint256[10]",
        "numberOfBytes": "320"
      },
      "t_array(t_uint8)10_storage": {
        "base": "t_uint8",
        "encoding": "inplace",
        "label": "uint8[10]",
        "numberOfBytes": "32"
      },
      "t_bool": {
        "encoding": "inplace",
        "label": "bool",
        "numberOfBytes": "1"
      },
      "t_bytes32": {
        "encoding": "inplace",
        "label": "bytes32",
        "numberOfBytes": "32"
      },
      "t_contract(AggregatorV3Interface)45": {
        "encoding": "inplace",
        "label": "contract AggregatorV3Interface",
        "numberOfBytes": "20"
      },
      "t_contract(ERC20Burnable)1294": {
        "encoding": "inplace",
        "label": "contract ERC20Burnable",
        "numberOfBytes": "20"
      },
      "t_contract(IBlastEquipmentNFT)7716": {
        "encoding": "inplace",
        "label": "contract IBlastEquipmentNFT",
        "numberOfBytes": "20"
      },
      "t_contract(IERC20)1250": {
        "encoding": "inplace",
        "label": "contract IERC20",
        "numberOfBytes": "20"
      },
      "t_mapping(t_address,t_bool)": {
        "encoding": "mapping",
        "key": "t_address",
        "label": "mapping(address => bool)",
        "numberOfBytes": "32",
        "value": "t_bool"
      },
      "t_mapping(t_bytes32,t_struct(RoleData)65_storage)": {
        "encoding": "mapping",
        "key": "t_bytes32",
        "label": "mapping(bytes32 => struct AccessControl.RoleData)",
        "numberOfBytes": "32",
        "value": "t_struct(RoleData)65_storage"
      },
      "t_struct(Attributes)6611_storage": {
        "encoding": "inplace",
        "label": "struct Upgrader.Attributes",
        "members": [
          {
            "astId": 6604,
            "contract": "contracts/Utilities/Upgrader.sol:Upgrader",
            "label": "pricePerRarity",
            "offset": 0,
            "slot": "0",
            "type": "t_array(t_uint16)10_storage"
          },
          {
            "astId": 6608,
            "contract": "contracts/Utilities/Upgrader.sol:Upgrader",
            "label": "pricePerAdjective",
            "offset": 0,
            "slot": "1",
            "type": "t_array(t_uint8)10_storage"
          },
          {
            "astId": 6610,
            "contract": "contracts/Utilities/Upgrader.sol:Upgrader",
            "label": "pricePerLevel",
            "offset": 0,
            "slot": "2",
            "type": "t_uint256"
          }
        ],
        "numberOfBytes": "96"
      },
      "t_struct(RoleData)65_storage": {
        "encoding": "inplace",
        "label": "struct AccessControl.RoleData",
        "members": [
          {
            "astId": 62,
            "contract": "contracts/Utilities/Upgrader.sol:Upgrader",
            "label": "members",
            "offset": 0,
            "slot": "0",
            "type": "t_mapping(t_address,t_bool)"
          },
          {
            "astId": 64,
            "contract": "contracts/Utilities/Upgrader.sol:Upgrader",
            "label": "adminRole",
            "offset": 0,
            "slot": "1",
            "type": "t_bytes32"
          }
        ],
        "numberOfBytes": "64"
      },
      "t_uint16": {
        "encoding": "inplace",
        "label": "uint16",
        "numberOfBytes": "2"
      },
      "t_uint256": {
        "encoding": "inplace",
        "label": "uint256",
        "numberOfBytes": "32"
      },
      "t_uint8": {
        "encoding": "inplace",
        "label": "uint8",
        "numberOfBytes": "1"
      }
    }
  }
}