{
  "address": "0x27d41b79176ABF7B17A96b523a841ED2288Be01F",
  "abi": [
    {
      "inputs": [
        {
          "internalType": "contract IBlastEquipmentNFT",
          "name": "_blastEquipmentNFT",
          "type": "address"
        },
        {
          "internalType": "contract IERC20",
          "name": "_blastToken",
          "type": "address"
        },
        {
          "internalType": "contract ERC20Burnable",
          "name": "_csToken",
          "type": "address"
        },
        {
          "internalType": "address",
          "name": "_treasuryAddress",
          "type": "address"
        },
        {
          "internalType": "address",
          "name": "_companyAddress",
          "type": "address"
        }
      ],
      "stateMutability": "nonpayable",
      "type": "constructor"
    },
    {
      "anonymous": false,
      "inputs": [
        {
          "indexed": false,
          "internalType": "uint256",
          "name": "tokenId",
          "type": "uint256"
        },
        {
          "indexed": false,
          "internalType": "address",
          "name": "owner",
          "type": "address"
        },
        {
          "indexed": false,
          "internalType": "uint256",
          "name": "newLevel",
          "type": "uint256"
        }
      ],
      "name": "LevelUpgraded",
      "type": "event"
    },
    {
      "anonymous": false,
      "inputs": [
        {
          "indexed": false,
          "internalType": "address",
          "name": "account",
          "type": "address"
        }
      ],
      "name": "Paused",
      "type": "event"
    },
    {
      "anonymous": false,
      "inputs": [
        {
          "indexed": true,
          "internalType": "bytes32",
          "name": "role",
          "type": "bytes32"
        },
        {
          "indexed": true,
          "internalType": "bytes32",
          "name": "previousAdminRole",
          "type": "bytes32"
        },
        {
          "indexed": true,
          "internalType": "bytes32",
          "name": "newAdminRole",
          "type": "bytes32"
        }
      ],
      "name": "RoleAdminChanged",
      "type": "event"
    },
    {
      "anonymous": false,
      "inputs": [
        {
          "indexed": true,
          "internalType": "bytes32",
          "name": "role",
          "type": "bytes32"
        },
        {
          "indexed": true,
          "internalType": "address",
          "name": "account",
          "type": "address"
        },
        {
          "indexed": true,
          "internalType": "address",
          "name": "sender",
          "type": "address"
        }
      ],
      "name": "RoleGranted",
      "type": "event"
    },
    {
      "anonymous": false,
      "inputs": [
        {
          "indexed": true,
          "internalType": "bytes32",
          "name": "role",
          "type": "bytes32"
        },
        {
          "indexed": true,
          "internalType": "address",
          "name": "account",
          "type": "address"
        },
        {
          "indexed": true,
          "internalType": "address",
          "name": "sender",
          "type": "address"
        }
      ],
      "name": "RoleRevoked",
      "type": "event"
    },
    {
      "anonymous": false,
      "inputs": [
        {
          "indexed": false,
          "internalType": "address",
          "name": "account",
          "type": "address"
        }
      ],
      "name": "Unpaused",
      "type": "event"
    },
    {
      "inputs": [],
      "name": "DECIMAL_FACTOR",
      "outputs": [
        {
          "internalType": "uint256",
          "name": "",
          "type": "uint256"
        }
      ],
      "stateMutability": "view",
      "type": "function"
    },
    {
      "inputs": [],
      "name": "DEFAULT_ADMIN_ROLE",
      "outputs": [
        {
          "internalType": "bytes32",
          "name": "",
          "type": "bytes32"
        }
      ],
      "stateMutability": "view",
      "type": "function"
    },
    {
      "inputs": [],
      "name": "blastEquipmentNFT",
      "outputs": [
        {
          "internalType": "contract IBlastEquipmentNFT",
          "name": "",
          "type": "address"
        }
      ],
      "stateMutability": "view",
      "type": "function"
    },
    {
      "inputs": [],
      "name": "blastToken",
      "outputs": [
        {
          "internalType": "contract IERC20",
          "name": "",
          "type": "address"
        }
      ],
      "stateMutability": "view",
      "type": "function"
    },
    {
      "inputs": [],
      "name": "bltAttribute",
      "outputs": [
        {
          "internalType": "uint256",
          "name": "pricePerLevel",
          "type": "uint256"
        }
      ],
      "stateMutability": "view",
      "type": "function"
    },
    {
      "inputs": [],
      "name": "csAttribute",
      "outputs": [
        {
          "internalType": "uint256",
          "name": "pricePerLevel",
          "type": "uint256"
        }
      ],
      "stateMutability": "view",
      "type": "function"
    },
    {
      "inputs": [],
      "name": "csToken",
      "outputs": [
        {
          "internalType": "contract ERC20Burnable",
          "name": "",
          "type": "address"
        }
      ],
      "stateMutability": "view",
      "type": "function"
    },
    {
      "inputs": [],
      "name": "durabilityEffectDivider",
      "outputs": [
        {
          "internalType": "uint256",
          "name": "",
          "type": "uint256"
        }
      ],
      "stateMutability": "view",
      "type": "function"
    },
    {
      "inputs": [],
      "name": "flipIsUsingMatic",
      "outputs": [],
      "stateMutability": "nonpayable",
      "type": "function"
    },
    {
      "inputs": [],
      "name": "getLatestPrice",
      "outputs": [
        {
          "internalType": "int256",
          "name": "",
          "type": "int256"
        }
      ],
      "stateMutability": "view",
      "type": "function"
    },
    {
      "inputs": [
        {
          "internalType": "uint8",
          "name": "_tokenType",
          "type": "uint8"
        },
        {
          "internalType": "uint256",
          "name": "_tokenId",
          "type": "uint256"
        }
      ],
      "name": "getRequiredPrice",
      "outputs": [
        {
          "internalType": "uint256",
          "name": "",
          "type": "uint256"
        }
      ],
      "stateMutability": "view",
      "type": "function"
    },
    {
      "inputs": [
        {
          "internalType": "bytes32",
          "name": "role",
          "type": "bytes32"
        }
      ],
      "name": "getRoleAdmin",
      "outputs": [
        {
          "internalType": "bytes32",
          "name": "",
          "type": "bytes32"
        }
      ],
      "stateMutability": "view",
      "type": "function"
    },
    {
      "inputs": [
        {
          "internalType": "bytes32",
          "name": "role",
          "type": "bytes32"
        },
        {
          "internalType": "address",
          "name": "account",
          "type": "address"
        }
      ],
      "name": "grantRole",
      "outputs": [],
      "stateMutability": "nonpayable",
      "type": "function"
    },
    {
      "inputs": [
        {
          "internalType": "bytes32",
          "name": "role",
          "type": "bytes32"
        },
        {
          "internalType": "address",
          "name": "account",
          "type": "address"
        }
      ],
      "name": "hasRole",
      "outputs": [
        {
          "internalType": "bool",
          "name": "",
          "type": "bool"
        }
      ],
      "stateMutability": "view",
      "type": "function"
    },
    {
      "inputs": [],
      "name": "isUsingMatic",
      "outputs": [
        {
          "internalType": "bool",
          "name": "",
          "type": "bool"
        }
      ],
      "stateMutability": "view",
      "type": "function"
    },
    {
      "inputs": [
        {
          "internalType": "uint256",
          "name": "",
          "type": "uint256"
        }
      ],
      "name": "maxLevelPerRarity",
      "outputs": [
        {
          "internalType": "uint256",
          "name": "",
          "type": "uint256"
        }
      ],
      "stateMutability": "view",
      "type": "function"
    },
    {
      "inputs": [
        {
          "internalType": "uint256",
          "name": "",
          "type": "uint256"
        }
      ],
      "name": "multiplierPerGrade",
      "outputs": [
        {
          "internalType": "uint16",
          "name": "",
          "type": "uint16"
        }
      ],
      "stateMutability": "view",
      "type": "function"
    },
    {
      "inputs": [
        {
          "internalType": "bool",
          "name": "stop",
          "type": "bool"
        }
      ],
      "name": "pause",
      "outputs": [],
      "stateMutability": "nonpayable",
      "type": "function"
    },
    {
      "inputs": [],
      "name": "paused",
      "outputs": [
        {
          "internalType": "bool",
          "name": "",
          "type": "bool"
        }
      ],
      "stateMutability": "view",
      "type": "function"
    },
    {
      "inputs": [
        {
          "internalType": "bytes32",
          "name": "role",
          "type": "bytes32"
        },
        {
          "internalType": "address",
          "name": "account",
          "type": "address"
        }
      ],
      "name": "renounceRole",
      "outputs": [],
      "stateMutability": "nonpayable",
      "type": "function"
    },
    {
      "inputs": [
        {
          "internalType": "bytes32",
          "name": "role",
          "type": "bytes32"
        },
        {
          "internalType": "address",
          "name": "account",
          "type": "address"
        }
      ],
      "name": "revokeRole",
      "outputs": [],
      "stateMutability": "nonpayable",
      "type": "function"
    },
    {
      "inputs": [
        {
          "internalType": "contract IBlastEquipmentNFT",
          "name": "_blastEquipmentNFT",
          "type": "address"
        }
      ],
      "name": "setBlastEquipmentAddress",
      "outputs": [],
      "stateMutability": "nonpayable",
      "type": "function"
    },
    {
      "inputs": [
        {
          "internalType": "contract IERC20",
          "name": "_blastToken",
          "type": "address"
        }
      ],
      "name": "setBlastTokenAddress",
      "outputs": [],
      "stateMutability": "nonpayable",
      "type": "function"
    },
    {
      "inputs": [
        {
          "internalType": "contract ERC20Burnable",
          "name": "_csToken",
          "type": "address"
        }
      ],
      "name": "setCSTokenAddress",
      "outputs": [],
      "stateMutability": "nonpayable",
      "type": "function"
    },
    {
      "inputs": [
        {
          "internalType": "address",
          "name": "_company",
          "type": "address"
        }
      ],
      "name": "setCompanyAddress",
      "outputs": [],
      "stateMutability": "nonpayable",
      "type": "function"
    },
    {
      "inputs": [
        {
          "internalType": "uint256",
          "name": "_newValue",
          "type": "uint256"
        }
      ],
      "name": "setDurabilityEffectDivider",
      "outputs": [],
      "stateMutability": "nonpayable",
      "type": "function"
    },
    {
      "inputs": [
        {
          "internalType": "address",
          "name": "_treasury",
          "type": "address"
        }
      ],
      "name": "setTreasuryAddress",
      "outputs": [],
      "stateMutability": "nonpayable",
      "type": "function"
    },
    {
      "inputs": [
        {
          "internalType": "bytes4",
          "name": "interfaceId",
          "type": "bytes4"
        }
      ],
      "name": "supportsInterface",
      "outputs": [
        {
          "internalType": "bool",
          "name": "",
          "type": "bool"
        }
      ],
      "stateMutability": "view",
      "type": "function"
    },
    {
      "inputs": [
        {
          "internalType": "uint256",
          "name": "_tokenId",
          "type": "uint256"
        }
      ],
      "name": "upgrade",
      "outputs": [],
      "stateMutability": "nonpayable",
      "type": "function"
    },
    {
      "inputs": [
        {
          "internalType": "uint256",
          "name": "_tokenId",
          "type": "uint256"
        }
      ],
      "name": "upgradeUsingMatic",
      "outputs": [],
      "stateMutability": "payable",
      "type": "function"
    }
  ],
  "transactionHash": "0x7eeceace6fb15741d3fa7b8186d492ddf96855e8f3f3a50001f399664542be42",
  "args": [
    "0x03eA885Ec4cb6100707EB4bE74DD83a7DDf856B1",
    "0xdF1b3D7F8DE55148c42dAb83f8f1b9E0510EfCb2",
    "0x3539f80890beD510F666Dd307A640220c113e599",
    "0x7Ac410F4E36873022b57821D7a8EB3D7513C045a",
    "0x7Ac410F4E36873022b57821D7a8EB3D7513C045a"
  ],
  "numDeployments": 2,
  "solcInputHash": "25c9aaeb9afca615ee593582833379a5",
  "bytecode": "0x60306008556101c0604052600a6080818152600c60a052600f60c052601160e052601461010052601661012052601961014052601b61016052601e6101805260236101a052620000539160099190620005e3565b506040805160a0810182526106cc81526105f060208201526105289181019190915261047e60608201526103e86080820152620000959060139060056200062b565b50348015620000a357600080fd5b5060405162002d4d38038062002d4d833981016040819052620000c69162000779565b600180556002805460ff1916905584848484846001600160a01b03851615801590620000fa57506001600160a01b03841615155b80156200010f57506001600160a01b03831615155b80156200012457506001600160a01b03821615155b80156200013957506001600160a01b03811615155b604051806040016040528060018152602001603160f81b815250906200017d5760405162461bcd60e51b8152600401620001749190620007f9565b60405180910390fd5b506200018b60003362000533565b84600360006101000a8154816001600160a01b0302191690836001600160a01b0316021790555083600460006101000a8154816001600160a01b0302191690836001600160a01b0316021790555082600560006101000a8154816001600160a01b0302191690836001600160a01b0316021790555081600660006101000a8154816001600160a01b0302191690836001600160a01b0316021790555080600760006101000a8154816001600160a01b0302191690836001600160a01b0316021790555073d0d5e3db44de05e9f294bb0a3beeaf030de24ada600260016101000a8154816001600160a01b0302191690836001600160a01b0316021790555050505050506000604051806101400160405280600361ffff1661ffff168152602001600461ffff168152602001600461ffff168152602001600561ffff168152602001600561ffff168152602001600661ffff168152602001600761ffff168152602001600761ffff168152602001600861ffff168152602001600961ffff1681525090506000604051806101400160405280600060ff168152602001600060ff168152602001600060ff168152602001600160ff168152602001600160ff168152602001600260ff168152602001600260ff168152602001600360ff168152602001600460ff168152602001600460ff1681525090506000604051806101400160405280606461ffff168152602001609061ffff16815260200160cf61ffff16815260200161012961ffff1681526020016101ab61ffff16815260200161026561ffff16815260200161037161ffff1681526020016104f261ffff16815260200161071b61ffff168152602001610a3561ffff1681525090506000604051806101400160405280600060ff168152602001600060ff168152602001600060ff168152602001600160ff168152602001600160ff168152602001600260ff168152602001600260ff168152602001600360ff168152602001600460ff168152602001600460ff16815250905060405180606001604052808581526020018481526020016101f4815250601460008201518160000190600a620004ad9291906200062b565b506020820151620004c5906001830190600a620006c3565b506040918201516002909101558051606081018252838152602081018390526109c4918101919091526017620004fe8185600a6200062b565b50602082015162000516906001830190600a620006c3565b506040820151816002015590505050505050505050505062000851565b6200053f828262000543565b5050565b6000828152602081815260408083206001600160a01b038516845290915290205460ff166200053f576000828152602081815260408083206001600160a01b03851684529091529020805460ff191660011790556200059f3390565b6001600160a01b0316816001600160a01b0316837f2f8788117e7eff1d82e926ec794901d17c78024a50270940304540a733656f0d60405160405180910390a45050565b82600a810192821562000619579160200282015b8281111562000619578251829060ff16905591602001919060010190620005f7565b506200062792915062000749565b5090565b600183019183908215620006195791602002820160005b838211156200068457835183826101000a81548161ffff021916908361ffff160217905550926020019260020160208160010104928301926001030262000642565b8015620006b45782816101000a81549061ffff021916905560020160208160010104928301926001030262000684565b50506200062792915062000749565b600183019183908215620006195791602002820160005b838211156200071a57835183826101000a81548160ff021916908360ff1602179055509260200192600101602081600001049283019260010302620006da565b8015620006b45782816101000a81549060ff02191690556001016020816000010492830192600103026200071a565b5b808211156200062757600081556001016200074a565b6001600160a01b03811681146200077657600080fd5b50565b600080600080600060a086880312156200079257600080fd5b85516200079f8162000760565b6020870151909550620007b28162000760565b6040870151909450620007c58162000760565b6060870151909350620007d88162000760565b6080870151909250620007eb8162000760565b809150509295509295909350565b600060208083528351808285015260005b8181101562000828578581018301518582016040015282016200080a565b818111156200083b576000604083870101525b50601f01601f1916929092016040019392505050565b6124ec80620008616000396000f3fe6080604052600436106101cd5760003560e01c80635ad6af93116100f75780638e15f47311610095578063d547741f11610064578063d547741f14610516578063df8de16314610536578063e04605fd14610557578063eccb44481461057757600080fd5b80638e15f473146104ac57806391d14854146104c1578063a217fddf146104e1578063c1763ee5146104f657600080fd5b80636605bfda116100d15780636605bfda1461044257806372c6239a146104625780637557a7d21461048257806384b8bce41461049957600080fd5b80635ad6af93146103fd5780635c975abb146104145780635e00e5921461042c57600080fd5b8063248a9ca31161016f57806345977d031161013e57806345977d031461037d5780634c0f52761461039d5780634f63a772146103bd578063522ffe96146103dd57600080fd5b8063248a9ca3146102f75780632f2ff15d1461032757806333fdbbe51461034757806336568abe1461035d57600080fd5b8063062f8344116101ab578063062f83441461023e57806309aca32e146102715780631b078ab3146102915780632116dcc0146102c957600080fd5b806301ffc9a7146101d2578063021946fd1461020757806302329a291461021e575b600080fd5b3480156101de57600080fd5b506101f26101ed366004612064565b610597565b60405190151581526020015b60405180910390f35b34801561021357600080fd5b5061021c6105ce565b005b34801561022a57600080fd5b5061021c61023936600461209c565b6105fb565b34801561024a57600080fd5b5061025e6102593660046120b9565b610620565b60405161ffff90911681526020016101fe565b34801561027d57600080fd5b5061021c61028c3660046120b9565b61064e565b34801561029d57600080fd5b506004546102b1906001600160a01b031681565b6040516001600160a01b0390911681526020016101fe565b3480156102d557600080fd5b506102e96102e43660046120e1565b61069f565b6040519081526020016101fe565b34801561030357600080fd5b506102e96103123660046120b9565b60009081526020819052604090206001015490565b34801561033357600080fd5b5061021c610342366004612122565b610a7f565b34801561035357600080fd5b506102e96103e881565b34801561036957600080fd5b5061021c610378366004612122565b610aa9565b34801561038957600080fd5b5061021c6103983660046120b9565b610b23565b3480156103a957600080fd5b5061021c6103b8366004612152565b61103a565b3480156103c957600080fd5b5061021c6103d8366004612152565b6110a8565b3480156103e957600080fd5b506102e96103f83660046120b9565b611116565b34801561040957600080fd5b506019546102e99081565b34801561042057600080fd5b5060025460ff166101f2565b34801561043857600080fd5b506102e960085481565b34801561044e57600080fd5b5061021c61045d366004612152565b61112d565b34801561046e57600080fd5b506003546102b1906001600160a01b031681565b34801561048e57600080fd5b506016546102e99081565b61021c6104a73660046120b9565b61119b565b3480156104b857600080fd5b506102e96117d2565b3480156104cd57600080fd5b506101f26104dc366004612122565b611866565b3480156104ed57600080fd5b506102e9600081565b34801561050257600080fd5b5061021c610511366004612152565b61188f565b34801561052257600080fd5b5061021c610531366004612122565b6118fd565b34801561054257600080fd5b506007546101f290600160a01b900460ff1681565b34801561056357600080fd5b506005546102b1906001600160a01b031681565b34801561058357600080fd5b5061021c610592366004612152565b611922565b60006001600160e01b03198216637965db0b60e01b14806105c857506301ffc9a760e01b6001600160e01b03198316145b92915050565b60006105d981611990565b506007805460ff60a01b198116600160a01b9182900460ff1615909102179055565b600061060681611990565b81156106185761061461199d565b5050565b6106146119f7565b6013816005811061063057600080fd5b60109182820401919006600202915054906101000a900461ffff1681565b600061065981611990565b6040805180820190915260018152603160f81b6020820152826106985760405162461bcd60e51b815260040161068f919061219b565b60405180910390fd5b5050600855565b60035460405163f692c82960e01b81526004810183905260009182918291829182916001600160a01b03169063f692c8299060240160a06040518083038186803b1580156106ec57600080fd5b505afa158015610700573d6000803e3d6000fd5b505050506040513d601f19601f8201168201806040525081019061072491906121ce565b600354604051634378a6e360e01b8152600481018d90529499509297509095509350600092506001600160a01b031690634378a6e39060240160c06040518083038186803b15801561077557600080fd5b505afa158015610789573d6000803e3d6000fd5b505050506040513d601f19601f820116820180604052508101906107ad9190612243565b505050505090508760ff166000141561092b5760006008548660ff1660138560ff16600581106107df576107df61228d565b601091828204019190066002029054906101000a900461ffff1661ffff1660146002015460018661081091906122b9565b61081a91906122d0565b61082790620186a06122ef565b601560ff8a16600a811061083d5761083d61228d565b602081049091015460ff601f9092166101000a90048116906014908a16600a811061086a5761086a61228d565b601091828204019190066002029054906101000a900461ffff1661088e9190612307565b61ffff1661089c91906122d0565b6108a691906122d0565b6108b5906402540be4006122d0565b6108bf91906122d0565b6108c9919061232d565b905060006108d56117d2565b600754909150600160a01b900460ff1680156108f15750600081135b1561091d576305f5e10061090582846122d0565b61090f919061232d565b9750505050505050506105c8565b5095506105c8945050505050565b8760ff1660011415610a71576008548560ff1660646103e88060138760ff166005811061095a5761095a61228d565b601091828204019190066002029054906101000a900461ffff1661ffff1660176002015460018861098b91906122b9565b61099591906122d0565b6109a290620186a06122ef565b601860ff8c16600a81106109b8576109b861228d565b602081049091015460ff601f9092166101000a90048116906017908c16600a81106109e5576109e561228d565b601091828204019190066002029054906101000a900461ffff16610a099190612307565b61ffff16610a1791906122d0565b610a2191906122d0565b610a2b919061232d565b610a35919061232d565b610a3f919061232d565b610a5190670de0b6b3a76400006122d0565b610a5b91906122d0565b610a65919061232d565b955050505050506105c8565b506000979650505050505050565b600082815260208190526040902060010154610a9a81611990565b610aa48383611a30565b505050565b6001600160a01b0381163314610b195760405162461bcd60e51b815260206004820152602f60248201527f416363657373436f6e74726f6c3a2063616e206f6e6c792072656e6f756e636560448201526e103937b632b9903337b91039b2b63360891b606482015260840161068f565b6106148282611ab4565b60026001541415610b765760405162461bcd60e51b815260206004820152601f60248201527f5265656e7472616e637947756172643a207265656e7472616e742063616c6c00604482015260640161068f565b6002600155610b83611b19565b6007546040805180820190915260018152603960f81b602082015290600160a01b900460ff1615610bc75760405162461bcd60e51b815260040161068f919061219b565b506003546040516331a9108f60e11b8152600481018390526001600160a01b0390911690636352211e9060240160206040518083038186803b158015610c0c57600080fd5b505afa158015610c20573d6000803e3d6000fd5b505050506040513d601f19601f82011682018060405250810190610c44919061234f565b6001600160a01b0316336001600160a01b031614604051806040016040528060018152602001603360f81b81525090610c905760405162461bcd60e51b815260040161068f919061219b565b506000610c9e60008361069f565b90506000610cad60018461069f565b60035460405163f692c82960e01b8152600481018690529192506000916001600160a01b039091169063f692c8299060240160a06040518083038186803b158015610cf757600080fd5b505afa158015610d0b573d6000803e3d6000fd5b505050506040513d601f19601f82011682018060405250810190610d2f91906121ce565b50600354604051634378a6e360e01b8152600481018a9052919550600094506001600160a01b03169250634378a6e3915060240160c06040518083038186803b158015610d7b57600080fd5b505afa158015610d8f573d6000803e3d6000fd5b505050506040513d601f19601f82011682018060405250810190610db39190612243565b505050505090508060001415604051806040016040528060018152602001603560f81b81525090610df75760405162461bcd60e51b815260040161068f919061219b565b5060098260ff16600a8110610e0e57610e0e61228d565b015481141560405180604001604052806002815260200161189960f11b81525090610e4c5760405162461bcd60e51b815260040161068f919061219b565b508315801590610e5b57508215155b604051806040016040528060018152602001603560f81b81525090610e935760405162461bcd60e51b815260040161068f919061219b565b506005546001600160a01b03166379cc6790336040516001600160e01b031960e084901b1681526001600160a01b03909116600482015260248101869052604401600060405180830381600087803b158015610eee57600080fd5b505af1158015610f02573d6000803e3d6000fd5b50505050610f3b610f103390565b6006546001600160a01b0316610f2760048861232d565b6004546001600160a01b0316929190611b61565b610f62336007546001600160a01b03166004610f588860036122d0565b610f27919061232d565b6003546001600160a01b03166370a93b3686610f7f8460016122ef565b6040516001600160e01b031960e085901b16815260048101929092526024820152604401600060405180830381600087803b158015610fbd57600080fd5b505af1158015610fd1573d6000803e3d6000fd5b505050507f38567192e7192f44727cb01ef1cce779467d435edc1f3f105c4528445087823585610ffe3390565b6110098460016122ef565b604080519384526001600160a01b0390921660208401529082015260600160405180910390a1505060018055505050565b600061104581611990565b6040805180820190915260018152603160f81b60208201526001600160a01b0383166110845760405162461bcd60e51b815260040161068f919061219b565b5050600480546001600160a01b0319166001600160a01b0392909216919091179055565b60006110b381611990565b6040805180820190915260018152603160f81b60208201526001600160a01b0383166110f25760405162461bcd60e51b815260040161068f919061219b565b5050600780546001600160a01b0319166001600160a01b0392909216919091179055565b600981600a811061112657600080fd5b0154905081565b600061113881611990565b6040805180820190915260018152603160f81b60208201526001600160a01b0383166111775760405162461bcd60e51b815260040161068f919061219b565b5050600680546001600160a01b0319166001600160a01b0392909216919091179055565b600260015414156111ee5760405162461bcd60e51b815260206004820152601f60248201527f5265656e7472616e637947756172643a207265656e7472616e742063616c6c00604482015260640161068f565b60026001556111fb611b19565b600754604080518082019091526002815261031360f41b602082015290600160a01b900460ff1661123f5760405162461bcd60e51b815260040161068f919061219b565b506003546040516331a9108f60e11b8152600481018390526001600160a01b0390911690636352211e9060240160206040518083038186803b15801561128457600080fd5b505afa158015611298573d6000803e3d6000fd5b505050506040513d601f19601f820116820180604052508101906112bc919061234f565b6001600160a01b0316336001600160a01b031614604051806040016040528060018152602001603360f81b815250906113085760405162461bcd60e51b815260040161068f919061219b565b50600061131660008361069f565b9050600061132560018461069f565b60035460405163f692c82960e01b8152600481018690529192506000916001600160a01b039091169063f692c8299060240160a06040518083038186803b15801561136f57600080fd5b505afa158015611383573d6000803e3d6000fd5b505050506040513d601f19601f820116820180604052508101906113a791906121ce565b50600354604051634378a6e360e01b8152600481018a9052919550600094506001600160a01b03169250634378a6e3915060240160c06040518083038186803b1580156113f357600080fd5b505afa158015611407573d6000803e3d6000fd5b505050506040513d601f19601f8201168201806040525081019061142b9190612243565b505050505090508060001415604051806040016040528060018152602001603560f81b8152509061146f5760405162461bcd60e51b815260040161068f919061219b565b5060098260ff16600a81106114865761148661228d565b015481141560405180604001604052806002815260200161189960f11b815250906114c45760405162461bcd60e51b815260040161068f919061219b565b5083158015906114d357508215155b604051806040016040528060018152602001603560f81b8152509061150b5760405162461bcd60e51b815260040161068f919061219b565b506005546001600160a01b03166379cc6790336040516001600160e01b031960e084901b1681526001600160a01b03909116600482015260248101869052604401600060405180830381600087803b15801561156657600080fd5b505af115801561157a573d6000803e3d6000fd5b50505050833414604051806040016040528060018152602001601b60f91b815250906115b95760405162461bcd60e51b815260040161068f919061219b565b506006546000906001600160a01b03166115d460048761232d565b604051600081818185875af1925050503d8060008114611610576040519150601f19603f3d011682016040523d82523d6000602084013e611615565b606091505b5050905080604051806040016040528060018152602001603760f81b815250906116525760405162461bcd60e51b815260040161068f919061219b565b506007546000906001600160a01b0316600461166f8860036122d0565b611679919061232d565b604051600081818185875af1925050503d80600081146116b5576040519150601f19603f3d011682016040523d82523d6000602084013e6116ba565b606091505b5050905080604051806040016040528060018152602001600760fb1b815250906116f75760405162461bcd60e51b815260040161068f919061219b565b506003546001600160a01b03166370a93b36886117158660016122ef565b6040516001600160e01b031960e085901b16815260048101929092526024820152604401600060405180830381600087803b15801561175357600080fd5b505af1158015611767573d6000803e3d6000fd5b505050507f38567192e7192f44727cb01ef1cce779467d435edc1f3f105c45284450878235876117943390565b61179f8660016122ef565b604080519384526001600160a01b0390921660208401529082015260600160405180910390a15050600180555050505050565b600080600260019054906101000a90046001600160a01b03166001600160a01b031663feaf968c6040518163ffffffff1660e01b815260040160a06040518083038186803b15801561182357600080fd5b505afa158015611837573d6000803e3d6000fd5b505050506040513d601f19601f8201168201806040525081019061185b919061238b565b509195945050505050565b6000918252602082815260408084206001600160a01b0393909316845291905290205460ff1690565b600061189a81611990565b6040805180820190915260018152603160f81b60208201526001600160a01b0383166118d95760405162461bcd60e51b815260040161068f919061219b565b5050600580546001600160a01b0319166001600160a01b0392909216919091179055565b60008281526020819052604090206001015461191881611990565b610aa48383611ab4565b600061192d81611990565b6040805180820190915260018152603160f81b60208201526001600160a01b03831661196c5760405162461bcd60e51b815260040161068f919061219b565b5050600380546001600160a01b0319166001600160a01b0392909216919091179055565b61199a8133611bc1565b50565b6119a5611b19565b6002805460ff191660011790557f62e78cea01bee320cd4e420270b5ea74000d11b0c9f74754ebdbfc544b05a2586119da3390565b6040516001600160a01b03909116815260200160405180910390a1565b6119ff611c25565b6002805460ff191690557f5db9ee0a495bf2e6ff9c91a7834c1ba4fdd244a5e8aa4e537bd38aeae4b073aa336119da565b611a3a8282611866565b610614576000828152602081815260408083206001600160a01b03851684529091529020805460ff19166001179055611a703390565b6001600160a01b0316816001600160a01b0316837f2f8788117e7eff1d82e926ec794901d17c78024a50270940304540a733656f0d60405160405180910390a45050565b611abe8282611866565b15610614576000828152602081815260408083206001600160a01b0385168085529252808320805460ff1916905551339285917ff6391f5c32d9c69d2a47ea670b442974b53935d1edc7fd64eb21e047a839171b9190a45050565b60025460ff1615611b5f5760405162461bcd60e51b815260206004820152601060248201526f14185d5cd8589b194e881c185d5cd95960821b604482015260640161068f565b565b604080516001600160a01b0385811660248301528416604482015260648082018490528251808303909101815260849091019091526020810180516001600160e01b03166323b872dd60e01b179052611bbb908590611c6e565b50505050565b611bcb8282611866565b61061457611be3816001600160a01b03166014611d40565b611bee836020611d40565b604051602001611bff9291906123db565b60408051601f198184030181529082905262461bcd60e51b825261068f9160040161219b565b60025460ff16611b5f5760405162461bcd60e51b815260206004820152601460248201527314185d5cd8589b194e881b9bdd081c185d5cd95960621b604482015260640161068f565b6000611cc3826040518060400160405280602081526020017f5361666545524332303a206c6f772d6c6576656c2063616c6c206661696c6564815250856001600160a01b0316611ee39092919063ffffffff16565b805190915015610aa45780806020019051810190611ce19190612450565b610aa45760405162461bcd60e51b815260206004820152602a60248201527f5361666545524332303a204552433230206f7065726174696f6e20646964206e6044820152691bdd081cdd58d8d9595960b21b606482015260840161068f565b60606000611d4f8360026122d0565b611d5a9060026122ef565b67ffffffffffffffff811115611d7257611d7261246d565b6040519080825280601f01601f191660200182016040528015611d9c576020820181803683370190505b509050600360fc1b81600081518110611db757611db761228d565b60200101906001600160f81b031916908160001a905350600f60fb1b81600181518110611de657611de661228d565b60200101906001600160f81b031916908160001a9053506000611e0a8460026122d0565b611e159060016122ef565b90505b6001811115611e8d576f181899199a1a9b1b9c1cb0b131b232b360811b85600f1660108110611e4957611e4961228d565b1a60f81b828281518110611e5f57611e5f61228d565b60200101906001600160f81b031916908160001a90535060049490941c93611e8681612483565b9050611e18565b508315611edc5760405162461bcd60e51b815260206004820181905260248201527f537472696e67733a20686578206c656e67746820696e73756666696369656e74604482015260640161068f565b9392505050565b6060611ef28484600085611efa565b949350505050565b606082471015611f5b5760405162461bcd60e51b815260206004820152602660248201527f416464726573733a20696e73756666696369656e742062616c616e636520666f6044820152651c8818d85b1b60d21b606482015260840161068f565b6001600160a01b0385163b611fb25760405162461bcd60e51b815260206004820152601d60248201527f416464726573733a2063616c6c20746f206e6f6e2d636f6e7472616374000000604482015260640161068f565b600080866001600160a01b03168587604051611fce919061249a565b60006040518083038185875af1925050503d806000811461200b576040519150601f19603f3d011682016040523d82523d6000602084013e612010565b606091505b509150915061202082828661202b565b979650505050505050565b6060831561203a575081611edc565b82511561204a5782518084602001fd5b8160405162461bcd60e51b815260040161068f919061219b565b60006020828403121561207657600080fd5b81356001600160e01b031981168114611edc57600080fd5b801515811461199a57600080fd5b6000602082840312156120ae57600080fd5b8135611edc8161208e565b6000602082840312156120cb57600080fd5b5035919050565b60ff8116811461199a57600080fd5b600080604083850312156120f457600080fd5b82356120ff816120d2565b946020939093013593505050565b6001600160a01b038116811461199a57600080fd5b6000806040838503121561213557600080fd5b8235915060208301356121478161210d565b809150509250929050565b60006020828403121561216457600080fd5b8135611edc8161210d565b60005b8381101561218a578181015183820152602001612172565b83811115611bbb5750506000910152565b60208152600082518060208401526121ba81604085016020870161216f565b601f01601f19169190910160400192915050565b600080600080600060a086880312156121e657600080fd5b85516121f1816120d2565b6020870151909550612202816120d2565b6040870151909450612213816120d2565b6060870151909350612224816120d2565b6080870151909250612235816120d2565b809150509295509295909350565b60008060008060008060c0878903121561225c57600080fd5b865195506020870151945060408701519350606087015192506080870151915060a087015190509295509295509295565b634e487b7160e01b600052603260045260246000fd5b634e487b7160e01b600052601160045260246000fd5b6000828210156122cb576122cb6122a3565b500390565b60008160001904831182151516156122ea576122ea6122a3565b500290565b60008219821115612302576123026122a3565b500190565b600061ffff808316818516808303821115612324576123246122a3565b01949350505050565b60008261234a57634e487b7160e01b600052601260045260246000fd5b500490565b60006020828403121561236157600080fd5b8151611edc8161210d565b805169ffffffffffffffffffff8116811461238657600080fd5b919050565b600080600080600060a086880312156123a357600080fd5b6123ac8661236c565b94506020860151935060408601519250606086015191506123cf6080870161236c565b90509295509295909350565b7f416363657373436f6e74726f6c3a206163636f756e742000000000000000000081526000835161241381601785016020880161216f565b7001034b99036b4b9b9b4b733903937b6329607d1b601791840191820152835161244481602884016020880161216f565b01602801949350505050565b60006020828403121561246257600080fd5b8151611edc8161208e565b634e487b7160e01b600052604160045260246000fd5b600081612492576124926122a3565b506000190190565b600082516124ac81846020870161216f565b919091019291505056fea26469706673582212205140328358213ea89614a84c42899fa493c101c8f85e25333932ca6f3b6f8a4264736f6c63430008090033",
  "devdoc": {
    "kind": "dev",
    "methods": {
      "getRoleAdmin(bytes32)": {
        "details": "Returns the admin role that controls `role`. See {grantRole} and {revokeRole}. To change a role's admin, use {_setRoleAdmin}."
      },
      "grantRole(bytes32,address)": {
        "details": "Grants `role` to `account`. If `account` had not been already granted `role`, emits a {RoleGranted} event. Requirements: - the caller must have ``role``'s admin role. May emit a {RoleGranted} event."
      },
      "hasRole(bytes32,address)": {
        "details": "Returns `true` if `account` has been granted `role`."
      },
      "paused()": {
        "details": "Returns true if the contract is paused, and false otherwise."
      },
      "renounceRole(bytes32,address)": {
        "details": "Revokes `role` from the calling account. Roles are often managed via {grantRole} and {revokeRole}: this function's purpose is to provide a mechanism for accounts to lose their privileges if they are compromised (such as when a trusted device is misplaced). If the calling account had been revoked `role`, emits a {RoleRevoked} event. Requirements: - the caller must be `account`. May emit a {RoleRevoked} event."
      },
      "revokeRole(bytes32,address)": {
        "details": "Revokes `role` from `account`. If `account` had been granted `role`, emits a {RoleRevoked} event. Requirements: - the caller must have ``role``'s admin role. May emit a {RoleRevoked} event."
      },
      "supportsInterface(bytes4)": {
        "details": "See {IERC165-supportsInterface}."
      }
    },
    "version": 1
  },
  "userdoc": {
    "kind": "user",
    "methods": {
      "getLatestPrice()": {
        "notice": "Returns the latest price"
      }
    },
    "version": 1
  },
  "storageLayout": {
    "storage": [
      {
        "astId": 70,
        "contract": "contracts/Utilities/Upgrader.sol:Upgrader",
        "label": "_roles",
        "offset": 0,
        "slot": "0",
        "type": "t_mapping(t_bytes32,t_struct(RoleData)65_storage)"
      },
      {
        "astId": 557,
        "contract": "contracts/Utilities/Upgrader.sol:Upgrader",
        "label": "_status",
        "offset": 0,
        "slot": "1",
        "type": "t_uint256"
      },
      {
        "astId": 456,
        "contract": "contracts/Utilities/Upgrader.sol:Upgrader",
        "label": "_paused",
        "offset": 0,
        "slot": "2",
        "type": "t_bool"
      },
      {
        "astId": 3008,
        "contract": "contracts/Utilities/Upgrader.sol:Upgrader",
        "label": "priceFeed",
        "offset": 1,
        "slot": "2",
        "type": "t_contract(AggregatorV3Interface)45"
      },
      {
        "astId": 3014,
        "contract": "contracts/Utilities/Upgrader.sol:Upgrader",
        "label": "blastEquipmentNFT",
        "offset": 0,
        "slot": "3",
        "type": "t_contract(IBlastEquipmentNFT)3430"
      },
      {
        "astId": 3017,
        "contract": "contracts/Utilities/Upgrader.sol:Upgrader",
        "label": "blastToken",
        "offset": 0,
        "slot": "4",
        "type": "t_contract(IERC20)1250"
      },
      {
        "astId": 3020,
        "contract": "contracts/Utilities/Upgrader.sol:Upgrader",
        "label": "csToken",
        "offset": 0,
        "slot": "5",
        "type": "t_contract(ERC20Burnable)1294"
      },
      {
        "astId": 3022,
        "contract": "contracts/Utilities/Upgrader.sol:Upgrader",
        "label": "treasuryAddress",
        "offset": 0,
        "slot": "6",
        "type": "t_address"
      },
      {
        "astId": 3024,
        "contract": "contracts/Utilities/Upgrader.sol:Upgrader",
        "label": "companyAddress",
        "offset": 0,
        "slot": "7",
        "type": "t_address"
      },
      {
        "astId": 3026,
        "contract": "contracts/Utilities/Upgrader.sol:Upgrader",
        "label": "isUsingMatic",
        "offset": 20,
        "slot": "7",
        "type": "t_bool"
      },
      {
        "astId": 2369,
        "contract": "contracts/Utilities/Upgrader.sol:Upgrader",
        "label": "durabilityEffectDivider",
        "offset": 0,
        "slot": "8",
        "type": "t_uint256"
      },
      {
        "astId": 2384,
        "contract": "contracts/Utilities/Upgrader.sol:Upgrader",
        "label": "maxLevelPerRarity",
        "offset": 0,
        "slot": "9",
        "type": "t_array(t_uint256)10_storage"
      },
      {
        "astId": 2394,
        "contract": "contracts/Utilities/Upgrader.sol:Upgrader",
        "label": "multiplierPerGrade",
        "offset": 0,
        "slot": "19",
        "type": "t_array(t_uint16)5_storage"
      },
      {
        "astId": 2397,
        "contract": "contracts/Utilities/Upgrader.sol:Upgrader",
        "label": "bltAttribute",
        "offset": 0,
        "slot": "20",
        "type": "t_struct(Attributes)2366_storage"
      },
      {
        "astId": 2400,
        "contract": "contracts/Utilities/Upgrader.sol:Upgrader",
        "label": "csAttribute",
        "offset": 0,
        "slot": "23",
        "type": "t_struct(Attributes)2366_storage"
      }
    ],
    "types": {
      "t_address": {
        "encoding": "inplace",
        "label": "address",
        "numberOfBytes": "20"
      },
      "t_array(t_uint16)10_storage": {
        "base": "t_uint16",
        "encoding": "inplace",
        "label": "uint16[10]",
        "numberOfBytes": "32"
      },
      "t_array(t_uint16)5_storage": {
        "base": "t_uint16",
        "encoding": "inplace",
        "label": "uint16[5]",
        "numberOfBytes": "32"
      },
      "t_array(t_uint256)10_storage": {
        "base": "t_uint256",
        "encoding": "inplace",
        "label": "uint256[10]",
        "numberOfBytes": "320"
      },
      "t_array(t_uint8)10_storage": {
        "base": "t_uint8",
        "encoding": "inplace",
        "label": "uint8[10]",
        "numberOfBytes": "32"
      },
      "t_bool": {
        "encoding": "inplace",
        "label": "bool",
        "numberOfBytes": "1"
      },
      "t_bytes32": {
        "encoding": "inplace",
        "label": "bytes32",
        "numberOfBytes": "32"
      },
      "t_contract(AggregatorV3Interface)45": {
        "encoding": "inplace",
        "label": "contract AggregatorV3Interface",
        "numberOfBytes": "20"
      },
      "t_contract(ERC20Burnable)1294": {
        "encoding": "inplace",
        "label": "contract ERC20Burnable",
        "numberOfBytes": "20"
      },
      "t_contract(IBlastEquipmentNFT)3430": {
        "encoding": "inplace",
        "label": "contract IBlastEquipmentNFT",
        "numberOfBytes": "20"
      },
      "t_contract(IERC20)1250": {
        "encoding": "inplace",
        "label": "contract IERC20",
        "numberOfBytes": "20"
      },
      "t_mapping(t_address,t_bool)": {
        "encoding": "mapping",
        "key": "t_address",
        "label": "mapping(address => bool)",
        "numberOfBytes": "32",
        "value": "t_bool"
      },
      "t_mapping(t_bytes32,t_struct(RoleData)65_storage)": {
        "encoding": "mapping",
        "key": "t_bytes32",
        "label": "mapping(bytes32 => struct AccessControl.RoleData)",
        "numberOfBytes": "32",
        "value": "t_struct(RoleData)65_storage"
      },
      "t_struct(Attributes)2366_storage": {
        "encoding": "inplace",
        "label": "struct Upgrader.Attributes",
        "members": [
          {
            "astId": 2359,
            "contract": "contracts/Utilities/Upgrader.sol:Upgrader",
            "label": "pricePerRarity",
            "offset": 0,
            "slot": "0",
            "type": "t_array(t_uint16)10_storage"
          },
          {
            "astId": 2363,
            "contract": "contracts/Utilities/Upgrader.sol:Upgrader",
            "label": "pricePerAdjective",
            "offset": 0,
            "slot": "1",
            "type": "t_array(t_uint8)10_storage"
          },
          {
            "astId": 2365,
            "contract": "contracts/Utilities/Upgrader.sol:Upgrader",
            "label": "pricePerLevel",
            "offset": 0,
            "slot": "2",
            "type": "t_uint256"
          }
        ],
        "numberOfBytes": "96"
      },
      "t_struct(RoleData)65_storage": {
        "encoding": "inplace",
        "label": "struct AccessControl.RoleData",
        "members": [
          {
            "astId": 62,
            "contract": "contracts/Utilities/Upgrader.sol:Upgrader",
            "label": "members",
            "offset": 0,
            "slot": "0",
            "type": "t_mapping(t_address,t_bool)"
          },
          {
            "astId": 64,
            "contract": "contracts/Utilities/Upgrader.sol:Upgrader",
            "label": "adminRole",
            "offset": 0,
            "slot": "1",
            "type": "t_bytes32"
          }
        ],
        "numberOfBytes": "64"
      },
      "t_uint16": {
        "encoding": "inplace",
        "label": "uint16",
        "numberOfBytes": "2"
      },
      "t_uint256": {
        "encoding": "inplace",
        "label": "uint256",
        "numberOfBytes": "32"
      },
      "t_uint8": {
        "encoding": "inplace",
        "label": "uint8",
        "numberOfBytes": "1"
      }
    }
  }
}