{
  "address": "0x53976F7350d99B1edec61228d2422Fb338E7b7e8",
  "abi": [
    {
      "inputs": [
        {
          "internalType": "contract IBlastEquipmentNFT",
          "name": "_blastEquipmentNFT",
          "type": "address"
        },
        {
          "internalType": "contract IERC20",
          "name": "_blastToken",
          "type": "address"
        },
        {
          "internalType": "contract ERC20Burnable",
          "name": "_csToken",
          "type": "address"
        },
        {
          "internalType": "address",
          "name": "_treasuryAddress",
          "type": "address"
        },
        {
          "internalType": "address",
          "name": "_companyAddress",
          "type": "address"
        }
      ],
      "stateMutability": "nonpayable",
      "type": "constructor"
    },
    {
      "inputs": [],
      "name": "InvalidParams",
      "type": "error"
    },
    {
      "inputs": [],
      "name": "MaxLevelReached",
      "type": "error"
    },
    {
      "inputs": [],
      "name": "NoZeroAddress",
      "type": "error"
    },
    {
      "inputs": [],
      "name": "NotOwner",
      "type": "error"
    },
    {
      "anonymous": false,
      "inputs": [
        {
          "indexed": false,
          "internalType": "uint256",
          "name": "tokenId",
          "type": "uint256"
        },
        {
          "indexed": false,
          "internalType": "address",
          "name": "owner",
          "type": "address"
        },
        {
          "indexed": false,
          "internalType": "uint256",
          "name": "newLevel",
          "type": "uint256"
        }
      ],
      "name": "LevelUpgraded",
      "type": "event"
    },
    {
      "anonymous": false,
      "inputs": [
        {
          "indexed": false,
          "internalType": "address",
          "name": "account",
          "type": "address"
        }
      ],
      "name": "Paused",
      "type": "event"
    },
    {
      "anonymous": false,
      "inputs": [
        {
          "indexed": true,
          "internalType": "bytes32",
          "name": "role",
          "type": "bytes32"
        },
        {
          "indexed": true,
          "internalType": "bytes32",
          "name": "previousAdminRole",
          "type": "bytes32"
        },
        {
          "indexed": true,
          "internalType": "bytes32",
          "name": "newAdminRole",
          "type": "bytes32"
        }
      ],
      "name": "RoleAdminChanged",
      "type": "event"
    },
    {
      "anonymous": false,
      "inputs": [
        {
          "indexed": true,
          "internalType": "bytes32",
          "name": "role",
          "type": "bytes32"
        },
        {
          "indexed": true,
          "internalType": "address",
          "name": "account",
          "type": "address"
        },
        {
          "indexed": true,
          "internalType": "address",
          "name": "sender",
          "type": "address"
        }
      ],
      "name": "RoleGranted",
      "type": "event"
    },
    {
      "anonymous": false,
      "inputs": [
        {
          "indexed": true,
          "internalType": "bytes32",
          "name": "role",
          "type": "bytes32"
        },
        {
          "indexed": true,
          "internalType": "address",
          "name": "account",
          "type": "address"
        },
        {
          "indexed": true,
          "internalType": "address",
          "name": "sender",
          "type": "address"
        }
      ],
      "name": "RoleRevoked",
      "type": "event"
    },
    {
      "anonymous": false,
      "inputs": [
        {
          "indexed": false,
          "internalType": "address",
          "name": "account",
          "type": "address"
        }
      ],
      "name": "Unpaused",
      "type": "event"
    },
    {
      "inputs": [],
      "name": "DECIMAL_FACTOR",
      "outputs": [
        {
          "internalType": "uint256",
          "name": "",
          "type": "uint256"
        }
      ],
      "stateMutability": "view",
      "type": "function"
    },
    {
      "inputs": [],
      "name": "DEFAULT_ADMIN_ROLE",
      "outputs": [
        {
          "internalType": "bytes32",
          "name": "",
          "type": "bytes32"
        }
      ],
      "stateMutability": "view",
      "type": "function"
    },
    {
      "inputs": [],
      "name": "blastEquipmentNFT",
      "outputs": [
        {
          "internalType": "contract IBlastEquipmentNFT",
          "name": "",
          "type": "address"
        }
      ],
      "stateMutability": "view",
      "type": "function"
    },
    {
      "inputs": [],
      "name": "blastToken",
      "outputs": [
        {
          "internalType": "contract IERC20",
          "name": "",
          "type": "address"
        }
      ],
      "stateMutability": "view",
      "type": "function"
    },
    {
      "inputs": [],
      "name": "bltAttribute",
      "outputs": [
        {
          "internalType": "uint256",
          "name": "pricePerLevel",
          "type": "uint256"
        }
      ],
      "stateMutability": "view",
      "type": "function"
    },
    {
      "inputs": [],
      "name": "csAttribute",
      "outputs": [
        {
          "internalType": "uint256",
          "name": "pricePerLevel",
          "type": "uint256"
        }
      ],
      "stateMutability": "view",
      "type": "function"
    },
    {
      "inputs": [],
      "name": "csToken",
      "outputs": [
        {
          "internalType": "contract ERC20Burnable",
          "name": "",
          "type": "address"
        }
      ],
      "stateMutability": "view",
      "type": "function"
    },
    {
      "inputs": [],
      "name": "flipIsUsingMatic",
      "outputs": [],
      "stateMutability": "nonpayable",
      "type": "function"
    },
    {
      "inputs": [],
      "name": "getLatestPrice",
      "outputs": [
        {
          "internalType": "int256",
          "name": "",
          "type": "int256"
        }
      ],
      "stateMutability": "view",
      "type": "function"
    },
    {
      "inputs": [
        {
          "internalType": "uint8",
          "name": "_tokenType",
          "type": "uint8"
        },
        {
          "internalType": "uint256",
          "name": "_tokenId",
          "type": "uint256"
        }
      ],
      "name": "getRequiredPrice",
      "outputs": [
        {
          "internalType": "uint256",
          "name": "",
          "type": "uint256"
        }
      ],
      "stateMutability": "view",
      "type": "function"
    },
    {
      "inputs": [
        {
          "internalType": "bytes32",
          "name": "role",
          "type": "bytes32"
        }
      ],
      "name": "getRoleAdmin",
      "outputs": [
        {
          "internalType": "bytes32",
          "name": "",
          "type": "bytes32"
        }
      ],
      "stateMutability": "view",
      "type": "function"
    },
    {
      "inputs": [
        {
          "internalType": "bytes32",
          "name": "role",
          "type": "bytes32"
        },
        {
          "internalType": "address",
          "name": "account",
          "type": "address"
        }
      ],
      "name": "grantRole",
      "outputs": [],
      "stateMutability": "nonpayable",
      "type": "function"
    },
    {
      "inputs": [
        {
          "internalType": "bytes32",
          "name": "role",
          "type": "bytes32"
        },
        {
          "internalType": "address",
          "name": "account",
          "type": "address"
        }
      ],
      "name": "hasRole",
      "outputs": [
        {
          "internalType": "bool",
          "name": "",
          "type": "bool"
        }
      ],
      "stateMutability": "view",
      "type": "function"
    },
    {
      "inputs": [],
      "name": "isUsingMatic",
      "outputs": [
        {
          "internalType": "bool",
          "name": "",
          "type": "bool"
        }
      ],
      "stateMutability": "view",
      "type": "function"
    },
    {
      "inputs": [
        {
          "internalType": "uint256",
          "name": "",
          "type": "uint256"
        }
      ],
      "name": "maxLevelPerRarity",
      "outputs": [
        {
          "internalType": "uint256",
          "name": "",
          "type": "uint256"
        }
      ],
      "stateMutability": "view",
      "type": "function"
    },
    {
      "inputs": [
        {
          "internalType": "uint256",
          "name": "",
          "type": "uint256"
        }
      ],
      "name": "multiplierPerGrade",
      "outputs": [
        {
          "internalType": "uint16",
          "name": "",
          "type": "uint16"
        }
      ],
      "stateMutability": "view",
      "type": "function"
    },
    {
      "inputs": [
        {
          "internalType": "bool",
          "name": "stop",
          "type": "bool"
        }
      ],
      "name": "pause",
      "outputs": [],
      "stateMutability": "nonpayable",
      "type": "function"
    },
    {
      "inputs": [],
      "name": "paused",
      "outputs": [
        {
          "internalType": "bool",
          "name": "",
          "type": "bool"
        }
      ],
      "stateMutability": "view",
      "type": "function"
    },
    {
      "inputs": [
        {
          "internalType": "bytes32",
          "name": "role",
          "type": "bytes32"
        },
        {
          "internalType": "address",
          "name": "account",
          "type": "address"
        }
      ],
      "name": "renounceRole",
      "outputs": [],
      "stateMutability": "nonpayable",
      "type": "function"
    },
    {
      "inputs": [
        {
          "internalType": "bytes32",
          "name": "role",
          "type": "bytes32"
        },
        {
          "internalType": "address",
          "name": "account",
          "type": "address"
        }
      ],
      "name": "revokeRole",
      "outputs": [],
      "stateMutability": "nonpayable",
      "type": "function"
    },
    {
      "inputs": [
        {
          "internalType": "contract IBlastEquipmentNFT",
          "name": "_blastEquipmentNFT",
          "type": "address"
        }
      ],
      "name": "setBlastEquipmentAddress",
      "outputs": [],
      "stateMutability": "nonpayable",
      "type": "function"
    },
    {
      "inputs": [
        {
          "internalType": "contract IERC20",
          "name": "_blastToken",
          "type": "address"
        }
      ],
      "name": "setBlastTokenAddress",
      "outputs": [],
      "stateMutability": "nonpayable",
      "type": "function"
    },
    {
      "inputs": [
        {
          "internalType": "contract ERC20Burnable",
          "name": "_csToken",
          "type": "address"
        }
      ],
      "name": "setCSTokenAddress",
      "outputs": [],
      "stateMutability": "nonpayable",
      "type": "function"
    },
    {
      "inputs": [
        {
          "internalType": "address",
          "name": "_company",
          "type": "address"
        }
      ],
      "name": "setCompanyAddress",
      "outputs": [],
      "stateMutability": "nonpayable",
      "type": "function"
    },
    {
      "inputs": [
        {
          "internalType": "address",
          "name": "_treasury",
          "type": "address"
        }
      ],
      "name": "setTreasuryAddress",
      "outputs": [],
      "stateMutability": "nonpayable",
      "type": "function"
    },
    {
      "inputs": [
        {
          "internalType": "bytes4",
          "name": "interfaceId",
          "type": "bytes4"
        }
      ],
      "name": "supportsInterface",
      "outputs": [
        {
          "internalType": "bool",
          "name": "",
          "type": "bool"
        }
      ],
      "stateMutability": "view",
      "type": "function"
    },
    {
      "inputs": [
        {
          "internalType": "uint256",
          "name": "_tokenId",
          "type": "uint256"
        }
      ],
      "name": "upgrade",
      "outputs": [],
      "stateMutability": "nonpayable",
      "type": "function"
    },
    {
      "inputs": [
        {
          "internalType": "uint256",
          "name": "_tokenId",
          "type": "uint256"
        }
      ],
      "name": "upgradeUsingMatic",
      "outputs": [],
      "stateMutability": "payable",
      "type": "function"
    }
  ],
  "transactionHash": "0xb03678ec95c186301f6f45a38dfaa35e23d83fc96c65465c96c60d18aa61e8a5",
  "args": [
    "0xB29eeD62630b9031699fd7d80479ADf1FDf89E2a",
    "0x37D218d68B8bDed1D014Bcdc7112979e1ADe9235",
    "0x5cFE343F1a069eAA089A56583E9446582a1ec479",
    "0x7Ac410F4E36873022b57821D7a8EB3D7513C045a",
    "0x7Ac410F4E36873022b57821D7a8EB3D7513C045a"
  ],
  "numDeployments": 1,
  "solcInputHash": "d9b52be0d2f22db0774fe6093c05cce7",
  "bytecode": "0x6101c0604052600a6080818152600c60a052600f60c052601160e052601461010052601661012052601961014052601b61016052601e6101805260236101a0526200004e9160089190620005af565b506040805160a0810182526106cc81526105f060208201526105289181019190915261047e60608201526103e8608082015262000090906012906005620005f7565b503480156200009e57600080fd5b5060405162002b0e38038062002b0e833981016040819052620000c19162000745565b600180556002805460ff1916905584848484846001600160a01b0385161580620000f257506001600160a01b038416155b806200010557506001600160a01b038316155b806200011857506001600160a01b038216155b806200012b57506001600160a01b038116155b156200014a5760405163ddbadd5f60e01b815260040160405180910390fd5b62000157600033620004ff565b84600360006101000a8154816001600160a01b0302191690836001600160a01b0316021790555083600460006101000a8154816001600160a01b0302191690836001600160a01b0316021790555082600560006101000a8154816001600160a01b0302191690836001600160a01b0316021790555081600660006101000a8154816001600160a01b0302191690836001600160a01b0316021790555080600760006101000a8154816001600160a01b0302191690836001600160a01b0316021790555073d0d5e3db44de05e9f294bb0a3beeaf030de24ada600260016101000a8154816001600160a01b0302191690836001600160a01b0316021790555050505050506000604051806101400160405280600361ffff1661ffff168152602001600461ffff168152602001600461ffff168152602001600561ffff168152602001600561ffff168152602001600661ffff168152602001600761ffff168152602001600761ffff168152602001600861ffff168152602001600961ffff1681525090506000604051806101400160405280600060ff168152602001600060ff168152602001600060ff168152602001600160ff168152602001600160ff168152602001600260ff168152602001600260ff168152602001600360ff168152602001600460ff168152602001600460ff1681525090506000604051806101400160405280606461ffff168152602001609061ffff16815260200160cf61ffff16815260200161012961ffff1681526020016101ab61ffff16815260200161026561ffff16815260200161037161ffff1681526020016104f261ffff16815260200161071b61ffff168152602001610a3561ffff1681525090506000604051806101400160405280600060ff168152602001600060ff168152602001600060ff168152602001600160ff168152602001600160ff168152602001600260ff168152602001600260ff168152602001600360ff168152602001600460ff168152602001600460ff16815250905060405180606001604052808581526020018481526020016101f4815250601360008201518160000190600a62000479929190620005f7565b50602082015162000491906001830190600a6200068f565b506040918201516002909101558051606081018252838152602081018390526109c4918101919091526016620004ca8185600a620005f7565b506020820151620004e2906001830190600a6200068f565b5060408201518160020155905050505050505050505050620007c5565b6200050b82826200050f565b5050565b6000828152602081815260408083206001600160a01b038516845290915290205460ff166200050b576000828152602081815260408083206001600160a01b03851684529091529020805460ff191660011790556200056b3390565b6001600160a01b0316816001600160a01b0316837f2f8788117e7eff1d82e926ec794901d17c78024a50270940304540a733656f0d60405160405180910390a45050565b82600a8101928215620005e5579160200282015b82811115620005e5578251829060ff16905591602001919060010190620005c3565b50620005f392915062000715565b5090565b600183019183908215620005e55791602002820160005b838211156200065057835183826101000a81548161ffff021916908361ffff16021790555092602001926002016020816001010492830192600103026200060e565b8015620006805782816101000a81549061ffff021916905560020160208160010104928301926001030262000650565b5050620005f392915062000715565b600183019183908215620005e55791602002820160005b83821115620006e657835183826101000a81548160ff021916908360ff1602179055509260200192600101602081600001049283019260010302620006a6565b8015620006805782816101000a81549060ff0219169055600101602081600001049283019260010302620006e6565b5b80821115620005f3576000815560010162000716565b6001600160a01b03811681146200074257600080fd5b50565b600080600080600060a086880312156200075e57600080fd5b85516200076b816200072c565b60208701519095506200077e816200072c565b604087015190945062000791816200072c565b6060870151909350620007a4816200072c565b6080870151909250620007b7816200072c565b809150509295509295909350565b61233980620007d56000396000f3fe6080604052600436106101b75760003560e01c80635ad6af93116100ec57806391d148541161008a578063d547741f11610064578063d547741f146104ca578063df8de163146104ea578063e04605fd1461050b578063eccb44481461052b57600080fd5b806391d1485414610475578063a217fddf14610495578063c1763ee5146104aa57600080fd5b806372c6239a116100c657806372c6239a146104165780637557a7d21461043657806384b8bce41461044d5780638e15f4731461046057600080fd5b80635ad6af93146103c75780635c975abb146103de5780636605bfda146103f657600080fd5b80632f2ff15d1161015957806345977d031161013357806345977d03146103475780634c0f5276146103675780634f63a77214610387578063522ffe96146103a757600080fd5b80632f2ff15d146102f157806333fdbbe51461031157806336568abe1461032757600080fd5b8063062f834411610195578063062f8344146102285780631b078ab31461025b5780632116dcc014610293578063248a9ca3146102c157600080fd5b806301ffc9a7146101bc578063021946fd146101f157806302329a2914610208575b600080fd5b3480156101c857600080fd5b506101dc6101d7366004611e8a565b61054b565b60405190151581526020015b60405180910390f35b3480156101fd57600080fd5b50610206610582565b005b34801561021457600080fd5b50610206610223366004611ec2565b6105af565b34801561023457600080fd5b50610248610243366004611edf565b6105d4565b60405161ffff90911681526020016101e8565b34801561026757600080fd5b5060045461027b906001600160a01b031681565b6040516001600160a01b0390911681526020016101e8565b34801561029f57600080fd5b506102b36102ae366004611f07565b610602565b6040519081526020016101e8565b3480156102cd57600080fd5b506102b36102dc366004611edf565b60009081526020819052604090206001015490565b3480156102fd57600080fd5b5061020661030c366004611f48565b6109b2565b34801561031d57600080fd5b506102b36103e881565b34801561033357600080fd5b50610206610342366004611f48565b6109dc565b34801561035357600080fd5b50610206610362366004611edf565b610a5b565b34801561037357600080fd5b50610206610382366004611f78565b610f14565b34801561039357600080fd5b506102066103a2366004611f78565b610f68565b3480156103b357600080fd5b506102b36103c2366004611edf565b610fbd565b3480156103d357600080fd5b506018546102b39081565b3480156103ea57600080fd5b5060025460ff166101dc565b34801561040257600080fd5b50610206610411366004611f78565b610fd4565b34801561042257600080fd5b5060035461027b906001600160a01b031681565b34801561044257600080fd5b506015546102b39081565b61020661045b366004611edf565b611029565b34801561046c57600080fd5b506102b361162c565b34801561048157600080fd5b506101dc610490366004611f48565b6116c0565b3480156104a157600080fd5b506102b3600081565b3480156104b657600080fd5b506102066104c5366004611f78565b6116e9565b3480156104d657600080fd5b506102066104e5366004611f48565b61173d565b3480156104f657600080fd5b506007546101dc90600160a01b900460ff1681565b34801561051757600080fd5b5060055461027b906001600160a01b031681565b34801561053757600080fd5b50610206610546366004611f78565b611762565b60006001600160e01b03198216637965db0b60e01b148061057c57506301ffc9a760e01b6001600160e01b03198316145b92915050565b600061058d816117b6565b506007805460ff60a01b198116600160a01b9182900460ff1615909102179055565b60006105ba816117b6565b81156105cc576105c86117c3565b5050565b6105c861181d565b601281600581106105e457600080fd5b60109182820401919006600202915054906101000a900461ffff1681565b60035460405163f692c82960e01b8152600481018390526000918291829182916001600160a01b039091169063f692c8299060240160a06040518083038186803b15801561064f57600080fd5b505afa158015610663573d6000803e3d6000fd5b505050506040513d601f19601f820116820180604052508101906106879190611f95565b600354604051634378a6e360e01b8152600481018c90529398509196509450600093506001600160a01b03169150634378a6e39060240160c06040518083038186803b1580156106d657600080fd5b505afa1580156106ea573d6000803e3d6000fd5b505050506040513d601f19601f8201168201806040525081019061070e919061200a565b505050505090508660ff166000141561086f57600060128360ff166005811061073957610739612054565b601091828204019190066002029054906101000a900461ffff1661ffff1660136002015460018461076a9190612080565b6107749190612097565b61078190620186a06120b6565b601460ff8816600a811061079757610797612054565b602081049091015460ff601f9092166101000a90048116906013908816600a81106107c4576107c4612054565b601091828204019190066002029054906101000a900461ffff166107e891906120ce565b61ffff166107f69190612097565b6108009190612097565b61080f906402540be400612097565b9050600061081b61162c565b600754909150600160a01b900460ff1680156108375750600081135b15610862576305f5e10061084b8284612097565b61085591906120f4565b965050505050505061057c565b50945061057c9350505050565b8660ff16600114156109995760646103e88060128560ff166005811061089757610897612054565b601091828204019190066002029054906101000a900461ffff1661ffff166016600201546001866108c89190612080565b6108d29190612097565b6108df90620186a06120b6565b601760ff8a16600a81106108f5576108f5612054565b602081049091015460ff601f9092166101000a90048116906016908a16600a811061092257610922612054565b601091828204019190066002029054906101000a900461ffff1661094691906120ce565b61ffff166109549190612097565b61095e9190612097565b61096891906120f4565b61097291906120f4565b61097c91906120f4565b61098e90670de0b6b3a7640000612097565b94505050505061057c565b604051635435b28960e11b815260040160405180910390fd5b6000828152602081905260409020600101546109cd816117b6565b6109d78383611856565b505050565b6001600160a01b0381163314610a515760405162461bcd60e51b815260206004820152602f60248201527f416363657373436f6e74726f6c3a2063616e206f6e6c792072656e6f756e636560448201526e103937b632b9903337b91039b2b63360891b60648201526084015b60405180910390fd5b6105c882826118da565b60026001541415610aae5760405162461bcd60e51b815260206004820152601f60248201527f5265656e7472616e637947756172643a207265656e7472616e742063616c6c006044820152606401610a48565b6002600155610abb61193f565b600754600160a01b900460ff1615610b155760405162461bcd60e51b815260206004820152601960248201527f4e6f7420617661696c61626c65207573696e67204d61746963000000000000006044820152606401610a48565b6003546040516331a9108f60e11b8152600481018390526001600160a01b0390911690636352211e9060240160206040518083038186803b158015610b5957600080fd5b505afa158015610b6d573d6000803e3d6000fd5b505050506040513d601f19601f82011682018060405250810190610b919190612116565b6001600160a01b0316336001600160a01b031614610bc2576040516330cd747160e01b815260040160405180910390fd5b6000610bcf600083610602565b90506000610bde600184610602565b60035460405163f692c82960e01b8152600481018690529192506000916001600160a01b039091169063f692c8299060240160a06040518083038186803b158015610c2857600080fd5b505afa158015610c3c573d6000803e3d6000fd5b505050506040513d601f19601f82011682018060405250810190610c609190611f95565b50600354604051634378a6e360e01b8152600481018a9052919550600094506001600160a01b03169250634378a6e3915060240160c06040518083038186803b158015610cac57600080fd5b505afa158015610cc0573d6000803e3d6000fd5b505050506040513d601f19601f82011682018060405250810190610ce4919061200a565b505050505090508060001415610d0d57604051635435b28960e11b815260040160405180910390fd5b60088260ff16600a8110610d2357610d23612054565b0154811415610d455760405163921c7d5f60e01b815260040160405180910390fd5b831580610d50575082155b15610d6e57604051635435b28960e11b815260040160405180910390fd5b6005546001600160a01b03166379cc6790336040516001600160e01b031960e084901b1681526001600160a01b03909116600482015260248101869052604401600060405180830381600087803b158015610dc857600080fd5b505af1158015610ddc573d6000803e3d6000fd5b50505050610e15610dea3390565b6006546001600160a01b0316610e016004886120f4565b6004546001600160a01b0316929190611987565b610e3c336007546001600160a01b03166004610e32886003612097565b610e0191906120f4565b6003546001600160a01b03166370a93b3686610e598460016120b6565b6040516001600160e01b031960e085901b16815260048101929092526024820152604401600060405180830381600087803b158015610e9757600080fd5b505af1158015610eab573d6000803e3d6000fd5b505050507f38567192e7192f44727cb01ef1cce779467d435edc1f3f105c4528445087823585610ed83390565b610ee38460016120b6565b604080519384526001600160a01b0390921660208401529082015260600160405180910390a1505060018055505050565b6000610f1f816117b6565b6001600160a01b038216610f455760405162461bcd60e51b8152600401610a4890612133565b50600480546001600160a01b0319166001600160a01b0392909216919091179055565b6000610f73816117b6565b6001600160a01b038216610f9a5760405163ddbadd5f60e01b815260040160405180910390fd5b50600780546001600160a01b0319166001600160a01b0392909216919091179055565b600881600a8110610fcd57600080fd5b0154905081565b6000610fdf816117b6565b6001600160a01b0382166110065760405163ddbadd5f60e01b815260040160405180910390fd5b50600680546001600160a01b0319166001600160a01b0392909216919091179055565b6002600154141561107c5760405162461bcd60e51b815260206004820152601f60248201527f5265656e7472616e637947756172643a207265656e7472616e742063616c6c006044820152606401610a48565b600260015561108961193f565b600754600160a01b900460ff166110d45760405162461bcd60e51b815260206004820152600f60248201526e4e6f74207573696e67204d6174696360881b6044820152606401610a48565b6003546040516331a9108f60e11b8152600481018390526001600160a01b0390911690636352211e9060240160206040518083038186803b15801561111857600080fd5b505afa15801561112c573d6000803e3d6000fd5b505050506040513d601f19601f820116820180604052508101906111509190612116565b6001600160a01b0316336001600160a01b031614611181576040516330cd747160e01b815260040160405180910390fd5b600061118e600083610602565b9050600061119d600184610602565b60035460405163f692c82960e01b8152600481018690529192506000916001600160a01b039091169063f692c8299060240160a06040518083038186803b1580156111e757600080fd5b505afa1580156111fb573d6000803e3d6000fd5b505050506040513d601f19601f8201168201806040525081019061121f9190611f95565b50600354604051634378a6e360e01b8152600481018a9052919550600094506001600160a01b03169250634378a6e3915060240160c06040518083038186803b15801561126b57600080fd5b505afa15801561127f573d6000803e3d6000fd5b505050506040513d601f19601f820116820180604052508101906112a3919061200a565b5050505050905080600014156112cc57604051635435b28960e11b815260040160405180910390fd5b60088260ff16600a81106112e2576112e2612054565b01548114156113045760405163921c7d5f60e01b815260040160405180910390fd5b83158061130f575082155b1561132d57604051635435b28960e11b815260040160405180910390fd5b6005546001600160a01b03166379cc6790336040516001600160e01b031960e084901b1681526001600160a01b03909116600482015260248101869052604401600060405180830381600087803b15801561138757600080fd5b505af115801561139b573d6000803e3d6000fd5b505050508334146113ee5760405162461bcd60e51b815260206004820152601d60248201527f55706772616465723a496e76616c6964204d6174696320416d6f756e740000006044820152606401610a48565b6006546000906001600160a01b03166114086004876120f4565b604051600081818185875af1925050503d8060008114611444576040519150601f19603f3d011682016040523d82523d6000602084013e611449565b606091505b505090508061149a5760405162461bcd60e51b815260206004820152601e60248201527f4661696c656420746f2073656e642074726561737572794164647265737300006044820152606401610a48565b6007546000906001600160a01b031660046114b6886003612097565b6114c091906120f4565b604051600081818185875af1925050503d80600081146114fc576040519150601f19603f3d011682016040523d82523d6000602084013e611501565b606091505b50509050806115525760405162461bcd60e51b815260206004820152601d60248201527f4661696c656420746f2073656e6420636f6d70616e79416464726573730000006044820152606401610a48565b6003546001600160a01b03166370a93b368861156f8660016120b6565b6040516001600160e01b031960e085901b16815260048101929092526024820152604401600060405180830381600087803b1580156115ad57600080fd5b505af11580156115c1573d6000803e3d6000fd5b505050507f38567192e7192f44727cb01ef1cce779467d435edc1f3f105c45284450878235876115ee3390565b6115f98660016120b6565b604080519384526001600160a01b0390921660208401529082015260600160405180910390a15050600180555050505050565b600080600260019054906101000a90046001600160a01b03166001600160a01b031663feaf968c6040518163ffffffff1660e01b815260040160a06040518083038186803b15801561167d57600080fd5b505afa158015611691573d6000803e3d6000fd5b505050506040513d601f19601f820116820180604052508101906116b59190612179565b509195945050505050565b6000918252602082815260408084206001600160a01b0393909316845291905290205460ff1690565b60006116f4816117b6565b6001600160a01b03821661171a5760405162461bcd60e51b8152600401610a4890612133565b50600580546001600160a01b0319166001600160a01b0392909216919091179055565b600082815260208190526040902060010154611758816117b6565b6109d783836118da565b600061176d816117b6565b6001600160a01b0382166117935760405162461bcd60e51b8152600401610a4890612133565b50600380546001600160a01b0319166001600160a01b0392909216919091179055565b6117c081336119e7565b50565b6117cb61193f565b6002805460ff191660011790557f62e78cea01bee320cd4e420270b5ea74000d11b0c9f74754ebdbfc544b05a2586118003390565b6040516001600160a01b03909116815260200160405180910390a1565b611825611a4b565b6002805460ff191690557f5db9ee0a495bf2e6ff9c91a7834c1ba4fdd244a5e8aa4e537bd38aeae4b073aa33611800565b61186082826116c0565b6105c8576000828152602081815260408083206001600160a01b03851684529091529020805460ff191660011790556118963390565b6001600160a01b0316816001600160a01b0316837f2f8788117e7eff1d82e926ec794901d17c78024a50270940304540a733656f0d60405160405180910390a45050565b6118e482826116c0565b156105c8576000828152602081815260408083206001600160a01b0385168085529252808320805460ff1916905551339285917ff6391f5c32d9c69d2a47ea670b442974b53935d1edc7fd64eb21e047a839171b9190a45050565b60025460ff16156119855760405162461bcd60e51b815260206004820152601060248201526f14185d5cd8589b194e881c185d5cd95960821b6044820152606401610a48565b565b604080516001600160a01b0385811660248301528416604482015260648082018490528251808303909101815260849091019091526020810180516001600160e01b03166323b872dd60e01b1790526119e1908590611a94565b50505050565b6119f182826116c0565b6105c857611a09816001600160a01b03166014611b66565b611a14836020611b66565b604051602001611a259291906121f5565b60408051601f198184030181529082905262461bcd60e51b8252610a489160040161226a565b60025460ff166119855760405162461bcd60e51b815260206004820152601460248201527314185d5cd8589b194e881b9bdd081c185d5cd95960621b6044820152606401610a48565b6000611ae9826040518060400160405280602081526020017f5361666545524332303a206c6f772d6c6576656c2063616c6c206661696c6564815250856001600160a01b0316611d099092919063ffffffff16565b8051909150156109d75780806020019051810190611b07919061229d565b6109d75760405162461bcd60e51b815260206004820152602a60248201527f5361666545524332303a204552433230206f7065726174696f6e20646964206e6044820152691bdd081cdd58d8d9595960b21b6064820152608401610a48565b60606000611b75836002612097565b611b809060026120b6565b67ffffffffffffffff811115611b9857611b986122ba565b6040519080825280601f01601f191660200182016040528015611bc2576020820181803683370190505b509050600360fc1b81600081518110611bdd57611bdd612054565b60200101906001600160f81b031916908160001a905350600f60fb1b81600181518110611c0c57611c0c612054565b60200101906001600160f81b031916908160001a9053506000611c30846002612097565b611c3b9060016120b6565b90505b6001811115611cb3576f181899199a1a9b1b9c1cb0b131b232b360811b85600f1660108110611c6f57611c6f612054565b1a60f81b828281518110611c8557611c85612054565b60200101906001600160f81b031916908160001a90535060049490941c93611cac816122d0565b9050611c3e565b508315611d025760405162461bcd60e51b815260206004820181905260248201527f537472696e67733a20686578206c656e67746820696e73756666696369656e746044820152606401610a48565b9392505050565b6060611d188484600085611d20565b949350505050565b606082471015611d815760405162461bcd60e51b815260206004820152602660248201527f416464726573733a20696e73756666696369656e742062616c616e636520666f6044820152651c8818d85b1b60d21b6064820152608401610a48565b6001600160a01b0385163b611dd85760405162461bcd60e51b815260206004820152601d60248201527f416464726573733a2063616c6c20746f206e6f6e2d636f6e74726163740000006044820152606401610a48565b600080866001600160a01b03168587604051611df491906122e7565b60006040518083038185875af1925050503d8060008114611e31576040519150601f19603f3d011682016040523d82523d6000602084013e611e36565b606091505b5091509150611e46828286611e51565b979650505050505050565b60608315611e60575081611d02565b825115611e705782518084602001fd5b8160405162461bcd60e51b8152600401610a48919061226a565b600060208284031215611e9c57600080fd5b81356001600160e01b031981168114611d0257600080fd5b80151581146117c057600080fd5b600060208284031215611ed457600080fd5b8135611d0281611eb4565b600060208284031215611ef157600080fd5b5035919050565b60ff811681146117c057600080fd5b60008060408385031215611f1a57600080fd5b8235611f2581611ef8565b946020939093013593505050565b6001600160a01b03811681146117c057600080fd5b60008060408385031215611f5b57600080fd5b823591506020830135611f6d81611f33565b809150509250929050565b600060208284031215611f8a57600080fd5b8135611d0281611f33565b600080600080600060a08688031215611fad57600080fd5b8551611fb881611ef8565b6020870151909550611fc981611ef8565b6040870151909450611fda81611ef8565b6060870151909350611feb81611ef8565b6080870151909250611ffc81611ef8565b809150509295509295909350565b60008060008060008060c0878903121561202357600080fd5b865195506020870151945060408701519350606087015192506080870151915060a087015190509295509295509295565b634e487b7160e01b600052603260045260246000fd5b634e487b7160e01b600052601160045260246000fd5b6000828210156120925761209261206a565b500390565b60008160001904831182151516156120b1576120b161206a565b500290565b600082198211156120c9576120c961206a565b500190565b600061ffff8083168185168083038211156120eb576120eb61206a565b01949350505050565b60008261211157634e487b7160e01b600052601260045260246000fd5b500490565b60006020828403121561212857600080fd5b8151611d0281611f33565b6020808252600d908201526c4e6f5a65726f4164647265737360981b604082015260600190565b805169ffffffffffffffffffff8116811461217457600080fd5b919050565b600080600080600060a0868803121561219157600080fd5b61219a8661215a565b94506020860151935060408601519250606086015191506121bd6080870161215a565b90509295509295909350565b60005b838110156121e45781810151838201526020016121cc565b838111156119e15750506000910152565b7f416363657373436f6e74726f6c3a206163636f756e742000000000000000000081526000835161222d8160178501602088016121c9565b7001034b99036b4b9b9b4b733903937b6329607d1b601791840191820152835161225e8160288401602088016121c9565b01602801949350505050565b60208152600082518060208401526122898160408501602087016121c9565b601f01601f19169190910160400192915050565b6000602082840312156122af57600080fd5b8151611d0281611eb4565b634e487b7160e01b600052604160045260246000fd5b6000816122df576122df61206a565b506000190190565b600082516122f98184602087016121c9565b919091019291505056fea264697066735822122043e8e2af63553cdd4b7120a85ef5fd8858edf65aacb7cecc9c8c57f804e307a964736f6c63430008090033",
  "devdoc": {
    "kind": "dev",
    "methods": {
      "getRoleAdmin(bytes32)": {
        "details": "Returns the admin role that controls `role`. See {grantRole} and {revokeRole}. To change a role's admin, use {_setRoleAdmin}."
      },
      "grantRole(bytes32,address)": {
        "details": "Grants `role` to `account`. If `account` had not been already granted `role`, emits a {RoleGranted} event. Requirements: - the caller must have ``role``'s admin role. May emit a {RoleGranted} event."
      },
      "hasRole(bytes32,address)": {
        "details": "Returns `true` if `account` has been granted `role`."
      },
      "paused()": {
        "details": "Returns true if the contract is paused, and false otherwise."
      },
      "renounceRole(bytes32,address)": {
        "details": "Revokes `role` from the calling account. Roles are often managed via {grantRole} and {revokeRole}: this function's purpose is to provide a mechanism for accounts to lose their privileges if they are compromised (such as when a trusted device is misplaced). If the calling account had been revoked `role`, emits a {RoleRevoked} event. Requirements: - the caller must be `account`. May emit a {RoleRevoked} event."
      },
      "revokeRole(bytes32,address)": {
        "details": "Revokes `role` from `account`. If `account` had been granted `role`, emits a {RoleRevoked} event. Requirements: - the caller must have ``role``'s admin role. May emit a {RoleRevoked} event."
      },
      "supportsInterface(bytes4)": {
        "details": "See {IERC165-supportsInterface}."
      }
    },
    "version": 1
  },
  "userdoc": {
    "kind": "user",
    "methods": {
      "getLatestPrice()": {
        "notice": "Returns the latest price"
      }
    },
    "version": 1
  },
  "storageLayout": {
    "storage": [
      {
        "astId": 70,
        "contract": "contracts/Utilities/Upgrader.sol:Upgrader",
        "label": "_roles",
        "offset": 0,
        "slot": "0",
        "type": "t_mapping(t_bytes32,t_struct(RoleData)65_storage)"
      },
      {
        "astId": 557,
        "contract": "contracts/Utilities/Upgrader.sol:Upgrader",
        "label": "_status",
        "offset": 0,
        "slot": "1",
        "type": "t_uint256"
      },
      {
        "astId": 456,
        "contract": "contracts/Utilities/Upgrader.sol:Upgrader",
        "label": "_paused",
        "offset": 0,
        "slot": "2",
        "type": "t_bool"
      },
      {
        "astId": 6981,
        "contract": "contracts/Utilities/Upgrader.sol:Upgrader",
        "label": "priceFeed",
        "offset": 1,
        "slot": "2",
        "type": "t_contract(AggregatorV3Interface)45"
      },
      {
        "astId": 6987,
        "contract": "contracts/Utilities/Upgrader.sol:Upgrader",
        "label": "blastEquipmentNFT",
        "offset": 0,
        "slot": "3",
        "type": "t_contract(IBlastEquipmentNFT)7397"
      },
      {
        "astId": 6990,
        "contract": "contracts/Utilities/Upgrader.sol:Upgrader",
        "label": "blastToken",
        "offset": 0,
        "slot": "4",
        "type": "t_contract(IERC20)1250"
      },
      {
        "astId": 6993,
        "contract": "contracts/Utilities/Upgrader.sol:Upgrader",
        "label": "csToken",
        "offset": 0,
        "slot": "5",
        "type": "t_contract(ERC20Burnable)1294"
      },
      {
        "astId": 6995,
        "contract": "contracts/Utilities/Upgrader.sol:Upgrader",
        "label": "treasuryAddress",
        "offset": 0,
        "slot": "6",
        "type": "t_address"
      },
      {
        "astId": 6997,
        "contract": "contracts/Utilities/Upgrader.sol:Upgrader",
        "label": "companyAddress",
        "offset": 0,
        "slot": "7",
        "type": "t_address"
      },
      {
        "astId": 6999,
        "contract": "contracts/Utilities/Upgrader.sol:Upgrader",
        "label": "isUsingMatic",
        "offset": 20,
        "slot": "7",
        "type": "t_bool"
      },
      {
        "astId": 6400,
        "contract": "contracts/Utilities/Upgrader.sol:Upgrader",
        "label": "maxLevelPerRarity",
        "offset": 0,
        "slot": "8",
        "type": "t_array(t_uint256)10_storage"
      },
      {
        "astId": 6410,
        "contract": "contracts/Utilities/Upgrader.sol:Upgrader",
        "label": "multiplierPerGrade",
        "offset": 0,
        "slot": "18",
        "type": "t_array(t_uint16)5_storage"
      },
      {
        "astId": 6413,
        "contract": "contracts/Utilities/Upgrader.sol:Upgrader",
        "label": "bltAttribute",
        "offset": 0,
        "slot": "19",
        "type": "t_struct(Attributes)6385_storage"
      },
      {
        "astId": 6416,
        "contract": "contracts/Utilities/Upgrader.sol:Upgrader",
        "label": "csAttribute",
        "offset": 0,
        "slot": "22",
        "type": "t_struct(Attributes)6385_storage"
      }
    ],
    "types": {
      "t_address": {
        "encoding": "inplace",
        "label": "address",
        "numberOfBytes": "20"
      },
      "t_array(t_uint16)10_storage": {
        "base": "t_uint16",
        "encoding": "inplace",
        "label": "uint16[10]",
        "numberOfBytes": "32"
      },
      "t_array(t_uint16)5_storage": {
        "base": "t_uint16",
        "encoding": "inplace",
        "label": "uint16[5]",
        "numberOfBytes": "32"
      },
      "t_array(t_uint256)10_storage": {
        "base": "t_uint256",
        "encoding": "inplace",
        "label": "uint256[10]",
        "numberOfBytes": "320"
      },
      "t_array(t_uint8)10_storage": {
        "base": "t_uint8",
        "encoding": "inplace",
        "label": "uint8[10]",
        "numberOfBytes": "32"
      },
      "t_bool": {
        "encoding": "inplace",
        "label": "bool",
        "numberOfBytes": "1"
      },
      "t_bytes32": {
        "encoding": "inplace",
        "label": "bytes32",
        "numberOfBytes": "32"
      },
      "t_contract(AggregatorV3Interface)45": {
        "encoding": "inplace",
        "label": "contract AggregatorV3Interface",
        "numberOfBytes": "20"
      },
      "t_contract(ERC20Burnable)1294": {
        "encoding": "inplace",
        "label": "contract ERC20Burnable",
        "numberOfBytes": "20"
      },
      "t_contract(IBlastEquipmentNFT)7397": {
        "encoding": "inplace",
        "label": "contract IBlastEquipmentNFT",
        "numberOfBytes": "20"
      },
      "t_contract(IERC20)1250": {
        "encoding": "inplace",
        "label": "contract IERC20",
        "numberOfBytes": "20"
      },
      "t_mapping(t_address,t_bool)": {
        "encoding": "mapping",
        "key": "t_address",
        "label": "mapping(address => bool)",
        "numberOfBytes": "32",
        "value": "t_bool"
      },
      "t_mapping(t_bytes32,t_struct(RoleData)65_storage)": {
        "encoding": "mapping",
        "key": "t_bytes32",
        "label": "mapping(bytes32 => struct AccessControl.RoleData)",
        "numberOfBytes": "32",
        "value": "t_struct(RoleData)65_storage"
      },
      "t_struct(Attributes)6385_storage": {
        "encoding": "inplace",
        "label": "struct Upgrader.Attributes",
        "members": [
          {
            "astId": 6378,
            "contract": "contracts/Utilities/Upgrader.sol:Upgrader",
            "label": "pricePerRarity",
            "offset": 0,
            "slot": "0",
            "type": "t_array(t_uint16)10_storage"
          },
          {
            "astId": 6382,
            "contract": "contracts/Utilities/Upgrader.sol:Upgrader",
            "label": "pricePerAdjective",
            "offset": 0,
            "slot": "1",
            "type": "t_array(t_uint8)10_storage"
          },
          {
            "astId": 6384,
            "contract": "contracts/Utilities/Upgrader.sol:Upgrader",
            "label": "pricePerLevel",
            "offset": 0,
            "slot": "2",
            "type": "t_uint256"
          }
        ],
        "numberOfBytes": "96"
      },
      "t_struct(RoleData)65_storage": {
        "encoding": "inplace",
        "label": "struct AccessControl.RoleData",
        "members": [
          {
            "astId": 62,
            "contract": "contracts/Utilities/Upgrader.sol:Upgrader",
            "label": "members",
            "offset": 0,
            "slot": "0",
            "type": "t_mapping(t_address,t_bool)"
          },
          {
            "astId": 64,
            "contract": "contracts/Utilities/Upgrader.sol:Upgrader",
            "label": "adminRole",
            "offset": 0,
            "slot": "1",
            "type": "t_bytes32"
          }
        ],
        "numberOfBytes": "64"
      },
      "t_uint16": {
        "encoding": "inplace",
        "label": "uint16",
        "numberOfBytes": "2"
      },
      "t_uint256": {
        "encoding": "inplace",
        "label": "uint256",
        "numberOfBytes": "32"
      },
      "t_uint8": {
        "encoding": "inplace",
        "label": "uint8",
        "numberOfBytes": "1"
      }
    }
  }
}