{
  "address": "0xc874dDAFE038f274B6dDa04735AbD606A32b8682",
  "abi": [
    {
      "inputs": [
        {
          "internalType": "contract IBlastEquipmentNFT",
          "name": "_blastEquipmentNFT",
          "type": "address"
        },
        {
          "internalType": "contract IERC20",
          "name": "_blastToken",
          "type": "address"
        },
        {
          "internalType": "contract ERC20Burnable",
          "name": "_csToken",
          "type": "address"
        },
        {
          "internalType": "address",
          "name": "_treasuryAddress",
          "type": "address"
        },
        {
          "internalType": "address",
          "name": "_companyAddress",
          "type": "address"
        }
      ],
      "stateMutability": "nonpayable",
      "type": "constructor"
    },
    {
      "anonymous": false,
      "inputs": [
        {
          "indexed": false,
          "internalType": "uint256",
          "name": "tokenId",
          "type": "uint256"
        },
        {
          "indexed": false,
          "internalType": "address",
          "name": "owner",
          "type": "address"
        },
        {
          "indexed": false,
          "internalType": "uint256",
          "name": "newLevel",
          "type": "uint256"
        }
      ],
      "name": "LevelUpgraded",
      "type": "event"
    },
    {
      "anonymous": false,
      "inputs": [
        {
          "indexed": false,
          "internalType": "address",
          "name": "account",
          "type": "address"
        }
      ],
      "name": "Paused",
      "type": "event"
    },
    {
      "anonymous": false,
      "inputs": [
        {
          "indexed": true,
          "internalType": "bytes32",
          "name": "role",
          "type": "bytes32"
        },
        {
          "indexed": true,
          "internalType": "bytes32",
          "name": "previousAdminRole",
          "type": "bytes32"
        },
        {
          "indexed": true,
          "internalType": "bytes32",
          "name": "newAdminRole",
          "type": "bytes32"
        }
      ],
      "name": "RoleAdminChanged",
      "type": "event"
    },
    {
      "anonymous": false,
      "inputs": [
        {
          "indexed": true,
          "internalType": "bytes32",
          "name": "role",
          "type": "bytes32"
        },
        {
          "indexed": true,
          "internalType": "address",
          "name": "account",
          "type": "address"
        },
        {
          "indexed": true,
          "internalType": "address",
          "name": "sender",
          "type": "address"
        }
      ],
      "name": "RoleGranted",
      "type": "event"
    },
    {
      "anonymous": false,
      "inputs": [
        {
          "indexed": true,
          "internalType": "bytes32",
          "name": "role",
          "type": "bytes32"
        },
        {
          "indexed": true,
          "internalType": "address",
          "name": "account",
          "type": "address"
        },
        {
          "indexed": true,
          "internalType": "address",
          "name": "sender",
          "type": "address"
        }
      ],
      "name": "RoleRevoked",
      "type": "event"
    },
    {
      "anonymous": false,
      "inputs": [
        {
          "indexed": false,
          "internalType": "address",
          "name": "account",
          "type": "address"
        }
      ],
      "name": "Unpaused",
      "type": "event"
    },
    {
      "inputs": [],
      "name": "DECIMAL_FACTOR",
      "outputs": [
        {
          "internalType": "uint256",
          "name": "",
          "type": "uint256"
        }
      ],
      "stateMutability": "view",
      "type": "function"
    },
    {
      "inputs": [],
      "name": "DEFAULT_ADMIN_ROLE",
      "outputs": [
        {
          "internalType": "bytes32",
          "name": "",
          "type": "bytes32"
        }
      ],
      "stateMutability": "view",
      "type": "function"
    },
    {
      "inputs": [],
      "name": "blastEquipmentNFT",
      "outputs": [
        {
          "internalType": "contract IBlastEquipmentNFT",
          "name": "",
          "type": "address"
        }
      ],
      "stateMutability": "view",
      "type": "function"
    },
    {
      "inputs": [],
      "name": "blastToken",
      "outputs": [
        {
          "internalType": "contract IERC20",
          "name": "",
          "type": "address"
        }
      ],
      "stateMutability": "view",
      "type": "function"
    },
    {
      "inputs": [],
      "name": "bltAttribute",
      "outputs": [
        {
          "internalType": "uint256",
          "name": "pricePerLevel",
          "type": "uint256"
        }
      ],
      "stateMutability": "view",
      "type": "function"
    },
    {
      "inputs": [],
      "name": "csAttribute",
      "outputs": [
        {
          "internalType": "uint256",
          "name": "pricePerLevel",
          "type": "uint256"
        }
      ],
      "stateMutability": "view",
      "type": "function"
    },
    {
      "inputs": [],
      "name": "csToken",
      "outputs": [
        {
          "internalType": "contract ERC20Burnable",
          "name": "",
          "type": "address"
        }
      ],
      "stateMutability": "view",
      "type": "function"
    },
    {
      "inputs": [],
      "name": "durabilityEffectDivider",
      "outputs": [
        {
          "internalType": "uint256",
          "name": "",
          "type": "uint256"
        }
      ],
      "stateMutability": "view",
      "type": "function"
    },
    {
      "inputs": [],
      "name": "flipIsUsingMatic",
      "outputs": [],
      "stateMutability": "nonpayable",
      "type": "function"
    },
    {
      "inputs": [
        {
          "internalType": "uint8",
          "name": "_tokenType",
          "type": "uint8"
        },
        {
          "internalType": "uint256",
          "name": "_tokenId",
          "type": "uint256"
        },
        {
          "internalType": "uint256",
          "name": "_increaseLevel",
          "type": "uint256"
        }
      ],
      "name": "getMultipleRequiredPrice",
      "outputs": [
        {
          "internalType": "uint256",
          "name": "",
          "type": "uint256"
        }
      ],
      "stateMutability": "view",
      "type": "function"
    },
    {
      "inputs": [
        {
          "internalType": "bytes32",
          "name": "role",
          "type": "bytes32"
        }
      ],
      "name": "getRoleAdmin",
      "outputs": [
        {
          "internalType": "bytes32",
          "name": "",
          "type": "bytes32"
        }
      ],
      "stateMutability": "view",
      "type": "function"
    },
    {
      "inputs": [
        {
          "internalType": "bytes32",
          "name": "role",
          "type": "bytes32"
        },
        {
          "internalType": "address",
          "name": "account",
          "type": "address"
        }
      ],
      "name": "grantRole",
      "outputs": [],
      "stateMutability": "nonpayable",
      "type": "function"
    },
    {
      "inputs": [
        {
          "internalType": "bytes32",
          "name": "role",
          "type": "bytes32"
        },
        {
          "internalType": "address",
          "name": "account",
          "type": "address"
        }
      ],
      "name": "hasRole",
      "outputs": [
        {
          "internalType": "bool",
          "name": "",
          "type": "bool"
        }
      ],
      "stateMutability": "view",
      "type": "function"
    },
    {
      "inputs": [],
      "name": "isUsingMatic",
      "outputs": [
        {
          "internalType": "bool",
          "name": "",
          "type": "bool"
        }
      ],
      "stateMutability": "view",
      "type": "function"
    },
    {
      "inputs": [],
      "name": "maticAttribute",
      "outputs": [
        {
          "internalType": "uint256",
          "name": "pricePerLevel",
          "type": "uint256"
        }
      ],
      "stateMutability": "view",
      "type": "function"
    },
    {
      "inputs": [
        {
          "internalType": "uint256",
          "name": "",
          "type": "uint256"
        }
      ],
      "name": "maxLevelPerRarity",
      "outputs": [
        {
          "internalType": "uint256",
          "name": "",
          "type": "uint256"
        }
      ],
      "stateMutability": "view",
      "type": "function"
    },
    {
      "inputs": [
        {
          "internalType": "uint256",
          "name": "",
          "type": "uint256"
        }
      ],
      "name": "multiplierPerGrade",
      "outputs": [
        {
          "internalType": "uint16",
          "name": "",
          "type": "uint16"
        }
      ],
      "stateMutability": "view",
      "type": "function"
    },
    {
      "inputs": [
        {
          "internalType": "bool",
          "name": "stop",
          "type": "bool"
        }
      ],
      "name": "pause",
      "outputs": [],
      "stateMutability": "nonpayable",
      "type": "function"
    },
    {
      "inputs": [],
      "name": "paused",
      "outputs": [
        {
          "internalType": "bool",
          "name": "",
          "type": "bool"
        }
      ],
      "stateMutability": "view",
      "type": "function"
    },
    {
      "inputs": [
        {
          "internalType": "bytes32",
          "name": "role",
          "type": "bytes32"
        },
        {
          "internalType": "address",
          "name": "account",
          "type": "address"
        }
      ],
      "name": "renounceRole",
      "outputs": [],
      "stateMutability": "nonpayable",
      "type": "function"
    },
    {
      "inputs": [
        {
          "internalType": "bytes32",
          "name": "role",
          "type": "bytes32"
        },
        {
          "internalType": "address",
          "name": "account",
          "type": "address"
        }
      ],
      "name": "revokeRole",
      "outputs": [],
      "stateMutability": "nonpayable",
      "type": "function"
    },
    {
      "inputs": [
        {
          "internalType": "contract IBlastEquipmentNFT",
          "name": "_blastEquipmentNFT",
          "type": "address"
        }
      ],
      "name": "setBlastEquipmentAddress",
      "outputs": [],
      "stateMutability": "nonpayable",
      "type": "function"
    },
    {
      "inputs": [
        {
          "internalType": "contract IERC20",
          "name": "_blastToken",
          "type": "address"
        }
      ],
      "name": "setBlastTokenAddress",
      "outputs": [],
      "stateMutability": "nonpayable",
      "type": "function"
    },
    {
      "inputs": [
        {
          "internalType": "contract ERC20Burnable",
          "name": "_csToken",
          "type": "address"
        }
      ],
      "name": "setCSTokenAddress",
      "outputs": [],
      "stateMutability": "nonpayable",
      "type": "function"
    },
    {
      "inputs": [
        {
          "internalType": "address",
          "name": "_company",
          "type": "address"
        }
      ],
      "name": "setCompanyAddress",
      "outputs": [],
      "stateMutability": "nonpayable",
      "type": "function"
    },
    {
      "inputs": [
        {
          "internalType": "uint256",
          "name": "_newValue",
          "type": "uint256"
        }
      ],
      "name": "setDurabilityEffectDivider",
      "outputs": [],
      "stateMutability": "nonpayable",
      "type": "function"
    },
    {
      "inputs": [
        {
          "internalType": "uint16[5]",
          "name": "_multiplierPerGrade",
          "type": "uint16[5]"
        }
      ],
      "name": "setMultiplierPerGrade",
      "outputs": [],
      "stateMutability": "nonpayable",
      "type": "function"
    },
    {
      "inputs": [
        {
          "internalType": "address",
          "name": "_treasury",
          "type": "address"
        }
      ],
      "name": "setTreasuryAddress",
      "outputs": [],
      "stateMutability": "nonpayable",
      "type": "function"
    },
    {
      "inputs": [
        {
          "internalType": "bytes4",
          "name": "interfaceId",
          "type": "bytes4"
        }
      ],
      "name": "supportsInterface",
      "outputs": [
        {
          "internalType": "bool",
          "name": "",
          "type": "bool"
        }
      ],
      "stateMutability": "view",
      "type": "function"
    },
    {
      "inputs": [
        {
          "internalType": "uint256",
          "name": "_tokenId",
          "type": "uint256"
        },
        {
          "internalType": "uint256",
          "name": "_increaseLevel",
          "type": "uint256"
        }
      ],
      "name": "upgrade",
      "outputs": [],
      "stateMutability": "nonpayable",
      "type": "function"
    },
    {
      "inputs": [
        {
          "internalType": "uint256",
          "name": "_tokenId",
          "type": "uint256"
        },
        {
          "internalType": "uint256",
          "name": "_increaseLevel",
          "type": "uint256"
        }
      ],
      "name": "upgradeUsingMatic",
      "outputs": [],
      "stateMutability": "payable",
      "type": "function"
    }
  ],
  "transactionHash": "0x4c1e2376ad2af7f91b9330fc35aa7532f72214591cbdfb4e660eb7f5fc5125f5",
  "args": [
    "0x95AE3f2aBa76316985c7D882C0fFF41E12698690",
    "0xf1ef3De13FE60a7E9C23cf8f912bf8D59475F53F",
    "0x377F70FF5Aaa97537256476C974dce06dB3b00D1",
    "0x7Ac410F4E36873022b57821D7a8EB3D7513C045a",
    "0x7Ac410F4E36873022b57821D7a8EB3D7513C045a"
  ],
  "numDeployments": 1,
  "solcInputHash": "e1022c2b25c0085f1557400f326d633d",
  "bytecode": "0x60306007556101c0604052600a6080818152600c60a052600f60c052601160e052601461010052601661012052601961014052601b61016052601e6101805260236101a05262000053916008919062000716565b506040805160a0810182526106cc81526105f060208201526105289181019190915261047e60608201526103e86080820152620000959060129060056200075e565b50348015620000a357600080fd5b506040516200300e3803806200300e833981016040819052620000c69162000821565b600180556002805460ff1916905584848484846001600160a01b03851615801590620000fa57506001600160a01b03841615155b80156200010f57506001600160a01b03831615155b80156200012457506001600160a01b03821615155b80156200013957506001600160a01b03811615155b604051806040016040528060018152602001603160f81b815250906200017d5760405162461bcd60e51b8152600401620001749190620008a1565b60405180910390fd5b506200018b60003362000666565b84600260016101000a8154816001600160a01b0302191690836001600160a01b0316021790555083600360006101000a8154816001600160a01b0302191690836001600160a01b0316021790555082600460006101000a8154816001600160a01b0302191690836001600160a01b0316021790555081600560006101000a8154816001600160a01b0302191690836001600160a01b0316021790555080600660006101000a8154816001600160a01b0302191690836001600160a01b0316021790555050505050506000604051806101400160405280600361ffff1661ffff168152602001600461ffff168152602001600461ffff168152602001600561ffff168152602001600561ffff168152602001600661ffff168152602001600761ffff168152602001600761ffff168152602001600861ffff168152602001600961ffff1681525090506000604051806101400160405280600061ffff1661ffff168152602001600061ffff168152602001600061ffff168152602001600161ffff168152602001600161ffff168152602001600261ffff168152602001600261ffff168152602001600361ffff168152602001600461ffff168152602001600461ffff1681525090506000604051806101400160405280601e61ffff1661ffff168152602001602861ffff168152602001602861ffff168152602001603261ffff168152602001603261ffff168152602001603c61ffff168152602001604661ffff168152602001604661ffff168152602001605061ffff168152602001605a61ffff1681525090506000604051806101400160405280600061ffff1661ffff168152602001600061ffff168152602001600061ffff168152602001600d61ffff168152602001600d61ffff168152602001601b61ffff168152602001601b61ffff168152602001602861ffff168152602001603561ffff168152602001603561ffff1681525090506000604051806101400160405280606461ffff168152602001609061ffff16815260200160cf61ffff16815260200161012961ffff1681526020016101ab61ffff16815260200161026561ffff16815260200161037161ffff1681526020016104f261ffff16815260200161071b61ffff168152602001610a3561ffff1681525090506000604051806101400160405280600061ffff168152602001601461ffff168152602001603261ffff168152602001605061ffff168152602001605061ffff16815260200160b461ffff16815260200160b461ffff16815260200161014a61ffff1681526020016101e061ffff1681526020016101e061ffff16815250905060405180606001604052808781526020018681526020016101f4815250601360008201518160000190600a6200058d9291906200075e565b506020820151620005a5906001830190600a6200075e565b506040918201516002909101558051606081018252858152602081018590526101f4918101919091526016620005de8187600a6200075e565b506020820151620005f6906001830190600a6200075e565b506040918201516002909101558051606081018252838152602081018390526109c49181019190915260196200062f8185600a6200075e565b50602082015162000647906001830190600a6200075e565b50604082015181600201559050505050505050505050505050620008f9565b62000672828262000676565b5050565b6000828152602081815260408083206001600160a01b038516845290915290205460ff1662000672576000828152602081815260408083206001600160a01b03851684529091529020805460ff19166001179055620006d23390565b6001600160a01b0316816001600160a01b0316837f2f8788117e7eff1d82e926ec794901d17c78024a50270940304540a733656f0d60405160405180910390a45050565b82600a81019282156200074c579160200282015b828111156200074c578251829060ff169055916020019190600101906200072a565b506200075a929150620007f1565b5090565b6001830191839082156200074c5791602002820160005b83821115620007b757835183826101000a81548161ffff021916908361ffff160217905550926020019260020160208160010104928301926001030262000775565b8015620007e75782816101000a81549061ffff0219169055600201602081600101049283019260010302620007b7565b50506200075a9291505b5b808211156200075a5760008155600101620007f2565b6001600160a01b03811681146200081e57600080fd5b50565b600080600080600060a086880312156200083a57600080fd5b8551620008478162000808565b60208701519095506200085a8162000808565b60408701519094506200086d8162000808565b6060870151909350620008808162000808565b6080870151909250620008938162000808565b809150509295509295909350565b600060208083528351808285015260005b81811015620008d057858101830151858201604001528201620008b2565b81811115620008e3576000604083870101525b50601f01601f1916929092016040019392505050565b61270580620009096000396000f3fe6080604052600436106101d85760003560e01c80635c975abb11610102578063a217fddf11610095578063df8de16311610064578063df8de16314610548578063e04605fd14610569578063e3849ed014610589578063eccb4448146105a957600080fd5b8063a217fddf146104dc578063bf3dc8f5146104f1578063c1763ee514610508578063d547741f1461052857600080fd5b806372c6239a116100d157806372c6239a1461046d5780637557a7d21461049257806391d14854146104a9578063a1201818146104c957600080fd5b80635c975abb146103ff5780635e00e592146104175780636605bfda1461042d57806367bdae9a1461044d57600080fd5b80632f2ff15d1161017a5780634c0f5276116101495780634c0f5276146103885780634f63a772146103a8578063522ffe96146103c85780635ad6af93146103e857600080fd5b80632f2ff15d1461031257806333fdbbe51461033257806336568abe14610348578063451450ec1461036857600080fd5b8063062f8344116101b6578063062f83441461024957806309aca32e1461027c5780631b078ab31461029c578063248a9ca3146102d457600080fd5b806301ffc9a7146101dd578063021946fd1461021257806302329a2914610229575b600080fd5b3480156101e957600080fd5b506101fd6101f83660046121ca565b6105c9565b60405190151581526020015b60405180910390f35b34801561021e57600080fd5b50610227610600565b005b34801561023557600080fd5b50610227610244366004612202565b61062d565b34801561025557600080fd5b5061026961026436600461221f565b610652565b60405161ffff9091168152602001610209565b34801561028857600080fd5b5061022761029736600461221f565b610680565b3480156102a857600080fd5b506003546102bc906001600160a01b031681565b6040516001600160a01b039091168152602001610209565b3480156102e057600080fd5b506103046102ef36600461221f565b60009081526020819052604090206001015490565b604051908152602001610209565b34801561031e57600080fd5b5061022761032d36600461224d565b6106d1565b34801561033e57600080fd5b506103046103e881565b34801561035457600080fd5b5061022761036336600461224d565b6106fb565b34801561037457600080fd5b5061022761038336600461227d565b610775565b34801561039457600080fd5b506102276103a336600461229f565b610ca1565b3480156103b457600080fd5b506102276103c336600461229f565b610d0f565b3480156103d457600080fd5b506103046103e336600461221f565b610d7d565b3480156103f457600080fd5b50601b546103049081565b34801561040b57600080fd5b5060025460ff166101fd565b34801561042357600080fd5b5061030460075481565b34801561043957600080fd5b5061022761044836600461229f565b610d94565b34801561045957600080fd5b506102276104683660046122e9565b610e02565b34801561047957600080fd5b506002546102bc9061010090046001600160a01b031681565b34801561049e57600080fd5b506015546103049081565b3480156104b557600080fd5b506101fd6104c436600461224d565b610e9d565b6102276104d736600461227d565b610ec6565b3480156104e857600080fd5b50610304600081565b3480156104fd57600080fd5b506018546103049081565b34801561051457600080fd5b5061022761052336600461229f565b611512565b34801561053457600080fd5b5061022761054336600461224d565b611580565b34801561055457600080fd5b506006546101fd90600160a01b900460ff1681565b34801561057557600080fd5b506004546102bc906001600160a01b031681565b34801561059557600080fd5b506103046105a436600461238b565b6115a5565b3480156105b557600080fd5b506102276105c436600461229f565b61171a565b60006001600160e01b03198216637965db0b60e01b14806105fa57506301ffc9a760e01b6001600160e01b03198316145b92915050565b600061060b8161178e565b506006805460ff60a01b198116600160a01b9182900460ff1615909102179055565b60006106388161178e565b811561064a5761064661179b565b5050565b6106466117f5565b6012816005811061066257600080fd5b60109182820401919006600202915054906101000a900461ffff1681565b600061068b8161178e565b6040805180820190915260018152601960f91b6020820152826106ca5760405162461bcd60e51b81526004016106c191906123ec565b60405180910390fd5b5050600755565b6000828152602081905260409020600101546106ec8161178e565b6106f6838361182e565b505050565b6001600160a01b038116331461076b5760405162461bcd60e51b815260206004820152602f60248201527f416363657373436f6e74726f6c3a2063616e206f6e6c792072656e6f756e636560448201526e103937b632b9903337b91039b2b63360891b60648201526084016106c1565b61064682826118b2565b600260015414156107c85760405162461bcd60e51b815260206004820152601f60248201527f5265656e7472616e637947756172643a207265656e7472616e742063616c6c0060448201526064016106c1565b60026001556107d5611917565b6006546040805180820190915260018152603960f81b602082015290600160a01b900460ff16156108195760405162461bcd60e51b81526004016106c191906123ec565b506002546040516331a9108f60e11b8152600481018490526101009091046001600160a01b031690636352211e9060240160206040518083038186803b15801561086257600080fd5b505afa158015610876573d6000803e3d6000fd5b505050506040513d601f19601f8201168201806040525081019061089a919061241f565b6001600160a01b0316336001600160a01b031614604051806040016040528060018152602001603360f81b815250906108e65760405162461bcd60e51b81526004016106c191906123ec565b5060006108f5600084846115a5565b90506000610905600185856115a5565b60025460405163f692c82960e01b8152600481018790529192506000916101009091046001600160a01b03169063f692c8299060240160c06040518083038186803b15801561095357600080fd5b505afa158015610967573d6000803e3d6000fd5b505050506040513d601f19601f8201168201806040525081019061098b919061243c565b50600254604051634378a6e360e01b8152600481018c90529196506000955061010090046001600160a01b03169350634378a6e39250602401905060c06040518083038186803b1580156109de57600080fd5b505afa1580156109f2573d6000803e3d6000fd5b505050506040513d601f19601f82011682018060405250810190610a1691906124c3565b505050505090508060001415604051806040016040528060018152602001603560f81b81525090610a5a5760405162461bcd60e51b81526004016106c191906123ec565b5060088260ff16600a8110610a7157610a7161250d565b015481141560405180604001604052806002815260200161189960f11b81525090610aaf5760405162461bcd60e51b81526004016106c191906123ec565b508315801590610abe57508215155b604051806040016040528060018152602001603560f81b81525090610af65760405162461bcd60e51b81526004016106c191906123ec565b506004546001600160a01b03166379cc6790336040516001600160e01b031960e084901b1681526001600160a01b03909116600482015260248101869052604401600060405180830381600087803b158015610b5157600080fd5b505af1158015610b65573d6000803e3d6000fd5b50505050610b9e610b733390565b6005546001600160a01b0316610b8a600488612539565b6003546001600160a01b031692919061195f565b610bc5336006546001600160a01b03166004610bbb88600361255b565b610b8a9190612539565b60025461010090046001600160a01b03166370a93b3687610be6888561257a565b6040516001600160e01b031960e085901b16815260048101929092526024820152604401600060405180830381600087803b158015610c2457600080fd5b505af1158015610c38573d6000803e3d6000fd5b505050507f38567192e7192f44727cb01ef1cce779467d435edc1f3f105c4528445087823586610c653390565b610c6f888561257a565b604080519384526001600160a01b0390921660208401529082015260600160405180910390a150506001805550505050565b6000610cac8161178e565b6040805180820190915260018152603160f81b60208201526001600160a01b038316610ceb5760405162461bcd60e51b81526004016106c191906123ec565b5050600380546001600160a01b0319166001600160a01b0392909216919091179055565b6000610d1a8161178e565b6040805180820190915260018152603160f81b60208201526001600160a01b038316610d595760405162461bcd60e51b81526004016106c191906123ec565b5050600680546001600160a01b0319166001600160a01b0392909216919091179055565b600881600a8110610d8d57600080fd5b0154905081565b6000610d9f8161178e565b6040805180820190915260018152603160f81b60208201526001600160a01b038316610dde5760405162461bcd60e51b81526004016106c191906123ec565b5050600580546001600160a01b0319166001600160a01b0392909216919091179055565b6000610e0d8161178e565b6040805180820190915260018152603560f81b60208201525060005b60058160ff1610156106f657828160ff1660058110610e4a57610e4a61250d565b602002015160128260ff1660058110610e6557610e6561250d565b601091828204019190066002026101000a81548161ffff021916908361ffff1602179055508080610e9590612592565b915050610e29565b6000918252602082815260408084206001600160a01b0393909316845291905290205460ff1690565b60026001541415610f195760405162461bcd60e51b815260206004820152601f60248201527f5265656e7472616e637947756172643a207265656e7472616e742063616c6c0060448201526064016106c1565b6002600155610f26611917565b600654604080518082019091526002815261031360f41b602082015290600160a01b900460ff16610f6a5760405162461bcd60e51b81526004016106c191906123ec565b506002546040516331a9108f60e11b8152600481018490526101009091046001600160a01b031690636352211e9060240160206040518083038186803b158015610fb357600080fd5b505afa158015610fc7573d6000803e3d6000fd5b505050506040513d601f19601f82011682018060405250810190610feb919061241f565b6001600160a01b0316336001600160a01b031614604051806040016040528060018152602001603360f81b815250906110375760405162461bcd60e51b81526004016106c191906123ec565b506000611046600084846115a5565b90506000611056600185856115a5565b60025460405163f692c82960e01b8152600481018790529192506000916101009091046001600160a01b03169063f692c8299060240160c06040518083038186803b1580156110a457600080fd5b505afa1580156110b8573d6000803e3d6000fd5b505050506040513d601f19601f820116820180604052508101906110dc919061243c565b50600254604051634378a6e360e01b8152600481018c90529196506000955061010090046001600160a01b03169350634378a6e39250602401905060c06040518083038186803b15801561112f57600080fd5b505afa158015611143573d6000803e3d6000fd5b505050506040513d601f19601f8201168201806040525081019061116791906124c3565b505050505090508060001415604051806040016040528060018152602001603560f81b815250906111ab5760405162461bcd60e51b81526004016106c191906123ec565b5060088260ff16600a81106111c2576111c261250d565b015481141560405180604001604052806002815260200161189960f11b815250906112005760405162461bcd60e51b81526004016106c191906123ec565b50831580159061120f57508215155b604051806040016040528060018152602001603560f81b815250906112475760405162461bcd60e51b81526004016106c191906123ec565b506004546001600160a01b03166379cc6790336040516001600160e01b031960e084901b1681526001600160a01b03909116600482015260248101869052604401600060405180830381600087803b1580156112a257600080fd5b505af11580156112b6573d6000803e3d6000fd5b50505050833414604051806040016040528060018152602001601b60f91b815250906112f55760405162461bcd60e51b81526004016106c191906123ec565b506005546000906001600160a01b0316611310600487612539565b604051600081818185875af1925050503d806000811461134c576040519150601f19603f3d011682016040523d82523d6000602084013e611351565b606091505b5050905080604051806040016040528060018152602001603760f81b8152509061138e5760405162461bcd60e51b81526004016106c191906123ec565b506006546000906001600160a01b031660046113ab88600361255b565b6113b59190612539565b604051600081818185875af1925050503d80600081146113f1576040519150601f19603f3d011682016040523d82523d6000602084013e6113f6565b606091505b5050905080604051806040016040528060018152602001600760fb1b815250906114335760405162461bcd60e51b81526004016106c191906123ec565b5060025461010090046001600160a01b03166370a93b36896114558a8761257a565b6040516001600160e01b031960e085901b16815260048101929092526024820152604401600060405180830381600087803b15801561149357600080fd5b505af11580156114a7573d6000803e3d6000fd5b505050507f38567192e7192f44727cb01ef1cce779467d435edc1f3f105c45284450878235886114d43390565b6114de8a8761257a565b604080519384526001600160a01b0390921660208401529082015260600160405180910390a1505060018055505050505050565b600061151d8161178e565b6040805180820190915260018152603160f81b60208201526001600160a01b03831661155c5760405162461bcd60e51b81526004016106c191906123ec565b5050600480546001600160a01b0319166001600160a01b0392909216919091179055565b60008281526020819052604090206001015461159b8161178e565b6106f683836118b2565b60025460405163f692c82960e01b815260048101849052600091829182918291829161010090046001600160a01b03169063f692c8299060240160c06040518083038186803b1580156115f757600080fd5b505afa15801561160b573d6000803e3d6000fd5b505050506040513d601f19601f8201168201806040525081019061162f919061243c565b600254604051634378a6e360e01b8152600481018f9052959a5092985090965094506000935061010090046001600160a01b031691634378a6e3915060240160c06040518083038186803b15801561168657600080fd5b505afa15801561169a573d6000803e3d6000fd5b505050506040513d601f19601f820116820180604052508101906116be91906124c3565b50505050509050600080600090505b8881101561170a576116ec8b888888886116e7878a61257a565b6119bf565b6116f6908361257a565b915080611702816125b2565b9150506116cd565b50955050505050505b9392505050565b60006117258161178e565b6040805180820190915260018152603160f81b60208201526001600160a01b0383166117645760405162461bcd60e51b81526004016106c191906123ec565b5050600280546001600160a01b0390921661010002610100600160a81b0319909216919091179055565b6117988133611d2e565b50565b6117a3611917565b6002805460ff191660011790557f62e78cea01bee320cd4e420270b5ea74000d11b0c9f74754ebdbfc544b05a2586117d83390565b6040516001600160a01b03909116815260200160405180910390a1565b6117fd611d92565b6002805460ff191690557f5db9ee0a495bf2e6ff9c91a7834c1ba4fdd244a5e8aa4e537bd38aeae4b073aa336117d8565b6118388282610e9d565b610646576000828152602081815260408083206001600160a01b03851684529091529020805460ff1916600117905561186e3390565b6001600160a01b0316816001600160a01b0316837f2f8788117e7eff1d82e926ec794901d17c78024a50270940304540a733656f0d60405160405180910390a45050565b6118bc8282610e9d565b15610646576000828152602081815260408083206001600160a01b0385168085529252808320805460ff1916905551339285917ff6391f5c32d9c69d2a47ea670b442974b53935d1edc7fd64eb21e047a839171b9190a45050565b60025460ff161561195d5760405162461bcd60e51b815260206004820152601060248201526f14185d5cd8589b194e881c185d5cd95960821b60448201526064016106c1565b565b604080516001600160a01b0385811660248301528416604482015260648082018490528251808303909101815260849091019091526020810180516001600160e01b03166323b872dd60e01b1790526119b9908590611ddb565b50505050565b600060ff8716611bf457600654600160a01b900460ff1615611afb576007548660ff16606460128660ff16600581106119fa576119fa61250d565b601091828204019190066002029054906101000a900461ffff1661ffff16601660020154600187611a2b91906125cd565b611a35919061255b565b611a4290620186a061257a565b601760ff8b16600a8110611a5857611a5861250d565b601091828204019190066002029054906101000a900461ffff1660166000018a60ff16600a8110611a8b57611a8b61250d565b601091828204019190066002029054906101000a900461ffff16611aaf91906125e4565b61ffff16611abd919061255b565b611ac7919061255b565b611ad6906402540be40061255b565b611ae09190612539565b611aea919061255b565b611af49190612539565b9050611d24565b6007548660ff1660128560ff1660058110611b1857611b1861250d565b601091828204019190066002029054906101000a900461ffff1661ffff16601360020154600186611b4991906125cd565b611b53919061255b565b611b6090620186a061257a565b601460ff8a16600a8110611b7657611b7661250d565b601091828204019190066002029054906101000a900461ffff1660136000018960ff16600a8110611ba957611ba961250d565b601091828204019190066002029054906101000a900461ffff16611bcd91906125e4565b61ffff16611bdb919061255b565b611be5919061255b565b611ae0906402540be40061255b565b8660ff1660011415611d20576007548660ff1660646103e88060128860ff1660058110611c2357611c2361250d565b601091828204019190066002029054906101000a900461ffff1661ffff16601960020154600189611c5491906125cd565b611c5e919061255b565b611c6b90620186a061257a565b601a60ff8d16600a8110611c8157611c8161250d565b601091828204019190066002029054906101000a900461ffff1660196000018c60ff16600a8110611cb457611cb461250d565b601091828204019190066002029054906101000a900461ffff16611cd891906125e4565b61ffff16611ce6919061255b565b611cf0919061255b565b611cfa9190612539565b611d049190612539565b611d0e9190612539565b611ae090670de0b6b3a764000061255b565b5060005b9695505050505050565b611d388282610e9d565b61064657611d50816001600160a01b03166014611ead565b611d5b836020611ead565b604051602001611d6c92919061260a565b60408051601f198184030181529082905262461bcd60e51b82526106c1916004016123ec565b60025460ff1661195d5760405162461bcd60e51b815260206004820152601460248201527314185d5cd8589b194e881b9bdd081c185d5cd95960621b60448201526064016106c1565b6000611e30826040518060400160405280602081526020017f5361666545524332303a206c6f772d6c6576656c2063616c6c206661696c6564815250856001600160a01b03166120499092919063ffffffff16565b8051909150156106f65780806020019051810190611e4e919061267f565b6106f65760405162461bcd60e51b815260206004820152602a60248201527f5361666545524332303a204552433230206f7065726174696f6e20646964206e6044820152691bdd081cdd58d8d9595960b21b60648201526084016106c1565b60606000611ebc83600261255b565b611ec790600261257a565b67ffffffffffffffff811115611edf57611edf6122bc565b6040519080825280601f01601f191660200182016040528015611f09576020820181803683370190505b509050600360fc1b81600081518110611f2457611f2461250d565b60200101906001600160f81b031916908160001a905350600f60fb1b81600181518110611f5357611f5361250d565b60200101906001600160f81b031916908160001a9053506000611f7784600261255b565b611f8290600161257a565b90505b6001811115611ffa576f181899199a1a9b1b9c1cb0b131b232b360811b85600f1660108110611fb657611fb661250d565b1a60f81b828281518110611fcc57611fcc61250d565b60200101906001600160f81b031916908160001a90535060049490941c93611ff38161269c565b9050611f85565b5083156117135760405162461bcd60e51b815260206004820181905260248201527f537472696e67733a20686578206c656e67746820696e73756666696369656e7460448201526064016106c1565b60606120588484600085612060565b949350505050565b6060824710156120c15760405162461bcd60e51b815260206004820152602660248201527f416464726573733a20696e73756666696369656e742062616c616e636520666f6044820152651c8818d85b1b60d21b60648201526084016106c1565b6001600160a01b0385163b6121185760405162461bcd60e51b815260206004820152601d60248201527f416464726573733a2063616c6c20746f206e6f6e2d636f6e747261637400000060448201526064016106c1565b600080866001600160a01b0316858760405161213491906126b3565b60006040518083038185875af1925050503d8060008114612171576040519150601f19603f3d011682016040523d82523d6000602084013e612176565b606091505b5091509150612186828286612191565b979650505050505050565b606083156121a0575081611713565b8251156121b05782518084602001fd5b8160405162461bcd60e51b81526004016106c191906123ec565b6000602082840312156121dc57600080fd5b81356001600160e01b03198116811461171357600080fd5b801515811461179857600080fd5b60006020828403121561221457600080fd5b8135611713816121f4565b60006020828403121561223157600080fd5b5035919050565b6001600160a01b038116811461179857600080fd5b6000806040838503121561226057600080fd5b82359150602083013561227281612238565b809150509250929050565b6000806040838503121561229057600080fd5b50508035926020909101359150565b6000602082840312156122b157600080fd5b813561171381612238565b634e487b7160e01b600052604160045260246000fd5b803561ffff811681146122e457600080fd5b919050565b600060a082840312156122fb57600080fd5b82601f83011261230a57600080fd5b60405160a0810181811067ffffffffffffffff8211171561233b57634e487b7160e01b600052604160045260246000fd5b6040528060a084018581111561235057600080fd5b845b8181101561237157612363816122d2565b835260209283019201612352565b509195945050505050565b60ff8116811461179857600080fd5b6000806000606084860312156123a057600080fd5b83356123ab8161237c565b95602085013595506040909401359392505050565b60005b838110156123db5781810151838201526020016123c3565b838111156119b95750506000910152565b602081526000825180602084015261240b8160408501602087016123c0565b601f01601f19169190910160400192915050565b60006020828403121561243157600080fd5b815161171381612238565b60008060008060008060c0878903121561245557600080fd5b86516124608161237c565b60208801519096506124718161237c565b60408801519095506124828161237c565b60608801519094506124938161237c565b60808801519093506124a48161237c565b60a08801519092506124b58161237c565b809150509295509295509295565b60008060008060008060c087890312156124dc57600080fd5b865195506020870151945060408701519350606087015192506080870151915060a087015190509295509295509295565b634e487b7160e01b600052603260045260246000fd5b634e487b7160e01b600052601160045260246000fd5b60008261255657634e487b7160e01b600052601260045260246000fd5b500490565b600081600019048311821515161561257557612575612523565b500290565b6000821982111561258d5761258d612523565b500190565b600060ff821660ff8114156125a9576125a9612523565b60010192915050565b60006000198214156125c6576125c6612523565b5060010190565b6000828210156125df576125df612523565b500390565b600061ffff80831681851680830382111561260157612601612523565b01949350505050565b7f416363657373436f6e74726f6c3a206163636f756e74200000000000000000008152600083516126428160178501602088016123c0565b7001034b99036b4b9b9b4b733903937b6329607d1b60179184019182015283516126738160288401602088016123c0565b01602801949350505050565b60006020828403121561269157600080fd5b8151611713816121f4565b6000816126ab576126ab612523565b506000190190565b600082516126c58184602087016123c0565b919091019291505056fea264697066735822122053016576766577c21ec0ed73c1331e8c09ff859412623ff3af429ddff84f1d6064736f6c63430008090033",
  "devdoc": {
    "kind": "dev",
    "methods": {
      "getRoleAdmin(bytes32)": {
        "details": "Returns the admin role that controls `role`. See {grantRole} and {revokeRole}. To change a role's admin, use {_setRoleAdmin}."
      },
      "grantRole(bytes32,address)": {
        "details": "Grants `role` to `account`. If `account` had not been already granted `role`, emits a {RoleGranted} event. Requirements: - the caller must have ``role``'s admin role. May emit a {RoleGranted} event."
      },
      "hasRole(bytes32,address)": {
        "details": "Returns `true` if `account` has been granted `role`."
      },
      "paused()": {
        "details": "Returns true if the contract is paused, and false otherwise."
      },
      "renounceRole(bytes32,address)": {
        "details": "Revokes `role` from the calling account. Roles are often managed via {grantRole} and {revokeRole}: this function's purpose is to provide a mechanism for accounts to lose their privileges if they are compromised (such as when a trusted device is misplaced). If the calling account had been revoked `role`, emits a {RoleRevoked} event. Requirements: - the caller must be `account`. May emit a {RoleRevoked} event."
      },
      "revokeRole(bytes32,address)": {
        "details": "Revokes `role` from `account`. If `account` had been granted `role`, emits a {RoleRevoked} event. Requirements: - the caller must have ``role``'s admin role. May emit a {RoleRevoked} event."
      },
      "supportsInterface(bytes4)": {
        "details": "See {IERC165-supportsInterface}."
      }
    },
    "version": 1
  },
  "userdoc": {
    "kind": "user",
    "methods": {},
    "version": 1
  },
  "storageLayout": {
    "storage": [
      {
        "astId": 70,
        "contract": "contracts/Utilities/Upgrader.sol:Upgrader",
        "label": "_roles",
        "offset": 0,
        "slot": "0",
        "type": "t_mapping(t_bytes32,t_struct(RoleData)65_storage)"
      },
      {
        "astId": 670,
        "contract": "contracts/Utilities/Upgrader.sol:Upgrader",
        "label": "_status",
        "offset": 0,
        "slot": "1",
        "type": "t_uint256"
      },
      {
        "astId": 569,
        "contract": "contracts/Utilities/Upgrader.sol:Upgrader",
        "label": "_paused",
        "offset": 0,
        "slot": "2",
        "type": "t_bool"
      },
      {
        "astId": 12547,
        "contract": "contracts/Utilities/Upgrader.sol:Upgrader",
        "label": "blastEquipmentNFT",
        "offset": 1,
        "slot": "2",
        "type": "t_contract(IBlastEquipmentNFT)13566"
      },
      {
        "astId": 12550,
        "contract": "contracts/Utilities/Upgrader.sol:Upgrader",
        "label": "blastToken",
        "offset": 0,
        "slot": "3",
        "type": "t_contract(IERC20)1363"
      },
      {
        "astId": 12553,
        "contract": "contracts/Utilities/Upgrader.sol:Upgrader",
        "label": "csToken",
        "offset": 0,
        "slot": "4",
        "type": "t_contract(ERC20Burnable)1407"
      },
      {
        "astId": 12555,
        "contract": "contracts/Utilities/Upgrader.sol:Upgrader",
        "label": "treasuryAddress",
        "offset": 0,
        "slot": "5",
        "type": "t_address"
      },
      {
        "astId": 12557,
        "contract": "contracts/Utilities/Upgrader.sol:Upgrader",
        "label": "companyAddress",
        "offset": 0,
        "slot": "6",
        "type": "t_address"
      },
      {
        "astId": 12559,
        "contract": "contracts/Utilities/Upgrader.sol:Upgrader",
        "label": "isUsingMatic",
        "offset": 20,
        "slot": "6",
        "type": "t_bool"
      },
      {
        "astId": 11739,
        "contract": "contracts/Utilities/Upgrader.sol:Upgrader",
        "label": "durabilityEffectDivider",
        "offset": 0,
        "slot": "7",
        "type": "t_uint256"
      },
      {
        "astId": 11754,
        "contract": "contracts/Utilities/Upgrader.sol:Upgrader",
        "label": "maxLevelPerRarity",
        "offset": 0,
        "slot": "8",
        "type": "t_array(t_uint256)10_storage"
      },
      {
        "astId": 11764,
        "contract": "contracts/Utilities/Upgrader.sol:Upgrader",
        "label": "multiplierPerGrade",
        "offset": 0,
        "slot": "18",
        "type": "t_array(t_uint16)5_storage"
      },
      {
        "astId": 11767,
        "contract": "contracts/Utilities/Upgrader.sol:Upgrader",
        "label": "bltAttribute",
        "offset": 0,
        "slot": "19",
        "type": "t_struct(Attributes)11736_storage"
      },
      {
        "astId": 11770,
        "contract": "contracts/Utilities/Upgrader.sol:Upgrader",
        "label": "maticAttribute",
        "offset": 0,
        "slot": "22",
        "type": "t_struct(Attributes)11736_storage"
      },
      {
        "astId": 11773,
        "contract": "contracts/Utilities/Upgrader.sol:Upgrader",
        "label": "csAttribute",
        "offset": 0,
        "slot": "25",
        "type": "t_struct(Attributes)11736_storage"
      }
    ],
    "types": {
      "t_address": {
        "encoding": "inplace",
        "label": "address",
        "numberOfBytes": "20"
      },
      "t_array(t_uint16)10_storage": {
        "base": "t_uint16",
        "encoding": "inplace",
        "label": "uint16[10]",
        "numberOfBytes": "32"
      },
      "t_array(t_uint16)5_storage": {
        "base": "t_uint16",
        "encoding": "inplace",
        "label": "uint16[5]",
        "numberOfBytes": "32"
      },
      "t_array(t_uint256)10_storage": {
        "base": "t_uint256",
        "encoding": "inplace",
        "label": "uint256[10]",
        "numberOfBytes": "320"
      },
      "t_bool": {
        "encoding": "inplace",
        "label": "bool",
        "numberOfBytes": "1"
      },
      "t_bytes32": {
        "encoding": "inplace",
        "label": "bytes32",
        "numberOfBytes": "32"
      },
      "t_contract(ERC20Burnable)1407": {
        "encoding": "inplace",
        "label": "contract ERC20Burnable",
        "numberOfBytes": "20"
      },
      "t_contract(IBlastEquipmentNFT)13566": {
        "encoding": "inplace",
        "label": "contract IBlastEquipmentNFT",
        "numberOfBytes": "20"
      },
      "t_contract(IERC20)1363": {
        "encoding": "inplace",
        "label": "contract IERC20",
        "numberOfBytes": "20"
      },
      "t_mapping(t_address,t_bool)": {
        "encoding": "mapping",
        "key": "t_address",
        "label": "mapping(address => bool)",
        "numberOfBytes": "32",
        "value": "t_bool"
      },
      "t_mapping(t_bytes32,t_struct(RoleData)65_storage)": {
        "encoding": "mapping",
        "key": "t_bytes32",
        "label": "mapping(bytes32 => struct AccessControl.RoleData)",
        "numberOfBytes": "32",
        "value": "t_struct(RoleData)65_storage"
      },
      "t_struct(Attributes)11736_storage": {
        "encoding": "inplace",
        "label": "struct Upgrader.Attributes",
        "members": [
          {
            "astId": 11729,
            "contract": "contracts/Utilities/Upgrader.sol:Upgrader",
            "label": "pricePerRarity",
            "offset": 0,
            "slot": "0",
            "type": "t_array(t_uint16)10_storage"
          },
          {
            "astId": 11733,
            "contract": "contracts/Utilities/Upgrader.sol:Upgrader",
            "label": "pricePerAdjective",
            "offset": 0,
            "slot": "1",
            "type": "t_array(t_uint16)10_storage"
          },
          {
            "astId": 11735,
            "contract": "contracts/Utilities/Upgrader.sol:Upgrader",
            "label": "pricePerLevel",
            "offset": 0,
            "slot": "2",
            "type": "t_uint256"
          }
        ],
        "numberOfBytes": "96"
      },
      "t_struct(RoleData)65_storage": {
        "encoding": "inplace",
        "label": "struct AccessControl.RoleData",
        "members": [
          {
            "astId": 62,
            "contract": "contracts/Utilities/Upgrader.sol:Upgrader",
            "label": "members",
            "offset": 0,
            "slot": "0",
            "type": "t_mapping(t_address,t_bool)"
          },
          {
            "astId": 64,
            "contract": "contracts/Utilities/Upgrader.sol:Upgrader",
            "label": "adminRole",
            "offset": 0,
            "slot": "1",
            "type": "t_bytes32"
          }
        ],
        "numberOfBytes": "64"
      },
      "t_uint16": {
        "encoding": "inplace",
        "label": "uint16",
        "numberOfBytes": "2"
      },
      "t_uint256": {
        "encoding": "inplace",
        "label": "uint256",
        "numberOfBytes": "32"
      }
    }
  }
}